{
	"contracts/Consorcio.sol": {
		"Consorcio": {
			"abi": [
				{
					"anonymous": false,
					"inputs": [
						{
							"indexed": true,
							"internalType": "address",
							"name": "previousOwner",
							"type": "address"
						},
						{
							"indexed": true,
							"internalType": "address",
							"name": "newOwner",
							"type": "address"
						}
					],
					"name": "OwnershipTransferred",
					"type": "event"
				},
				{
					"anonymous": false,
					"inputs": [
						{
							"indexed": false,
							"internalType": "address",
							"name": "from",
							"type": "address"
						},
						{
							"indexed": false,
							"internalType": "uint256",
							"name": "amount",
							"type": "uint256"
						}
					],
					"name": "PaymentSucessfully",
					"type": "event"
				},
				{
					"stateMutability": "payable",
					"type": "fallback"
				},
				{
					"inputs": [
						{
							"internalType": "string",
							"name": "_name",
							"type": "string"
						},
						{
							"internalType": "address",
							"name": "_employeeAddress",
							"type": "address"
						},
						{
							"internalType": "string",
							"name": "_profession",
							"type": "string"
						},
						{
							"internalType": "uint256",
							"name": "_salary",
							"type": "uint256"
						}
					],
					"name": "addNewEmployee",
					"outputs": [],
					"stateMutability": "nonpayable",
					"type": "function"
				},
				{
					"inputs": [
						{
							"internalType": "string",
							"name": "_name",
							"type": "string"
						},
						{
							"internalType": "uint256",
							"name": "_price",
							"type": "uint256"
						}
					],
					"name": "addNewService",
					"outputs": [],
					"stateMutability": "nonpayable",
					"type": "function"
				},
				{
					"inputs": [
						{
							"internalType": "string",
							"name": "_name",
							"type": "string"
						},
						{
							"internalType": "address",
							"name": "_tenantAddress",
							"type": "address"
						},
						{
							"internalType": "uint256",
							"name": "_rentalCost",
							"type": "uint256"
						},
						{
							"internalType": "string",
							"name": "_residence",
							"type": "string"
						}
					],
					"name": "addNewTenant",
					"outputs": [],
					"stateMutability": "nonpayable",
					"type": "function"
				},
				{
					"inputs": [],
					"name": "getContractBalance",
					"outputs": [
						{
							"internalType": "uint256",
							"name": "balance",
							"type": "uint256"
						}
					],
					"stateMutability": "view",
					"type": "function"
				},
				{
					"inputs": [],
					"name": "owner",
					"outputs": [
						{
							"internalType": "address",
							"name": "",
							"type": "address"
						}
					],
					"stateMutability": "view",
					"type": "function"
				},
				{
					"inputs": [],
					"name": "payAllServices",
					"outputs": [],
					"stateMutability": "nonpayable",
					"type": "function"
				},
				{
					"inputs": [],
					"name": "paySalaries",
					"outputs": [],
					"stateMutability": "payable",
					"type": "function"
				},
				{
					"inputs": [
						{
							"internalType": "uint256",
							"name": "index",
							"type": "uint256"
						}
					],
					"name": "payService",
					"outputs": [],
					"stateMutability": "nonpayable",
					"type": "function"
				},
				{
					"inputs": [],
					"name": "renounceOwnership",
					"outputs": [],
					"stateMutability": "nonpayable",
					"type": "function"
				},
				{
					"inputs": [],
					"name": "showContractAddress",
					"outputs": [
						{
							"internalType": "address",
							"name": "",
							"type": "address"
						}
					],
					"stateMutability": "view",
					"type": "function"
				},
				{
					"inputs": [
						{
							"internalType": "address",
							"name": "newOwner",
							"type": "address"
						}
					],
					"name": "transferOwnership",
					"outputs": [],
					"stateMutability": "nonpayable",
					"type": "function"
				},
				{
					"stateMutability": "payable",
					"type": "receive"
				}
			],
			"devdoc": {
				"kind": "dev",
				"methods": {
					"owner()": {
						"details": "Returns the address of the current owner."
					},
					"renounceOwnership()": {
						"details": "Leaves the contract without owner. It will not be possible to call `onlyOwner` functions anymore. Can only be called by the current owner. NOTE: Renouncing ownership will leave the contract without an owner, thereby removing any functionality that is only available to the owner."
					},
					"transferOwnership(address)": {
						"details": "Transfers ownership of the contract to a new account (`newOwner`). Can only be called by the current owner."
					}
				},
				"version": 1
			},
			"evm": {
				"assembly": "    /* \"contracts/Consorcio.sol\":167:2293  contract Consorcio is Ownable {... */\n  mstore(0x40, 0x80)\n  callvalue\n  dup1\n  iszero\n  tag_1\n  jumpi\n  0x00\n  dup1\n  revert\ntag_1:\n  pop\n    /* \"@openzeppelin/contracts/access/Ownable.sol\":936:968  _transferOwnership(_msgSender()) */\n  tag_4\n    /* \"@openzeppelin/contracts/access/Ownable.sol\":955:967  _msgSender() */\n  tag_5\n    /* \"@openzeppelin/contracts/access/Ownable.sol\":955:965  _msgSender */\n  0x0100000000\n  tag_6\n  dup2\n  mul\n    /* \"@openzeppelin/contracts/access/Ownable.sol\":955:967  _msgSender() */\n  div\n  jump\t// in\ntag_5:\n    /* \"@openzeppelin/contracts/access/Ownable.sol\":936:954  _transferOwnership */\n  0x0100000000\n  tag_7\n  dup2\n  mul\n    /* \"@openzeppelin/contracts/access/Ownable.sol\":936:968  _transferOwnership(_msgSender()) */\n  div\n  jump\t// in\ntag_4:\n    /* \"contracts/Consorcio.sol\":167:2293  contract Consorcio is Ownable {... */\n  jump(tag_8)\n    /* \"@openzeppelin/contracts/utils/Context.sol\":640:736  function _msgSender() internal view virtual returns (address) {... */\ntag_6:\n    /* \"@openzeppelin/contracts/utils/Context.sol\":719:729  msg.sender */\n  caller\n  swap1\n    /* \"@openzeppelin/contracts/utils/Context.sol\":640:736  function _msgSender() internal view virtual returns (address) {... */\n  jump\t// out\n    /* \"@openzeppelin/contracts/access/Ownable.sol\":2433:2620  function _transferOwnership(address newOwner) internal virtual {... */\ntag_7:\n    /* \"@openzeppelin/contracts/access/Ownable.sol\":2506:2522  address oldOwner */\n  0x00\n    /* \"@openzeppelin/contracts/access/Ownable.sol\":2525:2531  _owner */\n  dup1\n  sload\n  sub(exp(0x02, 0xa0), 0x01)\n    /* \"@openzeppelin/contracts/access/Ownable.sol\":2541:2558  _owner = newOwner */\n  dup4\n  dup2\n  and\n  not(sub(exp(0x02, 0xa0), 0x01))\n  dup4\n  and\n  dup2\n  or\n  dup5\n  sstore\n    /* \"@openzeppelin/contracts/access/Ownable.sol\":2573:2613  OwnershipTransferred(oldOwner, newOwner) */\n  mload(0x40)\n    /* \"@openzeppelin/contracts/access/Ownable.sol\":2525:2531  _owner */\n  swap2\n  swap1\n  swap3\n  and\n  swap3\n  dup4\n  swap2\n    /* \"@openzeppelin/contracts/access/Ownable.sol\":2573:2613  OwnershipTransferred(oldOwner, newOwner) */\n  0x8be0079c531659141344cd1fd0a4f28419497f9722a3daafe3b4186f6b6457e0\n  swap2\n    /* \"@openzeppelin/contracts/access/Ownable.sol\":2506:2522  address oldOwner */\n  swap1\n    /* \"@openzeppelin/contracts/access/Ownable.sol\":2573:2613  OwnershipTransferred(oldOwner, newOwner) */\n  log3\n    /* \"@openzeppelin/contracts/access/Ownable.sol\":2496:2620  {... */\n  pop\n    /* \"@openzeppelin/contracts/access/Ownable.sol\":2433:2620  function _transferOwnership(address newOwner) internal virtual {... */\n  pop\n  jump\t// out\n    /* \"contracts/Consorcio.sol\":167:2293  contract Consorcio is Ownable {... */\ntag_8:\n  dataSize(sub_0)\n  dup1\n  dataOffset(sub_0)\n  0x00\n  codecopy\n  0x00\n  return\nstop\n\nsub_0: assembly {\n        /* \"contracts/Consorcio.sol\":167:2293  contract Consorcio is Ownable {... */\n      mstore(0x40, 0x80)\n      jumpi(tag_1, lt(calldatasize, 0x04))\n      calldataload(0x00)\n      0x0100000000000000000000000000000000000000000000000000000000\n      swap1\n      div\n      dup1\n      0x7ca2e656\n      gt\n      tag_14\n      jumpi\n      dup1\n      0x7ca2e656\n      eq\n      tag_8\n      jumpi\n      dup1\n      0x8da5cb5b\n      eq\n      tag_9\n      jumpi\n      dup1\n      0xcc0395bf\n      eq\n      tag_10\n      jumpi\n      dup1\n      0xcd7d77c5\n      eq\n      tag_11\n      jumpi\n      dup1\n      0xec3ab274\n      eq\n      tag_12\n      jumpi\n      dup1\n      0xf2fde38b\n      eq\n      tag_13\n      jumpi\n      stop\n    tag_14:\n      dup1\n      0x2237300f\n      eq\n      tag_3\n      jumpi\n      dup1\n      0x42e36b3b\n      eq\n      tag_4\n      jumpi\n      dup1\n      0x6f9fb98a\n      eq\n      tag_5\n      jumpi\n      dup1\n      0x715018a6\n      eq\n      tag_6\n      jumpi\n      dup1\n      0x72673e31\n      eq\n      tag_7\n      jumpi\n      stop\n    tag_1:\n      jumpi(tag_2, calldatasize)\n      stop\n    tag_2:\n      stop\n        /* \"contracts/Consorcio.sol\":1690:1916  function addNewEmployee(string memory _name, address _employeeAddress, string memory _profession, uint _salary) public onlyOwner {... */\n    tag_3:\n      callvalue\n      dup1\n      iszero\n      tag_19\n      jumpi\n      0x00\n      dup1\n      revert\n    tag_19:\n      pop\n      tag_2\n      tag_21\n      calldatasize\n      0x04\n      tag_22\n      jump\t// in\n    tag_21:\n      tag_23\n      jump\t// in\n        /* \"contracts/Consorcio.sol\":1048:1325  function paySalaries() public payable onlyOwner {... */\n    tag_4:\n      tag_2\n      tag_25\n      jump\t// in\n        /* \"contracts/Consorcio.sol\":2176:2290  function getContractBalance() public view returns(uint256 balance) {... */\n    tag_5:\n      callvalue\n      dup1\n      iszero\n      tag_26\n      jumpi\n      0x00\n      dup1\n      revert\n    tag_26:\n      pop\n      mload(0x40)\n        /* \"contracts/Consorcio.sol\":2269:2273  this */\n      address\n        /* \"contracts/Consorcio.sol\":2261:2282  address(this).balance */\n      balance\n        /* \"#utility.yul\":1984:2009   */\n      dup2\n      mstore\n        /* \"#utility.yul\":1972:1974   */\n      0x20\n        /* \"#utility.yul\":1957:1975   */\n      add\n        /* \"contracts/Consorcio.sol\":2176:2290  function getContractBalance() public view returns(uint256 balance) {... */\n    tag_29:\n      mload(0x40)\n      dup1\n      swap2\n      sub\n      swap1\n      return\n        /* \"@openzeppelin/contracts/access/Ownable.sol\":1831:1932  function renounceOwnership() public virtual onlyOwner {... */\n    tag_6:\n      callvalue\n      dup1\n      iszero\n      tag_31\n      jumpi\n      0x00\n      dup1\n      revert\n    tag_31:\n      pop\n      tag_2\n      tag_33\n      jump\t// in\n        /* \"contracts/Consorcio.sol\":1924:2057  function addNewService(string memory _name, uint _price) public onlyOwner {... */\n    tag_7:\n      callvalue\n      dup1\n      iszero\n      tag_34\n      jumpi\n      0x00\n      dup1\n      revert\n    tag_34:\n      pop\n      tag_2\n      tag_36\n      calldatasize\n      0x04\n      tag_37\n      jump\t// in\n    tag_36:\n      tag_38\n      jump\t// in\n        /* \"contracts/Consorcio.sol\":2069:2168  function showContractAddress() public view returns(address) {... */\n    tag_8:\n      callvalue\n      dup1\n      iszero\n      tag_39\n      jumpi\n      0x00\n      dup1\n      revert\n    tag_39:\n      pop\n        /* \"contracts/Consorcio.sol\":2155:2159  this */\n      address\n        /* \"contracts/Consorcio.sol\":2069:2168  function showContractAddress() public view returns(address) {... */\n    tag_40:\n      mload(0x40)\n      sub(exp(0x02, 0xa0), 0x01)\n        /* \"#utility.yul\":2579:2634   */\n      swap1\n      swap2\n      and\n        /* \"#utility.yul\":2561:2635   */\n      dup2\n      mstore\n        /* \"#utility.yul\":2549:2551   */\n      0x20\n        /* \"#utility.yul\":2534:2552   */\n      add\n        /* \"contracts/Consorcio.sol\":2069:2168  function showContractAddress() public view returns(address) {... */\n      tag_29\n        /* \"#utility.yul\":2415:2641   */\n      jump\n        /* \"@openzeppelin/contracts/access/Ownable.sol\":1201:1286  function owner() public view virtual returns (address) {... */\n    tag_9:\n      callvalue\n      dup1\n      iszero\n      tag_44\n      jumpi\n      0x00\n      dup1\n      revert\n    tag_44:\n      pop\n        /* \"@openzeppelin/contracts/access/Ownable.sol\":1247:1254  address */\n      0x00\n        /* \"@openzeppelin/contracts/access/Ownable.sol\":1273:1279  _owner */\n      sload\n      sub(exp(0x02, 0xa0), 0x01)\n      and\n        /* \"@openzeppelin/contracts/access/Ownable.sol\":1201:1286  function owner() public view virtual returns (address) {... */\n      jump(tag_40)\n        /* \"contracts/Consorcio.sol\":1445:1682  function addNewTenant(string memory _name, address _tenantAddress, uint _rentalCost, string memory _residence) public onlyOwner {... */\n    tag_10:\n      callvalue\n      dup1\n      iszero\n      tag_48\n      jumpi\n      0x00\n      dup1\n      revert\n    tag_48:\n      pop\n      tag_2\n      tag_50\n      calldatasize\n      0x04\n      tag_51\n      jump\t// in\n    tag_50:\n      tag_52\n      jump\t// in\n        /* \"contracts/Consorcio.sol\":1386:1437  function payService(uint index) public onlyOwner {} */\n    tag_11:\n      callvalue\n      dup1\n      iszero\n      tag_53\n      jumpi\n      0x00\n      dup1\n      revert\n    tag_53:\n      pop\n      tag_2\n      tag_55\n      calldatasize\n      0x04\n      tag_56\n      jump\t// in\n    tag_55:\n      tag_57\n      jump\t// in\n        /* \"contracts/Consorcio.sol\":1333:1378  function payAllServices() public onlyOwner {} */\n    tag_12:\n      callvalue\n      dup1\n      iszero\n      tag_58\n      jumpi\n      0x00\n      dup1\n      revert\n    tag_58:\n      pop\n      tag_2\n      tag_60\n      jump\t// in\n        /* \"@openzeppelin/contracts/access/Ownable.sol\":2081:2279  function transferOwnership(address newOwner) public virtual onlyOwner {... */\n    tag_13:\n      callvalue\n      dup1\n      iszero\n      tag_61\n      jumpi\n      0x00\n      dup1\n      revert\n    tag_61:\n      pop\n      tag_2\n      tag_63\n      calldatasize\n      0x04\n      tag_64\n      jump\t// in\n    tag_63:\n      tag_65\n      jump\t// in\n        /* \"contracts/Consorcio.sol\":1690:1916  function addNewEmployee(string memory _name, address _employeeAddress, string memory _profession, uint _salary) public onlyOwner {... */\n    tag_23:\n        /* \"@openzeppelin/contracts/access/Ownable.sol\":1094:1107  _checkOwner() */\n      tag_67\n        /* \"@openzeppelin/contracts/access/Ownable.sol\":1094:1105  _checkOwner */\n      tag_68\n        /* \"@openzeppelin/contracts/access/Ownable.sol\":1094:1107  _checkOwner() */\n      jump\t// in\n    tag_67:\n        /* \"contracts/Consorcio.sol\":1830:1842  employeeList */\n      0x01\n        /* \"contracts/Consorcio.sol\":1861:1866  _name */\n      dup5\n        /* \"contracts/Consorcio.sol\":1868:1884  _employeeAddress */\n      dup5\n        /* \"contracts/Consorcio.sol\":1886:1897  _profession */\n      dup5\n        /* \"contracts/Consorcio.sol\":1899:1906  _salary */\n      dup5\n        /* \"contracts/Consorcio.sol\":1848:1907  new Employee(_name, _employeeAddress, _profession, _salary) */\n      mload(0x40)\n      tag_70\n      swap1\n      tag_71\n      jump\t// in\n    tag_70:\n      tag_72\n      swap5\n      swap4\n      swap3\n      swap2\n      swap1\n      tag_73\n      jump\t// in\n    tag_72:\n      mload(0x40)\n      dup1\n      swap2\n      sub\n      swap1\n      0x00\n      create\n      dup1\n      iszero\n      dup1\n      iszero\n      tag_74\n      jumpi\n      returndatasize\n      0x00\n      dup1\n      returndatacopy\n      revert(0x00, returndatasize)\n    tag_74:\n      pop\n        /* \"contracts/Consorcio.sol\":1830:1908  employeeList.push(new Employee(_name, _employeeAddress, _profession, _salary)) */\n      dup2\n      sload\n      0x01\n      dup2\n      add\n      dup4\n      sstore\n      0x00\n      swap3\n      dup4\n      mstore\n      0x20\n      swap1\n      swap3\n      keccak256\n      swap1\n      swap2\n      add\n      dup1\n      sload\n      not(0xffffffffffffffffffffffffffffffffffffffff)\n      and\n      sub(exp(0x02, 0xa0), 0x01)\n      swap1\n      swap3\n      and\n      swap2\n      swap1\n      swap2\n      or\n      swap1\n      sstore\n      pop\n      pop\n      pop\n      pop\n        /* \"contracts/Consorcio.sol\":1690:1916  function addNewEmployee(string memory _name, address _employeeAddress, string memory _profession, uint _salary) public onlyOwner {... */\n      jump\t// out\n        /* \"contracts/Consorcio.sol\":1048:1325  function paySalaries() public payable onlyOwner {... */\n    tag_25:\n        /* \"@openzeppelin/contracts/access/Ownable.sol\":1094:1107  _checkOwner() */\n      tag_77\n        /* \"@openzeppelin/contracts/access/Ownable.sol\":1094:1105  _checkOwner */\n      tag_68\n        /* \"@openzeppelin/contracts/access/Ownable.sol\":1094:1107  _checkOwner() */\n      jump\t// in\n    tag_77:\n        /* \"contracts/Consorcio.sol\":1111:1117  uint i */\n      0x00\n        /* \"contracts/Consorcio.sol\":1107:1318  for(uint i = 0; i < employeeList.length; i++) {... */\n    tag_79:\n        /* \"contracts/Consorcio.sol\":1127:1139  employeeList */\n      0x01\n        /* \"contracts/Consorcio.sol\":1127:1146  employeeList.length */\n      sload\n        /* \"contracts/Consorcio.sol\":1123:1146  i < employeeList.length */\n      dup2\n      lt\n        /* \"contracts/Consorcio.sol\":1107:1318  for(uint i = 0; i < employeeList.length; i++) {... */\n      iszero\n      tag_80\n      jumpi\n        /* \"contracts/Consorcio.sol\":1169:1181  bool success */\n      0x00\n        /* \"contracts/Consorcio.sol\":1194:1206  employeeList */\n      0x01\n        /* \"contracts/Consorcio.sol\":1207:1208  i */\n      dup3\n        /* \"contracts/Consorcio.sol\":1194:1209  employeeList[i] */\n      dup2\n      sload\n      dup2\n      lt\n      tag_83\n      jumpi\n      tag_83\n      tag_84\n      jump\t// in\n    tag_83:\n      0x00\n      swap2\n      dup3\n      mstore\n      0x20\n      swap2\n      dup3\n      swap1\n      keccak256\n      add\n      sload\n        /* \"contracts/Consorcio.sol\":1194:1227  employeeList[i].withdrawAddress() */\n      0x40\n      dup1\n      mload\n      0x1581b60000000000000000000000000000000000000000000000000000000000\n      dup2\n      mstore\n      swap1\n      mload\n      sub(exp(0x02, 0xa0), 0x01)\n        /* \"contracts/Consorcio.sol\":1194:1209  employeeList[i] */\n      swap1\n      swap3\n      and\n      swap3\n        /* \"contracts/Consorcio.sol\":1194:1225  employeeList[i].withdrawAddress */\n      0x1581b600\n      swap3\n        /* \"contracts/Consorcio.sol\":1194:1227  employeeList[i].withdrawAddress() */\n      0x04\n      dup1\n      dup5\n      add\n      swap4\n      dup3\n      swap1\n      sub\n      add\n      dup2\n        /* \"contracts/Consorcio.sol\":1194:1209  employeeList[i] */\n      dup7\n        /* \"contracts/Consorcio.sol\":1194:1227  employeeList[i].withdrawAddress() */\n      gas\n      staticcall\n      iszero\n      dup1\n      iszero\n      tag_87\n      jumpi\n      returndatasize\n      0x00\n      dup1\n      returndatacopy\n      revert(0x00, returndatasize)\n    tag_87:\n      pop\n      pop\n      pop\n      pop\n      mload(0x40)\n      returndatasize\n      not(0x1f)\n      0x1f\n      dup3\n      add\n      and\n      dup3\n      add\n      dup1\n      0x40\n      mstore\n      pop\n      dup2\n      add\n      swap1\n      tag_88\n      swap2\n      swap1\n      tag_89\n      jump\t// in\n    tag_88:\n      sub(exp(0x02, 0xa0), 0x01)\n        /* \"contracts/Consorcio.sol\":1186:1233  address(employeeList[i].withdrawAddress()).call */\n      and\n        /* \"contracts/Consorcio.sol\":1241:1250  msg.value */\n      callvalue\n        /* \"contracts/Consorcio.sol\":1186:1255  address(employeeList[i].withdrawAddress()).call{value: msg.value}(\"\") */\n      mload(0x40)\n      0x00\n      mload(0x40)\n      dup1\n      dup4\n      sub\n      dup2\n      dup6\n      dup8\n      gas\n      call\n      swap3\n      pop\n      pop\n      pop\n      returndatasize\n      dup1\n      0x00\n      dup2\n      eq\n      tag_94\n      jumpi\n      mload(0x40)\n      swap2\n      pop\n      and(add(returndatasize, 0x3f), not(0x1f))\n      dup3\n      add\n      0x40\n      mstore\n      returndatasize\n      dup3\n      mstore\n      returndatasize\n      0x00\n      0x20\n      dup5\n      add\n      returndatacopy\n      jump(tag_93)\n    tag_94:\n      0x60\n      swap2\n      pop\n    tag_93:\n      pop\n        /* \"contracts/Consorcio.sol\":1168:1255  (bool success,) = address(employeeList[i].withdrawAddress()).call{value: msg.value}(\"\") */\n      pop\n      swap1\n      pop\n        /* \"contracts/Consorcio.sol\":1278:1285  success */\n      dup1\n        /* \"contracts/Consorcio.sol\":1270:1306  require(success, \"Transfer failed.\") */\n      tag_95\n      jumpi\n      mload(0x40)\n      0x08c379a000000000000000000000000000000000000000000000000000000000\n      dup2\n      mstore\n        /* \"#utility.yul\":5701:5703   */\n      0x20\n        /* \"contracts/Consorcio.sol\":1270:1306  require(success, \"Transfer failed.\") */\n      0x04\n      dup3\n      add\n        /* \"#utility.yul\":5683:5704   */\n      mstore\n        /* \"#utility.yul\":5740:5742   */\n      0x10\n        /* \"#utility.yul\":5720:5738   */\n      0x24\n      dup3\n      add\n        /* \"#utility.yul\":5713:5743   */\n      mstore\n        /* \"#utility.yul\":5779:5797   */\n      0x5472616e73666572206661696c65642e00000000000000000000000000000000\n        /* \"#utility.yul\":5759:5777   */\n      0x44\n      dup3\n      add\n        /* \"#utility.yul\":5752:5798   */\n      mstore\n        /* \"#utility.yul\":5815:5833   */\n      0x64\n      add\n        /* \"contracts/Consorcio.sol\":1270:1306  require(success, \"Transfer failed.\") */\n    tag_96:\n      mload(0x40)\n      dup1\n      swap2\n      sub\n      swap1\n      revert\n    tag_95:\n      pop\n        /* \"contracts/Consorcio.sol\":1148:1151  i++ */\n      dup1\n      tag_98\n      dup2\n      tag_99\n      jump\t// in\n    tag_98:\n      swap2\n      pop\n      pop\n        /* \"contracts/Consorcio.sol\":1107:1318  for(uint i = 0; i < employeeList.length; i++) {... */\n      jump(tag_79)\n    tag_80:\n      pop\n        /* \"contracts/Consorcio.sol\":1048:1325  function paySalaries() public payable onlyOwner {... */\n      jump\t// out\n        /* \"@openzeppelin/contracts/access/Ownable.sol\":1831:1932  function renounceOwnership() public virtual onlyOwner {... */\n    tag_33:\n        /* \"@openzeppelin/contracts/access/Ownable.sol\":1094:1107  _checkOwner() */\n      tag_102\n        /* \"@openzeppelin/contracts/access/Ownable.sol\":1094:1105  _checkOwner */\n      tag_68\n        /* \"@openzeppelin/contracts/access/Ownable.sol\":1094:1107  _checkOwner() */\n      jump\t// in\n    tag_102:\n        /* \"@openzeppelin/contracts/access/Ownable.sol\":1895:1925  _transferOwnership(address(0)) */\n      tag_104\n        /* \"@openzeppelin/contracts/access/Ownable.sol\":1922:1923  0 */\n      0x00\n        /* \"@openzeppelin/contracts/access/Ownable.sol\":1895:1913  _transferOwnership */\n      tag_105\n        /* \"@openzeppelin/contracts/access/Ownable.sol\":1895:1925  _transferOwnership(address(0)) */\n      jump\t// in\n    tag_104:\n        /* \"@openzeppelin/contracts/access/Ownable.sol\":1831:1932  function renounceOwnership() public virtual onlyOwner {... */\n      jump\t// out\n        /* \"contracts/Consorcio.sol\":1924:2057  function addNewService(string memory _name, uint _price) public onlyOwner {... */\n    tag_38:\n        /* \"@openzeppelin/contracts/access/Ownable.sol\":1094:1107  _checkOwner() */\n      tag_107\n        /* \"@openzeppelin/contracts/access/Ownable.sol\":1094:1105  _checkOwner */\n      tag_68\n        /* \"@openzeppelin/contracts/access/Ownable.sol\":1094:1107  _checkOwner() */\n      jump\t// in\n    tag_107:\n        /* \"contracts/Consorcio.sol\":2026:2048  Service(_name, _price) */\n      0x40\n      dup1\n      mload\n      dup1\n      dup3\n      add\n      swap1\n      swap2\n      mstore\n      dup3\n      dup2\n      mstore\n      0x20\n      dup2\n      add\n      dup3\n      swap1\n      mstore\n        /* \"contracts/Consorcio.sol\":2009:2020  serviceList */\n      0x03\n        /* \"contracts/Consorcio.sol\":2009:2049  serviceList.push(Service(_name, _price)) */\n      dup1\n      sload\n      0x01\n      dup2\n      add\n      dup3\n      sstore\n      0x00\n      swap2\n      swap1\n      swap2\n      mstore\n      dup2\n      mload\n      0x02\n      swap1\n      swap2\n      mul\n      0xc2575a0e9e593c00f959f8c92f12db2869c3395a3b0502d05e2516446f71f85b\n      add\n      swap1\n      dup2\n      swap1\n      tag_110\n      swap1\n      dup3\n      tag_111\n      jump\t// in\n    tag_110:\n      pop\n      0x20\n      dup3\n      add\n      mload\n      dup2\n      0x01\n      add\n      sstore\n      pop\n      pop\n        /* \"contracts/Consorcio.sol\":1924:2057  function addNewService(string memory _name, uint _price) public onlyOwner {... */\n      pop\n      pop\n      jump\t// out\n        /* \"contracts/Consorcio.sol\":1445:1682  function addNewTenant(string memory _name, address _tenantAddress, uint _rentalCost, string memory _residence) public onlyOwner {... */\n    tag_52:\n        /* \"@openzeppelin/contracts/access/Ownable.sol\":1094:1107  _checkOwner() */\n      tag_115\n        /* \"@openzeppelin/contracts/access/Ownable.sol\":1094:1105  _checkOwner */\n      tag_68\n        /* \"@openzeppelin/contracts/access/Ownable.sol\":1094:1107  _checkOwner() */\n      jump\t// in\n    tag_115:\n        /* \"contracts/Consorcio.sol\":1584:1594  tenantList */\n      0x02\n        /* \"contracts/Consorcio.sol\":1611:1616  _name */\n      dup5\n        /* \"contracts/Consorcio.sol\":1618:1632  _tenantAddress */\n      dup5\n        /* \"contracts/Consorcio.sol\":1634:1645  _rentalCost */\n      dup5\n        /* \"contracts/Consorcio.sol\":1647:1657  _residence */\n      dup5\n        /* \"contracts/Consorcio.sol\":1667:1671  this */\n      address\n        /* \"contracts/Consorcio.sol\":1600:1673  new Tenant(_name, _tenantAddress, _rentalCost, _residence, address(this)) */\n      mload(0x40)\n      tag_117\n      swap1\n      tag_118\n      jump\t// in\n    tag_117:\n      tag_72\n      swap6\n      swap5\n      swap4\n      swap3\n      swap2\n      swap1\n      tag_120\n      jump\t// in\n        /* \"contracts/Consorcio.sol\":1386:1437  function payService(uint index) public onlyOwner {} */\n    tag_57:\n        /* \"@openzeppelin/contracts/access/Ownable.sol\":1094:1107  _checkOwner() */\n      tag_80\n        /* \"@openzeppelin/contracts/access/Ownable.sol\":1094:1105  _checkOwner */\n      tag_68\n        /* \"@openzeppelin/contracts/access/Ownable.sol\":1094:1107  _checkOwner() */\n      jump\t// in\n        /* \"contracts/Consorcio.sol\":1333:1378  function payAllServices() public onlyOwner {} */\n    tag_60:\n        /* \"@openzeppelin/contracts/access/Ownable.sol\":1094:1107  _checkOwner() */\n      tag_104\n        /* \"@openzeppelin/contracts/access/Ownable.sol\":1094:1105  _checkOwner */\n      tag_68\n        /* \"@openzeppelin/contracts/access/Ownable.sol\":1094:1107  _checkOwner() */\n      jump\t// in\n        /* \"@openzeppelin/contracts/access/Ownable.sol\":2081:2279  function transferOwnership(address newOwner) public virtual onlyOwner {... */\n    tag_65:\n        /* \"@openzeppelin/contracts/access/Ownable.sol\":1094:1107  _checkOwner() */\n      tag_130\n        /* \"@openzeppelin/contracts/access/Ownable.sol\":1094:1105  _checkOwner */\n      tag_68\n        /* \"@openzeppelin/contracts/access/Ownable.sol\":1094:1107  _checkOwner() */\n      jump\t// in\n    tag_130:\n      sub(exp(0x02, 0xa0), 0x01)\n        /* \"@openzeppelin/contracts/access/Ownable.sol\":2169:2191  newOwner != address(0) */\n      dup2\n      and\n        /* \"@openzeppelin/contracts/access/Ownable.sol\":2161:2234  require(newOwner != address(0), \"Ownable: new owner is the zero address\") */\n      tag_132\n      jumpi\n      mload(0x40)\n      0x08c379a000000000000000000000000000000000000000000000000000000000\n      dup2\n      mstore\n        /* \"#utility.yul\":9690:9692   */\n      0x20\n        /* \"@openzeppelin/contracts/access/Ownable.sol\":2161:2234  require(newOwner != address(0), \"Ownable: new owner is the zero address\") */\n      0x04\n      dup3\n      add\n        /* \"#utility.yul\":9672:9693   */\n      mstore\n        /* \"#utility.yul\":9729:9731   */\n      0x26\n        /* \"#utility.yul\":9709:9727   */\n      0x24\n      dup3\n      add\n        /* \"#utility.yul\":9702:9732   */\n      mstore\n        /* \"#utility.yul\":9768:9802   */\n      0x4f776e61626c653a206e6577206f776e657220697320746865207a65726f2061\n        /* \"#utility.yul\":9748:9766   */\n      0x44\n      dup3\n      add\n        /* \"#utility.yul\":9741:9803   */\n      mstore\n        /* \"#utility.yul\":9839:9847   */\n      0x6464726573730000000000000000000000000000000000000000000000000000\n        /* \"#utility.yul\":9819:9837   */\n      0x64\n      dup3\n      add\n        /* \"#utility.yul\":9812:9848   */\n      mstore\n        /* \"#utility.yul\":9865:9884   */\n      0x84\n      add\n        /* \"@openzeppelin/contracts/access/Ownable.sol\":2161:2234  require(newOwner != address(0), \"Ownable: new owner is the zero address\") */\n      tag_96\n        /* \"#utility.yul\":9488:9890   */\n      jump\n        /* \"@openzeppelin/contracts/access/Ownable.sol\":2161:2234  require(newOwner != address(0), \"Ownable: new owner is the zero address\") */\n    tag_132:\n        /* \"@openzeppelin/contracts/access/Ownable.sol\":2244:2272  _transferOwnership(newOwner) */\n      tag_80\n        /* \"@openzeppelin/contracts/access/Ownable.sol\":2263:2271  newOwner */\n      dup2\n        /* \"@openzeppelin/contracts/access/Ownable.sol\":2244:2262  _transferOwnership */\n      tag_105\n        /* \"@openzeppelin/contracts/access/Ownable.sol\":2244:2272  _transferOwnership(newOwner) */\n      jump\t// in\n        /* \"@openzeppelin/contracts/access/Ownable.sol\":1359:1489  function _checkOwner() internal view virtual {... */\n    tag_68:\n        /* \"@openzeppelin/contracts/access/Ownable.sol\":1247:1254  address */\n      0x00\n        /* \"@openzeppelin/contracts/access/Ownable.sol\":1273:1279  _owner */\n      sload\n      sub(exp(0x02, 0xa0), 0x01)\n      and\n        /* \"@openzeppelin/contracts/utils/Context.sol\":719:729  msg.sender */\n      caller\n        /* \"@openzeppelin/contracts/access/Ownable.sol\":1422:1445  owner() == _msgSender() */\n      eq\n        /* \"@openzeppelin/contracts/access/Ownable.sol\":1414:1482  require(owner() == _msgSender(), \"Ownable: caller is not the owner\") */\n      tag_104\n      jumpi\n      mload(0x40)\n      0x08c379a000000000000000000000000000000000000000000000000000000000\n      dup2\n      mstore\n        /* \"#utility.yul\":10097:10099   */\n      0x20\n        /* \"@openzeppelin/contracts/access/Ownable.sol\":1414:1482  require(owner() == _msgSender(), \"Ownable: caller is not the owner\") */\n      0x04\n      dup3\n      add\n        /* \"#utility.yul\":10079:10100   */\n      dup2\n      swap1\n      mstore\n        /* \"#utility.yul\":10116:10134   */\n      0x24\n      dup3\n      add\n        /* \"#utility.yul\":10109:10139   */\n      mstore\n        /* \"#utility.yul\":10175:10209   */\n      0x4f776e61626c653a2063616c6c6572206973206e6f7420746865206f776e6572\n        /* \"#utility.yul\":10155:10173   */\n      0x44\n      dup3\n      add\n        /* \"#utility.yul\":10148:10210   */\n      mstore\n        /* \"#utility.yul\":10227:10245   */\n      0x64\n      add\n        /* \"@openzeppelin/contracts/access/Ownable.sol\":1414:1482  require(owner() == _msgSender(), \"Ownable: caller is not the owner\") */\n      tag_96\n        /* \"#utility.yul\":9895:10251   */\n      jump\n        /* \"@openzeppelin/contracts/access/Ownable.sol\":2433:2620  function _transferOwnership(address newOwner) internal virtual {... */\n    tag_105:\n        /* \"@openzeppelin/contracts/access/Ownable.sol\":2506:2522  address oldOwner */\n      0x00\n        /* \"@openzeppelin/contracts/access/Ownable.sol\":2525:2531  _owner */\n      dup1\n      sload\n      sub(exp(0x02, 0xa0), 0x01)\n        /* \"@openzeppelin/contracts/access/Ownable.sol\":2541:2558  _owner = newOwner */\n      dup4\n      dup2\n      and\n      not(0xffffffffffffffffffffffffffffffffffffffff)\n      dup4\n      and\n      dup2\n      or\n      dup5\n      sstore\n        /* \"@openzeppelin/contracts/access/Ownable.sol\":2573:2613  OwnershipTransferred(oldOwner, newOwner) */\n      mload(0x40)\n        /* \"@openzeppelin/contracts/access/Ownable.sol\":2525:2531  _owner */\n      swap2\n      swap1\n      swap3\n      and\n      swap3\n      dup4\n      swap2\n        /* \"@openzeppelin/contracts/access/Ownable.sol\":2573:2613  OwnershipTransferred(oldOwner, newOwner) */\n      0x8be0079c531659141344cd1fd0a4f28419497f9722a3daafe3b4186f6b6457e0\n      swap2\n        /* \"@openzeppelin/contracts/access/Ownable.sol\":2506:2522  address oldOwner */\n      swap1\n        /* \"@openzeppelin/contracts/access/Ownable.sol\":2573:2613  OwnershipTransferred(oldOwner, newOwner) */\n      log3\n        /* \"@openzeppelin/contracts/access/Ownable.sol\":2496:2620  {... */\n      pop\n        /* \"@openzeppelin/contracts/access/Ownable.sol\":2433:2620  function _transferOwnership(address newOwner) internal virtual {... */\n      pop\n      jump\t// out\n    tag_71:\n      dataSize(sub_0)\n      dup1\n      dataOffset(sub_0)\n      dup4\n      codecopy\n      add\n      swap1\n      jump\t// out\n    tag_118:\n      dataSize(sub_1)\n      dup1\n      dataOffset(sub_1)\n      dup4\n      codecopy\n      add\n      swap1\n      jump\t// out\n        /* \"#utility.yul\":14:198   */\n    tag_145:\n      mul(0x4e487b71, exp(0x02, 0xe0))\n        /* \"#utility.yul\":63:64   */\n      0x00\n        /* \"#utility.yul\":56:144   */\n      mstore\n        /* \"#utility.yul\":163:167   */\n      0x41\n        /* \"#utility.yul\":160:161   */\n      0x04\n        /* \"#utility.yul\":153:168   */\n      mstore\n        /* \"#utility.yul\":187:191   */\n      0x24\n        /* \"#utility.yul\":184:185   */\n      0x00\n        /* \"#utility.yul\":177:192   */\n      revert\n        /* \"#utility.yul\":203:922   */\n    tag_146:\n        /* \"#utility.yul\":246:251   */\n      0x00\n        /* \"#utility.yul\":299:302   */\n      dup3\n        /* \"#utility.yul\":292:296   */\n      0x1f\n        /* \"#utility.yul\":284:290   */\n      dup4\n        /* \"#utility.yul\":280:297   */\n      add\n        /* \"#utility.yul\":276:303   */\n      slt\n        /* \"#utility.yul\":266:321   */\n      tag_156\n      jumpi\n        /* \"#utility.yul\":317:318   */\n      0x00\n        /* \"#utility.yul\":314:315   */\n      dup1\n        /* \"#utility.yul\":307:319   */\n      revert\n        /* \"#utility.yul\":266:321   */\n    tag_156:\n        /* \"#utility.yul\":353:359   */\n      dup2\n        /* \"#utility.yul\":340:360   */\n      calldataload\n        /* \"#utility.yul\":379:397   */\n      0xffffffffffffffff\n        /* \"#utility.yul\":416:418   */\n      dup1\n        /* \"#utility.yul\":412:414   */\n      dup3\n        /* \"#utility.yul\":409:419   */\n      gt\n        /* \"#utility.yul\":406:442   */\n      iszero\n      tag_158\n      jumpi\n        /* \"#utility.yul\":422:440   */\n      tag_158\n      tag_145\n      jump\t// in\n    tag_158:\n        /* \"#utility.yul\":497:499   */\n      0x40\n        /* \"#utility.yul\":491:500   */\n      mload\n        /* \"#utility.yul\":465:467   */\n      0x1f\n        /* \"#utility.yul\":551:564   */\n      dup4\n      add\n      not(0x1f)\n        /* \"#utility.yul\":547:569   */\n      swap1\n      dup2\n      and\n        /* \"#utility.yul\":571:573   */\n      0x3f\n        /* \"#utility.yul\":543:574   */\n      add\n        /* \"#utility.yul\":539:579   */\n      and\n        /* \"#utility.yul\":527:580   */\n      dup2\n      add\n      swap1\n        /* \"#utility.yul\":595:613   */\n      dup3\n      dup3\n      gt\n        /* \"#utility.yul\":615:637   */\n      dup2\n      dup4\n      lt\n        /* \"#utility.yul\":592:638   */\n      or\n        /* \"#utility.yul\":589:661   */\n      iszero\n      tag_160\n      jumpi\n        /* \"#utility.yul\":641:659   */\n      tag_160\n      tag_145\n      jump\t// in\n    tag_160:\n        /* \"#utility.yul\":681:691   */\n      dup2\n        /* \"#utility.yul\":677:679   */\n      0x40\n        /* \"#utility.yul\":670:692   */\n      mstore\n        /* \"#utility.yul\":716:718   */\n      dup4\n        /* \"#utility.yul\":708:714   */\n      dup2\n        /* \"#utility.yul\":701:719   */\n      mstore\n        /* \"#utility.yul\":762:765   */\n      dup7\n        /* \"#utility.yul\":755:759   */\n      0x20\n        /* \"#utility.yul\":750:752   */\n      dup6\n        /* \"#utility.yul\":742:748   */\n      dup9\n        /* \"#utility.yul\":738:753   */\n      add\n        /* \"#utility.yul\":734:760   */\n      add\n        /* \"#utility.yul\":731:766   */\n      gt\n        /* \"#utility.yul\":728:783   */\n      iszero\n      tag_161\n      jumpi\n        /* \"#utility.yul\":779:780   */\n      0x00\n        /* \"#utility.yul\":776:777   */\n      dup1\n        /* \"#utility.yul\":769:781   */\n      revert\n        /* \"#utility.yul\":728:783   */\n    tag_161:\n        /* \"#utility.yul\":843:845   */\n      dup4\n        /* \"#utility.yul\":836:840   */\n      0x20\n        /* \"#utility.yul\":828:834   */\n      dup8\n        /* \"#utility.yul\":824:841   */\n      add\n        /* \"#utility.yul\":817:821   */\n      0x20\n        /* \"#utility.yul\":809:815   */\n      dup4\n        /* \"#utility.yul\":805:822   */\n      add\n        /* \"#utility.yul\":792:846   */\n      calldatacopy\n        /* \"#utility.yul\":890:891   */\n      0x00\n        /* \"#utility.yul\":883:887   */\n      0x20\n        /* \"#utility.yul\":878:880   */\n      dup6\n        /* \"#utility.yul\":870:876   */\n      dup4\n        /* \"#utility.yul\":866:881   */\n      add\n        /* \"#utility.yul\":862:888   */\n      add\n        /* \"#utility.yul\":855:892   */\n      mstore\n        /* \"#utility.yul\":910:916   */\n      dup1\n        /* \"#utility.yul\":901:916   */\n      swap5\n      pop\n      pop\n      pop\n      pop\n      pop\n        /* \"#utility.yul\":203:922   */\n      swap3\n      swap2\n      pop\n      pop\n      jump\t// out\n        /* \"#utility.yul\":927:1081   */\n    tag_147:\n      sub(exp(0x02, 0xa0), 0x01)\n        /* \"#utility.yul\":1006:1011   */\n      dup2\n        /* \"#utility.yul\":1002:1056   */\n      and\n        /* \"#utility.yul\":995:1000   */\n      dup2\n        /* \"#utility.yul\":992:1057   */\n      eq\n        /* \"#utility.yul\":982:1075   */\n      tag_80\n      jumpi\n        /* \"#utility.yul\":1071:1072   */\n      0x00\n        /* \"#utility.yul\":1068:1069   */\n      dup1\n        /* \"#utility.yul\":1061:1073   */\n      revert\n        /* \"#utility.yul\":1086:1833   */\n    tag_22:\n        /* \"#utility.yul\":1192:1198   */\n      0x00\n        /* \"#utility.yul\":1200:1206   */\n      dup1\n        /* \"#utility.yul\":1208:1214   */\n      0x00\n        /* \"#utility.yul\":1216:1222   */\n      dup1\n        /* \"#utility.yul\":1269:1272   */\n      0x80\n        /* \"#utility.yul\":1257:1266   */\n      dup6\n        /* \"#utility.yul\":1248:1255   */\n      dup8\n        /* \"#utility.yul\":1244:1267   */\n      sub\n        /* \"#utility.yul\":1240:1273   */\n      slt\n        /* \"#utility.yul\":1237:1290   */\n      iszero\n      tag_165\n      jumpi\n        /* \"#utility.yul\":1286:1287   */\n      0x00\n        /* \"#utility.yul\":1283:1284   */\n      dup1\n        /* \"#utility.yul\":1276:1288   */\n      revert\n        /* \"#utility.yul\":1237:1290   */\n    tag_165:\n        /* \"#utility.yul\":1326:1335   */\n      dup5\n        /* \"#utility.yul\":1313:1336   */\n      calldataload\n        /* \"#utility.yul\":1355:1373   */\n      0xffffffffffffffff\n        /* \"#utility.yul\":1396:1398   */\n      dup1\n        /* \"#utility.yul\":1388:1394   */\n      dup3\n        /* \"#utility.yul\":1385:1399   */\n      gt\n        /* \"#utility.yul\":1382:1416   */\n      iszero\n      tag_166\n      jumpi\n        /* \"#utility.yul\":1412:1413   */\n      0x00\n        /* \"#utility.yul\":1409:1410   */\n      dup1\n        /* \"#utility.yul\":1402:1414   */\n      revert\n        /* \"#utility.yul\":1382:1416   */\n    tag_166:\n        /* \"#utility.yul\":1435:1485   */\n      tag_167\n        /* \"#utility.yul\":1477:1484   */\n      dup9\n        /* \"#utility.yul\":1468:1474   */\n      dup4\n        /* \"#utility.yul\":1457:1466   */\n      dup10\n        /* \"#utility.yul\":1453:1475   */\n      add\n        /* \"#utility.yul\":1435:1485   */\n      tag_146\n      jump\t// in\n    tag_167:\n        /* \"#utility.yul\":1425:1485   */\n      swap6\n      pop\n        /* \"#utility.yul\":1535:1537   */\n      0x20\n        /* \"#utility.yul\":1524:1533   */\n      dup8\n        /* \"#utility.yul\":1520:1538   */\n      add\n        /* \"#utility.yul\":1507:1539   */\n      calldataload\n        /* \"#utility.yul\":1494:1539   */\n      swap2\n      pop\n        /* \"#utility.yul\":1548:1579   */\n      tag_168\n        /* \"#utility.yul\":1573:1578   */\n      dup3\n        /* \"#utility.yul\":1548:1579   */\n      tag_147\n      jump\t// in\n    tag_168:\n        /* \"#utility.yul\":1598:1603   */\n      swap1\n      swap4\n      pop\n        /* \"#utility.yul\":1656:1658   */\n      0x40\n        /* \"#utility.yul\":1641:1659   */\n      dup7\n      add\n        /* \"#utility.yul\":1628:1660   */\n      calldataload\n      swap1\n        /* \"#utility.yul\":1672:1688   */\n      dup1\n      dup3\n      gt\n        /* \"#utility.yul\":1669:1705   */\n      iszero\n      tag_169\n      jumpi\n        /* \"#utility.yul\":1701:1702   */\n      0x00\n        /* \"#utility.yul\":1698:1699   */\n      dup1\n        /* \"#utility.yul\":1691:1703   */\n      revert\n        /* \"#utility.yul\":1669:1705   */\n    tag_169:\n      pop\n        /* \"#utility.yul\":1724:1776   */\n      tag_170\n        /* \"#utility.yul\":1768:1775   */\n      dup8\n        /* \"#utility.yul\":1757:1765   */\n      dup3\n        /* \"#utility.yul\":1746:1755   */\n      dup9\n        /* \"#utility.yul\":1742:1766   */\n      add\n        /* \"#utility.yul\":1724:1776   */\n      tag_146\n      jump\t// in\n    tag_170:\n        /* \"#utility.yul\":1086:1833   */\n      swap5\n      swap8\n      swap4\n      swap7\n      pop\n        /* \"#utility.yul\":1714:1776   */\n      swap4\n      swap5\n        /* \"#utility.yul\":1823:1825   */\n      0x60\n        /* \"#utility.yul\":1808:1826   */\n      add\n        /* \"#utility.yul\":1795:1827   */\n      calldataload\n      swap4\n      pop\n      pop\n      pop\n        /* \"#utility.yul\":1086:1833   */\n      jump\t// out\n        /* \"#utility.yul\":2020:2410   */\n    tag_37:\n        /* \"#utility.yul\":2098:2104   */\n      0x00\n        /* \"#utility.yul\":2106:2112   */\n      dup1\n        /* \"#utility.yul\":2159:2161   */\n      0x40\n        /* \"#utility.yul\":2147:2156   */\n      dup4\n        /* \"#utility.yul\":2138:2145   */\n      dup6\n        /* \"#utility.yul\":2134:2157   */\n      sub\n        /* \"#utility.yul\":2130:2162   */\n      slt\n        /* \"#utility.yul\":2127:2179   */\n      iszero\n      tag_173\n      jumpi\n        /* \"#utility.yul\":2175:2176   */\n      0x00\n        /* \"#utility.yul\":2172:2173   */\n      dup1\n        /* \"#utility.yul\":2165:2177   */\n      revert\n        /* \"#utility.yul\":2127:2179   */\n    tag_173:\n        /* \"#utility.yul\":2215:2224   */\n      dup3\n        /* \"#utility.yul\":2202:2225   */\n      calldataload\n        /* \"#utility.yul\":2248:2266   */\n      0xffffffffffffffff\n        /* \"#utility.yul\":2240:2246   */\n      dup2\n        /* \"#utility.yul\":2237:2267   */\n      gt\n        /* \"#utility.yul\":2234:2284   */\n      iszero\n      tag_174\n      jumpi\n        /* \"#utility.yul\":2280:2281   */\n      0x00\n        /* \"#utility.yul\":2277:2278   */\n      dup1\n        /* \"#utility.yul\":2270:2282   */\n      revert\n        /* \"#utility.yul\":2234:2284   */\n    tag_174:\n        /* \"#utility.yul\":2303:2353   */\n      tag_175\n        /* \"#utility.yul\":2345:2352   */\n      dup6\n        /* \"#utility.yul\":2336:2342   */\n      dup3\n        /* \"#utility.yul\":2325:2334   */\n      dup7\n        /* \"#utility.yul\":2321:2343   */\n      add\n        /* \"#utility.yul\":2303:2353   */\n      tag_146\n      jump\t// in\n    tag_175:\n        /* \"#utility.yul\":2293:2353   */\n      swap6\n        /* \"#utility.yul\":2400:2402   */\n      0x20\n        /* \"#utility.yul\":2385:2403   */\n      swap5\n      swap1\n      swap5\n      add\n        /* \"#utility.yul\":2372:2404   */\n      calldataload\n      swap5\n      pop\n      pop\n      pop\n      pop\n        /* \"#utility.yul\":2020:2410   */\n      jump\t// out\n        /* \"#utility.yul\":2646:3393   */\n    tag_51:\n        /* \"#utility.yul\":2752:2758   */\n      0x00\n        /* \"#utility.yul\":2760:2766   */\n      dup1\n        /* \"#utility.yul\":2768:2774   */\n      0x00\n        /* \"#utility.yul\":2776:2782   */\n      dup1\n        /* \"#utility.yul\":2829:2832   */\n      0x80\n        /* \"#utility.yul\":2817:2826   */\n      dup6\n        /* \"#utility.yul\":2808:2815   */\n      dup8\n        /* \"#utility.yul\":2804:2827   */\n      sub\n        /* \"#utility.yul\":2800:2833   */\n      slt\n        /* \"#utility.yul\":2797:2850   */\n      iszero\n      tag_178\n      jumpi\n        /* \"#utility.yul\":2846:2847   */\n      0x00\n        /* \"#utility.yul\":2843:2844   */\n      dup1\n        /* \"#utility.yul\":2836:2848   */\n      revert\n        /* \"#utility.yul\":2797:2850   */\n    tag_178:\n        /* \"#utility.yul\":2886:2895   */\n      dup5\n        /* \"#utility.yul\":2873:2896   */\n      calldataload\n        /* \"#utility.yul\":2915:2933   */\n      0xffffffffffffffff\n        /* \"#utility.yul\":2956:2958   */\n      dup1\n        /* \"#utility.yul\":2948:2954   */\n      dup3\n        /* \"#utility.yul\":2945:2959   */\n      gt\n        /* \"#utility.yul\":2942:2976   */\n      iszero\n      tag_179\n      jumpi\n        /* \"#utility.yul\":2972:2973   */\n      0x00\n        /* \"#utility.yul\":2969:2970   */\n      dup1\n        /* \"#utility.yul\":2962:2974   */\n      revert\n        /* \"#utility.yul\":2942:2976   */\n    tag_179:\n        /* \"#utility.yul\":2995:3045   */\n      tag_180\n        /* \"#utility.yul\":3037:3044   */\n      dup9\n        /* \"#utility.yul\":3028:3034   */\n      dup4\n        /* \"#utility.yul\":3017:3026   */\n      dup10\n        /* \"#utility.yul\":3013:3035   */\n      add\n        /* \"#utility.yul\":2995:3045   */\n      tag_146\n      jump\t// in\n    tag_180:\n        /* \"#utility.yul\":2985:3045   */\n      swap6\n      pop\n        /* \"#utility.yul\":3095:3097   */\n      0x20\n        /* \"#utility.yul\":3084:3093   */\n      dup8\n        /* \"#utility.yul\":3080:3098   */\n      add\n        /* \"#utility.yul\":3067:3099   */\n      calldataload\n        /* \"#utility.yul\":3054:3099   */\n      swap2\n      pop\n        /* \"#utility.yul\":3108:3139   */\n      tag_181\n        /* \"#utility.yul\":3133:3138   */\n      dup3\n        /* \"#utility.yul\":3108:3139   */\n      tag_147\n      jump\t// in\n    tag_181:\n        /* \"#utility.yul\":3158:3163   */\n      swap1\n      swap4\n      pop\n        /* \"#utility.yul\":3210:3212   */\n      0x40\n        /* \"#utility.yul\":3195:3213   */\n      dup7\n      add\n        /* \"#utility.yul\":3182:3214   */\n      calldataload\n      swap3\n      pop\n        /* \"#utility.yul\":3267:3269   */\n      0x60\n        /* \"#utility.yul\":3252:3270   */\n      dup7\n      add\n        /* \"#utility.yul\":3239:3271   */\n      calldataload\n      swap1\n        /* \"#utility.yul\":3283:3299   */\n      dup1\n      dup3\n      gt\n        /* \"#utility.yul\":3280:3316   */\n      iszero\n      tag_182\n      jumpi\n        /* \"#utility.yul\":3312:3313   */\n      0x00\n        /* \"#utility.yul\":3309:3310   */\n      dup1\n        /* \"#utility.yul\":3302:3314   */\n      revert\n        /* \"#utility.yul\":3280:3316   */\n    tag_182:\n      pop\n        /* \"#utility.yul\":3335:3387   */\n      tag_183\n        /* \"#utility.yul\":3379:3386   */\n      dup8\n        /* \"#utility.yul\":3368:3376   */\n      dup3\n        /* \"#utility.yul\":3357:3366   */\n      dup9\n        /* \"#utility.yul\":3353:3377   */\n      add\n        /* \"#utility.yul\":3335:3387   */\n      tag_146\n      jump\t// in\n    tag_183:\n        /* \"#utility.yul\":3325:3387   */\n      swap2\n      pop\n      pop\n        /* \"#utility.yul\":2646:3393   */\n      swap3\n      swap6\n      swap2\n      swap5\n      pop\n      swap3\n      pop\n      jump\t// out\n        /* \"#utility.yul\":3398:3578   */\n    tag_56:\n        /* \"#utility.yul\":3457:3463   */\n      0x00\n        /* \"#utility.yul\":3510:3512   */\n      0x20\n        /* \"#utility.yul\":3498:3507   */\n      dup3\n        /* \"#utility.yul\":3489:3496   */\n      dup5\n        /* \"#utility.yul\":3485:3508   */\n      sub\n        /* \"#utility.yul\":3481:3513   */\n      slt\n        /* \"#utility.yul\":3478:3530   */\n      iszero\n      tag_185\n      jumpi\n        /* \"#utility.yul\":3526:3527   */\n      0x00\n        /* \"#utility.yul\":3523:3524   */\n      dup1\n        /* \"#utility.yul\":3516:3528   */\n      revert\n        /* \"#utility.yul\":3478:3530   */\n    tag_185:\n      pop\n        /* \"#utility.yul\":3549:3572   */\n      calldataload\n      swap2\n        /* \"#utility.yul\":3398:3578   */\n      swap1\n      pop\n      jump\t// out\n        /* \"#utility.yul\":3583:3830   */\n    tag_64:\n        /* \"#utility.yul\":3642:3648   */\n      0x00\n        /* \"#utility.yul\":3695:3697   */\n      0x20\n        /* \"#utility.yul\":3683:3692   */\n      dup3\n        /* \"#utility.yul\":3674:3681   */\n      dup5\n        /* \"#utility.yul\":3670:3693   */\n      sub\n        /* \"#utility.yul\":3666:3698   */\n      slt\n        /* \"#utility.yul\":3663:3715   */\n      iszero\n      tag_187\n      jumpi\n        /* \"#utility.yul\":3711:3712   */\n      0x00\n        /* \"#utility.yul\":3708:3709   */\n      dup1\n        /* \"#utility.yul\":3701:3713   */\n      revert\n        /* \"#utility.yul\":3663:3715   */\n    tag_187:\n        /* \"#utility.yul\":3750:3759   */\n      dup2\n        /* \"#utility.yul\":3737:3760   */\n      calldataload\n        /* \"#utility.yul\":3769:3800   */\n      tag_188\n        /* \"#utility.yul\":3794:3799   */\n      dup2\n        /* \"#utility.yul\":3769:3800   */\n      tag_147\n      jump\t// in\n    tag_188:\n        /* \"#utility.yul\":3819:3824   */\n      swap4\n        /* \"#utility.yul\":3583:3830   */\n      swap3\n      pop\n      pop\n      pop\n      jump\t// out\n        /* \"#utility.yul\":3835:4258   */\n    tag_148:\n        /* \"#utility.yul\":3877:3880   */\n      0x00\n        /* \"#utility.yul\":3915:3920   */\n      dup2\n        /* \"#utility.yul\":3909:3921   */\n      mload\n        /* \"#utility.yul\":3942:3948   */\n      dup1\n        /* \"#utility.yul\":3937:3940   */\n      dup5\n        /* \"#utility.yul\":3930:3949   */\n      mstore\n        /* \"#utility.yul\":3967:3968   */\n      0x00\n        /* \"#utility.yul\":3977:4139   */\n    tag_190:\n        /* \"#utility.yul\":3991:3997   */\n      dup2\n        /* \"#utility.yul\":3988:3989   */\n      dup2\n        /* \"#utility.yul\":3985:3998   */\n      lt\n        /* \"#utility.yul\":3977:4139   */\n      iszero\n      tag_192\n      jumpi\n        /* \"#utility.yul\":4053:4057   */\n      0x20\n        /* \"#utility.yul\":4109:4122   */\n      dup2\n      dup6\n      add\n        /* \"#utility.yul\":4105:4127   */\n      dup2\n      add\n        /* \"#utility.yul\":4099:4128   */\n      mload\n        /* \"#utility.yul\":4081:4092   */\n      dup7\n      dup4\n      add\n        /* \"#utility.yul\":4077:4097   */\n      dup3\n      add\n        /* \"#utility.yul\":4070:4129   */\n      mstore\n        /* \"#utility.yul\":4006:4018   */\n      add\n        /* \"#utility.yul\":3977:4139   */\n      jump(tag_190)\n    tag_192:\n        /* \"#utility.yul\":3981:3984   */\n      pop\n        /* \"#utility.yul\":4184:4185   */\n      0x00\n        /* \"#utility.yul\":4177:4181   */\n      0x20\n        /* \"#utility.yul\":4168:4174   */\n      dup3\n        /* \"#utility.yul\":4163:4166   */\n      dup7\n        /* \"#utility.yul\":4159:4175   */\n      add\n        /* \"#utility.yul\":4155:4182   */\n      add\n        /* \"#utility.yul\":4148:4186   */\n      mstore\n        /* \"#utility.yul\":4247:4251   */\n      0x20\n        /* \"#utility.yul\":4240:4242   */\n      0x1f\n        /* \"#utility.yul\":4236:4243   */\n      not\n        /* \"#utility.yul\":4231:4233   */\n      0x1f\n        /* \"#utility.yul\":4223:4229   */\n      dup4\n        /* \"#utility.yul\":4219:4234   */\n      add\n        /* \"#utility.yul\":4215:4244   */\n      and\n        /* \"#utility.yul\":4210:4213   */\n      dup6\n        /* \"#utility.yul\":4206:4245   */\n      add\n        /* \"#utility.yul\":4202:4252   */\n      add\n        /* \"#utility.yul\":4195:4252   */\n      swap2\n      pop\n      pop\n        /* \"#utility.yul\":3835:4258   */\n      swap3\n      swap2\n      pop\n      pop\n      jump\t// out\n        /* \"#utility.yul\":4263:4839   */\n    tag_73:\n        /* \"#utility.yul\":4516:4519   */\n      0x80\n        /* \"#utility.yul\":4505:4514   */\n      dup2\n        /* \"#utility.yul\":4498:4520   */\n      mstore\n        /* \"#utility.yul\":4479:4483   */\n      0x00\n        /* \"#utility.yul\":4543:4589   */\n      tag_194\n        /* \"#utility.yul\":4584:4587   */\n      0x80\n        /* \"#utility.yul\":4573:4582   */\n      dup4\n        /* \"#utility.yul\":4569:4588   */\n      add\n        /* \"#utility.yul\":4561:4567   */\n      dup8\n        /* \"#utility.yul\":4543:4589   */\n      tag_148\n      jump\t// in\n    tag_194:\n      sub(exp(0x02, 0xa0), 0x01)\n        /* \"#utility.yul\":4629:4635   */\n      dup7\n        /* \"#utility.yul\":4625:4680   */\n      and\n        /* \"#utility.yul\":4620:4622   */\n      0x20\n        /* \"#utility.yul\":4609:4618   */\n      dup5\n        /* \"#utility.yul\":4605:4623   */\n      add\n        /* \"#utility.yul\":4598:4681   */\n      mstore\n        /* \"#utility.yul\":4729:4738   */\n      dup3\n        /* \"#utility.yul\":4721:4727   */\n      dup2\n        /* \"#utility.yul\":4717:4739   */\n      sub\n        /* \"#utility.yul\":4712:4714   */\n      0x40\n        /* \"#utility.yul\":4701:4710   */\n      dup5\n        /* \"#utility.yul\":4697:4715   */\n      add\n        /* \"#utility.yul\":4690:4740   */\n      mstore\n        /* \"#utility.yul\":4757:4790   */\n      tag_195\n        /* \"#utility.yul\":4783:4789   */\n      dup2\n        /* \"#utility.yul\":4775:4781   */\n      dup7\n        /* \"#utility.yul\":4757:4790   */\n      tag_148\n      jump\t// in\n    tag_195:\n        /* \"#utility.yul\":4749:4790   */\n      swap2\n      pop\n      pop\n        /* \"#utility.yul\":4826:4832   */\n      dup3\n        /* \"#utility.yul\":4821:4823   */\n      0x60\n        /* \"#utility.yul\":4810:4819   */\n      dup4\n        /* \"#utility.yul\":4806:4824   */\n      add\n        /* \"#utility.yul\":4799:4833   */\n      mstore\n        /* \"#utility.yul\":4263:4839   */\n      swap6\n      swap5\n      pop\n      pop\n      pop\n      pop\n      pop\n      jump\t// out\n        /* \"#utility.yul\":4844:5028   */\n    tag_84:\n      mul(0x4e487b71, exp(0x02, 0xe0))\n        /* \"#utility.yul\":4893:4894   */\n      0x00\n        /* \"#utility.yul\":4886:4974   */\n      mstore\n        /* \"#utility.yul\":4993:4997   */\n      0x32\n        /* \"#utility.yul\":4990:4991   */\n      0x04\n        /* \"#utility.yul\":4983:4998   */\n      mstore\n        /* \"#utility.yul\":5017:5021   */\n      0x24\n        /* \"#utility.yul\":5014:5015   */\n      0x00\n        /* \"#utility.yul\":5007:5022   */\n      revert\n        /* \"#utility.yul\":5033:5284   */\n    tag_89:\n        /* \"#utility.yul\":5103:5109   */\n      0x00\n        /* \"#utility.yul\":5156:5158   */\n      0x20\n        /* \"#utility.yul\":5144:5153   */\n      dup3\n        /* \"#utility.yul\":5135:5142   */\n      dup5\n        /* \"#utility.yul\":5131:5154   */\n      sub\n        /* \"#utility.yul\":5127:5159   */\n      slt\n        /* \"#utility.yul\":5124:5176   */\n      iszero\n      tag_198\n      jumpi\n        /* \"#utility.yul\":5172:5173   */\n      0x00\n        /* \"#utility.yul\":5169:5170   */\n      dup1\n        /* \"#utility.yul\":5162:5174   */\n      revert\n        /* \"#utility.yul\":5124:5176   */\n    tag_198:\n        /* \"#utility.yul\":5204:5213   */\n      dup2\n        /* \"#utility.yul\":5198:5214   */\n      mload\n        /* \"#utility.yul\":5223:5254   */\n      tag_188\n        /* \"#utility.yul\":5248:5253   */\n      dup2\n        /* \"#utility.yul\":5223:5254   */\n      tag_147\n      jump\t// in\n        /* \"#utility.yul\":5844:6133   */\n    tag_99:\n        /* \"#utility.yul\":5883:5886   */\n      0x00\n        /* \"#utility.yul\":5904:5921   */\n      0x01\n      dup3\n      add\n        /* \"#utility.yul\":5901:6098   */\n      tag_203\n      jumpi\n      mul(0x4e487b71, exp(0x02, 0xe0))\n        /* \"#utility.yul\":5951:5952   */\n      0x00\n        /* \"#utility.yul\":5944:6032   */\n      mstore\n        /* \"#utility.yul\":6055:6059   */\n      0x11\n        /* \"#utility.yul\":6052:6053   */\n      0x04\n        /* \"#utility.yul\":6045:6060   */\n      mstore\n        /* \"#utility.yul\":6083:6087   */\n      0x24\n        /* \"#utility.yul\":6080:6081   */\n      0x00\n        /* \"#utility.yul\":6073:6088   */\n      revert\n        /* \"#utility.yul\":5901:6098   */\n    tag_203:\n      pop\n        /* \"#utility.yul\":6125:6126   */\n      0x01\n        /* \"#utility.yul\":6114:6127   */\n      add\n      swap1\n        /* \"#utility.yul\":5844:6133   */\n      jump\t// out\n        /* \"#utility.yul\":6138:6575   */\n    tag_149:\n        /* \"#utility.yul\":6223:6224   */\n      0x02\n        /* \"#utility.yul\":6213:6225   */\n      dup2\n      div\n        /* \"#utility.yul\":6270:6271   */\n      0x01\n        /* \"#utility.yul\":6260:6272   */\n      dup3\n      and\n      dup1\n        /* \"#utility.yul\":6281:6342   */\n      tag_205\n      jumpi\n        /* \"#utility.yul\":6335:6339   */\n      0x7f\n        /* \"#utility.yul\":6327:6333   */\n      dup3\n        /* \"#utility.yul\":6323:6340   */\n      and\n        /* \"#utility.yul\":6313:6340   */\n      swap2\n      pop\n        /* \"#utility.yul\":6281:6342   */\n    tag_205:\n        /* \"#utility.yul\":6388:6390   */\n      0x20\n        /* \"#utility.yul\":6380:6386   */\n      dup3\n        /* \"#utility.yul\":6377:6391   */\n      lt\n        /* \"#utility.yul\":6357:6375   */\n      dup2\n        /* \"#utility.yul\":6354:6392   */\n      sub\n        /* \"#utility.yul\":6351:6569   */\n      tag_206\n      jumpi\n      mul(0x4e487b71, exp(0x02, 0xe0))\n        /* \"#utility.yul\":6422:6423   */\n      0x00\n        /* \"#utility.yul\":6415:6503   */\n      mstore\n        /* \"#utility.yul\":6526:6530   */\n      0x22\n        /* \"#utility.yul\":6523:6524   */\n      0x04\n        /* \"#utility.yul\":6516:6531   */\n      mstore\n        /* \"#utility.yul\":6554:6558   */\n      0x24\n        /* \"#utility.yul\":6551:6552   */\n      0x00\n        /* \"#utility.yul\":6544:6559   */\n      revert\n        /* \"#utility.yul\":6351:6569   */\n    tag_206:\n      pop\n        /* \"#utility.yul\":6138:6575   */\n      swap2\n      swap1\n      pop\n      jump\t// out\n        /* \"#utility.yul\":6706:7257   */\n    tag_151:\n        /* \"#utility.yul\":6808:6810   */\n      0x1f\n        /* \"#utility.yul\":6803:6806   */\n      dup3\n        /* \"#utility.yul\":6800:6811   */\n      gt\n        /* \"#utility.yul\":6797:7251   */\n      iszero\n      tag_209\n      jumpi\n        /* \"#utility.yul\":6844:6845   */\n      0x00\n        /* \"#utility.yul\":6869:6874   */\n      dup2\n        /* \"#utility.yul\":6865:6867   */\n      dup2\n        /* \"#utility.yul\":6858:6875   */\n      mstore\n        /* \"#utility.yul\":6914:6918   */\n      0x20\n        /* \"#utility.yul\":6910:6912   */\n      dup2\n        /* \"#utility.yul\":6900:6919   */\n      keccak256\n        /* \"#utility.yul\":6986:6990   */\n      0x20\n        /* \"#utility.yul\":6981:6983   */\n      0x1f\n        /* \"#utility.yul\":6969:6979   */\n      dup7\n        /* \"#utility.yul\":6965:6984   */\n      add\n        /* \"#utility.yul\":6961:6991   */\n      div\n        /* \"#utility.yul\":6955:6959   */\n      dup2\n        /* \"#utility.yul\":6951:6992   */\n      add\n        /* \"#utility.yul\":7023:7027   */\n      0x20\n        /* \"#utility.yul\":7011:7021   */\n      dup7\n        /* \"#utility.yul\":7008:7028   */\n      lt\n        /* \"#utility.yul\":7005:7052   */\n      iszero\n      tag_210\n      jumpi\n      pop\n        /* \"#utility.yul\":7046:7050   */\n      dup1\n        /* \"#utility.yul\":7005:7052   */\n    tag_210:\n        /* \"#utility.yul\":7103:7107   */\n      0x20\n        /* \"#utility.yul\":7098:7100   */\n      0x1f\n        /* \"#utility.yul\":7093:7096   */\n      dup7\n        /* \"#utility.yul\":7089:7101   */\n      add\n        /* \"#utility.yul\":7085:7108   */\n      div\n        /* \"#utility.yul\":7079:7083   */\n      dup3\n        /* \"#utility.yul\":7075:7109   */\n      add\n        /* \"#utility.yul\":7065:7109   */\n      swap2\n      pop\n        /* \"#utility.yul\":7159:7241   */\n    tag_211:\n        /* \"#utility.yul\":7177:7179   */\n      dup2\n        /* \"#utility.yul\":7170:7175   */\n      dup2\n        /* \"#utility.yul\":7167:7180   */\n      lt\n        /* \"#utility.yul\":7159:7241   */\n      iszero\n      tag_213\n      jumpi\n        /* \"#utility.yul\":7222:7239   */\n      dup3\n      dup2\n      sstore\n        /* \"#utility.yul\":7203:7204   */\n      0x01\n        /* \"#utility.yul\":7192:7205   */\n      add\n        /* \"#utility.yul\":7159:7241   */\n      jump(tag_211)\n    tag_213:\n        /* \"#utility.yul\":7163:7166   */\n      pop\n      pop\n      pop\n        /* \"#utility.yul\":6797:7251   */\n    tag_209:\n        /* \"#utility.yul\":6706:7257   */\n      pop\n      pop\n      pop\n      jump\t// out\n        /* \"#utility.yul\":7441:8800   */\n    tag_111:\n        /* \"#utility.yul\":7567:7570   */\n      dup2\n        /* \"#utility.yul\":7561:7571   */\n      mload\n        /* \"#utility.yul\":7594:7612   */\n      0xffffffffffffffff\n        /* \"#utility.yul\":7586:7592   */\n      dup2\n        /* \"#utility.yul\":7583:7613   */\n      gt\n        /* \"#utility.yul\":7580:7636   */\n      iszero\n      tag_217\n      jumpi\n        /* \"#utility.yul\":7616:7634   */\n      tag_217\n      tag_145\n      jump\t// in\n    tag_217:\n        /* \"#utility.yul\":7645:7742   */\n      tag_218\n        /* \"#utility.yul\":7735:7741   */\n      dup2\n        /* \"#utility.yul\":7695:7733   */\n      tag_219\n        /* \"#utility.yul\":7727:7731   */\n      dup5\n        /* \"#utility.yul\":7721:7732   */\n      sload\n        /* \"#utility.yul\":7695:7733   */\n      tag_149\n      jump\t// in\n    tag_219:\n        /* \"#utility.yul\":7689:7693   */\n      dup5\n        /* \"#utility.yul\":7645:7742   */\n      tag_151\n      jump\t// in\n    tag_218:\n        /* \"#utility.yul\":7797:7801   */\n      0x20\n      dup1\n        /* \"#utility.yul\":7861:7863   */\n      0x1f\n        /* \"#utility.yul\":7850:7864   */\n      dup4\n      gt\n        /* \"#utility.yul\":7878:7879   */\n      0x01\n        /* \"#utility.yul\":7873:8543   */\n      dup2\n      eq\n      tag_221\n      jumpi\n        /* \"#utility.yul\":8587:8588   */\n      0x00\n        /* \"#utility.yul\":8604:8610   */\n      dup5\n        /* \"#utility.yul\":8601:8690   */\n      iszero\n      tag_222\n      jumpi\n      pop\n        /* \"#utility.yul\":8656:8675   */\n      dup6\n      dup4\n      add\n        /* \"#utility.yul\":8650:8676   */\n      mload\n        /* \"#utility.yul\":8601:8690   */\n    tag_222:\n        /* \"#utility.yul\":7422:7423   */\n      0x02\n        /* \"#utility.yul\":7418:7429   */\n      dup1\n      dup7\n      mul\n        /* \"#utility.yul\":7405:7406   */\n      0x08\n        /* \"#utility.yul\":7401:7412   */\n      dup8\n      mul\n        /* \"#utility.yul\":7394:7413   */\n      swap1\n      swap2\n      exp\n      not(0x00)\n        /* \"#utility.yul\":7382:7414   */\n      div\n        /* \"#utility.yul\":7378:7415   */\n      not\n        /* \"#utility.yul\":7368:7416   */\n      dup3\n      and\n        /* \"#utility.yul\":7365:7430   */\n      or\n        /* \"#utility.yul\":8710:8714   */\n      dup7\n        /* \"#utility.yul\":8703:8784   */\n      sstore\n      pop\n        /* \"#utility.yul\":7843:8794   */\n      jump(tag_213)\n        /* \"#utility.yul\":7873:8543   */\n    tag_221:\n        /* \"#utility.yul\":6653:6654   */\n      0x00\n        /* \"#utility.yul\":6646:6660   */\n      dup6\n      dup2\n      mstore\n        /* \"#utility.yul\":6690:6694   */\n      0x20\n        /* \"#utility.yul\":6677:6695   */\n      dup2\n      keccak256\n      not(0x1f)\n        /* \"#utility.yul\":7909:7929   */\n      dup7\n      and\n      swap2\n        /* \"#utility.yul\":8027:8263   */\n    tag_225:\n        /* \"#utility.yul\":8041:8048   */\n      dup3\n        /* \"#utility.yul\":8038:8039   */\n      dup2\n        /* \"#utility.yul\":8035:8049   */\n      lt\n        /* \"#utility.yul\":8027:8263   */\n      iszero\n      tag_227\n      jumpi\n        /* \"#utility.yul\":8130:8149   */\n      dup9\n      dup7\n      add\n        /* \"#utility.yul\":8124:8150   */\n      mload\n        /* \"#utility.yul\":8109:8151   */\n      dup3\n      sstore\n        /* \"#utility.yul\":8222:8249   */\n      swap5\n      dup5\n      add\n      swap5\n        /* \"#utility.yul\":8190:8191   */\n      0x01\n        /* \"#utility.yul\":8178:8192   */\n      swap1\n      swap2\n      add\n      swap1\n        /* \"#utility.yul\":8057:8076   */\n      dup5\n      add\n        /* \"#utility.yul\":8027:8263   */\n      jump(tag_225)\n    tag_227:\n        /* \"#utility.yul\":8031:8034   */\n      pop\n        /* \"#utility.yul\":8291:8297   */\n      dup6\n        /* \"#utility.yul\":8282:8289   */\n      dup3\n        /* \"#utility.yul\":8279:8298   */\n      lt\n        /* \"#utility.yul\":8276:8484   */\n      iszero\n      tag_228\n      jumpi\n        /* \"#utility.yul\":8352:8371   */\n      dup8\n      dup6\n      add\n        /* \"#utility.yul\":8346:8372   */\n      mload\n        /* \"#utility.yul\":8446:8447   */\n      0x08\n        /* \"#utility.yul\":8461:8463   */\n      0x1f\n        /* \"#utility.yul\":8449:8464   */\n      dup9\n      and\n        /* \"#utility.yul\":8442:8465   */\n      mul\n        /* \"#utility.yul\":8439:8440   */\n      0x02\n        /* \"#utility.yul\":8435:8466   */\n      exp\n      not(0x00)\n        /* \"#utility.yul\":8423:8467   */\n      div\n        /* \"#utility.yul\":8419:8468   */\n      not\n        /* \"#utility.yul\":8404:8469   */\n      and\n        /* \"#utility.yul\":8389:8470   */\n      dup2\n      sstore\n        /* \"#utility.yul\":8276:8484   */\n    tag_228:\n      pop\n      pop\n      pop\n      pop\n      pop\n        /* \"#utility.yul\":8526:8527   */\n      0x02\n        /* \"#utility.yul\":8514:8528   */\n      mul\n        /* \"#utility.yul\":8530:8531   */\n      0x01\n        /* \"#utility.yul\":8510:8532   */\n      add\n        /* \"#utility.yul\":8497:8533   */\n      swap1\n      sstore\n      pop\n        /* \"#utility.yul\":7441:8800   */\n      jump\t// out\n        /* \"#utility.yul\":8805:9483   */\n    tag_120:\n        /* \"#utility.yul\":9086:9089   */\n      0xa0\n        /* \"#utility.yul\":9075:9084   */\n      dup2\n        /* \"#utility.yul\":9068:9090   */\n      mstore\n        /* \"#utility.yul\":9049:9053   */\n      0x00\n        /* \"#utility.yul\":9113:9159   */\n      tag_230\n        /* \"#utility.yul\":9154:9157   */\n      0xa0\n        /* \"#utility.yul\":9143:9152   */\n      dup4\n        /* \"#utility.yul\":9139:9158   */\n      add\n        /* \"#utility.yul\":9131:9137   */\n      dup9\n        /* \"#utility.yul\":9113:9159   */\n      tag_148\n      jump\t// in\n    tag_230:\n      sub(exp(0x02, 0xa0), 0x01)\n        /* \"#utility.yul\":9268:9270   */\n      dup1\n        /* \"#utility.yul\":9260:9266   */\n      dup9\n        /* \"#utility.yul\":9256:9271   */\n      and\n        /* \"#utility.yul\":9251:9253   */\n      0x20\n        /* \"#utility.yul\":9240:9249   */\n      dup6\n        /* \"#utility.yul\":9236:9254   */\n      add\n        /* \"#utility.yul\":9229:9272   */\n      mstore\n        /* \"#utility.yul\":9308:9314   */\n      dup7\n        /* \"#utility.yul\":9303:9305   */\n      0x40\n        /* \"#utility.yul\":9292:9301   */\n      dup6\n        /* \"#utility.yul\":9288:9306   */\n      add\n        /* \"#utility.yul\":9281:9315   */\n      mstore\n        /* \"#utility.yul\":9363:9372   */\n      dup4\n        /* \"#utility.yul\":9355:9361   */\n      dup3\n        /* \"#utility.yul\":9351:9373   */\n      sub\n        /* \"#utility.yul\":9346:9348   */\n      0x60\n        /* \"#utility.yul\":9335:9344   */\n      dup6\n        /* \"#utility.yul\":9331:9349   */\n      add\n        /* \"#utility.yul\":9324:9374   */\n      mstore\n        /* \"#utility.yul\":9391:9424   */\n      tag_231\n        /* \"#utility.yul\":9417:9423   */\n      dup3\n        /* \"#utility.yul\":9409:9415   */\n      dup8\n        /* \"#utility.yul\":9391:9424   */\n      tag_148\n      jump\t// in\n    tag_231:\n        /* \"#utility.yul\":9383:9424   */\n      swap3\n      pop\n        /* \"#utility.yul\":9473:9475   */\n      dup1\n        /* \"#utility.yul\":9465:9471   */\n      dup6\n        /* \"#utility.yul\":9461:9476   */\n      and\n        /* \"#utility.yul\":9455:9458   */\n      0x80\n        /* \"#utility.yul\":9444:9453   */\n      dup6\n        /* \"#utility.yul\":9440:9459   */\n      add\n        /* \"#utility.yul\":9433:9477   */\n      mstore\n      pop\n      pop\n        /* \"#utility.yul\":8805:9483   */\n      swap7\n      swap6\n      pop\n      pop\n      pop\n      pop\n      pop\n      pop\n      jump\t// out\n    stop\n\n    sub_0: assembly {\n            /* \"contracts/Employee.sol\":91:443  contract Employee is BaseUser {... */\n          mstore(0x40, 0x80)\n            /* \"contracts/Employee.sol\":190:438  constructor(... */\n          callvalue\n          dup1\n          iszero\n          tag_1\n          jumpi\n          0x00\n          dup1\n          revert\n        tag_1:\n          pop\n          mload(0x40)\n          sub(codesize, bytecodeSize)\n          dup1\n          bytecodeSize\n          dup4\n          codecopy\n          dup2\n          add\n          0x40\n          dup2\n          swap1\n          mstore\n          tag_2\n          swap2\n          tag_3\n          jump\t// in\n        tag_2:\n            /* \"contracts/Employee.sol\":345:352  newName */\n          dup4\n            /* \"contracts/Employee.sol\":354:364  newAddress */\n          dup4\n            /* \"contracts/BaseUser.sol\":219:223  name */\n          0x00\n            /* \"contracts/BaseUser.sol\":219:233  name = newName */\n          tag_7\n            /* \"contracts/Employee.sol\":345:352  newName */\n          dup4\n            /* \"contracts/BaseUser.sol\":219:223  name */\n          dup3\n            /* \"contracts/BaseUser.sol\":219:233  name = newName */\n          tag_8\n          jump\t// in\n        tag_7:\n          pop\n            /* \"contracts/BaseUser.sol\":244:259  withdrawAddress */\n          0x01\n            /* \"contracts/BaseUser.sol\":244:272  withdrawAddress = newAddress */\n          dup1\n          sload\n          not(sub(exp(0x02, 0xa0), 0x01))\n          and\n          sub(exp(0x02, 0xa0), 0x01)\n          swap3\n          swap1\n          swap3\n          and\n          swap2\n          swap1\n          swap2\n          or\n          swap1\n          sstore\n          pop\n            /* \"contracts/Employee.sol\":377:387  profession */\n          0x02\n            /* \"contracts/Employee.sol\":377:403  profession = newProfession */\n          tag_10\n            /* \"contracts/Employee.sol\":390:403  newProfession */\n          dup4\n            /* \"contracts/Employee.sol\":377:387  profession */\n          dup3\n            /* \"contracts/Employee.sol\":377:403  profession = newProfession */\n          tag_8\n          jump\t// in\n        tag_10:\n          pop\n            /* \"contracts/Employee.sol\":414:420  salary */\n          0x03\n            /* \"contracts/Employee.sol\":414:430  salary = _salary */\n          sstore\n          pop\n            /* \"contracts/Employee.sol\":91:443  contract Employee is BaseUser {... */\n          tag_18\n          swap2\n          pop\n          pop\n          jump\n            /* \"#utility.yul\":14:198   */\n        tag_12:\n            /* \"#utility.yul\":66:143   */\n          0x4e487b7100000000000000000000000000000000000000000000000000000000\n            /* \"#utility.yul\":63:64   */\n          0x00\n            /* \"#utility.yul\":56:144   */\n          mstore\n            /* \"#utility.yul\":163:167   */\n          0x41\n            /* \"#utility.yul\":160:161   */\n          0x04\n            /* \"#utility.yul\":153:168   */\n          mstore\n            /* \"#utility.yul\":187:191   */\n          0x24\n            /* \"#utility.yul\":184:185   */\n          0x00\n            /* \"#utility.yul\":177:192   */\n          revert\n            /* \"#utility.yul\":203:1043   */\n        tag_13:\n            /* \"#utility.yul\":257:262   */\n          0x00\n            /* \"#utility.yul\":310:313   */\n          dup3\n            /* \"#utility.yul\":303:307   */\n          0x1f\n            /* \"#utility.yul\":295:301   */\n          dup4\n            /* \"#utility.yul\":291:308   */\n          add\n            /* \"#utility.yul\":287:314   */\n          slt\n            /* \"#utility.yul\":277:332   */\n          tag_21\n          jumpi\n            /* \"#utility.yul\":328:329   */\n          0x00\n            /* \"#utility.yul\":325:326   */\n          dup1\n            /* \"#utility.yul\":318:330   */\n          revert\n            /* \"#utility.yul\":277:332   */\n        tag_21:\n            /* \"#utility.yul\":357:363   */\n          dup2\n            /* \"#utility.yul\":351:364   */\n          mload\n          sub(exp(0x02, 0x40), 0x01)\n            /* \"#utility.yul\":420:422   */\n          dup1\n            /* \"#utility.yul\":416:418   */\n          dup3\n            /* \"#utility.yul\":413:423   */\n          gt\n            /* \"#utility.yul\":410:446   */\n          iszero\n          tag_23\n          jumpi\n            /* \"#utility.yul\":426:444   */\n          tag_23\n          tag_12\n          jump\t// in\n        tag_23:\n            /* \"#utility.yul\":501:503   */\n          0x40\n            /* \"#utility.yul\":495:504   */\n          mload\n            /* \"#utility.yul\":469:471   */\n          0x1f\n            /* \"#utility.yul\":555:568   */\n          dup4\n          add\n          not(0x1f)\n            /* \"#utility.yul\":551:573   */\n          swap1\n          dup2\n          and\n            /* \"#utility.yul\":575:577   */\n          0x3f\n            /* \"#utility.yul\":547:578   */\n          add\n            /* \"#utility.yul\":543:583   */\n          and\n            /* \"#utility.yul\":531:584   */\n          dup2\n          add\n          swap1\n            /* \"#utility.yul\":599:617   */\n          dup3\n          dup3\n          gt\n            /* \"#utility.yul\":619:641   */\n          dup2\n          dup4\n          lt\n            /* \"#utility.yul\":596:642   */\n          or\n            /* \"#utility.yul\":593:665   */\n          iszero\n          tag_25\n          jumpi\n            /* \"#utility.yul\":645:663   */\n          tag_25\n          tag_12\n          jump\t// in\n        tag_25:\n            /* \"#utility.yul\":685:695   */\n          dup2\n            /* \"#utility.yul\":681:683   */\n          0x40\n            /* \"#utility.yul\":674:696   */\n          mstore\n            /* \"#utility.yul\":720:722   */\n          dup4\n            /* \"#utility.yul\":712:718   */\n          dup2\n            /* \"#utility.yul\":705:723   */\n          mstore\n            /* \"#utility.yul\":742:746   */\n          0x20\n            /* \"#utility.yul\":732:746   */\n          swap3\n          pop\n            /* \"#utility.yul\":787:790   */\n          dup7\n            /* \"#utility.yul\":782:784   */\n          dup4\n            /* \"#utility.yul\":777:779   */\n          dup6\n            /* \"#utility.yul\":769:775   */\n          dup9\n            /* \"#utility.yul\":765:780   */\n          add\n            /* \"#utility.yul\":761:785   */\n          add\n            /* \"#utility.yul\":758:791   */\n          gt\n            /* \"#utility.yul\":755:808   */\n          iszero\n          tag_26\n          jumpi\n            /* \"#utility.yul\":804:805   */\n          0x00\n            /* \"#utility.yul\":801:802   */\n          dup1\n            /* \"#utility.yul\":794:806   */\n          revert\n            /* \"#utility.yul\":755:808   */\n        tag_26:\n            /* \"#utility.yul\":826:827   */\n          0x00\n            /* \"#utility.yul\":817:827   */\n          swap2\n          pop\n            /* \"#utility.yul\":836:969   */\n        tag_27:\n            /* \"#utility.yul\":850:852   */\n          dup4\n            /* \"#utility.yul\":847:848   */\n          dup3\n            /* \"#utility.yul\":844:853   */\n          lt\n            /* \"#utility.yul\":836:969   */\n          iszero\n          tag_29\n          jumpi\n            /* \"#utility.yul\":938:952   */\n          dup6\n          dup3\n          add\n            /* \"#utility.yul\":934:957   */\n          dup4\n          add\n            /* \"#utility.yul\":928:958   */\n          mload\n            /* \"#utility.yul\":907:921   */\n          dup2\n          dup4\n          add\n            /* \"#utility.yul\":903:926   */\n          dup5\n          add\n            /* \"#utility.yul\":896:959   */\n          mstore\n            /* \"#utility.yul\":861:871   */\n          swap1\n          dup3\n          add\n          swap1\n            /* \"#utility.yul\":836:969   */\n          jump(tag_27)\n        tag_29:\n            /* \"#utility.yul\":1011:1012   */\n          0x00\n            /* \"#utility.yul\":989:1004   */\n          swap4\n          dup2\n          add\n            /* \"#utility.yul\":985:1009   */\n          swap1\n          swap3\n          add\n            /* \"#utility.yul\":978:1013   */\n          swap3\n          swap1\n          swap3\n          mstore\n            /* \"#utility.yul\":993:999   */\n          swap5\n            /* \"#utility.yul\":203:1043   */\n          swap4\n          pop\n          pop\n          pop\n          pop\n          jump\t// out\n            /* \"#utility.yul\":1048:1839   */\n        tag_3:\n            /* \"#utility.yul\":1165:1171   */\n          0x00\n            /* \"#utility.yul\":1173:1179   */\n          dup1\n            /* \"#utility.yul\":1181:1187   */\n          0x00\n            /* \"#utility.yul\":1189:1195   */\n          dup1\n            /* \"#utility.yul\":1242:1245   */\n          0x80\n            /* \"#utility.yul\":1230:1239   */\n          dup6\n            /* \"#utility.yul\":1221:1228   */\n          dup8\n            /* \"#utility.yul\":1217:1240   */\n          sub\n            /* \"#utility.yul\":1213:1246   */\n          slt\n            /* \"#utility.yul\":1210:1263   */\n          iszero\n          tag_31\n          jumpi\n            /* \"#utility.yul\":1259:1260   */\n          0x00\n            /* \"#utility.yul\":1256:1257   */\n          dup1\n            /* \"#utility.yul\":1249:1261   */\n          revert\n            /* \"#utility.yul\":1210:1263   */\n        tag_31:\n            /* \"#utility.yul\":1292:1301   */\n          dup5\n            /* \"#utility.yul\":1286:1302   */\n          mload\n          sub(exp(0x02, 0x40), 0x01)\n            /* \"#utility.yul\":1362:1364   */\n          dup1\n            /* \"#utility.yul\":1354:1360   */\n          dup3\n            /* \"#utility.yul\":1351:1365   */\n          gt\n            /* \"#utility.yul\":1348:1382   */\n          iszero\n          tag_32\n          jumpi\n            /* \"#utility.yul\":1378:1379   */\n          0x00\n            /* \"#utility.yul\":1375:1376   */\n          dup1\n            /* \"#utility.yul\":1368:1380   */\n          revert\n            /* \"#utility.yul\":1348:1382   */\n        tag_32:\n            /* \"#utility.yul\":1401:1462   */\n          tag_33\n            /* \"#utility.yul\":1454:1461   */\n          dup9\n            /* \"#utility.yul\":1445:1451   */\n          dup4\n            /* \"#utility.yul\":1434:1443   */\n          dup10\n            /* \"#utility.yul\":1430:1452   */\n          add\n            /* \"#utility.yul\":1401:1462   */\n          tag_13\n          jump\t// in\n        tag_33:\n            /* \"#utility.yul\":1505:1507   */\n          0x20\n            /* \"#utility.yul\":1490:1508   */\n          dup9\n          add\n            /* \"#utility.yul\":1484:1509   */\n          mload\n            /* \"#utility.yul\":1391:1462   */\n          swap1\n          swap7\n          pop\n            /* \"#utility.yul\":1484:1509   */\n          swap2\n          pop\n          sub(exp(0x02, 0xa0), 0x01)\n            /* \"#utility.yul\":1538:1569   */\n          dup3\n          and\n            /* \"#utility.yul\":1528:1570   */\n          dup3\n          eq\n            /* \"#utility.yul\":1518:1588   */\n          tag_34\n          jumpi\n            /* \"#utility.yul\":1584:1585   */\n          0x00\n            /* \"#utility.yul\":1581:1582   */\n          dup1\n            /* \"#utility.yul\":1574:1586   */\n          revert\n            /* \"#utility.yul\":1518:1588   */\n        tag_34:\n            /* \"#utility.yul\":1658:1660   */\n          0x40\n            /* \"#utility.yul\":1643:1661   */\n          dup8\n          add\n            /* \"#utility.yul\":1637:1662   */\n          mload\n            /* \"#utility.yul\":1607:1612   */\n          swap2\n          swap5\n          pop\n            /* \"#utility.yul\":1674:1690   */\n          dup1\n          dup3\n          gt\n            /* \"#utility.yul\":1671:1707   */\n          iszero\n          tag_35\n          jumpi\n            /* \"#utility.yul\":1703:1704   */\n          0x00\n            /* \"#utility.yul\":1700:1701   */\n          dup1\n            /* \"#utility.yul\":1693:1705   */\n          revert\n            /* \"#utility.yul\":1671:1707   */\n        tag_35:\n          pop\n            /* \"#utility.yul\":1726:1789   */\n          tag_36\n            /* \"#utility.yul\":1781:1788   */\n          dup8\n            /* \"#utility.yul\":1770:1778   */\n          dup3\n            /* \"#utility.yul\":1759:1768   */\n          dup9\n            /* \"#utility.yul\":1755:1779   */\n          add\n            /* \"#utility.yul\":1726:1789   */\n          tag_13\n          jump\t// in\n        tag_36:\n            /* \"#utility.yul\":1829:1831   */\n          0x60\n            /* \"#utility.yul\":1814:1832   */\n          swap7\n          swap1\n          swap7\n          add\n            /* \"#utility.yul\":1808:1833   */\n          mload\n            /* \"#utility.yul\":1048:1839   */\n          swap5\n          swap8\n          swap4\n          swap7\n          pop\n          pop\n          pop\n          pop\n          jump\t// out\n            /* \"#utility.yul\":1844:2281   */\n        tag_14:\n            /* \"#utility.yul\":1929:1930   */\n          0x02\n            /* \"#utility.yul\":1919:1931   */\n          dup2\n          div\n            /* \"#utility.yul\":1976:1977   */\n          0x01\n            /* \"#utility.yul\":1966:1978   */\n          dup3\n          and\n          dup1\n            /* \"#utility.yul\":1987:2048   */\n          tag_38\n          jumpi\n            /* \"#utility.yul\":2041:2045   */\n          0x7f\n            /* \"#utility.yul\":2033:2039   */\n          dup3\n            /* \"#utility.yul\":2029:2046   */\n          and\n            /* \"#utility.yul\":2019:2046   */\n          swap2\n          pop\n            /* \"#utility.yul\":1987:2048   */\n        tag_38:\n            /* \"#utility.yul\":2094:2096   */\n          0x20\n            /* \"#utility.yul\":2086:2092   */\n          dup3\n            /* \"#utility.yul\":2083:2097   */\n          lt\n            /* \"#utility.yul\":2063:2081   */\n          dup2\n            /* \"#utility.yul\":2060:2098   */\n          sub\n            /* \"#utility.yul\":2057:2275   */\n          tag_39\n          jumpi\n            /* \"#utility.yul\":2131:2208   */\n          0x4e487b7100000000000000000000000000000000000000000000000000000000\n            /* \"#utility.yul\":2128:2129   */\n          0x00\n            /* \"#utility.yul\":2121:2209   */\n          mstore\n            /* \"#utility.yul\":2232:2236   */\n          0x22\n            /* \"#utility.yul\":2229:2230   */\n          0x04\n            /* \"#utility.yul\":2222:2237   */\n          mstore\n            /* \"#utility.yul\":2260:2264   */\n          0x24\n            /* \"#utility.yul\":2257:2258   */\n          0x00\n            /* \"#utility.yul\":2250:2265   */\n          revert\n            /* \"#utility.yul\":2057:2275   */\n        tag_39:\n          pop\n            /* \"#utility.yul\":1844:2281   */\n          swap2\n          swap1\n          pop\n          jump\t// out\n            /* \"#utility.yul\":2412:2963   */\n        tag_16:\n            /* \"#utility.yul\":2514:2516   */\n          0x1f\n            /* \"#utility.yul\":2509:2512   */\n          dup3\n            /* \"#utility.yul\":2506:2517   */\n          gt\n            /* \"#utility.yul\":2503:2957   */\n          iszero\n          tag_42\n          jumpi\n            /* \"#utility.yul\":2550:2551   */\n          0x00\n            /* \"#utility.yul\":2575:2580   */\n          dup2\n            /* \"#utility.yul\":2571:2573   */\n          dup2\n            /* \"#utility.yul\":2564:2581   */\n          mstore\n            /* \"#utility.yul\":2620:2624   */\n          0x20\n            /* \"#utility.yul\":2616:2618   */\n          dup2\n            /* \"#utility.yul\":2606:2625   */\n          keccak256\n            /* \"#utility.yul\":2692:2696   */\n          0x20\n            /* \"#utility.yul\":2687:2689   */\n          0x1f\n            /* \"#utility.yul\":2675:2685   */\n          dup7\n            /* \"#utility.yul\":2671:2690   */\n          add\n            /* \"#utility.yul\":2667:2697   */\n          div\n            /* \"#utility.yul\":2661:2665   */\n          dup2\n            /* \"#utility.yul\":2657:2698   */\n          add\n            /* \"#utility.yul\":2729:2733   */\n          0x20\n            /* \"#utility.yul\":2717:2727   */\n          dup7\n            /* \"#utility.yul\":2714:2734   */\n          lt\n            /* \"#utility.yul\":2711:2758   */\n          iszero\n          tag_43\n          jumpi\n          pop\n            /* \"#utility.yul\":2752:2756   */\n          dup1\n            /* \"#utility.yul\":2711:2758   */\n        tag_43:\n            /* \"#utility.yul\":2809:2813   */\n          0x20\n            /* \"#utility.yul\":2804:2806   */\n          0x1f\n            /* \"#utility.yul\":2799:2802   */\n          dup7\n            /* \"#utility.yul\":2795:2807   */\n          add\n            /* \"#utility.yul\":2791:2814   */\n          div\n            /* \"#utility.yul\":2785:2789   */\n          dup3\n            /* \"#utility.yul\":2781:2815   */\n          add\n            /* \"#utility.yul\":2771:2815   */\n          swap2\n          pop\n            /* \"#utility.yul\":2865:2947   */\n        tag_44:\n            /* \"#utility.yul\":2883:2885   */\n          dup2\n            /* \"#utility.yul\":2876:2881   */\n          dup2\n            /* \"#utility.yul\":2873:2886   */\n          lt\n            /* \"#utility.yul\":2865:2947   */\n          iszero\n          tag_46\n          jumpi\n            /* \"#utility.yul\":2928:2945   */\n          dup3\n          dup2\n          sstore\n            /* \"#utility.yul\":2909:2910   */\n          0x01\n            /* \"#utility.yul\":2898:2911   */\n          add\n            /* \"#utility.yul\":2865:2947   */\n          jump(tag_44)\n        tag_46:\n            /* \"#utility.yul\":2869:2872   */\n          pop\n          pop\n          pop\n            /* \"#utility.yul\":2503:2957   */\n        tag_42:\n            /* \"#utility.yul\":2412:2963   */\n          pop\n          pop\n          pop\n          jump\t// out\n            /* \"#utility.yul\":3147:4506   */\n        tag_8:\n            /* \"#utility.yul\":3273:3276   */\n          dup2\n            /* \"#utility.yul\":3267:3277   */\n          mload\n          sub(exp(0x02, 0x40), 0x01)\n            /* \"#utility.yul\":3292:3298   */\n          dup2\n            /* \"#utility.yul\":3289:3319   */\n          gt\n            /* \"#utility.yul\":3286:3342   */\n          iszero\n          tag_50\n          jumpi\n            /* \"#utility.yul\":3322:3340   */\n          tag_50\n          tag_12\n          jump\t// in\n        tag_50:\n            /* \"#utility.yul\":3351:3448   */\n          tag_51\n            /* \"#utility.yul\":3441:3447   */\n          dup2\n            /* \"#utility.yul\":3401:3439   */\n          tag_52\n            /* \"#utility.yul\":3433:3437   */\n          dup5\n            /* \"#utility.yul\":3427:3438   */\n          sload\n            /* \"#utility.yul\":3401:3439   */\n          tag_14\n          jump\t// in\n        tag_52:\n            /* \"#utility.yul\":3395:3399   */\n          dup5\n            /* \"#utility.yul\":3351:3448   */\n          tag_16\n          jump\t// in\n        tag_51:\n            /* \"#utility.yul\":3503:3507   */\n          0x20\n          dup1\n            /* \"#utility.yul\":3567:3569   */\n          0x1f\n            /* \"#utility.yul\":3556:3570   */\n          dup4\n          gt\n            /* \"#utility.yul\":3584:3585   */\n          0x01\n            /* \"#utility.yul\":3579:4249   */\n          dup2\n          eq\n          tag_54\n          jumpi\n            /* \"#utility.yul\":4293:4294   */\n          0x00\n            /* \"#utility.yul\":4310:4316   */\n          dup5\n            /* \"#utility.yul\":4307:4396   */\n          iszero\n          tag_55\n          jumpi\n          pop\n            /* \"#utility.yul\":4362:4381   */\n          dup6\n          dup4\n          add\n            /* \"#utility.yul\":4356:4382   */\n          mload\n            /* \"#utility.yul\":4307:4396   */\n        tag_55:\n            /* \"#utility.yul\":3128:3129   */\n          0x02\n            /* \"#utility.yul\":3124:3135   */\n          dup1\n          dup7\n          mul\n            /* \"#utility.yul\":3111:3112   */\n          0x08\n            /* \"#utility.yul\":3107:3118   */\n          dup8\n          mul\n            /* \"#utility.yul\":3100:3119   */\n          swap1\n          swap2\n          exp\n          not(0x00)\n            /* \"#utility.yul\":3088:3120   */\n          div\n            /* \"#utility.yul\":3084:3121   */\n          not\n            /* \"#utility.yul\":3074:3122   */\n          dup3\n          and\n            /* \"#utility.yul\":3071:3136   */\n          or\n            /* \"#utility.yul\":4416:4420   */\n          dup7\n            /* \"#utility.yul\":4409:4490   */\n          sstore\n          pop\n            /* \"#utility.yul\":3549:4500   */\n          jump(tag_46)\n            /* \"#utility.yul\":3579:4249   */\n        tag_54:\n            /* \"#utility.yul\":2359:2360   */\n          0x00\n            /* \"#utility.yul\":2352:2366   */\n          dup6\n          dup2\n          mstore\n            /* \"#utility.yul\":2396:2400   */\n          0x20\n            /* \"#utility.yul\":2383:2401   */\n          dup2\n          keccak256\n          not(0x1f)\n            /* \"#utility.yul\":3615:3635   */\n          dup7\n          and\n          swap2\n            /* \"#utility.yul\":3733:3969   */\n        tag_58:\n            /* \"#utility.yul\":3747:3754   */\n          dup3\n            /* \"#utility.yul\":3744:3745   */\n          dup2\n            /* \"#utility.yul\":3741:3755   */\n          lt\n            /* \"#utility.yul\":3733:3969   */\n          iszero\n          tag_60\n          jumpi\n            /* \"#utility.yul\":3836:3855   */\n          dup9\n          dup7\n          add\n            /* \"#utility.yul\":3830:3856   */\n          mload\n            /* \"#utility.yul\":3815:3857   */\n          dup3\n          sstore\n            /* \"#utility.yul\":3928:3955   */\n          swap5\n          dup5\n          add\n          swap5\n            /* \"#utility.yul\":3896:3897   */\n          0x01\n            /* \"#utility.yul\":3884:3898   */\n          swap1\n          swap2\n          add\n          swap1\n            /* \"#utility.yul\":3763:3782   */\n          dup5\n          add\n            /* \"#utility.yul\":3733:3969   */\n          jump(tag_58)\n        tag_60:\n            /* \"#utility.yul\":3737:3740   */\n          pop\n            /* \"#utility.yul\":3997:4003   */\n          dup6\n            /* \"#utility.yul\":3988:3995   */\n          dup3\n            /* \"#utility.yul\":3985:4004   */\n          lt\n            /* \"#utility.yul\":3982:4190   */\n          iszero\n          tag_61\n          jumpi\n            /* \"#utility.yul\":4058:4077   */\n          dup8\n          dup6\n          add\n            /* \"#utility.yul\":4052:4078   */\n          mload\n            /* \"#utility.yul\":4152:4153   */\n          0x08\n            /* \"#utility.yul\":4167:4169   */\n          0x1f\n            /* \"#utility.yul\":4155:4170   */\n          dup9\n          and\n            /* \"#utility.yul\":4148:4171   */\n          mul\n            /* \"#utility.yul\":4145:4146   */\n          0x02\n            /* \"#utility.yul\":4141:4172   */\n          exp\n          not(0x00)\n            /* \"#utility.yul\":4129:4173   */\n          div\n            /* \"#utility.yul\":4125:4174   */\n          not\n            /* \"#utility.yul\":4110:4175   */\n          and\n            /* \"#utility.yul\":4095:4176   */\n          dup2\n          sstore\n            /* \"#utility.yul\":3982:4190   */\n        tag_61:\n          pop\n          pop\n          pop\n          pop\n          pop\n            /* \"#utility.yul\":4232:4233   */\n          0x02\n            /* \"#utility.yul\":4220:4234   */\n          mul\n            /* \"#utility.yul\":4236:4237   */\n          0x01\n            /* \"#utility.yul\":4216:4238   */\n          add\n            /* \"#utility.yul\":4203:4239   */\n          swap1\n          sstore\n          pop\n            /* \"#utility.yul\":3147:4506   */\n          jump\t// out\n        tag_18:\n            /* \"contracts/Employee.sol\":91:443  contract Employee is BaseUser {... */\n          dataSize(sub_0)\n          dup1\n          dataOffset(sub_0)\n          0x00\n          codecopy\n          0x00\n          return\n        stop\n\n        sub_0: assembly {\n                /* \"contracts/Employee.sol\":91:443  contract Employee is BaseUser {... */\n              mstore(0x40, 0x80)\n              callvalue\n              dup1\n              iszero\n              tag_1\n              jumpi\n              0x00\n              dup1\n              revert\n            tag_1:\n              pop\n              jumpi(tag_2, lt(calldatasize, 0x04))\n              div(calldataload(0x00), 0x0100000000000000000000000000000000000000000000000000000000)\n              0x1581b600\n              dup2\n              eq\n              tag_3\n              jumpi\n              dup1\n              0xd4e93292\n              eq\n              tag_4\n              jumpi\n            tag_2:\n              0x00\n              dup1\n              revert\n                /* \"contracts/BaseUser.sol\":114:144  address public withdrawAddress */\n            tag_3:\n              sload(0x01)\n              tag_5\n              swap1\n              0xffffffffffffffffffffffffffffffffffffffff\n              and\n              dup2\n              jump\n            tag_5:\n              mload(0x40)\n                /* \"#utility.yul\":190:232   */\n              0xffffffffffffffffffffffffffffffffffffffff\n                /* \"#utility.yul\":178:233   */\n              swap1\n              swap2\n              and\n                /* \"#utility.yul\":160:234   */\n              dup2\n              mstore\n                /* \"#utility.yul\":148:150   */\n              0x20\n                /* \"#utility.yul\":133:151   */\n              add\n                /* \"contracts/BaseUser.sol\":114:144  address public withdrawAddress */\n              mload(0x40)\n              dup1\n              swap2\n              sub\n              swap1\n              return\n                /* \"contracts/BaseUser.sol\":288:388  function withdrawal() public {... */\n            tag_4:\n              stop\n\n            auxdata: 0xa26469706673582212203214d41be218dd95e3edb4ba9869bc554068f4ed101ac1998dd1571de9d0322564736f6c63430008110033\n        }\n    }\n\n    sub_1: assembly {\n            /* \"contracts/Tenant.sol\":89:1171  contract Tenant is BaseUser {... */\n          mstore(0x40, 0x80)\n            /* \"contracts/Tenant.sol\":391:752  constructor (... */\n          mload(0x40)\n          sub(codesize, bytecodeSize)\n          dup1\n          bytecodeSize\n          dup4\n          codecopy\n          dup2\n          add\n          0x40\n          dup2\n          swap1\n          mstore\n          tag_1\n          swap2\n          tag_2\n          jump\t// in\n        tag_1:\n            /* \"contracts/Tenant.sol\":589:593  name */\n          dup5\n            /* \"contracts/Tenant.sol\":595:612  newWithdraAddress */\n          dup5\n            /* \"contracts/BaseUser.sol\":219:223  name */\n          0x00\n            /* \"contracts/BaseUser.sol\":219:233  name = newName */\n          tag_6\n            /* \"contracts/Tenant.sol\":589:593  name */\n          dup4\n            /* \"contracts/BaseUser.sol\":219:223  name */\n          dup3\n            /* \"contracts/BaseUser.sol\":219:233  name = newName */\n          tag_7\n          jump\t// in\n        tag_6:\n          pop\n            /* \"contracts/BaseUser.sol\":244:259  withdrawAddress */\n          0x01\n            /* \"contracts/BaseUser.sol\":244:272  withdrawAddress = newAddress */\n          dup1\n          sload\n          not(sub(exp(0x02, 0xa0), 0x01))\n          and\n          sub(exp(0x02, 0xa0), 0x01)\n          swap3\n          swap1\n          swap3\n          and\n          swap2\n          swap1\n          swap2\n          or\n          swap1\n          sstore\n          pop\n            /* \"contracts/Tenant.sol\":636:648  servicePrice */\n          0x02\n            /* \"contracts/Tenant.sol\":636:656  servicePrice = price */\n          dup4\n          swap1\n          sstore\n            /* \"contracts/Tenant.sol\":667:682  buildingAddress */\n          0x03\n            /* \"contracts/Tenant.sol\":667:699  buildingAddress = newBuildingAdd */\n          tag_9\n            /* \"contracts/Tenant.sol\":685:699  newBuildingAdd */\n          dup4\n            /* \"contracts/Tenant.sol\":667:682  buildingAddress */\n          dup3\n            /* \"contracts/Tenant.sol\":667:699  buildingAddress = newBuildingAdd */\n          tag_7\n          jump\t// in\n        tag_9:\n          pop\n            /* \"contracts/Tenant.sol\":710:726  consorcioAddress */\n          0x04\n            /* \"contracts/Tenant.sol\":710:744  consorcioAddress = newConsorcioAdd */\n          dup1\n          sload\n          not(sub(exp(0x02, 0xa0), 0x01))\n          and\n          sub(exp(0x02, 0xa0), 0x01)\n          swap3\n          swap1\n          swap3\n          and\n          swap2\n          swap1\n          swap2\n          or\n          swap1\n          sstore\n          pop\n            /* \"contracts/Tenant.sol\":89:1171  contract Tenant is BaseUser {... */\n          tag_18\n          swap3\n          pop\n          pop\n          pop\n          jump\n            /* \"#utility.yul\":14:198   */\n        tag_11:\n            /* \"#utility.yul\":66:143   */\n          0x4e487b7100000000000000000000000000000000000000000000000000000000\n            /* \"#utility.yul\":63:64   */\n          0x00\n            /* \"#utility.yul\":56:144   */\n          mstore\n            /* \"#utility.yul\":163:167   */\n          0x41\n            /* \"#utility.yul\":160:161   */\n          0x04\n            /* \"#utility.yul\":153:168   */\n          mstore\n            /* \"#utility.yul\":187:191   */\n          0x24\n            /* \"#utility.yul\":184:185   */\n          0x00\n            /* \"#utility.yul\":177:192   */\n          revert\n            /* \"#utility.yul\":203:1043   */\n        tag_12:\n            /* \"#utility.yul\":257:262   */\n          0x00\n            /* \"#utility.yul\":310:313   */\n          dup3\n            /* \"#utility.yul\":303:307   */\n          0x1f\n            /* \"#utility.yul\":295:301   */\n          dup4\n            /* \"#utility.yul\":291:308   */\n          add\n            /* \"#utility.yul\":287:314   */\n          slt\n            /* \"#utility.yul\":277:332   */\n          tag_21\n          jumpi\n            /* \"#utility.yul\":328:329   */\n          0x00\n            /* \"#utility.yul\":325:326   */\n          dup1\n            /* \"#utility.yul\":318:330   */\n          revert\n            /* \"#utility.yul\":277:332   */\n        tag_21:\n            /* \"#utility.yul\":357:363   */\n          dup2\n            /* \"#utility.yul\":351:364   */\n          mload\n          sub(exp(0x02, 0x40), 0x01)\n            /* \"#utility.yul\":420:422   */\n          dup1\n            /* \"#utility.yul\":416:418   */\n          dup3\n            /* \"#utility.yul\":413:423   */\n          gt\n            /* \"#utility.yul\":410:446   */\n          iszero\n          tag_23\n          jumpi\n            /* \"#utility.yul\":426:444   */\n          tag_23\n          tag_11\n          jump\t// in\n        tag_23:\n            /* \"#utility.yul\":501:503   */\n          0x40\n            /* \"#utility.yul\":495:504   */\n          mload\n            /* \"#utility.yul\":469:471   */\n          0x1f\n            /* \"#utility.yul\":555:568   */\n          dup4\n          add\n          not(0x1f)\n            /* \"#utility.yul\":551:573   */\n          swap1\n          dup2\n          and\n            /* \"#utility.yul\":575:577   */\n          0x3f\n            /* \"#utility.yul\":547:578   */\n          add\n            /* \"#utility.yul\":543:583   */\n          and\n            /* \"#utility.yul\":531:584   */\n          dup2\n          add\n          swap1\n            /* \"#utility.yul\":599:617   */\n          dup3\n          dup3\n          gt\n            /* \"#utility.yul\":619:641   */\n          dup2\n          dup4\n          lt\n            /* \"#utility.yul\":596:642   */\n          or\n            /* \"#utility.yul\":593:665   */\n          iszero\n          tag_25\n          jumpi\n            /* \"#utility.yul\":645:663   */\n          tag_25\n          tag_11\n          jump\t// in\n        tag_25:\n            /* \"#utility.yul\":685:695   */\n          dup2\n            /* \"#utility.yul\":681:683   */\n          0x40\n            /* \"#utility.yul\":674:696   */\n          mstore\n            /* \"#utility.yul\":720:722   */\n          dup4\n            /* \"#utility.yul\":712:718   */\n          dup2\n            /* \"#utility.yul\":705:723   */\n          mstore\n            /* \"#utility.yul\":742:746   */\n          0x20\n            /* \"#utility.yul\":732:746   */\n          swap3\n          pop\n            /* \"#utility.yul\":787:790   */\n          dup7\n            /* \"#utility.yul\":782:784   */\n          dup4\n            /* \"#utility.yul\":777:779   */\n          dup6\n            /* \"#utility.yul\":769:775   */\n          dup9\n            /* \"#utility.yul\":765:780   */\n          add\n            /* \"#utility.yul\":761:785   */\n          add\n            /* \"#utility.yul\":758:791   */\n          gt\n            /* \"#utility.yul\":755:808   */\n          iszero\n          tag_26\n          jumpi\n            /* \"#utility.yul\":804:805   */\n          0x00\n            /* \"#utility.yul\":801:802   */\n          dup1\n            /* \"#utility.yul\":794:806   */\n          revert\n            /* \"#utility.yul\":755:808   */\n        tag_26:\n            /* \"#utility.yul\":826:827   */\n          0x00\n            /* \"#utility.yul\":817:827   */\n          swap2\n          pop\n            /* \"#utility.yul\":836:969   */\n        tag_27:\n            /* \"#utility.yul\":850:852   */\n          dup4\n            /* \"#utility.yul\":847:848   */\n          dup3\n            /* \"#utility.yul\":844:853   */\n          lt\n            /* \"#utility.yul\":836:969   */\n          iszero\n          tag_29\n          jumpi\n            /* \"#utility.yul\":938:952   */\n          dup6\n          dup3\n          add\n            /* \"#utility.yul\":934:957   */\n          dup4\n          add\n            /* \"#utility.yul\":928:958   */\n          mload\n            /* \"#utility.yul\":907:921   */\n          dup2\n          dup4\n          add\n            /* \"#utility.yul\":903:926   */\n          dup5\n          add\n            /* \"#utility.yul\":896:959   */\n          mstore\n            /* \"#utility.yul\":861:871   */\n          swap1\n          dup3\n          add\n          swap1\n            /* \"#utility.yul\":836:969   */\n          jump(tag_27)\n        tag_29:\n            /* \"#utility.yul\":1011:1012   */\n          0x00\n            /* \"#utility.yul\":989:1004   */\n          swap4\n          dup2\n          add\n            /* \"#utility.yul\":985:1009   */\n          swap1\n          swap3\n          add\n            /* \"#utility.yul\":978:1013   */\n          swap3\n          swap1\n          swap3\n          mstore\n            /* \"#utility.yul\":993:999   */\n          swap5\n            /* \"#utility.yul\":203:1043   */\n          swap4\n          pop\n          pop\n          pop\n          pop\n          jump\t// out\n            /* \"#utility.yul\":1048:1225   */\n        tag_13:\n            /* \"#utility.yul\":1127:1140   */\n          dup1\n          mload\n          sub(exp(0x02, 0xa0), 0x01)\n            /* \"#utility.yul\":1169:1200   */\n          dup2\n          and\n            /* \"#utility.yul\":1159:1201   */\n          dup2\n          eq\n            /* \"#utility.yul\":1149:1219   */\n          tag_31\n          jumpi\n            /* \"#utility.yul\":1215:1216   */\n          0x00\n            /* \"#utility.yul\":1212:1213   */\n          dup1\n            /* \"#utility.yul\":1205:1217   */\n          revert\n            /* \"#utility.yul\":1149:1219   */\n        tag_31:\n            /* \"#utility.yul\":1048:1225   */\n          swap2\n          swap1\n          pop\n          jump\t// out\n            /* \"#utility.yul\":1230:2025   */\n        tag_2:\n            /* \"#utility.yul\":1356:1362   */\n          0x00\n            /* \"#utility.yul\":1364:1370   */\n          dup1\n            /* \"#utility.yul\":1372:1378   */\n          0x00\n            /* \"#utility.yul\":1380:1386   */\n          dup1\n            /* \"#utility.yul\":1388:1394   */\n          0x00\n            /* \"#utility.yul\":1441:1444   */\n          0xa0\n            /* \"#utility.yul\":1429:1438   */\n          dup7\n            /* \"#utility.yul\":1420:1427   */\n          dup9\n            /* \"#utility.yul\":1416:1439   */\n          sub\n            /* \"#utility.yul\":1412:1445   */\n          slt\n            /* \"#utility.yul\":1409:1462   */\n          iszero\n          tag_33\n          jumpi\n            /* \"#utility.yul\":1458:1459   */\n          0x00\n            /* \"#utility.yul\":1455:1456   */\n          dup1\n            /* \"#utility.yul\":1448:1460   */\n          revert\n            /* \"#utility.yul\":1409:1462   */\n        tag_33:\n            /* \"#utility.yul\":1491:1500   */\n          dup6\n            /* \"#utility.yul\":1485:1501   */\n          mload\n          sub(exp(0x02, 0x40), 0x01)\n            /* \"#utility.yul\":1561:1563   */\n          dup1\n            /* \"#utility.yul\":1553:1559   */\n          dup3\n            /* \"#utility.yul\":1550:1564   */\n          gt\n            /* \"#utility.yul\":1547:1581   */\n          iszero\n          tag_34\n          jumpi\n            /* \"#utility.yul\":1577:1578   */\n          0x00\n            /* \"#utility.yul\":1574:1575   */\n          dup1\n            /* \"#utility.yul\":1567:1579   */\n          revert\n            /* \"#utility.yul\":1547:1581   */\n        tag_34:\n            /* \"#utility.yul\":1600:1661   */\n          tag_35\n            /* \"#utility.yul\":1653:1660   */\n          dup10\n            /* \"#utility.yul\":1644:1650   */\n          dup4\n            /* \"#utility.yul\":1633:1642   */\n          dup11\n            /* \"#utility.yul\":1629:1651   */\n          add\n            /* \"#utility.yul\":1600:1661   */\n          tag_12\n          jump\t// in\n        tag_35:\n            /* \"#utility.yul\":1590:1661   */\n          swap7\n          pop\n            /* \"#utility.yul\":1680:1729   */\n          tag_36\n            /* \"#utility.yul\":1725:1727   */\n          0x20\n            /* \"#utility.yul\":1714:1723   */\n          dup10\n            /* \"#utility.yul\":1710:1728   */\n          add\n            /* \"#utility.yul\":1680:1729   */\n          tag_13\n          jump\t// in\n        tag_36:\n            /* \"#utility.yul\":1670:1729   */\n          swap6\n          pop\n            /* \"#utility.yul\":1769:1771   */\n          0x40\n            /* \"#utility.yul\":1758:1767   */\n          dup9\n            /* \"#utility.yul\":1754:1772   */\n          add\n            /* \"#utility.yul\":1748:1773   */\n          mload\n            /* \"#utility.yul\":1738:1773   */\n          swap5\n          pop\n            /* \"#utility.yul\":1819:1821   */\n          0x60\n            /* \"#utility.yul\":1808:1817   */\n          dup9\n            /* \"#utility.yul\":1804:1822   */\n          add\n            /* \"#utility.yul\":1798:1823   */\n          mload\n            /* \"#utility.yul\":1782:1823   */\n          swap2\n          pop\n            /* \"#utility.yul\":1848:1850   */\n          dup1\n            /* \"#utility.yul\":1838:1846   */\n          dup3\n            /* \"#utility.yul\":1835:1851   */\n          gt\n            /* \"#utility.yul\":1832:1868   */\n          iszero\n          tag_37\n          jumpi\n            /* \"#utility.yul\":1864:1865   */\n          0x00\n            /* \"#utility.yul\":1861:1862   */\n          dup1\n            /* \"#utility.yul\":1854:1866   */\n          revert\n            /* \"#utility.yul\":1832:1868   */\n        tag_37:\n          pop\n            /* \"#utility.yul\":1887:1950   */\n          tag_38\n            /* \"#utility.yul\":1942:1949   */\n          dup9\n            /* \"#utility.yul\":1931:1939   */\n          dup3\n            /* \"#utility.yul\":1920:1929   */\n          dup10\n            /* \"#utility.yul\":1916:1940   */\n          add\n            /* \"#utility.yul\":1887:1950   */\n          tag_12\n          jump\t// in\n        tag_38:\n            /* \"#utility.yul\":1877:1950   */\n          swap3\n          pop\n          pop\n            /* \"#utility.yul\":1969:2019   */\n          tag_39\n            /* \"#utility.yul\":2014:2017   */\n          0x80\n            /* \"#utility.yul\":2003:2012   */\n          dup8\n            /* \"#utility.yul\":1999:2018   */\n          add\n            /* \"#utility.yul\":1969:2019   */\n          tag_13\n          jump\t// in\n        tag_39:\n            /* \"#utility.yul\":1959:2019   */\n          swap1\n          pop\n            /* \"#utility.yul\":1230:2025   */\n          swap3\n          swap6\n          pop\n          swap3\n          swap6\n          swap1\n          swap4\n          pop\n          jump\t// out\n            /* \"#utility.yul\":2030:2467   */\n        tag_14:\n            /* \"#utility.yul\":2115:2116   */\n          0x02\n            /* \"#utility.yul\":2105:2117   */\n          dup2\n          div\n            /* \"#utility.yul\":2162:2163   */\n          0x01\n            /* \"#utility.yul\":2152:2164   */\n          dup3\n          and\n          dup1\n            /* \"#utility.yul\":2173:2234   */\n          tag_41\n          jumpi\n            /* \"#utility.yul\":2227:2231   */\n          0x7f\n            /* \"#utility.yul\":2219:2225   */\n          dup3\n            /* \"#utility.yul\":2215:2232   */\n          and\n            /* \"#utility.yul\":2205:2232   */\n          swap2\n          pop\n            /* \"#utility.yul\":2173:2234   */\n        tag_41:\n            /* \"#utility.yul\":2280:2282   */\n          0x20\n            /* \"#utility.yul\":2272:2278   */\n          dup3\n            /* \"#utility.yul\":2269:2283   */\n          lt\n            /* \"#utility.yul\":2249:2267   */\n          dup2\n            /* \"#utility.yul\":2246:2284   */\n          sub\n            /* \"#utility.yul\":2243:2461   */\n          tag_42\n          jumpi\n            /* \"#utility.yul\":2317:2394   */\n          0x4e487b7100000000000000000000000000000000000000000000000000000000\n            /* \"#utility.yul\":2314:2315   */\n          0x00\n            /* \"#utility.yul\":2307:2395   */\n          mstore\n            /* \"#utility.yul\":2418:2422   */\n          0x22\n            /* \"#utility.yul\":2415:2416   */\n          0x04\n            /* \"#utility.yul\":2408:2423   */\n          mstore\n            /* \"#utility.yul\":2446:2450   */\n          0x24\n            /* \"#utility.yul\":2443:2444   */\n          0x00\n            /* \"#utility.yul\":2436:2451   */\n          revert\n            /* \"#utility.yul\":2243:2461   */\n        tag_42:\n          pop\n            /* \"#utility.yul\":2030:2467   */\n          swap2\n          swap1\n          pop\n          jump\t// out\n            /* \"#utility.yul\":2598:3149   */\n        tag_16:\n            /* \"#utility.yul\":2700:2702   */\n          0x1f\n            /* \"#utility.yul\":2695:2698   */\n          dup3\n            /* \"#utility.yul\":2692:2703   */\n          gt\n            /* \"#utility.yul\":2689:3143   */\n          iszero\n          tag_45\n          jumpi\n            /* \"#utility.yul\":2736:2737   */\n          0x00\n            /* \"#utility.yul\":2761:2766   */\n          dup2\n            /* \"#utility.yul\":2757:2759   */\n          dup2\n            /* \"#utility.yul\":2750:2767   */\n          mstore\n            /* \"#utility.yul\":2806:2810   */\n          0x20\n            /* \"#utility.yul\":2802:2804   */\n          dup2\n            /* \"#utility.yul\":2792:2811   */\n          keccak256\n            /* \"#utility.yul\":2878:2882   */\n          0x20\n            /* \"#utility.yul\":2873:2875   */\n          0x1f\n            /* \"#utility.yul\":2861:2871   */\n          dup7\n            /* \"#utility.yul\":2857:2876   */\n          add\n            /* \"#utility.yul\":2853:2883   */\n          div\n            /* \"#utility.yul\":2847:2851   */\n          dup2\n            /* \"#utility.yul\":2843:2884   */\n          add\n            /* \"#utility.yul\":2915:2919   */\n          0x20\n            /* \"#utility.yul\":2903:2913   */\n          dup7\n            /* \"#utility.yul\":2900:2920   */\n          lt\n            /* \"#utility.yul\":2897:2944   */\n          iszero\n          tag_46\n          jumpi\n          pop\n            /* \"#utility.yul\":2938:2942   */\n          dup1\n            /* \"#utility.yul\":2897:2944   */\n        tag_46:\n            /* \"#utility.yul\":2995:2999   */\n          0x20\n            /* \"#utility.yul\":2990:2992   */\n          0x1f\n            /* \"#utility.yul\":2985:2988   */\n          dup7\n            /* \"#utility.yul\":2981:2993   */\n          add\n            /* \"#utility.yul\":2977:3000   */\n          div\n            /* \"#utility.yul\":2971:2975   */\n          dup3\n            /* \"#utility.yul\":2967:3001   */\n          add\n            /* \"#utility.yul\":2957:3001   */\n          swap2\n          pop\n            /* \"#utility.yul\":3051:3133   */\n        tag_47:\n            /* \"#utility.yul\":3069:3071   */\n          dup2\n            /* \"#utility.yul\":3062:3067   */\n          dup2\n            /* \"#utility.yul\":3059:3072   */\n          lt\n            /* \"#utility.yul\":3051:3133   */\n          iszero\n          tag_49\n          jumpi\n            /* \"#utility.yul\":3114:3131   */\n          dup3\n          dup2\n          sstore\n            /* \"#utility.yul\":3095:3096   */\n          0x01\n            /* \"#utility.yul\":3084:3097   */\n          add\n            /* \"#utility.yul\":3051:3133   */\n          jump(tag_47)\n        tag_49:\n            /* \"#utility.yul\":3055:3058   */\n          pop\n          pop\n          pop\n            /* \"#utility.yul\":2689:3143   */\n        tag_45:\n            /* \"#utility.yul\":2598:3149   */\n          pop\n          pop\n          pop\n          jump\t// out\n            /* \"#utility.yul\":3333:4692   */\n        tag_7:\n            /* \"#utility.yul\":3459:3462   */\n          dup2\n            /* \"#utility.yul\":3453:3463   */\n          mload\n          sub(exp(0x02, 0x40), 0x01)\n            /* \"#utility.yul\":3478:3484   */\n          dup2\n            /* \"#utility.yul\":3475:3505   */\n          gt\n            /* \"#utility.yul\":3472:3528   */\n          iszero\n          tag_53\n          jumpi\n            /* \"#utility.yul\":3508:3526   */\n          tag_53\n          tag_11\n          jump\t// in\n        tag_53:\n            /* \"#utility.yul\":3537:3634   */\n          tag_54\n            /* \"#utility.yul\":3627:3633   */\n          dup2\n            /* \"#utility.yul\":3587:3625   */\n          tag_55\n            /* \"#utility.yul\":3619:3623   */\n          dup5\n            /* \"#utility.yul\":3613:3624   */\n          sload\n            /* \"#utility.yul\":3587:3625   */\n          tag_14\n          jump\t// in\n        tag_55:\n            /* \"#utility.yul\":3581:3585   */\n          dup5\n            /* \"#utility.yul\":3537:3634   */\n          tag_16\n          jump\t// in\n        tag_54:\n            /* \"#utility.yul\":3689:3693   */\n          0x20\n          dup1\n            /* \"#utility.yul\":3753:3755   */\n          0x1f\n            /* \"#utility.yul\":3742:3756   */\n          dup4\n          gt\n            /* \"#utility.yul\":3770:3771   */\n          0x01\n            /* \"#utility.yul\":3765:4435   */\n          dup2\n          eq\n          tag_57\n          jumpi\n            /* \"#utility.yul\":4479:4480   */\n          0x00\n            /* \"#utility.yul\":4496:4502   */\n          dup5\n            /* \"#utility.yul\":4493:4582   */\n          iszero\n          tag_58\n          jumpi\n          pop\n            /* \"#utility.yul\":4548:4567   */\n          dup6\n          dup4\n          add\n            /* \"#utility.yul\":4542:4568   */\n          mload\n            /* \"#utility.yul\":4493:4582   */\n        tag_58:\n            /* \"#utility.yul\":3314:3315   */\n          0x02\n            /* \"#utility.yul\":3310:3321   */\n          dup1\n          dup7\n          mul\n            /* \"#utility.yul\":3297:3298   */\n          0x08\n            /* \"#utility.yul\":3293:3304   */\n          dup8\n          mul\n            /* \"#utility.yul\":3286:3305   */\n          swap1\n          swap2\n          exp\n          not(0x00)\n            /* \"#utility.yul\":3274:3306   */\n          div\n            /* \"#utility.yul\":3270:3307   */\n          not\n            /* \"#utility.yul\":3260:3308   */\n          dup3\n          and\n            /* \"#utility.yul\":3257:3322   */\n          or\n            /* \"#utility.yul\":4602:4606   */\n          dup7\n            /* \"#utility.yul\":4595:4676   */\n          sstore\n          pop\n            /* \"#utility.yul\":3735:4686   */\n          jump(tag_49)\n            /* \"#utility.yul\":3765:4435   */\n        tag_57:\n            /* \"#utility.yul\":2545:2546   */\n          0x00\n            /* \"#utility.yul\":2538:2552   */\n          dup6\n          dup2\n          mstore\n            /* \"#utility.yul\":2582:2586   */\n          0x20\n            /* \"#utility.yul\":2569:2587   */\n          dup2\n          keccak256\n          not(0x1f)\n            /* \"#utility.yul\":3801:3821   */\n          dup7\n          and\n          swap2\n            /* \"#utility.yul\":3919:4155   */\n        tag_61:\n            /* \"#utility.yul\":3933:3940   */\n          dup3\n            /* \"#utility.yul\":3930:3931   */\n          dup2\n            /* \"#utility.yul\":3927:3941   */\n          lt\n            /* \"#utility.yul\":3919:4155   */\n          iszero\n          tag_63\n          jumpi\n            /* \"#utility.yul\":4022:4041   */\n          dup9\n          dup7\n          add\n            /* \"#utility.yul\":4016:4042   */\n          mload\n            /* \"#utility.yul\":4001:4043   */\n          dup3\n          sstore\n            /* \"#utility.yul\":4114:4141   */\n          swap5\n          dup5\n          add\n          swap5\n            /* \"#utility.yul\":4082:4083   */\n          0x01\n            /* \"#utility.yul\":4070:4084   */\n          swap1\n          swap2\n          add\n          swap1\n            /* \"#utility.yul\":3949:3968   */\n          dup5\n          add\n            /* \"#utility.yul\":3919:4155   */\n          jump(tag_61)\n        tag_63:\n            /* \"#utility.yul\":3923:3926   */\n          pop\n            /* \"#utility.yul\":4183:4189   */\n          dup6\n            /* \"#utility.yul\":4174:4181   */\n          dup3\n            /* \"#utility.yul\":4171:4190   */\n          lt\n            /* \"#utility.yul\":4168:4376   */\n          iszero\n          tag_64\n          jumpi\n            /* \"#utility.yul\":4244:4263   */\n          dup8\n          dup6\n          add\n            /* \"#utility.yul\":4238:4264   */\n          mload\n            /* \"#utility.yul\":4338:4339   */\n          0x08\n            /* \"#utility.yul\":4353:4355   */\n          0x1f\n            /* \"#utility.yul\":4341:4356   */\n          dup9\n          and\n            /* \"#utility.yul\":4334:4357   */\n          mul\n            /* \"#utility.yul\":4331:4332   */\n          0x02\n            /* \"#utility.yul\":4327:4358   */\n          exp\n          not(0x00)\n            /* \"#utility.yul\":4315:4359   */\n          div\n            /* \"#utility.yul\":4311:4360   */\n          not\n            /* \"#utility.yul\":4296:4361   */\n          and\n            /* \"#utility.yul\":4281:4362   */\n          dup2\n          sstore\n            /* \"#utility.yul\":4168:4376   */\n        tag_64:\n          pop\n          pop\n          pop\n          pop\n          pop\n            /* \"#utility.yul\":4418:4419   */\n          0x02\n            /* \"#utility.yul\":4406:4420   */\n          mul\n            /* \"#utility.yul\":4422:4423   */\n          0x01\n            /* \"#utility.yul\":4402:4424   */\n          add\n            /* \"#utility.yul\":4389:4425   */\n          swap1\n          sstore\n          pop\n            /* \"#utility.yul\":3333:4692   */\n          jump\t// out\n        tag_18:\n            /* \"contracts/Tenant.sol\":89:1171  contract Tenant is BaseUser {... */\n          dataSize(sub_0)\n          dup1\n          dataOffset(sub_0)\n          0x00\n          codecopy\n          0x00\n          return\n        stop\n\n        sub_0: assembly {\n                /* \"contracts/Tenant.sol\":89:1171  contract Tenant is BaseUser {... */\n              mstore(0x40, 0x80)\n              jumpi(tag_1, lt(calldatasize, 0x04))\n              div(calldataload(0x00), 0x0100000000000000000000000000000000000000000000000000000000)\n              0x1581b600\n              dup2\n              eq\n              tag_3\n              jumpi\n              dup1\n              0xd0e30db0\n              eq\n              tag_4\n              jumpi\n              dup1\n              0xd4e93292\n              eq\n              tag_5\n              jumpi\n              dup1\n              0xda6e75c2\n              eq\n              tag_6\n              jumpi\n              stop\n            tag_1:\n              jumpi(tag_2, calldatasize)\n              stop\n            tag_2:\n              stop\n                /* \"contracts/BaseUser.sol\":114:144  address public withdrawAddress */\n            tag_3:\n              callvalue\n              dup1\n              iszero\n              tag_11\n              jumpi\n              0x00\n              dup1\n              revert\n            tag_11:\n              pop\n              sload(0x01)\n              tag_12\n              swap1\n              0xffffffffffffffffffffffffffffffffffffffff\n              and\n              dup2\n              jump\n            tag_12:\n              mload(0x40)\n                /* \"#utility.yul\":190:232   */\n              0xffffffffffffffffffffffffffffffffffffffff\n                /* \"#utility.yul\":178:233   */\n              swap1\n              swap2\n              and\n                /* \"#utility.yul\":160:234   */\n              dup2\n              mstore\n                /* \"#utility.yul\":148:150   */\n              0x20\n                /* \"#utility.yul\":133:151   */\n              add\n                /* \"contracts/BaseUser.sol\":114:144  address public withdrawAddress */\n              mload(0x40)\n              dup1\n              swap2\n              sub\n              swap1\n              return\n                /* \"contracts/Tenant.sol\":760:842  function deposit() public payable {... */\n            tag_4:\n              tag_2\n              tag_17\n              jump\t// in\n                /* \"contracts/BaseUser.sol\":288:388  function withdrawal() public {... */\n            tag_5:\n              callvalue\n              dup1\n              iszero\n              tag_2\n              jumpi\n              0x00\n              dup1\n              revert\n                /* \"contracts/Tenant.sol\":850:1166  function payExpenses() public {... */\n            tag_6:\n              callvalue\n              dup1\n              iszero\n              tag_21\n              jumpi\n              0x00\n              dup1\n              revert\n            tag_21:\n              pop\n              tag_2\n              tag_23\n              jump\t// in\n                /* \"contracts/Tenant.sol\":760:842  function deposit() public payable {... */\n            tag_17:\n                /* \"contracts/Tenant.sol\":810:834  EtherReceived(msg.value) */\n              mload(0x40)\n                /* \"contracts/Tenant.sol\":824:833  msg.value */\n              callvalue\n                /* \"#utility.yul\":391:416   */\n              dup2\n              mstore\n                /* \"contracts/Tenant.sol\":810:834  EtherReceived(msg.value) */\n              0x0a34e3d4f1e6b837dbce1011b61499fa1a483a0abee6a7a6697660b4b2d97132\n              swap1\n                /* \"#utility.yul\":379:381   */\n              0x20\n                /* \"#utility.yul\":364:382   */\n              add\n                /* \"contracts/Tenant.sol\":810:834  EtherReceived(msg.value) */\n              mload(0x40)\n              dup1\n              swap2\n              sub\n              swap1\n              log1\n                /* \"contracts/Tenant.sol\":760:842  function deposit() public payable {... */\n              jump\t// out\n                /* \"contracts/Tenant.sol\":850:1166  function payExpenses() public {... */\n            tag_23:\n                /* \"contracts/Tenant.sol\":924:936  servicePrice */\n              sload(0x02)\n                /* \"contracts/Tenant.sol\":907:911  this */\n              address\n                /* \"contracts/Tenant.sol\":899:920  address(this).balance */\n              balance\n                /* \"contracts/Tenant.sol\":899:936  address(this).balance >= servicePrice */\n              lt\n              iszero\n                /* \"contracts/Tenant.sol\":891:961  require(address(this).balance >= servicePrice, \"Fondos insuficientes\") */\n              tag_29\n              jumpi\n              mload(0x40)\n              0x08c379a000000000000000000000000000000000000000000000000000000000\n              dup2\n              mstore\n                /* \"#utility.yul\":629:631   */\n              0x20\n                /* \"contracts/Tenant.sol\":891:961  require(address(this).balance >= servicePrice, \"Fondos insuficientes\") */\n              0x04\n              dup3\n              add\n                /* \"#utility.yul\":611:632   */\n              mstore\n                /* \"#utility.yul\":668:670   */\n              0x14\n                /* \"#utility.yul\":648:666   */\n              0x24\n              dup3\n              add\n                /* \"#utility.yul\":641:671   */\n              mstore\n                /* \"#utility.yul\":707:729   */\n              0x466f6e646f7320696e737566696369656e746573000000000000000000000000\n                /* \"#utility.yul\":687:705   */\n              0x44\n              dup3\n              add\n                /* \"#utility.yul\":680:730   */\n              mstore\n                /* \"#utility.yul\":747:765   */\n              0x64\n              add\n                /* \"contracts/Tenant.sol\":891:961  require(address(this).balance >= servicePrice, \"Fondos insuficientes\") */\n            tag_30:\n              mload(0x40)\n              dup1\n              swap2\n              sub\n              swap1\n              revert\n            tag_29:\n                /* \"contracts/Tenant.sol\":987:1003  consorcioAddress */\n              sload(0x04)\n                /* \"contracts/Tenant.sol\":1031:1043  servicePrice */\n              sload(0x02)\n                /* \"contracts/Tenant.sol\":987:1058  consorcioAddress.call {... */\n              mload(0x40)\n                /* \"contracts/Tenant.sol\":973:982  bool sent */\n              0x00\n              swap3\n                /* \"contracts/Tenant.sol\":987:1003  consorcioAddress */\n              0xffffffffffffffffffffffffffffffffffffffff\n              and\n              swap2\n                /* \"contracts/Tenant.sol\":1031:1043  servicePrice */\n              swap1\n                /* \"contracts/Tenant.sol\":973:982  bool sent */\n              dup4\n                /* \"contracts/Tenant.sol\":987:1058  consorcioAddress.call {... */\n              dup2\n                /* \"contracts/Tenant.sol\":973:982  bool sent */\n              dup2\n                /* \"contracts/Tenant.sol\":987:1058  consorcioAddress.call {... */\n              dup2\n                /* \"contracts/Tenant.sol\":1031:1043  servicePrice */\n              dup6\n                /* \"contracts/Tenant.sol\":987:1003  consorcioAddress */\n              dup8\n                /* \"contracts/Tenant.sol\":987:1058  consorcioAddress.call {... */\n              gas\n              call\n              swap3\n              pop\n              pop\n              pop\n              returndatasize\n              dup1\n              0x00\n              dup2\n              eq\n              tag_36\n              jumpi\n              mload(0x40)\n              swap2\n              pop\n              and(add(returndatasize, 0x3f), not(0x1f))\n              dup3\n              add\n              0x40\n              mstore\n              returndatasize\n              dup3\n              mstore\n              returndatasize\n              0x00\n              0x20\n              dup5\n              add\n              returndatacopy\n              jump(tag_35)\n            tag_36:\n              0x60\n              swap2\n              pop\n            tag_35:\n              pop\n                /* \"contracts/Tenant.sol\":972:1058  (bool sent,) = consorcioAddress.call {... */\n              swap1\n              swap2\n              pop\n              pop\n                /* \"contracts/Tenant.sol\":1085:1089  true */\n              0x01\n                /* \"contracts/Tenant.sol\":1077:1089  sent == true */\n              dup2\n              iszero\n              iszero\n              eq\n                /* \"contracts/Tenant.sol\":1069:1116  require(sent == true, \"Fallo la transferencia\") */\n              tag_37\n              jumpi\n              mload(0x40)\n              0x08c379a000000000000000000000000000000000000000000000000000000000\n              dup2\n              mstore\n                /* \"#utility.yul\":1188:1190   */\n              0x20\n                /* \"contracts/Tenant.sol\":1069:1116  require(sent == true, \"Fallo la transferencia\") */\n              0x04\n              dup3\n              add\n                /* \"#utility.yul\":1170:1191   */\n              mstore\n                /* \"#utility.yul\":1227:1229   */\n              0x16\n                /* \"#utility.yul\":1207:1225   */\n              0x24\n              dup3\n              add\n                /* \"#utility.yul\":1200:1230   */\n              mstore\n                /* \"#utility.yul\":1266:1290   */\n              0x46616c6c6f206c61207472616e73666572656e63696100000000000000000000\n                /* \"#utility.yul\":1246:1264   */\n              0x44\n              dup3\n              add\n                /* \"#utility.yul\":1239:1291   */\n              mstore\n                /* \"#utility.yul\":1308:1326   */\n              0x64\n              add\n                /* \"contracts/Tenant.sol\":1069:1116  require(sent == true, \"Fallo la transferencia\") */\n              tag_30\n                /* \"#utility.yul\":986:1332   */\n              jump\n                /* \"contracts/Tenant.sol\":1069:1116  require(sent == true, \"Fallo la transferencia\") */\n            tag_37:\n                /* \"contracts/Tenant.sol\":1132:1158  ExpensesPaid(servicePrice) */\n              0x56e1cf8a52e84572ff49b950fa9a1a1867319bf8eba3bf8c77bc4354678a34c5\n                /* \"contracts/Tenant.sol\":1145:1157  servicePrice */\n              sload(0x02)\n                /* \"contracts/Tenant.sol\":1132:1158  ExpensesPaid(servicePrice) */\n              mload(0x40)\n              tag_40\n              swap2\n                /* \"#utility.yul\":391:416   */\n              dup2\n              mstore\n                /* \"#utility.yul\":379:381   */\n              0x20\n                /* \"#utility.yul\":364:382   */\n              add\n              swap1\n                /* \"#utility.yul\":245:422   */\n              jump\n                /* \"contracts/Tenant.sol\":1132:1158  ExpensesPaid(servicePrice) */\n            tag_40:\n              mload(0x40)\n              dup1\n              swap2\n              sub\n              swap1\n              log1\n                /* \"contracts/Tenant.sol\":880:1166  {... */\n              pop\n                /* \"contracts/Tenant.sol\":850:1166  function payExpenses() public {... */\n              jump\t// out\n\n            auxdata: 0xa2646970667358221220e25ddc26ba7928058349eed3aa390545adc794c87743581e7d2764cbff49820a64736f6c63430008110033\n        }\n    }\n\n    auxdata: 0xa26469706673582212203226c36eb99b471f506860e7726f4a09870550b3135a6c9243bff1596fbdb67864736f6c63430008110033\n}\n",
				"bytecode": {
					"linkReferences": {},
					"object": "608060405234801561001057600080fd5b50610033610025640100000000610038810204565b64010000000061003c810204565b61008c565b3390565b60008054600160a060020a03838116600160a060020a0319831681178455604051919092169283917f8be0079c531659141344cd1fd0a4f28419497f9722a3daafe3b4186f6b6457e09190a35050565b61167d8061009b6000396000f3fe608060405260043610620000c4576000357c0100000000000000000000000000000000000000000000000000000000900480637ca2e65611620000865780637ca2e656146200015c5780638da5cb5b1462000185578063cc0395bf14620001a5578063cd7d77c514620001ca578063ec3ab27414620001ef578063f2fde38b146200020757005b80632237300f14620000ce57806342e36b3b14620000f35780636f9fb98a14620000fd578063715018a6146200011f57806372673e31146200013757005b36620000cc57005b005b348015620000db57600080fd5b50620000cc620000ed36600462000787565b6200022c565b620000cc620002bc565b3480156200010a57600080fd5b50604051303181526020015b60405180910390f35b3480156200012c57600080fd5b50620000cc62000455565b3480156200014457600080fd5b50620000cc6200015636600462000810565b6200046d565b3480156200016957600080fd5b50305b604051600160a060020a03909116815260200162000116565b3480156200019257600080fd5b50600054600160a060020a03166200016c565b348015620001b257600080fd5b50620000cc620001c436600462000859565b620004e4565b348015620001d757600080fd5b50620000cc620001e9366004620008e4565b62000513565b348015620001fc57600080fd5b50620000cc6200051d565b3480156200021457600080fd5b50620000cc62000226366004620008fe565b62000527565b62000236620005d4565b6001848484846040516200024a90620006a7565b6200025994939291906200096d565b604051809103906000f08015801562000276573d6000803e3d6000fd5b50815460018101835560009283526020909220909101805473ffffffffffffffffffffffffffffffffffffffff1916600160a060020a0390921691909117905550505050565b620002c6620005d4565b60005b6001548110156200045257600060018281548110620002ec57620002ec620009b7565b60009182526020918290200154604080517f1581b6000000000000000000000000000000000000000000000000000000000081529051600160a060020a0390921692631581b600926004808401938290030181865afa15801562000354573d6000803e3d6000fd5b505050506040513d601f19601f820116820180604052508101906200037a9190620009d0565b600160a060020a03163460405160006040518083038185875af1925050503d8060008114620003c6576040519150601f19603f3d011682016040523d82523d6000602084013e620003cb565b606091505b50509050806200043c576040517f08c379a000000000000000000000000000000000000000000000000000000000815260206004820152601060248201527f5472616e73666572206661696c65642e0000000000000000000000000000000060448201526064015b60405180910390fd5b50806200044981620009f0565b915050620002c9565b50565b6200045f620005d4565b6200046b60006200064a565b565b62000477620005d4565b604080518082019091528281526020810182905260038054600181018255600091909152815160029091027fc2575a0e9e593c00f959f8c92f12db2869c3395a3b0502d05e2516446f71f85b01908190620004d3908262000aad565b506020820151816001015550505050565b620004ee620005d4565b600284848484306040516200050390620006b5565b6200025995949392919062000b80565b62000452620005d4565b6200046b620005d4565b62000531620005d4565b600160a060020a038116620005c9576040517f08c379a000000000000000000000000000000000000000000000000000000000815260206004820152602660248201527f4f776e61626c653a206e6577206f776e657220697320746865207a65726f206160448201527f6464726573730000000000000000000000000000000000000000000000000000606482015260840162000433565b62000452816200064a565b600054600160a060020a031633146200046b576040517f08c379a000000000000000000000000000000000000000000000000000000000815260206004820181905260248201527f4f776e61626c653a2063616c6c6572206973206e6f7420746865206f776e6572604482015260640162000433565b60008054600160a060020a0383811673ffffffffffffffffffffffffffffffffffffffff19831681178455604051919092169283917f8be0079c531659141344cd1fd0a4f28419497f9722a3daafe3b4186f6b6457e09190a35050565b61041f8062000bd683390190565b6106538062000ff583390190565b60e060020a634e487b7102600052604160045260246000fd5b600082601f830112620006ee57600080fd5b813567ffffffffffffffff808211156200070c576200070c620006c3565b604051601f8301601f19908116603f01168101908282118183101715620007375762000737620006c3565b816040528381528660208588010111156200075157600080fd5b836020870160208301376000602085830101528094505050505092915050565b600160a060020a03811681146200045257600080fd5b600080600080608085870312156200079e57600080fd5b843567ffffffffffffffff80821115620007b757600080fd5b620007c588838901620006dc565b955060208701359150620007d98262000771565b90935060408601359080821115620007f057600080fd5b50620007ff87828801620006dc565b949793965093946060013593505050565b600080604083850312156200082457600080fd5b823567ffffffffffffffff8111156200083c57600080fd5b6200084a85828601620006dc565b95602094909401359450505050565b600080600080608085870312156200087057600080fd5b843567ffffffffffffffff808211156200088957600080fd5b6200089788838901620006dc565b955060208701359150620008ab8262000771565b9093506040860135925060608601359080821115620008c957600080fd5b50620008d887828801620006dc565b91505092959194509250565b600060208284031215620008f757600080fd5b5035919050565b6000602082840312156200091157600080fd5b81356200091e8162000771565b9392505050565b6000815180845260005b818110156200094d576020818501810151868301820152016200092f565b506000602082860101526020601f19601f83011685010191505092915050565b60808152600062000982608083018762000925565b600160a060020a03861660208401528281036040840152620009a5818662000925565b91505082606083015295945050505050565b60e060020a634e487b7102600052603260045260246000fd5b600060208284031215620009e357600080fd5b81516200091e8162000771565b60006001820162000a145760e060020a634e487b7102600052601160045260246000fd5b5060010190565b60028104600182168062000a3057607f821691505b60208210810362000a545760e060020a634e487b7102600052602260045260246000fd5b50919050565b601f82111562000aa8576000818152602081206020601f8601048101602086101562000a835750805b6020601f860104820191505b8181101562000aa45782815560010162000a8f565b5050505b505050565b815167ffffffffffffffff81111562000aca5762000aca620006c3565b62000ae28162000adb845462000a1b565b8462000a5a565b602080601f83116001811462000b1e576000841562000b015750858301515b60028086026008870290910a600019041982161786555062000aa4565b600085815260208120601f198616915b8281101562000b4f5788860151825594840194600190910190840162000b2e565b508582101562000b7057878501516008601f88160260020a60001904191681555b5050505050600202600101905550565b60a08152600062000b9560a083018862000925565b600160a060020a038088166020850152866040850152838203606085015262000bbf828762000925565b925080851660808501525050969550505050505056fe608060405234801561001057600080fd5b5060405161041f38038061041f83398101604081905261002f9161014c565b8383600061003d8382610279565b5060018054600160a060020a031916600160a060020a039290921691909117905550600261006b8382610279565b506003555061033e915050565b7f4e487b7100000000000000000000000000000000000000000000000000000000600052604160045260246000fd5b600082601f8301126100b857600080fd5b81516001604060020a03808211156100d2576100d2610078565b604051601f8301601f19908116603f011681019082821181831017156100fa576100fa610078565b8160405283815260209250868385880101111561011657600080fd5b600091505b83821015610138578582018301518183018401529082019061011b565b600093810190920192909252949350505050565b6000806000806080858703121561016257600080fd5b84516001604060020a038082111561017957600080fd5b610185888389016100a7565b60208801519096509150600160a060020a03821682146101a457600080fd5b6040870151919450808211156101b957600080fd5b506101c6878288016100a7565b606096909601519497939650505050565b6002810460018216806101eb57607f821691505b602082108103610224577f4e487b7100000000000000000000000000000000000000000000000000000000600052602260045260246000fd5b50919050565b601f821115610274576000818152602081206020601f860104810160208610156102515750805b6020601f860104820191505b818110156102705782815560010161025d565b5050505b505050565b81516001604060020a0381111561029257610292610078565b6102a6816102a084546101d7565b8461022a565b602080601f8311600181146102df57600084156102c35750858301515b60028086026008870290910a6000190419821617865550610270565b600085815260208120601f198616915b8281101561030e578886015182559484019460019091019084016102ef565b508582101561032e57878501516008601f88160260020a60001904191681555b5050505050600202600101905550565b60d38061034c6000396000f3fe6080604052348015600f57600080fd5b5060043610604e577c010000000000000000000000000000000000000000000000000000000060003504631581b60081146053578063d4e9329214609b575b600080fd5b60015460729073ffffffffffffffffffffffffffffffffffffffff1681565b60405173ffffffffffffffffffffffffffffffffffffffff909116815260200160405180910390f35b00fea26469706673582212203214d41be218dd95e3edb4ba9869bc554068f4ed101ac1998dd1571de9d0322564736f6c6343000811003360806040526040516106533803806106538339810160408190526100229161017e565b8484600061003083826102ae565b5060018054600160a060020a031916600160a060020a0392909216919091179055506002839055600361006383826102ae565b5060048054600160a060020a031916600160a060020a03929092169190911790555061037392505050565b7f4e487b7100000000000000000000000000000000000000000000000000000000600052604160045260246000fd5b600082601f8301126100ce57600080fd5b81516001604060020a03808211156100e8576100e861008e565b604051601f8301601f19908116603f011681019082821181831017156101105761011061008e565b8160405283815260209250868385880101111561012c57600080fd5b600091505b8382101561014e5785820183015181830184015290820190610131565b600093810190920192909252949350505050565b8051600160a060020a038116811461017957600080fd5b919050565b600080600080600060a0868803121561019657600080fd5b85516001604060020a03808211156101ad57600080fd5b6101b989838a016100bd565b96506101c760208901610162565b95506040880151945060608801519150808211156101e457600080fd5b506101f1888289016100bd565b92505061020060808701610162565b90509295509295909350565b60028104600182168061022057607f821691505b602082108103610259577f4e487b7100000000000000000000000000000000000000000000000000000000600052602260045260246000fd5b50919050565b601f8211156102a9576000818152602081206020601f860104810160208610156102865750805b6020601f860104820191505b818110156102a557828155600101610292565b5050505b505050565b81516001604060020a038111156102c7576102c761008e565b6102db816102d5845461020c565b8461025f565b602080601f83116001811461031457600084156102f85750858301515b60028086026008870290910a60001904198216178655506102a5565b600085815260208120601f198616915b8281101561034357888601518255948401946001909101908401610324565b508582101561036357878501516008601f88160260020a60001904191681555b5050505050600202600101905550565b6102d1806103826000396000f3fe60806040526004361061005c577c010000000000000000000000000000000000000000000000000000000060003504631581b6008114610065578063d0e30db0146100bb578063d4e93292146100c3578063da6e75c2146100cf57005b3661006357005b005b34801561007157600080fd5b506001546100929073ffffffffffffffffffffffffffffffffffffffff1681565b60405173ffffffffffffffffffffffffffffffffffffffff909116815260200160405180910390f35b6100636100e4565b34801561006357600080fd5b3480156100db57600080fd5b50610063610119565b6040513481527f0a34e3d4f1e6b837dbce1011b61499fa1a483a0abee6a7a6697660b4b2d971329060200160405180910390a1565b6002543031101561018b576040517f08c379a000000000000000000000000000000000000000000000000000000000815260206004820152601460248201527f466f6e646f7320696e737566696369656e74657300000000000000000000000060448201526064015b60405180910390fd5b60045460025460405160009273ffffffffffffffffffffffffffffffffffffffff1691908381818185875af1925050503d80600081146101e7576040519150601f19603f3d011682016040523d82523d6000602084013e6101ec565b606091505b509091505060018115151461025d576040517f08c379a000000000000000000000000000000000000000000000000000000000815260206004820152601660248201527f46616c6c6f206c61207472616e73666572656e636961000000000000000000006044820152606401610182565b7f56e1cf8a52e84572ff49b950fa9a1a1867319bf8eba3bf8c77bc4354678a34c560025460405161029091815260200190565b60405180910390a15056fea2646970667358221220e25ddc26ba7928058349eed3aa390545adc794c87743581e7d2764cbff49820a64736f6c63430008110033a26469706673582212203226c36eb99b471f506860e7726f4a09870550b3135a6c9243bff1596fbdb67864736f6c63430008110033",
					"opcodes": "PUSH1 0x80 PUSH1 0x40 MSTORE CALLVALUE DUP1 ISZERO PUSH2 0x10 JUMPI PUSH1 0x0 DUP1 REVERT JUMPDEST POP PUSH2 0x33 PUSH2 0x25 PUSH5 0x100000000 PUSH2 0x38 DUP2 MUL DIV JUMP JUMPDEST PUSH5 0x100000000 PUSH2 0x3C DUP2 MUL DIV JUMP JUMPDEST PUSH2 0x8C JUMP JUMPDEST CALLER SWAP1 JUMP JUMPDEST PUSH1 0x0 DUP1 SLOAD PUSH1 0x1 PUSH1 0xA0 PUSH1 0x2 EXP SUB DUP4 DUP2 AND PUSH1 0x1 PUSH1 0xA0 PUSH1 0x2 EXP SUB NOT DUP4 AND DUP2 OR DUP5 SSTORE PUSH1 0x40 MLOAD SWAP2 SWAP1 SWAP3 AND SWAP3 DUP4 SWAP2 PUSH32 0x8BE0079C531659141344CD1FD0A4F28419497F9722A3DAAFE3B4186F6B6457E0 SWAP2 SWAP1 LOG3 POP POP JUMP JUMPDEST PUSH2 0x167D DUP1 PUSH2 0x9B PUSH1 0x0 CODECOPY PUSH1 0x0 RETURN INVALID PUSH1 0x80 PUSH1 0x40 MSTORE PUSH1 0x4 CALLDATASIZE LT PUSH3 0xC4 JUMPI PUSH1 0x0 CALLDATALOAD PUSH29 0x100000000000000000000000000000000000000000000000000000000 SWAP1 DIV DUP1 PUSH4 0x7CA2E656 GT PUSH3 0x86 JUMPI DUP1 PUSH4 0x7CA2E656 EQ PUSH3 0x15C JUMPI DUP1 PUSH4 0x8DA5CB5B EQ PUSH3 0x185 JUMPI DUP1 PUSH4 0xCC0395BF EQ PUSH3 0x1A5 JUMPI DUP1 PUSH4 0xCD7D77C5 EQ PUSH3 0x1CA JUMPI DUP1 PUSH4 0xEC3AB274 EQ PUSH3 0x1EF JUMPI DUP1 PUSH4 0xF2FDE38B EQ PUSH3 0x207 JUMPI STOP JUMPDEST DUP1 PUSH4 0x2237300F EQ PUSH3 0xCE JUMPI DUP1 PUSH4 0x42E36B3B EQ PUSH3 0xF3 JUMPI DUP1 PUSH4 0x6F9FB98A EQ PUSH3 0xFD JUMPI DUP1 PUSH4 0x715018A6 EQ PUSH3 0x11F JUMPI DUP1 PUSH4 0x72673E31 EQ PUSH3 0x137 JUMPI STOP JUMPDEST CALLDATASIZE PUSH3 0xCC JUMPI STOP JUMPDEST STOP JUMPDEST CALLVALUE DUP1 ISZERO PUSH3 0xDB JUMPI PUSH1 0x0 DUP1 REVERT JUMPDEST POP PUSH3 0xCC PUSH3 0xED CALLDATASIZE PUSH1 0x4 PUSH3 0x787 JUMP JUMPDEST PUSH3 0x22C JUMP JUMPDEST PUSH3 0xCC PUSH3 0x2BC JUMP JUMPDEST CALLVALUE DUP1 ISZERO PUSH3 0x10A JUMPI PUSH1 0x0 DUP1 REVERT JUMPDEST POP PUSH1 0x40 MLOAD ADDRESS BALANCE DUP2 MSTORE PUSH1 0x20 ADD JUMPDEST PUSH1 0x40 MLOAD DUP1 SWAP2 SUB SWAP1 RETURN JUMPDEST CALLVALUE DUP1 ISZERO PUSH3 0x12C JUMPI PUSH1 0x0 DUP1 REVERT JUMPDEST POP PUSH3 0xCC PUSH3 0x455 JUMP JUMPDEST CALLVALUE DUP1 ISZERO PUSH3 0x144 JUMPI PUSH1 0x0 DUP1 REVERT JUMPDEST POP PUSH3 0xCC PUSH3 0x156 CALLDATASIZE PUSH1 0x4 PUSH3 0x810 JUMP JUMPDEST PUSH3 0x46D JUMP JUMPDEST CALLVALUE DUP1 ISZERO PUSH3 0x169 JUMPI PUSH1 0x0 DUP1 REVERT JUMPDEST POP ADDRESS JUMPDEST PUSH1 0x40 MLOAD PUSH1 0x1 PUSH1 0xA0 PUSH1 0x2 EXP SUB SWAP1 SWAP2 AND DUP2 MSTORE PUSH1 0x20 ADD PUSH3 0x116 JUMP JUMPDEST CALLVALUE DUP1 ISZERO PUSH3 0x192 JUMPI PUSH1 0x0 DUP1 REVERT JUMPDEST POP PUSH1 0x0 SLOAD PUSH1 0x1 PUSH1 0xA0 PUSH1 0x2 EXP SUB AND PUSH3 0x16C JUMP JUMPDEST CALLVALUE DUP1 ISZERO PUSH3 0x1B2 JUMPI PUSH1 0x0 DUP1 REVERT JUMPDEST POP PUSH3 0xCC PUSH3 0x1C4 CALLDATASIZE PUSH1 0x4 PUSH3 0x859 JUMP JUMPDEST PUSH3 0x4E4 JUMP JUMPDEST CALLVALUE DUP1 ISZERO PUSH3 0x1D7 JUMPI PUSH1 0x0 DUP1 REVERT JUMPDEST POP PUSH3 0xCC PUSH3 0x1E9 CALLDATASIZE PUSH1 0x4 PUSH3 0x8E4 JUMP JUMPDEST PUSH3 0x513 JUMP JUMPDEST CALLVALUE DUP1 ISZERO PUSH3 0x1FC JUMPI PUSH1 0x0 DUP1 REVERT JUMPDEST POP PUSH3 0xCC PUSH3 0x51D JUMP JUMPDEST CALLVALUE DUP1 ISZERO PUSH3 0x214 JUMPI PUSH1 0x0 DUP1 REVERT JUMPDEST POP PUSH3 0xCC PUSH3 0x226 CALLDATASIZE PUSH1 0x4 PUSH3 0x8FE JUMP JUMPDEST PUSH3 0x527 JUMP JUMPDEST PUSH3 0x236 PUSH3 0x5D4 JUMP JUMPDEST PUSH1 0x1 DUP5 DUP5 DUP5 DUP5 PUSH1 0x40 MLOAD PUSH3 0x24A SWAP1 PUSH3 0x6A7 JUMP JUMPDEST PUSH3 0x259 SWAP5 SWAP4 SWAP3 SWAP2 SWAP1 PUSH3 0x96D JUMP JUMPDEST PUSH1 0x40 MLOAD DUP1 SWAP2 SUB SWAP1 PUSH1 0x0 CREATE DUP1 ISZERO DUP1 ISZERO PUSH3 0x276 JUMPI RETURNDATASIZE PUSH1 0x0 DUP1 RETURNDATACOPY RETURNDATASIZE PUSH1 0x0 REVERT JUMPDEST POP DUP2 SLOAD PUSH1 0x1 DUP2 ADD DUP4 SSTORE PUSH1 0x0 SWAP3 DUP4 MSTORE PUSH1 0x20 SWAP1 SWAP3 KECCAK256 SWAP1 SWAP2 ADD DUP1 SLOAD PUSH20 0xFFFFFFFFFFFFFFFFFFFFFFFFFFFFFFFFFFFFFFFF NOT AND PUSH1 0x1 PUSH1 0xA0 PUSH1 0x2 EXP SUB SWAP1 SWAP3 AND SWAP2 SWAP1 SWAP2 OR SWAP1 SSTORE POP POP POP POP JUMP JUMPDEST PUSH3 0x2C6 PUSH3 0x5D4 JUMP JUMPDEST PUSH1 0x0 JUMPDEST PUSH1 0x1 SLOAD DUP2 LT ISZERO PUSH3 0x452 JUMPI PUSH1 0x0 PUSH1 0x1 DUP3 DUP2 SLOAD DUP2 LT PUSH3 0x2EC JUMPI PUSH3 0x2EC PUSH3 0x9B7 JUMP JUMPDEST PUSH1 0x0 SWAP2 DUP3 MSTORE PUSH1 0x20 SWAP2 DUP3 SWAP1 KECCAK256 ADD SLOAD PUSH1 0x40 DUP1 MLOAD PUSH32 0x1581B60000000000000000000000000000000000000000000000000000000000 DUP2 MSTORE SWAP1 MLOAD PUSH1 0x1 PUSH1 0xA0 PUSH1 0x2 EXP SUB SWAP1 SWAP3 AND SWAP3 PUSH4 0x1581B600 SWAP3 PUSH1 0x4 DUP1 DUP5 ADD SWAP4 DUP3 SWAP1 SUB ADD DUP2 DUP7 GAS STATICCALL ISZERO DUP1 ISZERO PUSH3 0x354 JUMPI RETURNDATASIZE PUSH1 0x0 DUP1 RETURNDATACOPY RETURNDATASIZE PUSH1 0x0 REVERT JUMPDEST POP POP POP POP PUSH1 0x40 MLOAD RETURNDATASIZE PUSH1 0x1F NOT PUSH1 0x1F DUP3 ADD AND DUP3 ADD DUP1 PUSH1 0x40 MSTORE POP DUP2 ADD SWAP1 PUSH3 0x37A SWAP2 SWAP1 PUSH3 0x9D0 JUMP JUMPDEST PUSH1 0x1 PUSH1 0xA0 PUSH1 0x2 EXP SUB AND CALLVALUE PUSH1 0x40 MLOAD PUSH1 0x0 PUSH1 0x40 MLOAD DUP1 DUP4 SUB DUP2 DUP6 DUP8 GAS CALL SWAP3 POP POP POP RETURNDATASIZE DUP1 PUSH1 0x0 DUP2 EQ PUSH3 0x3C6 JUMPI PUSH1 0x40 MLOAD SWAP2 POP PUSH1 0x1F NOT PUSH1 0x3F RETURNDATASIZE ADD AND DUP3 ADD PUSH1 0x40 MSTORE RETURNDATASIZE DUP3 MSTORE RETURNDATASIZE PUSH1 0x0 PUSH1 0x20 DUP5 ADD RETURNDATACOPY PUSH3 0x3CB JUMP JUMPDEST PUSH1 0x60 SWAP2 POP JUMPDEST POP POP SWAP1 POP DUP1 PUSH3 0x43C JUMPI PUSH1 0x40 MLOAD PUSH32 0x8C379A000000000000000000000000000000000000000000000000000000000 DUP2 MSTORE PUSH1 0x20 PUSH1 0x4 DUP3 ADD MSTORE PUSH1 0x10 PUSH1 0x24 DUP3 ADD MSTORE PUSH32 0x5472616E73666572206661696C65642E00000000000000000000000000000000 PUSH1 0x44 DUP3 ADD MSTORE PUSH1 0x64 ADD JUMPDEST PUSH1 0x40 MLOAD DUP1 SWAP2 SUB SWAP1 REVERT JUMPDEST POP DUP1 PUSH3 0x449 DUP2 PUSH3 0x9F0 JUMP JUMPDEST SWAP2 POP POP PUSH3 0x2C9 JUMP JUMPDEST POP JUMP JUMPDEST PUSH3 0x45F PUSH3 0x5D4 JUMP JUMPDEST PUSH3 0x46B PUSH1 0x0 PUSH3 0x64A JUMP JUMPDEST JUMP JUMPDEST PUSH3 0x477 PUSH3 0x5D4 JUMP JUMPDEST PUSH1 0x40 DUP1 MLOAD DUP1 DUP3 ADD SWAP1 SWAP2 MSTORE DUP3 DUP2 MSTORE PUSH1 0x20 DUP2 ADD DUP3 SWAP1 MSTORE PUSH1 0x3 DUP1 SLOAD PUSH1 0x1 DUP2 ADD DUP3 SSTORE PUSH1 0x0 SWAP2 SWAP1 SWAP2 MSTORE DUP2 MLOAD PUSH1 0x2 SWAP1 SWAP2 MUL PUSH32 0xC2575A0E9E593C00F959F8C92F12DB2869C3395A3B0502D05E2516446F71F85B ADD SWAP1 DUP2 SWAP1 PUSH3 0x4D3 SWAP1 DUP3 PUSH3 0xAAD JUMP JUMPDEST POP PUSH1 0x20 DUP3 ADD MLOAD DUP2 PUSH1 0x1 ADD SSTORE POP POP POP POP JUMP JUMPDEST PUSH3 0x4EE PUSH3 0x5D4 JUMP JUMPDEST PUSH1 0x2 DUP5 DUP5 DUP5 DUP5 ADDRESS PUSH1 0x40 MLOAD PUSH3 0x503 SWAP1 PUSH3 0x6B5 JUMP JUMPDEST PUSH3 0x259 SWAP6 SWAP5 SWAP4 SWAP3 SWAP2 SWAP1 PUSH3 0xB80 JUMP JUMPDEST PUSH3 0x452 PUSH3 0x5D4 JUMP JUMPDEST PUSH3 0x46B PUSH3 0x5D4 JUMP JUMPDEST PUSH3 0x531 PUSH3 0x5D4 JUMP JUMPDEST PUSH1 0x1 PUSH1 0xA0 PUSH1 0x2 EXP SUB DUP2 AND PUSH3 0x5C9 JUMPI PUSH1 0x40 MLOAD PUSH32 0x8C379A000000000000000000000000000000000000000000000000000000000 DUP2 MSTORE PUSH1 0x20 PUSH1 0x4 DUP3 ADD MSTORE PUSH1 0x26 PUSH1 0x24 DUP3 ADD MSTORE PUSH32 0x4F776E61626C653A206E6577206F776E657220697320746865207A65726F2061 PUSH1 0x44 DUP3 ADD MSTORE PUSH32 0x6464726573730000000000000000000000000000000000000000000000000000 PUSH1 0x64 DUP3 ADD MSTORE PUSH1 0x84 ADD PUSH3 0x433 JUMP JUMPDEST PUSH3 0x452 DUP2 PUSH3 0x64A JUMP JUMPDEST PUSH1 0x0 SLOAD PUSH1 0x1 PUSH1 0xA0 PUSH1 0x2 EXP SUB AND CALLER EQ PUSH3 0x46B JUMPI PUSH1 0x40 MLOAD PUSH32 0x8C379A000000000000000000000000000000000000000000000000000000000 DUP2 MSTORE PUSH1 0x20 PUSH1 0x4 DUP3 ADD DUP2 SWAP1 MSTORE PUSH1 0x24 DUP3 ADD MSTORE PUSH32 0x4F776E61626C653A2063616C6C6572206973206E6F7420746865206F776E6572 PUSH1 0x44 DUP3 ADD MSTORE PUSH1 0x64 ADD PUSH3 0x433 JUMP JUMPDEST PUSH1 0x0 DUP1 SLOAD PUSH1 0x1 PUSH1 0xA0 PUSH1 0x2 EXP SUB DUP4 DUP2 AND PUSH20 0xFFFFFFFFFFFFFFFFFFFFFFFFFFFFFFFFFFFFFFFF NOT DUP4 AND DUP2 OR DUP5 SSTORE PUSH1 0x40 MLOAD SWAP2 SWAP1 SWAP3 AND SWAP3 DUP4 SWAP2 PUSH32 0x8BE0079C531659141344CD1FD0A4F28419497F9722A3DAAFE3B4186F6B6457E0 SWAP2 SWAP1 LOG3 POP POP JUMP JUMPDEST PUSH2 0x41F DUP1 PUSH3 0xBD6 DUP4 CODECOPY ADD SWAP1 JUMP JUMPDEST PUSH2 0x653 DUP1 PUSH3 0xFF5 DUP4 CODECOPY ADD SWAP1 JUMP JUMPDEST PUSH1 0xE0 PUSH1 0x2 EXP PUSH4 0x4E487B71 MUL PUSH1 0x0 MSTORE PUSH1 0x41 PUSH1 0x4 MSTORE PUSH1 0x24 PUSH1 0x0 REVERT JUMPDEST PUSH1 0x0 DUP3 PUSH1 0x1F DUP4 ADD SLT PUSH3 0x6EE JUMPI PUSH1 0x0 DUP1 REVERT JUMPDEST DUP2 CALLDATALOAD PUSH8 0xFFFFFFFFFFFFFFFF DUP1 DUP3 GT ISZERO PUSH3 0x70C JUMPI PUSH3 0x70C PUSH3 0x6C3 JUMP JUMPDEST PUSH1 0x40 MLOAD PUSH1 0x1F DUP4 ADD PUSH1 0x1F NOT SWAP1 DUP2 AND PUSH1 0x3F ADD AND DUP2 ADD SWAP1 DUP3 DUP3 GT DUP2 DUP4 LT OR ISZERO PUSH3 0x737 JUMPI PUSH3 0x737 PUSH3 0x6C3 JUMP JUMPDEST DUP2 PUSH1 0x40 MSTORE DUP4 DUP2 MSTORE DUP7 PUSH1 0x20 DUP6 DUP9 ADD ADD GT ISZERO PUSH3 0x751 JUMPI PUSH1 0x0 DUP1 REVERT JUMPDEST DUP4 PUSH1 0x20 DUP8 ADD PUSH1 0x20 DUP4 ADD CALLDATACOPY PUSH1 0x0 PUSH1 0x20 DUP6 DUP4 ADD ADD MSTORE DUP1 SWAP5 POP POP POP POP POP SWAP3 SWAP2 POP POP JUMP JUMPDEST PUSH1 0x1 PUSH1 0xA0 PUSH1 0x2 EXP SUB DUP2 AND DUP2 EQ PUSH3 0x452 JUMPI PUSH1 0x0 DUP1 REVERT JUMPDEST PUSH1 0x0 DUP1 PUSH1 0x0 DUP1 PUSH1 0x80 DUP6 DUP8 SUB SLT ISZERO PUSH3 0x79E JUMPI PUSH1 0x0 DUP1 REVERT JUMPDEST DUP5 CALLDATALOAD PUSH8 0xFFFFFFFFFFFFFFFF DUP1 DUP3 GT ISZERO PUSH3 0x7B7 JUMPI PUSH1 0x0 DUP1 REVERT JUMPDEST PUSH3 0x7C5 DUP9 DUP4 DUP10 ADD PUSH3 0x6DC JUMP JUMPDEST SWAP6 POP PUSH1 0x20 DUP8 ADD CALLDATALOAD SWAP2 POP PUSH3 0x7D9 DUP3 PUSH3 0x771 JUMP JUMPDEST SWAP1 SWAP4 POP PUSH1 0x40 DUP7 ADD CALLDATALOAD SWAP1 DUP1 DUP3 GT ISZERO PUSH3 0x7F0 JUMPI PUSH1 0x0 DUP1 REVERT JUMPDEST POP PUSH3 0x7FF DUP8 DUP3 DUP9 ADD PUSH3 0x6DC JUMP JUMPDEST SWAP5 SWAP8 SWAP4 SWAP7 POP SWAP4 SWAP5 PUSH1 0x60 ADD CALLDATALOAD SWAP4 POP POP POP JUMP JUMPDEST PUSH1 0x0 DUP1 PUSH1 0x40 DUP4 DUP6 SUB SLT ISZERO PUSH3 0x824 JUMPI PUSH1 0x0 DUP1 REVERT JUMPDEST DUP3 CALLDATALOAD PUSH8 0xFFFFFFFFFFFFFFFF DUP2 GT ISZERO PUSH3 0x83C JUMPI PUSH1 0x0 DUP1 REVERT JUMPDEST PUSH3 0x84A DUP6 DUP3 DUP7 ADD PUSH3 0x6DC JUMP JUMPDEST SWAP6 PUSH1 0x20 SWAP5 SWAP1 SWAP5 ADD CALLDATALOAD SWAP5 POP POP POP POP JUMP JUMPDEST PUSH1 0x0 DUP1 PUSH1 0x0 DUP1 PUSH1 0x80 DUP6 DUP8 SUB SLT ISZERO PUSH3 0x870 JUMPI PUSH1 0x0 DUP1 REVERT JUMPDEST DUP5 CALLDATALOAD PUSH8 0xFFFFFFFFFFFFFFFF DUP1 DUP3 GT ISZERO PUSH3 0x889 JUMPI PUSH1 0x0 DUP1 REVERT JUMPDEST PUSH3 0x897 DUP9 DUP4 DUP10 ADD PUSH3 0x6DC JUMP JUMPDEST SWAP6 POP PUSH1 0x20 DUP8 ADD CALLDATALOAD SWAP2 POP PUSH3 0x8AB DUP3 PUSH3 0x771 JUMP JUMPDEST SWAP1 SWAP4 POP PUSH1 0x40 DUP7 ADD CALLDATALOAD SWAP3 POP PUSH1 0x60 DUP7 ADD CALLDATALOAD SWAP1 DUP1 DUP3 GT ISZERO PUSH3 0x8C9 JUMPI PUSH1 0x0 DUP1 REVERT JUMPDEST POP PUSH3 0x8D8 DUP8 DUP3 DUP9 ADD PUSH3 0x6DC JUMP JUMPDEST SWAP2 POP POP SWAP3 SWAP6 SWAP2 SWAP5 POP SWAP3 POP JUMP JUMPDEST PUSH1 0x0 PUSH1 0x20 DUP3 DUP5 SUB SLT ISZERO PUSH3 0x8F7 JUMPI PUSH1 0x0 DUP1 REVERT JUMPDEST POP CALLDATALOAD SWAP2 SWAP1 POP JUMP JUMPDEST PUSH1 0x0 PUSH1 0x20 DUP3 DUP5 SUB SLT ISZERO PUSH3 0x911 JUMPI PUSH1 0x0 DUP1 REVERT JUMPDEST DUP2 CALLDATALOAD PUSH3 0x91E DUP2 PUSH3 0x771 JUMP JUMPDEST SWAP4 SWAP3 POP POP POP JUMP JUMPDEST PUSH1 0x0 DUP2 MLOAD DUP1 DUP5 MSTORE PUSH1 0x0 JUMPDEST DUP2 DUP2 LT ISZERO PUSH3 0x94D JUMPI PUSH1 0x20 DUP2 DUP6 ADD DUP2 ADD MLOAD DUP7 DUP4 ADD DUP3 ADD MSTORE ADD PUSH3 0x92F JUMP JUMPDEST POP PUSH1 0x0 PUSH1 0x20 DUP3 DUP7 ADD ADD MSTORE PUSH1 0x20 PUSH1 0x1F NOT PUSH1 0x1F DUP4 ADD AND DUP6 ADD ADD SWAP2 POP POP SWAP3 SWAP2 POP POP JUMP JUMPDEST PUSH1 0x80 DUP2 MSTORE PUSH1 0x0 PUSH3 0x982 PUSH1 0x80 DUP4 ADD DUP8 PUSH3 0x925 JUMP JUMPDEST PUSH1 0x1 PUSH1 0xA0 PUSH1 0x2 EXP SUB DUP7 AND PUSH1 0x20 DUP5 ADD MSTORE DUP3 DUP2 SUB PUSH1 0x40 DUP5 ADD MSTORE PUSH3 0x9A5 DUP2 DUP7 PUSH3 0x925 JUMP JUMPDEST SWAP2 POP POP DUP3 PUSH1 0x60 DUP4 ADD MSTORE SWAP6 SWAP5 POP POP POP POP POP JUMP JUMPDEST PUSH1 0xE0 PUSH1 0x2 EXP PUSH4 0x4E487B71 MUL PUSH1 0x0 MSTORE PUSH1 0x32 PUSH1 0x4 MSTORE PUSH1 0x24 PUSH1 0x0 REVERT JUMPDEST PUSH1 0x0 PUSH1 0x20 DUP3 DUP5 SUB SLT ISZERO PUSH3 0x9E3 JUMPI PUSH1 0x0 DUP1 REVERT JUMPDEST DUP2 MLOAD PUSH3 0x91E DUP2 PUSH3 0x771 JUMP JUMPDEST PUSH1 0x0 PUSH1 0x1 DUP3 ADD PUSH3 0xA14 JUMPI PUSH1 0xE0 PUSH1 0x2 EXP PUSH4 0x4E487B71 MUL PUSH1 0x0 MSTORE PUSH1 0x11 PUSH1 0x4 MSTORE PUSH1 0x24 PUSH1 0x0 REVERT JUMPDEST POP PUSH1 0x1 ADD SWAP1 JUMP JUMPDEST PUSH1 0x2 DUP2 DIV PUSH1 0x1 DUP3 AND DUP1 PUSH3 0xA30 JUMPI PUSH1 0x7F DUP3 AND SWAP2 POP JUMPDEST PUSH1 0x20 DUP3 LT DUP2 SUB PUSH3 0xA54 JUMPI PUSH1 0xE0 PUSH1 0x2 EXP PUSH4 0x4E487B71 MUL PUSH1 0x0 MSTORE PUSH1 0x22 PUSH1 0x4 MSTORE PUSH1 0x24 PUSH1 0x0 REVERT JUMPDEST POP SWAP2 SWAP1 POP JUMP JUMPDEST PUSH1 0x1F DUP3 GT ISZERO PUSH3 0xAA8 JUMPI PUSH1 0x0 DUP2 DUP2 MSTORE PUSH1 0x20 DUP2 KECCAK256 PUSH1 0x20 PUSH1 0x1F DUP7 ADD DIV DUP2 ADD PUSH1 0x20 DUP7 LT ISZERO PUSH3 0xA83 JUMPI POP DUP1 JUMPDEST PUSH1 0x20 PUSH1 0x1F DUP7 ADD DIV DUP3 ADD SWAP2 POP JUMPDEST DUP2 DUP2 LT ISZERO PUSH3 0xAA4 JUMPI DUP3 DUP2 SSTORE PUSH1 0x1 ADD PUSH3 0xA8F JUMP JUMPDEST POP POP POP JUMPDEST POP POP POP JUMP JUMPDEST DUP2 MLOAD PUSH8 0xFFFFFFFFFFFFFFFF DUP2 GT ISZERO PUSH3 0xACA JUMPI PUSH3 0xACA PUSH3 0x6C3 JUMP JUMPDEST PUSH3 0xAE2 DUP2 PUSH3 0xADB DUP5 SLOAD PUSH3 0xA1B JUMP JUMPDEST DUP5 PUSH3 0xA5A JUMP JUMPDEST PUSH1 0x20 DUP1 PUSH1 0x1F DUP4 GT PUSH1 0x1 DUP2 EQ PUSH3 0xB1E JUMPI PUSH1 0x0 DUP5 ISZERO PUSH3 0xB01 JUMPI POP DUP6 DUP4 ADD MLOAD JUMPDEST PUSH1 0x2 DUP1 DUP7 MUL PUSH1 0x8 DUP8 MUL SWAP1 SWAP2 EXP PUSH1 0x0 NOT DIV NOT DUP3 AND OR DUP7 SSTORE POP PUSH3 0xAA4 JUMP JUMPDEST PUSH1 0x0 DUP6 DUP2 MSTORE PUSH1 0x20 DUP2 KECCAK256 PUSH1 0x1F NOT DUP7 AND SWAP2 JUMPDEST DUP3 DUP2 LT ISZERO PUSH3 0xB4F JUMPI DUP9 DUP7 ADD MLOAD DUP3 SSTORE SWAP5 DUP5 ADD SWAP5 PUSH1 0x1 SWAP1 SWAP2 ADD SWAP1 DUP5 ADD PUSH3 0xB2E JUMP JUMPDEST POP DUP6 DUP3 LT ISZERO PUSH3 0xB70 JUMPI DUP8 DUP6 ADD MLOAD PUSH1 0x8 PUSH1 0x1F DUP9 AND MUL PUSH1 0x2 EXP PUSH1 0x0 NOT DIV NOT AND DUP2 SSTORE JUMPDEST POP POP POP POP POP PUSH1 0x2 MUL PUSH1 0x1 ADD SWAP1 SSTORE POP JUMP JUMPDEST PUSH1 0xA0 DUP2 MSTORE PUSH1 0x0 PUSH3 0xB95 PUSH1 0xA0 DUP4 ADD DUP9 PUSH3 0x925 JUMP JUMPDEST PUSH1 0x1 PUSH1 0xA0 PUSH1 0x2 EXP SUB DUP1 DUP9 AND PUSH1 0x20 DUP6 ADD MSTORE DUP7 PUSH1 0x40 DUP6 ADD MSTORE DUP4 DUP3 SUB PUSH1 0x60 DUP6 ADD MSTORE PUSH3 0xBBF DUP3 DUP8 PUSH3 0x925 JUMP JUMPDEST SWAP3 POP DUP1 DUP6 AND PUSH1 0x80 DUP6 ADD MSTORE POP POP SWAP7 SWAP6 POP POP POP POP POP POP JUMP INVALID PUSH1 0x80 PUSH1 0x40 MSTORE CALLVALUE DUP1 ISZERO PUSH2 0x10 JUMPI PUSH1 0x0 DUP1 REVERT JUMPDEST POP PUSH1 0x40 MLOAD PUSH2 0x41F CODESIZE SUB DUP1 PUSH2 0x41F DUP4 CODECOPY DUP2 ADD PUSH1 0x40 DUP2 SWAP1 MSTORE PUSH2 0x2F SWAP2 PUSH2 0x14C JUMP JUMPDEST DUP4 DUP4 PUSH1 0x0 PUSH2 0x3D DUP4 DUP3 PUSH2 0x279 JUMP JUMPDEST POP PUSH1 0x1 DUP1 SLOAD PUSH1 0x1 PUSH1 0xA0 PUSH1 0x2 EXP SUB NOT AND PUSH1 0x1 PUSH1 0xA0 PUSH1 0x2 EXP SUB SWAP3 SWAP1 SWAP3 AND SWAP2 SWAP1 SWAP2 OR SWAP1 SSTORE POP PUSH1 0x2 PUSH2 0x6B DUP4 DUP3 PUSH2 0x279 JUMP JUMPDEST POP PUSH1 0x3 SSTORE POP PUSH2 0x33E SWAP2 POP POP JUMP JUMPDEST PUSH32 0x4E487B7100000000000000000000000000000000000000000000000000000000 PUSH1 0x0 MSTORE PUSH1 0x41 PUSH1 0x4 MSTORE PUSH1 0x24 PUSH1 0x0 REVERT JUMPDEST PUSH1 0x0 DUP3 PUSH1 0x1F DUP4 ADD SLT PUSH2 0xB8 JUMPI PUSH1 0x0 DUP1 REVERT JUMPDEST DUP2 MLOAD PUSH1 0x1 PUSH1 0x40 PUSH1 0x2 EXP SUB DUP1 DUP3 GT ISZERO PUSH2 0xD2 JUMPI PUSH2 0xD2 PUSH2 0x78 JUMP JUMPDEST PUSH1 0x40 MLOAD PUSH1 0x1F DUP4 ADD PUSH1 0x1F NOT SWAP1 DUP2 AND PUSH1 0x3F ADD AND DUP2 ADD SWAP1 DUP3 DUP3 GT DUP2 DUP4 LT OR ISZERO PUSH2 0xFA JUMPI PUSH2 0xFA PUSH2 0x78 JUMP JUMPDEST DUP2 PUSH1 0x40 MSTORE DUP4 DUP2 MSTORE PUSH1 0x20 SWAP3 POP DUP7 DUP4 DUP6 DUP9 ADD ADD GT ISZERO PUSH2 0x116 JUMPI PUSH1 0x0 DUP1 REVERT JUMPDEST PUSH1 0x0 SWAP2 POP JUMPDEST DUP4 DUP3 LT ISZERO PUSH2 0x138 JUMPI DUP6 DUP3 ADD DUP4 ADD MLOAD DUP2 DUP4 ADD DUP5 ADD MSTORE SWAP1 DUP3 ADD SWAP1 PUSH2 0x11B JUMP JUMPDEST PUSH1 0x0 SWAP4 DUP2 ADD SWAP1 SWAP3 ADD SWAP3 SWAP1 SWAP3 MSTORE SWAP5 SWAP4 POP POP POP POP JUMP JUMPDEST PUSH1 0x0 DUP1 PUSH1 0x0 DUP1 PUSH1 0x80 DUP6 DUP8 SUB SLT ISZERO PUSH2 0x162 JUMPI PUSH1 0x0 DUP1 REVERT JUMPDEST DUP5 MLOAD PUSH1 0x1 PUSH1 0x40 PUSH1 0x2 EXP SUB DUP1 DUP3 GT ISZERO PUSH2 0x179 JUMPI PUSH1 0x0 DUP1 REVERT JUMPDEST PUSH2 0x185 DUP9 DUP4 DUP10 ADD PUSH2 0xA7 JUMP JUMPDEST PUSH1 0x20 DUP9 ADD MLOAD SWAP1 SWAP7 POP SWAP2 POP PUSH1 0x1 PUSH1 0xA0 PUSH1 0x2 EXP SUB DUP3 AND DUP3 EQ PUSH2 0x1A4 JUMPI PUSH1 0x0 DUP1 REVERT JUMPDEST PUSH1 0x40 DUP8 ADD MLOAD SWAP2 SWAP5 POP DUP1 DUP3 GT ISZERO PUSH2 0x1B9 JUMPI PUSH1 0x0 DUP1 REVERT JUMPDEST POP PUSH2 0x1C6 DUP8 DUP3 DUP9 ADD PUSH2 0xA7 JUMP JUMPDEST PUSH1 0x60 SWAP7 SWAP1 SWAP7 ADD MLOAD SWAP5 SWAP8 SWAP4 SWAP7 POP POP POP POP JUMP JUMPDEST PUSH1 0x2 DUP2 DIV PUSH1 0x1 DUP3 AND DUP1 PUSH2 0x1EB JUMPI PUSH1 0x7F DUP3 AND SWAP2 POP JUMPDEST PUSH1 0x20 DUP3 LT DUP2 SUB PUSH2 0x224 JUMPI PUSH32 0x4E487B7100000000000000000000000000000000000000000000000000000000 PUSH1 0x0 MSTORE PUSH1 0x22 PUSH1 0x4 MSTORE PUSH1 0x24 PUSH1 0x0 REVERT JUMPDEST POP SWAP2 SWAP1 POP JUMP JUMPDEST PUSH1 0x1F DUP3 GT ISZERO PUSH2 0x274 JUMPI PUSH1 0x0 DUP2 DUP2 MSTORE PUSH1 0x20 DUP2 KECCAK256 PUSH1 0x20 PUSH1 0x1F DUP7 ADD DIV DUP2 ADD PUSH1 0x20 DUP7 LT ISZERO PUSH2 0x251 JUMPI POP DUP1 JUMPDEST PUSH1 0x20 PUSH1 0x1F DUP7 ADD DIV DUP3 ADD SWAP2 POP JUMPDEST DUP2 DUP2 LT ISZERO PUSH2 0x270 JUMPI DUP3 DUP2 SSTORE PUSH1 0x1 ADD PUSH2 0x25D JUMP JUMPDEST POP POP POP JUMPDEST POP POP POP JUMP JUMPDEST DUP2 MLOAD PUSH1 0x1 PUSH1 0x40 PUSH1 0x2 EXP SUB DUP2 GT ISZERO PUSH2 0x292 JUMPI PUSH2 0x292 PUSH2 0x78 JUMP JUMPDEST PUSH2 0x2A6 DUP2 PUSH2 0x2A0 DUP5 SLOAD PUSH2 0x1D7 JUMP JUMPDEST DUP5 PUSH2 0x22A JUMP JUMPDEST PUSH1 0x20 DUP1 PUSH1 0x1F DUP4 GT PUSH1 0x1 DUP2 EQ PUSH2 0x2DF JUMPI PUSH1 0x0 DUP5 ISZERO PUSH2 0x2C3 JUMPI POP DUP6 DUP4 ADD MLOAD JUMPDEST PUSH1 0x2 DUP1 DUP7 MUL PUSH1 0x8 DUP8 MUL SWAP1 SWAP2 EXP PUSH1 0x0 NOT DIV NOT DUP3 AND OR DUP7 SSTORE POP PUSH2 0x270 JUMP JUMPDEST PUSH1 0x0 DUP6 DUP2 MSTORE PUSH1 0x20 DUP2 KECCAK256 PUSH1 0x1F NOT DUP7 AND SWAP2 JUMPDEST DUP3 DUP2 LT ISZERO PUSH2 0x30E JUMPI DUP9 DUP7 ADD MLOAD DUP3 SSTORE SWAP5 DUP5 ADD SWAP5 PUSH1 0x1 SWAP1 SWAP2 ADD SWAP1 DUP5 ADD PUSH2 0x2EF JUMP JUMPDEST POP DUP6 DUP3 LT ISZERO PUSH2 0x32E JUMPI DUP8 DUP6 ADD MLOAD PUSH1 0x8 PUSH1 0x1F DUP9 AND MUL PUSH1 0x2 EXP PUSH1 0x0 NOT DIV NOT AND DUP2 SSTORE JUMPDEST POP POP POP POP POP PUSH1 0x2 MUL PUSH1 0x1 ADD SWAP1 SSTORE POP JUMP JUMPDEST PUSH1 0xD3 DUP1 PUSH2 0x34C PUSH1 0x0 CODECOPY PUSH1 0x0 RETURN INVALID PUSH1 0x80 PUSH1 0x40 MSTORE CALLVALUE DUP1 ISZERO PUSH1 0xF JUMPI PUSH1 0x0 DUP1 REVERT JUMPDEST POP PUSH1 0x4 CALLDATASIZE LT PUSH1 0x4E JUMPI PUSH29 0x100000000000000000000000000000000000000000000000000000000 PUSH1 0x0 CALLDATALOAD DIV PUSH4 0x1581B600 DUP2 EQ PUSH1 0x53 JUMPI DUP1 PUSH4 0xD4E93292 EQ PUSH1 0x9B JUMPI JUMPDEST PUSH1 0x0 DUP1 REVERT JUMPDEST PUSH1 0x1 SLOAD PUSH1 0x72 SWAP1 PUSH20 0xFFFFFFFFFFFFFFFFFFFFFFFFFFFFFFFFFFFFFFFF AND DUP2 JUMP JUMPDEST PUSH1 0x40 MLOAD PUSH20 0xFFFFFFFFFFFFFFFFFFFFFFFFFFFFFFFFFFFFFFFF SWAP1 SWAP2 AND DUP2 MSTORE PUSH1 0x20 ADD PUSH1 0x40 MLOAD DUP1 SWAP2 SUB SWAP1 RETURN JUMPDEST STOP INVALID LOG2 PUSH5 0x6970667358 0x22 SLT KECCAK256 ORIGIN EQ 0xD4 SHL 0xE2 XOR 0xDD SWAP6 0xE3 0xED 0xB4 0xBA SWAP9 PUSH10 0xBC554068F4ED101AC199 DUP14 0xD1 JUMPI SAR 0xE9 0xD0 ORIGIN 0x25 PUSH5 0x736F6C6343 STOP ADDMOD GT STOP CALLER PUSH1 0x80 PUSH1 0x40 MSTORE PUSH1 0x40 MLOAD PUSH2 0x653 CODESIZE SUB DUP1 PUSH2 0x653 DUP4 CODECOPY DUP2 ADD PUSH1 0x40 DUP2 SWAP1 MSTORE PUSH2 0x22 SWAP2 PUSH2 0x17E JUMP JUMPDEST DUP5 DUP5 PUSH1 0x0 PUSH2 0x30 DUP4 DUP3 PUSH2 0x2AE JUMP JUMPDEST POP PUSH1 0x1 DUP1 SLOAD PUSH1 0x1 PUSH1 0xA0 PUSH1 0x2 EXP SUB NOT AND PUSH1 0x1 PUSH1 0xA0 PUSH1 0x2 EXP SUB SWAP3 SWAP1 SWAP3 AND SWAP2 SWAP1 SWAP2 OR SWAP1 SSTORE POP PUSH1 0x2 DUP4 SWAP1 SSTORE PUSH1 0x3 PUSH2 0x63 DUP4 DUP3 PUSH2 0x2AE JUMP JUMPDEST POP PUSH1 0x4 DUP1 SLOAD PUSH1 0x1 PUSH1 0xA0 PUSH1 0x2 EXP SUB NOT AND PUSH1 0x1 PUSH1 0xA0 PUSH1 0x2 EXP SUB SWAP3 SWAP1 SWAP3 AND SWAP2 SWAP1 SWAP2 OR SWAP1 SSTORE POP PUSH2 0x373 SWAP3 POP POP POP JUMP JUMPDEST PUSH32 0x4E487B7100000000000000000000000000000000000000000000000000000000 PUSH1 0x0 MSTORE PUSH1 0x41 PUSH1 0x4 MSTORE PUSH1 0x24 PUSH1 0x0 REVERT JUMPDEST PUSH1 0x0 DUP3 PUSH1 0x1F DUP4 ADD SLT PUSH2 0xCE JUMPI PUSH1 0x0 DUP1 REVERT JUMPDEST DUP2 MLOAD PUSH1 0x1 PUSH1 0x40 PUSH1 0x2 EXP SUB DUP1 DUP3 GT ISZERO PUSH2 0xE8 JUMPI PUSH2 0xE8 PUSH2 0x8E JUMP JUMPDEST PUSH1 0x40 MLOAD PUSH1 0x1F DUP4 ADD PUSH1 0x1F NOT SWAP1 DUP2 AND PUSH1 0x3F ADD AND DUP2 ADD SWAP1 DUP3 DUP3 GT DUP2 DUP4 LT OR ISZERO PUSH2 0x110 JUMPI PUSH2 0x110 PUSH2 0x8E JUMP JUMPDEST DUP2 PUSH1 0x40 MSTORE DUP4 DUP2 MSTORE PUSH1 0x20 SWAP3 POP DUP7 DUP4 DUP6 DUP9 ADD ADD GT ISZERO PUSH2 0x12C JUMPI PUSH1 0x0 DUP1 REVERT JUMPDEST PUSH1 0x0 SWAP2 POP JUMPDEST DUP4 DUP3 LT ISZERO PUSH2 0x14E JUMPI DUP6 DUP3 ADD DUP4 ADD MLOAD DUP2 DUP4 ADD DUP5 ADD MSTORE SWAP1 DUP3 ADD SWAP1 PUSH2 0x131 JUMP JUMPDEST PUSH1 0x0 SWAP4 DUP2 ADD SWAP1 SWAP3 ADD SWAP3 SWAP1 SWAP3 MSTORE SWAP5 SWAP4 POP POP POP POP JUMP JUMPDEST DUP1 MLOAD PUSH1 0x1 PUSH1 0xA0 PUSH1 0x2 EXP SUB DUP2 AND DUP2 EQ PUSH2 0x179 JUMPI PUSH1 0x0 DUP1 REVERT JUMPDEST SWAP2 SWAP1 POP JUMP JUMPDEST PUSH1 0x0 DUP1 PUSH1 0x0 DUP1 PUSH1 0x0 PUSH1 0xA0 DUP7 DUP9 SUB SLT ISZERO PUSH2 0x196 JUMPI PUSH1 0x0 DUP1 REVERT JUMPDEST DUP6 MLOAD PUSH1 0x1 PUSH1 0x40 PUSH1 0x2 EXP SUB DUP1 DUP3 GT ISZERO PUSH2 0x1AD JUMPI PUSH1 0x0 DUP1 REVERT JUMPDEST PUSH2 0x1B9 DUP10 DUP4 DUP11 ADD PUSH2 0xBD JUMP JUMPDEST SWAP7 POP PUSH2 0x1C7 PUSH1 0x20 DUP10 ADD PUSH2 0x162 JUMP JUMPDEST SWAP6 POP PUSH1 0x40 DUP9 ADD MLOAD SWAP5 POP PUSH1 0x60 DUP9 ADD MLOAD SWAP2 POP DUP1 DUP3 GT ISZERO PUSH2 0x1E4 JUMPI PUSH1 0x0 DUP1 REVERT JUMPDEST POP PUSH2 0x1F1 DUP9 DUP3 DUP10 ADD PUSH2 0xBD JUMP JUMPDEST SWAP3 POP POP PUSH2 0x200 PUSH1 0x80 DUP8 ADD PUSH2 0x162 JUMP JUMPDEST SWAP1 POP SWAP3 SWAP6 POP SWAP3 SWAP6 SWAP1 SWAP4 POP JUMP JUMPDEST PUSH1 0x2 DUP2 DIV PUSH1 0x1 DUP3 AND DUP1 PUSH2 0x220 JUMPI PUSH1 0x7F DUP3 AND SWAP2 POP JUMPDEST PUSH1 0x20 DUP3 LT DUP2 SUB PUSH2 0x259 JUMPI PUSH32 0x4E487B7100000000000000000000000000000000000000000000000000000000 PUSH1 0x0 MSTORE PUSH1 0x22 PUSH1 0x4 MSTORE PUSH1 0x24 PUSH1 0x0 REVERT JUMPDEST POP SWAP2 SWAP1 POP JUMP JUMPDEST PUSH1 0x1F DUP3 GT ISZERO PUSH2 0x2A9 JUMPI PUSH1 0x0 DUP2 DUP2 MSTORE PUSH1 0x20 DUP2 KECCAK256 PUSH1 0x20 PUSH1 0x1F DUP7 ADD DIV DUP2 ADD PUSH1 0x20 DUP7 LT ISZERO PUSH2 0x286 JUMPI POP DUP1 JUMPDEST PUSH1 0x20 PUSH1 0x1F DUP7 ADD DIV DUP3 ADD SWAP2 POP JUMPDEST DUP2 DUP2 LT ISZERO PUSH2 0x2A5 JUMPI DUP3 DUP2 SSTORE PUSH1 0x1 ADD PUSH2 0x292 JUMP JUMPDEST POP POP POP JUMPDEST POP POP POP JUMP JUMPDEST DUP2 MLOAD PUSH1 0x1 PUSH1 0x40 PUSH1 0x2 EXP SUB DUP2 GT ISZERO PUSH2 0x2C7 JUMPI PUSH2 0x2C7 PUSH2 0x8E JUMP JUMPDEST PUSH2 0x2DB DUP2 PUSH2 0x2D5 DUP5 SLOAD PUSH2 0x20C JUMP JUMPDEST DUP5 PUSH2 0x25F JUMP JUMPDEST PUSH1 0x20 DUP1 PUSH1 0x1F DUP4 GT PUSH1 0x1 DUP2 EQ PUSH2 0x314 JUMPI PUSH1 0x0 DUP5 ISZERO PUSH2 0x2F8 JUMPI POP DUP6 DUP4 ADD MLOAD JUMPDEST PUSH1 0x2 DUP1 DUP7 MUL PUSH1 0x8 DUP8 MUL SWAP1 SWAP2 EXP PUSH1 0x0 NOT DIV NOT DUP3 AND OR DUP7 SSTORE POP PUSH2 0x2A5 JUMP JUMPDEST PUSH1 0x0 DUP6 DUP2 MSTORE PUSH1 0x20 DUP2 KECCAK256 PUSH1 0x1F NOT DUP7 AND SWAP2 JUMPDEST DUP3 DUP2 LT ISZERO PUSH2 0x343 JUMPI DUP9 DUP7 ADD MLOAD DUP3 SSTORE SWAP5 DUP5 ADD SWAP5 PUSH1 0x1 SWAP1 SWAP2 ADD SWAP1 DUP5 ADD PUSH2 0x324 JUMP JUMPDEST POP DUP6 DUP3 LT ISZERO PUSH2 0x363 JUMPI DUP8 DUP6 ADD MLOAD PUSH1 0x8 PUSH1 0x1F DUP9 AND MUL PUSH1 0x2 EXP PUSH1 0x0 NOT DIV NOT AND DUP2 SSTORE JUMPDEST POP POP POP POP POP PUSH1 0x2 MUL PUSH1 0x1 ADD SWAP1 SSTORE POP JUMP JUMPDEST PUSH2 0x2D1 DUP1 PUSH2 0x382 PUSH1 0x0 CODECOPY PUSH1 0x0 RETURN INVALID PUSH1 0x80 PUSH1 0x40 MSTORE PUSH1 0x4 CALLDATASIZE LT PUSH2 0x5C JUMPI PUSH29 0x100000000000000000000000000000000000000000000000000000000 PUSH1 0x0 CALLDATALOAD DIV PUSH4 0x1581B600 DUP2 EQ PUSH2 0x65 JUMPI DUP1 PUSH4 0xD0E30DB0 EQ PUSH2 0xBB JUMPI DUP1 PUSH4 0xD4E93292 EQ PUSH2 0xC3 JUMPI DUP1 PUSH4 0xDA6E75C2 EQ PUSH2 0xCF JUMPI STOP JUMPDEST CALLDATASIZE PUSH2 0x63 JUMPI STOP JUMPDEST STOP JUMPDEST CALLVALUE DUP1 ISZERO PUSH2 0x71 JUMPI PUSH1 0x0 DUP1 REVERT JUMPDEST POP PUSH1 0x1 SLOAD PUSH2 0x92 SWAP1 PUSH20 0xFFFFFFFFFFFFFFFFFFFFFFFFFFFFFFFFFFFFFFFF AND DUP2 JUMP JUMPDEST PUSH1 0x40 MLOAD PUSH20 0xFFFFFFFFFFFFFFFFFFFFFFFFFFFFFFFFFFFFFFFF SWAP1 SWAP2 AND DUP2 MSTORE PUSH1 0x20 ADD PUSH1 0x40 MLOAD DUP1 SWAP2 SUB SWAP1 RETURN JUMPDEST PUSH2 0x63 PUSH2 0xE4 JUMP JUMPDEST CALLVALUE DUP1 ISZERO PUSH2 0x63 JUMPI PUSH1 0x0 DUP1 REVERT JUMPDEST CALLVALUE DUP1 ISZERO PUSH2 0xDB JUMPI PUSH1 0x0 DUP1 REVERT JUMPDEST POP PUSH2 0x63 PUSH2 0x119 JUMP JUMPDEST PUSH1 0x40 MLOAD CALLVALUE DUP2 MSTORE PUSH32 0xA34E3D4F1E6B837DBCE1011B61499FA1A483A0ABEE6A7A6697660B4B2D97132 SWAP1 PUSH1 0x20 ADD PUSH1 0x40 MLOAD DUP1 SWAP2 SUB SWAP1 LOG1 JUMP JUMPDEST PUSH1 0x2 SLOAD ADDRESS BALANCE LT ISZERO PUSH2 0x18B JUMPI PUSH1 0x40 MLOAD PUSH32 0x8C379A000000000000000000000000000000000000000000000000000000000 DUP2 MSTORE PUSH1 0x20 PUSH1 0x4 DUP3 ADD MSTORE PUSH1 0x14 PUSH1 0x24 DUP3 ADD MSTORE PUSH32 0x466F6E646F7320696E737566696369656E746573000000000000000000000000 PUSH1 0x44 DUP3 ADD MSTORE PUSH1 0x64 ADD JUMPDEST PUSH1 0x40 MLOAD DUP1 SWAP2 SUB SWAP1 REVERT JUMPDEST PUSH1 0x4 SLOAD PUSH1 0x2 SLOAD PUSH1 0x40 MLOAD PUSH1 0x0 SWAP3 PUSH20 0xFFFFFFFFFFFFFFFFFFFFFFFFFFFFFFFFFFFFFFFF AND SWAP2 SWAP1 DUP4 DUP2 DUP2 DUP2 DUP6 DUP8 GAS CALL SWAP3 POP POP POP RETURNDATASIZE DUP1 PUSH1 0x0 DUP2 EQ PUSH2 0x1E7 JUMPI PUSH1 0x40 MLOAD SWAP2 POP PUSH1 0x1F NOT PUSH1 0x3F RETURNDATASIZE ADD AND DUP3 ADD PUSH1 0x40 MSTORE RETURNDATASIZE DUP3 MSTORE RETURNDATASIZE PUSH1 0x0 PUSH1 0x20 DUP5 ADD RETURNDATACOPY PUSH2 0x1EC JUMP JUMPDEST PUSH1 0x60 SWAP2 POP JUMPDEST POP SWAP1 SWAP2 POP POP PUSH1 0x1 DUP2 ISZERO ISZERO EQ PUSH2 0x25D JUMPI PUSH1 0x40 MLOAD PUSH32 0x8C379A000000000000000000000000000000000000000000000000000000000 DUP2 MSTORE PUSH1 0x20 PUSH1 0x4 DUP3 ADD MSTORE PUSH1 0x16 PUSH1 0x24 DUP3 ADD MSTORE PUSH32 0x46616C6C6F206C61207472616E73666572656E63696100000000000000000000 PUSH1 0x44 DUP3 ADD MSTORE PUSH1 0x64 ADD PUSH2 0x182 JUMP JUMPDEST PUSH32 0x56E1CF8A52E84572FF49B950FA9A1A1867319BF8EBA3BF8C77BC4354678A34C5 PUSH1 0x2 SLOAD PUSH1 0x40 MLOAD PUSH2 0x290 SWAP2 DUP2 MSTORE PUSH1 0x20 ADD SWAP1 JUMP JUMPDEST PUSH1 0x40 MLOAD DUP1 SWAP2 SUB SWAP1 LOG1 POP JUMP INVALID LOG2 PUSH5 0x6970667358 0x22 SLT KECCAK256 0xE2 0x5D 0xDC 0x26 0xBA PUSH26 0x28058349EED3AA390545ADC794C87743581E7D2764CBFF49820A PUSH5 0x736F6C6343 STOP ADDMOD GT STOP CALLER LOG2 PUSH5 0x6970667358 0x22 SLT KECCAK256 ORIGIN 0x26 0xC3 PUSH15 0xB99B471F506860E7726F4A09870550 0xB3 SGT GAS PUSH13 0x9243BFF1596FBDB67864736F6C PUSH4 0x43000811 STOP CALLER "
				},
				"gasEstimates": {
					"creation": {
						"codeDepositCost": "1151400",
						"executionCost": "infinite",
						"totalCost": "infinite"
					},
					"external": {
						"": "189",
						"addNewEmployee(string,address,string,uint256)": "infinite",
						"addNewService(string,uint256)": "infinite",
						"addNewTenant(string,address,uint256,string)": "infinite",
						"getContractBalance()": "615",
						"owner()": "572",
						"payAllServices()": "infinite",
						"paySalaries()": "infinite",
						"payService(uint256)": "708",
						"renounceOwnership()": "infinite",
						"showContractAddress()": "263",
						"transferOwnership(address)": "infinite"
					},
					"internal": {
						"getPayer(address)": "infinite"
					}
				},
				"methodIdentifiers": {
					"addNewEmployee(string,address,string,uint256)": "2237300f",
					"addNewService(string,uint256)": "72673e31",
					"addNewTenant(string,address,uint256,string)": "cc0395bf",
					"getContractBalance()": "6f9fb98a",
					"owner()": "8da5cb5b",
					"payAllServices()": "ec3ab274",
					"paySalaries()": "42e36b3b",
					"payService(uint256)": "cd7d77c5",
					"renounceOwnership()": "715018a6",
					"showContractAddress()": "7ca2e656",
					"transferOwnership(address)": "f2fde38b"
				}
			},
			"storageLayout": {
				"storage": [
					{
						"astId": 7,
						"contract": "contracts/Consorcio.sol:Consorcio",
						"label": "_owner",
						"offset": 0,
						"slot": "0",
						"type": "t_address"
					},
					{
						"astId": 183,
						"contract": "contracts/Consorcio.sol:Consorcio",
						"label": "employeeList",
						"offset": 0,
						"slot": "1",
						"type": "t_array(t_contract(Employee)446)dyn_storage"
					},
					{
						"astId": 187,
						"contract": "contracts/Consorcio.sol:Consorcio",
						"label": "tenantList",
						"offset": 0,
						"slot": "2",
						"type": "t_array(t_contract(Tenant)548)dyn_storage"
					},
					{
						"astId": 191,
						"contract": "contracts/Consorcio.sol:Consorcio",
						"label": "serviceList",
						"offset": 0,
						"slot": "3",
						"type": "t_array(t_struct(Service)179_storage)dyn_storage"
					}
				],
				"types": {
					"t_address": {
						"encoding": "inplace",
						"label": "address",
						"numberOfBytes": "20"
					},
					"t_array(t_contract(Employee)446)dyn_storage": {
						"base": "t_contract(Employee)446",
						"encoding": "dynamic_array",
						"label": "contract Employee[]",
						"numberOfBytes": "32"
					},
					"t_array(t_contract(Tenant)548)dyn_storage": {
						"base": "t_contract(Tenant)548",
						"encoding": "dynamic_array",
						"label": "contract Tenant[]",
						"numberOfBytes": "32"
					},
					"t_array(t_struct(Service)179_storage)dyn_storage": {
						"base": "t_struct(Service)179_storage",
						"encoding": "dynamic_array",
						"label": "struct Consorcio.Service[]",
						"numberOfBytes": "32"
					},
					"t_contract(Employee)446": {
						"encoding": "inplace",
						"label": "contract Employee",
						"numberOfBytes": "20"
					},
					"t_contract(Tenant)548": {
						"encoding": "inplace",
						"label": "contract Tenant",
						"numberOfBytes": "20"
					},
					"t_string_storage": {
						"encoding": "bytes",
						"label": "string",
						"numberOfBytes": "32"
					},
					"t_struct(Service)179_storage": {
						"encoding": "inplace",
						"label": "struct Consorcio.Service",
						"members": [
							{
								"astId": 176,
								"contract": "contracts/Consorcio.sol:Consorcio",
								"label": "name",
								"offset": 0,
								"slot": "0",
								"type": "t_string_storage"
							},
							{
								"astId": 178,
								"contract": "contracts/Consorcio.sol:Consorcio",
								"label": "price",
								"offset": 0,
								"slot": "1",
								"type": "t_uint256"
							}
						],
						"numberOfBytes": "64"
					},
					"t_uint256": {
						"encoding": "inplace",
						"label": "uint256",
						"numberOfBytes": "32"
					}
				}
			},
			"userdoc": {
				"kind": "user",
				"methods": {},
				"version": 1
			}
		}
	}
}