{
	"contracts/Employee.sol": {
		"Employee": {
			"abi": [
				{
					"inputs": [
						{
							"internalType": "string",
							"name": "newName",
							"type": "string"
						},
						{
							"internalType": "address",
							"name": "newAddress",
							"type": "address"
						},
						{
							"internalType": "string",
							"name": "newProfession",
							"type": "string"
						},
						{
							"internalType": "uint256",
							"name": "_salary",
							"type": "uint256"
						}
					],
					"stateMutability": "nonpayable",
					"type": "constructor"
				},
				{
					"inputs": [],
					"name": "withdrawAddress",
					"outputs": [
						{
							"internalType": "address",
							"name": "",
							"type": "address"
						}
					],
					"stateMutability": "view",
					"type": "function"
				},
				{
					"inputs": [],
					"name": "withdrawal",
					"outputs": [],
					"stateMutability": "nonpayable",
					"type": "function"
				}
			],
			"devdoc": {
				"kind": "dev",
				"methods": {},
				"version": 1
			},
			"evm": {
				"assembly": "    /* \"contracts/Employee.sol\":91:443  contract Employee is BaseUser {... */\n  mstore(0x40, 0x80)\n    /* \"contracts/Employee.sol\":190:438  constructor(... */\n  callvalue\n  dup1\n  iszero\n  tag_1\n  jumpi\n  0x00\n  dup1\n  revert\ntag_1:\n  pop\n  mload(0x40)\n  sub(codesize, bytecodeSize)\n  dup1\n  bytecodeSize\n  dup4\n  codecopy\n  dup2\n  add\n  0x40\n  dup2\n  swap1\n  mstore\n  tag_2\n  swap2\n  tag_3\n  jump\t// in\ntag_2:\n    /* \"contracts/Employee.sol\":345:352  newName */\n  dup4\n    /* \"contracts/Employee.sol\":354:364  newAddress */\n  dup4\n    /* \"contracts/BaseUser.sol\":219:223  name */\n  0x00\n    /* \"contracts/BaseUser.sol\":219:233  name = newName */\n  tag_7\n    /* \"contracts/Employee.sol\":345:352  newName */\n  dup4\n    /* \"contracts/BaseUser.sol\":219:223  name */\n  dup3\n    /* \"contracts/BaseUser.sol\":219:233  name = newName */\n  tag_8\n  jump\t// in\ntag_7:\n  pop\n    /* \"contracts/BaseUser.sol\":244:259  withdrawAddress */\n  0x01\n    /* \"contracts/BaseUser.sol\":244:272  withdrawAddress = newAddress */\n  dup1\n  sload\n  not(sub(exp(0x02, 0xa0), 0x01))\n  and\n  sub(exp(0x02, 0xa0), 0x01)\n  swap3\n  swap1\n  swap3\n  and\n  swap2\n  swap1\n  swap2\n  or\n  swap1\n  sstore\n  pop\n    /* \"contracts/Employee.sol\":377:387  profession */\n  0x02\n    /* \"contracts/Employee.sol\":377:403  profession = newProfession */\n  tag_10\n    /* \"contracts/Employee.sol\":390:403  newProfession */\n  dup4\n    /* \"contracts/Employee.sol\":377:387  profession */\n  dup3\n    /* \"contracts/Employee.sol\":377:403  profession = newProfession */\n  tag_8\n  jump\t// in\ntag_10:\n  pop\n    /* \"contracts/Employee.sol\":414:420  salary */\n  0x03\n    /* \"contracts/Employee.sol\":414:430  salary = _salary */\n  sstore\n  pop\n    /* \"contracts/Employee.sol\":91:443  contract Employee is BaseUser {... */\n  tag_18\n  swap2\n  pop\n  pop\n  jump\n    /* \"#utility.yul\":14:198   */\ntag_12:\n    /* \"#utility.yul\":66:143   */\n  0x4e487b7100000000000000000000000000000000000000000000000000000000\n    /* \"#utility.yul\":63:64   */\n  0x00\n    /* \"#utility.yul\":56:144   */\n  mstore\n    /* \"#utility.yul\":163:167   */\n  0x41\n    /* \"#utility.yul\":160:161   */\n  0x04\n    /* \"#utility.yul\":153:168   */\n  mstore\n    /* \"#utility.yul\":187:191   */\n  0x24\n    /* \"#utility.yul\":184:185   */\n  0x00\n    /* \"#utility.yul\":177:192   */\n  revert\n    /* \"#utility.yul\":203:1043   */\ntag_13:\n    /* \"#utility.yul\":257:262   */\n  0x00\n    /* \"#utility.yul\":310:313   */\n  dup3\n    /* \"#utility.yul\":303:307   */\n  0x1f\n    /* \"#utility.yul\":295:301   */\n  dup4\n    /* \"#utility.yul\":291:308   */\n  add\n    /* \"#utility.yul\":287:314   */\n  slt\n    /* \"#utility.yul\":277:332   */\n  tag_21\n  jumpi\n    /* \"#utility.yul\":328:329   */\n  0x00\n    /* \"#utility.yul\":325:326   */\n  dup1\n    /* \"#utility.yul\":318:330   */\n  revert\n    /* \"#utility.yul\":277:332   */\ntag_21:\n    /* \"#utility.yul\":357:363   */\n  dup2\n    /* \"#utility.yul\":351:364   */\n  mload\n  sub(exp(0x02, 0x40), 0x01)\n    /* \"#utility.yul\":420:422   */\n  dup1\n    /* \"#utility.yul\":416:418   */\n  dup3\n    /* \"#utility.yul\":413:423   */\n  gt\n    /* \"#utility.yul\":410:446   */\n  iszero\n  tag_23\n  jumpi\n    /* \"#utility.yul\":426:444   */\n  tag_23\n  tag_12\n  jump\t// in\ntag_23:\n    /* \"#utility.yul\":501:503   */\n  0x40\n    /* \"#utility.yul\":495:504   */\n  mload\n    /* \"#utility.yul\":469:471   */\n  0x1f\n    /* \"#utility.yul\":555:568   */\n  dup4\n  add\n  not(0x1f)\n    /* \"#utility.yul\":551:573   */\n  swap1\n  dup2\n  and\n    /* \"#utility.yul\":575:577   */\n  0x3f\n    /* \"#utility.yul\":547:578   */\n  add\n    /* \"#utility.yul\":543:583   */\n  and\n    /* \"#utility.yul\":531:584   */\n  dup2\n  add\n  swap1\n    /* \"#utility.yul\":599:617   */\n  dup3\n  dup3\n  gt\n    /* \"#utility.yul\":619:641   */\n  dup2\n  dup4\n  lt\n    /* \"#utility.yul\":596:642   */\n  or\n    /* \"#utility.yul\":593:665   */\n  iszero\n  tag_25\n  jumpi\n    /* \"#utility.yul\":645:663   */\n  tag_25\n  tag_12\n  jump\t// in\ntag_25:\n    /* \"#utility.yul\":685:695   */\n  dup2\n    /* \"#utility.yul\":681:683   */\n  0x40\n    /* \"#utility.yul\":674:696   */\n  mstore\n    /* \"#utility.yul\":720:722   */\n  dup4\n    /* \"#utility.yul\":712:718   */\n  dup2\n    /* \"#utility.yul\":705:723   */\n  mstore\n    /* \"#utility.yul\":742:746   */\n  0x20\n    /* \"#utility.yul\":732:746   */\n  swap3\n  pop\n    /* \"#utility.yul\":787:790   */\n  dup7\n    /* \"#utility.yul\":782:784   */\n  dup4\n    /* \"#utility.yul\":777:779   */\n  dup6\n    /* \"#utility.yul\":769:775   */\n  dup9\n    /* \"#utility.yul\":765:780   */\n  add\n    /* \"#utility.yul\":761:785   */\n  add\n    /* \"#utility.yul\":758:791   */\n  gt\n    /* \"#utility.yul\":755:808   */\n  iszero\n  tag_26\n  jumpi\n    /* \"#utility.yul\":804:805   */\n  0x00\n    /* \"#utility.yul\":801:802   */\n  dup1\n    /* \"#utility.yul\":794:806   */\n  revert\n    /* \"#utility.yul\":755:808   */\ntag_26:\n    /* \"#utility.yul\":826:827   */\n  0x00\n    /* \"#utility.yul\":817:827   */\n  swap2\n  pop\n    /* \"#utility.yul\":836:969   */\ntag_27:\n    /* \"#utility.yul\":850:852   */\n  dup4\n    /* \"#utility.yul\":847:848   */\n  dup3\n    /* \"#utility.yul\":844:853   */\n  lt\n    /* \"#utility.yul\":836:969   */\n  iszero\n  tag_29\n  jumpi\n    /* \"#utility.yul\":938:952   */\n  dup6\n  dup3\n  add\n    /* \"#utility.yul\":934:957   */\n  dup4\n  add\n    /* \"#utility.yul\":928:958   */\n  mload\n    /* \"#utility.yul\":907:921   */\n  dup2\n  dup4\n  add\n    /* \"#utility.yul\":903:926   */\n  dup5\n  add\n    /* \"#utility.yul\":896:959   */\n  mstore\n    /* \"#utility.yul\":861:871   */\n  swap1\n  dup3\n  add\n  swap1\n    /* \"#utility.yul\":836:969   */\n  jump(tag_27)\ntag_29:\n    /* \"#utility.yul\":1011:1012   */\n  0x00\n    /* \"#utility.yul\":989:1004   */\n  swap4\n  dup2\n  add\n    /* \"#utility.yul\":985:1009   */\n  swap1\n  swap3\n  add\n    /* \"#utility.yul\":978:1013   */\n  swap3\n  swap1\n  swap3\n  mstore\n    /* \"#utility.yul\":993:999   */\n  swap5\n    /* \"#utility.yul\":203:1043   */\n  swap4\n  pop\n  pop\n  pop\n  pop\n  jump\t// out\n    /* \"#utility.yul\":1048:1839   */\ntag_3:\n    /* \"#utility.yul\":1165:1171   */\n  0x00\n    /* \"#utility.yul\":1173:1179   */\n  dup1\n    /* \"#utility.yul\":1181:1187   */\n  0x00\n    /* \"#utility.yul\":1189:1195   */\n  dup1\n    /* \"#utility.yul\":1242:1245   */\n  0x80\n    /* \"#utility.yul\":1230:1239   */\n  dup6\n    /* \"#utility.yul\":1221:1228   */\n  dup8\n    /* \"#utility.yul\":1217:1240   */\n  sub\n    /* \"#utility.yul\":1213:1246   */\n  slt\n    /* \"#utility.yul\":1210:1263   */\n  iszero\n  tag_31\n  jumpi\n    /* \"#utility.yul\":1259:1260   */\n  0x00\n    /* \"#utility.yul\":1256:1257   */\n  dup1\n    /* \"#utility.yul\":1249:1261   */\n  revert\n    /* \"#utility.yul\":1210:1263   */\ntag_31:\n    /* \"#utility.yul\":1292:1301   */\n  dup5\n    /* \"#utility.yul\":1286:1302   */\n  mload\n  sub(exp(0x02, 0x40), 0x01)\n    /* \"#utility.yul\":1362:1364   */\n  dup1\n    /* \"#utility.yul\":1354:1360   */\n  dup3\n    /* \"#utility.yul\":1351:1365   */\n  gt\n    /* \"#utility.yul\":1348:1382   */\n  iszero\n  tag_32\n  jumpi\n    /* \"#utility.yul\":1378:1379   */\n  0x00\n    /* \"#utility.yul\":1375:1376   */\n  dup1\n    /* \"#utility.yul\":1368:1380   */\n  revert\n    /* \"#utility.yul\":1348:1382   */\ntag_32:\n    /* \"#utility.yul\":1401:1462   */\n  tag_33\n    /* \"#utility.yul\":1454:1461   */\n  dup9\n    /* \"#utility.yul\":1445:1451   */\n  dup4\n    /* \"#utility.yul\":1434:1443   */\n  dup10\n    /* \"#utility.yul\":1430:1452   */\n  add\n    /* \"#utility.yul\":1401:1462   */\n  tag_13\n  jump\t// in\ntag_33:\n    /* \"#utility.yul\":1505:1507   */\n  0x20\n    /* \"#utility.yul\":1490:1508   */\n  dup9\n  add\n    /* \"#utility.yul\":1484:1509   */\n  mload\n    /* \"#utility.yul\":1391:1462   */\n  swap1\n  swap7\n  pop\n    /* \"#utility.yul\":1484:1509   */\n  swap2\n  pop\n  sub(exp(0x02, 0xa0), 0x01)\n    /* \"#utility.yul\":1538:1569   */\n  dup3\n  and\n    /* \"#utility.yul\":1528:1570   */\n  dup3\n  eq\n    /* \"#utility.yul\":1518:1588   */\n  tag_34\n  jumpi\n    /* \"#utility.yul\":1584:1585   */\n  0x00\n    /* \"#utility.yul\":1581:1582   */\n  dup1\n    /* \"#utility.yul\":1574:1586   */\n  revert\n    /* \"#utility.yul\":1518:1588   */\ntag_34:\n    /* \"#utility.yul\":1658:1660   */\n  0x40\n    /* \"#utility.yul\":1643:1661   */\n  dup8\n  add\n    /* \"#utility.yul\":1637:1662   */\n  mload\n    /* \"#utility.yul\":1607:1612   */\n  swap2\n  swap5\n  pop\n    /* \"#utility.yul\":1674:1690   */\n  dup1\n  dup3\n  gt\n    /* \"#utility.yul\":1671:1707   */\n  iszero\n  tag_35\n  jumpi\n    /* \"#utility.yul\":1703:1704   */\n  0x00\n    /* \"#utility.yul\":1700:1701   */\n  dup1\n    /* \"#utility.yul\":1693:1705   */\n  revert\n    /* \"#utility.yul\":1671:1707   */\ntag_35:\n  pop\n    /* \"#utility.yul\":1726:1789   */\n  tag_36\n    /* \"#utility.yul\":1781:1788   */\n  dup8\n    /* \"#utility.yul\":1770:1778   */\n  dup3\n    /* \"#utility.yul\":1759:1768   */\n  dup9\n    /* \"#utility.yul\":1755:1779   */\n  add\n    /* \"#utility.yul\":1726:1789   */\n  tag_13\n  jump\t// in\ntag_36:\n    /* \"#utility.yul\":1829:1831   */\n  0x60\n    /* \"#utility.yul\":1814:1832   */\n  swap7\n  swap1\n  swap7\n  add\n    /* \"#utility.yul\":1808:1833   */\n  mload\n    /* \"#utility.yul\":1048:1839   */\n  swap5\n  swap8\n  swap4\n  swap7\n  pop\n  pop\n  pop\n  pop\n  jump\t// out\n    /* \"#utility.yul\":1844:2281   */\ntag_14:\n    /* \"#utility.yul\":1929:1930   */\n  0x02\n    /* \"#utility.yul\":1919:1931   */\n  dup2\n  div\n    /* \"#utility.yul\":1976:1977   */\n  0x01\n    /* \"#utility.yul\":1966:1978   */\n  dup3\n  and\n  dup1\n    /* \"#utility.yul\":1987:2048   */\n  tag_38\n  jumpi\n    /* \"#utility.yul\":2041:2045   */\n  0x7f\n    /* \"#utility.yul\":2033:2039   */\n  dup3\n    /* \"#utility.yul\":2029:2046   */\n  and\n    /* \"#utility.yul\":2019:2046   */\n  swap2\n  pop\n    /* \"#utility.yul\":1987:2048   */\ntag_38:\n    /* \"#utility.yul\":2094:2096   */\n  0x20\n    /* \"#utility.yul\":2086:2092   */\n  dup3\n    /* \"#utility.yul\":2083:2097   */\n  lt\n    /* \"#utility.yul\":2063:2081   */\n  dup2\n    /* \"#utility.yul\":2060:2098   */\n  sub\n    /* \"#utility.yul\":2057:2275   */\n  tag_39\n  jumpi\n    /* \"#utility.yul\":2131:2208   */\n  0x4e487b7100000000000000000000000000000000000000000000000000000000\n    /* \"#utility.yul\":2128:2129   */\n  0x00\n    /* \"#utility.yul\":2121:2209   */\n  mstore\n    /* \"#utility.yul\":2232:2236   */\n  0x22\n    /* \"#utility.yul\":2229:2230   */\n  0x04\n    /* \"#utility.yul\":2222:2237   */\n  mstore\n    /* \"#utility.yul\":2260:2264   */\n  0x24\n    /* \"#utility.yul\":2257:2258   */\n  0x00\n    /* \"#utility.yul\":2250:2265   */\n  revert\n    /* \"#utility.yul\":2057:2275   */\ntag_39:\n  pop\n    /* \"#utility.yul\":1844:2281   */\n  swap2\n  swap1\n  pop\n  jump\t// out\n    /* \"#utility.yul\":2412:2963   */\ntag_16:\n    /* \"#utility.yul\":2514:2516   */\n  0x1f\n    /* \"#utility.yul\":2509:2512   */\n  dup3\n    /* \"#utility.yul\":2506:2517   */\n  gt\n    /* \"#utility.yul\":2503:2957   */\n  iszero\n  tag_42\n  jumpi\n    /* \"#utility.yul\":2550:2551   */\n  0x00\n    /* \"#utility.yul\":2575:2580   */\n  dup2\n    /* \"#utility.yul\":2571:2573   */\n  dup2\n    /* \"#utility.yul\":2564:2581   */\n  mstore\n    /* \"#utility.yul\":2620:2624   */\n  0x20\n    /* \"#utility.yul\":2616:2618   */\n  dup2\n    /* \"#utility.yul\":2606:2625   */\n  keccak256\n    /* \"#utility.yul\":2692:2696   */\n  0x20\n    /* \"#utility.yul\":2687:2689   */\n  0x1f\n    /* \"#utility.yul\":2675:2685   */\n  dup7\n    /* \"#utility.yul\":2671:2690   */\n  add\n    /* \"#utility.yul\":2667:2697   */\n  div\n    /* \"#utility.yul\":2661:2665   */\n  dup2\n    /* \"#utility.yul\":2657:2698   */\n  add\n    /* \"#utility.yul\":2729:2733   */\n  0x20\n    /* \"#utility.yul\":2717:2727   */\n  dup7\n    /* \"#utility.yul\":2714:2734   */\n  lt\n    /* \"#utility.yul\":2711:2758   */\n  iszero\n  tag_43\n  jumpi\n  pop\n    /* \"#utility.yul\":2752:2756   */\n  dup1\n    /* \"#utility.yul\":2711:2758   */\ntag_43:\n    /* \"#utility.yul\":2809:2813   */\n  0x20\n    /* \"#utility.yul\":2804:2806   */\n  0x1f\n    /* \"#utility.yul\":2799:2802   */\n  dup7\n    /* \"#utility.yul\":2795:2807   */\n  add\n    /* \"#utility.yul\":2791:2814   */\n  div\n    /* \"#utility.yul\":2785:2789   */\n  dup3\n    /* \"#utility.yul\":2781:2815   */\n  add\n    /* \"#utility.yul\":2771:2815   */\n  swap2\n  pop\n    /* \"#utility.yul\":2865:2947   */\ntag_44:\n    /* \"#utility.yul\":2883:2885   */\n  dup2\n    /* \"#utility.yul\":2876:2881   */\n  dup2\n    /* \"#utility.yul\":2873:2886   */\n  lt\n    /* \"#utility.yul\":2865:2947   */\n  iszero\n  tag_46\n  jumpi\n    /* \"#utility.yul\":2928:2945   */\n  dup3\n  dup2\n  sstore\n    /* \"#utility.yul\":2909:2910   */\n  0x01\n    /* \"#utility.yul\":2898:2911   */\n  add\n    /* \"#utility.yul\":2865:2947   */\n  jump(tag_44)\ntag_46:\n    /* \"#utility.yul\":2869:2872   */\n  pop\n  pop\n  pop\n    /* \"#utility.yul\":2503:2957   */\ntag_42:\n    /* \"#utility.yul\":2412:2963   */\n  pop\n  pop\n  pop\n  jump\t// out\n    /* \"#utility.yul\":3147:4506   */\ntag_8:\n    /* \"#utility.yul\":3273:3276   */\n  dup2\n    /* \"#utility.yul\":3267:3277   */\n  mload\n  sub(exp(0x02, 0x40), 0x01)\n    /* \"#utility.yul\":3292:3298   */\n  dup2\n    /* \"#utility.yul\":3289:3319   */\n  gt\n    /* \"#utility.yul\":3286:3342   */\n  iszero\n  tag_50\n  jumpi\n    /* \"#utility.yul\":3322:3340   */\n  tag_50\n  tag_12\n  jump\t// in\ntag_50:\n    /* \"#utility.yul\":3351:3448   */\n  tag_51\n    /* \"#utility.yul\":3441:3447   */\n  dup2\n    /* \"#utility.yul\":3401:3439   */\n  tag_52\n    /* \"#utility.yul\":3433:3437   */\n  dup5\n    /* \"#utility.yul\":3427:3438   */\n  sload\n    /* \"#utility.yul\":3401:3439   */\n  tag_14\n  jump\t// in\ntag_52:\n    /* \"#utility.yul\":3395:3399   */\n  dup5\n    /* \"#utility.yul\":3351:3448   */\n  tag_16\n  jump\t// in\ntag_51:\n    /* \"#utility.yul\":3503:3507   */\n  0x20\n  dup1\n    /* \"#utility.yul\":3567:3569   */\n  0x1f\n    /* \"#utility.yul\":3556:3570   */\n  dup4\n  gt\n    /* \"#utility.yul\":3584:3585   */\n  0x01\n    /* \"#utility.yul\":3579:4249   */\n  dup2\n  eq\n  tag_54\n  jumpi\n    /* \"#utility.yul\":4293:4294   */\n  0x00\n    /* \"#utility.yul\":4310:4316   */\n  dup5\n    /* \"#utility.yul\":4307:4396   */\n  iszero\n  tag_55\n  jumpi\n  pop\n    /* \"#utility.yul\":4362:4381   */\n  dup6\n  dup4\n  add\n    /* \"#utility.yul\":4356:4382   */\n  mload\n    /* \"#utility.yul\":4307:4396   */\ntag_55:\n    /* \"#utility.yul\":3128:3129   */\n  0x02\n    /* \"#utility.yul\":3124:3135   */\n  dup1\n  dup7\n  mul\n    /* \"#utility.yul\":3111:3112   */\n  0x08\n    /* \"#utility.yul\":3107:3118   */\n  dup8\n  mul\n    /* \"#utility.yul\":3100:3119   */\n  swap1\n  swap2\n  exp\n  not(0x00)\n    /* \"#utility.yul\":3088:3120   */\n  div\n    /* \"#utility.yul\":3084:3121   */\n  not\n    /* \"#utility.yul\":3074:3122   */\n  dup3\n  and\n    /* \"#utility.yul\":3071:3136   */\n  or\n    /* \"#utility.yul\":4416:4420   */\n  dup7\n    /* \"#utility.yul\":4409:4490   */\n  sstore\n  pop\n    /* \"#utility.yul\":3549:4500   */\n  jump(tag_46)\n    /* \"#utility.yul\":3579:4249   */\ntag_54:\n    /* \"#utility.yul\":2359:2360   */\n  0x00\n    /* \"#utility.yul\":2352:2366   */\n  dup6\n  dup2\n  mstore\n    /* \"#utility.yul\":2396:2400   */\n  0x20\n    /* \"#utility.yul\":2383:2401   */\n  dup2\n  keccak256\n  not(0x1f)\n    /* \"#utility.yul\":3615:3635   */\n  dup7\n  and\n  swap2\n    /* \"#utility.yul\":3733:3969   */\ntag_58:\n    /* \"#utility.yul\":3747:3754   */\n  dup3\n    /* \"#utility.yul\":3744:3745   */\n  dup2\n    /* \"#utility.yul\":3741:3755   */\n  lt\n    /* \"#utility.yul\":3733:3969   */\n  iszero\n  tag_60\n  jumpi\n    /* \"#utility.yul\":3836:3855   */\n  dup9\n  dup7\n  add\n    /* \"#utility.yul\":3830:3856   */\n  mload\n    /* \"#utility.yul\":3815:3857   */\n  dup3\n  sstore\n    /* \"#utility.yul\":3928:3955   */\n  swap5\n  dup5\n  add\n  swap5\n    /* \"#utility.yul\":3896:3897   */\n  0x01\n    /* \"#utility.yul\":3884:3898   */\n  swap1\n  swap2\n  add\n  swap1\n    /* \"#utility.yul\":3763:3782   */\n  dup5\n  add\n    /* \"#utility.yul\":3733:3969   */\n  jump(tag_58)\ntag_60:\n    /* \"#utility.yul\":3737:3740   */\n  pop\n    /* \"#utility.yul\":3997:4003   */\n  dup6\n    /* \"#utility.yul\":3988:3995   */\n  dup3\n    /* \"#utility.yul\":3985:4004   */\n  lt\n    /* \"#utility.yul\":3982:4190   */\n  iszero\n  tag_61\n  jumpi\n    /* \"#utility.yul\":4058:4077   */\n  dup8\n  dup6\n  add\n    /* \"#utility.yul\":4052:4078   */\n  mload\n    /* \"#utility.yul\":4152:4153   */\n  0x08\n    /* \"#utility.yul\":4167:4169   */\n  0x1f\n    /* \"#utility.yul\":4155:4170   */\n  dup9\n  and\n    /* \"#utility.yul\":4148:4171   */\n  mul\n    /* \"#utility.yul\":4145:4146   */\n  0x02\n    /* \"#utility.yul\":4141:4172   */\n  exp\n  not(0x00)\n    /* \"#utility.yul\":4129:4173   */\n  div\n    /* \"#utility.yul\":4125:4174   */\n  not\n    /* \"#utility.yul\":4110:4175   */\n  and\n    /* \"#utility.yul\":4095:4176   */\n  dup2\n  sstore\n    /* \"#utility.yul\":3982:4190   */\ntag_61:\n  pop\n  pop\n  pop\n  pop\n  pop\n    /* \"#utility.yul\":4232:4233   */\n  0x02\n    /* \"#utility.yul\":4220:4234   */\n  mul\n    /* \"#utility.yul\":4236:4237   */\n  0x01\n    /* \"#utility.yul\":4216:4238   */\n  add\n    /* \"#utility.yul\":4203:4239   */\n  swap1\n  sstore\n  pop\n    /* \"#utility.yul\":3147:4506   */\n  jump\t// out\ntag_18:\n    /* \"contracts/Employee.sol\":91:443  contract Employee is BaseUser {... */\n  dataSize(sub_0)\n  dup1\n  dataOffset(sub_0)\n  0x00\n  codecopy\n  0x00\n  return\nstop\n\nsub_0: assembly {\n        /* \"contracts/Employee.sol\":91:443  contract Employee is BaseUser {... */\n      mstore(0x40, 0x80)\n      callvalue\n      dup1\n      iszero\n      tag_1\n      jumpi\n      0x00\n      dup1\n      revert\n    tag_1:\n      pop\n      jumpi(tag_2, lt(calldatasize, 0x04))\n      div(calldataload(0x00), 0x0100000000000000000000000000000000000000000000000000000000)\n      0x1581b600\n      dup2\n      eq\n      tag_3\n      jumpi\n      dup1\n      0xd4e93292\n      eq\n      tag_4\n      jumpi\n    tag_2:\n      0x00\n      dup1\n      revert\n        /* \"contracts/BaseUser.sol\":114:144  address public withdrawAddress */\n    tag_3:\n      sload(0x01)\n      tag_5\n      swap1\n      0xffffffffffffffffffffffffffffffffffffffff\n      and\n      dup2\n      jump\n    tag_5:\n      mload(0x40)\n        /* \"#utility.yul\":190:232   */\n      0xffffffffffffffffffffffffffffffffffffffff\n        /* \"#utility.yul\":178:233   */\n      swap1\n      swap2\n      and\n        /* \"#utility.yul\":160:234   */\n      dup2\n      mstore\n        /* \"#utility.yul\":148:150   */\n      0x20\n        /* \"#utility.yul\":133:151   */\n      add\n        /* \"contracts/BaseUser.sol\":114:144  address public withdrawAddress */\n      mload(0x40)\n      dup1\n      swap2\n      sub\n      swap1\n      return\n        /* \"contracts/BaseUser.sol\":288:388  function withdrawal() public {... */\n    tag_4:\n      stop\n\n    auxdata: 0xa26469706673582212203214d41be218dd95e3edb4ba9869bc554068f4ed101ac1998dd1571de9d0322564736f6c63430008110033\n}\n",
				"bytecode": {
					"linkReferences": {},
					"object": "608060405234801561001057600080fd5b5060405161041f38038061041f83398101604081905261002f9161014c565b8383600061003d8382610279565b5060018054600160a060020a031916600160a060020a039290921691909117905550600261006b8382610279565b506003555061033e915050565b7f4e487b7100000000000000000000000000000000000000000000000000000000600052604160045260246000fd5b600082601f8301126100b857600080fd5b81516001604060020a03808211156100d2576100d2610078565b604051601f8301601f19908116603f011681019082821181831017156100fa576100fa610078565b8160405283815260209250868385880101111561011657600080fd5b600091505b83821015610138578582018301518183018401529082019061011b565b600093810190920192909252949350505050565b6000806000806080858703121561016257600080fd5b84516001604060020a038082111561017957600080fd5b610185888389016100a7565b60208801519096509150600160a060020a03821682146101a457600080fd5b6040870151919450808211156101b957600080fd5b506101c6878288016100a7565b606096909601519497939650505050565b6002810460018216806101eb57607f821691505b602082108103610224577f4e487b7100000000000000000000000000000000000000000000000000000000600052602260045260246000fd5b50919050565b601f821115610274576000818152602081206020601f860104810160208610156102515750805b6020601f860104820191505b818110156102705782815560010161025d565b5050505b505050565b81516001604060020a0381111561029257610292610078565b6102a6816102a084546101d7565b8461022a565b602080601f8311600181146102df57600084156102c35750858301515b60028086026008870290910a6000190419821617865550610270565b600085815260208120601f198616915b8281101561030e578886015182559484019460019091019084016102ef565b508582101561032e57878501516008601f88160260020a60001904191681555b5050505050600202600101905550565b60d38061034c6000396000f3fe6080604052348015600f57600080fd5b5060043610604e577c010000000000000000000000000000000000000000000000000000000060003504631581b60081146053578063d4e9329214609b575b600080fd5b60015460729073ffffffffffffffffffffffffffffffffffffffff1681565b60405173ffffffffffffffffffffffffffffffffffffffff909116815260200160405180910390f35b00fea26469706673582212203214d41be218dd95e3edb4ba9869bc554068f4ed101ac1998dd1571de9d0322564736f6c63430008110033",
					"opcodes": "PUSH1 0x80 PUSH1 0x40 MSTORE CALLVALUE DUP1 ISZERO PUSH2 0x10 JUMPI PUSH1 0x0 DUP1 REVERT JUMPDEST POP PUSH1 0x40 MLOAD PUSH2 0x41F CODESIZE SUB DUP1 PUSH2 0x41F DUP4 CODECOPY DUP2 ADD PUSH1 0x40 DUP2 SWAP1 MSTORE PUSH2 0x2F SWAP2 PUSH2 0x14C JUMP JUMPDEST DUP4 DUP4 PUSH1 0x0 PUSH2 0x3D DUP4 DUP3 PUSH2 0x279 JUMP JUMPDEST POP PUSH1 0x1 DUP1 SLOAD PUSH1 0x1 PUSH1 0xA0 PUSH1 0x2 EXP SUB NOT AND PUSH1 0x1 PUSH1 0xA0 PUSH1 0x2 EXP SUB SWAP3 SWAP1 SWAP3 AND SWAP2 SWAP1 SWAP2 OR SWAP1 SSTORE POP PUSH1 0x2 PUSH2 0x6B DUP4 DUP3 PUSH2 0x279 JUMP JUMPDEST POP PUSH1 0x3 SSTORE POP PUSH2 0x33E SWAP2 POP POP JUMP JUMPDEST PUSH32 0x4E487B7100000000000000000000000000000000000000000000000000000000 PUSH1 0x0 MSTORE PUSH1 0x41 PUSH1 0x4 MSTORE PUSH1 0x24 PUSH1 0x0 REVERT JUMPDEST PUSH1 0x0 DUP3 PUSH1 0x1F DUP4 ADD SLT PUSH2 0xB8 JUMPI PUSH1 0x0 DUP1 REVERT JUMPDEST DUP2 MLOAD PUSH1 0x1 PUSH1 0x40 PUSH1 0x2 EXP SUB DUP1 DUP3 GT ISZERO PUSH2 0xD2 JUMPI PUSH2 0xD2 PUSH2 0x78 JUMP JUMPDEST PUSH1 0x40 MLOAD PUSH1 0x1F DUP4 ADD PUSH1 0x1F NOT SWAP1 DUP2 AND PUSH1 0x3F ADD AND DUP2 ADD SWAP1 DUP3 DUP3 GT DUP2 DUP4 LT OR ISZERO PUSH2 0xFA JUMPI PUSH2 0xFA PUSH2 0x78 JUMP JUMPDEST DUP2 PUSH1 0x40 MSTORE DUP4 DUP2 MSTORE PUSH1 0x20 SWAP3 POP DUP7 DUP4 DUP6 DUP9 ADD ADD GT ISZERO PUSH2 0x116 JUMPI PUSH1 0x0 DUP1 REVERT JUMPDEST PUSH1 0x0 SWAP2 POP JUMPDEST DUP4 DUP3 LT ISZERO PUSH2 0x138 JUMPI DUP6 DUP3 ADD DUP4 ADD MLOAD DUP2 DUP4 ADD DUP5 ADD MSTORE SWAP1 DUP3 ADD SWAP1 PUSH2 0x11B JUMP JUMPDEST PUSH1 0x0 SWAP4 DUP2 ADD SWAP1 SWAP3 ADD SWAP3 SWAP1 SWAP3 MSTORE SWAP5 SWAP4 POP POP POP POP JUMP JUMPDEST PUSH1 0x0 DUP1 PUSH1 0x0 DUP1 PUSH1 0x80 DUP6 DUP8 SUB SLT ISZERO PUSH2 0x162 JUMPI PUSH1 0x0 DUP1 REVERT JUMPDEST DUP5 MLOAD PUSH1 0x1 PUSH1 0x40 PUSH1 0x2 EXP SUB DUP1 DUP3 GT ISZERO PUSH2 0x179 JUMPI PUSH1 0x0 DUP1 REVERT JUMPDEST PUSH2 0x185 DUP9 DUP4 DUP10 ADD PUSH2 0xA7 JUMP JUMPDEST PUSH1 0x20 DUP9 ADD MLOAD SWAP1 SWAP7 POP SWAP2 POP PUSH1 0x1 PUSH1 0xA0 PUSH1 0x2 EXP SUB DUP3 AND DUP3 EQ PUSH2 0x1A4 JUMPI PUSH1 0x0 DUP1 REVERT JUMPDEST PUSH1 0x40 DUP8 ADD MLOAD SWAP2 SWAP5 POP DUP1 DUP3 GT ISZERO PUSH2 0x1B9 JUMPI PUSH1 0x0 DUP1 REVERT JUMPDEST POP PUSH2 0x1C6 DUP8 DUP3 DUP9 ADD PUSH2 0xA7 JUMP JUMPDEST PUSH1 0x60 SWAP7 SWAP1 SWAP7 ADD MLOAD SWAP5 SWAP8 SWAP4 SWAP7 POP POP POP POP JUMP JUMPDEST PUSH1 0x2 DUP2 DIV PUSH1 0x1 DUP3 AND DUP1 PUSH2 0x1EB JUMPI PUSH1 0x7F DUP3 AND SWAP2 POP JUMPDEST PUSH1 0x20 DUP3 LT DUP2 SUB PUSH2 0x224 JUMPI PUSH32 0x4E487B7100000000000000000000000000000000000000000000000000000000 PUSH1 0x0 MSTORE PUSH1 0x22 PUSH1 0x4 MSTORE PUSH1 0x24 PUSH1 0x0 REVERT JUMPDEST POP SWAP2 SWAP1 POP JUMP JUMPDEST PUSH1 0x1F DUP3 GT ISZERO PUSH2 0x274 JUMPI PUSH1 0x0 DUP2 DUP2 MSTORE PUSH1 0x20 DUP2 KECCAK256 PUSH1 0x20 PUSH1 0x1F DUP7 ADD DIV DUP2 ADD PUSH1 0x20 DUP7 LT ISZERO PUSH2 0x251 JUMPI POP DUP1 JUMPDEST PUSH1 0x20 PUSH1 0x1F DUP7 ADD DIV DUP3 ADD SWAP2 POP JUMPDEST DUP2 DUP2 LT ISZERO PUSH2 0x270 JUMPI DUP3 DUP2 SSTORE PUSH1 0x1 ADD PUSH2 0x25D JUMP JUMPDEST POP POP POP JUMPDEST POP POP POP JUMP JUMPDEST DUP2 MLOAD PUSH1 0x1 PUSH1 0x40 PUSH1 0x2 EXP SUB DUP2 GT ISZERO PUSH2 0x292 JUMPI PUSH2 0x292 PUSH2 0x78 JUMP JUMPDEST PUSH2 0x2A6 DUP2 PUSH2 0x2A0 DUP5 SLOAD PUSH2 0x1D7 JUMP JUMPDEST DUP5 PUSH2 0x22A JUMP JUMPDEST PUSH1 0x20 DUP1 PUSH1 0x1F DUP4 GT PUSH1 0x1 DUP2 EQ PUSH2 0x2DF JUMPI PUSH1 0x0 DUP5 ISZERO PUSH2 0x2C3 JUMPI POP DUP6 DUP4 ADD MLOAD JUMPDEST PUSH1 0x2 DUP1 DUP7 MUL PUSH1 0x8 DUP8 MUL SWAP1 SWAP2 EXP PUSH1 0x0 NOT DIV NOT DUP3 AND OR DUP7 SSTORE POP PUSH2 0x270 JUMP JUMPDEST PUSH1 0x0 DUP6 DUP2 MSTORE PUSH1 0x20 DUP2 KECCAK256 PUSH1 0x1F NOT DUP7 AND SWAP2 JUMPDEST DUP3 DUP2 LT ISZERO PUSH2 0x30E JUMPI DUP9 DUP7 ADD MLOAD DUP3 SSTORE SWAP5 DUP5 ADD SWAP5 PUSH1 0x1 SWAP1 SWAP2 ADD SWAP1 DUP5 ADD PUSH2 0x2EF JUMP JUMPDEST POP DUP6 DUP3 LT ISZERO PUSH2 0x32E JUMPI DUP8 DUP6 ADD MLOAD PUSH1 0x8 PUSH1 0x1F DUP9 AND MUL PUSH1 0x2 EXP PUSH1 0x0 NOT DIV NOT AND DUP2 SSTORE JUMPDEST POP POP POP POP POP PUSH1 0x2 MUL PUSH1 0x1 ADD SWAP1 SSTORE POP JUMP JUMPDEST PUSH1 0xD3 DUP1 PUSH2 0x34C PUSH1 0x0 CODECOPY PUSH1 0x0 RETURN INVALID PUSH1 0x80 PUSH1 0x40 MSTORE CALLVALUE DUP1 ISZERO PUSH1 0xF JUMPI PUSH1 0x0 DUP1 REVERT JUMPDEST POP PUSH1 0x4 CALLDATASIZE LT PUSH1 0x4E JUMPI PUSH29 0x100000000000000000000000000000000000000000000000000000000 PUSH1 0x0 CALLDATALOAD DIV PUSH4 0x1581B600 DUP2 EQ PUSH1 0x53 JUMPI DUP1 PUSH4 0xD4E93292 EQ PUSH1 0x9B JUMPI JUMPDEST PUSH1 0x0 DUP1 REVERT JUMPDEST PUSH1 0x1 SLOAD PUSH1 0x72 SWAP1 PUSH20 0xFFFFFFFFFFFFFFFFFFFFFFFFFFFFFFFFFFFFFFFF AND DUP2 JUMP JUMPDEST PUSH1 0x40 MLOAD PUSH20 0xFFFFFFFFFFFFFFFFFFFFFFFFFFFFFFFFFFFFFFFF SWAP1 SWAP2 AND DUP2 MSTORE PUSH1 0x20 ADD PUSH1 0x40 MLOAD DUP1 SWAP2 SUB SWAP1 RETURN JUMPDEST STOP INVALID LOG2 PUSH5 0x6970667358 0x22 SLT KECCAK256 ORIGIN EQ 0xD4 SHL 0xE2 XOR 0xDD SWAP6 0xE3 0xED 0xB4 0xBA SWAP9 PUSH10 0xBC554068F4ED101AC199 DUP14 0xD1 JUMPI SAR 0xE9 0xD0 ORIGIN 0x25 PUSH5 0x736F6C6343 STOP ADDMOD GT STOP CALLER "
				},
				"gasEstimates": {
					"creation": {
						"codeDepositCost": "42200",
						"executionCost": "infinite",
						"totalCost": "infinite"
					},
					"external": {
						"withdrawAddress()": "381",
						"withdrawal()": "122"
					}
				},
				"methodIdentifiers": {
					"withdrawAddress()": "1581b600",
					"withdrawal()": "d4e93292"
				}
			},
			"storageLayout": {
				"storage": [
					{
						"astId": 138,
						"contract": "contracts/Employee.sol:Employee",
						"label": "name",
						"offset": 0,
						"slot": "0",
						"type": "t_string_storage"
					},
					{
						"astId": 140,
						"contract": "contracts/Employee.sol:Employee",
						"label": "withdrawAddress",
						"offset": 0,
						"slot": "1",
						"type": "t_address"
					},
					{
						"astId": 419,
						"contract": "contracts/Employee.sol:Employee",
						"label": "profession",
						"offset": 0,
						"slot": "2",
						"type": "t_string_storage"
					},
					{
						"astId": 421,
						"contract": "contracts/Employee.sol:Employee",
						"label": "salary",
						"offset": 0,
						"slot": "3",
						"type": "t_uint256"
					}
				],
				"types": {
					"t_address": {
						"encoding": "inplace",
						"label": "address",
						"numberOfBytes": "20"
					},
					"t_string_storage": {
						"encoding": "bytes",
						"label": "string",
						"numberOfBytes": "32"
					},
					"t_uint256": {
						"encoding": "inplace",
						"label": "uint256",
						"numberOfBytes": "32"
					}
				}
			},
			"userdoc": {
				"kind": "user",
				"methods": {},
				"version": 1
			}
		}
	}
}