{
	"contracts/Consorcio.sol": {
		"Consorcio": {
			"abi": [
				{
					"inputs": [],
					"stateMutability": "nonpayable",
					"type": "constructor"
				},
				{
					"anonymous": false,
					"inputs": [
						{
							"indexed": true,
							"internalType": "address",
							"name": "previousOwner",
							"type": "address"
						},
						{
							"indexed": true,
							"internalType": "address",
							"name": "newOwner",
							"type": "address"
						}
					],
					"name": "OwnershipTransferred",
					"type": "event"
				},
				{
					"anonymous": false,
					"inputs": [
						{
							"indexed": false,
							"internalType": "address",
							"name": "from",
							"type": "address"
						},
						{
							"indexed": false,
							"internalType": "uint256",
							"name": "amount",
							"type": "uint256"
						}
					],
					"name": "PaymentSucessfully",
					"type": "event"
				},
				{
					"stateMutability": "payable",
					"type": "fallback"
				},
				{
					"inputs": [
						{
							"internalType": "string",
							"name": "_name",
							"type": "string"
						},
						{
							"internalType": "address",
							"name": "_employeeAddress",
							"type": "address"
						},
						{
							"internalType": "string",
							"name": "_profession",
							"type": "string"
						},
						{
							"internalType": "uint256",
							"name": "_salary",
							"type": "uint256"
						}
					],
					"name": "addNewEmployee",
					"outputs": [],
					"stateMutability": "nonpayable",
					"type": "function"
				},
				{
					"inputs": [
						{
							"internalType": "string",
							"name": "_name",
							"type": "string"
						},
						{
							"internalType": "uint256",
							"name": "_price",
							"type": "uint256"
						}
					],
					"name": "addNewService",
					"outputs": [],
					"stateMutability": "nonpayable",
					"type": "function"
				},
				{
					"inputs": [
						{
							"internalType": "string",
							"name": "_name",
							"type": "string"
						},
						{
							"internalType": "address",
							"name": "_tenantAddress",
							"type": "address"
						},
						{
							"internalType": "uint256",
							"name": "_rentalCost",
							"type": "uint256"
						},
						{
							"internalType": "string",
							"name": "_residence",
							"type": "string"
						}
					],
					"name": "addNewTenant",
					"outputs": [],
					"stateMutability": "nonpayable",
					"type": "function"
				},
				{
					"inputs": [],
					"name": "getContractBalance",
					"outputs": [
						{
							"internalType": "uint256",
							"name": "balance",
							"type": "uint256"
						}
					],
					"stateMutability": "view",
					"type": "function"
				},
				{
					"inputs": [],
					"name": "owner",
					"outputs": [
						{
							"internalType": "address",
							"name": "",
							"type": "address"
						}
					],
					"stateMutability": "view",
					"type": "function"
				},
				{
					"inputs": [],
					"name": "payAllServices",
					"outputs": [],
					"stateMutability": "payable",
					"type": "function"
				},
				{
					"inputs": [],
					"name": "paySalaries",
					"outputs": [],
					"stateMutability": "payable",
					"type": "function"
				},
				{
					"inputs": [
						{
							"internalType": "uint256",
							"name": "index",
							"type": "uint256"
						}
					],
					"name": "payService",
					"outputs": [],
					"stateMutability": "nonpayable",
					"type": "function"
				},
				{
					"inputs": [],
					"name": "renounceOwnership",
					"outputs": [],
					"stateMutability": "nonpayable",
					"type": "function"
				},
				{
					"inputs": [],
					"name": "showContractAddress",
					"outputs": [
						{
							"internalType": "address",
							"name": "",
							"type": "address"
						}
					],
					"stateMutability": "view",
					"type": "function"
				},
				{
					"inputs": [
						{
							"internalType": "address",
							"name": "newOwner",
							"type": "address"
						}
					],
					"name": "transferOwnership",
					"outputs": [],
					"stateMutability": "nonpayable",
					"type": "function"
				},
				{
					"stateMutability": "payable",
					"type": "receive"
				}
			],
			"devdoc": {
				"kind": "dev",
				"methods": {
					"owner()": {
						"details": "Returns the address of the current owner."
					},
					"renounceOwnership()": {
						"details": "Leaves the contract without owner. It will not be possible to call `onlyOwner` functions anymore. Can only be called by the current owner. NOTE: Renouncing ownership will leave the contract without an owner, thereby removing any functionality that is only available to the owner."
					},
					"transferOwnership(address)": {
						"details": "Transfers ownership of the contract to a new account (`newOwner`). Can only be called by the current owner."
					}
				},
				"version": 1
			},
			"evm": {
				"assembly": "    /* \"contracts/Consorcio.sol\":192:2974  contract Consorcio is Ownable {... */\n  mstore(0x40, 0x80)\n    /* \"contracts/Consorcio.sol\":611:683  constructor() {... */\n  callvalue\n  dup1\n  iszero\n  tag_1\n  jumpi\n  0x00\n  dup1\n  revert\ntag_1:\n  pop\n    /* \"@openzeppelin/contracts/access/Ownable.sol\":936:968  _transferOwnership(_msgSender()) */\n  tag_5\n    /* \"@openzeppelin/contracts/access/Ownable.sol\":955:967  _msgSender() */\n  tag_6\n    /* \"@openzeppelin/contracts/access/Ownable.sol\":955:965  _msgSender */\n  0x0100000000\n  tag_7\n  dup2\n  mul\n    /* \"@openzeppelin/contracts/access/Ownable.sol\":955:967  _msgSender() */\n  div\n  jump\t// in\ntag_6:\n    /* \"@openzeppelin/contracts/access/Ownable.sol\":936:954  _transferOwnership */\n  0x0100000000\n  tag_8\n  dup2\n  mul\n    /* \"@openzeppelin/contracts/access/Ownable.sol\":936:968  _transferOwnership(_msgSender()) */\n  div\n  jump\t// in\ntag_5:\n    /* \"contracts/Consorcio.sol\":662:675  new Service() */\n  mload(0x40)\n  tag_10\n  swap1\n  tag_11\n  jump\t// in\ntag_10:\n  mload(0x40)\n  dup1\n  swap2\n  sub\n  swap1\n  0x00\n  create\n  dup1\n  iszero\n  dup1\n  iszero\n  tag_12\n  jumpi\n  returndatasize\n  0x00\n  dup1\n  returndatacopy\n  revert(0x00, returndatasize)\ntag_12:\n  pop\n    /* \"contracts/Consorcio.sol\":636:659  serviceContractInstance */\n  0x01\n    /* \"contracts/Consorcio.sol\":636:675  serviceContractInstance = new Service() */\n  dup1\n  sload\n  not(sub(exp(0x02, 0xa0), 0x01))\n  and\n  sub(exp(0x02, 0xa0), 0x01)\n  swap3\n  swap1\n  swap3\n  and\n  swap2\n  swap1\n  swap2\n  or\n  swap1\n  sstore\n    /* \"contracts/Consorcio.sol\":192:2974  contract Consorcio is Ownable {... */\n  jump(tag_13)\n    /* \"@openzeppelin/contracts/utils/Context.sol\":640:736  function _msgSender() internal view virtual returns (address) {... */\ntag_7:\n    /* \"@openzeppelin/contracts/utils/Context.sol\":719:729  msg.sender */\n  caller\n  swap1\n    /* \"@openzeppelin/contracts/utils/Context.sol\":640:736  function _msgSender() internal view virtual returns (address) {... */\n  jump\t// out\n    /* \"@openzeppelin/contracts/access/Ownable.sol\":2433:2620  function _transferOwnership(address newOwner) internal virtual {... */\ntag_8:\n    /* \"@openzeppelin/contracts/access/Ownable.sol\":2506:2522  address oldOwner */\n  0x00\n    /* \"@openzeppelin/contracts/access/Ownable.sol\":2525:2531  _owner */\n  dup1\n  sload\n  sub(exp(0x02, 0xa0), 0x01)\n    /* \"@openzeppelin/contracts/access/Ownable.sol\":2541:2558  _owner = newOwner */\n  dup4\n  dup2\n  and\n  not(sub(exp(0x02, 0xa0), 0x01))\n  dup4\n  and\n  dup2\n  or\n  dup5\n  sstore\n    /* \"@openzeppelin/contracts/access/Ownable.sol\":2573:2613  OwnershipTransferred(oldOwner, newOwner) */\n  mload(0x40)\n    /* \"@openzeppelin/contracts/access/Ownable.sol\":2525:2531  _owner */\n  swap2\n  swap1\n  swap3\n  and\n  swap3\n  dup4\n  swap2\n    /* \"@openzeppelin/contracts/access/Ownable.sol\":2573:2613  OwnershipTransferred(oldOwner, newOwner) */\n  0x8be0079c531659141344cd1fd0a4f28419497f9722a3daafe3b4186f6b6457e0\n  swap2\n    /* \"@openzeppelin/contracts/access/Ownable.sol\":2506:2522  address oldOwner */\n  swap1\n    /* \"@openzeppelin/contracts/access/Ownable.sol\":2573:2613  OwnershipTransferred(oldOwner, newOwner) */\n  log3\n    /* \"@openzeppelin/contracts/access/Ownable.sol\":2496:2620  {... */\n  pop\n    /* \"@openzeppelin/contracts/access/Ownable.sol\":2433:2620  function _transferOwnership(address newOwner) internal virtual {... */\n  pop\n  jump\t// out\n    /* \"contracts/Consorcio.sol\":192:2974  contract Consorcio is Ownable {... */\ntag_11:\n  dataSize(sub_1)\n  dup1\n  dataOffset(sub_1)\n  dup4\n  codecopy\n  add\n  swap1\n  jump\t// out\ntag_13:\n  dataSize(sub_0)\n  dup1\n  dataOffset(sub_0)\n  0x00\n  codecopy\n  0x00\n  return\nstop\n\nsub_0: assembly {\n        /* \"contracts/Consorcio.sol\":192:2974  contract Consorcio is Ownable {... */\n      mstore(0x40, 0x80)\n      jumpi(tag_1, lt(calldatasize, 0x04))\n      calldataload(0x00)\n      0x0100000000000000000000000000000000000000000000000000000000\n      swap1\n      div\n      dup1\n      0x7ca2e656\n      gt\n      tag_14\n      jumpi\n      dup1\n      0x7ca2e656\n      eq\n      tag_8\n      jumpi\n      dup1\n      0x8da5cb5b\n      eq\n      tag_9\n      jumpi\n      dup1\n      0xcc0395bf\n      eq\n      tag_10\n      jumpi\n      dup1\n      0xcd7d77c5\n      eq\n      tag_11\n      jumpi\n      dup1\n      0xec3ab274\n      eq\n      tag_12\n      jumpi\n      dup1\n      0xf2fde38b\n      eq\n      tag_13\n      jumpi\n      stop\n    tag_14:\n      dup1\n      0x2237300f\n      eq\n      tag_3\n      jumpi\n      dup1\n      0x42e36b3b\n      eq\n      tag_4\n      jumpi\n      dup1\n      0x6f9fb98a\n      eq\n      tag_5\n      jumpi\n      dup1\n      0x715018a6\n      eq\n      tag_6\n      jumpi\n      dup1\n      0x72673e31\n      eq\n      tag_7\n      jumpi\n      stop\n    tag_1:\n      jumpi(tag_2, calldatasize)\n      stop\n    tag_2:\n      stop\n        /* \"contracts/Consorcio.sol\":2365:2591  function addNewEmployee(string memory _name, address _employeeAddress, string memory _profession, uint _salary) public onlyOwner {... */\n    tag_3:\n      callvalue\n      dup1\n      iszero\n      tag_19\n      jumpi\n      0x00\n      dup1\n      revert\n    tag_19:\n      pop\n      tag_2\n      tag_21\n      calldatasize\n      0x04\n      tag_22\n      jump\t// in\n    tag_21:\n      tag_23\n      jump\t// in\n        /* \"contracts/Consorcio.sol\":1286:1701  function paySalaries() public payable onlyOwner paid{... */\n    tag_4:\n      tag_2\n      tag_25\n      jump\t// in\n        /* \"contracts/Consorcio.sol\":2857:2971  function getContractBalance() public view returns(uint256 balance) {... */\n    tag_5:\n      callvalue\n      dup1\n      iszero\n      tag_26\n      jumpi\n      0x00\n      dup1\n      revert\n    tag_26:\n      pop\n      mload(0x40)\n        /* \"contracts/Consorcio.sol\":2950:2954  this */\n      address\n        /* \"contracts/Consorcio.sol\":2942:2963  address(this).balance */\n      balance\n        /* \"#utility.yul\":1984:2009   */\n      dup2\n      mstore\n        /* \"#utility.yul\":1972:1974   */\n      0x20\n        /* \"#utility.yul\":1957:1975   */\n      add\n        /* \"contracts/Consorcio.sol\":2857:2971  function getContractBalance() public view returns(uint256 balance) {... */\n    tag_29:\n      mload(0x40)\n      dup1\n      swap2\n      sub\n      swap1\n      return\n        /* \"@openzeppelin/contracts/access/Ownable.sol\":1831:1932  function renounceOwnership() public virtual onlyOwner {... */\n    tag_6:\n      callvalue\n      dup1\n      iszero\n      tag_31\n      jumpi\n      0x00\n      dup1\n      revert\n    tag_31:\n      pop\n      tag_2\n      tag_33\n      jump\t// in\n        /* \"contracts/Consorcio.sol\":2599:2738  function addNewService(string memory _name, uint _price) public onlyOwner {... */\n    tag_7:\n      callvalue\n      dup1\n      iszero\n      tag_34\n      jumpi\n      0x00\n      dup1\n      revert\n    tag_34:\n      pop\n      tag_2\n      tag_36\n      calldatasize\n      0x04\n      tag_37\n      jump\t// in\n    tag_36:\n      tag_38\n      jump\t// in\n        /* \"contracts/Consorcio.sol\":2750:2849  function showContractAddress() public view returns(address) {... */\n    tag_8:\n      callvalue\n      dup1\n      iszero\n      tag_39\n      jumpi\n      0x00\n      dup1\n      revert\n    tag_39:\n      pop\n        /* \"contracts/Consorcio.sol\":2836:2840  this */\n      address\n        /* \"contracts/Consorcio.sol\":2750:2849  function showContractAddress() public view returns(address) {... */\n    tag_40:\n      mload(0x40)\n      sub(exp(0x02, 0xa0), 0x01)\n        /* \"#utility.yul\":2579:2634   */\n      swap1\n      swap2\n      and\n        /* \"#utility.yul\":2561:2635   */\n      dup2\n      mstore\n        /* \"#utility.yul\":2549:2551   */\n      0x20\n        /* \"#utility.yul\":2534:2552   */\n      add\n        /* \"contracts/Consorcio.sol\":2750:2849  function showContractAddress() public view returns(address) {... */\n      tag_29\n        /* \"#utility.yul\":2415:2641   */\n      jump\n        /* \"@openzeppelin/contracts/access/Ownable.sol\":1201:1286  function owner() public view virtual returns (address) {... */\n    tag_9:\n      callvalue\n      dup1\n      iszero\n      tag_44\n      jumpi\n      0x00\n      dup1\n      revert\n    tag_44:\n      pop\n        /* \"@openzeppelin/contracts/access/Ownable.sol\":1247:1254  address */\n      0x00\n        /* \"@openzeppelin/contracts/access/Ownable.sol\":1273:1279  _owner */\n      sload\n      sub(exp(0x02, 0xa0), 0x01)\n      and\n        /* \"@openzeppelin/contracts/access/Ownable.sol\":1201:1286  function owner() public view virtual returns (address) {... */\n      jump(tag_40)\n        /* \"contracts/Consorcio.sol\":2120:2357  function addNewTenant(string memory _name, address _tenantAddress, uint _rentalCost, string memory _residence) public onlyOwner {... */\n    tag_10:\n      callvalue\n      dup1\n      iszero\n      tag_48\n      jumpi\n      0x00\n      dup1\n      revert\n    tag_48:\n      pop\n      tag_2\n      tag_50\n      calldatasize\n      0x04\n      tag_51\n      jump\t// in\n    tag_50:\n      tag_52\n      jump\t// in\n        /* \"contracts/Consorcio.sol\":2061:2112  function payService(uint index) public onlyOwner {} */\n    tag_11:\n      callvalue\n      dup1\n      iszero\n      tag_53\n      jumpi\n      0x00\n      dup1\n      revert\n    tag_53:\n      pop\n      tag_2\n      tag_55\n      calldatasize\n      0x04\n      tag_56\n      jump\t// in\n    tag_55:\n      tag_57\n      jump\t// in\n        /* \"contracts/Consorcio.sol\":1709:2053  function payAllServices() public payable onlyOwner paid{... */\n    tag_12:\n      tag_2\n      tag_59\n      jump\t// in\n        /* \"@openzeppelin/contracts/access/Ownable.sol\":2081:2279  function transferOwnership(address newOwner) public virtual onlyOwner {... */\n    tag_13:\n      callvalue\n      dup1\n      iszero\n      tag_60\n      jumpi\n      0x00\n      dup1\n      revert\n    tag_60:\n      pop\n      tag_2\n      tag_62\n      calldatasize\n      0x04\n      tag_63\n      jump\t// in\n    tag_62:\n      tag_64\n      jump\t// in\n        /* \"contracts/Consorcio.sol\":2365:2591  function addNewEmployee(string memory _name, address _employeeAddress, string memory _profession, uint _salary) public onlyOwner {... */\n    tag_23:\n        /* \"@openzeppelin/contracts/access/Ownable.sol\":1094:1107  _checkOwner() */\n      tag_66\n        /* \"@openzeppelin/contracts/access/Ownable.sol\":1094:1105  _checkOwner */\n      tag_67\n        /* \"@openzeppelin/contracts/access/Ownable.sol\":1094:1107  _checkOwner() */\n      jump\t// in\n    tag_66:\n        /* \"contracts/Consorcio.sol\":2505:2517  employeeList */\n      0x02\n        /* \"contracts/Consorcio.sol\":2536:2541  _name */\n      dup5\n        /* \"contracts/Consorcio.sol\":2543:2559  _employeeAddress */\n      dup5\n        /* \"contracts/Consorcio.sol\":2561:2572  _profession */\n      dup5\n        /* \"contracts/Consorcio.sol\":2574:2581  _salary */\n      dup5\n        /* \"contracts/Consorcio.sol\":2523:2582  new Employee(_name, _employeeAddress, _profession, _salary) */\n      mload(0x40)\n      tag_69\n      swap1\n      tag_70\n      jump\t// in\n    tag_69:\n      tag_71\n      swap5\n      swap4\n      swap3\n      swap2\n      swap1\n      tag_72\n      jump\t// in\n    tag_71:\n      mload(0x40)\n      dup1\n      swap2\n      sub\n      swap1\n      0x00\n      create\n      dup1\n      iszero\n      dup1\n      iszero\n      tag_73\n      jumpi\n      returndatasize\n      0x00\n      dup1\n      returndatacopy\n      revert(0x00, returndatasize)\n    tag_73:\n      pop\n        /* \"contracts/Consorcio.sol\":2505:2583  employeeList.push(new Employee(_name, _employeeAddress, _profession, _salary)) */\n      dup2\n      sload\n      0x01\n      dup2\n      add\n      dup4\n      sstore\n      0x00\n      swap3\n      dup4\n      mstore\n      0x20\n      swap1\n      swap3\n      keccak256\n      swap1\n      swap2\n      add\n      dup1\n      sload\n      not(0xffffffffffffffffffffffffffffffffffffffff)\n      and\n      sub(exp(0x02, 0xa0), 0x01)\n      swap1\n      swap3\n      and\n      swap2\n      swap1\n      swap2\n      or\n      swap1\n      sstore\n      pop\n      pop\n      pop\n      pop\n        /* \"contracts/Consorcio.sol\":2365:2591  function addNewEmployee(string memory _name, address _employeeAddress, string memory _profession, uint _salary) public onlyOwner {... */\n      jump\t// out\n        /* \"contracts/Consorcio.sol\":1286:1701  function paySalaries() public payable onlyOwner paid{... */\n    tag_25:\n        /* \"@openzeppelin/contracts/access/Ownable.sol\":1094:1107  _checkOwner() */\n      tag_76\n        /* \"@openzeppelin/contracts/access/Ownable.sol\":1094:1105  _checkOwner */\n      tag_67\n        /* \"@openzeppelin/contracts/access/Ownable.sol\":1094:1107  _checkOwner() */\n      jump\t// in\n    tag_76:\n        /* \"contracts/Consorcio.sol\":1382:1409  getTotalAmountForSalaries() */\n      tag_79\n        /* \"contracts/Consorcio.sol\":1382:1407  getTotalAmountForSalaries */\n      tag_80\n        /* \"contracts/Consorcio.sol\":1382:1409  getTotalAmountForSalaries() */\n      jump\t// in\n    tag_79:\n        /* \"contracts/Consorcio.sol\":1365:1369  this */\n      address\n        /* \"contracts/Consorcio.sol\":1357:1378  address(this).balance */\n      balance\n        /* \"contracts/Consorcio.sol\":1357:1409  address(this).balance >= getTotalAmountForSalaries() */\n      lt\n      iszero\n        /* \"contracts/Consorcio.sol\":1349:1457  require(address(this).balance >= getTotalAmountForSalaries(), \"The balance of the contract is insufficient\") */\n      tag_81\n      jumpi\n      mload(0x40)\n      mul(0x461bcd, exp(0x02, 0xe5))\n      dup2\n      mstore\n      0x04\n      add\n      tag_82\n      swap1\n      tag_83\n      jump\t// in\n    tag_82:\n      mload(0x40)\n      dup1\n      swap2\n      sub\n      swap1\n      revert\n    tag_81:\n        /* \"contracts/Consorcio.sol\":1472:1478  uint i */\n      0x00\n        /* \"contracts/Consorcio.sol\":1468:1694  for(uint i = 0; i < employeeList.length; i++) {... */\n    tag_84:\n        /* \"contracts/Consorcio.sol\":1488:1500  employeeList */\n      0x02\n        /* \"contracts/Consorcio.sol\":1488:1507  employeeList.length */\n      sload\n        /* \"contracts/Consorcio.sol\":1484:1507  i < employeeList.length */\n      dup2\n      lt\n        /* \"contracts/Consorcio.sol\":1468:1694  for(uint i = 0; i < employeeList.length; i++) {... */\n      iszero\n      tag_85\n      jumpi\n        /* \"contracts/Consorcio.sol\":1530:1542  bool success */\n      0x00\n        /* \"contracts/Consorcio.sol\":1555:1567  employeeList */\n      0x02\n        /* \"contracts/Consorcio.sol\":1568:1569  i */\n      dup3\n        /* \"contracts/Consorcio.sol\":1555:1570  employeeList[i] */\n      dup2\n      sload\n      dup2\n      lt\n      tag_88\n      jumpi\n      tag_88\n      tag_89\n      jump\t// in\n    tag_88:\n      0x00\n      swap2\n      dup3\n      mstore\n      0x20\n      swap2\n      dup3\n      swap1\n      keccak256\n      add\n      sload\n        /* \"contracts/Consorcio.sol\":1555:1588  employeeList[i].withdrawAddress() */\n      0x40\n      dup1\n      mload\n      0x1581b60000000000000000000000000000000000000000000000000000000000\n      dup2\n      mstore\n      swap1\n      mload\n      sub(exp(0x02, 0xa0), 0x01)\n        /* \"contracts/Consorcio.sol\":1555:1570  employeeList[i] */\n      swap1\n      swap3\n      and\n      swap3\n        /* \"contracts/Consorcio.sol\":1555:1586  employeeList[i].withdrawAddress */\n      0x1581b600\n      swap3\n        /* \"contracts/Consorcio.sol\":1555:1588  employeeList[i].withdrawAddress() */\n      0x04\n      dup1\n      dup5\n      add\n      swap4\n      dup3\n      swap1\n      sub\n      add\n      dup2\n        /* \"contracts/Consorcio.sol\":1555:1570  employeeList[i] */\n      dup7\n        /* \"contracts/Consorcio.sol\":1555:1588  employeeList[i].withdrawAddress() */\n      gas\n      staticcall\n      iszero\n      dup1\n      iszero\n      tag_92\n      jumpi\n      returndatasize\n      0x00\n      dup1\n      returndatacopy\n      revert(0x00, returndatasize)\n    tag_92:\n      pop\n      pop\n      pop\n      pop\n      mload(0x40)\n      returndatasize\n      not(0x1f)\n      0x1f\n      dup3\n      add\n      and\n      dup3\n      add\n      dup1\n      0x40\n      mstore\n      pop\n      dup2\n      add\n      swap1\n      tag_93\n      swap2\n      swap1\n      tag_94\n      jump\t// in\n    tag_93:\n      sub(exp(0x02, 0xa0), 0x01)\n        /* \"contracts/Consorcio.sol\":1547:1594  address(employeeList[i].withdrawAddress()).call */\n      and\n        /* \"contracts/Consorcio.sol\":1602:1614  employeeList */\n      0x02\n        /* \"contracts/Consorcio.sol\":1615:1616  i */\n      dup4\n        /* \"contracts/Consorcio.sol\":1602:1617  employeeList[i] */\n      dup2\n      sload\n      dup2\n      lt\n      tag_96\n      jumpi\n      tag_96\n      tag_89\n      jump\t// in\n    tag_96:\n      0x00\n      swap2\n      dup3\n      mstore\n      0x20\n      swap2\n      dup3\n      swap1\n      keccak256\n      add\n      sload\n        /* \"contracts/Consorcio.sol\":1602:1626  employeeList[i].salary() */\n      0x40\n      dup1\n      mload\n      0x0397b65200000000000000000000000000000000000000000000000000000000\n      dup2\n      mstore\n      swap1\n      mload\n      sub(exp(0x02, 0xa0), 0x01)\n        /* \"contracts/Consorcio.sol\":1602:1617  employeeList[i] */\n      swap1\n      swap3\n      and\n      swap3\n        /* \"contracts/Consorcio.sol\":1602:1624  employeeList[i].salary */\n      0x0397b652\n      swap3\n        /* \"contracts/Consorcio.sol\":1602:1626  employeeList[i].salary() */\n      0x04\n      dup1\n      dup5\n      add\n      swap4\n      dup3\n      swap1\n      sub\n      add\n      dup2\n        /* \"contracts/Consorcio.sol\":1602:1617  employeeList[i] */\n      dup7\n        /* \"contracts/Consorcio.sol\":1602:1626  employeeList[i].salary() */\n      gas\n      staticcall\n      iszero\n      dup1\n      iszero\n      tag_99\n      jumpi\n      returndatasize\n      0x00\n      dup1\n      returndatacopy\n      revert(0x00, returndatasize)\n    tag_99:\n      pop\n      pop\n      pop\n      pop\n      mload(0x40)\n      returndatasize\n      not(0x1f)\n      0x1f\n      dup3\n      add\n      and\n      dup3\n      add\n      dup1\n      0x40\n      mstore\n      pop\n      dup2\n      add\n      swap1\n      tag_100\n      swap2\n      swap1\n      tag_101\n      jump\t// in\n    tag_100:\n        /* \"contracts/Consorcio.sol\":1547:1631  address(employeeList[i].withdrawAddress()).call{value: employeeList[i].salary()}(\"\") */\n      mload(0x40)\n      0x00\n      dup2\n      dup2\n      dup2\n      dup6\n      dup8\n      gas\n      call\n      swap3\n      pop\n      pop\n      pop\n      returndatasize\n      dup1\n      0x00\n      dup2\n      eq\n      tag_106\n      jumpi\n      mload(0x40)\n      swap2\n      pop\n      and(add(returndatasize, 0x3f), not(0x1f))\n      dup3\n      add\n      0x40\n      mstore\n      returndatasize\n      dup3\n      mstore\n      returndatasize\n      0x00\n      0x20\n      dup5\n      add\n      returndatacopy\n      jump(tag_105)\n    tag_106:\n      0x60\n      swap2\n      pop\n    tag_105:\n      pop\n        /* \"contracts/Consorcio.sol\":1529:1631  (bool success,) = address(employeeList[i].withdrawAddress()).call{value: employeeList[i].salary()}(\"\") */\n      pop\n      swap1\n      pop\n        /* \"contracts/Consorcio.sol\":1654:1661  success */\n      dup1\n        /* \"contracts/Consorcio.sol\":1646:1682  require(success, \"Transfer failed.\") */\n      tag_107\n      jumpi\n      mload(0x40)\n      mul(0x461bcd, exp(0x02, 0xe5))\n      dup2\n      mstore\n        /* \"#utility.yul\":6302:6304   */\n      0x20\n        /* \"contracts/Consorcio.sol\":1646:1682  require(success, \"Transfer failed.\") */\n      0x04\n      dup3\n      add\n        /* \"#utility.yul\":6284:6305   */\n      mstore\n        /* \"#utility.yul\":6341:6343   */\n      0x10\n        /* \"#utility.yul\":6321:6339   */\n      0x24\n      dup3\n      add\n        /* \"#utility.yul\":6314:6344   */\n      mstore\n        /* \"#utility.yul\":6380:6398   */\n      0x5472616e73666572206661696c65642e00000000000000000000000000000000\n        /* \"#utility.yul\":6360:6378   */\n      0x44\n      dup3\n      add\n        /* \"#utility.yul\":6353:6399   */\n      mstore\n        /* \"#utility.yul\":6416:6434   */\n      0x64\n      add\n        /* \"contracts/Consorcio.sol\":1646:1682  require(success, \"Transfer failed.\") */\n      tag_82\n        /* \"#utility.yul\":6100:6440   */\n      jump\n        /* \"contracts/Consorcio.sol\":1646:1682  require(success, \"Transfer failed.\") */\n    tag_107:\n      pop\n        /* \"contracts/Consorcio.sol\":1509:1512  i++ */\n      dup1\n      tag_110\n      dup2\n      tag_111\n      jump\t// in\n    tag_110:\n      swap2\n      pop\n      pop\n        /* \"contracts/Consorcio.sol\":1468:1694  for(uint i = 0; i < employeeList.length; i++) {... */\n      jump(tag_84)\n    tag_85:\n      pop\n        /* \"contracts/Consorcio.sol\":1225:1266  PaymentSucessfully(msg.sender, msg.value) */\n      0x40\n      dup1\n      mload\n        /* \"contracts/Consorcio.sol\":1244:1254  msg.sender */\n      caller\n        /* \"#utility.yul\":6948:7022   */\n      dup2\n      mstore\n        /* \"contracts/Consorcio.sol\":1256:1265  msg.value */\n      callvalue\n        /* \"#utility.yul\":7053:7055   */\n      0x20\n        /* \"#utility.yul\":7038:7056   */\n      dup3\n      add\n        /* \"#utility.yul\":7031:7065   */\n      mstore\n        /* \"contracts/Consorcio.sol\":1225:1266  PaymentSucessfully(msg.sender, msg.value) */\n      0xa54079b6fa54213fb4fb5b70e2c04892b228420bd1023ba63d9f7f7dcce73ca9\n      swap2\n        /* \"#utility.yul\":6921:6939   */\n      add\n        /* \"contracts/Consorcio.sol\":1225:1266  PaymentSucessfully(msg.sender, msg.value) */\n    tag_112:\n      mload(0x40)\n      dup1\n      swap2\n      sub\n      swap1\n      log1\n        /* \"contracts/Consorcio.sol\":1286:1701  function paySalaries() public payable onlyOwner paid{... */\n      jump\t// out\n        /* \"@openzeppelin/contracts/access/Ownable.sol\":1831:1932  function renounceOwnership() public virtual onlyOwner {... */\n    tag_33:\n        /* \"@openzeppelin/contracts/access/Ownable.sol\":1094:1107  _checkOwner() */\n      tag_116\n        /* \"@openzeppelin/contracts/access/Ownable.sol\":1094:1105  _checkOwner */\n      tag_67\n        /* \"@openzeppelin/contracts/access/Ownable.sol\":1094:1107  _checkOwner() */\n      jump\t// in\n    tag_116:\n        /* \"@openzeppelin/contracts/access/Ownable.sol\":1895:1925  _transferOwnership(address(0)) */\n      tag_118\n        /* \"@openzeppelin/contracts/access/Ownable.sol\":1922:1923  0 */\n      0x00\n        /* \"@openzeppelin/contracts/access/Ownable.sol\":1895:1913  _transferOwnership */\n      tag_119\n        /* \"@openzeppelin/contracts/access/Ownable.sol\":1895:1925  _transferOwnership(address(0)) */\n      jump\t// in\n    tag_118:\n        /* \"@openzeppelin/contracts/access/Ownable.sol\":1831:1932  function renounceOwnership() public virtual onlyOwner {... */\n      jump\t// out\n        /* \"contracts/Consorcio.sol\":2599:2738  function addNewService(string memory _name, uint _price) public onlyOwner {... */\n    tag_38:\n        /* \"@openzeppelin/contracts/access/Ownable.sol\":1094:1107  _checkOwner() */\n      tag_121\n        /* \"@openzeppelin/contracts/access/Ownable.sol\":1094:1105  _checkOwner */\n      tag_67\n        /* \"@openzeppelin/contracts/access/Ownable.sol\":1094:1107  _checkOwner() */\n      jump\t// in\n    tag_121:\n        /* \"contracts/Consorcio.sol\":2701:2729  ServiceStruct(_name, _price) */\n      0x40\n      dup1\n      mload\n      dup1\n      dup3\n      add\n      swap1\n      swap2\n      mstore\n      dup3\n      dup2\n      mstore\n      0x20\n      dup2\n      add\n      dup3\n      swap1\n      mstore\n        /* \"contracts/Consorcio.sol\":2684:2695  serviceList */\n      0x04\n        /* \"contracts/Consorcio.sol\":2684:2730  serviceList.push(ServiceStruct(_name, _price)) */\n      dup1\n      sload\n      0x01\n      dup2\n      add\n      dup3\n      sstore\n      0x00\n      swap2\n      swap1\n      swap2\n      mstore\n      dup2\n      mload\n      0x02\n      swap1\n      swap2\n      mul\n      0x8a35acfbc15ff81a39ae7d344fd709f28e8600b4aa8c65c6b64bfe7fe36bd19b\n      add\n      swap1\n      dup2\n      swap1\n      tag_124\n      swap1\n      dup3\n      tag_125\n      jump\t// in\n    tag_124:\n      pop\n      0x20\n      dup3\n      add\n      mload\n      dup2\n      0x01\n      add\n      sstore\n      pop\n      pop\n        /* \"contracts/Consorcio.sol\":2599:2738  function addNewService(string memory _name, uint _price) public onlyOwner {... */\n      pop\n      pop\n      jump\t// out\n        /* \"contracts/Consorcio.sol\":2120:2357  function addNewTenant(string memory _name, address _tenantAddress, uint _rentalCost, string memory _residence) public onlyOwner {... */\n    tag_52:\n        /* \"@openzeppelin/contracts/access/Ownable.sol\":1094:1107  _checkOwner() */\n      tag_129\n        /* \"@openzeppelin/contracts/access/Ownable.sol\":1094:1105  _checkOwner */\n      tag_67\n        /* \"@openzeppelin/contracts/access/Ownable.sol\":1094:1107  _checkOwner() */\n      jump\t// in\n    tag_129:\n        /* \"contracts/Consorcio.sol\":2259:2269  tenantList */\n      0x03\n        /* \"contracts/Consorcio.sol\":2286:2291  _name */\n      dup5\n        /* \"contracts/Consorcio.sol\":2293:2307  _tenantAddress */\n      dup5\n        /* \"contracts/Consorcio.sol\":2309:2320  _rentalCost */\n      dup5\n        /* \"contracts/Consorcio.sol\":2322:2332  _residence */\n      dup5\n        /* \"contracts/Consorcio.sol\":2342:2346  this */\n      address\n        /* \"contracts/Consorcio.sol\":2275:2348  new Tenant(_name, _tenantAddress, _rentalCost, _residence, address(this)) */\n      mload(0x40)\n      tag_131\n      swap1\n      tag_132\n      jump\t// in\n    tag_131:\n      tag_71\n      swap6\n      swap5\n      swap4\n      swap3\n      swap2\n      swap1\n      tag_134\n      jump\t// in\n        /* \"contracts/Consorcio.sol\":2061:2112  function payService(uint index) public onlyOwner {} */\n    tag_57:\n        /* \"@openzeppelin/contracts/access/Ownable.sol\":1094:1107  _checkOwner() */\n      tag_138\n        /* \"@openzeppelin/contracts/access/Ownable.sol\":1094:1105  _checkOwner */\n      tag_67\n        /* \"@openzeppelin/contracts/access/Ownable.sol\":1094:1107  _checkOwner() */\n      jump\t// in\n    tag_138:\n        /* \"contracts/Consorcio.sol\":2061:2112  function payService(uint index) public onlyOwner {} */\n      pop\n      jump\t// out\n        /* \"contracts/Consorcio.sol\":1709:2053  function payAllServices() public payable onlyOwner paid{... */\n    tag_59:\n        /* \"@openzeppelin/contracts/access/Ownable.sol\":1094:1107  _checkOwner() */\n      tag_141\n        /* \"@openzeppelin/contracts/access/Ownable.sol\":1094:1105  _checkOwner */\n      tag_67\n        /* \"@openzeppelin/contracts/access/Ownable.sol\":1094:1107  _checkOwner() */\n      jump\t// in\n    tag_141:\n        /* \"contracts/Consorcio.sol\":1775:1786  uint amount */\n      0x00\n        /* \"contracts/Consorcio.sol\":1789:1815  getTotalAmountForService() */\n      tag_144\n        /* \"contracts/Consorcio.sol\":1789:1813  getTotalAmountForService */\n      tag_145\n        /* \"contracts/Consorcio.sol\":1789:1815  getTotalAmountForService() */\n      jump\t// in\n    tag_144:\n        /* \"contracts/Consorcio.sol\":1775:1815  uint amount = getTotalAmountForService() */\n      swap1\n      pop\n        /* \"contracts/Consorcio.sol\":1842:1846  this */\n      address\n        /* \"contracts/Consorcio.sol\":1834:1855  address(this).balance */\n      balance\n        /* \"contracts/Consorcio.sol\":1834:1865  address(this).balance >= amount */\n      dup2\n      gt\n      iszero\n        /* \"contracts/Consorcio.sol\":1826:1913  require(address(this).balance >= amount, \"The balance of the contract is insufficient\") */\n      tag_146\n      jumpi\n      mload(0x40)\n      mul(0x461bcd, exp(0x02, 0xe5))\n      dup2\n      mstore\n      0x04\n      add\n      tag_82\n      swap1\n      tag_83\n      jump\t// in\n    tag_146:\n        /* \"contracts/Consorcio.sol\":1950:1973  serviceContractInstance */\n      sload(0x01)\n        /* \"contracts/Consorcio.sol\":1942:1998  address(serviceContractInstance).call{value: amount}(\"\") */\n      mload(0x40)\n        /* \"contracts/Consorcio.sol\":1925:1937  bool success */\n      0x00\n      swap2\n      sub(exp(0x02, 0xa0), 0x01)\n        /* \"contracts/Consorcio.sol\":1950:1973  serviceContractInstance */\n      and\n      swap1\n        /* \"contracts/Consorcio.sol\":1987:1993  amount */\n      dup4\n      swap1\n        /* \"contracts/Consorcio.sol\":1925:1937  bool success */\n      dup4\n        /* \"contracts/Consorcio.sol\":1942:1998  address(serviceContractInstance).call{value: amount}(\"\") */\n      dup2\n        /* \"contracts/Consorcio.sol\":1925:1937  bool success */\n      dup2\n        /* \"contracts/Consorcio.sol\":1942:1998  address(serviceContractInstance).call{value: amount}(\"\") */\n      dup2\n        /* \"contracts/Consorcio.sol\":1987:1993  amount */\n      dup6\n        /* \"contracts/Consorcio.sol\":1950:1973  serviceContractInstance */\n      dup8\n        /* \"contracts/Consorcio.sol\":1942:1998  address(serviceContractInstance).call{value: amount}(\"\") */\n      gas\n      call\n      swap3\n      pop\n      pop\n      pop\n      returndatasize\n      dup1\n      0x00\n      dup2\n      eq\n      tag_151\n      jumpi\n      mload(0x40)\n      swap2\n      pop\n      and(add(returndatasize, 0x3f), not(0x1f))\n      dup3\n      add\n      0x40\n      mstore\n      returndatasize\n      dup3\n      mstore\n      returndatasize\n      0x00\n      0x20\n      dup5\n      add\n      returndatacopy\n      jump(tag_150)\n    tag_151:\n      0x60\n      swap2\n      pop\n    tag_150:\n      pop\n        /* \"contracts/Consorcio.sol\":1924:1998  (bool success,) = address(serviceContractInstance).call{value: amount}(\"\") */\n      pop\n      swap1\n      pop\n        /* \"contracts/Consorcio.sol\":2017:2024  success */\n      dup1\n        /* \"contracts/Consorcio.sol\":2009:2045  require(success, \"Transfer failed.\") */\n      tag_152\n      jumpi\n      mload(0x40)\n      mul(0x461bcd, exp(0x02, 0xe5))\n      dup2\n      mstore\n        /* \"#utility.yul\":6302:6304   */\n      0x20\n        /* \"contracts/Consorcio.sol\":2009:2045  require(success, \"Transfer failed.\") */\n      0x04\n      dup3\n      add\n        /* \"#utility.yul\":6284:6305   */\n      mstore\n        /* \"#utility.yul\":6341:6343   */\n      0x10\n        /* \"#utility.yul\":6321:6339   */\n      0x24\n      dup3\n      add\n        /* \"#utility.yul\":6314:6344   */\n      mstore\n        /* \"#utility.yul\":6380:6398   */\n      0x5472616e73666572206661696c65642e00000000000000000000000000000000\n        /* \"#utility.yul\":6360:6378   */\n      0x44\n      dup3\n      add\n        /* \"#utility.yul\":6353:6399   */\n      mstore\n        /* \"#utility.yul\":6416:6434   */\n      0x64\n      add\n        /* \"contracts/Consorcio.sol\":2009:2045  require(success, \"Transfer failed.\") */\n      tag_82\n        /* \"#utility.yul\":6100:6440   */\n      jump\n        /* \"contracts/Consorcio.sol\":2009:2045  require(success, \"Transfer failed.\") */\n    tag_152:\n      pop\n      pop\n        /* \"contracts/Consorcio.sol\":1225:1266  PaymentSucessfully(msg.sender, msg.value) */\n      0x40\n      dup1\n      mload\n        /* \"contracts/Consorcio.sol\":1244:1254  msg.sender */\n      caller\n        /* \"#utility.yul\":6948:7022   */\n      dup2\n      mstore\n        /* \"contracts/Consorcio.sol\":1256:1265  msg.value */\n      callvalue\n        /* \"#utility.yul\":7053:7055   */\n      0x20\n        /* \"#utility.yul\":7038:7056   */\n      dup3\n      add\n        /* \"#utility.yul\":7031:7065   */\n      mstore\n        /* \"contracts/Consorcio.sol\":1225:1266  PaymentSucessfully(msg.sender, msg.value) */\n      0xa54079b6fa54213fb4fb5b70e2c04892b228420bd1023ba63d9f7f7dcce73ca9\n      swap2\n        /* \"#utility.yul\":6921:6939   */\n      add\n        /* \"contracts/Consorcio.sol\":1225:1266  PaymentSucessfully(msg.sender, msg.value) */\n      tag_112\n        /* \"#utility.yul\":6774:7071   */\n      jump\n        /* \"@openzeppelin/contracts/access/Ownable.sol\":2081:2279  function transferOwnership(address newOwner) public virtual onlyOwner {... */\n    tag_64:\n        /* \"@openzeppelin/contracts/access/Ownable.sol\":1094:1107  _checkOwner() */\n      tag_156\n        /* \"@openzeppelin/contracts/access/Ownable.sol\":1094:1105  _checkOwner */\n      tag_67\n        /* \"@openzeppelin/contracts/access/Ownable.sol\":1094:1107  _checkOwner() */\n      jump\t// in\n    tag_156:\n      sub(exp(0x02, 0xa0), 0x01)\n        /* \"@openzeppelin/contracts/access/Ownable.sol\":2169:2191  newOwner != address(0) */\n      dup2\n      and\n        /* \"@openzeppelin/contracts/access/Ownable.sol\":2161:2234  require(newOwner != address(0), \"Ownable: new owner is the zero address\") */\n      tag_158\n      jumpi\n      mload(0x40)\n      mul(0x461bcd, exp(0x02, 0xe5))\n      dup2\n      mstore\n        /* \"#utility.yul\":10628:10630   */\n      0x20\n        /* \"@openzeppelin/contracts/access/Ownable.sol\":2161:2234  require(newOwner != address(0), \"Ownable: new owner is the zero address\") */\n      0x04\n      dup3\n      add\n        /* \"#utility.yul\":10610:10631   */\n      mstore\n        /* \"#utility.yul\":10667:10669   */\n      0x26\n        /* \"#utility.yul\":10647:10665   */\n      0x24\n      dup3\n      add\n        /* \"#utility.yul\":10640:10670   */\n      mstore\n        /* \"#utility.yul\":10706:10740   */\n      0x4f776e61626c653a206e6577206f776e657220697320746865207a65726f2061\n        /* \"#utility.yul\":10686:10704   */\n      0x44\n      dup3\n      add\n        /* \"#utility.yul\":10679:10741   */\n      mstore\n        /* \"#utility.yul\":10777:10785   */\n      0x6464726573730000000000000000000000000000000000000000000000000000\n        /* \"#utility.yul\":10757:10775   */\n      0x64\n      dup3\n      add\n        /* \"#utility.yul\":10750:10786   */\n      mstore\n        /* \"#utility.yul\":10803:10822   */\n      0x84\n      add\n        /* \"@openzeppelin/contracts/access/Ownable.sol\":2161:2234  require(newOwner != address(0), \"Ownable: new owner is the zero address\") */\n      tag_82\n        /* \"#utility.yul\":10426:10828   */\n      jump\n        /* \"@openzeppelin/contracts/access/Ownable.sol\":2161:2234  require(newOwner != address(0), \"Ownable: new owner is the zero address\") */\n    tag_158:\n        /* \"@openzeppelin/contracts/access/Ownable.sol\":2244:2272  _transferOwnership(newOwner) */\n      tag_138\n        /* \"@openzeppelin/contracts/access/Ownable.sol\":2263:2271  newOwner */\n      dup2\n        /* \"@openzeppelin/contracts/access/Ownable.sol\":2244:2262  _transferOwnership */\n      tag_119\n        /* \"@openzeppelin/contracts/access/Ownable.sol\":2244:2272  _transferOwnership(newOwner) */\n      jump\t// in\n        /* \"@openzeppelin/contracts/access/Ownable.sol\":1359:1489  function _checkOwner() internal view virtual {... */\n    tag_67:\n        /* \"@openzeppelin/contracts/access/Ownable.sol\":1247:1254  address */\n      0x00\n        /* \"@openzeppelin/contracts/access/Ownable.sol\":1273:1279  _owner */\n      sload\n      sub(exp(0x02, 0xa0), 0x01)\n      and\n        /* \"@openzeppelin/contracts/utils/Context.sol\":719:729  msg.sender */\n      caller\n        /* \"@openzeppelin/contracts/access/Ownable.sol\":1422:1445  owner() == _msgSender() */\n      eq\n        /* \"@openzeppelin/contracts/access/Ownable.sol\":1414:1482  require(owner() == _msgSender(), \"Ownable: caller is not the owner\") */\n      tag_118\n      jumpi\n      mload(0x40)\n      mul(0x461bcd, exp(0x02, 0xe5))\n      dup2\n      mstore\n        /* \"#utility.yul\":11035:11037   */\n      0x20\n        /* \"@openzeppelin/contracts/access/Ownable.sol\":1414:1482  require(owner() == _msgSender(), \"Ownable: caller is not the owner\") */\n      0x04\n      dup3\n      add\n        /* \"#utility.yul\":11017:11038   */\n      dup2\n      swap1\n      mstore\n        /* \"#utility.yul\":11054:11072   */\n      0x24\n      dup3\n      add\n        /* \"#utility.yul\":11047:11077   */\n      mstore\n        /* \"#utility.yul\":11113:11147   */\n      0x4f776e61626c653a2063616c6c6572206973206e6f7420746865206f776e6572\n        /* \"#utility.yul\":11093:11111   */\n      0x44\n      dup3\n      add\n        /* \"#utility.yul\":11086:11148   */\n      mstore\n        /* \"#utility.yul\":11165:11183   */\n      0x64\n      add\n        /* \"@openzeppelin/contracts/access/Ownable.sol\":1414:1482  require(owner() == _msgSender(), \"Ownable: caller is not the owner\") */\n      tag_82\n        /* \"#utility.yul\":10833:11189   */\n      jump\n        /* \"contracts/Consorcio.sol\":693:931  function getTotalAmountForSalaries() private view returns(uint){... */\n    tag_80:\n        /* \"contracts/Consorcio.sol\":751:755  uint */\n      0x00\n      dup1\n      dup1\n        /* \"contracts/Consorcio.sol\":793:900  for(uint i = 0; i < employeeList.length; i++) {... */\n    tag_170:\n        /* \"contracts/Consorcio.sol\":813:825  employeeList */\n      0x02\n        /* \"contracts/Consorcio.sol\":813:832  employeeList.length */\n      sload\n        /* \"contracts/Consorcio.sol\":809:832  i < employeeList.length */\n      dup2\n      lt\n        /* \"contracts/Consorcio.sol\":793:900  for(uint i = 0; i < employeeList.length; i++) {... */\n      iszero\n      tag_171\n      jumpi\n        /* \"contracts/Consorcio.sol\":864:876  employeeList */\n      0x02\n        /* \"contracts/Consorcio.sol\":877:878  i */\n      dup2\n        /* \"contracts/Consorcio.sol\":864:879  employeeList[i] */\n      dup2\n      sload\n      dup2\n      lt\n      tag_174\n      jumpi\n      tag_174\n      tag_89\n      jump\t// in\n    tag_174:\n      0x00\n      swap2\n      dup3\n      mstore\n      0x20\n      swap2\n      dup3\n      swap1\n      keccak256\n      add\n      sload\n        /* \"contracts/Consorcio.sol\":864:888  employeeList[i].salary() */\n      0x40\n      dup1\n      mload\n      0x0397b65200000000000000000000000000000000000000000000000000000000\n      dup2\n      mstore\n      swap1\n      mload\n      sub(exp(0x02, 0xa0), 0x01)\n        /* \"contracts/Consorcio.sol\":864:879  employeeList[i] */\n      swap1\n      swap3\n      and\n      swap3\n        /* \"contracts/Consorcio.sol\":864:886  employeeList[i].salary */\n      0x0397b652\n      swap3\n        /* \"contracts/Consorcio.sol\":864:888  employeeList[i].salary() */\n      0x04\n      dup1\n      dup5\n      add\n      swap4\n      dup3\n      swap1\n      sub\n      add\n      dup2\n        /* \"contracts/Consorcio.sol\":864:879  employeeList[i] */\n      dup7\n        /* \"contracts/Consorcio.sol\":864:888  employeeList[i].salary() */\n      gas\n      staticcall\n      iszero\n      dup1\n      iszero\n      tag_177\n      jumpi\n      returndatasize\n      0x00\n      dup1\n      returndatacopy\n      revert(0x00, returndatasize)\n    tag_177:\n      pop\n      pop\n      pop\n      pop\n      mload(0x40)\n      returndatasize\n      not(0x1f)\n      0x1f\n      dup3\n      add\n      and\n      dup3\n      add\n      dup1\n      0x40\n      mstore\n      pop\n      dup2\n      add\n      swap1\n      tag_178\n      swap2\n      swap1\n      tag_101\n      jump\t// in\n    tag_178:\n        /* \"contracts/Consorcio.sol\":854:888  amount += employeeList[i].salary() */\n      tag_179\n      swap1\n      dup4\n      tag_180\n      jump\t// in\n    tag_179:\n      swap2\n      pop\n        /* \"contracts/Consorcio.sol\":834:837  i++ */\n      dup1\n      tag_181\n      dup2\n      tag_111\n      jump\t// in\n    tag_181:\n      swap2\n      pop\n      pop\n        /* \"contracts/Consorcio.sol\":793:900  for(uint i = 0; i < employeeList.length; i++) {... */\n      jump(tag_170)\n    tag_171:\n      pop\n        /* \"contracts/Consorcio.sol\":917:923  amount */\n      swap2\n        /* \"contracts/Consorcio.sol\":693:931  function getTotalAmountForSalaries() private view returns(uint){... */\n      swap1\n      pop\n      jump\t// out\n        /* \"@openzeppelin/contracts/access/Ownable.sol\":2433:2620  function _transferOwnership(address newOwner) internal virtual {... */\n    tag_119:\n        /* \"@openzeppelin/contracts/access/Ownable.sol\":2506:2522  address oldOwner */\n      0x00\n        /* \"@openzeppelin/contracts/access/Ownable.sol\":2525:2531  _owner */\n      dup1\n      sload\n      sub(exp(0x02, 0xa0), 0x01)\n        /* \"@openzeppelin/contracts/access/Ownable.sol\":2541:2558  _owner = newOwner */\n      dup4\n      dup2\n      and\n      not(0xffffffffffffffffffffffffffffffffffffffff)\n      dup4\n      and\n      dup2\n      or\n      dup5\n      sstore\n        /* \"@openzeppelin/contracts/access/Ownable.sol\":2573:2613  OwnershipTransferred(oldOwner, newOwner) */\n      mload(0x40)\n        /* \"@openzeppelin/contracts/access/Ownable.sol\":2525:2531  _owner */\n      swap2\n      swap1\n      swap3\n      and\n      swap3\n      dup4\n      swap2\n        /* \"@openzeppelin/contracts/access/Ownable.sol\":2573:2613  OwnershipTransferred(oldOwner, newOwner) */\n      0x8be0079c531659141344cd1fd0a4f28419497f9722a3daafe3b4186f6b6457e0\n      swap2\n        /* \"@openzeppelin/contracts/access/Ownable.sol\":2506:2522  address oldOwner */\n      swap1\n        /* \"@openzeppelin/contracts/access/Ownable.sol\":2573:2613  OwnershipTransferred(oldOwner, newOwner) */\n      log3\n        /* \"@openzeppelin/contracts/access/Ownable.sol\":2496:2620  {... */\n      pop\n        /* \"@openzeppelin/contracts/access/Ownable.sol\":2433:2620  function _transferOwnership(address newOwner) internal virtual {... */\n      pop\n      jump\t// out\n        /* \"contracts/Consorcio.sol\":939:1171  function getTotalAmountForService() private view returns(uint){... */\n    tag_145:\n        /* \"contracts/Consorcio.sol\":996:1000  uint */\n      0x00\n      dup1\n      dup1\n        /* \"contracts/Consorcio.sol\":1038:1140  for(uint i = 0; i < serviceList.length; i++) {... */\n    tag_184:\n        /* \"contracts/Consorcio.sol\":1058:1069  serviceList */\n      0x04\n        /* \"contracts/Consorcio.sol\":1058:1076  serviceList.length */\n      sload\n        /* \"contracts/Consorcio.sol\":1054:1076  i < serviceList.length */\n      dup2\n      lt\n        /* \"contracts/Consorcio.sol\":1038:1140  for(uint i = 0; i < serviceList.length; i++) {... */\n      iszero\n      tag_171\n      jumpi\n        /* \"contracts/Consorcio.sol\":1108:1119  serviceList */\n      0x04\n        /* \"contracts/Consorcio.sol\":1120:1121  i */\n      dup2\n        /* \"contracts/Consorcio.sol\":1108:1122  serviceList[i] */\n      dup2\n      sload\n      dup2\n      lt\n      tag_188\n      jumpi\n      tag_188\n      tag_89\n      jump\t// in\n    tag_188:\n      swap1\n      0x00\n      mstore\n      keccak256(0x00, 0x20)\n      swap1\n      0x02\n      mul\n      add\n        /* \"contracts/Consorcio.sol\":1108:1128  serviceList[i].price */\n      0x01\n      add\n      sload\n        /* \"contracts/Consorcio.sol\":1098:1128  amount += serviceList[i].price */\n      dup3\n      tag_190\n      swap2\n      swap1\n      tag_180\n      jump\t// in\n    tag_190:\n      swap2\n      pop\n        /* \"contracts/Consorcio.sol\":1078:1081  i++ */\n      dup1\n      tag_191\n      dup2\n      tag_111\n      jump\t// in\n    tag_191:\n      swap2\n      pop\n      pop\n        /* \"contracts/Consorcio.sol\":1038:1140  for(uint i = 0; i < serviceList.length; i++) {... */\n      jump(tag_184)\n    tag_70:\n      dataSize(sub_0)\n      dup1\n      dataOffset(sub_0)\n      dup4\n      codecopy\n      add\n      swap1\n      jump\t// out\n    tag_132:\n      dataSize(sub_1)\n      dup1\n      dataOffset(sub_1)\n      dup4\n      codecopy\n      add\n      swap1\n      jump\t// out\n        /* \"#utility.yul\":14:198   */\n    tag_193:\n      mul(0x4e487b71, exp(0x02, 0xe0))\n        /* \"#utility.yul\":63:64   */\n      0x00\n        /* \"#utility.yul\":56:144   */\n      mstore\n        /* \"#utility.yul\":163:167   */\n      0x41\n        /* \"#utility.yul\":160:161   */\n      0x04\n        /* \"#utility.yul\":153:168   */\n      mstore\n        /* \"#utility.yul\":187:191   */\n      0x24\n        /* \"#utility.yul\":184:185   */\n      0x00\n        /* \"#utility.yul\":177:192   */\n      revert\n        /* \"#utility.yul\":203:922   */\n    tag_194:\n        /* \"#utility.yul\":246:251   */\n      0x00\n        /* \"#utility.yul\":299:302   */\n      dup3\n        /* \"#utility.yul\":292:296   */\n      0x1f\n        /* \"#utility.yul\":284:290   */\n      dup4\n        /* \"#utility.yul\":280:297   */\n      add\n        /* \"#utility.yul\":276:303   */\n      slt\n        /* \"#utility.yul\":266:321   */\n      tag_205\n      jumpi\n        /* \"#utility.yul\":317:318   */\n      0x00\n        /* \"#utility.yul\":314:315   */\n      dup1\n        /* \"#utility.yul\":307:319   */\n      revert\n        /* \"#utility.yul\":266:321   */\n    tag_205:\n        /* \"#utility.yul\":353:359   */\n      dup2\n        /* \"#utility.yul\":340:360   */\n      calldataload\n        /* \"#utility.yul\":379:397   */\n      0xffffffffffffffff\n        /* \"#utility.yul\":416:418   */\n      dup1\n        /* \"#utility.yul\":412:414   */\n      dup3\n        /* \"#utility.yul\":409:419   */\n      gt\n        /* \"#utility.yul\":406:442   */\n      iszero\n      tag_207\n      jumpi\n        /* \"#utility.yul\":422:440   */\n      tag_207\n      tag_193\n      jump\t// in\n    tag_207:\n        /* \"#utility.yul\":497:499   */\n      0x40\n        /* \"#utility.yul\":491:500   */\n      mload\n        /* \"#utility.yul\":465:467   */\n      0x1f\n        /* \"#utility.yul\":551:564   */\n      dup4\n      add\n      not(0x1f)\n        /* \"#utility.yul\":547:569   */\n      swap1\n      dup2\n      and\n        /* \"#utility.yul\":571:573   */\n      0x3f\n        /* \"#utility.yul\":543:574   */\n      add\n        /* \"#utility.yul\":539:579   */\n      and\n        /* \"#utility.yul\":527:580   */\n      dup2\n      add\n      swap1\n        /* \"#utility.yul\":595:613   */\n      dup3\n      dup3\n      gt\n        /* \"#utility.yul\":615:637   */\n      dup2\n      dup4\n      lt\n        /* \"#utility.yul\":592:638   */\n      or\n        /* \"#utility.yul\":589:661   */\n      iszero\n      tag_209\n      jumpi\n        /* \"#utility.yul\":641:659   */\n      tag_209\n      tag_193\n      jump\t// in\n    tag_209:\n        /* \"#utility.yul\":681:691   */\n      dup2\n        /* \"#utility.yul\":677:679   */\n      0x40\n        /* \"#utility.yul\":670:692   */\n      mstore\n        /* \"#utility.yul\":716:718   */\n      dup4\n        /* \"#utility.yul\":708:714   */\n      dup2\n        /* \"#utility.yul\":701:719   */\n      mstore\n        /* \"#utility.yul\":762:765   */\n      dup7\n        /* \"#utility.yul\":755:759   */\n      0x20\n        /* \"#utility.yul\":750:752   */\n      dup6\n        /* \"#utility.yul\":742:748   */\n      dup9\n        /* \"#utility.yul\":738:753   */\n      add\n        /* \"#utility.yul\":734:760   */\n      add\n        /* \"#utility.yul\":731:766   */\n      gt\n        /* \"#utility.yul\":728:783   */\n      iszero\n      tag_210\n      jumpi\n        /* \"#utility.yul\":779:780   */\n      0x00\n        /* \"#utility.yul\":776:777   */\n      dup1\n        /* \"#utility.yul\":769:781   */\n      revert\n        /* \"#utility.yul\":728:783   */\n    tag_210:\n        /* \"#utility.yul\":843:845   */\n      dup4\n        /* \"#utility.yul\":836:840   */\n      0x20\n        /* \"#utility.yul\":828:834   */\n      dup8\n        /* \"#utility.yul\":824:841   */\n      add\n        /* \"#utility.yul\":817:821   */\n      0x20\n        /* \"#utility.yul\":809:815   */\n      dup4\n        /* \"#utility.yul\":805:822   */\n      add\n        /* \"#utility.yul\":792:846   */\n      calldatacopy\n        /* \"#utility.yul\":890:891   */\n      0x00\n        /* \"#utility.yul\":883:887   */\n      0x20\n        /* \"#utility.yul\":878:880   */\n      dup6\n        /* \"#utility.yul\":870:876   */\n      dup4\n        /* \"#utility.yul\":866:881   */\n      add\n        /* \"#utility.yul\":862:888   */\n      add\n        /* \"#utility.yul\":855:892   */\n      mstore\n        /* \"#utility.yul\":910:916   */\n      dup1\n        /* \"#utility.yul\":901:916   */\n      swap5\n      pop\n      pop\n      pop\n      pop\n      pop\n        /* \"#utility.yul\":203:922   */\n      swap3\n      swap2\n      pop\n      pop\n      jump\t// out\n        /* \"#utility.yul\":927:1081   */\n    tag_195:\n      sub(exp(0x02, 0xa0), 0x01)\n        /* \"#utility.yul\":1006:1011   */\n      dup2\n        /* \"#utility.yul\":1002:1056   */\n      and\n        /* \"#utility.yul\":995:1000   */\n      dup2\n        /* \"#utility.yul\":992:1057   */\n      eq\n        /* \"#utility.yul\":982:1075   */\n      tag_138\n      jumpi\n        /* \"#utility.yul\":1071:1072   */\n      0x00\n        /* \"#utility.yul\":1068:1069   */\n      dup1\n        /* \"#utility.yul\":1061:1073   */\n      revert\n        /* \"#utility.yul\":1086:1833   */\n    tag_22:\n        /* \"#utility.yul\":1192:1198   */\n      0x00\n        /* \"#utility.yul\":1200:1206   */\n      dup1\n        /* \"#utility.yul\":1208:1214   */\n      0x00\n        /* \"#utility.yul\":1216:1222   */\n      dup1\n        /* \"#utility.yul\":1269:1272   */\n      0x80\n        /* \"#utility.yul\":1257:1266   */\n      dup6\n        /* \"#utility.yul\":1248:1255   */\n      dup8\n        /* \"#utility.yul\":1244:1267   */\n      sub\n        /* \"#utility.yul\":1240:1273   */\n      slt\n        /* \"#utility.yul\":1237:1290   */\n      iszero\n      tag_214\n      jumpi\n        /* \"#utility.yul\":1286:1287   */\n      0x00\n        /* \"#utility.yul\":1283:1284   */\n      dup1\n        /* \"#utility.yul\":1276:1288   */\n      revert\n        /* \"#utility.yul\":1237:1290   */\n    tag_214:\n        /* \"#utility.yul\":1326:1335   */\n      dup5\n        /* \"#utility.yul\":1313:1336   */\n      calldataload\n        /* \"#utility.yul\":1355:1373   */\n      0xffffffffffffffff\n        /* \"#utility.yul\":1396:1398   */\n      dup1\n        /* \"#utility.yul\":1388:1394   */\n      dup3\n        /* \"#utility.yul\":1385:1399   */\n      gt\n        /* \"#utility.yul\":1382:1416   */\n      iszero\n      tag_215\n      jumpi\n        /* \"#utility.yul\":1412:1413   */\n      0x00\n        /* \"#utility.yul\":1409:1410   */\n      dup1\n        /* \"#utility.yul\":1402:1414   */\n      revert\n        /* \"#utility.yul\":1382:1416   */\n    tag_215:\n        /* \"#utility.yul\":1435:1485   */\n      tag_216\n        /* \"#utility.yul\":1477:1484   */\n      dup9\n        /* \"#utility.yul\":1468:1474   */\n      dup4\n        /* \"#utility.yul\":1457:1466   */\n      dup10\n        /* \"#utility.yul\":1453:1475   */\n      add\n        /* \"#utility.yul\":1435:1485   */\n      tag_194\n      jump\t// in\n    tag_216:\n        /* \"#utility.yul\":1425:1485   */\n      swap6\n      pop\n        /* \"#utility.yul\":1535:1537   */\n      0x20\n        /* \"#utility.yul\":1524:1533   */\n      dup8\n        /* \"#utility.yul\":1520:1538   */\n      add\n        /* \"#utility.yul\":1507:1539   */\n      calldataload\n        /* \"#utility.yul\":1494:1539   */\n      swap2\n      pop\n        /* \"#utility.yul\":1548:1579   */\n      tag_217\n        /* \"#utility.yul\":1573:1578   */\n      dup3\n        /* \"#utility.yul\":1548:1579   */\n      tag_195\n      jump\t// in\n    tag_217:\n        /* \"#utility.yul\":1598:1603   */\n      swap1\n      swap4\n      pop\n        /* \"#utility.yul\":1656:1658   */\n      0x40\n        /* \"#utility.yul\":1641:1659   */\n      dup7\n      add\n        /* \"#utility.yul\":1628:1660   */\n      calldataload\n      swap1\n        /* \"#utility.yul\":1672:1688   */\n      dup1\n      dup3\n      gt\n        /* \"#utility.yul\":1669:1705   */\n      iszero\n      tag_218\n      jumpi\n        /* \"#utility.yul\":1701:1702   */\n      0x00\n        /* \"#utility.yul\":1698:1699   */\n      dup1\n        /* \"#utility.yul\":1691:1703   */\n      revert\n        /* \"#utility.yul\":1669:1705   */\n    tag_218:\n      pop\n        /* \"#utility.yul\":1724:1776   */\n      tag_219\n        /* \"#utility.yul\":1768:1775   */\n      dup8\n        /* \"#utility.yul\":1757:1765   */\n      dup3\n        /* \"#utility.yul\":1746:1755   */\n      dup9\n        /* \"#utility.yul\":1742:1766   */\n      add\n        /* \"#utility.yul\":1724:1776   */\n      tag_194\n      jump\t// in\n    tag_219:\n        /* \"#utility.yul\":1086:1833   */\n      swap5\n      swap8\n      swap4\n      swap7\n      pop\n        /* \"#utility.yul\":1714:1776   */\n      swap4\n      swap5\n        /* \"#utility.yul\":1823:1825   */\n      0x60\n        /* \"#utility.yul\":1808:1826   */\n      add\n        /* \"#utility.yul\":1795:1827   */\n      calldataload\n      swap4\n      pop\n      pop\n      pop\n        /* \"#utility.yul\":1086:1833   */\n      jump\t// out\n        /* \"#utility.yul\":2020:2410   */\n    tag_37:\n        /* \"#utility.yul\":2098:2104   */\n      0x00\n        /* \"#utility.yul\":2106:2112   */\n      dup1\n        /* \"#utility.yul\":2159:2161   */\n      0x40\n        /* \"#utility.yul\":2147:2156   */\n      dup4\n        /* \"#utility.yul\":2138:2145   */\n      dup6\n        /* \"#utility.yul\":2134:2157   */\n      sub\n        /* \"#utility.yul\":2130:2162   */\n      slt\n        /* \"#utility.yul\":2127:2179   */\n      iszero\n      tag_222\n      jumpi\n        /* \"#utility.yul\":2175:2176   */\n      0x00\n        /* \"#utility.yul\":2172:2173   */\n      dup1\n        /* \"#utility.yul\":2165:2177   */\n      revert\n        /* \"#utility.yul\":2127:2179   */\n    tag_222:\n        /* \"#utility.yul\":2215:2224   */\n      dup3\n        /* \"#utility.yul\":2202:2225   */\n      calldataload\n        /* \"#utility.yul\":2248:2266   */\n      0xffffffffffffffff\n        /* \"#utility.yul\":2240:2246   */\n      dup2\n        /* \"#utility.yul\":2237:2267   */\n      gt\n        /* \"#utility.yul\":2234:2284   */\n      iszero\n      tag_223\n      jumpi\n        /* \"#utility.yul\":2280:2281   */\n      0x00\n        /* \"#utility.yul\":2277:2278   */\n      dup1\n        /* \"#utility.yul\":2270:2282   */\n      revert\n        /* \"#utility.yul\":2234:2284   */\n    tag_223:\n        /* \"#utility.yul\":2303:2353   */\n      tag_224\n        /* \"#utility.yul\":2345:2352   */\n      dup6\n        /* \"#utility.yul\":2336:2342   */\n      dup3\n        /* \"#utility.yul\":2325:2334   */\n      dup7\n        /* \"#utility.yul\":2321:2343   */\n      add\n        /* \"#utility.yul\":2303:2353   */\n      tag_194\n      jump\t// in\n    tag_224:\n        /* \"#utility.yul\":2293:2353   */\n      swap6\n        /* \"#utility.yul\":2400:2402   */\n      0x20\n        /* \"#utility.yul\":2385:2403   */\n      swap5\n      swap1\n      swap5\n      add\n        /* \"#utility.yul\":2372:2404   */\n      calldataload\n      swap5\n      pop\n      pop\n      pop\n      pop\n        /* \"#utility.yul\":2020:2410   */\n      jump\t// out\n        /* \"#utility.yul\":2646:3393   */\n    tag_51:\n        /* \"#utility.yul\":2752:2758   */\n      0x00\n        /* \"#utility.yul\":2760:2766   */\n      dup1\n        /* \"#utility.yul\":2768:2774   */\n      0x00\n        /* \"#utility.yul\":2776:2782   */\n      dup1\n        /* \"#utility.yul\":2829:2832   */\n      0x80\n        /* \"#utility.yul\":2817:2826   */\n      dup6\n        /* \"#utility.yul\":2808:2815   */\n      dup8\n        /* \"#utility.yul\":2804:2827   */\n      sub\n        /* \"#utility.yul\":2800:2833   */\n      slt\n        /* \"#utility.yul\":2797:2850   */\n      iszero\n      tag_227\n      jumpi\n        /* \"#utility.yul\":2846:2847   */\n      0x00\n        /* \"#utility.yul\":2843:2844   */\n      dup1\n        /* \"#utility.yul\":2836:2848   */\n      revert\n        /* \"#utility.yul\":2797:2850   */\n    tag_227:\n        /* \"#utility.yul\":2886:2895   */\n      dup5\n        /* \"#utility.yul\":2873:2896   */\n      calldataload\n        /* \"#utility.yul\":2915:2933   */\n      0xffffffffffffffff\n        /* \"#utility.yul\":2956:2958   */\n      dup1\n        /* \"#utility.yul\":2948:2954   */\n      dup3\n        /* \"#utility.yul\":2945:2959   */\n      gt\n        /* \"#utility.yul\":2942:2976   */\n      iszero\n      tag_228\n      jumpi\n        /* \"#utility.yul\":2972:2973   */\n      0x00\n        /* \"#utility.yul\":2969:2970   */\n      dup1\n        /* \"#utility.yul\":2962:2974   */\n      revert\n        /* \"#utility.yul\":2942:2976   */\n    tag_228:\n        /* \"#utility.yul\":2995:3045   */\n      tag_229\n        /* \"#utility.yul\":3037:3044   */\n      dup9\n        /* \"#utility.yul\":3028:3034   */\n      dup4\n        /* \"#utility.yul\":3017:3026   */\n      dup10\n        /* \"#utility.yul\":3013:3035   */\n      add\n        /* \"#utility.yul\":2995:3045   */\n      tag_194\n      jump\t// in\n    tag_229:\n        /* \"#utility.yul\":2985:3045   */\n      swap6\n      pop\n        /* \"#utility.yul\":3095:3097   */\n      0x20\n        /* \"#utility.yul\":3084:3093   */\n      dup8\n        /* \"#utility.yul\":3080:3098   */\n      add\n        /* \"#utility.yul\":3067:3099   */\n      calldataload\n        /* \"#utility.yul\":3054:3099   */\n      swap2\n      pop\n        /* \"#utility.yul\":3108:3139   */\n      tag_230\n        /* \"#utility.yul\":3133:3138   */\n      dup3\n        /* \"#utility.yul\":3108:3139   */\n      tag_195\n      jump\t// in\n    tag_230:\n        /* \"#utility.yul\":3158:3163   */\n      swap1\n      swap4\n      pop\n        /* \"#utility.yul\":3210:3212   */\n      0x40\n        /* \"#utility.yul\":3195:3213   */\n      dup7\n      add\n        /* \"#utility.yul\":3182:3214   */\n      calldataload\n      swap3\n      pop\n        /* \"#utility.yul\":3267:3269   */\n      0x60\n        /* \"#utility.yul\":3252:3270   */\n      dup7\n      add\n        /* \"#utility.yul\":3239:3271   */\n      calldataload\n      swap1\n        /* \"#utility.yul\":3283:3299   */\n      dup1\n      dup3\n      gt\n        /* \"#utility.yul\":3280:3316   */\n      iszero\n      tag_231\n      jumpi\n        /* \"#utility.yul\":3312:3313   */\n      0x00\n        /* \"#utility.yul\":3309:3310   */\n      dup1\n        /* \"#utility.yul\":3302:3314   */\n      revert\n        /* \"#utility.yul\":3280:3316   */\n    tag_231:\n      pop\n        /* \"#utility.yul\":3335:3387   */\n      tag_232\n        /* \"#utility.yul\":3379:3386   */\n      dup8\n        /* \"#utility.yul\":3368:3376   */\n      dup3\n        /* \"#utility.yul\":3357:3366   */\n      dup9\n        /* \"#utility.yul\":3353:3377   */\n      add\n        /* \"#utility.yul\":3335:3387   */\n      tag_194\n      jump\t// in\n    tag_232:\n        /* \"#utility.yul\":3325:3387   */\n      swap2\n      pop\n      pop\n        /* \"#utility.yul\":2646:3393   */\n      swap3\n      swap6\n      swap2\n      swap5\n      pop\n      swap3\n      pop\n      jump\t// out\n        /* \"#utility.yul\":3398:3578   */\n    tag_56:\n        /* \"#utility.yul\":3457:3463   */\n      0x00\n        /* \"#utility.yul\":3510:3512   */\n      0x20\n        /* \"#utility.yul\":3498:3507   */\n      dup3\n        /* \"#utility.yul\":3489:3496   */\n      dup5\n        /* \"#utility.yul\":3485:3508   */\n      sub\n        /* \"#utility.yul\":3481:3513   */\n      slt\n        /* \"#utility.yul\":3478:3530   */\n      iszero\n      tag_234\n      jumpi\n        /* \"#utility.yul\":3526:3527   */\n      0x00\n        /* \"#utility.yul\":3523:3524   */\n      dup1\n        /* \"#utility.yul\":3516:3528   */\n      revert\n        /* \"#utility.yul\":3478:3530   */\n    tag_234:\n      pop\n        /* \"#utility.yul\":3549:3572   */\n      calldataload\n      swap2\n        /* \"#utility.yul\":3398:3578   */\n      swap1\n      pop\n      jump\t// out\n        /* \"#utility.yul\":3583:3830   */\n    tag_63:\n        /* \"#utility.yul\":3642:3648   */\n      0x00\n        /* \"#utility.yul\":3695:3697   */\n      0x20\n        /* \"#utility.yul\":3683:3692   */\n      dup3\n        /* \"#utility.yul\":3674:3681   */\n      dup5\n        /* \"#utility.yul\":3670:3693   */\n      sub\n        /* \"#utility.yul\":3666:3698   */\n      slt\n        /* \"#utility.yul\":3663:3715   */\n      iszero\n      tag_236\n      jumpi\n        /* \"#utility.yul\":3711:3712   */\n      0x00\n        /* \"#utility.yul\":3708:3709   */\n      dup1\n        /* \"#utility.yul\":3701:3713   */\n      revert\n        /* \"#utility.yul\":3663:3715   */\n    tag_236:\n        /* \"#utility.yul\":3750:3759   */\n      dup2\n        /* \"#utility.yul\":3737:3760   */\n      calldataload\n        /* \"#utility.yul\":3769:3800   */\n      tag_237\n        /* \"#utility.yul\":3794:3799   */\n      dup2\n        /* \"#utility.yul\":3769:3800   */\n      tag_195\n      jump\t// in\n    tag_237:\n        /* \"#utility.yul\":3819:3824   */\n      swap4\n        /* \"#utility.yul\":3583:3830   */\n      swap3\n      pop\n      pop\n      pop\n      jump\t// out\n        /* \"#utility.yul\":3835:4258   */\n    tag_196:\n        /* \"#utility.yul\":3877:3880   */\n      0x00\n        /* \"#utility.yul\":3915:3920   */\n      dup2\n        /* \"#utility.yul\":3909:3921   */\n      mload\n        /* \"#utility.yul\":3942:3948   */\n      dup1\n        /* \"#utility.yul\":3937:3940   */\n      dup5\n        /* \"#utility.yul\":3930:3949   */\n      mstore\n        /* \"#utility.yul\":3967:3968   */\n      0x00\n        /* \"#utility.yul\":3977:4139   */\n    tag_239:\n        /* \"#utility.yul\":3991:3997   */\n      dup2\n        /* \"#utility.yul\":3988:3989   */\n      dup2\n        /* \"#utility.yul\":3985:3998   */\n      lt\n        /* \"#utility.yul\":3977:4139   */\n      iszero\n      tag_241\n      jumpi\n        /* \"#utility.yul\":4053:4057   */\n      0x20\n        /* \"#utility.yul\":4109:4122   */\n      dup2\n      dup6\n      add\n        /* \"#utility.yul\":4105:4127   */\n      dup2\n      add\n        /* \"#utility.yul\":4099:4128   */\n      mload\n        /* \"#utility.yul\":4081:4092   */\n      dup7\n      dup4\n      add\n        /* \"#utility.yul\":4077:4097   */\n      dup3\n      add\n        /* \"#utility.yul\":4070:4129   */\n      mstore\n        /* \"#utility.yul\":4006:4018   */\n      add\n        /* \"#utility.yul\":3977:4139   */\n      jump(tag_239)\n    tag_241:\n        /* \"#utility.yul\":3981:3984   */\n      pop\n        /* \"#utility.yul\":4184:4185   */\n      0x00\n        /* \"#utility.yul\":4177:4181   */\n      0x20\n        /* \"#utility.yul\":4168:4174   */\n      dup3\n        /* \"#utility.yul\":4163:4166   */\n      dup7\n        /* \"#utility.yul\":4159:4175   */\n      add\n        /* \"#utility.yul\":4155:4182   */\n      add\n        /* \"#utility.yul\":4148:4186   */\n      mstore\n        /* \"#utility.yul\":4247:4251   */\n      0x20\n        /* \"#utility.yul\":4240:4242   */\n      0x1f\n        /* \"#utility.yul\":4236:4243   */\n      not\n        /* \"#utility.yul\":4231:4233   */\n      0x1f\n        /* \"#utility.yul\":4223:4229   */\n      dup4\n        /* \"#utility.yul\":4219:4234   */\n      add\n        /* \"#utility.yul\":4215:4244   */\n      and\n        /* \"#utility.yul\":4210:4213   */\n      dup6\n        /* \"#utility.yul\":4206:4245   */\n      add\n        /* \"#utility.yul\":4202:4252   */\n      add\n        /* \"#utility.yul\":4195:4252   */\n      swap2\n      pop\n      pop\n        /* \"#utility.yul\":3835:4258   */\n      swap3\n      swap2\n      pop\n      pop\n      jump\t// out\n        /* \"#utility.yul\":4263:4839   */\n    tag_72:\n        /* \"#utility.yul\":4516:4519   */\n      0x80\n        /* \"#utility.yul\":4505:4514   */\n      dup2\n        /* \"#utility.yul\":4498:4520   */\n      mstore\n        /* \"#utility.yul\":4479:4483   */\n      0x00\n        /* \"#utility.yul\":4543:4589   */\n      tag_243\n        /* \"#utility.yul\":4584:4587   */\n      0x80\n        /* \"#utility.yul\":4573:4582   */\n      dup4\n        /* \"#utility.yul\":4569:4588   */\n      add\n        /* \"#utility.yul\":4561:4567   */\n      dup8\n        /* \"#utility.yul\":4543:4589   */\n      tag_196\n      jump\t// in\n    tag_243:\n      sub(exp(0x02, 0xa0), 0x01)\n        /* \"#utility.yul\":4629:4635   */\n      dup7\n        /* \"#utility.yul\":4625:4680   */\n      and\n        /* \"#utility.yul\":4620:4622   */\n      0x20\n        /* \"#utility.yul\":4609:4618   */\n      dup5\n        /* \"#utility.yul\":4605:4623   */\n      add\n        /* \"#utility.yul\":4598:4681   */\n      mstore\n        /* \"#utility.yul\":4729:4738   */\n      dup3\n        /* \"#utility.yul\":4721:4727   */\n      dup2\n        /* \"#utility.yul\":4717:4739   */\n      sub\n        /* \"#utility.yul\":4712:4714   */\n      0x40\n        /* \"#utility.yul\":4701:4710   */\n      dup5\n        /* \"#utility.yul\":4697:4715   */\n      add\n        /* \"#utility.yul\":4690:4740   */\n      mstore\n        /* \"#utility.yul\":4757:4790   */\n      tag_244\n        /* \"#utility.yul\":4783:4789   */\n      dup2\n        /* \"#utility.yul\":4775:4781   */\n      dup7\n        /* \"#utility.yul\":4757:4790   */\n      tag_196\n      jump\t// in\n    tag_244:\n        /* \"#utility.yul\":4749:4790   */\n      swap2\n      pop\n      pop\n        /* \"#utility.yul\":4826:4832   */\n      dup3\n        /* \"#utility.yul\":4821:4823   */\n      0x60\n        /* \"#utility.yul\":4810:4819   */\n      dup4\n        /* \"#utility.yul\":4806:4824   */\n      add\n        /* \"#utility.yul\":4799:4833   */\n      mstore\n        /* \"#utility.yul\":4263:4839   */\n      swap6\n      swap5\n      pop\n      pop\n      pop\n      pop\n      pop\n      jump\t// out\n        /* \"#utility.yul\":4844:5251   */\n    tag_83:\n        /* \"#utility.yul\":5046:5048   */\n      0x20\n        /* \"#utility.yul\":5028:5049   */\n      dup1\n      dup3\n      mstore\n        /* \"#utility.yul\":5085:5087   */\n      0x2b\n        /* \"#utility.yul\":5065:5083   */\n      swap1\n      dup3\n      add\n        /* \"#utility.yul\":5058:5088   */\n      mstore\n        /* \"#utility.yul\":5124:5158   */\n      0x5468652062616c616e6365206f662074686520636f6e74726163742069732069\n        /* \"#utility.yul\":5119:5121   */\n      0x40\n        /* \"#utility.yul\":5104:5122   */\n      dup3\n      add\n        /* \"#utility.yul\":5097:5159   */\n      mstore\n        /* \"#utility.yul\":5195:5208   */\n      0x6e73756666696369656e74000000000000000000000000000000000000000000\n        /* \"#utility.yul\":5190:5192   */\n      0x60\n        /* \"#utility.yul\":5175:5193   */\n      dup3\n      add\n        /* \"#utility.yul\":5168:5209   */\n      mstore\n        /* \"#utility.yul\":5241:5244   */\n      0x80\n        /* \"#utility.yul\":5226:5245   */\n      add\n      swap1\n        /* \"#utility.yul\":4844:5251   */\n      jump\t// out\n        /* \"#utility.yul\":5256:5440   */\n    tag_89:\n      mul(0x4e487b71, exp(0x02, 0xe0))\n        /* \"#utility.yul\":5305:5306   */\n      0x00\n        /* \"#utility.yul\":5298:5386   */\n      mstore\n        /* \"#utility.yul\":5405:5409   */\n      0x32\n        /* \"#utility.yul\":5402:5403   */\n      0x04\n        /* \"#utility.yul\":5395:5410   */\n      mstore\n        /* \"#utility.yul\":5429:5433   */\n      0x24\n        /* \"#utility.yul\":5426:5427   */\n      0x00\n        /* \"#utility.yul\":5419:5434   */\n      revert\n        /* \"#utility.yul\":5445:5696   */\n    tag_94:\n        /* \"#utility.yul\":5515:5521   */\n      0x00\n        /* \"#utility.yul\":5568:5570   */\n      0x20\n        /* \"#utility.yul\":5556:5565   */\n      dup3\n        /* \"#utility.yul\":5547:5554   */\n      dup5\n        /* \"#utility.yul\":5543:5566   */\n      sub\n        /* \"#utility.yul\":5539:5571   */\n      slt\n        /* \"#utility.yul\":5536:5588   */\n      iszero\n      tag_248\n      jumpi\n        /* \"#utility.yul\":5584:5585   */\n      0x00\n        /* \"#utility.yul\":5581:5582   */\n      dup1\n        /* \"#utility.yul\":5574:5586   */\n      revert\n        /* \"#utility.yul\":5536:5588   */\n    tag_248:\n        /* \"#utility.yul\":5616:5625   */\n      dup2\n        /* \"#utility.yul\":5610:5626   */\n      mload\n        /* \"#utility.yul\":5635:5666   */\n      tag_237\n        /* \"#utility.yul\":5660:5665   */\n      dup2\n        /* \"#utility.yul\":5635:5666   */\n      tag_195\n      jump\t// in\n        /* \"#utility.yul\":5701:5885   */\n    tag_101:\n        /* \"#utility.yul\":5771:5777   */\n      0x00\n        /* \"#utility.yul\":5824:5826   */\n      0x20\n        /* \"#utility.yul\":5812:5821   */\n      dup3\n        /* \"#utility.yul\":5803:5810   */\n      dup5\n        /* \"#utility.yul\":5799:5822   */\n      sub\n        /* \"#utility.yul\":5795:5827   */\n      slt\n        /* \"#utility.yul\":5792:5844   */\n      iszero\n      tag_251\n      jumpi\n        /* \"#utility.yul\":5840:5841   */\n      0x00\n        /* \"#utility.yul\":5837:5838   */\n      dup1\n        /* \"#utility.yul\":5830:5842   */\n      revert\n        /* \"#utility.yul\":5792:5844   */\n    tag_251:\n      pop\n        /* \"#utility.yul\":5863:5879   */\n      mload\n      swap2\n        /* \"#utility.yul\":5701:5885   */\n      swap1\n      pop\n      jump\t// out\n        /* \"#utility.yul\":6445:6629   */\n    tag_197:\n      mul(0x4e487b71, exp(0x02, 0xe0))\n        /* \"#utility.yul\":6494:6495   */\n      0x00\n        /* \"#utility.yul\":6487:6575   */\n      mstore\n        /* \"#utility.yul\":6594:6598   */\n      0x11\n        /* \"#utility.yul\":6591:6592   */\n      0x04\n        /* \"#utility.yul\":6584:6599   */\n      mstore\n        /* \"#utility.yul\":6618:6622   */\n      0x24\n        /* \"#utility.yul\":6615:6616   */\n      0x00\n        /* \"#utility.yul\":6608:6623   */\n      revert\n        /* \"#utility.yul\":6634:6769   */\n    tag_111:\n        /* \"#utility.yul\":6673:6676   */\n      0x00\n        /* \"#utility.yul\":6694:6711   */\n      0x01\n      dup3\n      add\n        /* \"#utility.yul\":6691:6734   */\n      tag_257\n      jumpi\n        /* \"#utility.yul\":6714:6732   */\n      tag_257\n      tag_197\n      jump\t// in\n    tag_257:\n      pop\n        /* \"#utility.yul\":6761:6762   */\n      0x01\n        /* \"#utility.yul\":6750:6763   */\n      add\n      swap1\n        /* \"#utility.yul\":6634:6769   */\n      jump\t// out\n        /* \"#utility.yul\":7076:7513   */\n    tag_198:\n        /* \"#utility.yul\":7161:7162   */\n      0x02\n        /* \"#utility.yul\":7151:7163   */\n      dup2\n      div\n        /* \"#utility.yul\":7208:7209   */\n      0x01\n        /* \"#utility.yul\":7198:7210   */\n      dup3\n      and\n      dup1\n        /* \"#utility.yul\":7219:7280   */\n      tag_260\n      jumpi\n        /* \"#utility.yul\":7273:7277   */\n      0x7f\n        /* \"#utility.yul\":7265:7271   */\n      dup3\n        /* \"#utility.yul\":7261:7278   */\n      and\n        /* \"#utility.yul\":7251:7278   */\n      swap2\n      pop\n        /* \"#utility.yul\":7219:7280   */\n    tag_260:\n        /* \"#utility.yul\":7326:7328   */\n      0x20\n        /* \"#utility.yul\":7318:7324   */\n      dup3\n        /* \"#utility.yul\":7315:7329   */\n      lt\n        /* \"#utility.yul\":7295:7313   */\n      dup2\n        /* \"#utility.yul\":7292:7330   */\n      sub\n        /* \"#utility.yul\":7289:7507   */\n      tag_171\n      jumpi\n      mul(0x4e487b71, exp(0x02, 0xe0))\n        /* \"#utility.yul\":7360:7361   */\n      0x00\n        /* \"#utility.yul\":7353:7441   */\n      mstore\n        /* \"#utility.yul\":7464:7468   */\n      0x22\n        /* \"#utility.yul\":7461:7462   */\n      0x04\n        /* \"#utility.yul\":7454:7469   */\n      mstore\n        /* \"#utility.yul\":7492:7496   */\n      0x24\n        /* \"#utility.yul\":7489:7490   */\n      0x00\n        /* \"#utility.yul\":7482:7497   */\n      revert\n        /* \"#utility.yul\":7644:8195   */\n    tag_200:\n        /* \"#utility.yul\":7746:7748   */\n      0x1f\n        /* \"#utility.yul\":7741:7744   */\n      dup3\n        /* \"#utility.yul\":7738:7749   */\n      gt\n        /* \"#utility.yul\":7735:8189   */\n      iszero\n      tag_264\n      jumpi\n        /* \"#utility.yul\":7782:7783   */\n      0x00\n        /* \"#utility.yul\":7807:7812   */\n      dup2\n        /* \"#utility.yul\":7803:7805   */\n      dup2\n        /* \"#utility.yul\":7796:7813   */\n      mstore\n        /* \"#utility.yul\":7852:7856   */\n      0x20\n        /* \"#utility.yul\":7848:7850   */\n      dup2\n        /* \"#utility.yul\":7838:7857   */\n      keccak256\n        /* \"#utility.yul\":7924:7928   */\n      0x20\n        /* \"#utility.yul\":7919:7921   */\n      0x1f\n        /* \"#utility.yul\":7907:7917   */\n      dup7\n        /* \"#utility.yul\":7903:7922   */\n      add\n        /* \"#utility.yul\":7899:7929   */\n      div\n        /* \"#utility.yul\":7893:7897   */\n      dup2\n        /* \"#utility.yul\":7889:7930   */\n      add\n        /* \"#utility.yul\":7961:7965   */\n      0x20\n        /* \"#utility.yul\":7949:7959   */\n      dup7\n        /* \"#utility.yul\":7946:7966   */\n      lt\n        /* \"#utility.yul\":7943:7990   */\n      iszero\n      tag_265\n      jumpi\n      pop\n        /* \"#utility.yul\":7984:7988   */\n      dup1\n        /* \"#utility.yul\":7943:7990   */\n    tag_265:\n        /* \"#utility.yul\":8041:8045   */\n      0x20\n        /* \"#utility.yul\":8036:8038   */\n      0x1f\n        /* \"#utility.yul\":8031:8034   */\n      dup7\n        /* \"#utility.yul\":8027:8039   */\n      add\n        /* \"#utility.yul\":8023:8046   */\n      div\n        /* \"#utility.yul\":8017:8021   */\n      dup3\n        /* \"#utility.yul\":8013:8047   */\n      add\n        /* \"#utility.yul\":8003:8047   */\n      swap2\n      pop\n        /* \"#utility.yul\":8097:8179   */\n    tag_266:\n        /* \"#utility.yul\":8115:8117   */\n      dup2\n        /* \"#utility.yul\":8108:8113   */\n      dup2\n        /* \"#utility.yul\":8105:8118   */\n      lt\n        /* \"#utility.yul\":8097:8179   */\n      iszero\n      tag_268\n      jumpi\n        /* \"#utility.yul\":8160:8177   */\n      dup3\n      dup2\n      sstore\n        /* \"#utility.yul\":8141:8142   */\n      0x01\n        /* \"#utility.yul\":8130:8143   */\n      add\n        /* \"#utility.yul\":8097:8179   */\n      jump(tag_266)\n    tag_268:\n        /* \"#utility.yul\":8101:8104   */\n      pop\n      pop\n      pop\n        /* \"#utility.yul\":7735:8189   */\n    tag_264:\n        /* \"#utility.yul\":7644:8195   */\n      pop\n      pop\n      pop\n      jump\t// out\n        /* \"#utility.yul\":8379:9738   */\n    tag_125:\n        /* \"#utility.yul\":8505:8508   */\n      dup2\n        /* \"#utility.yul\":8499:8509   */\n      mload\n        /* \"#utility.yul\":8532:8550   */\n      0xffffffffffffffff\n        /* \"#utility.yul\":8524:8530   */\n      dup2\n        /* \"#utility.yul\":8521:8551   */\n      gt\n        /* \"#utility.yul\":8518:8574   */\n      iszero\n      tag_272\n      jumpi\n        /* \"#utility.yul\":8554:8572   */\n      tag_272\n      tag_193\n      jump\t// in\n    tag_272:\n        /* \"#utility.yul\":8583:8680   */\n      tag_273\n        /* \"#utility.yul\":8673:8679   */\n      dup2\n        /* \"#utility.yul\":8633:8671   */\n      tag_274\n        /* \"#utility.yul\":8665:8669   */\n      dup5\n        /* \"#utility.yul\":8659:8670   */\n      sload\n        /* \"#utility.yul\":8633:8671   */\n      tag_198\n      jump\t// in\n    tag_274:\n        /* \"#utility.yul\":8627:8631   */\n      dup5\n        /* \"#utility.yul\":8583:8680   */\n      tag_200\n      jump\t// in\n    tag_273:\n        /* \"#utility.yul\":8735:8739   */\n      0x20\n      dup1\n        /* \"#utility.yul\":8799:8801   */\n      0x1f\n        /* \"#utility.yul\":8788:8802   */\n      dup4\n      gt\n        /* \"#utility.yul\":8816:8817   */\n      0x01\n        /* \"#utility.yul\":8811:9481   */\n      dup2\n      eq\n      tag_276\n      jumpi\n        /* \"#utility.yul\":9525:9526   */\n      0x00\n        /* \"#utility.yul\":9542:9548   */\n      dup5\n        /* \"#utility.yul\":9539:9628   */\n      iszero\n      tag_277\n      jumpi\n      pop\n        /* \"#utility.yul\":9594:9613   */\n      dup6\n      dup4\n      add\n        /* \"#utility.yul\":9588:9614   */\n      mload\n        /* \"#utility.yul\":9539:9628   */\n    tag_277:\n        /* \"#utility.yul\":8360:8361   */\n      0x02\n        /* \"#utility.yul\":8356:8367   */\n      dup1\n      dup7\n      mul\n        /* \"#utility.yul\":8343:8344   */\n      0x08\n        /* \"#utility.yul\":8339:8350   */\n      dup8\n      mul\n        /* \"#utility.yul\":8332:8351   */\n      swap1\n      swap2\n      exp\n      not(0x00)\n        /* \"#utility.yul\":8320:8352   */\n      div\n        /* \"#utility.yul\":8316:8353   */\n      not\n        /* \"#utility.yul\":8306:8354   */\n      dup3\n      and\n        /* \"#utility.yul\":8303:8368   */\n      or\n        /* \"#utility.yul\":9648:9652   */\n      dup7\n        /* \"#utility.yul\":9641:9722   */\n      sstore\n      pop\n        /* \"#utility.yul\":8781:9732   */\n      jump(tag_268)\n        /* \"#utility.yul\":8811:9481   */\n    tag_276:\n        /* \"#utility.yul\":7591:7592   */\n      0x00\n        /* \"#utility.yul\":7584:7598   */\n      dup6\n      dup2\n      mstore\n        /* \"#utility.yul\":7628:7632   */\n      0x20\n        /* \"#utility.yul\":7615:7633   */\n      dup2\n      keccak256\n      not(0x1f)\n        /* \"#utility.yul\":8847:8867   */\n      dup7\n      and\n      swap2\n        /* \"#utility.yul\":8965:9201   */\n    tag_280:\n        /* \"#utility.yul\":8979:8986   */\n      dup3\n        /* \"#utility.yul\":8976:8977   */\n      dup2\n        /* \"#utility.yul\":8973:8987   */\n      lt\n        /* \"#utility.yul\":8965:9201   */\n      iszero\n      tag_282\n      jumpi\n        /* \"#utility.yul\":9068:9087   */\n      dup9\n      dup7\n      add\n        /* \"#utility.yul\":9062:9088   */\n      mload\n        /* \"#utility.yul\":9047:9089   */\n      dup3\n      sstore\n        /* \"#utility.yul\":9160:9187   */\n      swap5\n      dup5\n      add\n      swap5\n        /* \"#utility.yul\":9128:9129   */\n      0x01\n        /* \"#utility.yul\":9116:9130   */\n      swap1\n      swap2\n      add\n      swap1\n        /* \"#utility.yul\":8995:9014   */\n      dup5\n      add\n        /* \"#utility.yul\":8965:9201   */\n      jump(tag_280)\n    tag_282:\n        /* \"#utility.yul\":8969:8972   */\n      pop\n        /* \"#utility.yul\":9229:9235   */\n      dup6\n        /* \"#utility.yul\":9220:9227   */\n      dup3\n        /* \"#utility.yul\":9217:9236   */\n      lt\n        /* \"#utility.yul\":9214:9422   */\n      iszero\n      tag_283\n      jumpi\n        /* \"#utility.yul\":9290:9309   */\n      dup8\n      dup6\n      add\n        /* \"#utility.yul\":9284:9310   */\n      mload\n        /* \"#utility.yul\":9384:9385   */\n      0x08\n        /* \"#utility.yul\":9399:9401   */\n      0x1f\n        /* \"#utility.yul\":9387:9402   */\n      dup9\n      and\n        /* \"#utility.yul\":9380:9403   */\n      mul\n        /* \"#utility.yul\":9377:9378   */\n      0x02\n        /* \"#utility.yul\":9373:9404   */\n      exp\n      not(0x00)\n        /* \"#utility.yul\":9361:9405   */\n      div\n        /* \"#utility.yul\":9357:9406   */\n      not\n        /* \"#utility.yul\":9342:9407   */\n      and\n        /* \"#utility.yul\":9327:9408   */\n      dup2\n      sstore\n        /* \"#utility.yul\":9214:9422   */\n    tag_283:\n      pop\n      pop\n      pop\n      pop\n      pop\n        /* \"#utility.yul\":9464:9465   */\n      0x02\n        /* \"#utility.yul\":9452:9466   */\n      mul\n        /* \"#utility.yul\":9468:9469   */\n      0x01\n        /* \"#utility.yul\":9448:9470   */\n      add\n        /* \"#utility.yul\":9435:9471   */\n      swap1\n      sstore\n      pop\n        /* \"#utility.yul\":8379:9738   */\n      jump\t// out\n        /* \"#utility.yul\":9743:10421   */\n    tag_134:\n        /* \"#utility.yul\":10024:10027   */\n      0xa0\n        /* \"#utility.yul\":10013:10022   */\n      dup2\n        /* \"#utility.yul\":10006:10028   */\n      mstore\n        /* \"#utility.yul\":9987:9991   */\n      0x00\n        /* \"#utility.yul\":10051:10097   */\n      tag_285\n        /* \"#utility.yul\":10092:10095   */\n      0xa0\n        /* \"#utility.yul\":10081:10090   */\n      dup4\n        /* \"#utility.yul\":10077:10096   */\n      add\n        /* \"#utility.yul\":10069:10075   */\n      dup9\n        /* \"#utility.yul\":10051:10097   */\n      tag_196\n      jump\t// in\n    tag_285:\n      sub(exp(0x02, 0xa0), 0x01)\n        /* \"#utility.yul\":10206:10208   */\n      dup1\n        /* \"#utility.yul\":10198:10204   */\n      dup9\n        /* \"#utility.yul\":10194:10209   */\n      and\n        /* \"#utility.yul\":10189:10191   */\n      0x20\n        /* \"#utility.yul\":10178:10187   */\n      dup6\n        /* \"#utility.yul\":10174:10192   */\n      add\n        /* \"#utility.yul\":10167:10210   */\n      mstore\n        /* \"#utility.yul\":10246:10252   */\n      dup7\n        /* \"#utility.yul\":10241:10243   */\n      0x40\n        /* \"#utility.yul\":10230:10239   */\n      dup6\n        /* \"#utility.yul\":10226:10244   */\n      add\n        /* \"#utility.yul\":10219:10253   */\n      mstore\n        /* \"#utility.yul\":10301:10310   */\n      dup4\n        /* \"#utility.yul\":10293:10299   */\n      dup3\n        /* \"#utility.yul\":10289:10311   */\n      sub\n        /* \"#utility.yul\":10284:10286   */\n      0x60\n        /* \"#utility.yul\":10273:10282   */\n      dup6\n        /* \"#utility.yul\":10269:10287   */\n      add\n        /* \"#utility.yul\":10262:10312   */\n      mstore\n        /* \"#utility.yul\":10329:10362   */\n      tag_286\n        /* \"#utility.yul\":10355:10361   */\n      dup3\n        /* \"#utility.yul\":10347:10353   */\n      dup8\n        /* \"#utility.yul\":10329:10362   */\n      tag_196\n      jump\t// in\n    tag_286:\n        /* \"#utility.yul\":10321:10362   */\n      swap3\n      pop\n        /* \"#utility.yul\":10411:10413   */\n      dup1\n        /* \"#utility.yul\":10403:10409   */\n      dup6\n        /* \"#utility.yul\":10399:10414   */\n      and\n        /* \"#utility.yul\":10393:10396   */\n      0x80\n        /* \"#utility.yul\":10382:10391   */\n      dup6\n        /* \"#utility.yul\":10378:10397   */\n      add\n        /* \"#utility.yul\":10371:10415   */\n      mstore\n      pop\n      pop\n        /* \"#utility.yul\":9743:10421   */\n      swap7\n      swap6\n      pop\n      pop\n      pop\n      pop\n      pop\n      pop\n      jump\t// out\n        /* \"#utility.yul\":11194:11319   */\n    tag_180:\n        /* \"#utility.yul\":11259:11268   */\n      dup1\n      dup3\n      add\n        /* \"#utility.yul\":11280:11290   */\n      dup1\n      dup3\n      gt\n        /* \"#utility.yul\":11277:11313   */\n      iszero\n      tag_291\n      jumpi\n        /* \"#utility.yul\":11293:11311   */\n      tag_291\n      tag_197\n      jump\t// in\n    tag_291:\n        /* \"#utility.yul\":11194:11319   */\n      swap3\n      swap2\n      pop\n      pop\n      jump\t// out\n    stop\n\n    sub_0: assembly {\n            /* \"contracts/Employee.sol\":91:442  contract Employee is BaseUser {... */\n          mstore(0x40, 0x80)\n            /* \"contracts/Employee.sol\":189:437  constructor(... */\n          callvalue\n          dup1\n          iszero\n          tag_1\n          jumpi\n          0x00\n          dup1\n          revert\n        tag_1:\n          pop\n          mload(0x40)\n          sub(codesize, bytecodeSize)\n          dup1\n          bytecodeSize\n          dup4\n          codecopy\n          dup2\n          add\n          0x40\n          dup2\n          swap1\n          mstore\n          tag_2\n          swap2\n          tag_3\n          jump\t// in\n        tag_2:\n            /* \"contracts/Employee.sol\":344:351  newName */\n          dup4\n            /* \"contracts/Employee.sol\":353:363  newAddress */\n          dup4\n            /* \"contracts/BaseUser.sol\":219:223  name */\n          0x00\n            /* \"contracts/BaseUser.sol\":219:233  name = newName */\n          tag_7\n            /* \"contracts/Employee.sol\":344:351  newName */\n          dup4\n            /* \"contracts/BaseUser.sol\":219:223  name */\n          dup3\n            /* \"contracts/BaseUser.sol\":219:233  name = newName */\n          tag_8\n          jump\t// in\n        tag_7:\n          pop\n            /* \"contracts/BaseUser.sol\":244:259  withdrawAddress */\n          0x01\n            /* \"contracts/BaseUser.sol\":244:272  withdrawAddress = newAddress */\n          dup1\n          sload\n          not(sub(exp(0x02, 0xa0), 0x01))\n          and\n          sub(exp(0x02, 0xa0), 0x01)\n          swap3\n          swap1\n          swap3\n          and\n          swap2\n          swap1\n          swap2\n          or\n          swap1\n          sstore\n          pop\n            /* \"contracts/Employee.sol\":376:386  profession */\n          0x02\n            /* \"contracts/Employee.sol\":376:402  profession = newProfession */\n          tag_10\n            /* \"contracts/Employee.sol\":389:402  newProfession */\n          dup4\n            /* \"contracts/Employee.sol\":376:386  profession */\n          dup3\n            /* \"contracts/Employee.sol\":376:402  profession = newProfession */\n          tag_8\n          jump\t// in\n        tag_10:\n          pop\n            /* \"contracts/Employee.sol\":413:419  salary */\n          0x03\n            /* \"contracts/Employee.sol\":413:429  salary = _salary */\n          sstore\n          pop\n            /* \"contracts/Employee.sol\":91:442  contract Employee is BaseUser {... */\n          tag_18\n          swap2\n          pop\n          pop\n          jump\n            /* \"#utility.yul\":14:198   */\n        tag_12:\n            /* \"#utility.yul\":66:143   */\n          0x4e487b7100000000000000000000000000000000000000000000000000000000\n            /* \"#utility.yul\":63:64   */\n          0x00\n            /* \"#utility.yul\":56:144   */\n          mstore\n            /* \"#utility.yul\":163:167   */\n          0x41\n            /* \"#utility.yul\":160:161   */\n          0x04\n            /* \"#utility.yul\":153:168   */\n          mstore\n            /* \"#utility.yul\":187:191   */\n          0x24\n            /* \"#utility.yul\":184:185   */\n          0x00\n            /* \"#utility.yul\":177:192   */\n          revert\n            /* \"#utility.yul\":203:1043   */\n        tag_13:\n            /* \"#utility.yul\":257:262   */\n          0x00\n            /* \"#utility.yul\":310:313   */\n          dup3\n            /* \"#utility.yul\":303:307   */\n          0x1f\n            /* \"#utility.yul\":295:301   */\n          dup4\n            /* \"#utility.yul\":291:308   */\n          add\n            /* \"#utility.yul\":287:314   */\n          slt\n            /* \"#utility.yul\":277:332   */\n          tag_21\n          jumpi\n            /* \"#utility.yul\":328:329   */\n          0x00\n            /* \"#utility.yul\":325:326   */\n          dup1\n            /* \"#utility.yul\":318:330   */\n          revert\n            /* \"#utility.yul\":277:332   */\n        tag_21:\n            /* \"#utility.yul\":357:363   */\n          dup2\n            /* \"#utility.yul\":351:364   */\n          mload\n          sub(exp(0x02, 0x40), 0x01)\n            /* \"#utility.yul\":420:422   */\n          dup1\n            /* \"#utility.yul\":416:418   */\n          dup3\n            /* \"#utility.yul\":413:423   */\n          gt\n            /* \"#utility.yul\":410:446   */\n          iszero\n          tag_23\n          jumpi\n            /* \"#utility.yul\":426:444   */\n          tag_23\n          tag_12\n          jump\t// in\n        tag_23:\n            /* \"#utility.yul\":501:503   */\n          0x40\n            /* \"#utility.yul\":495:504   */\n          mload\n            /* \"#utility.yul\":469:471   */\n          0x1f\n            /* \"#utility.yul\":555:568   */\n          dup4\n          add\n          not(0x1f)\n            /* \"#utility.yul\":551:573   */\n          swap1\n          dup2\n          and\n            /* \"#utility.yul\":575:577   */\n          0x3f\n            /* \"#utility.yul\":547:578   */\n          add\n            /* \"#utility.yul\":543:583   */\n          and\n            /* \"#utility.yul\":531:584   */\n          dup2\n          add\n          swap1\n            /* \"#utility.yul\":599:617   */\n          dup3\n          dup3\n          gt\n            /* \"#utility.yul\":619:641   */\n          dup2\n          dup4\n          lt\n            /* \"#utility.yul\":596:642   */\n          or\n            /* \"#utility.yul\":593:665   */\n          iszero\n          tag_25\n          jumpi\n            /* \"#utility.yul\":645:663   */\n          tag_25\n          tag_12\n          jump\t// in\n        tag_25:\n            /* \"#utility.yul\":685:695   */\n          dup2\n            /* \"#utility.yul\":681:683   */\n          0x40\n            /* \"#utility.yul\":674:696   */\n          mstore\n            /* \"#utility.yul\":720:722   */\n          dup4\n            /* \"#utility.yul\":712:718   */\n          dup2\n            /* \"#utility.yul\":705:723   */\n          mstore\n            /* \"#utility.yul\":742:746   */\n          0x20\n            /* \"#utility.yul\":732:746   */\n          swap3\n          pop\n            /* \"#utility.yul\":787:790   */\n          dup7\n            /* \"#utility.yul\":782:784   */\n          dup4\n            /* \"#utility.yul\":777:779   */\n          dup6\n            /* \"#utility.yul\":769:775   */\n          dup9\n            /* \"#utility.yul\":765:780   */\n          add\n            /* \"#utility.yul\":761:785   */\n          add\n            /* \"#utility.yul\":758:791   */\n          gt\n            /* \"#utility.yul\":755:808   */\n          iszero\n          tag_26\n          jumpi\n            /* \"#utility.yul\":804:805   */\n          0x00\n            /* \"#utility.yul\":801:802   */\n          dup1\n            /* \"#utility.yul\":794:806   */\n          revert\n            /* \"#utility.yul\":755:808   */\n        tag_26:\n            /* \"#utility.yul\":826:827   */\n          0x00\n            /* \"#utility.yul\":817:827   */\n          swap2\n          pop\n            /* \"#utility.yul\":836:969   */\n        tag_27:\n            /* \"#utility.yul\":850:852   */\n          dup4\n            /* \"#utility.yul\":847:848   */\n          dup3\n            /* \"#utility.yul\":844:853   */\n          lt\n            /* \"#utility.yul\":836:969   */\n          iszero\n          tag_29\n          jumpi\n            /* \"#utility.yul\":938:952   */\n          dup6\n          dup3\n          add\n            /* \"#utility.yul\":934:957   */\n          dup4\n          add\n            /* \"#utility.yul\":928:958   */\n          mload\n            /* \"#utility.yul\":907:921   */\n          dup2\n          dup4\n          add\n            /* \"#utility.yul\":903:926   */\n          dup5\n          add\n            /* \"#utility.yul\":896:959   */\n          mstore\n            /* \"#utility.yul\":861:871   */\n          swap1\n          dup3\n          add\n          swap1\n            /* \"#utility.yul\":836:969   */\n          jump(tag_27)\n        tag_29:\n            /* \"#utility.yul\":1011:1012   */\n          0x00\n            /* \"#utility.yul\":989:1004   */\n          swap4\n          dup2\n          add\n            /* \"#utility.yul\":985:1009   */\n          swap1\n          swap3\n          add\n            /* \"#utility.yul\":978:1013   */\n          swap3\n          swap1\n          swap3\n          mstore\n            /* \"#utility.yul\":993:999   */\n          swap5\n            /* \"#utility.yul\":203:1043   */\n          swap4\n          pop\n          pop\n          pop\n          pop\n          jump\t// out\n            /* \"#utility.yul\":1048:1839   */\n        tag_3:\n            /* \"#utility.yul\":1165:1171   */\n          0x00\n            /* \"#utility.yul\":1173:1179   */\n          dup1\n            /* \"#utility.yul\":1181:1187   */\n          0x00\n            /* \"#utility.yul\":1189:1195   */\n          dup1\n            /* \"#utility.yul\":1242:1245   */\n          0x80\n            /* \"#utility.yul\":1230:1239   */\n          dup6\n            /* \"#utility.yul\":1221:1228   */\n          dup8\n            /* \"#utility.yul\":1217:1240   */\n          sub\n            /* \"#utility.yul\":1213:1246   */\n          slt\n            /* \"#utility.yul\":1210:1263   */\n          iszero\n          tag_31\n          jumpi\n            /* \"#utility.yul\":1259:1260   */\n          0x00\n            /* \"#utility.yul\":1256:1257   */\n          dup1\n            /* \"#utility.yul\":1249:1261   */\n          revert\n            /* \"#utility.yul\":1210:1263   */\n        tag_31:\n            /* \"#utility.yul\":1292:1301   */\n          dup5\n            /* \"#utility.yul\":1286:1302   */\n          mload\n          sub(exp(0x02, 0x40), 0x01)\n            /* \"#utility.yul\":1362:1364   */\n          dup1\n            /* \"#utility.yul\":1354:1360   */\n          dup3\n            /* \"#utility.yul\":1351:1365   */\n          gt\n            /* \"#utility.yul\":1348:1382   */\n          iszero\n          tag_32\n          jumpi\n            /* \"#utility.yul\":1378:1379   */\n          0x00\n            /* \"#utility.yul\":1375:1376   */\n          dup1\n            /* \"#utility.yul\":1368:1380   */\n          revert\n            /* \"#utility.yul\":1348:1382   */\n        tag_32:\n            /* \"#utility.yul\":1401:1462   */\n          tag_33\n            /* \"#utility.yul\":1454:1461   */\n          dup9\n            /* \"#utility.yul\":1445:1451   */\n          dup4\n            /* \"#utility.yul\":1434:1443   */\n          dup10\n            /* \"#utility.yul\":1430:1452   */\n          add\n            /* \"#utility.yul\":1401:1462   */\n          tag_13\n          jump\t// in\n        tag_33:\n            /* \"#utility.yul\":1505:1507   */\n          0x20\n            /* \"#utility.yul\":1490:1508   */\n          dup9\n          add\n            /* \"#utility.yul\":1484:1509   */\n          mload\n            /* \"#utility.yul\":1391:1462   */\n          swap1\n          swap7\n          pop\n            /* \"#utility.yul\":1484:1509   */\n          swap2\n          pop\n          sub(exp(0x02, 0xa0), 0x01)\n            /* \"#utility.yul\":1538:1569   */\n          dup3\n          and\n            /* \"#utility.yul\":1528:1570   */\n          dup3\n          eq\n            /* \"#utility.yul\":1518:1588   */\n          tag_34\n          jumpi\n            /* \"#utility.yul\":1584:1585   */\n          0x00\n            /* \"#utility.yul\":1581:1582   */\n          dup1\n            /* \"#utility.yul\":1574:1586   */\n          revert\n            /* \"#utility.yul\":1518:1588   */\n        tag_34:\n            /* \"#utility.yul\":1658:1660   */\n          0x40\n            /* \"#utility.yul\":1643:1661   */\n          dup8\n          add\n            /* \"#utility.yul\":1637:1662   */\n          mload\n            /* \"#utility.yul\":1607:1612   */\n          swap2\n          swap5\n          pop\n            /* \"#utility.yul\":1674:1690   */\n          dup1\n          dup3\n          gt\n            /* \"#utility.yul\":1671:1707   */\n          iszero\n          tag_35\n          jumpi\n            /* \"#utility.yul\":1703:1704   */\n          0x00\n            /* \"#utility.yul\":1700:1701   */\n          dup1\n            /* \"#utility.yul\":1693:1705   */\n          revert\n            /* \"#utility.yul\":1671:1707   */\n        tag_35:\n          pop\n            /* \"#utility.yul\":1726:1789   */\n          tag_36\n            /* \"#utility.yul\":1781:1788   */\n          dup8\n            /* \"#utility.yul\":1770:1778   */\n          dup3\n            /* \"#utility.yul\":1759:1768   */\n          dup9\n            /* \"#utility.yul\":1755:1779   */\n          add\n            /* \"#utility.yul\":1726:1789   */\n          tag_13\n          jump\t// in\n        tag_36:\n            /* \"#utility.yul\":1829:1831   */\n          0x60\n            /* \"#utility.yul\":1814:1832   */\n          swap7\n          swap1\n          swap7\n          add\n            /* \"#utility.yul\":1808:1833   */\n          mload\n            /* \"#utility.yul\":1048:1839   */\n          swap5\n          swap8\n          swap4\n          swap7\n          pop\n          pop\n          pop\n          pop\n          jump\t// out\n            /* \"#utility.yul\":1844:2281   */\n        tag_14:\n            /* \"#utility.yul\":1929:1930   */\n          0x02\n            /* \"#utility.yul\":1919:1931   */\n          dup2\n          div\n            /* \"#utility.yul\":1976:1977   */\n          0x01\n            /* \"#utility.yul\":1966:1978   */\n          dup3\n          and\n          dup1\n            /* \"#utility.yul\":1987:2048   */\n          tag_38\n          jumpi\n            /* \"#utility.yul\":2041:2045   */\n          0x7f\n            /* \"#utility.yul\":2033:2039   */\n          dup3\n            /* \"#utility.yul\":2029:2046   */\n          and\n            /* \"#utility.yul\":2019:2046   */\n          swap2\n          pop\n            /* \"#utility.yul\":1987:2048   */\n        tag_38:\n            /* \"#utility.yul\":2094:2096   */\n          0x20\n            /* \"#utility.yul\":2086:2092   */\n          dup3\n            /* \"#utility.yul\":2083:2097   */\n          lt\n            /* \"#utility.yul\":2063:2081   */\n          dup2\n            /* \"#utility.yul\":2060:2098   */\n          sub\n            /* \"#utility.yul\":2057:2275   */\n          tag_39\n          jumpi\n            /* \"#utility.yul\":2131:2208   */\n          0x4e487b7100000000000000000000000000000000000000000000000000000000\n            /* \"#utility.yul\":2128:2129   */\n          0x00\n            /* \"#utility.yul\":2121:2209   */\n          mstore\n            /* \"#utility.yul\":2232:2236   */\n          0x22\n            /* \"#utility.yul\":2229:2230   */\n          0x04\n            /* \"#utility.yul\":2222:2237   */\n          mstore\n            /* \"#utility.yul\":2260:2264   */\n          0x24\n            /* \"#utility.yul\":2257:2258   */\n          0x00\n            /* \"#utility.yul\":2250:2265   */\n          revert\n            /* \"#utility.yul\":2057:2275   */\n        tag_39:\n          pop\n            /* \"#utility.yul\":1844:2281   */\n          swap2\n          swap1\n          pop\n          jump\t// out\n            /* \"#utility.yul\":2412:2963   */\n        tag_16:\n            /* \"#utility.yul\":2514:2516   */\n          0x1f\n            /* \"#utility.yul\":2509:2512   */\n          dup3\n            /* \"#utility.yul\":2506:2517   */\n          gt\n            /* \"#utility.yul\":2503:2957   */\n          iszero\n          tag_42\n          jumpi\n            /* \"#utility.yul\":2550:2551   */\n          0x00\n            /* \"#utility.yul\":2575:2580   */\n          dup2\n            /* \"#utility.yul\":2571:2573   */\n          dup2\n            /* \"#utility.yul\":2564:2581   */\n          mstore\n            /* \"#utility.yul\":2620:2624   */\n          0x20\n            /* \"#utility.yul\":2616:2618   */\n          dup2\n            /* \"#utility.yul\":2606:2625   */\n          keccak256\n            /* \"#utility.yul\":2692:2696   */\n          0x20\n            /* \"#utility.yul\":2687:2689   */\n          0x1f\n            /* \"#utility.yul\":2675:2685   */\n          dup7\n            /* \"#utility.yul\":2671:2690   */\n          add\n            /* \"#utility.yul\":2667:2697   */\n          div\n            /* \"#utility.yul\":2661:2665   */\n          dup2\n            /* \"#utility.yul\":2657:2698   */\n          add\n            /* \"#utility.yul\":2729:2733   */\n          0x20\n            /* \"#utility.yul\":2717:2727   */\n          dup7\n            /* \"#utility.yul\":2714:2734   */\n          lt\n            /* \"#utility.yul\":2711:2758   */\n          iszero\n          tag_43\n          jumpi\n          pop\n            /* \"#utility.yul\":2752:2756   */\n          dup1\n            /* \"#utility.yul\":2711:2758   */\n        tag_43:\n            /* \"#utility.yul\":2809:2813   */\n          0x20\n            /* \"#utility.yul\":2804:2806   */\n          0x1f\n            /* \"#utility.yul\":2799:2802   */\n          dup7\n            /* \"#utility.yul\":2795:2807   */\n          add\n            /* \"#utility.yul\":2791:2814   */\n          div\n            /* \"#utility.yul\":2785:2789   */\n          dup3\n            /* \"#utility.yul\":2781:2815   */\n          add\n            /* \"#utility.yul\":2771:2815   */\n          swap2\n          pop\n            /* \"#utility.yul\":2865:2947   */\n        tag_44:\n            /* \"#utility.yul\":2883:2885   */\n          dup2\n            /* \"#utility.yul\":2876:2881   */\n          dup2\n            /* \"#utility.yul\":2873:2886   */\n          lt\n            /* \"#utility.yul\":2865:2947   */\n          iszero\n          tag_46\n          jumpi\n            /* \"#utility.yul\":2928:2945   */\n          dup3\n          dup2\n          sstore\n            /* \"#utility.yul\":2909:2910   */\n          0x01\n            /* \"#utility.yul\":2898:2911   */\n          add\n            /* \"#utility.yul\":2865:2947   */\n          jump(tag_44)\n        tag_46:\n            /* \"#utility.yul\":2869:2872   */\n          pop\n          pop\n          pop\n            /* \"#utility.yul\":2503:2957   */\n        tag_42:\n            /* \"#utility.yul\":2412:2963   */\n          pop\n          pop\n          pop\n          jump\t// out\n            /* \"#utility.yul\":3147:4506   */\n        tag_8:\n            /* \"#utility.yul\":3273:3276   */\n          dup2\n            /* \"#utility.yul\":3267:3277   */\n          mload\n          sub(exp(0x02, 0x40), 0x01)\n            /* \"#utility.yul\":3292:3298   */\n          dup2\n            /* \"#utility.yul\":3289:3319   */\n          gt\n            /* \"#utility.yul\":3286:3342   */\n          iszero\n          tag_50\n          jumpi\n            /* \"#utility.yul\":3322:3340   */\n          tag_50\n          tag_12\n          jump\t// in\n        tag_50:\n            /* \"#utility.yul\":3351:3448   */\n          tag_51\n            /* \"#utility.yul\":3441:3447   */\n          dup2\n            /* \"#utility.yul\":3401:3439   */\n          tag_52\n            /* \"#utility.yul\":3433:3437   */\n          dup5\n            /* \"#utility.yul\":3427:3438   */\n          sload\n            /* \"#utility.yul\":3401:3439   */\n          tag_14\n          jump\t// in\n        tag_52:\n            /* \"#utility.yul\":3395:3399   */\n          dup5\n            /* \"#utility.yul\":3351:3448   */\n          tag_16\n          jump\t// in\n        tag_51:\n            /* \"#utility.yul\":3503:3507   */\n          0x20\n          dup1\n            /* \"#utility.yul\":3567:3569   */\n          0x1f\n            /* \"#utility.yul\":3556:3570   */\n          dup4\n          gt\n            /* \"#utility.yul\":3584:3585   */\n          0x01\n            /* \"#utility.yul\":3579:4249   */\n          dup2\n          eq\n          tag_54\n          jumpi\n            /* \"#utility.yul\":4293:4294   */\n          0x00\n            /* \"#utility.yul\":4310:4316   */\n          dup5\n            /* \"#utility.yul\":4307:4396   */\n          iszero\n          tag_55\n          jumpi\n          pop\n            /* \"#utility.yul\":4362:4381   */\n          dup6\n          dup4\n          add\n            /* \"#utility.yul\":4356:4382   */\n          mload\n            /* \"#utility.yul\":4307:4396   */\n        tag_55:\n            /* \"#utility.yul\":3128:3129   */\n          0x02\n            /* \"#utility.yul\":3124:3135   */\n          dup1\n          dup7\n          mul\n            /* \"#utility.yul\":3111:3112   */\n          0x08\n            /* \"#utility.yul\":3107:3118   */\n          dup8\n          mul\n            /* \"#utility.yul\":3100:3119   */\n          swap1\n          swap2\n          exp\n          not(0x00)\n            /* \"#utility.yul\":3088:3120   */\n          div\n            /* \"#utility.yul\":3084:3121   */\n          not\n            /* \"#utility.yul\":3074:3122   */\n          dup3\n          and\n            /* \"#utility.yul\":3071:3136   */\n          or\n            /* \"#utility.yul\":4416:4420   */\n          dup7\n            /* \"#utility.yul\":4409:4490   */\n          sstore\n          pop\n            /* \"#utility.yul\":3549:4500   */\n          jump(tag_46)\n            /* \"#utility.yul\":3579:4249   */\n        tag_54:\n            /* \"#utility.yul\":2359:2360   */\n          0x00\n            /* \"#utility.yul\":2352:2366   */\n          dup6\n          dup2\n          mstore\n            /* \"#utility.yul\":2396:2400   */\n          0x20\n            /* \"#utility.yul\":2383:2401   */\n          dup2\n          keccak256\n          not(0x1f)\n            /* \"#utility.yul\":3615:3635   */\n          dup7\n          and\n          swap2\n            /* \"#utility.yul\":3733:3969   */\n        tag_58:\n            /* \"#utility.yul\":3747:3754   */\n          dup3\n            /* \"#utility.yul\":3744:3745   */\n          dup2\n            /* \"#utility.yul\":3741:3755   */\n          lt\n            /* \"#utility.yul\":3733:3969   */\n          iszero\n          tag_60\n          jumpi\n            /* \"#utility.yul\":3836:3855   */\n          dup9\n          dup7\n          add\n            /* \"#utility.yul\":3830:3856   */\n          mload\n            /* \"#utility.yul\":3815:3857   */\n          dup3\n          sstore\n            /* \"#utility.yul\":3928:3955   */\n          swap5\n          dup5\n          add\n          swap5\n            /* \"#utility.yul\":3896:3897   */\n          0x01\n            /* \"#utility.yul\":3884:3898   */\n          swap1\n          swap2\n          add\n          swap1\n            /* \"#utility.yul\":3763:3782   */\n          dup5\n          add\n            /* \"#utility.yul\":3733:3969   */\n          jump(tag_58)\n        tag_60:\n            /* \"#utility.yul\":3737:3740   */\n          pop\n            /* \"#utility.yul\":3997:4003   */\n          dup6\n            /* \"#utility.yul\":3988:3995   */\n          dup3\n            /* \"#utility.yul\":3985:4004   */\n          lt\n            /* \"#utility.yul\":3982:4190   */\n          iszero\n          tag_61\n          jumpi\n            /* \"#utility.yul\":4058:4077   */\n          dup8\n          dup6\n          add\n            /* \"#utility.yul\":4052:4078   */\n          mload\n            /* \"#utility.yul\":4152:4153   */\n          0x08\n            /* \"#utility.yul\":4167:4169   */\n          0x1f\n            /* \"#utility.yul\":4155:4170   */\n          dup9\n          and\n            /* \"#utility.yul\":4148:4171   */\n          mul\n            /* \"#utility.yul\":4145:4146   */\n          0x02\n            /* \"#utility.yul\":4141:4172   */\n          exp\n          not(0x00)\n            /* \"#utility.yul\":4129:4173   */\n          div\n            /* \"#utility.yul\":4125:4174   */\n          not\n            /* \"#utility.yul\":4110:4175   */\n          and\n            /* \"#utility.yul\":4095:4176   */\n          dup2\n          sstore\n            /* \"#utility.yul\":3982:4190   */\n        tag_61:\n          pop\n          pop\n          pop\n          pop\n          pop\n            /* \"#utility.yul\":4232:4233   */\n          0x02\n            /* \"#utility.yul\":4220:4234   */\n          mul\n            /* \"#utility.yul\":4236:4237   */\n          0x01\n            /* \"#utility.yul\":4216:4238   */\n          add\n            /* \"#utility.yul\":4203:4239   */\n          swap1\n          sstore\n          pop\n            /* \"#utility.yul\":3147:4506   */\n          jump\t// out\n        tag_18:\n            /* \"contracts/Employee.sol\":91:442  contract Employee is BaseUser {... */\n          dataSize(sub_0)\n          dup1\n          dataOffset(sub_0)\n          0x00\n          codecopy\n          0x00\n          return\n        stop\n\n        sub_0: assembly {\n                /* \"contracts/Employee.sol\":91:442  contract Employee is BaseUser {... */\n              mstore(0x40, 0x80)\n              callvalue\n              dup1\n              iszero\n              tag_1\n              jumpi\n              0x00\n              dup1\n              revert\n            tag_1:\n              pop\n              jumpi(tag_2, lt(calldatasize, 0x04))\n              div(calldataload(0x00), 0x0100000000000000000000000000000000000000000000000000000000)\n              0x0397b652\n              dup2\n              eq\n              tag_3\n              jumpi\n              dup1\n              0x1581b600\n              eq\n              tag_4\n              jumpi\n              dup1\n              0xd4e93292\n              eq\n              tag_5\n              jumpi\n            tag_2:\n              0x00\n              dup1\n              revert\n                /* \"contracts/Employee.sol\":162:180  uint public salary */\n            tag_3:\n              tag_6\n              sload(0x03)\n              dup2\n              jump\n            tag_6:\n              mload(0x40)\n                /* \"#utility.yul\":160:185   */\n              swap1\n              dup2\n              mstore\n                /* \"#utility.yul\":148:150   */\n              0x20\n                /* \"#utility.yul\":133:151   */\n              add\n                /* \"contracts/Employee.sol\":162:180  uint public salary */\n            tag_8:\n              mload(0x40)\n              dup1\n              swap2\n              sub\n              swap1\n              return\n                /* \"contracts/BaseUser.sol\":114:144  address public withdrawAddress */\n            tag_4:\n              sload(0x01)\n              tag_10\n              swap1\n              0xffffffffffffffffffffffffffffffffffffffff\n              and\n              dup2\n              jump\n            tag_10:\n              mload(0x40)\n                /* \"#utility.yul\":372:414   */\n              0xffffffffffffffffffffffffffffffffffffffff\n                /* \"#utility.yul\":360:415   */\n              swap1\n              swap2\n              and\n                /* \"#utility.yul\":342:416   */\n              dup2\n              mstore\n                /* \"#utility.yul\":330:332   */\n              0x20\n                /* \"#utility.yul\":315:333   */\n              add\n                /* \"contracts/BaseUser.sol\":114:144  address public withdrawAddress */\n              tag_8\n                /* \"#utility.yul\":196:422   */\n              jump\n                /* \"contracts/BaseUser.sol\":288:388  function withdrawal() public {... */\n            tag_5:\n              stop\n\n            auxdata: 0xa2646970667358221220e26f9b565671fa84c384cfdf2939cdf570d38e59186452e3eebacb6b154d5d6664736f6c63430008110033\n        }\n    }\n\n    sub_1: assembly {\n            /* \"contracts/Tenant.sol\":89:1171  contract Tenant is BaseUser {... */\n          mstore(0x40, 0x80)\n            /* \"contracts/Tenant.sol\":391:752  constructor (... */\n          mload(0x40)\n          sub(codesize, bytecodeSize)\n          dup1\n          bytecodeSize\n          dup4\n          codecopy\n          dup2\n          add\n          0x40\n          dup2\n          swap1\n          mstore\n          tag_1\n          swap2\n          tag_2\n          jump\t// in\n        tag_1:\n            /* \"contracts/Tenant.sol\":589:593  name */\n          dup5\n            /* \"contracts/Tenant.sol\":595:612  newWithdraAddress */\n          dup5\n            /* \"contracts/BaseUser.sol\":219:223  name */\n          0x00\n            /* \"contracts/BaseUser.sol\":219:233  name = newName */\n          tag_6\n            /* \"contracts/Tenant.sol\":589:593  name */\n          dup4\n            /* \"contracts/BaseUser.sol\":219:223  name */\n          dup3\n            /* \"contracts/BaseUser.sol\":219:233  name = newName */\n          tag_7\n          jump\t// in\n        tag_6:\n          pop\n            /* \"contracts/BaseUser.sol\":244:259  withdrawAddress */\n          0x01\n            /* \"contracts/BaseUser.sol\":244:272  withdrawAddress = newAddress */\n          dup1\n          sload\n          not(sub(exp(0x02, 0xa0), 0x01))\n          and\n          sub(exp(0x02, 0xa0), 0x01)\n          swap3\n          swap1\n          swap3\n          and\n          swap2\n          swap1\n          swap2\n          or\n          swap1\n          sstore\n          pop\n            /* \"contracts/Tenant.sol\":636:648  servicePrice */\n          0x02\n            /* \"contracts/Tenant.sol\":636:656  servicePrice = price */\n          dup4\n          swap1\n          sstore\n            /* \"contracts/Tenant.sol\":667:682  buildingAddress */\n          0x03\n            /* \"contracts/Tenant.sol\":667:699  buildingAddress = newBuildingAdd */\n          tag_9\n            /* \"contracts/Tenant.sol\":685:699  newBuildingAdd */\n          dup4\n            /* \"contracts/Tenant.sol\":667:682  buildingAddress */\n          dup3\n            /* \"contracts/Tenant.sol\":667:699  buildingAddress = newBuildingAdd */\n          tag_7\n          jump\t// in\n        tag_9:\n          pop\n            /* \"contracts/Tenant.sol\":710:726  consorcioAddress */\n          0x04\n            /* \"contracts/Tenant.sol\":710:744  consorcioAddress = newConsorcioAdd */\n          dup1\n          sload\n          not(sub(exp(0x02, 0xa0), 0x01))\n          and\n          sub(exp(0x02, 0xa0), 0x01)\n          swap3\n          swap1\n          swap3\n          and\n          swap2\n          swap1\n          swap2\n          or\n          swap1\n          sstore\n          pop\n            /* \"contracts/Tenant.sol\":89:1171  contract Tenant is BaseUser {... */\n          tag_18\n          swap3\n          pop\n          pop\n          pop\n          jump\n            /* \"#utility.yul\":14:198   */\n        tag_11:\n            /* \"#utility.yul\":66:143   */\n          0x4e487b7100000000000000000000000000000000000000000000000000000000\n            /* \"#utility.yul\":63:64   */\n          0x00\n            /* \"#utility.yul\":56:144   */\n          mstore\n            /* \"#utility.yul\":163:167   */\n          0x41\n            /* \"#utility.yul\":160:161   */\n          0x04\n            /* \"#utility.yul\":153:168   */\n          mstore\n            /* \"#utility.yul\":187:191   */\n          0x24\n            /* \"#utility.yul\":184:185   */\n          0x00\n            /* \"#utility.yul\":177:192   */\n          revert\n            /* \"#utility.yul\":203:1043   */\n        tag_12:\n            /* \"#utility.yul\":257:262   */\n          0x00\n            /* \"#utility.yul\":310:313   */\n          dup3\n            /* \"#utility.yul\":303:307   */\n          0x1f\n            /* \"#utility.yul\":295:301   */\n          dup4\n            /* \"#utility.yul\":291:308   */\n          add\n            /* \"#utility.yul\":287:314   */\n          slt\n            /* \"#utility.yul\":277:332   */\n          tag_21\n          jumpi\n            /* \"#utility.yul\":328:329   */\n          0x00\n            /* \"#utility.yul\":325:326   */\n          dup1\n            /* \"#utility.yul\":318:330   */\n          revert\n            /* \"#utility.yul\":277:332   */\n        tag_21:\n            /* \"#utility.yul\":357:363   */\n          dup2\n            /* \"#utility.yul\":351:364   */\n          mload\n          sub(exp(0x02, 0x40), 0x01)\n            /* \"#utility.yul\":420:422   */\n          dup1\n            /* \"#utility.yul\":416:418   */\n          dup3\n            /* \"#utility.yul\":413:423   */\n          gt\n            /* \"#utility.yul\":410:446   */\n          iszero\n          tag_23\n          jumpi\n            /* \"#utility.yul\":426:444   */\n          tag_23\n          tag_11\n          jump\t// in\n        tag_23:\n            /* \"#utility.yul\":501:503   */\n          0x40\n            /* \"#utility.yul\":495:504   */\n          mload\n            /* \"#utility.yul\":469:471   */\n          0x1f\n            /* \"#utility.yul\":555:568   */\n          dup4\n          add\n          not(0x1f)\n            /* \"#utility.yul\":551:573   */\n          swap1\n          dup2\n          and\n            /* \"#utility.yul\":575:577   */\n          0x3f\n            /* \"#utility.yul\":547:578   */\n          add\n            /* \"#utility.yul\":543:583   */\n          and\n            /* \"#utility.yul\":531:584   */\n          dup2\n          add\n          swap1\n            /* \"#utility.yul\":599:617   */\n          dup3\n          dup3\n          gt\n            /* \"#utility.yul\":619:641   */\n          dup2\n          dup4\n          lt\n            /* \"#utility.yul\":596:642   */\n          or\n            /* \"#utility.yul\":593:665   */\n          iszero\n          tag_25\n          jumpi\n            /* \"#utility.yul\":645:663   */\n          tag_25\n          tag_11\n          jump\t// in\n        tag_25:\n            /* \"#utility.yul\":685:695   */\n          dup2\n            /* \"#utility.yul\":681:683   */\n          0x40\n            /* \"#utility.yul\":674:696   */\n          mstore\n            /* \"#utility.yul\":720:722   */\n          dup4\n            /* \"#utility.yul\":712:718   */\n          dup2\n            /* \"#utility.yul\":705:723   */\n          mstore\n            /* \"#utility.yul\":742:746   */\n          0x20\n            /* \"#utility.yul\":732:746   */\n          swap3\n          pop\n            /* \"#utility.yul\":787:790   */\n          dup7\n            /* \"#utility.yul\":782:784   */\n          dup4\n            /* \"#utility.yul\":777:779   */\n          dup6\n            /* \"#utility.yul\":769:775   */\n          dup9\n            /* \"#utility.yul\":765:780   */\n          add\n            /* \"#utility.yul\":761:785   */\n          add\n            /* \"#utility.yul\":758:791   */\n          gt\n            /* \"#utility.yul\":755:808   */\n          iszero\n          tag_26\n          jumpi\n            /* \"#utility.yul\":804:805   */\n          0x00\n            /* \"#utility.yul\":801:802   */\n          dup1\n            /* \"#utility.yul\":794:806   */\n          revert\n            /* \"#utility.yul\":755:808   */\n        tag_26:\n            /* \"#utility.yul\":826:827   */\n          0x00\n            /* \"#utility.yul\":817:827   */\n          swap2\n          pop\n            /* \"#utility.yul\":836:969   */\n        tag_27:\n            /* \"#utility.yul\":850:852   */\n          dup4\n            /* \"#utility.yul\":847:848   */\n          dup3\n            /* \"#utility.yul\":844:853   */\n          lt\n            /* \"#utility.yul\":836:969   */\n          iszero\n          tag_29\n          jumpi\n            /* \"#utility.yul\":938:952   */\n          dup6\n          dup3\n          add\n            /* \"#utility.yul\":934:957   */\n          dup4\n          add\n            /* \"#utility.yul\":928:958   */\n          mload\n            /* \"#utility.yul\":907:921   */\n          dup2\n          dup4\n          add\n            /* \"#utility.yul\":903:926   */\n          dup5\n          add\n            /* \"#utility.yul\":896:959   */\n          mstore\n            /* \"#utility.yul\":861:871   */\n          swap1\n          dup3\n          add\n          swap1\n            /* \"#utility.yul\":836:969   */\n          jump(tag_27)\n        tag_29:\n            /* \"#utility.yul\":1011:1012   */\n          0x00\n            /* \"#utility.yul\":989:1004   */\n          swap4\n          dup2\n          add\n            /* \"#utility.yul\":985:1009   */\n          swap1\n          swap3\n          add\n            /* \"#utility.yul\":978:1013   */\n          swap3\n          swap1\n          swap3\n          mstore\n            /* \"#utility.yul\":993:999   */\n          swap5\n            /* \"#utility.yul\":203:1043   */\n          swap4\n          pop\n          pop\n          pop\n          pop\n          jump\t// out\n            /* \"#utility.yul\":1048:1225   */\n        tag_13:\n            /* \"#utility.yul\":1127:1140   */\n          dup1\n          mload\n          sub(exp(0x02, 0xa0), 0x01)\n            /* \"#utility.yul\":1169:1200   */\n          dup2\n          and\n            /* \"#utility.yul\":1159:1201   */\n          dup2\n          eq\n            /* \"#utility.yul\":1149:1219   */\n          tag_31\n          jumpi\n            /* \"#utility.yul\":1215:1216   */\n          0x00\n            /* \"#utility.yul\":1212:1213   */\n          dup1\n            /* \"#utility.yul\":1205:1217   */\n          revert\n            /* \"#utility.yul\":1149:1219   */\n        tag_31:\n            /* \"#utility.yul\":1048:1225   */\n          swap2\n          swap1\n          pop\n          jump\t// out\n            /* \"#utility.yul\":1230:2025   */\n        tag_2:\n            /* \"#utility.yul\":1356:1362   */\n          0x00\n            /* \"#utility.yul\":1364:1370   */\n          dup1\n            /* \"#utility.yul\":1372:1378   */\n          0x00\n            /* \"#utility.yul\":1380:1386   */\n          dup1\n            /* \"#utility.yul\":1388:1394   */\n          0x00\n            /* \"#utility.yul\":1441:1444   */\n          0xa0\n            /* \"#utility.yul\":1429:1438   */\n          dup7\n            /* \"#utility.yul\":1420:1427   */\n          dup9\n            /* \"#utility.yul\":1416:1439   */\n          sub\n            /* \"#utility.yul\":1412:1445   */\n          slt\n            /* \"#utility.yul\":1409:1462   */\n          iszero\n          tag_33\n          jumpi\n            /* \"#utility.yul\":1458:1459   */\n          0x00\n            /* \"#utility.yul\":1455:1456   */\n          dup1\n            /* \"#utility.yul\":1448:1460   */\n          revert\n            /* \"#utility.yul\":1409:1462   */\n        tag_33:\n            /* \"#utility.yul\":1491:1500   */\n          dup6\n            /* \"#utility.yul\":1485:1501   */\n          mload\n          sub(exp(0x02, 0x40), 0x01)\n            /* \"#utility.yul\":1561:1563   */\n          dup1\n            /* \"#utility.yul\":1553:1559   */\n          dup3\n            /* \"#utility.yul\":1550:1564   */\n          gt\n            /* \"#utility.yul\":1547:1581   */\n          iszero\n          tag_34\n          jumpi\n            /* \"#utility.yul\":1577:1578   */\n          0x00\n            /* \"#utility.yul\":1574:1575   */\n          dup1\n            /* \"#utility.yul\":1567:1579   */\n          revert\n            /* \"#utility.yul\":1547:1581   */\n        tag_34:\n            /* \"#utility.yul\":1600:1661   */\n          tag_35\n            /* \"#utility.yul\":1653:1660   */\n          dup10\n            /* \"#utility.yul\":1644:1650   */\n          dup4\n            /* \"#utility.yul\":1633:1642   */\n          dup11\n            /* \"#utility.yul\":1629:1651   */\n          add\n            /* \"#utility.yul\":1600:1661   */\n          tag_12\n          jump\t// in\n        tag_35:\n            /* \"#utility.yul\":1590:1661   */\n          swap7\n          pop\n            /* \"#utility.yul\":1680:1729   */\n          tag_36\n            /* \"#utility.yul\":1725:1727   */\n          0x20\n            /* \"#utility.yul\":1714:1723   */\n          dup10\n            /* \"#utility.yul\":1710:1728   */\n          add\n            /* \"#utility.yul\":1680:1729   */\n          tag_13\n          jump\t// in\n        tag_36:\n            /* \"#utility.yul\":1670:1729   */\n          swap6\n          pop\n            /* \"#utility.yul\":1769:1771   */\n          0x40\n            /* \"#utility.yul\":1758:1767   */\n          dup9\n            /* \"#utility.yul\":1754:1772   */\n          add\n            /* \"#utility.yul\":1748:1773   */\n          mload\n            /* \"#utility.yul\":1738:1773   */\n          swap5\n          pop\n            /* \"#utility.yul\":1819:1821   */\n          0x60\n            /* \"#utility.yul\":1808:1817   */\n          dup9\n            /* \"#utility.yul\":1804:1822   */\n          add\n            /* \"#utility.yul\":1798:1823   */\n          mload\n            /* \"#utility.yul\":1782:1823   */\n          swap2\n          pop\n            /* \"#utility.yul\":1848:1850   */\n          dup1\n            /* \"#utility.yul\":1838:1846   */\n          dup3\n            /* \"#utility.yul\":1835:1851   */\n          gt\n            /* \"#utility.yul\":1832:1868   */\n          iszero\n          tag_37\n          jumpi\n            /* \"#utility.yul\":1864:1865   */\n          0x00\n            /* \"#utility.yul\":1861:1862   */\n          dup1\n            /* \"#utility.yul\":1854:1866   */\n          revert\n            /* \"#utility.yul\":1832:1868   */\n        tag_37:\n          pop\n            /* \"#utility.yul\":1887:1950   */\n          tag_38\n            /* \"#utility.yul\":1942:1949   */\n          dup9\n            /* \"#utility.yul\":1931:1939   */\n          dup3\n            /* \"#utility.yul\":1920:1929   */\n          dup10\n            /* \"#utility.yul\":1916:1940   */\n          add\n            /* \"#utility.yul\":1887:1950   */\n          tag_12\n          jump\t// in\n        tag_38:\n            /* \"#utility.yul\":1877:1950   */\n          swap3\n          pop\n          pop\n            /* \"#utility.yul\":1969:2019   */\n          tag_39\n            /* \"#utility.yul\":2014:2017   */\n          0x80\n            /* \"#utility.yul\":2003:2012   */\n          dup8\n            /* \"#utility.yul\":1999:2018   */\n          add\n            /* \"#utility.yul\":1969:2019   */\n          tag_13\n          jump\t// in\n        tag_39:\n            /* \"#utility.yul\":1959:2019   */\n          swap1\n          pop\n            /* \"#utility.yul\":1230:2025   */\n          swap3\n          swap6\n          pop\n          swap3\n          swap6\n          swap1\n          swap4\n          pop\n          jump\t// out\n            /* \"#utility.yul\":2030:2467   */\n        tag_14:\n            /* \"#utility.yul\":2115:2116   */\n          0x02\n            /* \"#utility.yul\":2105:2117   */\n          dup2\n          div\n            /* \"#utility.yul\":2162:2163   */\n          0x01\n            /* \"#utility.yul\":2152:2164   */\n          dup3\n          and\n          dup1\n            /* \"#utility.yul\":2173:2234   */\n          tag_41\n          jumpi\n            /* \"#utility.yul\":2227:2231   */\n          0x7f\n            /* \"#utility.yul\":2219:2225   */\n          dup3\n            /* \"#utility.yul\":2215:2232   */\n          and\n            /* \"#utility.yul\":2205:2232   */\n          swap2\n          pop\n            /* \"#utility.yul\":2173:2234   */\n        tag_41:\n            /* \"#utility.yul\":2280:2282   */\n          0x20\n            /* \"#utility.yul\":2272:2278   */\n          dup3\n            /* \"#utility.yul\":2269:2283   */\n          lt\n            /* \"#utility.yul\":2249:2267   */\n          dup2\n            /* \"#utility.yul\":2246:2284   */\n          sub\n            /* \"#utility.yul\":2243:2461   */\n          tag_42\n          jumpi\n            /* \"#utility.yul\":2317:2394   */\n          0x4e487b7100000000000000000000000000000000000000000000000000000000\n            /* \"#utility.yul\":2314:2315   */\n          0x00\n            /* \"#utility.yul\":2307:2395   */\n          mstore\n            /* \"#utility.yul\":2418:2422   */\n          0x22\n            /* \"#utility.yul\":2415:2416   */\n          0x04\n            /* \"#utility.yul\":2408:2423   */\n          mstore\n            /* \"#utility.yul\":2446:2450   */\n          0x24\n            /* \"#utility.yul\":2443:2444   */\n          0x00\n            /* \"#utility.yul\":2436:2451   */\n          revert\n            /* \"#utility.yul\":2243:2461   */\n        tag_42:\n          pop\n            /* \"#utility.yul\":2030:2467   */\n          swap2\n          swap1\n          pop\n          jump\t// out\n            /* \"#utility.yul\":2598:3149   */\n        tag_16:\n            /* \"#utility.yul\":2700:2702   */\n          0x1f\n            /* \"#utility.yul\":2695:2698   */\n          dup3\n            /* \"#utility.yul\":2692:2703   */\n          gt\n            /* \"#utility.yul\":2689:3143   */\n          iszero\n          tag_45\n          jumpi\n            /* \"#utility.yul\":2736:2737   */\n          0x00\n            /* \"#utility.yul\":2761:2766   */\n          dup2\n            /* \"#utility.yul\":2757:2759   */\n          dup2\n            /* \"#utility.yul\":2750:2767   */\n          mstore\n            /* \"#utility.yul\":2806:2810   */\n          0x20\n            /* \"#utility.yul\":2802:2804   */\n          dup2\n            /* \"#utility.yul\":2792:2811   */\n          keccak256\n            /* \"#utility.yul\":2878:2882   */\n          0x20\n            /* \"#utility.yul\":2873:2875   */\n          0x1f\n            /* \"#utility.yul\":2861:2871   */\n          dup7\n            /* \"#utility.yul\":2857:2876   */\n          add\n            /* \"#utility.yul\":2853:2883   */\n          div\n            /* \"#utility.yul\":2847:2851   */\n          dup2\n            /* \"#utility.yul\":2843:2884   */\n          add\n            /* \"#utility.yul\":2915:2919   */\n          0x20\n            /* \"#utility.yul\":2903:2913   */\n          dup7\n            /* \"#utility.yul\":2900:2920   */\n          lt\n            /* \"#utility.yul\":2897:2944   */\n          iszero\n          tag_46\n          jumpi\n          pop\n            /* \"#utility.yul\":2938:2942   */\n          dup1\n            /* \"#utility.yul\":2897:2944   */\n        tag_46:\n            /* \"#utility.yul\":2995:2999   */\n          0x20\n            /* \"#utility.yul\":2990:2992   */\n          0x1f\n            /* \"#utility.yul\":2985:2988   */\n          dup7\n            /* \"#utility.yul\":2981:2993   */\n          add\n            /* \"#utility.yul\":2977:3000   */\n          div\n            /* \"#utility.yul\":2971:2975   */\n          dup3\n            /* \"#utility.yul\":2967:3001   */\n          add\n            /* \"#utility.yul\":2957:3001   */\n          swap2\n          pop\n            /* \"#utility.yul\":3051:3133   */\n        tag_47:\n            /* \"#utility.yul\":3069:3071   */\n          dup2\n            /* \"#utility.yul\":3062:3067   */\n          dup2\n            /* \"#utility.yul\":3059:3072   */\n          lt\n            /* \"#utility.yul\":3051:3133   */\n          iszero\n          tag_49\n          jumpi\n            /* \"#utility.yul\":3114:3131   */\n          dup3\n          dup2\n          sstore\n            /* \"#utility.yul\":3095:3096   */\n          0x01\n            /* \"#utility.yul\":3084:3097   */\n          add\n            /* \"#utility.yul\":3051:3133   */\n          jump(tag_47)\n        tag_49:\n            /* \"#utility.yul\":3055:3058   */\n          pop\n          pop\n          pop\n            /* \"#utility.yul\":2689:3143   */\n        tag_45:\n            /* \"#utility.yul\":2598:3149   */\n          pop\n          pop\n          pop\n          jump\t// out\n            /* \"#utility.yul\":3333:4692   */\n        tag_7:\n            /* \"#utility.yul\":3459:3462   */\n          dup2\n            /* \"#utility.yul\":3453:3463   */\n          mload\n          sub(exp(0x02, 0x40), 0x01)\n            /* \"#utility.yul\":3478:3484   */\n          dup2\n            /* \"#utility.yul\":3475:3505   */\n          gt\n            /* \"#utility.yul\":3472:3528   */\n          iszero\n          tag_53\n          jumpi\n            /* \"#utility.yul\":3508:3526   */\n          tag_53\n          tag_11\n          jump\t// in\n        tag_53:\n            /* \"#utility.yul\":3537:3634   */\n          tag_54\n            /* \"#utility.yul\":3627:3633   */\n          dup2\n            /* \"#utility.yul\":3587:3625   */\n          tag_55\n            /* \"#utility.yul\":3619:3623   */\n          dup5\n            /* \"#utility.yul\":3613:3624   */\n          sload\n            /* \"#utility.yul\":3587:3625   */\n          tag_14\n          jump\t// in\n        tag_55:\n            /* \"#utility.yul\":3581:3585   */\n          dup5\n            /* \"#utility.yul\":3537:3634   */\n          tag_16\n          jump\t// in\n        tag_54:\n            /* \"#utility.yul\":3689:3693   */\n          0x20\n          dup1\n            /* \"#utility.yul\":3753:3755   */\n          0x1f\n            /* \"#utility.yul\":3742:3756   */\n          dup4\n          gt\n            /* \"#utility.yul\":3770:3771   */\n          0x01\n            /* \"#utility.yul\":3765:4435   */\n          dup2\n          eq\n          tag_57\n          jumpi\n            /* \"#utility.yul\":4479:4480   */\n          0x00\n            /* \"#utility.yul\":4496:4502   */\n          dup5\n            /* \"#utility.yul\":4493:4582   */\n          iszero\n          tag_58\n          jumpi\n          pop\n            /* \"#utility.yul\":4548:4567   */\n          dup6\n          dup4\n          add\n            /* \"#utility.yul\":4542:4568   */\n          mload\n            /* \"#utility.yul\":4493:4582   */\n        tag_58:\n            /* \"#utility.yul\":3314:3315   */\n          0x02\n            /* \"#utility.yul\":3310:3321   */\n          dup1\n          dup7\n          mul\n            /* \"#utility.yul\":3297:3298   */\n          0x08\n            /* \"#utility.yul\":3293:3304   */\n          dup8\n          mul\n            /* \"#utility.yul\":3286:3305   */\n          swap1\n          swap2\n          exp\n          not(0x00)\n            /* \"#utility.yul\":3274:3306   */\n          div\n            /* \"#utility.yul\":3270:3307   */\n          not\n            /* \"#utility.yul\":3260:3308   */\n          dup3\n          and\n            /* \"#utility.yul\":3257:3322   */\n          or\n            /* \"#utility.yul\":4602:4606   */\n          dup7\n            /* \"#utility.yul\":4595:4676   */\n          sstore\n          pop\n            /* \"#utility.yul\":3735:4686   */\n          jump(tag_49)\n            /* \"#utility.yul\":3765:4435   */\n        tag_57:\n            /* \"#utility.yul\":2545:2546   */\n          0x00\n            /* \"#utility.yul\":2538:2552   */\n          dup6\n          dup2\n          mstore\n            /* \"#utility.yul\":2582:2586   */\n          0x20\n            /* \"#utility.yul\":2569:2587   */\n          dup2\n          keccak256\n          not(0x1f)\n            /* \"#utility.yul\":3801:3821   */\n          dup7\n          and\n          swap2\n            /* \"#utility.yul\":3919:4155   */\n        tag_61:\n            /* \"#utility.yul\":3933:3940   */\n          dup3\n            /* \"#utility.yul\":3930:3931   */\n          dup2\n            /* \"#utility.yul\":3927:3941   */\n          lt\n            /* \"#utility.yul\":3919:4155   */\n          iszero\n          tag_63\n          jumpi\n            /* \"#utility.yul\":4022:4041   */\n          dup9\n          dup7\n          add\n            /* \"#utility.yul\":4016:4042   */\n          mload\n            /* \"#utility.yul\":4001:4043   */\n          dup3\n          sstore\n            /* \"#utility.yul\":4114:4141   */\n          swap5\n          dup5\n          add\n          swap5\n            /* \"#utility.yul\":4082:4083   */\n          0x01\n            /* \"#utility.yul\":4070:4084   */\n          swap1\n          swap2\n          add\n          swap1\n            /* \"#utility.yul\":3949:3968   */\n          dup5\n          add\n            /* \"#utility.yul\":3919:4155   */\n          jump(tag_61)\n        tag_63:\n            /* \"#utility.yul\":3923:3926   */\n          pop\n            /* \"#utility.yul\":4183:4189   */\n          dup6\n            /* \"#utility.yul\":4174:4181   */\n          dup3\n            /* \"#utility.yul\":4171:4190   */\n          lt\n            /* \"#utility.yul\":4168:4376   */\n          iszero\n          tag_64\n          jumpi\n            /* \"#utility.yul\":4244:4263   */\n          dup8\n          dup6\n          add\n            /* \"#utility.yul\":4238:4264   */\n          mload\n            /* \"#utility.yul\":4338:4339   */\n          0x08\n            /* \"#utility.yul\":4353:4355   */\n          0x1f\n            /* \"#utility.yul\":4341:4356   */\n          dup9\n          and\n            /* \"#utility.yul\":4334:4357   */\n          mul\n            /* \"#utility.yul\":4331:4332   */\n          0x02\n            /* \"#utility.yul\":4327:4358   */\n          exp\n          not(0x00)\n            /* \"#utility.yul\":4315:4359   */\n          div\n            /* \"#utility.yul\":4311:4360   */\n          not\n            /* \"#utility.yul\":4296:4361   */\n          and\n            /* \"#utility.yul\":4281:4362   */\n          dup2\n          sstore\n            /* \"#utility.yul\":4168:4376   */\n        tag_64:\n          pop\n          pop\n          pop\n          pop\n          pop\n            /* \"#utility.yul\":4418:4419   */\n          0x02\n            /* \"#utility.yul\":4406:4420   */\n          mul\n            /* \"#utility.yul\":4422:4423   */\n          0x01\n            /* \"#utility.yul\":4402:4424   */\n          add\n            /* \"#utility.yul\":4389:4425   */\n          swap1\n          sstore\n          pop\n            /* \"#utility.yul\":3333:4692   */\n          jump\t// out\n        tag_18:\n            /* \"contracts/Tenant.sol\":89:1171  contract Tenant is BaseUser {... */\n          dataSize(sub_0)\n          dup1\n          dataOffset(sub_0)\n          0x00\n          codecopy\n          0x00\n          return\n        stop\n\n        sub_0: assembly {\n                /* \"contracts/Tenant.sol\":89:1171  contract Tenant is BaseUser {... */\n              mstore(0x40, 0x80)\n              jumpi(tag_1, lt(calldatasize, 0x04))\n              div(calldataload(0x00), 0x0100000000000000000000000000000000000000000000000000000000)\n              0x1581b600\n              dup2\n              eq\n              tag_3\n              jumpi\n              dup1\n              0xd0e30db0\n              eq\n              tag_4\n              jumpi\n              dup1\n              0xd4e93292\n              eq\n              tag_5\n              jumpi\n              dup1\n              0xda6e75c2\n              eq\n              tag_6\n              jumpi\n              stop\n            tag_1:\n              jumpi(tag_2, calldatasize)\n              stop\n            tag_2:\n              stop\n                /* \"contracts/BaseUser.sol\":114:144  address public withdrawAddress */\n            tag_3:\n              callvalue\n              dup1\n              iszero\n              tag_11\n              jumpi\n              0x00\n              dup1\n              revert\n            tag_11:\n              pop\n              sload(0x01)\n              tag_12\n              swap1\n              0xffffffffffffffffffffffffffffffffffffffff\n              and\n              dup2\n              jump\n            tag_12:\n              mload(0x40)\n                /* \"#utility.yul\":190:232   */\n              0xffffffffffffffffffffffffffffffffffffffff\n                /* \"#utility.yul\":178:233   */\n              swap1\n              swap2\n              and\n                /* \"#utility.yul\":160:234   */\n              dup2\n              mstore\n                /* \"#utility.yul\":148:150   */\n              0x20\n                /* \"#utility.yul\":133:151   */\n              add\n                /* \"contracts/BaseUser.sol\":114:144  address public withdrawAddress */\n              mload(0x40)\n              dup1\n              swap2\n              sub\n              swap1\n              return\n                /* \"contracts/Tenant.sol\":760:842  function deposit() public payable {... */\n            tag_4:\n              tag_2\n              tag_17\n              jump\t// in\n                /* \"contracts/BaseUser.sol\":288:388  function withdrawal() public {... */\n            tag_5:\n              callvalue\n              dup1\n              iszero\n              tag_2\n              jumpi\n              0x00\n              dup1\n              revert\n                /* \"contracts/Tenant.sol\":850:1166  function payExpenses() public {... */\n            tag_6:\n              callvalue\n              dup1\n              iszero\n              tag_21\n              jumpi\n              0x00\n              dup1\n              revert\n            tag_21:\n              pop\n              tag_2\n              tag_23\n              jump\t// in\n                /* \"contracts/Tenant.sol\":760:842  function deposit() public payable {... */\n            tag_17:\n                /* \"contracts/Tenant.sol\":810:834  EtherReceived(msg.value) */\n              mload(0x40)\n                /* \"contracts/Tenant.sol\":824:833  msg.value */\n              callvalue\n                /* \"#utility.yul\":391:416   */\n              dup2\n              mstore\n                /* \"contracts/Tenant.sol\":810:834  EtherReceived(msg.value) */\n              0x0a34e3d4f1e6b837dbce1011b61499fa1a483a0abee6a7a6697660b4b2d97132\n              swap1\n                /* \"#utility.yul\":379:381   */\n              0x20\n                /* \"#utility.yul\":364:382   */\n              add\n                /* \"contracts/Tenant.sol\":810:834  EtherReceived(msg.value) */\n              mload(0x40)\n              dup1\n              swap2\n              sub\n              swap1\n              log1\n                /* \"contracts/Tenant.sol\":760:842  function deposit() public payable {... */\n              jump\t// out\n                /* \"contracts/Tenant.sol\":850:1166  function payExpenses() public {... */\n            tag_23:\n                /* \"contracts/Tenant.sol\":924:936  servicePrice */\n              sload(0x02)\n                /* \"contracts/Tenant.sol\":907:911  this */\n              address\n                /* \"contracts/Tenant.sol\":899:920  address(this).balance */\n              balance\n                /* \"contracts/Tenant.sol\":899:936  address(this).balance >= servicePrice */\n              lt\n              iszero\n                /* \"contracts/Tenant.sol\":891:961  require(address(this).balance >= servicePrice, \"Fondos insuficientes\") */\n              tag_29\n              jumpi\n              mload(0x40)\n              0x08c379a000000000000000000000000000000000000000000000000000000000\n              dup2\n              mstore\n                /* \"#utility.yul\":629:631   */\n              0x20\n                /* \"contracts/Tenant.sol\":891:961  require(address(this).balance >= servicePrice, \"Fondos insuficientes\") */\n              0x04\n              dup3\n              add\n                /* \"#utility.yul\":611:632   */\n              mstore\n                /* \"#utility.yul\":668:670   */\n              0x14\n                /* \"#utility.yul\":648:666   */\n              0x24\n              dup3\n              add\n                /* \"#utility.yul\":641:671   */\n              mstore\n                /* \"#utility.yul\":707:729   */\n              0x466f6e646f7320696e737566696369656e746573000000000000000000000000\n                /* \"#utility.yul\":687:705   */\n              0x44\n              dup3\n              add\n                /* \"#utility.yul\":680:730   */\n              mstore\n                /* \"#utility.yul\":747:765   */\n              0x64\n              add\n                /* \"contracts/Tenant.sol\":891:961  require(address(this).balance >= servicePrice, \"Fondos insuficientes\") */\n            tag_30:\n              mload(0x40)\n              dup1\n              swap2\n              sub\n              swap1\n              revert\n            tag_29:\n                /* \"contracts/Tenant.sol\":987:1003  consorcioAddress */\n              sload(0x04)\n                /* \"contracts/Tenant.sol\":1031:1043  servicePrice */\n              sload(0x02)\n                /* \"contracts/Tenant.sol\":987:1058  consorcioAddress.call {... */\n              mload(0x40)\n                /* \"contracts/Tenant.sol\":973:982  bool sent */\n              0x00\n              swap3\n                /* \"contracts/Tenant.sol\":987:1003  consorcioAddress */\n              0xffffffffffffffffffffffffffffffffffffffff\n              and\n              swap2\n                /* \"contracts/Tenant.sol\":1031:1043  servicePrice */\n              swap1\n                /* \"contracts/Tenant.sol\":973:982  bool sent */\n              dup4\n                /* \"contracts/Tenant.sol\":987:1058  consorcioAddress.call {... */\n              dup2\n                /* \"contracts/Tenant.sol\":973:982  bool sent */\n              dup2\n                /* \"contracts/Tenant.sol\":987:1058  consorcioAddress.call {... */\n              dup2\n                /* \"contracts/Tenant.sol\":1031:1043  servicePrice */\n              dup6\n                /* \"contracts/Tenant.sol\":987:1003  consorcioAddress */\n              dup8\n                /* \"contracts/Tenant.sol\":987:1058  consorcioAddress.call {... */\n              gas\n              call\n              swap3\n              pop\n              pop\n              pop\n              returndatasize\n              dup1\n              0x00\n              dup2\n              eq\n              tag_36\n              jumpi\n              mload(0x40)\n              swap2\n              pop\n              and(add(returndatasize, 0x3f), not(0x1f))\n              dup3\n              add\n              0x40\n              mstore\n              returndatasize\n              dup3\n              mstore\n              returndatasize\n              0x00\n              0x20\n              dup5\n              add\n              returndatacopy\n              jump(tag_35)\n            tag_36:\n              0x60\n              swap2\n              pop\n            tag_35:\n              pop\n                /* \"contracts/Tenant.sol\":972:1058  (bool sent,) = consorcioAddress.call {... */\n              swap1\n              swap2\n              pop\n              pop\n                /* \"contracts/Tenant.sol\":1085:1089  true */\n              0x01\n                /* \"contracts/Tenant.sol\":1077:1089  sent == true */\n              dup2\n              iszero\n              iszero\n              eq\n                /* \"contracts/Tenant.sol\":1069:1116  require(sent == true, \"Fallo la transferencia\") */\n              tag_37\n              jumpi\n              mload(0x40)\n              0x08c379a000000000000000000000000000000000000000000000000000000000\n              dup2\n              mstore\n                /* \"#utility.yul\":1188:1190   */\n              0x20\n                /* \"contracts/Tenant.sol\":1069:1116  require(sent == true, \"Fallo la transferencia\") */\n              0x04\n              dup3\n              add\n                /* \"#utility.yul\":1170:1191   */\n              mstore\n                /* \"#utility.yul\":1227:1229   */\n              0x16\n                /* \"#utility.yul\":1207:1225   */\n              0x24\n              dup3\n              add\n                /* \"#utility.yul\":1200:1230   */\n              mstore\n                /* \"#utility.yul\":1266:1290   */\n              0x46616c6c6f206c61207472616e73666572656e63696100000000000000000000\n                /* \"#utility.yul\":1246:1264   */\n              0x44\n              dup3\n              add\n                /* \"#utility.yul\":1239:1291   */\n              mstore\n                /* \"#utility.yul\":1308:1326   */\n              0x64\n              add\n                /* \"contracts/Tenant.sol\":1069:1116  require(sent == true, \"Fallo la transferencia\") */\n              tag_30\n                /* \"#utility.yul\":986:1332   */\n              jump\n                /* \"contracts/Tenant.sol\":1069:1116  require(sent == true, \"Fallo la transferencia\") */\n            tag_37:\n                /* \"contracts/Tenant.sol\":1132:1158  ExpensesPaid(servicePrice) */\n              0x56e1cf8a52e84572ff49b950fa9a1a1867319bf8eba3bf8c77bc4354678a34c5\n                /* \"contracts/Tenant.sol\":1145:1157  servicePrice */\n              sload(0x02)\n                /* \"contracts/Tenant.sol\":1132:1158  ExpensesPaid(servicePrice) */\n              mload(0x40)\n              tag_40\n              swap2\n                /* \"#utility.yul\":391:416   */\n              dup2\n              mstore\n                /* \"#utility.yul\":379:381   */\n              0x20\n                /* \"#utility.yul\":364:382   */\n              add\n              swap1\n                /* \"#utility.yul\":245:422   */\n              jump\n                /* \"contracts/Tenant.sol\":1132:1158  ExpensesPaid(servicePrice) */\n            tag_40:\n              mload(0x40)\n              dup1\n              swap2\n              sub\n              swap1\n              log1\n                /* \"contracts/Tenant.sol\":880:1166  {... */\n              pop\n                /* \"contracts/Tenant.sol\":850:1166  function payExpenses() public {... */\n              jump\t// out\n\n            auxdata: 0xa2646970667358221220e25ddc26ba7928058349eed3aa390545adc794c87743581e7d2764cbff49820a64736f6c63430008110033\n        }\n    }\n\n    auxdata: 0xa2646970667358221220d496e75ede166540a9734492ecfe8efd6e9922e63fedf93b5638fb16b549ade064736f6c63430008110033\n}\n\nsub_1: assembly {\n        /* \"contracts/Service.sol\":61:370  contract Service {... */\n      mstore(0x40, 0x80)\n      callvalue\n      dup1\n      iszero\n      tag_1\n      jumpi\n      0x00\n      dup1\n      revert\n    tag_1:\n      pop\n      dataSize(sub_0)\n      dup1\n      dataOffset(sub_0)\n      0x00\n      codecopy\n      0x00\n      return\n    stop\n\n    sub_0: assembly {\n            /* \"contracts/Service.sol\":61:370  contract Service {... */\n          mstore(0x40, 0x80)\n          jumpi(tag_1, lt(calldatasize, 0x04))\n          div(calldataload(0x00), 0x0100000000000000000000000000000000000000000000000000000000)\n          0x113e08\n          dup2\n          eq\n          tag_3\n          jumpi\n          dup1\n          0x38cc4831\n          eq\n          tag_4\n          jumpi\n          stop\n        tag_1:\n          jumpi(tag_2, calldatasize)\n          stop\n        tag_2:\n          stop\n            /* \"contracts/Service.sol\":263:367  function getBalances() external view returns (uint256) {... */\n        tag_3:\n          callvalue\n          dup1\n          iszero\n          tag_9\n          jumpi\n          0x00\n          dup1\n          revert\n        tag_9:\n          pop\n          mload(0x40)\n            /* \"contracts/Service.sol\":345:349  this */\n          address\n            /* \"contracts/Service.sol\":337:358  address(this).balance */\n          balance\n            /* \"#utility.yul\":160:185   */\n          dup2\n          mstore\n            /* \"#utility.yul\":148:150   */\n          0x20\n            /* \"#utility.yul\":133:151   */\n          add\n            /* \"contracts/Service.sol\":263:367  function getBalances() external view returns (uint256) {... */\n        tag_12:\n          mload(0x40)\n          dup1\n          swap2\n          sub\n          swap1\n          return\n            /* \"contracts/Service.sol\":162:253  function getAddress() public view returns (address) {... */\n        tag_4:\n          callvalue\n          dup1\n          iszero\n          tag_14\n          jumpi\n          0x00\n          dup1\n          revert\n        tag_14:\n          pop\n          mload(0x40)\n            /* \"contracts/Service.sol\":240:244  this */\n          address\n            /* \"#utility.yul\":342:416   */\n          dup2\n          mstore\n            /* \"#utility.yul\":330:332   */\n          0x20\n            /* \"#utility.yul\":315:333   */\n          add\n            /* \"contracts/Service.sol\":162:253  function getAddress() public view returns (address) {... */\n          tag_12\n            /* \"#utility.yul\":196:422   */\n          jump\n\n        auxdata: 0xa264697066735822122070b9a5c1503217e106f85a22813402ff1ccd24de56a5677976ccaa317c9ae17c64736f6c63430008110033\n    }\n}\n",
				"bytecode": {
					"linkReferences": {},
					"object": "608060405234801561001057600080fd5b50610033610025640100000000610081810204565b640100000000610085810204565b60405161003f906100d5565b604051809103906000f08015801561005b573d6000803e3d6000fd5b5060018054600160a060020a031916600160a060020a03929092169190911790556100e1565b3390565b60008054600160a060020a03838116600160a060020a0319831681178455604051919092169283917f8be0079c531659141344cd1fd0a4f28419497f9722a3daafe3b4186f6b6457e09190a35050565b60d880611b3183390190565b611a41806100f06000396000f3fe608060405260043610620000c4576000357c0100000000000000000000000000000000000000000000000000000000900480637ca2e65611620000865780637ca2e656146200015c5780638da5cb5b1462000185578063cc0395bf14620001a5578063cd7d77c514620001ca578063ec3ab27414620001ef578063f2fde38b14620001f957005b80632237300f14620000ce57806342e36b3b14620000f35780636f9fb98a14620000fd578063715018a6146200011f57806372673e31146200013757005b36620000cc57005b005b348015620000db57600080fd5b50620000cc620000ed36600462000a94565b6200021e565b620000cc620002ae565b3480156200010a57600080fd5b50604051303181526020015b60405180910390f35b3480156200012c57600080fd5b50620000cc6200053d565b3480156200014457600080fd5b50620000cc6200015636600462000b1d565b62000555565b3480156200016957600080fd5b50305b604051600160a060020a03909116815260200162000116565b3480156200019257600080fd5b50600054600160a060020a03166200016c565b348015620001b257600080fd5b50620000cc620001c436600462000b66565b620005cc565b348015620001d757600080fd5b50620000cc620001e936600462000bf1565b620005fb565b620000cc62000608565b3480156200020657600080fd5b50620000cc6200021836600462000c0b565b62000729565b62000228620007bf565b6002848484846040516200023c90620009b4565b6200024b949392919062000c7a565b604051809103906000f08015801562000268573d6000803e3d6000fd5b50815460018101835560009283526020909220909101805473ffffffffffffffffffffffffffffffffffffffff1916600160a060020a0390921691909117905550505050565b620002b8620007bf565b620002c26200081e565b30311015620002f15760405160e560020a62461bcd028152600401620002e89062000cc4565b60405180910390fd5b60005b600254811015620005015760006002828154811062000317576200031762000d21565b60009182526020918290200154604080517f1581b6000000000000000000000000000000000000000000000000000000000081529051600160a060020a0390921692631581b600926004808401938290030181865afa1580156200037f573d6000803e3d6000fd5b505050506040513d601f19601f82011682018060405250810190620003a5919062000d3a565b600160a060020a031660028381548110620003c457620003c462000d21565b60009182526020918290200154604080517f0397b6520000000000000000000000000000000000000000000000000000000081529051600160a060020a0390921692630397b652926004808401938290030181865afa1580156200042c573d6000803e3d6000fd5b505050506040513d601f19601f8201168201806040525081019062000452919062000d5a565b604051600081818185875af1925050503d806000811462000490576040519150601f19603f3d011682016040523d82523d6000602084013e62000495565b606091505b5050905080620004eb5760405160e560020a62461bcd02815260206004820152601060248201527f5472616e73666572206661696c65642e000000000000000000000000000000006044820152606401620002e8565b5080620004f88162000d8d565b915050620002f4565b50604080513381523460208201527fa54079b6fa54213fb4fb5b70e2c04892b228420bd1023ba63d9f7f7dcce73ca991015b60405180910390a1565b62000547620007bf565b620005536000620008fb565b565b6200055f620007bf565b604080518082019091528281526020810182905260048054600181018255600091909152815160029091027f8a35acfbc15ff81a39ae7d344fd709f28e8600b4aa8c65c6b64bfe7fe36bd19b01908190620005bb908262000e35565b506020820151816001015550505050565b620005d6620007bf565b60038484848430604051620005eb90620009c2565b6200024b95949392919062000f08565b62000605620007bf565b50565b62000612620007bf565b60006200061e62000958565b90503031811115620006475760405160e560020a62461bcd028152600401620002e89062000cc4565b600154604051600091600160a060020a03169083908381818185875af1925050503d806000811462000696576040519150601f19603f3d011682016040523d82523d6000602084013e6200069b565b606091505b5050905080620006f15760405160e560020a62461bcd02815260206004820152601060248201527f5472616e73666572206661696c65642e000000000000000000000000000000006044820152606401620002e8565b5050604080513381523460208201527fa54079b6fa54213fb4fb5b70e2c04892b228420bd1023ba63d9f7f7dcce73ca9910162000533565b62000733620007bf565b600160a060020a038116620007b45760405160e560020a62461bcd02815260206004820152602660248201527f4f776e61626c653a206e6577206f776e657220697320746865207a65726f206160448201527f64647265737300000000000000000000000000000000000000000000000000006064820152608401620002e8565b6200060581620008fb565b600054600160a060020a03163314620005535760405160e560020a62461bcd02815260206004820181905260248201527f4f776e61626c653a2063616c6c6572206973206e6f7420746865206f776e65726044820152606401620002e8565b600080805b600254811015620008f5576002818154811062000844576200084462000d21565b60009182526020918290200154604080517f0397b6520000000000000000000000000000000000000000000000000000000081529051600160a060020a0390921692630397b652926004808401938290030181865afa158015620008ac573d6000803e3d6000fd5b505050506040513d601f19601f82011682018060405250810190620008d2919062000d5a565b620008de908362000f5d565b915080620008ec8162000d8d565b91505062000823565b50919050565b60008054600160a060020a0383811673ffffffffffffffffffffffffffffffffffffffff19831681178455604051919092169283917f8be0079c531659141344cd1fd0a4f28419497f9722a3daafe3b4186f6b6457e09190a35050565b600080805b600454811015620008f557600481815481106200097e576200097e62000d21565b906000526020600020906002020160010154826200099d919062000f5d565b915080620009ab8162000d8d565b9150506200095d565b61043f8062000f7a83390190565b61065380620013b983390190565b60e060020a634e487b7102600052604160045260246000fd5b600082601f830112620009fb57600080fd5b813567ffffffffffffffff8082111562000a195762000a19620009d0565b604051601f8301601f19908116603f0116810190828211818310171562000a445762000a44620009d0565b8160405283815286602085880101111562000a5e57600080fd5b836020870160208301376000602085830101528094505050505092915050565b600160a060020a03811681146200060557600080fd5b6000806000806080858703121562000aab57600080fd5b843567ffffffffffffffff8082111562000ac457600080fd5b62000ad288838901620009e9565b95506020870135915062000ae68262000a7e565b9093506040860135908082111562000afd57600080fd5b5062000b0c87828801620009e9565b949793965093946060013593505050565b6000806040838503121562000b3157600080fd5b823567ffffffffffffffff81111562000b4957600080fd5b62000b5785828601620009e9565b95602094909401359450505050565b6000806000806080858703121562000b7d57600080fd5b843567ffffffffffffffff8082111562000b9657600080fd5b62000ba488838901620009e9565b95506020870135915062000bb88262000a7e565b909350604086013592506060860135908082111562000bd657600080fd5b5062000be587828801620009e9565b91505092959194509250565b60006020828403121562000c0457600080fd5b5035919050565b60006020828403121562000c1e57600080fd5b813562000c2b8162000a7e565b9392505050565b6000815180845260005b8181101562000c5a5760208185018101518683018201520162000c3c565b506000602082860101526020601f19601f83011685010191505092915050565b60808152600062000c8f608083018762000c32565b600160a060020a0386166020840152828103604084015262000cb2818662000c32565b91505082606083015295945050505050565b6020808252602b908201527f5468652062616c616e6365206f662074686520636f6e7472616374206973206960408201527f6e73756666696369656e74000000000000000000000000000000000000000000606082015260800190565b60e060020a634e487b7102600052603260045260246000fd5b60006020828403121562000d4d57600080fd5b815162000c2b8162000a7e565b60006020828403121562000d6d57600080fd5b5051919050565b60e060020a634e487b7102600052601160045260246000fd5b60006001820162000da25762000da262000d74565b5060010190565b60028104600182168062000dbe57607f821691505b602082108103620008f55760e060020a634e487b7102600052602260045260246000fd5b601f82111562000e30576000818152602081206020601f8601048101602086101562000e0b5750805b6020601f860104820191505b8181101562000e2c5782815560010162000e17565b5050505b505050565b815167ffffffffffffffff81111562000e525762000e52620009d0565b62000e6a8162000e63845462000da9565b8462000de2565b602080601f83116001811462000ea6576000841562000e895750858301515b60028086026008870290910a600019041982161786555062000e2c565b600085815260208120601f198616915b8281101562000ed75788860151825594840194600190910190840162000eb6565b508582101562000ef857878501516008601f88160260020a60001904191681555b5050505050600202600101905550565b60a08152600062000f1d60a083018862000c32565b600160a060020a038088166020850152866040850152838203606085015262000f47828762000c32565b9250808516608085015250509695505050505050565b8082018082111562000f735762000f7362000d74565b9291505056fe608060405234801561001057600080fd5b5060405161043f38038061043f83398101604081905261002f9161014c565b8383600061003d8382610279565b5060018054600160a060020a031916600160a060020a039290921691909117905550600261006b8382610279565b506003555061033e915050565b7f4e487b7100000000000000000000000000000000000000000000000000000000600052604160045260246000fd5b600082601f8301126100b857600080fd5b81516001604060020a03808211156100d2576100d2610078565b604051601f8301601f19908116603f011681019082821181831017156100fa576100fa610078565b8160405283815260209250868385880101111561011657600080fd5b600091505b83821015610138578582018301518183018401529082019061011b565b600093810190920192909252949350505050565b6000806000806080858703121561016257600080fd5b84516001604060020a038082111561017957600080fd5b610185888389016100a7565b60208801519096509150600160a060020a03821682146101a457600080fd5b6040870151919450808211156101b957600080fd5b506101c6878288016100a7565b606096909601519497939650505050565b6002810460018216806101eb57607f821691505b602082108103610224577f4e487b7100000000000000000000000000000000000000000000000000000000600052602260045260246000fd5b50919050565b601f821115610274576000818152602081206020601f860104810160208610156102515750805b6020601f860104820191505b818110156102705782815560010161025d565b5050505b505050565b81516001604060020a0381111561029257610292610078565b6102a6816102a084546101d7565b8461022a565b602080601f8311600181146102df57600084156102c35750858301515b60028086026008870290910a6000190419821617865550610270565b600085815260208120601f198616915b8281101561030e578886015182559484019460019091019084016102ef565b508582101561032e57878501516008601f88160260020a60001904191681555b5050505050600202600101905550565b60f38061034c6000396000f3fe6080604052348015600f57600080fd5b50600436106058577c010000000000000000000000000000000000000000000000000000000060003504630397b6528114605d5780631581b600146078578063d4e932921460bb575b600080fd5b606560035481565b6040519081526020015b60405180910390f35b60015460979073ffffffffffffffffffffffffffffffffffffffff1681565b60405173ffffffffffffffffffffffffffffffffffffffff9091168152602001606f565b00fea2646970667358221220e26f9b565671fa84c384cfdf2939cdf570d38e59186452e3eebacb6b154d5d6664736f6c6343000811003360806040526040516106533803806106538339810160408190526100229161017e565b8484600061003083826102ae565b5060018054600160a060020a031916600160a060020a0392909216919091179055506002839055600361006383826102ae565b5060048054600160a060020a031916600160a060020a03929092169190911790555061037392505050565b7f4e487b7100000000000000000000000000000000000000000000000000000000600052604160045260246000fd5b600082601f8301126100ce57600080fd5b81516001604060020a03808211156100e8576100e861008e565b604051601f8301601f19908116603f011681019082821181831017156101105761011061008e565b8160405283815260209250868385880101111561012c57600080fd5b600091505b8382101561014e5785820183015181830184015290820190610131565b600093810190920192909252949350505050565b8051600160a060020a038116811461017957600080fd5b919050565b600080600080600060a0868803121561019657600080fd5b85516001604060020a03808211156101ad57600080fd5b6101b989838a016100bd565b96506101c760208901610162565b95506040880151945060608801519150808211156101e457600080fd5b506101f1888289016100bd565b92505061020060808701610162565b90509295509295909350565b60028104600182168061022057607f821691505b602082108103610259577f4e487b7100000000000000000000000000000000000000000000000000000000600052602260045260246000fd5b50919050565b601f8211156102a9576000818152602081206020601f860104810160208610156102865750805b6020601f860104820191505b818110156102a557828155600101610292565b5050505b505050565b81516001604060020a038111156102c7576102c761008e565b6102db816102d5845461020c565b8461025f565b602080601f83116001811461031457600084156102f85750858301515b60028086026008870290910a60001904198216178655506102a5565b600085815260208120601f198616915b8281101561034357888601518255948401946001909101908401610324565b508582101561036357878501516008601f88160260020a60001904191681555b5050505050600202600101905550565b6102d1806103826000396000f3fe60806040526004361061005c577c010000000000000000000000000000000000000000000000000000000060003504631581b6008114610065578063d0e30db0146100bb578063d4e93292146100c3578063da6e75c2146100cf57005b3661006357005b005b34801561007157600080fd5b506001546100929073ffffffffffffffffffffffffffffffffffffffff1681565b60405173ffffffffffffffffffffffffffffffffffffffff909116815260200160405180910390f35b6100636100e4565b34801561006357600080fd5b3480156100db57600080fd5b50610063610119565b6040513481527f0a34e3d4f1e6b837dbce1011b61499fa1a483a0abee6a7a6697660b4b2d971329060200160405180910390a1565b6002543031101561018b576040517f08c379a000000000000000000000000000000000000000000000000000000000815260206004820152601460248201527f466f6e646f7320696e737566696369656e74657300000000000000000000000060448201526064015b60405180910390fd5b60045460025460405160009273ffffffffffffffffffffffffffffffffffffffff1691908381818185875af1925050503d80600081146101e7576040519150601f19603f3d011682016040523d82523d6000602084013e6101ec565b606091505b509091505060018115151461025d576040517f08c379a000000000000000000000000000000000000000000000000000000000815260206004820152601660248201527f46616c6c6f206c61207472616e73666572656e636961000000000000000000006044820152606401610182565b7f56e1cf8a52e84572ff49b950fa9a1a1867319bf8eba3bf8c77bc4354678a34c560025460405161029091815260200190565b60405180910390a15056fea2646970667358221220e25ddc26ba7928058349eed3aa390545adc794c87743581e7d2764cbff49820a64736f6c63430008110033a2646970667358221220d496e75ede166540a9734492ecfe8efd6e9922e63fedf93b5638fb16b549ade064736f6c63430008110033608060405234801561001057600080fd5b5060b98061001f6000396000f3fe6080604052600436106042577c01000000000000000000000000000000000000000000000000000000006000350462113e088114604a57806338cc483114606a57005b36604857005b005b348015605557600080fd5b50604051303181526020015b60405180910390f35b348015607557600080fd5b50604051308152602001606156fea264697066735822122070b9a5c1503217e106f85a22813402ff1ccd24de56a5677976ccaa317c9ae17c64736f6c63430008110033",
					"opcodes": "PUSH1 0x80 PUSH1 0x40 MSTORE CALLVALUE DUP1 ISZERO PUSH2 0x10 JUMPI PUSH1 0x0 DUP1 REVERT JUMPDEST POP PUSH2 0x33 PUSH2 0x25 PUSH5 0x100000000 PUSH2 0x81 DUP2 MUL DIV JUMP JUMPDEST PUSH5 0x100000000 PUSH2 0x85 DUP2 MUL DIV JUMP JUMPDEST PUSH1 0x40 MLOAD PUSH2 0x3F SWAP1 PUSH2 0xD5 JUMP JUMPDEST PUSH1 0x40 MLOAD DUP1 SWAP2 SUB SWAP1 PUSH1 0x0 CREATE DUP1 ISZERO DUP1 ISZERO PUSH2 0x5B JUMPI RETURNDATASIZE PUSH1 0x0 DUP1 RETURNDATACOPY RETURNDATASIZE PUSH1 0x0 REVERT JUMPDEST POP PUSH1 0x1 DUP1 SLOAD PUSH1 0x1 PUSH1 0xA0 PUSH1 0x2 EXP SUB NOT AND PUSH1 0x1 PUSH1 0xA0 PUSH1 0x2 EXP SUB SWAP3 SWAP1 SWAP3 AND SWAP2 SWAP1 SWAP2 OR SWAP1 SSTORE PUSH2 0xE1 JUMP JUMPDEST CALLER SWAP1 JUMP JUMPDEST PUSH1 0x0 DUP1 SLOAD PUSH1 0x1 PUSH1 0xA0 PUSH1 0x2 EXP SUB DUP4 DUP2 AND PUSH1 0x1 PUSH1 0xA0 PUSH1 0x2 EXP SUB NOT DUP4 AND DUP2 OR DUP5 SSTORE PUSH1 0x40 MLOAD SWAP2 SWAP1 SWAP3 AND SWAP3 DUP4 SWAP2 PUSH32 0x8BE0079C531659141344CD1FD0A4F28419497F9722A3DAAFE3B4186F6B6457E0 SWAP2 SWAP1 LOG3 POP POP JUMP JUMPDEST PUSH1 0xD8 DUP1 PUSH2 0x1B31 DUP4 CODECOPY ADD SWAP1 JUMP JUMPDEST PUSH2 0x1A41 DUP1 PUSH2 0xF0 PUSH1 0x0 CODECOPY PUSH1 0x0 RETURN INVALID PUSH1 0x80 PUSH1 0x40 MSTORE PUSH1 0x4 CALLDATASIZE LT PUSH3 0xC4 JUMPI PUSH1 0x0 CALLDATALOAD PUSH29 0x100000000000000000000000000000000000000000000000000000000 SWAP1 DIV DUP1 PUSH4 0x7CA2E656 GT PUSH3 0x86 JUMPI DUP1 PUSH4 0x7CA2E656 EQ PUSH3 0x15C JUMPI DUP1 PUSH4 0x8DA5CB5B EQ PUSH3 0x185 JUMPI DUP1 PUSH4 0xCC0395BF EQ PUSH3 0x1A5 JUMPI DUP1 PUSH4 0xCD7D77C5 EQ PUSH3 0x1CA JUMPI DUP1 PUSH4 0xEC3AB274 EQ PUSH3 0x1EF JUMPI DUP1 PUSH4 0xF2FDE38B EQ PUSH3 0x1F9 JUMPI STOP JUMPDEST DUP1 PUSH4 0x2237300F EQ PUSH3 0xCE JUMPI DUP1 PUSH4 0x42E36B3B EQ PUSH3 0xF3 JUMPI DUP1 PUSH4 0x6F9FB98A EQ PUSH3 0xFD JUMPI DUP1 PUSH4 0x715018A6 EQ PUSH3 0x11F JUMPI DUP1 PUSH4 0x72673E31 EQ PUSH3 0x137 JUMPI STOP JUMPDEST CALLDATASIZE PUSH3 0xCC JUMPI STOP JUMPDEST STOP JUMPDEST CALLVALUE DUP1 ISZERO PUSH3 0xDB JUMPI PUSH1 0x0 DUP1 REVERT JUMPDEST POP PUSH3 0xCC PUSH3 0xED CALLDATASIZE PUSH1 0x4 PUSH3 0xA94 JUMP JUMPDEST PUSH3 0x21E JUMP JUMPDEST PUSH3 0xCC PUSH3 0x2AE JUMP JUMPDEST CALLVALUE DUP1 ISZERO PUSH3 0x10A JUMPI PUSH1 0x0 DUP1 REVERT JUMPDEST POP PUSH1 0x40 MLOAD ADDRESS BALANCE DUP2 MSTORE PUSH1 0x20 ADD JUMPDEST PUSH1 0x40 MLOAD DUP1 SWAP2 SUB SWAP1 RETURN JUMPDEST CALLVALUE DUP1 ISZERO PUSH3 0x12C JUMPI PUSH1 0x0 DUP1 REVERT JUMPDEST POP PUSH3 0xCC PUSH3 0x53D JUMP JUMPDEST CALLVALUE DUP1 ISZERO PUSH3 0x144 JUMPI PUSH1 0x0 DUP1 REVERT JUMPDEST POP PUSH3 0xCC PUSH3 0x156 CALLDATASIZE PUSH1 0x4 PUSH3 0xB1D JUMP JUMPDEST PUSH3 0x555 JUMP JUMPDEST CALLVALUE DUP1 ISZERO PUSH3 0x169 JUMPI PUSH1 0x0 DUP1 REVERT JUMPDEST POP ADDRESS JUMPDEST PUSH1 0x40 MLOAD PUSH1 0x1 PUSH1 0xA0 PUSH1 0x2 EXP SUB SWAP1 SWAP2 AND DUP2 MSTORE PUSH1 0x20 ADD PUSH3 0x116 JUMP JUMPDEST CALLVALUE DUP1 ISZERO PUSH3 0x192 JUMPI PUSH1 0x0 DUP1 REVERT JUMPDEST POP PUSH1 0x0 SLOAD PUSH1 0x1 PUSH1 0xA0 PUSH1 0x2 EXP SUB AND PUSH3 0x16C JUMP JUMPDEST CALLVALUE DUP1 ISZERO PUSH3 0x1B2 JUMPI PUSH1 0x0 DUP1 REVERT JUMPDEST POP PUSH3 0xCC PUSH3 0x1C4 CALLDATASIZE PUSH1 0x4 PUSH3 0xB66 JUMP JUMPDEST PUSH3 0x5CC JUMP JUMPDEST CALLVALUE DUP1 ISZERO PUSH3 0x1D7 JUMPI PUSH1 0x0 DUP1 REVERT JUMPDEST POP PUSH3 0xCC PUSH3 0x1E9 CALLDATASIZE PUSH1 0x4 PUSH3 0xBF1 JUMP JUMPDEST PUSH3 0x5FB JUMP JUMPDEST PUSH3 0xCC PUSH3 0x608 JUMP JUMPDEST CALLVALUE DUP1 ISZERO PUSH3 0x206 JUMPI PUSH1 0x0 DUP1 REVERT JUMPDEST POP PUSH3 0xCC PUSH3 0x218 CALLDATASIZE PUSH1 0x4 PUSH3 0xC0B JUMP JUMPDEST PUSH3 0x729 JUMP JUMPDEST PUSH3 0x228 PUSH3 0x7BF JUMP JUMPDEST PUSH1 0x2 DUP5 DUP5 DUP5 DUP5 PUSH1 0x40 MLOAD PUSH3 0x23C SWAP1 PUSH3 0x9B4 JUMP JUMPDEST PUSH3 0x24B SWAP5 SWAP4 SWAP3 SWAP2 SWAP1 PUSH3 0xC7A JUMP JUMPDEST PUSH1 0x40 MLOAD DUP1 SWAP2 SUB SWAP1 PUSH1 0x0 CREATE DUP1 ISZERO DUP1 ISZERO PUSH3 0x268 JUMPI RETURNDATASIZE PUSH1 0x0 DUP1 RETURNDATACOPY RETURNDATASIZE PUSH1 0x0 REVERT JUMPDEST POP DUP2 SLOAD PUSH1 0x1 DUP2 ADD DUP4 SSTORE PUSH1 0x0 SWAP3 DUP4 MSTORE PUSH1 0x20 SWAP1 SWAP3 KECCAK256 SWAP1 SWAP2 ADD DUP1 SLOAD PUSH20 0xFFFFFFFFFFFFFFFFFFFFFFFFFFFFFFFFFFFFFFFF NOT AND PUSH1 0x1 PUSH1 0xA0 PUSH1 0x2 EXP SUB SWAP1 SWAP3 AND SWAP2 SWAP1 SWAP2 OR SWAP1 SSTORE POP POP POP POP JUMP JUMPDEST PUSH3 0x2B8 PUSH3 0x7BF JUMP JUMPDEST PUSH3 0x2C2 PUSH3 0x81E JUMP JUMPDEST ADDRESS BALANCE LT ISZERO PUSH3 0x2F1 JUMPI PUSH1 0x40 MLOAD PUSH1 0xE5 PUSH1 0x2 EXP PUSH3 0x461BCD MUL DUP2 MSTORE PUSH1 0x4 ADD PUSH3 0x2E8 SWAP1 PUSH3 0xCC4 JUMP JUMPDEST PUSH1 0x40 MLOAD DUP1 SWAP2 SUB SWAP1 REVERT JUMPDEST PUSH1 0x0 JUMPDEST PUSH1 0x2 SLOAD DUP2 LT ISZERO PUSH3 0x501 JUMPI PUSH1 0x0 PUSH1 0x2 DUP3 DUP2 SLOAD DUP2 LT PUSH3 0x317 JUMPI PUSH3 0x317 PUSH3 0xD21 JUMP JUMPDEST PUSH1 0x0 SWAP2 DUP3 MSTORE PUSH1 0x20 SWAP2 DUP3 SWAP1 KECCAK256 ADD SLOAD PUSH1 0x40 DUP1 MLOAD PUSH32 0x1581B60000000000000000000000000000000000000000000000000000000000 DUP2 MSTORE SWAP1 MLOAD PUSH1 0x1 PUSH1 0xA0 PUSH1 0x2 EXP SUB SWAP1 SWAP3 AND SWAP3 PUSH4 0x1581B600 SWAP3 PUSH1 0x4 DUP1 DUP5 ADD SWAP4 DUP3 SWAP1 SUB ADD DUP2 DUP7 GAS STATICCALL ISZERO DUP1 ISZERO PUSH3 0x37F JUMPI RETURNDATASIZE PUSH1 0x0 DUP1 RETURNDATACOPY RETURNDATASIZE PUSH1 0x0 REVERT JUMPDEST POP POP POP POP PUSH1 0x40 MLOAD RETURNDATASIZE PUSH1 0x1F NOT PUSH1 0x1F DUP3 ADD AND DUP3 ADD DUP1 PUSH1 0x40 MSTORE POP DUP2 ADD SWAP1 PUSH3 0x3A5 SWAP2 SWAP1 PUSH3 0xD3A JUMP JUMPDEST PUSH1 0x1 PUSH1 0xA0 PUSH1 0x2 EXP SUB AND PUSH1 0x2 DUP4 DUP2 SLOAD DUP2 LT PUSH3 0x3C4 JUMPI PUSH3 0x3C4 PUSH3 0xD21 JUMP JUMPDEST PUSH1 0x0 SWAP2 DUP3 MSTORE PUSH1 0x20 SWAP2 DUP3 SWAP1 KECCAK256 ADD SLOAD PUSH1 0x40 DUP1 MLOAD PUSH32 0x397B65200000000000000000000000000000000000000000000000000000000 DUP2 MSTORE SWAP1 MLOAD PUSH1 0x1 PUSH1 0xA0 PUSH1 0x2 EXP SUB SWAP1 SWAP3 AND SWAP3 PUSH4 0x397B652 SWAP3 PUSH1 0x4 DUP1 DUP5 ADD SWAP4 DUP3 SWAP1 SUB ADD DUP2 DUP7 GAS STATICCALL ISZERO DUP1 ISZERO PUSH3 0x42C JUMPI RETURNDATASIZE PUSH1 0x0 DUP1 RETURNDATACOPY RETURNDATASIZE PUSH1 0x0 REVERT JUMPDEST POP POP POP POP PUSH1 0x40 MLOAD RETURNDATASIZE PUSH1 0x1F NOT PUSH1 0x1F DUP3 ADD AND DUP3 ADD DUP1 PUSH1 0x40 MSTORE POP DUP2 ADD SWAP1 PUSH3 0x452 SWAP2 SWAP1 PUSH3 0xD5A JUMP JUMPDEST PUSH1 0x40 MLOAD PUSH1 0x0 DUP2 DUP2 DUP2 DUP6 DUP8 GAS CALL SWAP3 POP POP POP RETURNDATASIZE DUP1 PUSH1 0x0 DUP2 EQ PUSH3 0x490 JUMPI PUSH1 0x40 MLOAD SWAP2 POP PUSH1 0x1F NOT PUSH1 0x3F RETURNDATASIZE ADD AND DUP3 ADD PUSH1 0x40 MSTORE RETURNDATASIZE DUP3 MSTORE RETURNDATASIZE PUSH1 0x0 PUSH1 0x20 DUP5 ADD RETURNDATACOPY PUSH3 0x495 JUMP JUMPDEST PUSH1 0x60 SWAP2 POP JUMPDEST POP POP SWAP1 POP DUP1 PUSH3 0x4EB JUMPI PUSH1 0x40 MLOAD PUSH1 0xE5 PUSH1 0x2 EXP PUSH3 0x461BCD MUL DUP2 MSTORE PUSH1 0x20 PUSH1 0x4 DUP3 ADD MSTORE PUSH1 0x10 PUSH1 0x24 DUP3 ADD MSTORE PUSH32 0x5472616E73666572206661696C65642E00000000000000000000000000000000 PUSH1 0x44 DUP3 ADD MSTORE PUSH1 0x64 ADD PUSH3 0x2E8 JUMP JUMPDEST POP DUP1 PUSH3 0x4F8 DUP2 PUSH3 0xD8D JUMP JUMPDEST SWAP2 POP POP PUSH3 0x2F4 JUMP JUMPDEST POP PUSH1 0x40 DUP1 MLOAD CALLER DUP2 MSTORE CALLVALUE PUSH1 0x20 DUP3 ADD MSTORE PUSH32 0xA54079B6FA54213FB4FB5B70E2C04892B228420BD1023BA63D9F7F7DCCE73CA9 SWAP2 ADD JUMPDEST PUSH1 0x40 MLOAD DUP1 SWAP2 SUB SWAP1 LOG1 JUMP JUMPDEST PUSH3 0x547 PUSH3 0x7BF JUMP JUMPDEST PUSH3 0x553 PUSH1 0x0 PUSH3 0x8FB JUMP JUMPDEST JUMP JUMPDEST PUSH3 0x55F PUSH3 0x7BF JUMP JUMPDEST PUSH1 0x40 DUP1 MLOAD DUP1 DUP3 ADD SWAP1 SWAP2 MSTORE DUP3 DUP2 MSTORE PUSH1 0x20 DUP2 ADD DUP3 SWAP1 MSTORE PUSH1 0x4 DUP1 SLOAD PUSH1 0x1 DUP2 ADD DUP3 SSTORE PUSH1 0x0 SWAP2 SWAP1 SWAP2 MSTORE DUP2 MLOAD PUSH1 0x2 SWAP1 SWAP2 MUL PUSH32 0x8A35ACFBC15FF81A39AE7D344FD709F28E8600B4AA8C65C6B64BFE7FE36BD19B ADD SWAP1 DUP2 SWAP1 PUSH3 0x5BB SWAP1 DUP3 PUSH3 0xE35 JUMP JUMPDEST POP PUSH1 0x20 DUP3 ADD MLOAD DUP2 PUSH1 0x1 ADD SSTORE POP POP POP POP JUMP JUMPDEST PUSH3 0x5D6 PUSH3 0x7BF JUMP JUMPDEST PUSH1 0x3 DUP5 DUP5 DUP5 DUP5 ADDRESS PUSH1 0x40 MLOAD PUSH3 0x5EB SWAP1 PUSH3 0x9C2 JUMP JUMPDEST PUSH3 0x24B SWAP6 SWAP5 SWAP4 SWAP3 SWAP2 SWAP1 PUSH3 0xF08 JUMP JUMPDEST PUSH3 0x605 PUSH3 0x7BF JUMP JUMPDEST POP JUMP JUMPDEST PUSH3 0x612 PUSH3 0x7BF JUMP JUMPDEST PUSH1 0x0 PUSH3 0x61E PUSH3 0x958 JUMP JUMPDEST SWAP1 POP ADDRESS BALANCE DUP2 GT ISZERO PUSH3 0x647 JUMPI PUSH1 0x40 MLOAD PUSH1 0xE5 PUSH1 0x2 EXP PUSH3 0x461BCD MUL DUP2 MSTORE PUSH1 0x4 ADD PUSH3 0x2E8 SWAP1 PUSH3 0xCC4 JUMP JUMPDEST PUSH1 0x1 SLOAD PUSH1 0x40 MLOAD PUSH1 0x0 SWAP2 PUSH1 0x1 PUSH1 0xA0 PUSH1 0x2 EXP SUB AND SWAP1 DUP4 SWAP1 DUP4 DUP2 DUP2 DUP2 DUP6 DUP8 GAS CALL SWAP3 POP POP POP RETURNDATASIZE DUP1 PUSH1 0x0 DUP2 EQ PUSH3 0x696 JUMPI PUSH1 0x40 MLOAD SWAP2 POP PUSH1 0x1F NOT PUSH1 0x3F RETURNDATASIZE ADD AND DUP3 ADD PUSH1 0x40 MSTORE RETURNDATASIZE DUP3 MSTORE RETURNDATASIZE PUSH1 0x0 PUSH1 0x20 DUP5 ADD RETURNDATACOPY PUSH3 0x69B JUMP JUMPDEST PUSH1 0x60 SWAP2 POP JUMPDEST POP POP SWAP1 POP DUP1 PUSH3 0x6F1 JUMPI PUSH1 0x40 MLOAD PUSH1 0xE5 PUSH1 0x2 EXP PUSH3 0x461BCD MUL DUP2 MSTORE PUSH1 0x20 PUSH1 0x4 DUP3 ADD MSTORE PUSH1 0x10 PUSH1 0x24 DUP3 ADD MSTORE PUSH32 0x5472616E73666572206661696C65642E00000000000000000000000000000000 PUSH1 0x44 DUP3 ADD MSTORE PUSH1 0x64 ADD PUSH3 0x2E8 JUMP JUMPDEST POP POP PUSH1 0x40 DUP1 MLOAD CALLER DUP2 MSTORE CALLVALUE PUSH1 0x20 DUP3 ADD MSTORE PUSH32 0xA54079B6FA54213FB4FB5B70E2C04892B228420BD1023BA63D9F7F7DCCE73CA9 SWAP2 ADD PUSH3 0x533 JUMP JUMPDEST PUSH3 0x733 PUSH3 0x7BF JUMP JUMPDEST PUSH1 0x1 PUSH1 0xA0 PUSH1 0x2 EXP SUB DUP2 AND PUSH3 0x7B4 JUMPI PUSH1 0x40 MLOAD PUSH1 0xE5 PUSH1 0x2 EXP PUSH3 0x461BCD MUL DUP2 MSTORE PUSH1 0x20 PUSH1 0x4 DUP3 ADD MSTORE PUSH1 0x26 PUSH1 0x24 DUP3 ADD MSTORE PUSH32 0x4F776E61626C653A206E6577206F776E657220697320746865207A65726F2061 PUSH1 0x44 DUP3 ADD MSTORE PUSH32 0x6464726573730000000000000000000000000000000000000000000000000000 PUSH1 0x64 DUP3 ADD MSTORE PUSH1 0x84 ADD PUSH3 0x2E8 JUMP JUMPDEST PUSH3 0x605 DUP2 PUSH3 0x8FB JUMP JUMPDEST PUSH1 0x0 SLOAD PUSH1 0x1 PUSH1 0xA0 PUSH1 0x2 EXP SUB AND CALLER EQ PUSH3 0x553 JUMPI PUSH1 0x40 MLOAD PUSH1 0xE5 PUSH1 0x2 EXP PUSH3 0x461BCD MUL DUP2 MSTORE PUSH1 0x20 PUSH1 0x4 DUP3 ADD DUP2 SWAP1 MSTORE PUSH1 0x24 DUP3 ADD MSTORE PUSH32 0x4F776E61626C653A2063616C6C6572206973206E6F7420746865206F776E6572 PUSH1 0x44 DUP3 ADD MSTORE PUSH1 0x64 ADD PUSH3 0x2E8 JUMP JUMPDEST PUSH1 0x0 DUP1 DUP1 JUMPDEST PUSH1 0x2 SLOAD DUP2 LT ISZERO PUSH3 0x8F5 JUMPI PUSH1 0x2 DUP2 DUP2 SLOAD DUP2 LT PUSH3 0x844 JUMPI PUSH3 0x844 PUSH3 0xD21 JUMP JUMPDEST PUSH1 0x0 SWAP2 DUP3 MSTORE PUSH1 0x20 SWAP2 DUP3 SWAP1 KECCAK256 ADD SLOAD PUSH1 0x40 DUP1 MLOAD PUSH32 0x397B65200000000000000000000000000000000000000000000000000000000 DUP2 MSTORE SWAP1 MLOAD PUSH1 0x1 PUSH1 0xA0 PUSH1 0x2 EXP SUB SWAP1 SWAP3 AND SWAP3 PUSH4 0x397B652 SWAP3 PUSH1 0x4 DUP1 DUP5 ADD SWAP4 DUP3 SWAP1 SUB ADD DUP2 DUP7 GAS STATICCALL ISZERO DUP1 ISZERO PUSH3 0x8AC JUMPI RETURNDATASIZE PUSH1 0x0 DUP1 RETURNDATACOPY RETURNDATASIZE PUSH1 0x0 REVERT JUMPDEST POP POP POP POP PUSH1 0x40 MLOAD RETURNDATASIZE PUSH1 0x1F NOT PUSH1 0x1F DUP3 ADD AND DUP3 ADD DUP1 PUSH1 0x40 MSTORE POP DUP2 ADD SWAP1 PUSH3 0x8D2 SWAP2 SWAP1 PUSH3 0xD5A JUMP JUMPDEST PUSH3 0x8DE SWAP1 DUP4 PUSH3 0xF5D JUMP JUMPDEST SWAP2 POP DUP1 PUSH3 0x8EC DUP2 PUSH3 0xD8D JUMP JUMPDEST SWAP2 POP POP PUSH3 0x823 JUMP JUMPDEST POP SWAP2 SWAP1 POP JUMP JUMPDEST PUSH1 0x0 DUP1 SLOAD PUSH1 0x1 PUSH1 0xA0 PUSH1 0x2 EXP SUB DUP4 DUP2 AND PUSH20 0xFFFFFFFFFFFFFFFFFFFFFFFFFFFFFFFFFFFFFFFF NOT DUP4 AND DUP2 OR DUP5 SSTORE PUSH1 0x40 MLOAD SWAP2 SWAP1 SWAP3 AND SWAP3 DUP4 SWAP2 PUSH32 0x8BE0079C531659141344CD1FD0A4F28419497F9722A3DAAFE3B4186F6B6457E0 SWAP2 SWAP1 LOG3 POP POP JUMP JUMPDEST PUSH1 0x0 DUP1 DUP1 JUMPDEST PUSH1 0x4 SLOAD DUP2 LT ISZERO PUSH3 0x8F5 JUMPI PUSH1 0x4 DUP2 DUP2 SLOAD DUP2 LT PUSH3 0x97E JUMPI PUSH3 0x97E PUSH3 0xD21 JUMP JUMPDEST SWAP1 PUSH1 0x0 MSTORE PUSH1 0x20 PUSH1 0x0 KECCAK256 SWAP1 PUSH1 0x2 MUL ADD PUSH1 0x1 ADD SLOAD DUP3 PUSH3 0x99D SWAP2 SWAP1 PUSH3 0xF5D JUMP JUMPDEST SWAP2 POP DUP1 PUSH3 0x9AB DUP2 PUSH3 0xD8D JUMP JUMPDEST SWAP2 POP POP PUSH3 0x95D JUMP JUMPDEST PUSH2 0x43F DUP1 PUSH3 0xF7A DUP4 CODECOPY ADD SWAP1 JUMP JUMPDEST PUSH2 0x653 DUP1 PUSH3 0x13B9 DUP4 CODECOPY ADD SWAP1 JUMP JUMPDEST PUSH1 0xE0 PUSH1 0x2 EXP PUSH4 0x4E487B71 MUL PUSH1 0x0 MSTORE PUSH1 0x41 PUSH1 0x4 MSTORE PUSH1 0x24 PUSH1 0x0 REVERT JUMPDEST PUSH1 0x0 DUP3 PUSH1 0x1F DUP4 ADD SLT PUSH3 0x9FB JUMPI PUSH1 0x0 DUP1 REVERT JUMPDEST DUP2 CALLDATALOAD PUSH8 0xFFFFFFFFFFFFFFFF DUP1 DUP3 GT ISZERO PUSH3 0xA19 JUMPI PUSH3 0xA19 PUSH3 0x9D0 JUMP JUMPDEST PUSH1 0x40 MLOAD PUSH1 0x1F DUP4 ADD PUSH1 0x1F NOT SWAP1 DUP2 AND PUSH1 0x3F ADD AND DUP2 ADD SWAP1 DUP3 DUP3 GT DUP2 DUP4 LT OR ISZERO PUSH3 0xA44 JUMPI PUSH3 0xA44 PUSH3 0x9D0 JUMP JUMPDEST DUP2 PUSH1 0x40 MSTORE DUP4 DUP2 MSTORE DUP7 PUSH1 0x20 DUP6 DUP9 ADD ADD GT ISZERO PUSH3 0xA5E JUMPI PUSH1 0x0 DUP1 REVERT JUMPDEST DUP4 PUSH1 0x20 DUP8 ADD PUSH1 0x20 DUP4 ADD CALLDATACOPY PUSH1 0x0 PUSH1 0x20 DUP6 DUP4 ADD ADD MSTORE DUP1 SWAP5 POP POP POP POP POP SWAP3 SWAP2 POP POP JUMP JUMPDEST PUSH1 0x1 PUSH1 0xA0 PUSH1 0x2 EXP SUB DUP2 AND DUP2 EQ PUSH3 0x605 JUMPI PUSH1 0x0 DUP1 REVERT JUMPDEST PUSH1 0x0 DUP1 PUSH1 0x0 DUP1 PUSH1 0x80 DUP6 DUP8 SUB SLT ISZERO PUSH3 0xAAB JUMPI PUSH1 0x0 DUP1 REVERT JUMPDEST DUP5 CALLDATALOAD PUSH8 0xFFFFFFFFFFFFFFFF DUP1 DUP3 GT ISZERO PUSH3 0xAC4 JUMPI PUSH1 0x0 DUP1 REVERT JUMPDEST PUSH3 0xAD2 DUP9 DUP4 DUP10 ADD PUSH3 0x9E9 JUMP JUMPDEST SWAP6 POP PUSH1 0x20 DUP8 ADD CALLDATALOAD SWAP2 POP PUSH3 0xAE6 DUP3 PUSH3 0xA7E JUMP JUMPDEST SWAP1 SWAP4 POP PUSH1 0x40 DUP7 ADD CALLDATALOAD SWAP1 DUP1 DUP3 GT ISZERO PUSH3 0xAFD JUMPI PUSH1 0x0 DUP1 REVERT JUMPDEST POP PUSH3 0xB0C DUP8 DUP3 DUP9 ADD PUSH3 0x9E9 JUMP JUMPDEST SWAP5 SWAP8 SWAP4 SWAP7 POP SWAP4 SWAP5 PUSH1 0x60 ADD CALLDATALOAD SWAP4 POP POP POP JUMP JUMPDEST PUSH1 0x0 DUP1 PUSH1 0x40 DUP4 DUP6 SUB SLT ISZERO PUSH3 0xB31 JUMPI PUSH1 0x0 DUP1 REVERT JUMPDEST DUP3 CALLDATALOAD PUSH8 0xFFFFFFFFFFFFFFFF DUP2 GT ISZERO PUSH3 0xB49 JUMPI PUSH1 0x0 DUP1 REVERT JUMPDEST PUSH3 0xB57 DUP6 DUP3 DUP7 ADD PUSH3 0x9E9 JUMP JUMPDEST SWAP6 PUSH1 0x20 SWAP5 SWAP1 SWAP5 ADD CALLDATALOAD SWAP5 POP POP POP POP JUMP JUMPDEST PUSH1 0x0 DUP1 PUSH1 0x0 DUP1 PUSH1 0x80 DUP6 DUP8 SUB SLT ISZERO PUSH3 0xB7D JUMPI PUSH1 0x0 DUP1 REVERT JUMPDEST DUP5 CALLDATALOAD PUSH8 0xFFFFFFFFFFFFFFFF DUP1 DUP3 GT ISZERO PUSH3 0xB96 JUMPI PUSH1 0x0 DUP1 REVERT JUMPDEST PUSH3 0xBA4 DUP9 DUP4 DUP10 ADD PUSH3 0x9E9 JUMP JUMPDEST SWAP6 POP PUSH1 0x20 DUP8 ADD CALLDATALOAD SWAP2 POP PUSH3 0xBB8 DUP3 PUSH3 0xA7E JUMP JUMPDEST SWAP1 SWAP4 POP PUSH1 0x40 DUP7 ADD CALLDATALOAD SWAP3 POP PUSH1 0x60 DUP7 ADD CALLDATALOAD SWAP1 DUP1 DUP3 GT ISZERO PUSH3 0xBD6 JUMPI PUSH1 0x0 DUP1 REVERT JUMPDEST POP PUSH3 0xBE5 DUP8 DUP3 DUP9 ADD PUSH3 0x9E9 JUMP JUMPDEST SWAP2 POP POP SWAP3 SWAP6 SWAP2 SWAP5 POP SWAP3 POP JUMP JUMPDEST PUSH1 0x0 PUSH1 0x20 DUP3 DUP5 SUB SLT ISZERO PUSH3 0xC04 JUMPI PUSH1 0x0 DUP1 REVERT JUMPDEST POP CALLDATALOAD SWAP2 SWAP1 POP JUMP JUMPDEST PUSH1 0x0 PUSH1 0x20 DUP3 DUP5 SUB SLT ISZERO PUSH3 0xC1E JUMPI PUSH1 0x0 DUP1 REVERT JUMPDEST DUP2 CALLDATALOAD PUSH3 0xC2B DUP2 PUSH3 0xA7E JUMP JUMPDEST SWAP4 SWAP3 POP POP POP JUMP JUMPDEST PUSH1 0x0 DUP2 MLOAD DUP1 DUP5 MSTORE PUSH1 0x0 JUMPDEST DUP2 DUP2 LT ISZERO PUSH3 0xC5A JUMPI PUSH1 0x20 DUP2 DUP6 ADD DUP2 ADD MLOAD DUP7 DUP4 ADD DUP3 ADD MSTORE ADD PUSH3 0xC3C JUMP JUMPDEST POP PUSH1 0x0 PUSH1 0x20 DUP3 DUP7 ADD ADD MSTORE PUSH1 0x20 PUSH1 0x1F NOT PUSH1 0x1F DUP4 ADD AND DUP6 ADD ADD SWAP2 POP POP SWAP3 SWAP2 POP POP JUMP JUMPDEST PUSH1 0x80 DUP2 MSTORE PUSH1 0x0 PUSH3 0xC8F PUSH1 0x80 DUP4 ADD DUP8 PUSH3 0xC32 JUMP JUMPDEST PUSH1 0x1 PUSH1 0xA0 PUSH1 0x2 EXP SUB DUP7 AND PUSH1 0x20 DUP5 ADD MSTORE DUP3 DUP2 SUB PUSH1 0x40 DUP5 ADD MSTORE PUSH3 0xCB2 DUP2 DUP7 PUSH3 0xC32 JUMP JUMPDEST SWAP2 POP POP DUP3 PUSH1 0x60 DUP4 ADD MSTORE SWAP6 SWAP5 POP POP POP POP POP JUMP JUMPDEST PUSH1 0x20 DUP1 DUP3 MSTORE PUSH1 0x2B SWAP1 DUP3 ADD MSTORE PUSH32 0x5468652062616C616E6365206F662074686520636F6E74726163742069732069 PUSH1 0x40 DUP3 ADD MSTORE PUSH32 0x6E73756666696369656E74000000000000000000000000000000000000000000 PUSH1 0x60 DUP3 ADD MSTORE PUSH1 0x80 ADD SWAP1 JUMP JUMPDEST PUSH1 0xE0 PUSH1 0x2 EXP PUSH4 0x4E487B71 MUL PUSH1 0x0 MSTORE PUSH1 0x32 PUSH1 0x4 MSTORE PUSH1 0x24 PUSH1 0x0 REVERT JUMPDEST PUSH1 0x0 PUSH1 0x20 DUP3 DUP5 SUB SLT ISZERO PUSH3 0xD4D JUMPI PUSH1 0x0 DUP1 REVERT JUMPDEST DUP2 MLOAD PUSH3 0xC2B DUP2 PUSH3 0xA7E JUMP JUMPDEST PUSH1 0x0 PUSH1 0x20 DUP3 DUP5 SUB SLT ISZERO PUSH3 0xD6D JUMPI PUSH1 0x0 DUP1 REVERT JUMPDEST POP MLOAD SWAP2 SWAP1 POP JUMP JUMPDEST PUSH1 0xE0 PUSH1 0x2 EXP PUSH4 0x4E487B71 MUL PUSH1 0x0 MSTORE PUSH1 0x11 PUSH1 0x4 MSTORE PUSH1 0x24 PUSH1 0x0 REVERT JUMPDEST PUSH1 0x0 PUSH1 0x1 DUP3 ADD PUSH3 0xDA2 JUMPI PUSH3 0xDA2 PUSH3 0xD74 JUMP JUMPDEST POP PUSH1 0x1 ADD SWAP1 JUMP JUMPDEST PUSH1 0x2 DUP2 DIV PUSH1 0x1 DUP3 AND DUP1 PUSH3 0xDBE JUMPI PUSH1 0x7F DUP3 AND SWAP2 POP JUMPDEST PUSH1 0x20 DUP3 LT DUP2 SUB PUSH3 0x8F5 JUMPI PUSH1 0xE0 PUSH1 0x2 EXP PUSH4 0x4E487B71 MUL PUSH1 0x0 MSTORE PUSH1 0x22 PUSH1 0x4 MSTORE PUSH1 0x24 PUSH1 0x0 REVERT JUMPDEST PUSH1 0x1F DUP3 GT ISZERO PUSH3 0xE30 JUMPI PUSH1 0x0 DUP2 DUP2 MSTORE PUSH1 0x20 DUP2 KECCAK256 PUSH1 0x20 PUSH1 0x1F DUP7 ADD DIV DUP2 ADD PUSH1 0x20 DUP7 LT ISZERO PUSH3 0xE0B JUMPI POP DUP1 JUMPDEST PUSH1 0x20 PUSH1 0x1F DUP7 ADD DIV DUP3 ADD SWAP2 POP JUMPDEST DUP2 DUP2 LT ISZERO PUSH3 0xE2C JUMPI DUP3 DUP2 SSTORE PUSH1 0x1 ADD PUSH3 0xE17 JUMP JUMPDEST POP POP POP JUMPDEST POP POP POP JUMP JUMPDEST DUP2 MLOAD PUSH8 0xFFFFFFFFFFFFFFFF DUP2 GT ISZERO PUSH3 0xE52 JUMPI PUSH3 0xE52 PUSH3 0x9D0 JUMP JUMPDEST PUSH3 0xE6A DUP2 PUSH3 0xE63 DUP5 SLOAD PUSH3 0xDA9 JUMP JUMPDEST DUP5 PUSH3 0xDE2 JUMP JUMPDEST PUSH1 0x20 DUP1 PUSH1 0x1F DUP4 GT PUSH1 0x1 DUP2 EQ PUSH3 0xEA6 JUMPI PUSH1 0x0 DUP5 ISZERO PUSH3 0xE89 JUMPI POP DUP6 DUP4 ADD MLOAD JUMPDEST PUSH1 0x2 DUP1 DUP7 MUL PUSH1 0x8 DUP8 MUL SWAP1 SWAP2 EXP PUSH1 0x0 NOT DIV NOT DUP3 AND OR DUP7 SSTORE POP PUSH3 0xE2C JUMP JUMPDEST PUSH1 0x0 DUP6 DUP2 MSTORE PUSH1 0x20 DUP2 KECCAK256 PUSH1 0x1F NOT DUP7 AND SWAP2 JUMPDEST DUP3 DUP2 LT ISZERO PUSH3 0xED7 JUMPI DUP9 DUP7 ADD MLOAD DUP3 SSTORE SWAP5 DUP5 ADD SWAP5 PUSH1 0x1 SWAP1 SWAP2 ADD SWAP1 DUP5 ADD PUSH3 0xEB6 JUMP JUMPDEST POP DUP6 DUP3 LT ISZERO PUSH3 0xEF8 JUMPI DUP8 DUP6 ADD MLOAD PUSH1 0x8 PUSH1 0x1F DUP9 AND MUL PUSH1 0x2 EXP PUSH1 0x0 NOT DIV NOT AND DUP2 SSTORE JUMPDEST POP POP POP POP POP PUSH1 0x2 MUL PUSH1 0x1 ADD SWAP1 SSTORE POP JUMP JUMPDEST PUSH1 0xA0 DUP2 MSTORE PUSH1 0x0 PUSH3 0xF1D PUSH1 0xA0 DUP4 ADD DUP9 PUSH3 0xC32 JUMP JUMPDEST PUSH1 0x1 PUSH1 0xA0 PUSH1 0x2 EXP SUB DUP1 DUP9 AND PUSH1 0x20 DUP6 ADD MSTORE DUP7 PUSH1 0x40 DUP6 ADD MSTORE DUP4 DUP3 SUB PUSH1 0x60 DUP6 ADD MSTORE PUSH3 0xF47 DUP3 DUP8 PUSH3 0xC32 JUMP JUMPDEST SWAP3 POP DUP1 DUP6 AND PUSH1 0x80 DUP6 ADD MSTORE POP POP SWAP7 SWAP6 POP POP POP POP POP POP JUMP JUMPDEST DUP1 DUP3 ADD DUP1 DUP3 GT ISZERO PUSH3 0xF73 JUMPI PUSH3 0xF73 PUSH3 0xD74 JUMP JUMPDEST SWAP3 SWAP2 POP POP JUMP INVALID PUSH1 0x80 PUSH1 0x40 MSTORE CALLVALUE DUP1 ISZERO PUSH2 0x10 JUMPI PUSH1 0x0 DUP1 REVERT JUMPDEST POP PUSH1 0x40 MLOAD PUSH2 0x43F CODESIZE SUB DUP1 PUSH2 0x43F DUP4 CODECOPY DUP2 ADD PUSH1 0x40 DUP2 SWAP1 MSTORE PUSH2 0x2F SWAP2 PUSH2 0x14C JUMP JUMPDEST DUP4 DUP4 PUSH1 0x0 PUSH2 0x3D DUP4 DUP3 PUSH2 0x279 JUMP JUMPDEST POP PUSH1 0x1 DUP1 SLOAD PUSH1 0x1 PUSH1 0xA0 PUSH1 0x2 EXP SUB NOT AND PUSH1 0x1 PUSH1 0xA0 PUSH1 0x2 EXP SUB SWAP3 SWAP1 SWAP3 AND SWAP2 SWAP1 SWAP2 OR SWAP1 SSTORE POP PUSH1 0x2 PUSH2 0x6B DUP4 DUP3 PUSH2 0x279 JUMP JUMPDEST POP PUSH1 0x3 SSTORE POP PUSH2 0x33E SWAP2 POP POP JUMP JUMPDEST PUSH32 0x4E487B7100000000000000000000000000000000000000000000000000000000 PUSH1 0x0 MSTORE PUSH1 0x41 PUSH1 0x4 MSTORE PUSH1 0x24 PUSH1 0x0 REVERT JUMPDEST PUSH1 0x0 DUP3 PUSH1 0x1F DUP4 ADD SLT PUSH2 0xB8 JUMPI PUSH1 0x0 DUP1 REVERT JUMPDEST DUP2 MLOAD PUSH1 0x1 PUSH1 0x40 PUSH1 0x2 EXP SUB DUP1 DUP3 GT ISZERO PUSH2 0xD2 JUMPI PUSH2 0xD2 PUSH2 0x78 JUMP JUMPDEST PUSH1 0x40 MLOAD PUSH1 0x1F DUP4 ADD PUSH1 0x1F NOT SWAP1 DUP2 AND PUSH1 0x3F ADD AND DUP2 ADD SWAP1 DUP3 DUP3 GT DUP2 DUP4 LT OR ISZERO PUSH2 0xFA JUMPI PUSH2 0xFA PUSH2 0x78 JUMP JUMPDEST DUP2 PUSH1 0x40 MSTORE DUP4 DUP2 MSTORE PUSH1 0x20 SWAP3 POP DUP7 DUP4 DUP6 DUP9 ADD ADD GT ISZERO PUSH2 0x116 JUMPI PUSH1 0x0 DUP1 REVERT JUMPDEST PUSH1 0x0 SWAP2 POP JUMPDEST DUP4 DUP3 LT ISZERO PUSH2 0x138 JUMPI DUP6 DUP3 ADD DUP4 ADD MLOAD DUP2 DUP4 ADD DUP5 ADD MSTORE SWAP1 DUP3 ADD SWAP1 PUSH2 0x11B JUMP JUMPDEST PUSH1 0x0 SWAP4 DUP2 ADD SWAP1 SWAP3 ADD SWAP3 SWAP1 SWAP3 MSTORE SWAP5 SWAP4 POP POP POP POP JUMP JUMPDEST PUSH1 0x0 DUP1 PUSH1 0x0 DUP1 PUSH1 0x80 DUP6 DUP8 SUB SLT ISZERO PUSH2 0x162 JUMPI PUSH1 0x0 DUP1 REVERT JUMPDEST DUP5 MLOAD PUSH1 0x1 PUSH1 0x40 PUSH1 0x2 EXP SUB DUP1 DUP3 GT ISZERO PUSH2 0x179 JUMPI PUSH1 0x0 DUP1 REVERT JUMPDEST PUSH2 0x185 DUP9 DUP4 DUP10 ADD PUSH2 0xA7 JUMP JUMPDEST PUSH1 0x20 DUP9 ADD MLOAD SWAP1 SWAP7 POP SWAP2 POP PUSH1 0x1 PUSH1 0xA0 PUSH1 0x2 EXP SUB DUP3 AND DUP3 EQ PUSH2 0x1A4 JUMPI PUSH1 0x0 DUP1 REVERT JUMPDEST PUSH1 0x40 DUP8 ADD MLOAD SWAP2 SWAP5 POP DUP1 DUP3 GT ISZERO PUSH2 0x1B9 JUMPI PUSH1 0x0 DUP1 REVERT JUMPDEST POP PUSH2 0x1C6 DUP8 DUP3 DUP9 ADD PUSH2 0xA7 JUMP JUMPDEST PUSH1 0x60 SWAP7 SWAP1 SWAP7 ADD MLOAD SWAP5 SWAP8 SWAP4 SWAP7 POP POP POP POP JUMP JUMPDEST PUSH1 0x2 DUP2 DIV PUSH1 0x1 DUP3 AND DUP1 PUSH2 0x1EB JUMPI PUSH1 0x7F DUP3 AND SWAP2 POP JUMPDEST PUSH1 0x20 DUP3 LT DUP2 SUB PUSH2 0x224 JUMPI PUSH32 0x4E487B7100000000000000000000000000000000000000000000000000000000 PUSH1 0x0 MSTORE PUSH1 0x22 PUSH1 0x4 MSTORE PUSH1 0x24 PUSH1 0x0 REVERT JUMPDEST POP SWAP2 SWAP1 POP JUMP JUMPDEST PUSH1 0x1F DUP3 GT ISZERO PUSH2 0x274 JUMPI PUSH1 0x0 DUP2 DUP2 MSTORE PUSH1 0x20 DUP2 KECCAK256 PUSH1 0x20 PUSH1 0x1F DUP7 ADD DIV DUP2 ADD PUSH1 0x20 DUP7 LT ISZERO PUSH2 0x251 JUMPI POP DUP1 JUMPDEST PUSH1 0x20 PUSH1 0x1F DUP7 ADD DIV DUP3 ADD SWAP2 POP JUMPDEST DUP2 DUP2 LT ISZERO PUSH2 0x270 JUMPI DUP3 DUP2 SSTORE PUSH1 0x1 ADD PUSH2 0x25D JUMP JUMPDEST POP POP POP JUMPDEST POP POP POP JUMP JUMPDEST DUP2 MLOAD PUSH1 0x1 PUSH1 0x40 PUSH1 0x2 EXP SUB DUP2 GT ISZERO PUSH2 0x292 JUMPI PUSH2 0x292 PUSH2 0x78 JUMP JUMPDEST PUSH2 0x2A6 DUP2 PUSH2 0x2A0 DUP5 SLOAD PUSH2 0x1D7 JUMP JUMPDEST DUP5 PUSH2 0x22A JUMP JUMPDEST PUSH1 0x20 DUP1 PUSH1 0x1F DUP4 GT PUSH1 0x1 DUP2 EQ PUSH2 0x2DF JUMPI PUSH1 0x0 DUP5 ISZERO PUSH2 0x2C3 JUMPI POP DUP6 DUP4 ADD MLOAD JUMPDEST PUSH1 0x2 DUP1 DUP7 MUL PUSH1 0x8 DUP8 MUL SWAP1 SWAP2 EXP PUSH1 0x0 NOT DIV NOT DUP3 AND OR DUP7 SSTORE POP PUSH2 0x270 JUMP JUMPDEST PUSH1 0x0 DUP6 DUP2 MSTORE PUSH1 0x20 DUP2 KECCAK256 PUSH1 0x1F NOT DUP7 AND SWAP2 JUMPDEST DUP3 DUP2 LT ISZERO PUSH2 0x30E JUMPI DUP9 DUP7 ADD MLOAD DUP3 SSTORE SWAP5 DUP5 ADD SWAP5 PUSH1 0x1 SWAP1 SWAP2 ADD SWAP1 DUP5 ADD PUSH2 0x2EF JUMP JUMPDEST POP DUP6 DUP3 LT ISZERO PUSH2 0x32E JUMPI DUP8 DUP6 ADD MLOAD PUSH1 0x8 PUSH1 0x1F DUP9 AND MUL PUSH1 0x2 EXP PUSH1 0x0 NOT DIV NOT AND DUP2 SSTORE JUMPDEST POP POP POP POP POP PUSH1 0x2 MUL PUSH1 0x1 ADD SWAP1 SSTORE POP JUMP JUMPDEST PUSH1 0xF3 DUP1 PUSH2 0x34C PUSH1 0x0 CODECOPY PUSH1 0x0 RETURN INVALID PUSH1 0x80 PUSH1 0x40 MSTORE CALLVALUE DUP1 ISZERO PUSH1 0xF JUMPI PUSH1 0x0 DUP1 REVERT JUMPDEST POP PUSH1 0x4 CALLDATASIZE LT PUSH1 0x58 JUMPI PUSH29 0x100000000000000000000000000000000000000000000000000000000 PUSH1 0x0 CALLDATALOAD DIV PUSH4 0x397B652 DUP2 EQ PUSH1 0x5D JUMPI DUP1 PUSH4 0x1581B600 EQ PUSH1 0x78 JUMPI DUP1 PUSH4 0xD4E93292 EQ PUSH1 0xBB JUMPI JUMPDEST PUSH1 0x0 DUP1 REVERT JUMPDEST PUSH1 0x65 PUSH1 0x3 SLOAD DUP2 JUMP JUMPDEST PUSH1 0x40 MLOAD SWAP1 DUP2 MSTORE PUSH1 0x20 ADD JUMPDEST PUSH1 0x40 MLOAD DUP1 SWAP2 SUB SWAP1 RETURN JUMPDEST PUSH1 0x1 SLOAD PUSH1 0x97 SWAP1 PUSH20 0xFFFFFFFFFFFFFFFFFFFFFFFFFFFFFFFFFFFFFFFF AND DUP2 JUMP JUMPDEST PUSH1 0x40 MLOAD PUSH20 0xFFFFFFFFFFFFFFFFFFFFFFFFFFFFFFFFFFFFFFFF SWAP1 SWAP2 AND DUP2 MSTORE PUSH1 0x20 ADD PUSH1 0x6F JUMP JUMPDEST STOP INVALID LOG2 PUSH5 0x6970667358 0x22 SLT KECCAK256 0xE2 PUSH16 0x9B565671FA84C384CFDF2939CDF570D3 DUP15 MSIZE XOR PUSH5 0x52E3EEBACB PUSH12 0x154D5D6664736F6C63430008 GT STOP CALLER PUSH1 0x80 PUSH1 0x40 MSTORE PUSH1 0x40 MLOAD PUSH2 0x653 CODESIZE SUB DUP1 PUSH2 0x653 DUP4 CODECOPY DUP2 ADD PUSH1 0x40 DUP2 SWAP1 MSTORE PUSH2 0x22 SWAP2 PUSH2 0x17E JUMP JUMPDEST DUP5 DUP5 PUSH1 0x0 PUSH2 0x30 DUP4 DUP3 PUSH2 0x2AE JUMP JUMPDEST POP PUSH1 0x1 DUP1 SLOAD PUSH1 0x1 PUSH1 0xA0 PUSH1 0x2 EXP SUB NOT AND PUSH1 0x1 PUSH1 0xA0 PUSH1 0x2 EXP SUB SWAP3 SWAP1 SWAP3 AND SWAP2 SWAP1 SWAP2 OR SWAP1 SSTORE POP PUSH1 0x2 DUP4 SWAP1 SSTORE PUSH1 0x3 PUSH2 0x63 DUP4 DUP3 PUSH2 0x2AE JUMP JUMPDEST POP PUSH1 0x4 DUP1 SLOAD PUSH1 0x1 PUSH1 0xA0 PUSH1 0x2 EXP SUB NOT AND PUSH1 0x1 PUSH1 0xA0 PUSH1 0x2 EXP SUB SWAP3 SWAP1 SWAP3 AND SWAP2 SWAP1 SWAP2 OR SWAP1 SSTORE POP PUSH2 0x373 SWAP3 POP POP POP JUMP JUMPDEST PUSH32 0x4E487B7100000000000000000000000000000000000000000000000000000000 PUSH1 0x0 MSTORE PUSH1 0x41 PUSH1 0x4 MSTORE PUSH1 0x24 PUSH1 0x0 REVERT JUMPDEST PUSH1 0x0 DUP3 PUSH1 0x1F DUP4 ADD SLT PUSH2 0xCE JUMPI PUSH1 0x0 DUP1 REVERT JUMPDEST DUP2 MLOAD PUSH1 0x1 PUSH1 0x40 PUSH1 0x2 EXP SUB DUP1 DUP3 GT ISZERO PUSH2 0xE8 JUMPI PUSH2 0xE8 PUSH2 0x8E JUMP JUMPDEST PUSH1 0x40 MLOAD PUSH1 0x1F DUP4 ADD PUSH1 0x1F NOT SWAP1 DUP2 AND PUSH1 0x3F ADD AND DUP2 ADD SWAP1 DUP3 DUP3 GT DUP2 DUP4 LT OR ISZERO PUSH2 0x110 JUMPI PUSH2 0x110 PUSH2 0x8E JUMP JUMPDEST DUP2 PUSH1 0x40 MSTORE DUP4 DUP2 MSTORE PUSH1 0x20 SWAP3 POP DUP7 DUP4 DUP6 DUP9 ADD ADD GT ISZERO PUSH2 0x12C JUMPI PUSH1 0x0 DUP1 REVERT JUMPDEST PUSH1 0x0 SWAP2 POP JUMPDEST DUP4 DUP3 LT ISZERO PUSH2 0x14E JUMPI DUP6 DUP3 ADD DUP4 ADD MLOAD DUP2 DUP4 ADD DUP5 ADD MSTORE SWAP1 DUP3 ADD SWAP1 PUSH2 0x131 JUMP JUMPDEST PUSH1 0x0 SWAP4 DUP2 ADD SWAP1 SWAP3 ADD SWAP3 SWAP1 SWAP3 MSTORE SWAP5 SWAP4 POP POP POP POP JUMP JUMPDEST DUP1 MLOAD PUSH1 0x1 PUSH1 0xA0 PUSH1 0x2 EXP SUB DUP2 AND DUP2 EQ PUSH2 0x179 JUMPI PUSH1 0x0 DUP1 REVERT JUMPDEST SWAP2 SWAP1 POP JUMP JUMPDEST PUSH1 0x0 DUP1 PUSH1 0x0 DUP1 PUSH1 0x0 PUSH1 0xA0 DUP7 DUP9 SUB SLT ISZERO PUSH2 0x196 JUMPI PUSH1 0x0 DUP1 REVERT JUMPDEST DUP6 MLOAD PUSH1 0x1 PUSH1 0x40 PUSH1 0x2 EXP SUB DUP1 DUP3 GT ISZERO PUSH2 0x1AD JUMPI PUSH1 0x0 DUP1 REVERT JUMPDEST PUSH2 0x1B9 DUP10 DUP4 DUP11 ADD PUSH2 0xBD JUMP JUMPDEST SWAP7 POP PUSH2 0x1C7 PUSH1 0x20 DUP10 ADD PUSH2 0x162 JUMP JUMPDEST SWAP6 POP PUSH1 0x40 DUP9 ADD MLOAD SWAP5 POP PUSH1 0x60 DUP9 ADD MLOAD SWAP2 POP DUP1 DUP3 GT ISZERO PUSH2 0x1E4 JUMPI PUSH1 0x0 DUP1 REVERT JUMPDEST POP PUSH2 0x1F1 DUP9 DUP3 DUP10 ADD PUSH2 0xBD JUMP JUMPDEST SWAP3 POP POP PUSH2 0x200 PUSH1 0x80 DUP8 ADD PUSH2 0x162 JUMP JUMPDEST SWAP1 POP SWAP3 SWAP6 POP SWAP3 SWAP6 SWAP1 SWAP4 POP JUMP JUMPDEST PUSH1 0x2 DUP2 DIV PUSH1 0x1 DUP3 AND DUP1 PUSH2 0x220 JUMPI PUSH1 0x7F DUP3 AND SWAP2 POP JUMPDEST PUSH1 0x20 DUP3 LT DUP2 SUB PUSH2 0x259 JUMPI PUSH32 0x4E487B7100000000000000000000000000000000000000000000000000000000 PUSH1 0x0 MSTORE PUSH1 0x22 PUSH1 0x4 MSTORE PUSH1 0x24 PUSH1 0x0 REVERT JUMPDEST POP SWAP2 SWAP1 POP JUMP JUMPDEST PUSH1 0x1F DUP3 GT ISZERO PUSH2 0x2A9 JUMPI PUSH1 0x0 DUP2 DUP2 MSTORE PUSH1 0x20 DUP2 KECCAK256 PUSH1 0x20 PUSH1 0x1F DUP7 ADD DIV DUP2 ADD PUSH1 0x20 DUP7 LT ISZERO PUSH2 0x286 JUMPI POP DUP1 JUMPDEST PUSH1 0x20 PUSH1 0x1F DUP7 ADD DIV DUP3 ADD SWAP2 POP JUMPDEST DUP2 DUP2 LT ISZERO PUSH2 0x2A5 JUMPI DUP3 DUP2 SSTORE PUSH1 0x1 ADD PUSH2 0x292 JUMP JUMPDEST POP POP POP JUMPDEST POP POP POP JUMP JUMPDEST DUP2 MLOAD PUSH1 0x1 PUSH1 0x40 PUSH1 0x2 EXP SUB DUP2 GT ISZERO PUSH2 0x2C7 JUMPI PUSH2 0x2C7 PUSH2 0x8E JUMP JUMPDEST PUSH2 0x2DB DUP2 PUSH2 0x2D5 DUP5 SLOAD PUSH2 0x20C JUMP JUMPDEST DUP5 PUSH2 0x25F JUMP JUMPDEST PUSH1 0x20 DUP1 PUSH1 0x1F DUP4 GT PUSH1 0x1 DUP2 EQ PUSH2 0x314 JUMPI PUSH1 0x0 DUP5 ISZERO PUSH2 0x2F8 JUMPI POP DUP6 DUP4 ADD MLOAD JUMPDEST PUSH1 0x2 DUP1 DUP7 MUL PUSH1 0x8 DUP8 MUL SWAP1 SWAP2 EXP PUSH1 0x0 NOT DIV NOT DUP3 AND OR DUP7 SSTORE POP PUSH2 0x2A5 JUMP JUMPDEST PUSH1 0x0 DUP6 DUP2 MSTORE PUSH1 0x20 DUP2 KECCAK256 PUSH1 0x1F NOT DUP7 AND SWAP2 JUMPDEST DUP3 DUP2 LT ISZERO PUSH2 0x343 JUMPI DUP9 DUP7 ADD MLOAD DUP3 SSTORE SWAP5 DUP5 ADD SWAP5 PUSH1 0x1 SWAP1 SWAP2 ADD SWAP1 DUP5 ADD PUSH2 0x324 JUMP JUMPDEST POP DUP6 DUP3 LT ISZERO PUSH2 0x363 JUMPI DUP8 DUP6 ADD MLOAD PUSH1 0x8 PUSH1 0x1F DUP9 AND MUL PUSH1 0x2 EXP PUSH1 0x0 NOT DIV NOT AND DUP2 SSTORE JUMPDEST POP POP POP POP POP PUSH1 0x2 MUL PUSH1 0x1 ADD SWAP1 SSTORE POP JUMP JUMPDEST PUSH2 0x2D1 DUP1 PUSH2 0x382 PUSH1 0x0 CODECOPY PUSH1 0x0 RETURN INVALID PUSH1 0x80 PUSH1 0x40 MSTORE PUSH1 0x4 CALLDATASIZE LT PUSH2 0x5C JUMPI PUSH29 0x100000000000000000000000000000000000000000000000000000000 PUSH1 0x0 CALLDATALOAD DIV PUSH4 0x1581B600 DUP2 EQ PUSH2 0x65 JUMPI DUP1 PUSH4 0xD0E30DB0 EQ PUSH2 0xBB JUMPI DUP1 PUSH4 0xD4E93292 EQ PUSH2 0xC3 JUMPI DUP1 PUSH4 0xDA6E75C2 EQ PUSH2 0xCF JUMPI STOP JUMPDEST CALLDATASIZE PUSH2 0x63 JUMPI STOP JUMPDEST STOP JUMPDEST CALLVALUE DUP1 ISZERO PUSH2 0x71 JUMPI PUSH1 0x0 DUP1 REVERT JUMPDEST POP PUSH1 0x1 SLOAD PUSH2 0x92 SWAP1 PUSH20 0xFFFFFFFFFFFFFFFFFFFFFFFFFFFFFFFFFFFFFFFF AND DUP2 JUMP JUMPDEST PUSH1 0x40 MLOAD PUSH20 0xFFFFFFFFFFFFFFFFFFFFFFFFFFFFFFFFFFFFFFFF SWAP1 SWAP2 AND DUP2 MSTORE PUSH1 0x20 ADD PUSH1 0x40 MLOAD DUP1 SWAP2 SUB SWAP1 RETURN JUMPDEST PUSH2 0x63 PUSH2 0xE4 JUMP JUMPDEST CALLVALUE DUP1 ISZERO PUSH2 0x63 JUMPI PUSH1 0x0 DUP1 REVERT JUMPDEST CALLVALUE DUP1 ISZERO PUSH2 0xDB JUMPI PUSH1 0x0 DUP1 REVERT JUMPDEST POP PUSH2 0x63 PUSH2 0x119 JUMP JUMPDEST PUSH1 0x40 MLOAD CALLVALUE DUP2 MSTORE PUSH32 0xA34E3D4F1E6B837DBCE1011B61499FA1A483A0ABEE6A7A6697660B4B2D97132 SWAP1 PUSH1 0x20 ADD PUSH1 0x40 MLOAD DUP1 SWAP2 SUB SWAP1 LOG1 JUMP JUMPDEST PUSH1 0x2 SLOAD ADDRESS BALANCE LT ISZERO PUSH2 0x18B JUMPI PUSH1 0x40 MLOAD PUSH32 0x8C379A000000000000000000000000000000000000000000000000000000000 DUP2 MSTORE PUSH1 0x20 PUSH1 0x4 DUP3 ADD MSTORE PUSH1 0x14 PUSH1 0x24 DUP3 ADD MSTORE PUSH32 0x466F6E646F7320696E737566696369656E746573000000000000000000000000 PUSH1 0x44 DUP3 ADD MSTORE PUSH1 0x64 ADD JUMPDEST PUSH1 0x40 MLOAD DUP1 SWAP2 SUB SWAP1 REVERT JUMPDEST PUSH1 0x4 SLOAD PUSH1 0x2 SLOAD PUSH1 0x40 MLOAD PUSH1 0x0 SWAP3 PUSH20 0xFFFFFFFFFFFFFFFFFFFFFFFFFFFFFFFFFFFFFFFF AND SWAP2 SWAP1 DUP4 DUP2 DUP2 DUP2 DUP6 DUP8 GAS CALL SWAP3 POP POP POP RETURNDATASIZE DUP1 PUSH1 0x0 DUP2 EQ PUSH2 0x1E7 JUMPI PUSH1 0x40 MLOAD SWAP2 POP PUSH1 0x1F NOT PUSH1 0x3F RETURNDATASIZE ADD AND DUP3 ADD PUSH1 0x40 MSTORE RETURNDATASIZE DUP3 MSTORE RETURNDATASIZE PUSH1 0x0 PUSH1 0x20 DUP5 ADD RETURNDATACOPY PUSH2 0x1EC JUMP JUMPDEST PUSH1 0x60 SWAP2 POP JUMPDEST POP SWAP1 SWAP2 POP POP PUSH1 0x1 DUP2 ISZERO ISZERO EQ PUSH2 0x25D JUMPI PUSH1 0x40 MLOAD PUSH32 0x8C379A000000000000000000000000000000000000000000000000000000000 DUP2 MSTORE PUSH1 0x20 PUSH1 0x4 DUP3 ADD MSTORE PUSH1 0x16 PUSH1 0x24 DUP3 ADD MSTORE PUSH32 0x46616C6C6F206C61207472616E73666572656E63696100000000000000000000 PUSH1 0x44 DUP3 ADD MSTORE PUSH1 0x64 ADD PUSH2 0x182 JUMP JUMPDEST PUSH32 0x56E1CF8A52E84572FF49B950FA9A1A1867319BF8EBA3BF8C77BC4354678A34C5 PUSH1 0x2 SLOAD PUSH1 0x40 MLOAD PUSH2 0x290 SWAP2 DUP2 MSTORE PUSH1 0x20 ADD SWAP1 JUMP JUMPDEST PUSH1 0x40 MLOAD DUP1 SWAP2 SUB SWAP1 LOG1 POP JUMP INVALID LOG2 PUSH5 0x6970667358 0x22 SLT KECCAK256 0xE2 0x5D 0xDC 0x26 0xBA PUSH26 0x28058349EED3AA390545ADC794C87743581E7D2764CBFF49820A PUSH5 0x736F6C6343 STOP ADDMOD GT STOP CALLER LOG2 PUSH5 0x6970667358 0x22 SLT KECCAK256 0xD4 SWAP7 0xE7 0x5E 0xDE AND PUSH6 0x40A9734492EC INVALID DUP15 REVERT PUSH15 0x9922E63FEDF93B5638FB16B549ADE0 PUSH5 0x736F6C6343 STOP ADDMOD GT STOP CALLER PUSH1 0x80 PUSH1 0x40 MSTORE CALLVALUE DUP1 ISZERO PUSH2 0x10 JUMPI PUSH1 0x0 DUP1 REVERT JUMPDEST POP PUSH1 0xB9 DUP1 PUSH2 0x1F PUSH1 0x0 CODECOPY PUSH1 0x0 RETURN INVALID PUSH1 0x80 PUSH1 0x40 MSTORE PUSH1 0x4 CALLDATASIZE LT PUSH1 0x42 JUMPI PUSH29 0x100000000000000000000000000000000000000000000000000000000 PUSH1 0x0 CALLDATALOAD DIV PUSH3 0x113E08 DUP2 EQ PUSH1 0x4A JUMPI DUP1 PUSH4 0x38CC4831 EQ PUSH1 0x6A JUMPI STOP JUMPDEST CALLDATASIZE PUSH1 0x48 JUMPI STOP JUMPDEST STOP JUMPDEST CALLVALUE DUP1 ISZERO PUSH1 0x55 JUMPI PUSH1 0x0 DUP1 REVERT JUMPDEST POP PUSH1 0x40 MLOAD ADDRESS BALANCE DUP2 MSTORE PUSH1 0x20 ADD JUMPDEST PUSH1 0x40 MLOAD DUP1 SWAP2 SUB SWAP1 RETURN JUMPDEST CALLVALUE DUP1 ISZERO PUSH1 0x75 JUMPI PUSH1 0x0 DUP1 REVERT JUMPDEST POP PUSH1 0x40 MLOAD ADDRESS DUP2 MSTORE PUSH1 0x20 ADD PUSH1 0x61 JUMP INVALID LOG2 PUSH5 0x6970667358 0x22 SLT KECCAK256 PUSH17 0xB9A5C1503217E106F85A22813402FF1CCD 0x24 0xDE JUMP 0xA5 PUSH8 0x7976CCAA317C9AE1 PUSH29 0x64736F6C63430008110033000000000000000000000000000000000000 "
				},
				"gasEstimates": {
					"creation": {
						"codeDepositCost": "1344200",
						"executionCost": "infinite",
						"totalCost": "infinite"
					},
					"external": {
						"": "189",
						"addNewEmployee(string,address,string,uint256)": "infinite",
						"addNewService(string,uint256)": "infinite",
						"addNewTenant(string,address,uint256,string)": "infinite",
						"getContractBalance()": "615",
						"owner()": "572",
						"payAllServices()": "infinite",
						"paySalaries()": "infinite",
						"payService(uint256)": "779",
						"renounceOwnership()": "infinite",
						"showContractAddress()": "263",
						"transferOwnership(address)": "infinite"
					},
					"internal": {
						"getTotalAmountForSalaries()": "infinite",
						"getTotalAmountForService()": "infinite"
					}
				},
				"methodIdentifiers": {
					"addNewEmployee(string,address,string,uint256)": "2237300f",
					"addNewService(string,uint256)": "72673e31",
					"addNewTenant(string,address,uint256,string)": "cc0395bf",
					"getContractBalance()": "6f9fb98a",
					"owner()": "8da5cb5b",
					"payAllServices()": "ec3ab274",
					"paySalaries()": "42e36b3b",
					"payService(uint256)": "cd7d77c5",
					"renounceOwnership()": "715018a6",
					"showContractAddress()": "7ca2e656",
					"transferOwnership(address)": "f2fde38b"
				}
			},
			"storageLayout": {
				"storage": [
					{
						"astId": 7,
						"contract": "contracts/Consorcio.sol:Consorcio",
						"label": "_owner",
						"offset": 0,
						"slot": "0",
						"type": "t_address"
					},
					{
						"astId": 183,
						"contract": "contracts/Consorcio.sol:Consorcio",
						"label": "serviceContractInstance",
						"offset": 0,
						"slot": "1",
						"type": "t_contract(Service)567"
					},
					{
						"astId": 187,
						"contract": "contracts/Consorcio.sol:Consorcio",
						"label": "employeeList",
						"offset": 0,
						"slot": "2",
						"type": "t_array(t_contract(Employee)532)dyn_storage"
					},
					{
						"astId": 191,
						"contract": "contracts/Consorcio.sol:Consorcio",
						"label": "tenantList",
						"offset": 0,
						"slot": "3",
						"type": "t_array(t_contract(Tenant)669)dyn_storage"
					},
					{
						"astId": 195,
						"contract": "contracts/Consorcio.sol:Consorcio",
						"label": "serviceList",
						"offset": 0,
						"slot": "4",
						"type": "t_array(t_struct(ServiceStruct)180_storage)dyn_storage"
					}
				],
				"types": {
					"t_address": {
						"encoding": "inplace",
						"label": "address",
						"numberOfBytes": "20"
					},
					"t_array(t_contract(Employee)532)dyn_storage": {
						"base": "t_contract(Employee)532",
						"encoding": "dynamic_array",
						"label": "contract Employee[]",
						"numberOfBytes": "32"
					},
					"t_array(t_contract(Tenant)669)dyn_storage": {
						"base": "t_contract(Tenant)669",
						"encoding": "dynamic_array",
						"label": "contract Tenant[]",
						"numberOfBytes": "32"
					},
					"t_array(t_struct(ServiceStruct)180_storage)dyn_storage": {
						"base": "t_struct(ServiceStruct)180_storage",
						"encoding": "dynamic_array",
						"label": "struct Consorcio.ServiceStruct[]",
						"numberOfBytes": "32"
					},
					"t_contract(Employee)532": {
						"encoding": "inplace",
						"label": "contract Employee",
						"numberOfBytes": "20"
					},
					"t_contract(Service)567": {
						"encoding": "inplace",
						"label": "contract Service",
						"numberOfBytes": "20"
					},
					"t_contract(Tenant)669": {
						"encoding": "inplace",
						"label": "contract Tenant",
						"numberOfBytes": "20"
					},
					"t_string_storage": {
						"encoding": "bytes",
						"label": "string",
						"numberOfBytes": "32"
					},
					"t_struct(ServiceStruct)180_storage": {
						"encoding": "inplace",
						"label": "struct Consorcio.ServiceStruct",
						"members": [
							{
								"astId": 177,
								"contract": "contracts/Consorcio.sol:Consorcio",
								"label": "name",
								"offset": 0,
								"slot": "0",
								"type": "t_string_storage"
							},
							{
								"astId": 179,
								"contract": "contracts/Consorcio.sol:Consorcio",
								"label": "price",
								"offset": 0,
								"slot": "1",
								"type": "t_uint256"
							}
						],
						"numberOfBytes": "64"
					},
					"t_uint256": {
						"encoding": "inplace",
						"label": "uint256",
						"numberOfBytes": "32"
					}
				}
			},
			"userdoc": {
				"kind": "user",
				"methods": {},
				"version": 1
			}
		}
	}
}