{
	"contracts/Consorcio.sol": {
		"Consorcio": {
			"abi": [
				{
					"anonymous": false,
					"inputs": [
						{
							"indexed": true,
							"internalType": "address",
							"name": "previousOwner",
							"type": "address"
						},
						{
							"indexed": true,
							"internalType": "address",
							"name": "newOwner",
							"type": "address"
						}
					],
					"name": "OwnershipTransferred",
					"type": "event"
				},
				{
					"anonymous": false,
					"inputs": [
						{
							"indexed": false,
							"internalType": "address",
							"name": "from",
							"type": "address"
						},
						{
							"indexed": false,
							"internalType": "uint256",
							"name": "amount",
							"type": "uint256"
						}
					],
					"name": "PaymentSucessfully",
					"type": "event"
				},
				{
					"stateMutability": "payable",
					"type": "fallback"
				},
				{
					"inputs": [
						{
							"internalType": "string",
							"name": "_name",
							"type": "string"
						},
						{
							"internalType": "address",
							"name": "_employeeAddress",
							"type": "address"
						},
						{
							"internalType": "string",
							"name": "_profession",
							"type": "string"
						},
						{
							"internalType": "string",
							"name": "_schedule",
							"type": "string"
						}
					],
					"name": "addNewEmployee",
					"outputs": [],
					"stateMutability": "nonpayable",
					"type": "function"
				},
				{
					"inputs": [
						{
							"internalType": "string",
							"name": "_name",
							"type": "string"
						},
						{
							"internalType": "uint256",
							"name": "_price",
							"type": "uint256"
						}
					],
					"name": "addNewService",
					"outputs": [],
					"stateMutability": "nonpayable",
					"type": "function"
				},
				{
					"inputs": [
						{
							"internalType": "string",
							"name": "_name",
							"type": "string"
						},
						{
							"internalType": "address",
							"name": "_tenantAddress",
							"type": "address"
						},
						{
							"internalType": "uint256",
							"name": "_rentalCost",
							"type": "uint256"
						},
						{
							"internalType": "string",
							"name": "_residence",
							"type": "string"
						}
					],
					"name": "addNewTenant",
					"outputs": [],
					"stateMutability": "nonpayable",
					"type": "function"
				},
				{
					"inputs": [],
					"name": "getContractBalance",
					"outputs": [
						{
							"internalType": "uint256",
							"name": "balance",
							"type": "uint256"
						}
					],
					"stateMutability": "view",
					"type": "function"
				},
				{
					"inputs": [],
					"name": "owner",
					"outputs": [
						{
							"internalType": "address",
							"name": "",
							"type": "address"
						}
					],
					"stateMutability": "view",
					"type": "function"
				},
				{
					"inputs": [],
					"name": "payAllServices",
					"outputs": [],
					"stateMutability": "nonpayable",
					"type": "function"
				},
				{
					"inputs": [],
					"name": "paySalaries",
					"outputs": [],
					"stateMutability": "nonpayable",
					"type": "function"
				},
				{
					"inputs": [
						{
							"internalType": "uint256",
							"name": "index",
							"type": "uint256"
						}
					],
					"name": "payService",
					"outputs": [],
					"stateMutability": "nonpayable",
					"type": "function"
				},
				{
					"inputs": [],
					"name": "renounceOwnership",
					"outputs": [],
					"stateMutability": "nonpayable",
					"type": "function"
				},
				{
					"inputs": [],
					"name": "showContractAddress",
					"outputs": [
						{
							"internalType": "address",
							"name": "",
							"type": "address"
						}
					],
					"stateMutability": "view",
					"type": "function"
				},
				{
					"inputs": [
						{
							"internalType": "address",
							"name": "newOwner",
							"type": "address"
						}
					],
					"name": "transferOwnership",
					"outputs": [],
					"stateMutability": "nonpayable",
					"type": "function"
				},
				{
					"stateMutability": "payable",
					"type": "receive"
				}
			],
			"devdoc": {
				"kind": "dev",
				"methods": {
					"owner()": {
						"details": "Returns the address of the current owner."
					},
					"renounceOwnership()": {
						"details": "Leaves the contract without owner. It will not be possible to call `onlyOwner` functions anymore. Can only be called by the current owner. NOTE: Renouncing ownership will leave the contract without an owner, thereby removing any functionality that is only available to the owner."
					},
					"transferOwnership(address)": {
						"details": "Transfers ownership of the contract to a new account (`newOwner`). Can only be called by the current owner."
					}
				},
				"version": 1
			},
			"evm": {
				"assembly": "    /* \"contracts/Consorcio.sol\":167:2079  contract Consorcio is Ownable {... */\n  mstore(0x40, 0x80)\n  callvalue\n  dup1\n  iszero\n  tag_1\n  jumpi\n  0x00\n  dup1\n  revert\ntag_1:\n  pop\n    /* \"@openzeppelin/contracts/access/Ownable.sol\":936:968  _transferOwnership(_msgSender()) */\n  tag_4\n    /* \"@openzeppelin/contracts/access/Ownable.sol\":955:967  _msgSender() */\n  tag_5\n    /* \"@openzeppelin/contracts/access/Ownable.sol\":955:965  _msgSender */\n  0x0100000000\n  tag_6\n  dup2\n  mul\n    /* \"@openzeppelin/contracts/access/Ownable.sol\":955:967  _msgSender() */\n  div\n  jump\t// in\ntag_5:\n    /* \"@openzeppelin/contracts/access/Ownable.sol\":936:954  _transferOwnership */\n  0x0100000000\n  tag_7\n  dup2\n  mul\n    /* \"@openzeppelin/contracts/access/Ownable.sol\":936:968  _transferOwnership(_msgSender()) */\n  div\n  jump\t// in\ntag_4:\n    /* \"contracts/Consorcio.sol\":167:2079  contract Consorcio is Ownable {... */\n  jump(tag_8)\n    /* \"@openzeppelin/contracts/utils/Context.sol\":640:736  function _msgSender() internal view virtual returns (address) {... */\ntag_6:\n    /* \"@openzeppelin/contracts/utils/Context.sol\":719:729  msg.sender */\n  caller\n  swap1\n    /* \"@openzeppelin/contracts/utils/Context.sol\":640:736  function _msgSender() internal view virtual returns (address) {... */\n  jump\t// out\n    /* \"@openzeppelin/contracts/access/Ownable.sol\":2433:2620  function _transferOwnership(address newOwner) internal virtual {... */\ntag_7:\n    /* \"@openzeppelin/contracts/access/Ownable.sol\":2506:2522  address oldOwner */\n  0x00\n    /* \"@openzeppelin/contracts/access/Ownable.sol\":2525:2531  _owner */\n  dup1\n  sload\n  sub(exp(0x02, 0xa0), 0x01)\n    /* \"@openzeppelin/contracts/access/Ownable.sol\":2541:2558  _owner = newOwner */\n  dup4\n  dup2\n  and\n  not(sub(exp(0x02, 0xa0), 0x01))\n  dup4\n  and\n  dup2\n  or\n  dup5\n  sstore\n    /* \"@openzeppelin/contracts/access/Ownable.sol\":2573:2613  OwnershipTransferred(oldOwner, newOwner) */\n  mload(0x40)\n    /* \"@openzeppelin/contracts/access/Ownable.sol\":2525:2531  _owner */\n  swap2\n  swap1\n  swap3\n  and\n  swap3\n  dup4\n  swap2\n    /* \"@openzeppelin/contracts/access/Ownable.sol\":2573:2613  OwnershipTransferred(oldOwner, newOwner) */\n  0x8be0079c531659141344cd1fd0a4f28419497f9722a3daafe3b4186f6b6457e0\n  swap2\n    /* \"@openzeppelin/contracts/access/Ownable.sol\":2506:2522  address oldOwner */\n  swap1\n    /* \"@openzeppelin/contracts/access/Ownable.sol\":2573:2613  OwnershipTransferred(oldOwner, newOwner) */\n  log3\n    /* \"@openzeppelin/contracts/access/Ownable.sol\":2496:2620  {... */\n  pop\n    /* \"@openzeppelin/contracts/access/Ownable.sol\":2433:2620  function _transferOwnership(address newOwner) internal virtual {... */\n  pop\n  jump\t// out\n    /* \"contracts/Consorcio.sol\":167:2079  contract Consorcio is Ownable {... */\ntag_8:\n  dataSize(sub_0)\n  dup1\n  dataOffset(sub_0)\n  0x00\n  codecopy\n  0x00\n  return\nstop\n\nsub_0: assembly {\n        /* \"contracts/Consorcio.sol\":167:2079  contract Consorcio is Ownable {... */\n      mstore(0x40, 0x80)\n      jumpi(tag_1, lt(calldatasize, 0x04))\n      calldataload(0x00)\n      0x0100000000000000000000000000000000000000000000000000000000\n      swap1\n      div\n      dup1\n      0x7ca2e656\n      gt\n      tag_14\n      jumpi\n      dup1\n      0x7ca2e656\n      eq\n      tag_8\n      jumpi\n      dup1\n      0x8da5cb5b\n      eq\n      tag_9\n      jumpi\n      dup1\n      0xcc0395bf\n      eq\n      tag_10\n      jumpi\n      dup1\n      0xcd7d77c5\n      eq\n      tag_11\n      jumpi\n      dup1\n      0xec3ab274\n      eq\n      tag_4\n      jumpi\n      dup1\n      0xf2fde38b\n      eq\n      tag_13\n      jumpi\n      stop\n    tag_14:\n      dup1\n      0x40f851e2\n      eq\n      tag_3\n      jumpi\n      dup1\n      0x42e36b3b\n      eq\n      tag_4\n      jumpi\n      dup1\n      0x6f9fb98a\n      eq\n      tag_5\n      jumpi\n      dup1\n      0x715018a6\n      eq\n      tag_6\n      jumpi\n      dup1\n      0x72673e31\n      eq\n      tag_7\n      jumpi\n      stop\n    tag_1:\n      jumpi(tag_2, calldatasize)\n      stop\n    tag_2:\n      stop\n        /* \"contracts/Consorcio.sol\":1463:1702  function addNewEmployee(string memory _name, address _employeeAddress, string memory _profession, string memory _schedule) public onlyOwner {... */\n    tag_3:\n      callvalue\n      dup1\n      iszero\n      tag_19\n      jumpi\n      0x00\n      dup1\n      revert\n    tag_19:\n      pop\n      tag_2\n      tag_21\n      calldatasize\n      0x04\n      tag_22\n      jump\t// in\n    tag_21:\n      tag_23\n      jump\t// in\n        /* \"contracts/Consorcio.sol\":1048:1098  function paySalaries() public onlyOwner {... */\n    tag_4:\n      callvalue\n      dup1\n      iszero\n      tag_24\n      jumpi\n      0x00\n      dup1\n      revert\n    tag_24:\n      pop\n      tag_2\n      tag_26\n      jump\t// in\n        /* \"contracts/Consorcio.sol\":1962:2076  function getContractBalance() public view returns(uint256 balance) {... */\n    tag_5:\n      callvalue\n      dup1\n      iszero\n      tag_27\n      jumpi\n      0x00\n      dup1\n      revert\n    tag_27:\n      pop\n      mload(0x40)\n        /* \"contracts/Consorcio.sol\":2055:2059  this */\n      address\n        /* \"contracts/Consorcio.sol\":2047:2068  address(this).balance */\n      balance\n        /* \"#utility.yul\":2097:2122   */\n      dup2\n      mstore\n        /* \"#utility.yul\":2085:2087   */\n      0x20\n        /* \"#utility.yul\":2070:2088   */\n      add\n        /* \"contracts/Consorcio.sol\":1962:2076  function getContractBalance() public view returns(uint256 balance) {... */\n    tag_30:\n      mload(0x40)\n      dup1\n      swap2\n      sub\n      swap1\n      return\n        /* \"@openzeppelin/contracts/access/Ownable.sol\":1831:1932  function renounceOwnership() public virtual onlyOwner {... */\n    tag_6:\n      callvalue\n      dup1\n      iszero\n      tag_32\n      jumpi\n      0x00\n      dup1\n      revert\n    tag_32:\n      pop\n      tag_2\n      tag_34\n      jump\t// in\n        /* \"contracts/Consorcio.sol\":1710:1843  function addNewService(string memory _name, uint _price) public onlyOwner {... */\n    tag_7:\n      callvalue\n      dup1\n      iszero\n      tag_35\n      jumpi\n      0x00\n      dup1\n      revert\n    tag_35:\n      pop\n      tag_2\n      tag_37\n      calldatasize\n      0x04\n      tag_38\n      jump\t// in\n    tag_37:\n      tag_39\n      jump\t// in\n        /* \"contracts/Consorcio.sol\":1855:1954  function showContractAddress() public view returns(address) {... */\n    tag_8:\n      callvalue\n      dup1\n      iszero\n      tag_40\n      jumpi\n      0x00\n      dup1\n      revert\n    tag_40:\n      pop\n        /* \"contracts/Consorcio.sol\":1941:1945  this */\n      address\n        /* \"contracts/Consorcio.sol\":1855:1954  function showContractAddress() public view returns(address) {... */\n    tag_41:\n      mload(0x40)\n      sub(exp(0x02, 0xa0), 0x01)\n        /* \"#utility.yul\":2692:2747   */\n      swap1\n      swap2\n      and\n        /* \"#utility.yul\":2674:2748   */\n      dup2\n      mstore\n        /* \"#utility.yul\":2662:2664   */\n      0x20\n        /* \"#utility.yul\":2647:2665   */\n      add\n        /* \"contracts/Consorcio.sol\":1855:1954  function showContractAddress() public view returns(address) {... */\n      tag_30\n        /* \"#utility.yul\":2528:2754   */\n      jump\n        /* \"@openzeppelin/contracts/access/Ownable.sol\":1201:1286  function owner() public view virtual returns (address) {... */\n    tag_9:\n      callvalue\n      dup1\n      iszero\n      tag_45\n      jumpi\n      0x00\n      dup1\n      revert\n    tag_45:\n      pop\n        /* \"@openzeppelin/contracts/access/Ownable.sol\":1247:1254  address */\n      0x00\n        /* \"@openzeppelin/contracts/access/Ownable.sol\":1273:1279  _owner */\n      sload\n      sub(exp(0x02, 0xa0), 0x01)\n      and\n        /* \"@openzeppelin/contracts/access/Ownable.sol\":1201:1286  function owner() public view virtual returns (address) {... */\n      jump(tag_41)\n        /* \"contracts/Consorcio.sol\":1218:1455  function addNewTenant(string memory _name, address _tenantAddress, uint _rentalCost, string memory _residence) public onlyOwner {... */\n    tag_10:\n      callvalue\n      dup1\n      iszero\n      tag_49\n      jumpi\n      0x00\n      dup1\n      revert\n    tag_49:\n      pop\n      tag_2\n      tag_51\n      calldatasize\n      0x04\n      tag_52\n      jump\t// in\n    tag_51:\n      tag_53\n      jump\t// in\n        /* \"contracts/Consorcio.sol\":1159:1210  function payService(uint index) public onlyOwner {} */\n    tag_11:\n      callvalue\n      dup1\n      iszero\n      tag_54\n      jumpi\n      0x00\n      dup1\n      revert\n    tag_54:\n      pop\n      tag_2\n      tag_56\n      calldatasize\n      0x04\n      tag_57\n      jump\t// in\n    tag_56:\n      tag_58\n      jump\t// in\n        /* \"@openzeppelin/contracts/access/Ownable.sol\":2081:2279  function transferOwnership(address newOwner) public virtual onlyOwner {... */\n    tag_13:\n      callvalue\n      dup1\n      iszero\n      tag_62\n      jumpi\n      0x00\n      dup1\n      revert\n    tag_62:\n      pop\n      tag_2\n      tag_64\n      calldatasize\n      0x04\n      tag_65\n      jump\t// in\n    tag_64:\n      tag_66\n      jump\t// in\n        /* \"contracts/Consorcio.sol\":1463:1702  function addNewEmployee(string memory _name, address _employeeAddress, string memory _profession, string memory _schedule) public onlyOwner {... */\n    tag_23:\n        /* \"@openzeppelin/contracts/access/Ownable.sol\":1094:1107  _checkOwner() */\n      tag_68\n        /* \"@openzeppelin/contracts/access/Ownable.sol\":1094:1105  _checkOwner */\n      tag_69\n        /* \"@openzeppelin/contracts/access/Ownable.sol\":1094:1107  _checkOwner() */\n      jump\t// in\n    tag_68:\n        /* \"contracts/Consorcio.sol\":1614:1626  employeeList */\n      0x01\n        /* \"contracts/Consorcio.sol\":1645:1650  _name */\n      dup5\n        /* \"contracts/Consorcio.sol\":1652:1668  _employeeAddress */\n      dup5\n        /* \"contracts/Consorcio.sol\":1670:1681  _profession */\n      dup5\n        /* \"contracts/Consorcio.sol\":1683:1692  _schedule */\n      dup5\n        /* \"contracts/Consorcio.sol\":1632:1693  new Employee(_name, _employeeAddress, _profession, _schedule) */\n      mload(0x40)\n      tag_71\n      swap1\n      tag_72\n      jump\t// in\n    tag_71:\n      tag_73\n      swap5\n      swap4\n      swap3\n      swap2\n      swap1\n      tag_74\n      jump\t// in\n    tag_73:\n      mload(0x40)\n      dup1\n      swap2\n      sub\n      swap1\n      0x00\n      create\n      dup1\n      iszero\n      dup1\n      iszero\n      tag_75\n      jumpi\n      returndatasize\n      0x00\n      dup1\n      returndatacopy\n      revert(0x00, returndatasize)\n    tag_75:\n      pop\n        /* \"contracts/Consorcio.sol\":1614:1694  employeeList.push(new Employee(_name, _employeeAddress, _profession, _schedule)) */\n      dup2\n      sload\n      0x01\n      dup2\n      add\n      dup4\n      sstore\n      0x00\n      swap3\n      dup4\n      mstore\n      0x20\n      swap1\n      swap3\n      keccak256\n      swap1\n      swap2\n      add\n      dup1\n      sload\n      not(0xffffffffffffffffffffffffffffffffffffffff)\n      and\n      sub(exp(0x02, 0xa0), 0x01)\n      swap1\n      swap3\n      and\n      swap2\n      swap1\n      swap2\n      or\n      swap1\n      sstore\n      pop\n      pop\n      pop\n      pop\n        /* \"contracts/Consorcio.sol\":1463:1702  function addNewEmployee(string memory _name, address _employeeAddress, string memory _profession, string memory _schedule) public onlyOwner {... */\n      jump\t// out\n        /* \"contracts/Consorcio.sol\":1048:1098  function paySalaries() public onlyOwner {... */\n    tag_26:\n        /* \"@openzeppelin/contracts/access/Ownable.sol\":1094:1107  _checkOwner() */\n      tag_78\n        /* \"@openzeppelin/contracts/access/Ownable.sol\":1094:1105  _checkOwner */\n      tag_69\n        /* \"@openzeppelin/contracts/access/Ownable.sol\":1094:1107  _checkOwner() */\n      jump\t// in\n    tag_78:\n        /* \"contracts/Consorcio.sol\":1048:1098  function paySalaries() public onlyOwner {... */\n      jump\t// out\n        /* \"@openzeppelin/contracts/access/Ownable.sol\":1831:1932  function renounceOwnership() public virtual onlyOwner {... */\n    tag_34:\n        /* \"@openzeppelin/contracts/access/Ownable.sol\":1094:1107  _checkOwner() */\n      tag_82\n        /* \"@openzeppelin/contracts/access/Ownable.sol\":1094:1105  _checkOwner */\n      tag_69\n        /* \"@openzeppelin/contracts/access/Ownable.sol\":1094:1107  _checkOwner() */\n      jump\t// in\n    tag_82:\n        /* \"@openzeppelin/contracts/access/Ownable.sol\":1895:1925  _transferOwnership(address(0)) */\n      tag_78\n        /* \"@openzeppelin/contracts/access/Ownable.sol\":1922:1923  0 */\n      0x00\n        /* \"@openzeppelin/contracts/access/Ownable.sol\":1895:1913  _transferOwnership */\n      tag_85\n        /* \"@openzeppelin/contracts/access/Ownable.sol\":1895:1925  _transferOwnership(address(0)) */\n      jump\t// in\n        /* \"contracts/Consorcio.sol\":1710:1843  function addNewService(string memory _name, uint _price) public onlyOwner {... */\n    tag_39:\n        /* \"@openzeppelin/contracts/access/Ownable.sol\":1094:1107  _checkOwner() */\n      tag_87\n        /* \"@openzeppelin/contracts/access/Ownable.sol\":1094:1105  _checkOwner */\n      tag_69\n        /* \"@openzeppelin/contracts/access/Ownable.sol\":1094:1107  _checkOwner() */\n      jump\t// in\n    tag_87:\n        /* \"contracts/Consorcio.sol\":1812:1834  Service(_name, _price) */\n      0x40\n      dup1\n      mload\n      dup1\n      dup3\n      add\n      swap1\n      swap2\n      mstore\n      dup3\n      dup2\n      mstore\n      0x20\n      dup2\n      add\n      dup3\n      swap1\n      mstore\n        /* \"contracts/Consorcio.sol\":1795:1806  serviceList */\n      0x03\n        /* \"contracts/Consorcio.sol\":1795:1835  serviceList.push(Service(_name, _price)) */\n      dup1\n      sload\n      0x01\n      dup2\n      add\n      dup3\n      sstore\n      0x00\n      swap2\n      swap1\n      swap2\n      mstore\n      dup2\n      mload\n      0x02\n      swap1\n      swap2\n      mul\n      0xc2575a0e9e593c00f959f8c92f12db2869c3395a3b0502d05e2516446f71f85b\n      add\n      swap1\n      dup2\n      swap1\n      tag_90\n      swap1\n      dup3\n      tag_91\n      jump\t// in\n    tag_90:\n      pop\n      0x20\n      dup3\n      add\n      mload\n      dup2\n      0x01\n      add\n      sstore\n      pop\n      pop\n        /* \"contracts/Consorcio.sol\":1710:1843  function addNewService(string memory _name, uint _price) public onlyOwner {... */\n      pop\n      pop\n      jump\t// out\n        /* \"contracts/Consorcio.sol\":1218:1455  function addNewTenant(string memory _name, address _tenantAddress, uint _rentalCost, string memory _residence) public onlyOwner {... */\n    tag_53:\n        /* \"@openzeppelin/contracts/access/Ownable.sol\":1094:1107  _checkOwner() */\n      tag_95\n        /* \"@openzeppelin/contracts/access/Ownable.sol\":1094:1105  _checkOwner */\n      tag_69\n        /* \"@openzeppelin/contracts/access/Ownable.sol\":1094:1107  _checkOwner() */\n      jump\t// in\n    tag_95:\n        /* \"contracts/Consorcio.sol\":1357:1367  tenantList */\n      0x02\n        /* \"contracts/Consorcio.sol\":1384:1389  _name */\n      dup5\n        /* \"contracts/Consorcio.sol\":1391:1405  _tenantAddress */\n      dup5\n        /* \"contracts/Consorcio.sol\":1407:1418  _rentalCost */\n      dup5\n        /* \"contracts/Consorcio.sol\":1420:1430  _residence */\n      dup5\n        /* \"contracts/Consorcio.sol\":1440:1444  this */\n      address\n        /* \"contracts/Consorcio.sol\":1373:1446  new Tenant(_name, _tenantAddress, _rentalCost, _residence, address(this)) */\n      mload(0x40)\n      tag_97\n      swap1\n      tag_98\n      jump\t// in\n    tag_97:\n      tag_73\n      swap6\n      swap5\n      swap4\n      swap3\n      swap2\n      swap1\n      tag_100\n      jump\t// in\n        /* \"contracts/Consorcio.sol\":1159:1210  function payService(uint index) public onlyOwner {} */\n    tag_58:\n        /* \"@openzeppelin/contracts/access/Ownable.sol\":1094:1107  _checkOwner() */\n      tag_104\n        /* \"@openzeppelin/contracts/access/Ownable.sol\":1094:1105  _checkOwner */\n      tag_69\n        /* \"@openzeppelin/contracts/access/Ownable.sol\":1094:1107  _checkOwner() */\n      jump\t// in\n    tag_104:\n        /* \"contracts/Consorcio.sol\":1159:1210  function payService(uint index) public onlyOwner {} */\n      pop\n      jump\t// out\n        /* \"@openzeppelin/contracts/access/Ownable.sol\":2081:2279  function transferOwnership(address newOwner) public virtual onlyOwner {... */\n    tag_66:\n        /* \"@openzeppelin/contracts/access/Ownable.sol\":1094:1107  _checkOwner() */\n      tag_110\n        /* \"@openzeppelin/contracts/access/Ownable.sol\":1094:1105  _checkOwner */\n      tag_69\n        /* \"@openzeppelin/contracts/access/Ownable.sol\":1094:1107  _checkOwner() */\n      jump\t// in\n    tag_110:\n      sub(exp(0x02, 0xa0), 0x01)\n        /* \"@openzeppelin/contracts/access/Ownable.sol\":2169:2191  newOwner != address(0) */\n      dup2\n      and\n        /* \"@openzeppelin/contracts/access/Ownable.sol\":2161:2234  require(newOwner != address(0), \"Ownable: new owner is the zero address\") */\n      tag_112\n      jumpi\n      mload(0x40)\n      0x08c379a000000000000000000000000000000000000000000000000000000000\n      dup2\n      mstore\n        /* \"#utility.yul\":8479:8481   */\n      0x20\n        /* \"@openzeppelin/contracts/access/Ownable.sol\":2161:2234  require(newOwner != address(0), \"Ownable: new owner is the zero address\") */\n      0x04\n      dup3\n      add\n        /* \"#utility.yul\":8461:8482   */\n      mstore\n        /* \"#utility.yul\":8518:8520   */\n      0x26\n        /* \"#utility.yul\":8498:8516   */\n      0x24\n      dup3\n      add\n        /* \"#utility.yul\":8491:8521   */\n      mstore\n        /* \"#utility.yul\":8557:8591   */\n      0x4f776e61626c653a206e6577206f776e657220697320746865207a65726f2061\n        /* \"#utility.yul\":8537:8555   */\n      0x44\n      dup3\n      add\n        /* \"#utility.yul\":8530:8592   */\n      mstore\n        /* \"#utility.yul\":8628:8636   */\n      0x6464726573730000000000000000000000000000000000000000000000000000\n        /* \"#utility.yul\":8608:8626   */\n      0x64\n      dup3\n      add\n        /* \"#utility.yul\":8601:8637   */\n      mstore\n        /* \"#utility.yul\":8654:8673   */\n      0x84\n      add\n        /* \"@openzeppelin/contracts/access/Ownable.sol\":2161:2234  require(newOwner != address(0), \"Ownable: new owner is the zero address\") */\n    tag_113:\n      mload(0x40)\n      dup1\n      swap2\n      sub\n      swap1\n      revert\n    tag_112:\n        /* \"@openzeppelin/contracts/access/Ownable.sol\":2244:2272  _transferOwnership(newOwner) */\n      tag_104\n        /* \"@openzeppelin/contracts/access/Ownable.sol\":2263:2271  newOwner */\n      dup2\n        /* \"@openzeppelin/contracts/access/Ownable.sol\":2244:2262  _transferOwnership */\n      tag_85\n        /* \"@openzeppelin/contracts/access/Ownable.sol\":2244:2272  _transferOwnership(newOwner) */\n      jump\t// in\n        /* \"@openzeppelin/contracts/access/Ownable.sol\":1359:1489  function _checkOwner() internal view virtual {... */\n    tag_69:\n        /* \"@openzeppelin/contracts/access/Ownable.sol\":1247:1254  address */\n      0x00\n        /* \"@openzeppelin/contracts/access/Ownable.sol\":1273:1279  _owner */\n      sload\n      sub(exp(0x02, 0xa0), 0x01)\n      and\n        /* \"@openzeppelin/contracts/utils/Context.sol\":719:729  msg.sender */\n      caller\n        /* \"@openzeppelin/contracts/access/Ownable.sol\":1422:1445  owner() == _msgSender() */\n      eq\n        /* \"@openzeppelin/contracts/access/Ownable.sol\":1414:1482  require(owner() == _msgSender(), \"Ownable: caller is not the owner\") */\n      tag_78\n      jumpi\n      mload(0x40)\n      0x08c379a000000000000000000000000000000000000000000000000000000000\n      dup2\n      mstore\n        /* \"#utility.yul\":8886:8888   */\n      0x20\n        /* \"@openzeppelin/contracts/access/Ownable.sol\":1414:1482  require(owner() == _msgSender(), \"Ownable: caller is not the owner\") */\n      0x04\n      dup3\n      add\n        /* \"#utility.yul\":8868:8889   */\n      dup2\n      swap1\n      mstore\n        /* \"#utility.yul\":8905:8923   */\n      0x24\n      dup3\n      add\n        /* \"#utility.yul\":8898:8928   */\n      mstore\n        /* \"#utility.yul\":8964:8998   */\n      0x4f776e61626c653a2063616c6c6572206973206e6f7420746865206f776e6572\n        /* \"#utility.yul\":8944:8962   */\n      0x44\n      dup3\n      add\n        /* \"#utility.yul\":8937:8999   */\n      mstore\n        /* \"#utility.yul\":9016:9034   */\n      0x64\n      add\n        /* \"@openzeppelin/contracts/access/Ownable.sol\":1414:1482  require(owner() == _msgSender(), \"Ownable: caller is not the owner\") */\n      tag_113\n        /* \"#utility.yul\":8684:9040   */\n      jump\n        /* \"@openzeppelin/contracts/access/Ownable.sol\":2433:2620  function _transferOwnership(address newOwner) internal virtual {... */\n    tag_85:\n        /* \"@openzeppelin/contracts/access/Ownable.sol\":2506:2522  address oldOwner */\n      0x00\n        /* \"@openzeppelin/contracts/access/Ownable.sol\":2525:2531  _owner */\n      dup1\n      sload\n      sub(exp(0x02, 0xa0), 0x01)\n        /* \"@openzeppelin/contracts/access/Ownable.sol\":2541:2558  _owner = newOwner */\n      dup4\n      dup2\n      and\n      not(0xffffffffffffffffffffffffffffffffffffffff)\n      dup4\n      and\n      dup2\n      or\n      dup5\n      sstore\n        /* \"@openzeppelin/contracts/access/Ownable.sol\":2573:2613  OwnershipTransferred(oldOwner, newOwner) */\n      mload(0x40)\n        /* \"@openzeppelin/contracts/access/Ownable.sol\":2525:2531  _owner */\n      swap2\n      swap1\n      swap3\n      and\n      swap3\n      dup4\n      swap2\n        /* \"@openzeppelin/contracts/access/Ownable.sol\":2573:2613  OwnershipTransferred(oldOwner, newOwner) */\n      0x8be0079c531659141344cd1fd0a4f28419497f9722a3daafe3b4186f6b6457e0\n      swap2\n        /* \"@openzeppelin/contracts/access/Ownable.sol\":2506:2522  address oldOwner */\n      swap1\n        /* \"@openzeppelin/contracts/access/Ownable.sol\":2573:2613  OwnershipTransferred(oldOwner, newOwner) */\n      log3\n        /* \"@openzeppelin/contracts/access/Ownable.sol\":2496:2620  {... */\n      pop\n        /* \"@openzeppelin/contracts/access/Ownable.sol\":2433:2620  function _transferOwnership(address newOwner) internal virtual {... */\n      pop\n      jump\t// out\n    tag_72:\n      dataSize(sub_0)\n      dup1\n      dataOffset(sub_0)\n      dup4\n      codecopy\n      add\n      swap1\n      jump\t// out\n    tag_98:\n      dataSize(sub_1)\n      dup1\n      dataOffset(sub_1)\n      dup4\n      codecopy\n      add\n      swap1\n      jump\t// out\n        /* \"#utility.yul\":14:198   */\n    tag_125:\n        /* \"#utility.yul\":66:143   */\n      0x4e487b7100000000000000000000000000000000000000000000000000000000\n        /* \"#utility.yul\":63:64   */\n      0x00\n        /* \"#utility.yul\":56:144   */\n      mstore\n        /* \"#utility.yul\":163:167   */\n      0x41\n        /* \"#utility.yul\":160:161   */\n      0x04\n        /* \"#utility.yul\":153:168   */\n      mstore\n        /* \"#utility.yul\":187:191   */\n      0x24\n        /* \"#utility.yul\":184:185   */\n      0x00\n        /* \"#utility.yul\":177:192   */\n      revert\n        /* \"#utility.yul\":203:922   */\n    tag_126:\n        /* \"#utility.yul\":246:251   */\n      0x00\n        /* \"#utility.yul\":299:302   */\n      dup3\n        /* \"#utility.yul\":292:296   */\n      0x1f\n        /* \"#utility.yul\":284:290   */\n      dup4\n        /* \"#utility.yul\":280:297   */\n      add\n        /* \"#utility.yul\":276:303   */\n      slt\n        /* \"#utility.yul\":266:321   */\n      tag_136\n      jumpi\n        /* \"#utility.yul\":317:318   */\n      0x00\n        /* \"#utility.yul\":314:315   */\n      dup1\n        /* \"#utility.yul\":307:319   */\n      revert\n        /* \"#utility.yul\":266:321   */\n    tag_136:\n        /* \"#utility.yul\":353:359   */\n      dup2\n        /* \"#utility.yul\":340:360   */\n      calldataload\n        /* \"#utility.yul\":379:397   */\n      0xffffffffffffffff\n        /* \"#utility.yul\":416:418   */\n      dup1\n        /* \"#utility.yul\":412:414   */\n      dup3\n        /* \"#utility.yul\":409:419   */\n      gt\n        /* \"#utility.yul\":406:442   */\n      iszero\n      tag_138\n      jumpi\n        /* \"#utility.yul\":422:440   */\n      tag_138\n      tag_125\n      jump\t// in\n    tag_138:\n        /* \"#utility.yul\":497:499   */\n      0x40\n        /* \"#utility.yul\":491:500   */\n      mload\n        /* \"#utility.yul\":465:467   */\n      0x1f\n        /* \"#utility.yul\":551:564   */\n      dup4\n      add\n      not(0x1f)\n        /* \"#utility.yul\":547:569   */\n      swap1\n      dup2\n      and\n        /* \"#utility.yul\":571:573   */\n      0x3f\n        /* \"#utility.yul\":543:574   */\n      add\n        /* \"#utility.yul\":539:579   */\n      and\n        /* \"#utility.yul\":527:580   */\n      dup2\n      add\n      swap1\n        /* \"#utility.yul\":595:613   */\n      dup3\n      dup3\n      gt\n        /* \"#utility.yul\":615:637   */\n      dup2\n      dup4\n      lt\n        /* \"#utility.yul\":592:638   */\n      or\n        /* \"#utility.yul\":589:661   */\n      iszero\n      tag_140\n      jumpi\n        /* \"#utility.yul\":641:659   */\n      tag_140\n      tag_125\n      jump\t// in\n    tag_140:\n        /* \"#utility.yul\":681:691   */\n      dup2\n        /* \"#utility.yul\":677:679   */\n      0x40\n        /* \"#utility.yul\":670:692   */\n      mstore\n        /* \"#utility.yul\":716:718   */\n      dup4\n        /* \"#utility.yul\":708:714   */\n      dup2\n        /* \"#utility.yul\":701:719   */\n      mstore\n        /* \"#utility.yul\":762:765   */\n      dup7\n        /* \"#utility.yul\":755:759   */\n      0x20\n        /* \"#utility.yul\":750:752   */\n      dup6\n        /* \"#utility.yul\":742:748   */\n      dup9\n        /* \"#utility.yul\":738:753   */\n      add\n        /* \"#utility.yul\":734:760   */\n      add\n        /* \"#utility.yul\":731:766   */\n      gt\n        /* \"#utility.yul\":728:783   */\n      iszero\n      tag_141\n      jumpi\n        /* \"#utility.yul\":779:780   */\n      0x00\n        /* \"#utility.yul\":776:777   */\n      dup1\n        /* \"#utility.yul\":769:781   */\n      revert\n        /* \"#utility.yul\":728:783   */\n    tag_141:\n        /* \"#utility.yul\":843:845   */\n      dup4\n        /* \"#utility.yul\":836:840   */\n      0x20\n        /* \"#utility.yul\":828:834   */\n      dup8\n        /* \"#utility.yul\":824:841   */\n      add\n        /* \"#utility.yul\":817:821   */\n      0x20\n        /* \"#utility.yul\":809:815   */\n      dup4\n        /* \"#utility.yul\":805:822   */\n      add\n        /* \"#utility.yul\":792:846   */\n      calldatacopy\n        /* \"#utility.yul\":890:891   */\n      0x00\n        /* \"#utility.yul\":883:887   */\n      0x20\n        /* \"#utility.yul\":878:880   */\n      dup6\n        /* \"#utility.yul\":870:876   */\n      dup4\n        /* \"#utility.yul\":866:881   */\n      add\n        /* \"#utility.yul\":862:888   */\n      add\n        /* \"#utility.yul\":855:892   */\n      mstore\n        /* \"#utility.yul\":910:916   */\n      dup1\n        /* \"#utility.yul\":901:916   */\n      swap5\n      pop\n      pop\n      pop\n      pop\n      pop\n        /* \"#utility.yul\":203:922   */\n      swap3\n      swap2\n      pop\n      pop\n      jump\t// out\n        /* \"#utility.yul\":927:1123   */\n    tag_127:\n        /* \"#utility.yul\":995:1015   */\n      dup1\n      calldataload\n      sub(exp(0x02, 0xa0), 0x01)\n        /* \"#utility.yul\":1044:1098   */\n      dup2\n      and\n        /* \"#utility.yul\":1034:1099   */\n      dup2\n      eq\n        /* \"#utility.yul\":1024:1117   */\n      tag_143\n      jumpi\n        /* \"#utility.yul\":1113:1114   */\n      0x00\n        /* \"#utility.yul\":1110:1111   */\n      dup1\n        /* \"#utility.yul\":1103:1115   */\n      revert\n        /* \"#utility.yul\":1024:1117   */\n    tag_143:\n        /* \"#utility.yul\":927:1123   */\n      swap2\n      swap1\n      pop\n      jump\t// out\n        /* \"#utility.yul\":1128:1946   */\n    tag_22:\n        /* \"#utility.yul\":1244:1250   */\n      0x00\n        /* \"#utility.yul\":1252:1258   */\n      dup1\n        /* \"#utility.yul\":1260:1266   */\n      0x00\n        /* \"#utility.yul\":1268:1274   */\n      dup1\n        /* \"#utility.yul\":1321:1324   */\n      0x80\n        /* \"#utility.yul\":1309:1318   */\n      dup6\n        /* \"#utility.yul\":1300:1307   */\n      dup8\n        /* \"#utility.yul\":1296:1319   */\n      sub\n        /* \"#utility.yul\":1292:1325   */\n      slt\n        /* \"#utility.yul\":1289:1342   */\n      iszero\n      tag_145\n      jumpi\n        /* \"#utility.yul\":1338:1339   */\n      0x00\n        /* \"#utility.yul\":1335:1336   */\n      dup1\n        /* \"#utility.yul\":1328:1340   */\n      revert\n        /* \"#utility.yul\":1289:1342   */\n    tag_145:\n        /* \"#utility.yul\":1378:1387   */\n      dup5\n        /* \"#utility.yul\":1365:1388   */\n      calldataload\n        /* \"#utility.yul\":1407:1425   */\n      0xffffffffffffffff\n        /* \"#utility.yul\":1448:1450   */\n      dup1\n        /* \"#utility.yul\":1440:1446   */\n      dup3\n        /* \"#utility.yul\":1437:1451   */\n      gt\n        /* \"#utility.yul\":1434:1468   */\n      iszero\n      tag_146\n      jumpi\n        /* \"#utility.yul\":1464:1465   */\n      0x00\n        /* \"#utility.yul\":1461:1462   */\n      dup1\n        /* \"#utility.yul\":1454:1466   */\n      revert\n        /* \"#utility.yul\":1434:1468   */\n    tag_146:\n        /* \"#utility.yul\":1487:1537   */\n      tag_147\n        /* \"#utility.yul\":1529:1536   */\n      dup9\n        /* \"#utility.yul\":1520:1526   */\n      dup4\n        /* \"#utility.yul\":1509:1518   */\n      dup10\n        /* \"#utility.yul\":1505:1527   */\n      add\n        /* \"#utility.yul\":1487:1537   */\n      tag_126\n      jump\t// in\n    tag_147:\n        /* \"#utility.yul\":1477:1537   */\n      swap6\n      pop\n        /* \"#utility.yul\":1556:1594   */\n      tag_148\n        /* \"#utility.yul\":1590:1592   */\n      0x20\n        /* \"#utility.yul\":1579:1588   */\n      dup9\n        /* \"#utility.yul\":1575:1593   */\n      add\n        /* \"#utility.yul\":1556:1594   */\n      tag_127\n      jump\t// in\n    tag_148:\n        /* \"#utility.yul\":1546:1594   */\n      swap5\n      pop\n        /* \"#utility.yul\":1647:1649   */\n      0x40\n        /* \"#utility.yul\":1636:1645   */\n      dup8\n        /* \"#utility.yul\":1632:1650   */\n      add\n        /* \"#utility.yul\":1619:1651   */\n      calldataload\n        /* \"#utility.yul\":1603:1651   */\n      swap2\n      pop\n        /* \"#utility.yul\":1676:1678   */\n      dup1\n        /* \"#utility.yul\":1666:1674   */\n      dup3\n        /* \"#utility.yul\":1663:1679   */\n      gt\n        /* \"#utility.yul\":1660:1696   */\n      iszero\n      tag_149\n      jumpi\n        /* \"#utility.yul\":1692:1693   */\n      0x00\n        /* \"#utility.yul\":1689:1690   */\n      dup1\n        /* \"#utility.yul\":1682:1694   */\n      revert\n        /* \"#utility.yul\":1660:1696   */\n    tag_149:\n        /* \"#utility.yul\":1715:1767   */\n      tag_150\n        /* \"#utility.yul\":1759:1766   */\n      dup9\n        /* \"#utility.yul\":1748:1756   */\n      dup4\n        /* \"#utility.yul\":1737:1746   */\n      dup10\n        /* \"#utility.yul\":1733:1757   */\n      add\n        /* \"#utility.yul\":1715:1767   */\n      tag_126\n      jump\t// in\n    tag_150:\n        /* \"#utility.yul\":1705:1767   */\n      swap4\n      pop\n        /* \"#utility.yul\":1820:1822   */\n      0x60\n        /* \"#utility.yul\":1809:1818   */\n      dup8\n        /* \"#utility.yul\":1805:1823   */\n      add\n        /* \"#utility.yul\":1792:1824   */\n      calldataload\n        /* \"#utility.yul\":1776:1824   */\n      swap2\n      pop\n        /* \"#utility.yul\":1849:1851   */\n      dup1\n        /* \"#utility.yul\":1839:1847   */\n      dup3\n        /* \"#utility.yul\":1836:1852   */\n      gt\n        /* \"#utility.yul\":1833:1869   */\n      iszero\n      tag_151\n      jumpi\n        /* \"#utility.yul\":1865:1866   */\n      0x00\n        /* \"#utility.yul\":1862:1863   */\n      dup1\n        /* \"#utility.yul\":1855:1867   */\n      revert\n        /* \"#utility.yul\":1833:1869   */\n    tag_151:\n      pop\n        /* \"#utility.yul\":1888:1940   */\n      tag_152\n        /* \"#utility.yul\":1932:1939   */\n      dup8\n        /* \"#utility.yul\":1921:1929   */\n      dup3\n        /* \"#utility.yul\":1910:1919   */\n      dup9\n        /* \"#utility.yul\":1906:1930   */\n      add\n        /* \"#utility.yul\":1888:1940   */\n      tag_126\n      jump\t// in\n    tag_152:\n        /* \"#utility.yul\":1878:1940   */\n      swap2\n      pop\n      pop\n        /* \"#utility.yul\":1128:1946   */\n      swap3\n      swap6\n      swap2\n      swap5\n      pop\n      swap3\n      pop\n      jump\t// out\n        /* \"#utility.yul\":2133:2523   */\n    tag_38:\n        /* \"#utility.yul\":2211:2217   */\n      0x00\n        /* \"#utility.yul\":2219:2225   */\n      dup1\n        /* \"#utility.yul\":2272:2274   */\n      0x40\n        /* \"#utility.yul\":2260:2269   */\n      dup4\n        /* \"#utility.yul\":2251:2258   */\n      dup6\n        /* \"#utility.yul\":2247:2270   */\n      sub\n        /* \"#utility.yul\":2243:2275   */\n      slt\n        /* \"#utility.yul\":2240:2292   */\n      iszero\n      tag_155\n      jumpi\n        /* \"#utility.yul\":2288:2289   */\n      0x00\n        /* \"#utility.yul\":2285:2286   */\n      dup1\n        /* \"#utility.yul\":2278:2290   */\n      revert\n        /* \"#utility.yul\":2240:2292   */\n    tag_155:\n        /* \"#utility.yul\":2328:2337   */\n      dup3\n        /* \"#utility.yul\":2315:2338   */\n      calldataload\n        /* \"#utility.yul\":2361:2379   */\n      0xffffffffffffffff\n        /* \"#utility.yul\":2353:2359   */\n      dup2\n        /* \"#utility.yul\":2350:2380   */\n      gt\n        /* \"#utility.yul\":2347:2397   */\n      iszero\n      tag_156\n      jumpi\n        /* \"#utility.yul\":2393:2394   */\n      0x00\n        /* \"#utility.yul\":2390:2391   */\n      dup1\n        /* \"#utility.yul\":2383:2395   */\n      revert\n        /* \"#utility.yul\":2347:2397   */\n    tag_156:\n        /* \"#utility.yul\":2416:2466   */\n      tag_157\n        /* \"#utility.yul\":2458:2465   */\n      dup6\n        /* \"#utility.yul\":2449:2455   */\n      dup3\n        /* \"#utility.yul\":2438:2447   */\n      dup7\n        /* \"#utility.yul\":2434:2456   */\n      add\n        /* \"#utility.yul\":2416:2466   */\n      tag_126\n      jump\t// in\n    tag_157:\n        /* \"#utility.yul\":2406:2466   */\n      swap6\n        /* \"#utility.yul\":2513:2515   */\n      0x20\n        /* \"#utility.yul\":2498:2516   */\n      swap5\n      swap1\n      swap5\n      add\n        /* \"#utility.yul\":2485:2517   */\n      calldataload\n      swap5\n      pop\n      pop\n      pop\n      pop\n        /* \"#utility.yul\":2133:2523   */\n      jump\t// out\n        /* \"#utility.yul\":2759:3445   */\n    tag_52:\n        /* \"#utility.yul\":2865:2871   */\n      0x00\n        /* \"#utility.yul\":2873:2879   */\n      dup1\n        /* \"#utility.yul\":2881:2887   */\n      0x00\n        /* \"#utility.yul\":2889:2895   */\n      dup1\n        /* \"#utility.yul\":2942:2945   */\n      0x80\n        /* \"#utility.yul\":2930:2939   */\n      dup6\n        /* \"#utility.yul\":2921:2928   */\n      dup8\n        /* \"#utility.yul\":2917:2940   */\n      sub\n        /* \"#utility.yul\":2913:2946   */\n      slt\n        /* \"#utility.yul\":2910:2963   */\n      iszero\n      tag_160\n      jumpi\n        /* \"#utility.yul\":2959:2960   */\n      0x00\n        /* \"#utility.yul\":2956:2957   */\n      dup1\n        /* \"#utility.yul\":2949:2961   */\n      revert\n        /* \"#utility.yul\":2910:2963   */\n    tag_160:\n        /* \"#utility.yul\":2999:3008   */\n      dup5\n        /* \"#utility.yul\":2986:3009   */\n      calldataload\n        /* \"#utility.yul\":3028:3046   */\n      0xffffffffffffffff\n        /* \"#utility.yul\":3069:3071   */\n      dup1\n        /* \"#utility.yul\":3061:3067   */\n      dup3\n        /* \"#utility.yul\":3058:3072   */\n      gt\n        /* \"#utility.yul\":3055:3089   */\n      iszero\n      tag_161\n      jumpi\n        /* \"#utility.yul\":3085:3086   */\n      0x00\n        /* \"#utility.yul\":3082:3083   */\n      dup1\n        /* \"#utility.yul\":3075:3087   */\n      revert\n        /* \"#utility.yul\":3055:3089   */\n    tag_161:\n        /* \"#utility.yul\":3108:3158   */\n      tag_162\n        /* \"#utility.yul\":3150:3157   */\n      dup9\n        /* \"#utility.yul\":3141:3147   */\n      dup4\n        /* \"#utility.yul\":3130:3139   */\n      dup10\n        /* \"#utility.yul\":3126:3148   */\n      add\n        /* \"#utility.yul\":3108:3158   */\n      tag_126\n      jump\t// in\n    tag_162:\n        /* \"#utility.yul\":3098:3158   */\n      swap6\n      pop\n        /* \"#utility.yul\":3177:3215   */\n      tag_163\n        /* \"#utility.yul\":3211:3213   */\n      0x20\n        /* \"#utility.yul\":3200:3209   */\n      dup9\n        /* \"#utility.yul\":3196:3214   */\n      add\n        /* \"#utility.yul\":3177:3215   */\n      tag_127\n      jump\t// in\n    tag_163:\n        /* \"#utility.yul\":3167:3215   */\n      swap5\n      pop\n        /* \"#utility.yul\":3262:3264   */\n      0x40\n        /* \"#utility.yul\":3251:3260   */\n      dup8\n        /* \"#utility.yul\":3247:3265   */\n      add\n        /* \"#utility.yul\":3234:3266   */\n      calldataload\n        /* \"#utility.yul\":3224:3266   */\n      swap4\n      pop\n        /* \"#utility.yul\":3319:3321   */\n      0x60\n        /* \"#utility.yul\":3308:3317   */\n      dup8\n        /* \"#utility.yul\":3304:3322   */\n      add\n        /* \"#utility.yul\":3291:3323   */\n      calldataload\n        /* \"#utility.yul\":3275:3323   */\n      swap2\n      pop\n        /* \"#utility.yul\":3348:3350   */\n      dup1\n        /* \"#utility.yul\":3338:3346   */\n      dup3\n        /* \"#utility.yul\":3335:3351   */\n      gt\n        /* \"#utility.yul\":3332:3368   */\n      iszero\n      tag_151\n      jumpi\n        /* \"#utility.yul\":3364:3365   */\n      0x00\n        /* \"#utility.yul\":3361:3362   */\n      dup1\n        /* \"#utility.yul\":3354:3366   */\n      revert\n        /* \"#utility.yul\":3450:3630   */\n    tag_57:\n        /* \"#utility.yul\":3509:3515   */\n      0x00\n        /* \"#utility.yul\":3562:3564   */\n      0x20\n        /* \"#utility.yul\":3550:3559   */\n      dup3\n        /* \"#utility.yul\":3541:3548   */\n      dup5\n        /* \"#utility.yul\":3537:3560   */\n      sub\n        /* \"#utility.yul\":3533:3565   */\n      slt\n        /* \"#utility.yul\":3530:3582   */\n      iszero\n      tag_167\n      jumpi\n        /* \"#utility.yul\":3578:3579   */\n      0x00\n        /* \"#utility.yul\":3575:3576   */\n      dup1\n        /* \"#utility.yul\":3568:3580   */\n      revert\n        /* \"#utility.yul\":3530:3582   */\n    tag_167:\n      pop\n        /* \"#utility.yul\":3601:3624   */\n      calldataload\n      swap2\n        /* \"#utility.yul\":3450:3630   */\n      swap1\n      pop\n      jump\t// out\n        /* \"#utility.yul\":3635:3821   */\n    tag_65:\n        /* \"#utility.yul\":3694:3700   */\n      0x00\n        /* \"#utility.yul\":3747:3749   */\n      0x20\n        /* \"#utility.yul\":3735:3744   */\n      dup3\n        /* \"#utility.yul\":3726:3733   */\n      dup5\n        /* \"#utility.yul\":3722:3745   */\n      sub\n        /* \"#utility.yul\":3718:3750   */\n      slt\n        /* \"#utility.yul\":3715:3767   */\n      iszero\n      tag_169\n      jumpi\n        /* \"#utility.yul\":3763:3764   */\n      0x00\n        /* \"#utility.yul\":3760:3761   */\n      dup1\n        /* \"#utility.yul\":3753:3765   */\n      revert\n        /* \"#utility.yul\":3715:3767   */\n    tag_169:\n        /* \"#utility.yul\":3786:3815   */\n      tag_170\n        /* \"#utility.yul\":3805:3814   */\n      dup3\n        /* \"#utility.yul\":3786:3815   */\n      tag_127\n      jump\t// in\n    tag_170:\n        /* \"#utility.yul\":3776:3815   */\n      swap4\n        /* \"#utility.yul\":3635:3821   */\n      swap3\n      pop\n      pop\n      pop\n      jump\t// out\n        /* \"#utility.yul\":3826:4249   */\n    tag_128:\n        /* \"#utility.yul\":3868:3871   */\n      0x00\n        /* \"#utility.yul\":3906:3911   */\n      dup2\n        /* \"#utility.yul\":3900:3912   */\n      mload\n        /* \"#utility.yul\":3933:3939   */\n      dup1\n        /* \"#utility.yul\":3928:3931   */\n      dup5\n        /* \"#utility.yul\":3921:3940   */\n      mstore\n        /* \"#utility.yul\":3958:3959   */\n      0x00\n        /* \"#utility.yul\":3968:4130   */\n    tag_172:\n        /* \"#utility.yul\":3982:3988   */\n      dup2\n        /* \"#utility.yul\":3979:3980   */\n      dup2\n        /* \"#utility.yul\":3976:3989   */\n      lt\n        /* \"#utility.yul\":3968:4130   */\n      iszero\n      tag_174\n      jumpi\n        /* \"#utility.yul\":4044:4048   */\n      0x20\n        /* \"#utility.yul\":4100:4113   */\n      dup2\n      dup6\n      add\n        /* \"#utility.yul\":4096:4118   */\n      dup2\n      add\n        /* \"#utility.yul\":4090:4119   */\n      mload\n        /* \"#utility.yul\":4072:4083   */\n      dup7\n      dup4\n      add\n        /* \"#utility.yul\":4068:4088   */\n      dup3\n      add\n        /* \"#utility.yul\":4061:4120   */\n      mstore\n        /* \"#utility.yul\":3997:4009   */\n      add\n        /* \"#utility.yul\":3968:4130   */\n      jump(tag_172)\n    tag_174:\n        /* \"#utility.yul\":3972:3975   */\n      pop\n        /* \"#utility.yul\":4175:4176   */\n      0x00\n        /* \"#utility.yul\":4168:4172   */\n      0x20\n        /* \"#utility.yul\":4159:4165   */\n      dup3\n        /* \"#utility.yul\":4154:4157   */\n      dup7\n        /* \"#utility.yul\":4150:4166   */\n      add\n        /* \"#utility.yul\":4146:4173   */\n      add\n        /* \"#utility.yul\":4139:4177   */\n      mstore\n        /* \"#utility.yul\":4238:4242   */\n      0x20\n        /* \"#utility.yul\":4231:4233   */\n      0x1f\n        /* \"#utility.yul\":4227:4234   */\n      not\n        /* \"#utility.yul\":4222:4224   */\n      0x1f\n        /* \"#utility.yul\":4214:4220   */\n      dup4\n        /* \"#utility.yul\":4210:4225   */\n      add\n        /* \"#utility.yul\":4206:4235   */\n      and\n        /* \"#utility.yul\":4201:4204   */\n      dup6\n        /* \"#utility.yul\":4197:4236   */\n      add\n        /* \"#utility.yul\":4193:4243   */\n      add\n        /* \"#utility.yul\":4186:4243   */\n      swap2\n      pop\n      pop\n        /* \"#utility.yul\":3826:4249   */\n      swap3\n      swap2\n      pop\n      pop\n      jump\t// out\n        /* \"#utility.yul\":4254:4922   */\n    tag_74:\n        /* \"#utility.yul\":4527:4530   */\n      0x80\n        /* \"#utility.yul\":4516:4525   */\n      dup2\n        /* \"#utility.yul\":4509:4531   */\n      mstore\n        /* \"#utility.yul\":4490:4494   */\n      0x00\n        /* \"#utility.yul\":4554:4600   */\n      tag_176\n        /* \"#utility.yul\":4595:4598   */\n      0x80\n        /* \"#utility.yul\":4584:4593   */\n      dup4\n        /* \"#utility.yul\":4580:4599   */\n      add\n        /* \"#utility.yul\":4572:4578   */\n      dup8\n        /* \"#utility.yul\":4554:4600   */\n      tag_128\n      jump\t// in\n    tag_176:\n      sub(exp(0x02, 0xa0), 0x01)\n        /* \"#utility.yul\":4640:4646   */\n      dup7\n        /* \"#utility.yul\":4636:4691   */\n      and\n        /* \"#utility.yul\":4631:4633   */\n      0x20\n        /* \"#utility.yul\":4620:4629   */\n      dup5\n        /* \"#utility.yul\":4616:4634   */\n      add\n        /* \"#utility.yul\":4609:4692   */\n      mstore\n        /* \"#utility.yul\":4740:4749   */\n      dup3\n        /* \"#utility.yul\":4732:4738   */\n      dup2\n        /* \"#utility.yul\":4728:4750   */\n      sub\n        /* \"#utility.yul\":4723:4725   */\n      0x40\n        /* \"#utility.yul\":4712:4721   */\n      dup5\n        /* \"#utility.yul\":4708:4726   */\n      add\n        /* \"#utility.yul\":4701:4751   */\n      mstore\n        /* \"#utility.yul\":4774:4807   */\n      tag_177\n        /* \"#utility.yul\":4800:4806   */\n      dup2\n        /* \"#utility.yul\":4792:4798   */\n      dup7\n        /* \"#utility.yul\":4774:4807   */\n      tag_128\n      jump\t// in\n    tag_177:\n        /* \"#utility.yul\":4760:4807   */\n      swap1\n      pop\n        /* \"#utility.yul\":4855:4864   */\n      dup3\n        /* \"#utility.yul\":4847:4853   */\n      dup2\n        /* \"#utility.yul\":4843:4865   */\n      sub\n        /* \"#utility.yul\":4838:4840   */\n      0x60\n        /* \"#utility.yul\":4827:4836   */\n      dup5\n        /* \"#utility.yul\":4823:4841   */\n      add\n        /* \"#utility.yul\":4816:4866   */\n      mstore\n        /* \"#utility.yul\":4883:4916   */\n      tag_178\n        /* \"#utility.yul\":4909:4915   */\n      dup2\n        /* \"#utility.yul\":4901:4907   */\n      dup6\n        /* \"#utility.yul\":4883:4916   */\n      tag_128\n      jump\t// in\n    tag_178:\n        /* \"#utility.yul\":4875:4916   */\n      swap8\n        /* \"#utility.yul\":4254:4922   */\n      swap7\n      pop\n      pop\n      pop\n      pop\n      pop\n      pop\n      pop\n      jump\t// out\n        /* \"#utility.yul\":4927:5364   */\n    tag_129:\n        /* \"#utility.yul\":5012:5013   */\n      0x02\n        /* \"#utility.yul\":5002:5014   */\n      dup2\n      div\n        /* \"#utility.yul\":5059:5060   */\n      0x01\n        /* \"#utility.yul\":5049:5061   */\n      dup3\n      and\n      dup1\n        /* \"#utility.yul\":5070:5131   */\n      tag_180\n      jumpi\n        /* \"#utility.yul\":5124:5128   */\n      0x7f\n        /* \"#utility.yul\":5116:5122   */\n      dup3\n        /* \"#utility.yul\":5112:5129   */\n      and\n        /* \"#utility.yul\":5102:5129   */\n      swap2\n      pop\n        /* \"#utility.yul\":5070:5131   */\n    tag_180:\n        /* \"#utility.yul\":5177:5179   */\n      0x20\n        /* \"#utility.yul\":5169:5175   */\n      dup3\n        /* \"#utility.yul\":5166:5180   */\n      lt\n        /* \"#utility.yul\":5146:5164   */\n      dup2\n        /* \"#utility.yul\":5143:5181   */\n      sub\n        /* \"#utility.yul\":5140:5358   */\n      tag_181\n      jumpi\n        /* \"#utility.yul\":5214:5291   */\n      0x4e487b7100000000000000000000000000000000000000000000000000000000\n        /* \"#utility.yul\":5211:5212   */\n      0x00\n        /* \"#utility.yul\":5204:5292   */\n      mstore\n        /* \"#utility.yul\":5315:5319   */\n      0x22\n        /* \"#utility.yul\":5312:5313   */\n      0x04\n        /* \"#utility.yul\":5305:5320   */\n      mstore\n        /* \"#utility.yul\":5343:5347   */\n      0x24\n        /* \"#utility.yul\":5340:5341   */\n      0x00\n        /* \"#utility.yul\":5333:5348   */\n      revert\n        /* \"#utility.yul\":5140:5358   */\n    tag_181:\n      pop\n        /* \"#utility.yul\":4927:5364   */\n      swap2\n      swap1\n      pop\n      jump\t// out\n        /* \"#utility.yul\":5495:6046   */\n    tag_131:\n        /* \"#utility.yul\":5597:5599   */\n      0x1f\n        /* \"#utility.yul\":5592:5595   */\n      dup3\n        /* \"#utility.yul\":5589:5600   */\n      gt\n        /* \"#utility.yul\":5586:6040   */\n      iszero\n      tag_184\n      jumpi\n        /* \"#utility.yul\":5633:5634   */\n      0x00\n        /* \"#utility.yul\":5658:5663   */\n      dup2\n        /* \"#utility.yul\":5654:5656   */\n      dup2\n        /* \"#utility.yul\":5647:5664   */\n      mstore\n        /* \"#utility.yul\":5703:5707   */\n      0x20\n        /* \"#utility.yul\":5699:5701   */\n      dup2\n        /* \"#utility.yul\":5689:5708   */\n      keccak256\n        /* \"#utility.yul\":5775:5779   */\n      0x20\n        /* \"#utility.yul\":5770:5772   */\n      0x1f\n        /* \"#utility.yul\":5758:5768   */\n      dup7\n        /* \"#utility.yul\":5754:5773   */\n      add\n        /* \"#utility.yul\":5750:5780   */\n      div\n        /* \"#utility.yul\":5744:5748   */\n      dup2\n        /* \"#utility.yul\":5740:5781   */\n      add\n        /* \"#utility.yul\":5812:5816   */\n      0x20\n        /* \"#utility.yul\":5800:5810   */\n      dup7\n        /* \"#utility.yul\":5797:5817   */\n      lt\n        /* \"#utility.yul\":5794:5841   */\n      iszero\n      tag_185\n      jumpi\n      pop\n        /* \"#utility.yul\":5835:5839   */\n      dup1\n        /* \"#utility.yul\":5794:5841   */\n    tag_185:\n        /* \"#utility.yul\":5892:5896   */\n      0x20\n        /* \"#utility.yul\":5887:5889   */\n      0x1f\n        /* \"#utility.yul\":5882:5885   */\n      dup7\n        /* \"#utility.yul\":5878:5890   */\n      add\n        /* \"#utility.yul\":5874:5897   */\n      div\n        /* \"#utility.yul\":5868:5872   */\n      dup3\n        /* \"#utility.yul\":5864:5898   */\n      add\n        /* \"#utility.yul\":5854:5898   */\n      swap2\n      pop\n        /* \"#utility.yul\":5948:6030   */\n    tag_186:\n        /* \"#utility.yul\":5966:5968   */\n      dup2\n        /* \"#utility.yul\":5959:5964   */\n      dup2\n        /* \"#utility.yul\":5956:5969   */\n      lt\n        /* \"#utility.yul\":5948:6030   */\n      iszero\n      tag_188\n      jumpi\n        /* \"#utility.yul\":6011:6028   */\n      dup3\n      dup2\n      sstore\n        /* \"#utility.yul\":5992:5993   */\n      0x01\n        /* \"#utility.yul\":5981:5994   */\n      add\n        /* \"#utility.yul\":5948:6030   */\n      jump(tag_186)\n    tag_188:\n        /* \"#utility.yul\":5952:5955   */\n      pop\n      pop\n      pop\n        /* \"#utility.yul\":5586:6040   */\n    tag_184:\n        /* \"#utility.yul\":5495:6046   */\n      pop\n      pop\n      pop\n      jump\t// out\n        /* \"#utility.yul\":6230:7589   */\n    tag_91:\n        /* \"#utility.yul\":6356:6359   */\n      dup2\n        /* \"#utility.yul\":6350:6360   */\n      mload\n        /* \"#utility.yul\":6383:6401   */\n      0xffffffffffffffff\n        /* \"#utility.yul\":6375:6381   */\n      dup2\n        /* \"#utility.yul\":6372:6402   */\n      gt\n        /* \"#utility.yul\":6369:6425   */\n      iszero\n      tag_192\n      jumpi\n        /* \"#utility.yul\":6405:6423   */\n      tag_192\n      tag_125\n      jump\t// in\n    tag_192:\n        /* \"#utility.yul\":6434:6531   */\n      tag_193\n        /* \"#utility.yul\":6524:6530   */\n      dup2\n        /* \"#utility.yul\":6484:6522   */\n      tag_194\n        /* \"#utility.yul\":6516:6520   */\n      dup5\n        /* \"#utility.yul\":6510:6521   */\n      sload\n        /* \"#utility.yul\":6484:6522   */\n      tag_129\n      jump\t// in\n    tag_194:\n        /* \"#utility.yul\":6478:6482   */\n      dup5\n        /* \"#utility.yul\":6434:6531   */\n      tag_131\n      jump\t// in\n    tag_193:\n        /* \"#utility.yul\":6586:6590   */\n      0x20\n      dup1\n        /* \"#utility.yul\":6650:6652   */\n      0x1f\n        /* \"#utility.yul\":6639:6653   */\n      dup4\n      gt\n        /* \"#utility.yul\":6667:6668   */\n      0x01\n        /* \"#utility.yul\":6662:7332   */\n      dup2\n      eq\n      tag_196\n      jumpi\n        /* \"#utility.yul\":7376:7377   */\n      0x00\n        /* \"#utility.yul\":7393:7399   */\n      dup5\n        /* \"#utility.yul\":7390:7479   */\n      iszero\n      tag_197\n      jumpi\n      pop\n        /* \"#utility.yul\":7445:7464   */\n      dup6\n      dup4\n      add\n        /* \"#utility.yul\":7439:7465   */\n      mload\n        /* \"#utility.yul\":7390:7479   */\n    tag_197:\n        /* \"#utility.yul\":6211:6212   */\n      0x02\n        /* \"#utility.yul\":6207:6218   */\n      dup1\n      dup7\n      mul\n        /* \"#utility.yul\":6194:6195   */\n      0x08\n        /* \"#utility.yul\":6190:6201   */\n      dup8\n      mul\n        /* \"#utility.yul\":6183:6202   */\n      swap1\n      swap2\n      exp\n      not(0x00)\n        /* \"#utility.yul\":6171:6203   */\n      div\n        /* \"#utility.yul\":6167:6204   */\n      not\n        /* \"#utility.yul\":6157:6205   */\n      dup3\n      and\n        /* \"#utility.yul\":6154:6219   */\n      or\n        /* \"#utility.yul\":7499:7503   */\n      dup7\n        /* \"#utility.yul\":7492:7573   */\n      sstore\n      pop\n        /* \"#utility.yul\":6632:7583   */\n      jump(tag_188)\n        /* \"#utility.yul\":6662:7332   */\n    tag_196:\n        /* \"#utility.yul\":5442:5443   */\n      0x00\n        /* \"#utility.yul\":5435:5449   */\n      dup6\n      dup2\n      mstore\n        /* \"#utility.yul\":5479:5483   */\n      0x20\n        /* \"#utility.yul\":5466:5484   */\n      dup2\n      keccak256\n      not(0x1f)\n        /* \"#utility.yul\":6698:6718   */\n      dup7\n      and\n      swap2\n        /* \"#utility.yul\":6816:7052   */\n    tag_200:\n        /* \"#utility.yul\":6830:6837   */\n      dup3\n        /* \"#utility.yul\":6827:6828   */\n      dup2\n        /* \"#utility.yul\":6824:6838   */\n      lt\n        /* \"#utility.yul\":6816:7052   */\n      iszero\n      tag_202\n      jumpi\n        /* \"#utility.yul\":6919:6938   */\n      dup9\n      dup7\n      add\n        /* \"#utility.yul\":6913:6939   */\n      mload\n        /* \"#utility.yul\":6898:6940   */\n      dup3\n      sstore\n        /* \"#utility.yul\":7011:7038   */\n      swap5\n      dup5\n      add\n      swap5\n        /* \"#utility.yul\":6979:6980   */\n      0x01\n        /* \"#utility.yul\":6967:6981   */\n      swap1\n      swap2\n      add\n      swap1\n        /* \"#utility.yul\":6846:6865   */\n      dup5\n      add\n        /* \"#utility.yul\":6816:7052   */\n      jump(tag_200)\n    tag_202:\n        /* \"#utility.yul\":6820:6823   */\n      pop\n        /* \"#utility.yul\":7080:7086   */\n      dup6\n        /* \"#utility.yul\":7071:7078   */\n      dup3\n        /* \"#utility.yul\":7068:7087   */\n      lt\n        /* \"#utility.yul\":7065:7273   */\n      iszero\n      tag_203\n      jumpi\n        /* \"#utility.yul\":7141:7160   */\n      dup8\n      dup6\n      add\n        /* \"#utility.yul\":7135:7161   */\n      mload\n        /* \"#utility.yul\":7235:7236   */\n      0x08\n        /* \"#utility.yul\":7250:7252   */\n      0x1f\n        /* \"#utility.yul\":7238:7253   */\n      dup9\n      and\n        /* \"#utility.yul\":7231:7254   */\n      mul\n        /* \"#utility.yul\":7228:7229   */\n      0x02\n        /* \"#utility.yul\":7224:7255   */\n      exp\n      not(0x00)\n        /* \"#utility.yul\":7212:7256   */\n      div\n        /* \"#utility.yul\":7208:7257   */\n      not\n        /* \"#utility.yul\":7193:7258   */\n      and\n        /* \"#utility.yul\":7178:7259   */\n      dup2\n      sstore\n        /* \"#utility.yul\":7065:7273   */\n    tag_203:\n      pop\n      pop\n      pop\n      pop\n      pop\n        /* \"#utility.yul\":7315:7316   */\n      0x02\n        /* \"#utility.yul\":7303:7317   */\n      mul\n        /* \"#utility.yul\":7319:7320   */\n      0x01\n        /* \"#utility.yul\":7299:7321   */\n      add\n        /* \"#utility.yul\":7286:7322   */\n      swap1\n      sstore\n      pop\n        /* \"#utility.yul\":6230:7589   */\n      jump\t// out\n        /* \"#utility.yul\":7594:8272   */\n    tag_100:\n        /* \"#utility.yul\":7875:7878   */\n      0xa0\n        /* \"#utility.yul\":7864:7873   */\n      dup2\n        /* \"#utility.yul\":7857:7879   */\n      mstore\n        /* \"#utility.yul\":7838:7842   */\n      0x00\n        /* \"#utility.yul\":7902:7948   */\n      tag_205\n        /* \"#utility.yul\":7943:7946   */\n      0xa0\n        /* \"#utility.yul\":7932:7941   */\n      dup4\n        /* \"#utility.yul\":7928:7947   */\n      add\n        /* \"#utility.yul\":7920:7926   */\n      dup9\n        /* \"#utility.yul\":7902:7948   */\n      tag_128\n      jump\t// in\n    tag_205:\n      sub(exp(0x02, 0xa0), 0x01)\n        /* \"#utility.yul\":8057:8059   */\n      dup1\n        /* \"#utility.yul\":8049:8055   */\n      dup9\n        /* \"#utility.yul\":8045:8060   */\n      and\n        /* \"#utility.yul\":8040:8042   */\n      0x20\n        /* \"#utility.yul\":8029:8038   */\n      dup6\n        /* \"#utility.yul\":8025:8043   */\n      add\n        /* \"#utility.yul\":8018:8061   */\n      mstore\n        /* \"#utility.yul\":8097:8103   */\n      dup7\n        /* \"#utility.yul\":8092:8094   */\n      0x40\n        /* \"#utility.yul\":8081:8090   */\n      dup6\n        /* \"#utility.yul\":8077:8095   */\n      add\n        /* \"#utility.yul\":8070:8104   */\n      mstore\n        /* \"#utility.yul\":8152:8161   */\n      dup4\n        /* \"#utility.yul\":8144:8150   */\n      dup3\n        /* \"#utility.yul\":8140:8162   */\n      sub\n        /* \"#utility.yul\":8135:8137   */\n      0x60\n        /* \"#utility.yul\":8124:8133   */\n      dup6\n        /* \"#utility.yul\":8120:8138   */\n      add\n        /* \"#utility.yul\":8113:8163   */\n      mstore\n        /* \"#utility.yul\":8180:8213   */\n      tag_206\n        /* \"#utility.yul\":8206:8212   */\n      dup3\n        /* \"#utility.yul\":8198:8204   */\n      dup8\n        /* \"#utility.yul\":8180:8213   */\n      tag_128\n      jump\t// in\n    tag_206:\n        /* \"#utility.yul\":8172:8213   */\n      swap3\n      pop\n        /* \"#utility.yul\":8262:8264   */\n      dup1\n        /* \"#utility.yul\":8254:8260   */\n      dup6\n        /* \"#utility.yul\":8250:8265   */\n      and\n        /* \"#utility.yul\":8244:8247   */\n      0x80\n        /* \"#utility.yul\":8233:8242   */\n      dup6\n        /* \"#utility.yul\":8229:8248   */\n      add\n        /* \"#utility.yul\":8222:8266   */\n      mstore\n      pop\n      pop\n        /* \"#utility.yul\":7594:8272   */\n      swap7\n      swap6\n      pop\n      pop\n      pop\n      pop\n      pop\n      pop\n      jump\t// out\n    stop\n\n    sub_0: assembly {\n            /* \"contracts/Employee.sol\":91:466  contract Employee is BaseUser {... */\n          mstore(0x40, 0x80)\n            /* \"contracts/Employee.sol\":194:461  constructor(... */\n          callvalue\n          dup1\n          iszero\n          tag_1\n          jumpi\n          0x00\n          dup1\n          revert\n        tag_1:\n          pop\n          mload(0x40)\n          sub(codesize, bytecodeSize)\n          dup1\n          bytecodeSize\n          dup4\n          codecopy\n          dup2\n          add\n          0x40\n          dup2\n          swap1\n          mstore\n          tag_2\n          swap2\n          tag_3\n          jump\t// in\n        tag_2:\n            /* \"contracts/Employee.sol\":362:369  newName */\n          dup4\n            /* \"contracts/Employee.sol\":371:381  newAddress */\n          dup4\n            /* \"contracts/BaseUser.sol\":219:223  name */\n          0x00\n            /* \"contracts/BaseUser.sol\":219:233  name = newName */\n          tag_7\n            /* \"contracts/Employee.sol\":362:369  newName */\n          dup4\n            /* \"contracts/BaseUser.sol\":219:223  name */\n          dup3\n            /* \"contracts/BaseUser.sol\":219:233  name = newName */\n          tag_8\n          jump\t// in\n        tag_7:\n          pop\n            /* \"contracts/BaseUser.sol\":244:259  withdrawAddress */\n          0x01\n            /* \"contracts/BaseUser.sol\":244:272  withdrawAddress = newAddress */\n          dup1\n          sload\n          not(sub(exp(0x02, 0xa0), 0x01))\n          and\n          sub(exp(0x02, 0xa0), 0x01)\n          swap3\n          swap1\n          swap3\n          and\n          swap2\n          swap1\n          swap2\n          or\n          swap1\n          sstore\n          pop\n            /* \"contracts/Employee.sol\":394:404  profession */\n          0x02\n            /* \"contracts/Employee.sol\":394:420  profession = newProfession */\n          tag_10\n            /* \"contracts/Employee.sol\":407:420  newProfession */\n          dup4\n            /* \"contracts/Employee.sol\":394:404  profession */\n          dup3\n            /* \"contracts/Employee.sol\":394:420  profession = newProfession */\n          tag_8\n          jump\t// in\n        tag_10:\n          pop\n            /* \"contracts/Employee.sol\":431:439  schedule */\n          0x03\n            /* \"contracts/Employee.sol\":431:453  schedule = newSchedule */\n          tag_11\n            /* \"contracts/Employee.sol\":442:453  newSchedule */\n          dup3\n            /* \"contracts/Employee.sol\":431:439  schedule */\n          dup3\n            /* \"contracts/Employee.sol\":431:453  schedule = newSchedule */\n          tag_8\n          jump\t// in\n        tag_11:\n          pop\n            /* \"contracts/Employee.sol\":194:461  constructor(... */\n          pop\n          pop\n          pop\n          pop\n            /* \"contracts/Employee.sol\":91:466  contract Employee is BaseUser {... */\n          jump(tag_19)\n            /* \"#utility.yul\":14:198   */\n        tag_13:\n            /* \"#utility.yul\":66:143   */\n          0x4e487b7100000000000000000000000000000000000000000000000000000000\n            /* \"#utility.yul\":63:64   */\n          0x00\n            /* \"#utility.yul\":56:144   */\n          mstore\n            /* \"#utility.yul\":163:167   */\n          0x41\n            /* \"#utility.yul\":160:161   */\n          0x04\n            /* \"#utility.yul\":153:168   */\n          mstore\n            /* \"#utility.yul\":187:191   */\n          0x24\n            /* \"#utility.yul\":184:185   */\n          0x00\n            /* \"#utility.yul\":177:192   */\n          revert\n            /* \"#utility.yul\":203:1043   */\n        tag_14:\n            /* \"#utility.yul\":257:262   */\n          0x00\n            /* \"#utility.yul\":310:313   */\n          dup3\n            /* \"#utility.yul\":303:307   */\n          0x1f\n            /* \"#utility.yul\":295:301   */\n          dup4\n            /* \"#utility.yul\":291:308   */\n          add\n            /* \"#utility.yul\":287:314   */\n          slt\n            /* \"#utility.yul\":277:332   */\n          tag_22\n          jumpi\n            /* \"#utility.yul\":328:329   */\n          0x00\n            /* \"#utility.yul\":325:326   */\n          dup1\n            /* \"#utility.yul\":318:330   */\n          revert\n            /* \"#utility.yul\":277:332   */\n        tag_22:\n            /* \"#utility.yul\":357:363   */\n          dup2\n            /* \"#utility.yul\":351:364   */\n          mload\n          sub(exp(0x02, 0x40), 0x01)\n            /* \"#utility.yul\":420:422   */\n          dup1\n            /* \"#utility.yul\":416:418   */\n          dup3\n            /* \"#utility.yul\":413:423   */\n          gt\n            /* \"#utility.yul\":410:446   */\n          iszero\n          tag_24\n          jumpi\n            /* \"#utility.yul\":426:444   */\n          tag_24\n          tag_13\n          jump\t// in\n        tag_24:\n            /* \"#utility.yul\":501:503   */\n          0x40\n            /* \"#utility.yul\":495:504   */\n          mload\n            /* \"#utility.yul\":469:471   */\n          0x1f\n            /* \"#utility.yul\":555:568   */\n          dup4\n          add\n          not(0x1f)\n            /* \"#utility.yul\":551:573   */\n          swap1\n          dup2\n          and\n            /* \"#utility.yul\":575:577   */\n          0x3f\n            /* \"#utility.yul\":547:578   */\n          add\n            /* \"#utility.yul\":543:583   */\n          and\n            /* \"#utility.yul\":531:584   */\n          dup2\n          add\n          swap1\n            /* \"#utility.yul\":599:617   */\n          dup3\n          dup3\n          gt\n            /* \"#utility.yul\":619:641   */\n          dup2\n          dup4\n          lt\n            /* \"#utility.yul\":596:642   */\n          or\n            /* \"#utility.yul\":593:665   */\n          iszero\n          tag_26\n          jumpi\n            /* \"#utility.yul\":645:663   */\n          tag_26\n          tag_13\n          jump\t// in\n        tag_26:\n            /* \"#utility.yul\":685:695   */\n          dup2\n            /* \"#utility.yul\":681:683   */\n          0x40\n            /* \"#utility.yul\":674:696   */\n          mstore\n            /* \"#utility.yul\":720:722   */\n          dup4\n            /* \"#utility.yul\":712:718   */\n          dup2\n            /* \"#utility.yul\":705:723   */\n          mstore\n            /* \"#utility.yul\":742:746   */\n          0x20\n            /* \"#utility.yul\":732:746   */\n          swap3\n          pop\n            /* \"#utility.yul\":787:790   */\n          dup7\n            /* \"#utility.yul\":782:784   */\n          dup4\n            /* \"#utility.yul\":777:779   */\n          dup6\n            /* \"#utility.yul\":769:775   */\n          dup9\n            /* \"#utility.yul\":765:780   */\n          add\n            /* \"#utility.yul\":761:785   */\n          add\n            /* \"#utility.yul\":758:791   */\n          gt\n            /* \"#utility.yul\":755:808   */\n          iszero\n          tag_27\n          jumpi\n            /* \"#utility.yul\":804:805   */\n          0x00\n            /* \"#utility.yul\":801:802   */\n          dup1\n            /* \"#utility.yul\":794:806   */\n          revert\n            /* \"#utility.yul\":755:808   */\n        tag_27:\n            /* \"#utility.yul\":826:827   */\n          0x00\n            /* \"#utility.yul\":817:827   */\n          swap2\n          pop\n            /* \"#utility.yul\":836:969   */\n        tag_28:\n            /* \"#utility.yul\":850:852   */\n          dup4\n            /* \"#utility.yul\":847:848   */\n          dup3\n            /* \"#utility.yul\":844:853   */\n          lt\n            /* \"#utility.yul\":836:969   */\n          iszero\n          tag_30\n          jumpi\n            /* \"#utility.yul\":938:952   */\n          dup6\n          dup3\n          add\n            /* \"#utility.yul\":934:957   */\n          dup4\n          add\n            /* \"#utility.yul\":928:958   */\n          mload\n            /* \"#utility.yul\":907:921   */\n          dup2\n          dup4\n          add\n            /* \"#utility.yul\":903:926   */\n          dup5\n          add\n            /* \"#utility.yul\":896:959   */\n          mstore\n            /* \"#utility.yul\":861:871   */\n          swap1\n          dup3\n          add\n          swap1\n            /* \"#utility.yul\":836:969   */\n          jump(tag_28)\n        tag_30:\n            /* \"#utility.yul\":1011:1012   */\n          0x00\n            /* \"#utility.yul\":989:1004   */\n          swap4\n          dup2\n          add\n            /* \"#utility.yul\":985:1009   */\n          swap1\n          swap3\n          add\n            /* \"#utility.yul\":978:1013   */\n          swap3\n          swap1\n          swap3\n          mstore\n            /* \"#utility.yul\":993:999   */\n          swap5\n            /* \"#utility.yul\":203:1043   */\n          swap4\n          pop\n          pop\n          pop\n          pop\n          jump\t// out\n            /* \"#utility.yul\":1048:1982   */\n        tag_3:\n            /* \"#utility.yul\":1175:1181   */\n          0x00\n            /* \"#utility.yul\":1183:1189   */\n          dup1\n            /* \"#utility.yul\":1191:1197   */\n          0x00\n            /* \"#utility.yul\":1199:1205   */\n          dup1\n            /* \"#utility.yul\":1252:1255   */\n          0x80\n            /* \"#utility.yul\":1240:1249   */\n          dup6\n            /* \"#utility.yul\":1231:1238   */\n          dup8\n            /* \"#utility.yul\":1227:1250   */\n          sub\n            /* \"#utility.yul\":1223:1256   */\n          slt\n            /* \"#utility.yul\":1220:1273   */\n          iszero\n          tag_32\n          jumpi\n            /* \"#utility.yul\":1269:1270   */\n          0x00\n            /* \"#utility.yul\":1266:1267   */\n          dup1\n            /* \"#utility.yul\":1259:1271   */\n          revert\n            /* \"#utility.yul\":1220:1273   */\n        tag_32:\n            /* \"#utility.yul\":1302:1311   */\n          dup5\n            /* \"#utility.yul\":1296:1312   */\n          mload\n          sub(exp(0x02, 0x40), 0x01)\n            /* \"#utility.yul\":1372:1374   */\n          dup1\n            /* \"#utility.yul\":1364:1370   */\n          dup3\n            /* \"#utility.yul\":1361:1375   */\n          gt\n            /* \"#utility.yul\":1358:1392   */\n          iszero\n          tag_33\n          jumpi\n            /* \"#utility.yul\":1388:1389   */\n          0x00\n            /* \"#utility.yul\":1385:1386   */\n          dup1\n            /* \"#utility.yul\":1378:1390   */\n          revert\n            /* \"#utility.yul\":1358:1392   */\n        tag_33:\n            /* \"#utility.yul\":1411:1472   */\n          tag_34\n            /* \"#utility.yul\":1464:1471   */\n          dup9\n            /* \"#utility.yul\":1455:1461   */\n          dup4\n            /* \"#utility.yul\":1444:1453   */\n          dup10\n            /* \"#utility.yul\":1440:1462   */\n          add\n            /* \"#utility.yul\":1411:1472   */\n          tag_14\n          jump\t// in\n        tag_34:\n            /* \"#utility.yul\":1515:1517   */\n          0x20\n            /* \"#utility.yul\":1500:1518   */\n          dup9\n          add\n            /* \"#utility.yul\":1494:1519   */\n          mload\n            /* \"#utility.yul\":1401:1472   */\n          swap1\n          swap7\n          pop\n            /* \"#utility.yul\":1494:1519   */\n          swap2\n          pop\n          sub(exp(0x02, 0xa0), 0x01)\n            /* \"#utility.yul\":1548:1579   */\n          dup3\n          and\n            /* \"#utility.yul\":1538:1580   */\n          dup3\n          eq\n            /* \"#utility.yul\":1528:1598   */\n          tag_35\n          jumpi\n            /* \"#utility.yul\":1594:1595   */\n          0x00\n            /* \"#utility.yul\":1591:1592   */\n          dup1\n            /* \"#utility.yul\":1584:1596   */\n          revert\n            /* \"#utility.yul\":1528:1598   */\n        tag_35:\n            /* \"#utility.yul\":1668:1670   */\n          0x40\n            /* \"#utility.yul\":1653:1671   */\n          dup8\n          add\n            /* \"#utility.yul\":1647:1672   */\n          mload\n            /* \"#utility.yul\":1617:1622   */\n          swap2\n          swap5\n          pop\n            /* \"#utility.yul\":1684:1700   */\n          dup1\n          dup3\n          gt\n            /* \"#utility.yul\":1681:1717   */\n          iszero\n          tag_36\n          jumpi\n            /* \"#utility.yul\":1713:1714   */\n          0x00\n            /* \"#utility.yul\":1710:1711   */\n          dup1\n            /* \"#utility.yul\":1703:1715   */\n          revert\n            /* \"#utility.yul\":1681:1717   */\n        tag_36:\n            /* \"#utility.yul\":1736:1799   */\n          tag_37\n            /* \"#utility.yul\":1791:1798   */\n          dup9\n            /* \"#utility.yul\":1780:1788   */\n          dup4\n            /* \"#utility.yul\":1769:1778   */\n          dup10\n            /* \"#utility.yul\":1765:1789   */\n          add\n            /* \"#utility.yul\":1736:1799   */\n          tag_14\n          jump\t// in\n        tag_37:\n            /* \"#utility.yul\":1726:1799   */\n          swap4\n          pop\n            /* \"#utility.yul\":1845:1847   */\n          0x60\n            /* \"#utility.yul\":1834:1843   */\n          dup8\n            /* \"#utility.yul\":1830:1848   */\n          add\n            /* \"#utility.yul\":1824:1849   */\n          mload\n            /* \"#utility.yul\":1808:1849   */\n          swap2\n          pop\n            /* \"#utility.yul\":1874:1876   */\n          dup1\n            /* \"#utility.yul\":1864:1872   */\n          dup3\n            /* \"#utility.yul\":1861:1877   */\n          gt\n            /* \"#utility.yul\":1858:1894   */\n          iszero\n          tag_38\n          jumpi\n            /* \"#utility.yul\":1890:1891   */\n          0x00\n            /* \"#utility.yul\":1887:1888   */\n          dup1\n            /* \"#utility.yul\":1880:1892   */\n          revert\n            /* \"#utility.yul\":1858:1894   */\n        tag_38:\n          pop\n            /* \"#utility.yul\":1913:1976   */\n          tag_39\n            /* \"#utility.yul\":1968:1975   */\n          dup8\n            /* \"#utility.yul\":1957:1965   */\n          dup3\n            /* \"#utility.yul\":1946:1955   */\n          dup9\n            /* \"#utility.yul\":1942:1966   */\n          add\n            /* \"#utility.yul\":1913:1976   */\n          tag_14\n          jump\t// in\n        tag_39:\n            /* \"#utility.yul\":1903:1976   */\n          swap2\n          pop\n          pop\n            /* \"#utility.yul\":1048:1982   */\n          swap3\n          swap6\n          swap2\n          swap5\n          pop\n          swap3\n          pop\n          jump\t// out\n            /* \"#utility.yul\":1987:2424   */\n        tag_15:\n            /* \"#utility.yul\":2072:2073   */\n          0x02\n            /* \"#utility.yul\":2062:2074   */\n          dup2\n          div\n            /* \"#utility.yul\":2119:2120   */\n          0x01\n            /* \"#utility.yul\":2109:2121   */\n          dup3\n          and\n          dup1\n            /* \"#utility.yul\":2130:2191   */\n          tag_41\n          jumpi\n            /* \"#utility.yul\":2184:2188   */\n          0x7f\n            /* \"#utility.yul\":2176:2182   */\n          dup3\n            /* \"#utility.yul\":2172:2189   */\n          and\n            /* \"#utility.yul\":2162:2189   */\n          swap2\n          pop\n            /* \"#utility.yul\":2130:2191   */\n        tag_41:\n            /* \"#utility.yul\":2237:2239   */\n          0x20\n            /* \"#utility.yul\":2229:2235   */\n          dup3\n            /* \"#utility.yul\":2226:2240   */\n          lt\n            /* \"#utility.yul\":2206:2224   */\n          dup2\n            /* \"#utility.yul\":2203:2241   */\n          sub\n            /* \"#utility.yul\":2200:2418   */\n          tag_42\n          jumpi\n            /* \"#utility.yul\":2274:2351   */\n          0x4e487b7100000000000000000000000000000000000000000000000000000000\n            /* \"#utility.yul\":2271:2272   */\n          0x00\n            /* \"#utility.yul\":2264:2352   */\n          mstore\n            /* \"#utility.yul\":2375:2379   */\n          0x22\n            /* \"#utility.yul\":2372:2373   */\n          0x04\n            /* \"#utility.yul\":2365:2380   */\n          mstore\n            /* \"#utility.yul\":2403:2407   */\n          0x24\n            /* \"#utility.yul\":2400:2401   */\n          0x00\n            /* \"#utility.yul\":2393:2408   */\n          revert\n            /* \"#utility.yul\":2200:2418   */\n        tag_42:\n          pop\n            /* \"#utility.yul\":1987:2424   */\n          swap2\n          swap1\n          pop\n          jump\t// out\n            /* \"#utility.yul\":2555:3106   */\n        tag_17:\n            /* \"#utility.yul\":2657:2659   */\n          0x1f\n            /* \"#utility.yul\":2652:2655   */\n          dup3\n            /* \"#utility.yul\":2649:2660   */\n          gt\n            /* \"#utility.yul\":2646:3100   */\n          iszero\n          tag_45\n          jumpi\n            /* \"#utility.yul\":2693:2694   */\n          0x00\n            /* \"#utility.yul\":2718:2723   */\n          dup2\n            /* \"#utility.yul\":2714:2716   */\n          dup2\n            /* \"#utility.yul\":2707:2724   */\n          mstore\n            /* \"#utility.yul\":2763:2767   */\n          0x20\n            /* \"#utility.yul\":2759:2761   */\n          dup2\n            /* \"#utility.yul\":2749:2768   */\n          keccak256\n            /* \"#utility.yul\":2835:2839   */\n          0x20\n            /* \"#utility.yul\":2830:2832   */\n          0x1f\n            /* \"#utility.yul\":2818:2828   */\n          dup7\n            /* \"#utility.yul\":2814:2833   */\n          add\n            /* \"#utility.yul\":2810:2840   */\n          div\n            /* \"#utility.yul\":2804:2808   */\n          dup2\n            /* \"#utility.yul\":2800:2841   */\n          add\n            /* \"#utility.yul\":2872:2876   */\n          0x20\n            /* \"#utility.yul\":2860:2870   */\n          dup7\n            /* \"#utility.yul\":2857:2877   */\n          lt\n            /* \"#utility.yul\":2854:2901   */\n          iszero\n          tag_46\n          jumpi\n          pop\n            /* \"#utility.yul\":2895:2899   */\n          dup1\n            /* \"#utility.yul\":2854:2901   */\n        tag_46:\n            /* \"#utility.yul\":2952:2956   */\n          0x20\n            /* \"#utility.yul\":2947:2949   */\n          0x1f\n            /* \"#utility.yul\":2942:2945   */\n          dup7\n            /* \"#utility.yul\":2938:2950   */\n          add\n            /* \"#utility.yul\":2934:2957   */\n          div\n            /* \"#utility.yul\":2928:2932   */\n          dup3\n            /* \"#utility.yul\":2924:2958   */\n          add\n            /* \"#utility.yul\":2914:2958   */\n          swap2\n          pop\n            /* \"#utility.yul\":3008:3090   */\n        tag_47:\n            /* \"#utility.yul\":3026:3028   */\n          dup2\n            /* \"#utility.yul\":3019:3024   */\n          dup2\n            /* \"#utility.yul\":3016:3029   */\n          lt\n            /* \"#utility.yul\":3008:3090   */\n          iszero\n          tag_49\n          jumpi\n            /* \"#utility.yul\":3071:3088   */\n          dup3\n          dup2\n          sstore\n            /* \"#utility.yul\":3052:3053   */\n          0x01\n            /* \"#utility.yul\":3041:3054   */\n          add\n            /* \"#utility.yul\":3008:3090   */\n          jump(tag_47)\n        tag_49:\n            /* \"#utility.yul\":3012:3015   */\n          pop\n          pop\n          pop\n            /* \"#utility.yul\":2646:3100   */\n        tag_45:\n            /* \"#utility.yul\":2555:3106   */\n          pop\n          pop\n          pop\n          jump\t// out\n            /* \"#utility.yul\":3290:4649   */\n        tag_8:\n            /* \"#utility.yul\":3416:3419   */\n          dup2\n            /* \"#utility.yul\":3410:3420   */\n          mload\n          sub(exp(0x02, 0x40), 0x01)\n            /* \"#utility.yul\":3435:3441   */\n          dup2\n            /* \"#utility.yul\":3432:3462   */\n          gt\n            /* \"#utility.yul\":3429:3485   */\n          iszero\n          tag_53\n          jumpi\n            /* \"#utility.yul\":3465:3483   */\n          tag_53\n          tag_13\n          jump\t// in\n        tag_53:\n            /* \"#utility.yul\":3494:3591   */\n          tag_54\n            /* \"#utility.yul\":3584:3590   */\n          dup2\n            /* \"#utility.yul\":3544:3582   */\n          tag_55\n            /* \"#utility.yul\":3576:3580   */\n          dup5\n            /* \"#utility.yul\":3570:3581   */\n          sload\n            /* \"#utility.yul\":3544:3582   */\n          tag_15\n          jump\t// in\n        tag_55:\n            /* \"#utility.yul\":3538:3542   */\n          dup5\n            /* \"#utility.yul\":3494:3591   */\n          tag_17\n          jump\t// in\n        tag_54:\n            /* \"#utility.yul\":3646:3650   */\n          0x20\n          dup1\n            /* \"#utility.yul\":3710:3712   */\n          0x1f\n            /* \"#utility.yul\":3699:3713   */\n          dup4\n          gt\n            /* \"#utility.yul\":3727:3728   */\n          0x01\n            /* \"#utility.yul\":3722:4392   */\n          dup2\n          eq\n          tag_57\n          jumpi\n            /* \"#utility.yul\":4436:4437   */\n          0x00\n            /* \"#utility.yul\":4453:4459   */\n          dup5\n            /* \"#utility.yul\":4450:4539   */\n          iszero\n          tag_58\n          jumpi\n          pop\n            /* \"#utility.yul\":4505:4524   */\n          dup6\n          dup4\n          add\n            /* \"#utility.yul\":4499:4525   */\n          mload\n            /* \"#utility.yul\":4450:4539   */\n        tag_58:\n            /* \"#utility.yul\":3271:3272   */\n          0x02\n            /* \"#utility.yul\":3267:3278   */\n          dup1\n          dup7\n          mul\n            /* \"#utility.yul\":3254:3255   */\n          0x08\n            /* \"#utility.yul\":3250:3261   */\n          dup8\n          mul\n            /* \"#utility.yul\":3243:3262   */\n          swap1\n          swap2\n          exp\n          not(0x00)\n            /* \"#utility.yul\":3231:3263   */\n          div\n            /* \"#utility.yul\":3227:3264   */\n          not\n            /* \"#utility.yul\":3217:3265   */\n          dup3\n          and\n            /* \"#utility.yul\":3214:3279   */\n          or\n            /* \"#utility.yul\":4559:4563   */\n          dup7\n            /* \"#utility.yul\":4552:4633   */\n          sstore\n          pop\n            /* \"#utility.yul\":3692:4643   */\n          jump(tag_49)\n            /* \"#utility.yul\":3722:4392   */\n        tag_57:\n            /* \"#utility.yul\":2502:2503   */\n          0x00\n            /* \"#utility.yul\":2495:2509   */\n          dup6\n          dup2\n          mstore\n            /* \"#utility.yul\":2539:2543   */\n          0x20\n            /* \"#utility.yul\":2526:2544   */\n          dup2\n          keccak256\n          not(0x1f)\n            /* \"#utility.yul\":3758:3778   */\n          dup7\n          and\n          swap2\n            /* \"#utility.yul\":3876:4112   */\n        tag_61:\n            /* \"#utility.yul\":3890:3897   */\n          dup3\n            /* \"#utility.yul\":3887:3888   */\n          dup2\n            /* \"#utility.yul\":3884:3898   */\n          lt\n            /* \"#utility.yul\":3876:4112   */\n          iszero\n          tag_63\n          jumpi\n            /* \"#utility.yul\":3979:3998   */\n          dup9\n          dup7\n          add\n            /* \"#utility.yul\":3973:3999   */\n          mload\n            /* \"#utility.yul\":3958:4000   */\n          dup3\n          sstore\n            /* \"#utility.yul\":4071:4098   */\n          swap5\n          dup5\n          add\n          swap5\n            /* \"#utility.yul\":4039:4040   */\n          0x01\n            /* \"#utility.yul\":4027:4041   */\n          swap1\n          swap2\n          add\n          swap1\n            /* \"#utility.yul\":3906:3925   */\n          dup5\n          add\n            /* \"#utility.yul\":3876:4112   */\n          jump(tag_61)\n        tag_63:\n            /* \"#utility.yul\":3880:3883   */\n          pop\n            /* \"#utility.yul\":4140:4146   */\n          dup6\n            /* \"#utility.yul\":4131:4138   */\n          dup3\n            /* \"#utility.yul\":4128:4147   */\n          lt\n            /* \"#utility.yul\":4125:4333   */\n          iszero\n          tag_64\n          jumpi\n            /* \"#utility.yul\":4201:4220   */\n          dup8\n          dup6\n          add\n            /* \"#utility.yul\":4195:4221   */\n          mload\n            /* \"#utility.yul\":4295:4296   */\n          0x08\n            /* \"#utility.yul\":4310:4312   */\n          0x1f\n            /* \"#utility.yul\":4298:4313   */\n          dup9\n          and\n            /* \"#utility.yul\":4291:4314   */\n          mul\n            /* \"#utility.yul\":4288:4289   */\n          0x02\n            /* \"#utility.yul\":4284:4315   */\n          exp\n          not(0x00)\n            /* \"#utility.yul\":4272:4316   */\n          div\n            /* \"#utility.yul\":4268:4317   */\n          not\n            /* \"#utility.yul\":4253:4318   */\n          and\n            /* \"#utility.yul\":4238:4319   */\n          dup2\n          sstore\n            /* \"#utility.yul\":4125:4333   */\n        tag_64:\n          pop\n          pop\n          pop\n          pop\n          pop\n            /* \"#utility.yul\":4375:4376   */\n          0x02\n            /* \"#utility.yul\":4363:4377   */\n          mul\n            /* \"#utility.yul\":4379:4380   */\n          0x01\n            /* \"#utility.yul\":4359:4381   */\n          add\n            /* \"#utility.yul\":4346:4382   */\n          swap1\n          sstore\n          pop\n            /* \"#utility.yul\":3290:4649   */\n          jump\t// out\n        tag_19:\n            /* \"contracts/Employee.sol\":91:466  contract Employee is BaseUser {... */\n          dataSize(sub_0)\n          dup1\n          dataOffset(sub_0)\n          0x00\n          codecopy\n          0x00\n          return\n        stop\n\n        sub_0: assembly {\n                /* \"contracts/Employee.sol\":91:466  contract Employee is BaseUser {... */\n              mstore(0x40, 0x80)\n              callvalue\n              dup1\n              iszero\n              tag_1\n              jumpi\n              0x00\n              dup1\n              revert\n            tag_1:\n              pop\n              jumpi(tag_2, lt(calldatasize, 0x04))\n              div(calldataload(0x00), 0x0100000000000000000000000000000000000000000000000000000000)\n              0x1581b600\n              dup2\n              eq\n              tag_3\n              jumpi\n              dup1\n              0xd4e93292\n              eq\n              tag_4\n              jumpi\n            tag_2:\n              0x00\n              dup1\n              revert\n                /* \"contracts/BaseUser.sol\":114:144  address public withdrawAddress */\n            tag_3:\n              sload(0x01)\n              tag_5\n              swap1\n              0xffffffffffffffffffffffffffffffffffffffff\n              and\n              dup2\n              jump\n            tag_5:\n              mload(0x40)\n                /* \"#utility.yul\":190:232   */\n              0xffffffffffffffffffffffffffffffffffffffff\n                /* \"#utility.yul\":178:233   */\n              swap1\n              swap2\n              and\n                /* \"#utility.yul\":160:234   */\n              dup2\n              mstore\n                /* \"#utility.yul\":148:150   */\n              0x20\n                /* \"#utility.yul\":133:151   */\n              add\n                /* \"contracts/BaseUser.sol\":114:144  address public withdrawAddress */\n              mload(0x40)\n              dup1\n              swap2\n              sub\n              swap1\n              return\n                /* \"contracts/BaseUser.sol\":288:388  function withdrawal() public {... */\n            tag_4:\n              stop\n\n            auxdata: 0xa26469706673582212200393489b4d8264f547af4c078ebc42daffbf7a0bc6e7c6e4fb6a05e9289370ce64736f6c63430008110033\n        }\n    }\n\n    sub_1: assembly {\n            /* \"contracts/Tenant.sol\":89:1171  contract Tenant is BaseUser {... */\n          mstore(0x40, 0x80)\n            /* \"contracts/Tenant.sol\":391:752  constructor (... */\n          mload(0x40)\n          sub(codesize, bytecodeSize)\n          dup1\n          bytecodeSize\n          dup4\n          codecopy\n          dup2\n          add\n          0x40\n          dup2\n          swap1\n          mstore\n          tag_1\n          swap2\n          tag_2\n          jump\t// in\n        tag_1:\n            /* \"contracts/Tenant.sol\":589:593  name */\n          dup5\n            /* \"contracts/Tenant.sol\":595:612  newWithdraAddress */\n          dup5\n            /* \"contracts/BaseUser.sol\":219:223  name */\n          0x00\n            /* \"contracts/BaseUser.sol\":219:233  name = newName */\n          tag_6\n            /* \"contracts/Tenant.sol\":589:593  name */\n          dup4\n            /* \"contracts/BaseUser.sol\":219:223  name */\n          dup3\n            /* \"contracts/BaseUser.sol\":219:233  name = newName */\n          tag_7\n          jump\t// in\n        tag_6:\n          pop\n            /* \"contracts/BaseUser.sol\":244:259  withdrawAddress */\n          0x01\n            /* \"contracts/BaseUser.sol\":244:272  withdrawAddress = newAddress */\n          dup1\n          sload\n          not(sub(exp(0x02, 0xa0), 0x01))\n          and\n          sub(exp(0x02, 0xa0), 0x01)\n          swap3\n          swap1\n          swap3\n          and\n          swap2\n          swap1\n          swap2\n          or\n          swap1\n          sstore\n          pop\n            /* \"contracts/Tenant.sol\":636:648  servicePrice */\n          0x02\n            /* \"contracts/Tenant.sol\":636:656  servicePrice = price */\n          dup4\n          swap1\n          sstore\n            /* \"contracts/Tenant.sol\":667:682  buildingAddress */\n          0x03\n            /* \"contracts/Tenant.sol\":667:699  buildingAddress = newBuildingAdd */\n          tag_9\n            /* \"contracts/Tenant.sol\":685:699  newBuildingAdd */\n          dup4\n            /* \"contracts/Tenant.sol\":667:682  buildingAddress */\n          dup3\n            /* \"contracts/Tenant.sol\":667:699  buildingAddress = newBuildingAdd */\n          tag_7\n          jump\t// in\n        tag_9:\n          pop\n            /* \"contracts/Tenant.sol\":710:726  consorcioAddress */\n          0x04\n            /* \"contracts/Tenant.sol\":710:744  consorcioAddress = newConsorcioAdd */\n          dup1\n          sload\n          not(sub(exp(0x02, 0xa0), 0x01))\n          and\n          sub(exp(0x02, 0xa0), 0x01)\n          swap3\n          swap1\n          swap3\n          and\n          swap2\n          swap1\n          swap2\n          or\n          swap1\n          sstore\n          pop\n            /* \"contracts/Tenant.sol\":89:1171  contract Tenant is BaseUser {... */\n          tag_18\n          swap3\n          pop\n          pop\n          pop\n          jump\n            /* \"#utility.yul\":14:198   */\n        tag_11:\n            /* \"#utility.yul\":66:143   */\n          0x4e487b7100000000000000000000000000000000000000000000000000000000\n            /* \"#utility.yul\":63:64   */\n          0x00\n            /* \"#utility.yul\":56:144   */\n          mstore\n            /* \"#utility.yul\":163:167   */\n          0x41\n            /* \"#utility.yul\":160:161   */\n          0x04\n            /* \"#utility.yul\":153:168   */\n          mstore\n            /* \"#utility.yul\":187:191   */\n          0x24\n            /* \"#utility.yul\":184:185   */\n          0x00\n            /* \"#utility.yul\":177:192   */\n          revert\n            /* \"#utility.yul\":203:1043   */\n        tag_12:\n            /* \"#utility.yul\":257:262   */\n          0x00\n            /* \"#utility.yul\":310:313   */\n          dup3\n            /* \"#utility.yul\":303:307   */\n          0x1f\n            /* \"#utility.yul\":295:301   */\n          dup4\n            /* \"#utility.yul\":291:308   */\n          add\n            /* \"#utility.yul\":287:314   */\n          slt\n            /* \"#utility.yul\":277:332   */\n          tag_21\n          jumpi\n            /* \"#utility.yul\":328:329   */\n          0x00\n            /* \"#utility.yul\":325:326   */\n          dup1\n            /* \"#utility.yul\":318:330   */\n          revert\n            /* \"#utility.yul\":277:332   */\n        tag_21:\n            /* \"#utility.yul\":357:363   */\n          dup2\n            /* \"#utility.yul\":351:364   */\n          mload\n          sub(exp(0x02, 0x40), 0x01)\n            /* \"#utility.yul\":420:422   */\n          dup1\n            /* \"#utility.yul\":416:418   */\n          dup3\n            /* \"#utility.yul\":413:423   */\n          gt\n            /* \"#utility.yul\":410:446   */\n          iszero\n          tag_23\n          jumpi\n            /* \"#utility.yul\":426:444   */\n          tag_23\n          tag_11\n          jump\t// in\n        tag_23:\n            /* \"#utility.yul\":501:503   */\n          0x40\n            /* \"#utility.yul\":495:504   */\n          mload\n            /* \"#utility.yul\":469:471   */\n          0x1f\n            /* \"#utility.yul\":555:568   */\n          dup4\n          add\n          not(0x1f)\n            /* \"#utility.yul\":551:573   */\n          swap1\n          dup2\n          and\n            /* \"#utility.yul\":575:577   */\n          0x3f\n            /* \"#utility.yul\":547:578   */\n          add\n            /* \"#utility.yul\":543:583   */\n          and\n            /* \"#utility.yul\":531:584   */\n          dup2\n          add\n          swap1\n            /* \"#utility.yul\":599:617   */\n          dup3\n          dup3\n          gt\n            /* \"#utility.yul\":619:641   */\n          dup2\n          dup4\n          lt\n            /* \"#utility.yul\":596:642   */\n          or\n            /* \"#utility.yul\":593:665   */\n          iszero\n          tag_25\n          jumpi\n            /* \"#utility.yul\":645:663   */\n          tag_25\n          tag_11\n          jump\t// in\n        tag_25:\n            /* \"#utility.yul\":685:695   */\n          dup2\n            /* \"#utility.yul\":681:683   */\n          0x40\n            /* \"#utility.yul\":674:696   */\n          mstore\n            /* \"#utility.yul\":720:722   */\n          dup4\n            /* \"#utility.yul\":712:718   */\n          dup2\n            /* \"#utility.yul\":705:723   */\n          mstore\n            /* \"#utility.yul\":742:746   */\n          0x20\n            /* \"#utility.yul\":732:746   */\n          swap3\n          pop\n            /* \"#utility.yul\":787:790   */\n          dup7\n            /* \"#utility.yul\":782:784   */\n          dup4\n            /* \"#utility.yul\":777:779   */\n          dup6\n            /* \"#utility.yul\":769:775   */\n          dup9\n            /* \"#utility.yul\":765:780   */\n          add\n            /* \"#utility.yul\":761:785   */\n          add\n            /* \"#utility.yul\":758:791   */\n          gt\n            /* \"#utility.yul\":755:808   */\n          iszero\n          tag_26\n          jumpi\n            /* \"#utility.yul\":804:805   */\n          0x00\n            /* \"#utility.yul\":801:802   */\n          dup1\n            /* \"#utility.yul\":794:806   */\n          revert\n            /* \"#utility.yul\":755:808   */\n        tag_26:\n            /* \"#utility.yul\":826:827   */\n          0x00\n            /* \"#utility.yul\":817:827   */\n          swap2\n          pop\n            /* \"#utility.yul\":836:969   */\n        tag_27:\n            /* \"#utility.yul\":850:852   */\n          dup4\n            /* \"#utility.yul\":847:848   */\n          dup3\n            /* \"#utility.yul\":844:853   */\n          lt\n            /* \"#utility.yul\":836:969   */\n          iszero\n          tag_29\n          jumpi\n            /* \"#utility.yul\":938:952   */\n          dup6\n          dup3\n          add\n            /* \"#utility.yul\":934:957   */\n          dup4\n          add\n            /* \"#utility.yul\":928:958   */\n          mload\n            /* \"#utility.yul\":907:921   */\n          dup2\n          dup4\n          add\n            /* \"#utility.yul\":903:926   */\n          dup5\n          add\n            /* \"#utility.yul\":896:959   */\n          mstore\n            /* \"#utility.yul\":861:871   */\n          swap1\n          dup3\n          add\n          swap1\n            /* \"#utility.yul\":836:969   */\n          jump(tag_27)\n        tag_29:\n            /* \"#utility.yul\":1011:1012   */\n          0x00\n            /* \"#utility.yul\":989:1004   */\n          swap4\n          dup2\n          add\n            /* \"#utility.yul\":985:1009   */\n          swap1\n          swap3\n          add\n            /* \"#utility.yul\":978:1013   */\n          swap3\n          swap1\n          swap3\n          mstore\n            /* \"#utility.yul\":993:999   */\n          swap5\n            /* \"#utility.yul\":203:1043   */\n          swap4\n          pop\n          pop\n          pop\n          pop\n          jump\t// out\n            /* \"#utility.yul\":1048:1225   */\n        tag_13:\n            /* \"#utility.yul\":1127:1140   */\n          dup1\n          mload\n          sub(exp(0x02, 0xa0), 0x01)\n            /* \"#utility.yul\":1169:1200   */\n          dup2\n          and\n            /* \"#utility.yul\":1159:1201   */\n          dup2\n          eq\n            /* \"#utility.yul\":1149:1219   */\n          tag_31\n          jumpi\n            /* \"#utility.yul\":1215:1216   */\n          0x00\n            /* \"#utility.yul\":1212:1213   */\n          dup1\n            /* \"#utility.yul\":1205:1217   */\n          revert\n            /* \"#utility.yul\":1149:1219   */\n        tag_31:\n            /* \"#utility.yul\":1048:1225   */\n          swap2\n          swap1\n          pop\n          jump\t// out\n            /* \"#utility.yul\":1230:2025   */\n        tag_2:\n            /* \"#utility.yul\":1356:1362   */\n          0x00\n            /* \"#utility.yul\":1364:1370   */\n          dup1\n            /* \"#utility.yul\":1372:1378   */\n          0x00\n            /* \"#utility.yul\":1380:1386   */\n          dup1\n            /* \"#utility.yul\":1388:1394   */\n          0x00\n            /* \"#utility.yul\":1441:1444   */\n          0xa0\n            /* \"#utility.yul\":1429:1438   */\n          dup7\n            /* \"#utility.yul\":1420:1427   */\n          dup9\n            /* \"#utility.yul\":1416:1439   */\n          sub\n            /* \"#utility.yul\":1412:1445   */\n          slt\n            /* \"#utility.yul\":1409:1462   */\n          iszero\n          tag_33\n          jumpi\n            /* \"#utility.yul\":1458:1459   */\n          0x00\n            /* \"#utility.yul\":1455:1456   */\n          dup1\n            /* \"#utility.yul\":1448:1460   */\n          revert\n            /* \"#utility.yul\":1409:1462   */\n        tag_33:\n            /* \"#utility.yul\":1491:1500   */\n          dup6\n            /* \"#utility.yul\":1485:1501   */\n          mload\n          sub(exp(0x02, 0x40), 0x01)\n            /* \"#utility.yul\":1561:1563   */\n          dup1\n            /* \"#utility.yul\":1553:1559   */\n          dup3\n            /* \"#utility.yul\":1550:1564   */\n          gt\n            /* \"#utility.yul\":1547:1581   */\n          iszero\n          tag_34\n          jumpi\n            /* \"#utility.yul\":1577:1578   */\n          0x00\n            /* \"#utility.yul\":1574:1575   */\n          dup1\n            /* \"#utility.yul\":1567:1579   */\n          revert\n            /* \"#utility.yul\":1547:1581   */\n        tag_34:\n            /* \"#utility.yul\":1600:1661   */\n          tag_35\n            /* \"#utility.yul\":1653:1660   */\n          dup10\n            /* \"#utility.yul\":1644:1650   */\n          dup4\n            /* \"#utility.yul\":1633:1642   */\n          dup11\n            /* \"#utility.yul\":1629:1651   */\n          add\n            /* \"#utility.yul\":1600:1661   */\n          tag_12\n          jump\t// in\n        tag_35:\n            /* \"#utility.yul\":1590:1661   */\n          swap7\n          pop\n            /* \"#utility.yul\":1680:1729   */\n          tag_36\n            /* \"#utility.yul\":1725:1727   */\n          0x20\n            /* \"#utility.yul\":1714:1723   */\n          dup10\n            /* \"#utility.yul\":1710:1728   */\n          add\n            /* \"#utility.yul\":1680:1729   */\n          tag_13\n          jump\t// in\n        tag_36:\n            /* \"#utility.yul\":1670:1729   */\n          swap6\n          pop\n            /* \"#utility.yul\":1769:1771   */\n          0x40\n            /* \"#utility.yul\":1758:1767   */\n          dup9\n            /* \"#utility.yul\":1754:1772   */\n          add\n            /* \"#utility.yul\":1748:1773   */\n          mload\n            /* \"#utility.yul\":1738:1773   */\n          swap5\n          pop\n            /* \"#utility.yul\":1819:1821   */\n          0x60\n            /* \"#utility.yul\":1808:1817   */\n          dup9\n            /* \"#utility.yul\":1804:1822   */\n          add\n            /* \"#utility.yul\":1798:1823   */\n          mload\n            /* \"#utility.yul\":1782:1823   */\n          swap2\n          pop\n            /* \"#utility.yul\":1848:1850   */\n          dup1\n            /* \"#utility.yul\":1838:1846   */\n          dup3\n            /* \"#utility.yul\":1835:1851   */\n          gt\n            /* \"#utility.yul\":1832:1868   */\n          iszero\n          tag_37\n          jumpi\n            /* \"#utility.yul\":1864:1865   */\n          0x00\n            /* \"#utility.yul\":1861:1862   */\n          dup1\n            /* \"#utility.yul\":1854:1866   */\n          revert\n            /* \"#utility.yul\":1832:1868   */\n        tag_37:\n          pop\n            /* \"#utility.yul\":1887:1950   */\n          tag_38\n            /* \"#utility.yul\":1942:1949   */\n          dup9\n            /* \"#utility.yul\":1931:1939   */\n          dup3\n            /* \"#utility.yul\":1920:1929   */\n          dup10\n            /* \"#utility.yul\":1916:1940   */\n          add\n            /* \"#utility.yul\":1887:1950   */\n          tag_12\n          jump\t// in\n        tag_38:\n            /* \"#utility.yul\":1877:1950   */\n          swap3\n          pop\n          pop\n            /* \"#utility.yul\":1969:2019   */\n          tag_39\n            /* \"#utility.yul\":2014:2017   */\n          0x80\n            /* \"#utility.yul\":2003:2012   */\n          dup8\n            /* \"#utility.yul\":1999:2018   */\n          add\n            /* \"#utility.yul\":1969:2019   */\n          tag_13\n          jump\t// in\n        tag_39:\n            /* \"#utility.yul\":1959:2019   */\n          swap1\n          pop\n            /* \"#utility.yul\":1230:2025   */\n          swap3\n          swap6\n          pop\n          swap3\n          swap6\n          swap1\n          swap4\n          pop\n          jump\t// out\n            /* \"#utility.yul\":2030:2467   */\n        tag_14:\n            /* \"#utility.yul\":2115:2116   */\n          0x02\n            /* \"#utility.yul\":2105:2117   */\n          dup2\n          div\n            /* \"#utility.yul\":2162:2163   */\n          0x01\n            /* \"#utility.yul\":2152:2164   */\n          dup3\n          and\n          dup1\n            /* \"#utility.yul\":2173:2234   */\n          tag_41\n          jumpi\n            /* \"#utility.yul\":2227:2231   */\n          0x7f\n            /* \"#utility.yul\":2219:2225   */\n          dup3\n            /* \"#utility.yul\":2215:2232   */\n          and\n            /* \"#utility.yul\":2205:2232   */\n          swap2\n          pop\n            /* \"#utility.yul\":2173:2234   */\n        tag_41:\n            /* \"#utility.yul\":2280:2282   */\n          0x20\n            /* \"#utility.yul\":2272:2278   */\n          dup3\n            /* \"#utility.yul\":2269:2283   */\n          lt\n            /* \"#utility.yul\":2249:2267   */\n          dup2\n            /* \"#utility.yul\":2246:2284   */\n          sub\n            /* \"#utility.yul\":2243:2461   */\n          tag_42\n          jumpi\n            /* \"#utility.yul\":2317:2394   */\n          0x4e487b7100000000000000000000000000000000000000000000000000000000\n            /* \"#utility.yul\":2314:2315   */\n          0x00\n            /* \"#utility.yul\":2307:2395   */\n          mstore\n            /* \"#utility.yul\":2418:2422   */\n          0x22\n            /* \"#utility.yul\":2415:2416   */\n          0x04\n            /* \"#utility.yul\":2408:2423   */\n          mstore\n            /* \"#utility.yul\":2446:2450   */\n          0x24\n            /* \"#utility.yul\":2443:2444   */\n          0x00\n            /* \"#utility.yul\":2436:2451   */\n          revert\n            /* \"#utility.yul\":2243:2461   */\n        tag_42:\n          pop\n            /* \"#utility.yul\":2030:2467   */\n          swap2\n          swap1\n          pop\n          jump\t// out\n            /* \"#utility.yul\":2598:3149   */\n        tag_16:\n            /* \"#utility.yul\":2700:2702   */\n          0x1f\n            /* \"#utility.yul\":2695:2698   */\n          dup3\n            /* \"#utility.yul\":2692:2703   */\n          gt\n            /* \"#utility.yul\":2689:3143   */\n          iszero\n          tag_45\n          jumpi\n            /* \"#utility.yul\":2736:2737   */\n          0x00\n            /* \"#utility.yul\":2761:2766   */\n          dup2\n            /* \"#utility.yul\":2757:2759   */\n          dup2\n            /* \"#utility.yul\":2750:2767   */\n          mstore\n            /* \"#utility.yul\":2806:2810   */\n          0x20\n            /* \"#utility.yul\":2802:2804   */\n          dup2\n            /* \"#utility.yul\":2792:2811   */\n          keccak256\n            /* \"#utility.yul\":2878:2882   */\n          0x20\n            /* \"#utility.yul\":2873:2875   */\n          0x1f\n            /* \"#utility.yul\":2861:2871   */\n          dup7\n            /* \"#utility.yul\":2857:2876   */\n          add\n            /* \"#utility.yul\":2853:2883   */\n          div\n            /* \"#utility.yul\":2847:2851   */\n          dup2\n            /* \"#utility.yul\":2843:2884   */\n          add\n            /* \"#utility.yul\":2915:2919   */\n          0x20\n            /* \"#utility.yul\":2903:2913   */\n          dup7\n            /* \"#utility.yul\":2900:2920   */\n          lt\n            /* \"#utility.yul\":2897:2944   */\n          iszero\n          tag_46\n          jumpi\n          pop\n            /* \"#utility.yul\":2938:2942   */\n          dup1\n            /* \"#utility.yul\":2897:2944   */\n        tag_46:\n            /* \"#utility.yul\":2995:2999   */\n          0x20\n            /* \"#utility.yul\":2990:2992   */\n          0x1f\n            /* \"#utility.yul\":2985:2988   */\n          dup7\n            /* \"#utility.yul\":2981:2993   */\n          add\n            /* \"#utility.yul\":2977:3000   */\n          div\n            /* \"#utility.yul\":2971:2975   */\n          dup3\n            /* \"#utility.yul\":2967:3001   */\n          add\n            /* \"#utility.yul\":2957:3001   */\n          swap2\n          pop\n            /* \"#utility.yul\":3051:3133   */\n        tag_47:\n            /* \"#utility.yul\":3069:3071   */\n          dup2\n            /* \"#utility.yul\":3062:3067   */\n          dup2\n            /* \"#utility.yul\":3059:3072   */\n          lt\n            /* \"#utility.yul\":3051:3133   */\n          iszero\n          tag_49\n          jumpi\n            /* \"#utility.yul\":3114:3131   */\n          dup3\n          dup2\n          sstore\n            /* \"#utility.yul\":3095:3096   */\n          0x01\n            /* \"#utility.yul\":3084:3097   */\n          add\n            /* \"#utility.yul\":3051:3133   */\n          jump(tag_47)\n        tag_49:\n            /* \"#utility.yul\":3055:3058   */\n          pop\n          pop\n          pop\n            /* \"#utility.yul\":2689:3143   */\n        tag_45:\n            /* \"#utility.yul\":2598:3149   */\n          pop\n          pop\n          pop\n          jump\t// out\n            /* \"#utility.yul\":3333:4692   */\n        tag_7:\n            /* \"#utility.yul\":3459:3462   */\n          dup2\n            /* \"#utility.yul\":3453:3463   */\n          mload\n          sub(exp(0x02, 0x40), 0x01)\n            /* \"#utility.yul\":3478:3484   */\n          dup2\n            /* \"#utility.yul\":3475:3505   */\n          gt\n            /* \"#utility.yul\":3472:3528   */\n          iszero\n          tag_53\n          jumpi\n            /* \"#utility.yul\":3508:3526   */\n          tag_53\n          tag_11\n          jump\t// in\n        tag_53:\n            /* \"#utility.yul\":3537:3634   */\n          tag_54\n            /* \"#utility.yul\":3627:3633   */\n          dup2\n            /* \"#utility.yul\":3587:3625   */\n          tag_55\n            /* \"#utility.yul\":3619:3623   */\n          dup5\n            /* \"#utility.yul\":3613:3624   */\n          sload\n            /* \"#utility.yul\":3587:3625   */\n          tag_14\n          jump\t// in\n        tag_55:\n            /* \"#utility.yul\":3581:3585   */\n          dup5\n            /* \"#utility.yul\":3537:3634   */\n          tag_16\n          jump\t// in\n        tag_54:\n            /* \"#utility.yul\":3689:3693   */\n          0x20\n          dup1\n            /* \"#utility.yul\":3753:3755   */\n          0x1f\n            /* \"#utility.yul\":3742:3756   */\n          dup4\n          gt\n            /* \"#utility.yul\":3770:3771   */\n          0x01\n            /* \"#utility.yul\":3765:4435   */\n          dup2\n          eq\n          tag_57\n          jumpi\n            /* \"#utility.yul\":4479:4480   */\n          0x00\n            /* \"#utility.yul\":4496:4502   */\n          dup5\n            /* \"#utility.yul\":4493:4582   */\n          iszero\n          tag_58\n          jumpi\n          pop\n            /* \"#utility.yul\":4548:4567   */\n          dup6\n          dup4\n          add\n            /* \"#utility.yul\":4542:4568   */\n          mload\n            /* \"#utility.yul\":4493:4582   */\n        tag_58:\n            /* \"#utility.yul\":3314:3315   */\n          0x02\n            /* \"#utility.yul\":3310:3321   */\n          dup1\n          dup7\n          mul\n            /* \"#utility.yul\":3297:3298   */\n          0x08\n            /* \"#utility.yul\":3293:3304   */\n          dup8\n          mul\n            /* \"#utility.yul\":3286:3305   */\n          swap1\n          swap2\n          exp\n          not(0x00)\n            /* \"#utility.yul\":3274:3306   */\n          div\n            /* \"#utility.yul\":3270:3307   */\n          not\n            /* \"#utility.yul\":3260:3308   */\n          dup3\n          and\n            /* \"#utility.yul\":3257:3322   */\n          or\n            /* \"#utility.yul\":4602:4606   */\n          dup7\n            /* \"#utility.yul\":4595:4676   */\n          sstore\n          pop\n            /* \"#utility.yul\":3735:4686   */\n          jump(tag_49)\n            /* \"#utility.yul\":3765:4435   */\n        tag_57:\n            /* \"#utility.yul\":2545:2546   */\n          0x00\n            /* \"#utility.yul\":2538:2552   */\n          dup6\n          dup2\n          mstore\n            /* \"#utility.yul\":2582:2586   */\n          0x20\n            /* \"#utility.yul\":2569:2587   */\n          dup2\n          keccak256\n          not(0x1f)\n            /* \"#utility.yul\":3801:3821   */\n          dup7\n          and\n          swap2\n            /* \"#utility.yul\":3919:4155   */\n        tag_61:\n            /* \"#utility.yul\":3933:3940   */\n          dup3\n            /* \"#utility.yul\":3930:3931   */\n          dup2\n            /* \"#utility.yul\":3927:3941   */\n          lt\n            /* \"#utility.yul\":3919:4155   */\n          iszero\n          tag_63\n          jumpi\n            /* \"#utility.yul\":4022:4041   */\n          dup9\n          dup7\n          add\n            /* \"#utility.yul\":4016:4042   */\n          mload\n            /* \"#utility.yul\":4001:4043   */\n          dup3\n          sstore\n            /* \"#utility.yul\":4114:4141   */\n          swap5\n          dup5\n          add\n          swap5\n            /* \"#utility.yul\":4082:4083   */\n          0x01\n            /* \"#utility.yul\":4070:4084   */\n          swap1\n          swap2\n          add\n          swap1\n            /* \"#utility.yul\":3949:3968   */\n          dup5\n          add\n            /* \"#utility.yul\":3919:4155   */\n          jump(tag_61)\n        tag_63:\n            /* \"#utility.yul\":3923:3926   */\n          pop\n            /* \"#utility.yul\":4183:4189   */\n          dup6\n            /* \"#utility.yul\":4174:4181   */\n          dup3\n            /* \"#utility.yul\":4171:4190   */\n          lt\n            /* \"#utility.yul\":4168:4376   */\n          iszero\n          tag_64\n          jumpi\n            /* \"#utility.yul\":4244:4263   */\n          dup8\n          dup6\n          add\n            /* \"#utility.yul\":4238:4264   */\n          mload\n            /* \"#utility.yul\":4338:4339   */\n          0x08\n            /* \"#utility.yul\":4353:4355   */\n          0x1f\n            /* \"#utility.yul\":4341:4356   */\n          dup9\n          and\n            /* \"#utility.yul\":4334:4357   */\n          mul\n            /* \"#utility.yul\":4331:4332   */\n          0x02\n            /* \"#utility.yul\":4327:4358   */\n          exp\n          not(0x00)\n            /* \"#utility.yul\":4315:4359   */\n          div\n            /* \"#utility.yul\":4311:4360   */\n          not\n            /* \"#utility.yul\":4296:4361   */\n          and\n            /* \"#utility.yul\":4281:4362   */\n          dup2\n          sstore\n            /* \"#utility.yul\":4168:4376   */\n        tag_64:\n          pop\n          pop\n          pop\n          pop\n          pop\n            /* \"#utility.yul\":4418:4419   */\n          0x02\n            /* \"#utility.yul\":4406:4420   */\n          mul\n            /* \"#utility.yul\":4422:4423   */\n          0x01\n            /* \"#utility.yul\":4402:4424   */\n          add\n            /* \"#utility.yul\":4389:4425   */\n          swap1\n          sstore\n          pop\n            /* \"#utility.yul\":3333:4692   */\n          jump\t// out\n        tag_18:\n            /* \"contracts/Tenant.sol\":89:1171  contract Tenant is BaseUser {... */\n          dataSize(sub_0)\n          dup1\n          dataOffset(sub_0)\n          0x00\n          codecopy\n          0x00\n          return\n        stop\n\n        sub_0: assembly {\n                /* \"contracts/Tenant.sol\":89:1171  contract Tenant is BaseUser {... */\n              mstore(0x40, 0x80)\n              jumpi(tag_1, lt(calldatasize, 0x04))\n              div(calldataload(0x00), 0x0100000000000000000000000000000000000000000000000000000000)\n              0x1581b600\n              dup2\n              eq\n              tag_3\n              jumpi\n              dup1\n              0xd0e30db0\n              eq\n              tag_4\n              jumpi\n              dup1\n              0xd4e93292\n              eq\n              tag_5\n              jumpi\n              dup1\n              0xda6e75c2\n              eq\n              tag_6\n              jumpi\n              stop\n            tag_1:\n              jumpi(tag_2, calldatasize)\n              stop\n            tag_2:\n              stop\n                /* \"contracts/BaseUser.sol\":114:144  address public withdrawAddress */\n            tag_3:\n              callvalue\n              dup1\n              iszero\n              tag_11\n              jumpi\n              0x00\n              dup1\n              revert\n            tag_11:\n              pop\n              sload(0x01)\n              tag_12\n              swap1\n              0xffffffffffffffffffffffffffffffffffffffff\n              and\n              dup2\n              jump\n            tag_12:\n              mload(0x40)\n                /* \"#utility.yul\":190:232   */\n              0xffffffffffffffffffffffffffffffffffffffff\n                /* \"#utility.yul\":178:233   */\n              swap1\n              swap2\n              and\n                /* \"#utility.yul\":160:234   */\n              dup2\n              mstore\n                /* \"#utility.yul\":148:150   */\n              0x20\n                /* \"#utility.yul\":133:151   */\n              add\n                /* \"contracts/BaseUser.sol\":114:144  address public withdrawAddress */\n              mload(0x40)\n              dup1\n              swap2\n              sub\n              swap1\n              return\n                /* \"contracts/Tenant.sol\":760:842  function deposit() public payable {... */\n            tag_4:\n              tag_2\n              tag_17\n              jump\t// in\n                /* \"contracts/BaseUser.sol\":288:388  function withdrawal() public {... */\n            tag_5:\n              callvalue\n              dup1\n              iszero\n              tag_2\n              jumpi\n              0x00\n              dup1\n              revert\n                /* \"contracts/Tenant.sol\":850:1166  function payExpenses() public {... */\n            tag_6:\n              callvalue\n              dup1\n              iszero\n              tag_21\n              jumpi\n              0x00\n              dup1\n              revert\n            tag_21:\n              pop\n              tag_2\n              tag_23\n              jump\t// in\n                /* \"contracts/Tenant.sol\":760:842  function deposit() public payable {... */\n            tag_17:\n                /* \"contracts/Tenant.sol\":810:834  EtherReceived(msg.value) */\n              mload(0x40)\n                /* \"contracts/Tenant.sol\":824:833  msg.value */\n              callvalue\n                /* \"#utility.yul\":391:416   */\n              dup2\n              mstore\n                /* \"contracts/Tenant.sol\":810:834  EtherReceived(msg.value) */\n              0x0a34e3d4f1e6b837dbce1011b61499fa1a483a0abee6a7a6697660b4b2d97132\n              swap1\n                /* \"#utility.yul\":379:381   */\n              0x20\n                /* \"#utility.yul\":364:382   */\n              add\n                /* \"contracts/Tenant.sol\":810:834  EtherReceived(msg.value) */\n              mload(0x40)\n              dup1\n              swap2\n              sub\n              swap1\n              log1\n                /* \"contracts/Tenant.sol\":760:842  function deposit() public payable {... */\n              jump\t// out\n                /* \"contracts/Tenant.sol\":850:1166  function payExpenses() public {... */\n            tag_23:\n                /* \"contracts/Tenant.sol\":924:936  servicePrice */\n              sload(0x02)\n                /* \"contracts/Tenant.sol\":907:911  this */\n              address\n                /* \"contracts/Tenant.sol\":899:920  address(this).balance */\n              balance\n                /* \"contracts/Tenant.sol\":899:936  address(this).balance >= servicePrice */\n              lt\n              iszero\n                /* \"contracts/Tenant.sol\":891:961  require(address(this).balance >= servicePrice, \"Fondos insuficientes\") */\n              tag_29\n              jumpi\n              mload(0x40)\n              0x08c379a000000000000000000000000000000000000000000000000000000000\n              dup2\n              mstore\n                /* \"#utility.yul\":629:631   */\n              0x20\n                /* \"contracts/Tenant.sol\":891:961  require(address(this).balance >= servicePrice, \"Fondos insuficientes\") */\n              0x04\n              dup3\n              add\n                /* \"#utility.yul\":611:632   */\n              mstore\n                /* \"#utility.yul\":668:670   */\n              0x14\n                /* \"#utility.yul\":648:666   */\n              0x24\n              dup3\n              add\n                /* \"#utility.yul\":641:671   */\n              mstore\n                /* \"#utility.yul\":707:729   */\n              0x466f6e646f7320696e737566696369656e746573000000000000000000000000\n                /* \"#utility.yul\":687:705   */\n              0x44\n              dup3\n              add\n                /* \"#utility.yul\":680:730   */\n              mstore\n                /* \"#utility.yul\":747:765   */\n              0x64\n              add\n                /* \"contracts/Tenant.sol\":891:961  require(address(this).balance >= servicePrice, \"Fondos insuficientes\") */\n            tag_30:\n              mload(0x40)\n              dup1\n              swap2\n              sub\n              swap1\n              revert\n            tag_29:\n                /* \"contracts/Tenant.sol\":987:1003  consorcioAddress */\n              sload(0x04)\n                /* \"contracts/Tenant.sol\":1031:1043  servicePrice */\n              sload(0x02)\n                /* \"contracts/Tenant.sol\":987:1058  consorcioAddress.call {... */\n              mload(0x40)\n                /* \"contracts/Tenant.sol\":973:982  bool sent */\n              0x00\n              swap3\n                /* \"contracts/Tenant.sol\":987:1003  consorcioAddress */\n              0xffffffffffffffffffffffffffffffffffffffff\n              and\n              swap2\n                /* \"contracts/Tenant.sol\":1031:1043  servicePrice */\n              swap1\n                /* \"contracts/Tenant.sol\":973:982  bool sent */\n              dup4\n                /* \"contracts/Tenant.sol\":987:1058  consorcioAddress.call {... */\n              dup2\n                /* \"contracts/Tenant.sol\":973:982  bool sent */\n              dup2\n                /* \"contracts/Tenant.sol\":987:1058  consorcioAddress.call {... */\n              dup2\n                /* \"contracts/Tenant.sol\":1031:1043  servicePrice */\n              dup6\n                /* \"contracts/Tenant.sol\":987:1003  consorcioAddress */\n              dup8\n                /* \"contracts/Tenant.sol\":987:1058  consorcioAddress.call {... */\n              gas\n              call\n              swap3\n              pop\n              pop\n              pop\n              returndatasize\n              dup1\n              0x00\n              dup2\n              eq\n              tag_36\n              jumpi\n              mload(0x40)\n              swap2\n              pop\n              and(add(returndatasize, 0x3f), not(0x1f))\n              dup3\n              add\n              0x40\n              mstore\n              returndatasize\n              dup3\n              mstore\n              returndatasize\n              0x00\n              0x20\n              dup5\n              add\n              returndatacopy\n              jump(tag_35)\n            tag_36:\n              0x60\n              swap2\n              pop\n            tag_35:\n              pop\n                /* \"contracts/Tenant.sol\":972:1058  (bool sent,) = consorcioAddress.call {... */\n              swap1\n              swap2\n              pop\n              pop\n                /* \"contracts/Tenant.sol\":1085:1089  true */\n              0x01\n                /* \"contracts/Tenant.sol\":1077:1089  sent == true */\n              dup2\n              iszero\n              iszero\n              eq\n                /* \"contracts/Tenant.sol\":1069:1116  require(sent == true, \"Fallo la transferencia\") */\n              tag_37\n              jumpi\n              mload(0x40)\n              0x08c379a000000000000000000000000000000000000000000000000000000000\n              dup2\n              mstore\n                /* \"#utility.yul\":1188:1190   */\n              0x20\n                /* \"contracts/Tenant.sol\":1069:1116  require(sent == true, \"Fallo la transferencia\") */\n              0x04\n              dup3\n              add\n                /* \"#utility.yul\":1170:1191   */\n              mstore\n                /* \"#utility.yul\":1227:1229   */\n              0x16\n                /* \"#utility.yul\":1207:1225   */\n              0x24\n              dup3\n              add\n                /* \"#utility.yul\":1200:1230   */\n              mstore\n                /* \"#utility.yul\":1266:1290   */\n              0x46616c6c6f206c61207472616e73666572656e63696100000000000000000000\n                /* \"#utility.yul\":1246:1264   */\n              0x44\n              dup3\n              add\n                /* \"#utility.yul\":1239:1291   */\n              mstore\n                /* \"#utility.yul\":1308:1326   */\n              0x64\n              add\n                /* \"contracts/Tenant.sol\":1069:1116  require(sent == true, \"Fallo la transferencia\") */\n              tag_30\n                /* \"#utility.yul\":986:1332   */\n              jump\n                /* \"contracts/Tenant.sol\":1069:1116  require(sent == true, \"Fallo la transferencia\") */\n            tag_37:\n                /* \"contracts/Tenant.sol\":1132:1158  ExpensesPaid(servicePrice) */\n              0x56e1cf8a52e84572ff49b950fa9a1a1867319bf8eba3bf8c77bc4354678a34c5\n                /* \"contracts/Tenant.sol\":1145:1157  servicePrice */\n              sload(0x02)\n                /* \"contracts/Tenant.sol\":1132:1158  ExpensesPaid(servicePrice) */\n              mload(0x40)\n              tag_40\n              swap2\n                /* \"#utility.yul\":391:416   */\n              dup2\n              mstore\n                /* \"#utility.yul\":379:381   */\n              0x20\n                /* \"#utility.yul\":364:382   */\n              add\n              swap1\n                /* \"#utility.yul\":245:422   */\n              jump\n                /* \"contracts/Tenant.sol\":1132:1158  ExpensesPaid(servicePrice) */\n            tag_40:\n              mload(0x40)\n              dup1\n              swap2\n              sub\n              swap1\n              log1\n                /* \"contracts/Tenant.sol\":880:1166  {... */\n              pop\n                /* \"contracts/Tenant.sol\":850:1166  function payExpenses() public {... */\n              jump\t// out\n\n            auxdata: 0xa2646970667358221220e25ddc26ba7928058349eed3aa390545adc794c87743581e7d2764cbff49820a64736f6c63430008110033\n        }\n    }\n\n    auxdata: 0xa264697066735822122075352ebbe74dff2d772271b5f8a8e49269531aee58b33bc2178fa9eb12dc052964736f6c63430008110033\n}\n",
				"bytecode": {
					"linkReferences": {},
					"object": "608060405234801561001057600080fd5b50610033610025640100000000610038810204565b64010000000061003c810204565b61008c565b3390565b60008054600160a060020a03838116600160a060020a0319831681178455604051919092169283917f8be0079c531659141344cd1fd0a4f28419497f9722a3daafe3b4186f6b6457e09190a35050565b6114e18061009b6000396000f3fe608060405260043610620000c4576000357c0100000000000000000000000000000000000000000000000000000000900480637ca2e65611620000865780637ca2e656146200016a5780638da5cb5b1462000193578063cc0395bf14620001b3578063cd7d77c514620001d8578063ec3ab27414620000f3578063f2fde38b14620001fd57005b806340f851e214620000ce57806342e36b3b14620000f35780636f9fb98a146200010b578063715018a6146200012d57806372673e31146200014557005b36620000cc57005b005b348015620000db57600080fd5b50620000cc620000ed36600462000608565b62000222565b3480156200010057600080fd5b50620000cc620002b2565b3480156200011857600080fd5b50604051303181526020015b60405180910390f35b3480156200013a57600080fd5b50620000cc620002be565b3480156200015257600080fd5b50620000cc62000164366004620006ad565b620002d4565b3480156200017757600080fd5b50305b604051600160a060020a03909116815260200162000124565b348015620001a057600080fd5b50600054600160a060020a03166200017a565b348015620001c057600080fd5b50620000cc620001d2366004620006f6565b6200034b565b348015620001e557600080fd5b50620000cc620001f736600462000762565b6200037a565b3480156200020a57600080fd5b50620000cc6200021c3660046200077c565b62000387565b6200022c62000438565b60018484848460405162000240906200050b565b6200024f9493929190620007e9565b604051809103906000f0801580156200026c573d6000803e3d6000fd5b50815460018101835560009283526020909220909101805473ffffffffffffffffffffffffffffffffffffffff1916600160a060020a0390921691909117905550505050565b620002bc62000438565b565b620002c862000438565b620002bc6000620004ae565b620002de62000438565b604080518082019091528281526020810182905260038054600181018255600091909152815160029091027fc2575a0e9e593c00f959f8c92f12db2869c3395a3b0502d05e2516446f71f85b019081906200033a9082620008ea565b506020820151816001015550505050565b6200035562000438565b600284848484306040516200036a9062000519565b6200024f959493929190620009bd565b6200038462000438565b50565b6200039162000438565b600160a060020a0381166200042d576040517f08c379a000000000000000000000000000000000000000000000000000000000815260206004820152602660248201527f4f776e61626c653a206e6577206f776e657220697320746865207a65726f206160448201527f646472657373000000000000000000000000000000000000000000000000000060648201526084015b60405180910390fd5b6200038481620004ae565b600054600160a060020a03163314620002bc576040517f08c379a000000000000000000000000000000000000000000000000000000000815260206004820181905260248201527f4f776e61626c653a2063616c6c6572206973206e6f7420746865206f776e6572604482015260640162000424565b60008054600160a060020a0383811673ffffffffffffffffffffffffffffffffffffffff19831681178455604051919092169283917f8be0079c531659141344cd1fd0a4f28419497f9722a3daafe3b4186f6b6457e09190a35050565b6104468062000a1383390190565b6106538062000e5983390190565b7f4e487b7100000000000000000000000000000000000000000000000000000000600052604160045260246000fd5b600082601f8301126200056857600080fd5b813567ffffffffffffffff8082111562000586576200058662000527565b604051601f8301601f19908116603f01168101908282118183101715620005b157620005b162000527565b81604052838152866020858801011115620005cb57600080fd5b836020870160208301376000602085830101528094505050505092915050565b8035600160a060020a03811681146200060357600080fd5b919050565b600080600080608085870312156200061f57600080fd5b843567ffffffffffffffff808211156200063857600080fd5b620006468883890162000556565b95506200065660208801620005eb565b945060408701359150808211156200066d57600080fd5b6200067b8883890162000556565b935060608701359150808211156200069257600080fd5b50620006a18782880162000556565b91505092959194509250565b60008060408385031215620006c157600080fd5b823567ffffffffffffffff811115620006d957600080fd5b620006e78582860162000556565b95602094909401359450505050565b600080600080608085870312156200070d57600080fd5b843567ffffffffffffffff808211156200072657600080fd5b620007348883890162000556565b95506200074460208801620005eb565b94506040870135935060608701359150808211156200069257600080fd5b6000602082840312156200077557600080fd5b5035919050565b6000602082840312156200078f57600080fd5b6200079a82620005eb565b9392505050565b6000815180845260005b81811015620007c957602081850181015186830182015201620007ab565b506000602082860101526020601f19601f83011685010191505092915050565b608081526000620007fe6080830187620007a1565b600160a060020a03861660208401528281036040840152620008218186620007a1565b90508281036060840152620008378185620007a1565b979650505050505050565b6002810460018216806200085757607f821691505b60208210810362000891577f4e487b7100000000000000000000000000000000000000000000000000000000600052602260045260246000fd5b50919050565b601f821115620008e5576000818152602081206020601f86010481016020861015620008c05750805b6020601f860104820191505b81811015620008e157828155600101620008cc565b5050505b505050565b815167ffffffffffffffff81111562000907576200090762000527565b6200091f8162000918845462000842565b8462000897565b602080601f8311600181146200095b57600084156200093e5750858301515b60028086026008870290910a6000190419821617865550620008e1565b600085815260208120601f198616915b828110156200098c578886015182559484019460019091019084016200096b565b5085821015620009ad57878501516008601f88160260020a60001904191681555b5050505050600202600101905550565b60a081526000620009d260a0830188620007a1565b600160a060020a0380881660208501528660408501528382036060850152620009fc8287620007a1565b925080851660808501525050969550505050505056fe608060405234801561001057600080fd5b5060405161044638038061044683398101604081905261002f91610156565b8383600061003d83826102a0565b5060018054600160a060020a031916600160a060020a039290921691909117905550600261006b83826102a0565b50600361007882826102a0565b5050505050610365565b7f4e487b7100000000000000000000000000000000000000000000000000000000600052604160045260246000fd5b600082601f8301126100c257600080fd5b81516001604060020a03808211156100dc576100dc610082565b604051601f8301601f19908116603f0116810190828211818310171561010457610104610082565b8160405283815260209250868385880101111561012057600080fd5b600091505b838210156101425785820183015181830184015290820190610125565b600093810190920192909252949350505050565b6000806000806080858703121561016c57600080fd5b84516001604060020a038082111561018357600080fd5b61018f888389016100b1565b60208801519096509150600160a060020a03821682146101ae57600080fd5b6040870151919450808211156101c357600080fd5b6101cf888389016100b1565b935060608701519150808211156101e557600080fd5b506101f2878288016100b1565b91505092959194509250565b60028104600182168061021257607f821691505b60208210810361024b577f4e487b7100000000000000000000000000000000000000000000000000000000600052602260045260246000fd5b50919050565b601f82111561029b576000818152602081206020601f860104810160208610156102785750805b6020601f860104820191505b8181101561029757828155600101610284565b5050505b505050565b81516001604060020a038111156102b9576102b9610082565b6102cd816102c784546101fe565b84610251565b602080601f83116001811461030657600084156102ea5750858301515b60028086026008870290910a6000190419821617865550610297565b600085815260208120601f198616915b8281101561033557888601518255948401946001909101908401610316565b508582101561035557878501516008601f88160260020a60001904191681555b5050505050600202600101905550565b60d3806103736000396000f3fe6080604052348015600f57600080fd5b5060043610604e577c010000000000000000000000000000000000000000000000000000000060003504631581b60081146053578063d4e9329214609b575b600080fd5b60015460729073ffffffffffffffffffffffffffffffffffffffff1681565b60405173ffffffffffffffffffffffffffffffffffffffff909116815260200160405180910390f35b00fea26469706673582212200393489b4d8264f547af4c078ebc42daffbf7a0bc6e7c6e4fb6a05e9289370ce64736f6c6343000811003360806040526040516106533803806106538339810160408190526100229161017e565b8484600061003083826102ae565b5060018054600160a060020a031916600160a060020a0392909216919091179055506002839055600361006383826102ae565b5060048054600160a060020a031916600160a060020a03929092169190911790555061037392505050565b7f4e487b7100000000000000000000000000000000000000000000000000000000600052604160045260246000fd5b600082601f8301126100ce57600080fd5b81516001604060020a03808211156100e8576100e861008e565b604051601f8301601f19908116603f011681019082821181831017156101105761011061008e565b8160405283815260209250868385880101111561012c57600080fd5b600091505b8382101561014e5785820183015181830184015290820190610131565b600093810190920192909252949350505050565b8051600160a060020a038116811461017957600080fd5b919050565b600080600080600060a0868803121561019657600080fd5b85516001604060020a03808211156101ad57600080fd5b6101b989838a016100bd565b96506101c760208901610162565b95506040880151945060608801519150808211156101e457600080fd5b506101f1888289016100bd565b92505061020060808701610162565b90509295509295909350565b60028104600182168061022057607f821691505b602082108103610259577f4e487b7100000000000000000000000000000000000000000000000000000000600052602260045260246000fd5b50919050565b601f8211156102a9576000818152602081206020601f860104810160208610156102865750805b6020601f860104820191505b818110156102a557828155600101610292565b5050505b505050565b81516001604060020a038111156102c7576102c761008e565b6102db816102d5845461020c565b8461025f565b602080601f83116001811461031457600084156102f85750858301515b60028086026008870290910a60001904198216178655506102a5565b600085815260208120601f198616915b8281101561034357888601518255948401946001909101908401610324565b508582101561036357878501516008601f88160260020a60001904191681555b5050505050600202600101905550565b6102d1806103826000396000f3fe60806040526004361061005c577c010000000000000000000000000000000000000000000000000000000060003504631581b6008114610065578063d0e30db0146100bb578063d4e93292146100c3578063da6e75c2146100cf57005b3661006357005b005b34801561007157600080fd5b506001546100929073ffffffffffffffffffffffffffffffffffffffff1681565b60405173ffffffffffffffffffffffffffffffffffffffff909116815260200160405180910390f35b6100636100e4565b34801561006357600080fd5b3480156100db57600080fd5b50610063610119565b6040513481527f0a34e3d4f1e6b837dbce1011b61499fa1a483a0abee6a7a6697660b4b2d971329060200160405180910390a1565b6002543031101561018b576040517f08c379a000000000000000000000000000000000000000000000000000000000815260206004820152601460248201527f466f6e646f7320696e737566696369656e74657300000000000000000000000060448201526064015b60405180910390fd5b60045460025460405160009273ffffffffffffffffffffffffffffffffffffffff1691908381818185875af1925050503d80600081146101e7576040519150601f19603f3d011682016040523d82523d6000602084013e6101ec565b606091505b509091505060018115151461025d576040517f08c379a000000000000000000000000000000000000000000000000000000000815260206004820152601660248201527f46616c6c6f206c61207472616e73666572656e636961000000000000000000006044820152606401610182565b7f56e1cf8a52e84572ff49b950fa9a1a1867319bf8eba3bf8c77bc4354678a34c560025460405161029091815260200190565b60405180910390a15056fea2646970667358221220e25ddc26ba7928058349eed3aa390545adc794c87743581e7d2764cbff49820a64736f6c63430008110033a264697066735822122075352ebbe74dff2d772271b5f8a8e49269531aee58b33bc2178fa9eb12dc052964736f6c63430008110033",
					"opcodes": "PUSH1 0x80 PUSH1 0x40 MSTORE CALLVALUE DUP1 ISZERO PUSH2 0x10 JUMPI PUSH1 0x0 DUP1 REVERT JUMPDEST POP PUSH2 0x33 PUSH2 0x25 PUSH5 0x100000000 PUSH2 0x38 DUP2 MUL DIV JUMP JUMPDEST PUSH5 0x100000000 PUSH2 0x3C DUP2 MUL DIV JUMP JUMPDEST PUSH2 0x8C JUMP JUMPDEST CALLER SWAP1 JUMP JUMPDEST PUSH1 0x0 DUP1 SLOAD PUSH1 0x1 PUSH1 0xA0 PUSH1 0x2 EXP SUB DUP4 DUP2 AND PUSH1 0x1 PUSH1 0xA0 PUSH1 0x2 EXP SUB NOT DUP4 AND DUP2 OR DUP5 SSTORE PUSH1 0x40 MLOAD SWAP2 SWAP1 SWAP3 AND SWAP3 DUP4 SWAP2 PUSH32 0x8BE0079C531659141344CD1FD0A4F28419497F9722A3DAAFE3B4186F6B6457E0 SWAP2 SWAP1 LOG3 POP POP JUMP JUMPDEST PUSH2 0x14E1 DUP1 PUSH2 0x9B PUSH1 0x0 CODECOPY PUSH1 0x0 RETURN INVALID PUSH1 0x80 PUSH1 0x40 MSTORE PUSH1 0x4 CALLDATASIZE LT PUSH3 0xC4 JUMPI PUSH1 0x0 CALLDATALOAD PUSH29 0x100000000000000000000000000000000000000000000000000000000 SWAP1 DIV DUP1 PUSH4 0x7CA2E656 GT PUSH3 0x86 JUMPI DUP1 PUSH4 0x7CA2E656 EQ PUSH3 0x16A JUMPI DUP1 PUSH4 0x8DA5CB5B EQ PUSH3 0x193 JUMPI DUP1 PUSH4 0xCC0395BF EQ PUSH3 0x1B3 JUMPI DUP1 PUSH4 0xCD7D77C5 EQ PUSH3 0x1D8 JUMPI DUP1 PUSH4 0xEC3AB274 EQ PUSH3 0xF3 JUMPI DUP1 PUSH4 0xF2FDE38B EQ PUSH3 0x1FD JUMPI STOP JUMPDEST DUP1 PUSH4 0x40F851E2 EQ PUSH3 0xCE JUMPI DUP1 PUSH4 0x42E36B3B EQ PUSH3 0xF3 JUMPI DUP1 PUSH4 0x6F9FB98A EQ PUSH3 0x10B JUMPI DUP1 PUSH4 0x715018A6 EQ PUSH3 0x12D JUMPI DUP1 PUSH4 0x72673E31 EQ PUSH3 0x145 JUMPI STOP JUMPDEST CALLDATASIZE PUSH3 0xCC JUMPI STOP JUMPDEST STOP JUMPDEST CALLVALUE DUP1 ISZERO PUSH3 0xDB JUMPI PUSH1 0x0 DUP1 REVERT JUMPDEST POP PUSH3 0xCC PUSH3 0xED CALLDATASIZE PUSH1 0x4 PUSH3 0x608 JUMP JUMPDEST PUSH3 0x222 JUMP JUMPDEST CALLVALUE DUP1 ISZERO PUSH3 0x100 JUMPI PUSH1 0x0 DUP1 REVERT JUMPDEST POP PUSH3 0xCC PUSH3 0x2B2 JUMP JUMPDEST CALLVALUE DUP1 ISZERO PUSH3 0x118 JUMPI PUSH1 0x0 DUP1 REVERT JUMPDEST POP PUSH1 0x40 MLOAD ADDRESS BALANCE DUP2 MSTORE PUSH1 0x20 ADD JUMPDEST PUSH1 0x40 MLOAD DUP1 SWAP2 SUB SWAP1 RETURN JUMPDEST CALLVALUE DUP1 ISZERO PUSH3 0x13A JUMPI PUSH1 0x0 DUP1 REVERT JUMPDEST POP PUSH3 0xCC PUSH3 0x2BE JUMP JUMPDEST CALLVALUE DUP1 ISZERO PUSH3 0x152 JUMPI PUSH1 0x0 DUP1 REVERT JUMPDEST POP PUSH3 0xCC PUSH3 0x164 CALLDATASIZE PUSH1 0x4 PUSH3 0x6AD JUMP JUMPDEST PUSH3 0x2D4 JUMP JUMPDEST CALLVALUE DUP1 ISZERO PUSH3 0x177 JUMPI PUSH1 0x0 DUP1 REVERT JUMPDEST POP ADDRESS JUMPDEST PUSH1 0x40 MLOAD PUSH1 0x1 PUSH1 0xA0 PUSH1 0x2 EXP SUB SWAP1 SWAP2 AND DUP2 MSTORE PUSH1 0x20 ADD PUSH3 0x124 JUMP JUMPDEST CALLVALUE DUP1 ISZERO PUSH3 0x1A0 JUMPI PUSH1 0x0 DUP1 REVERT JUMPDEST POP PUSH1 0x0 SLOAD PUSH1 0x1 PUSH1 0xA0 PUSH1 0x2 EXP SUB AND PUSH3 0x17A JUMP JUMPDEST CALLVALUE DUP1 ISZERO PUSH3 0x1C0 JUMPI PUSH1 0x0 DUP1 REVERT JUMPDEST POP PUSH3 0xCC PUSH3 0x1D2 CALLDATASIZE PUSH1 0x4 PUSH3 0x6F6 JUMP JUMPDEST PUSH3 0x34B JUMP JUMPDEST CALLVALUE DUP1 ISZERO PUSH3 0x1E5 JUMPI PUSH1 0x0 DUP1 REVERT JUMPDEST POP PUSH3 0xCC PUSH3 0x1F7 CALLDATASIZE PUSH1 0x4 PUSH3 0x762 JUMP JUMPDEST PUSH3 0x37A JUMP JUMPDEST CALLVALUE DUP1 ISZERO PUSH3 0x20A JUMPI PUSH1 0x0 DUP1 REVERT JUMPDEST POP PUSH3 0xCC PUSH3 0x21C CALLDATASIZE PUSH1 0x4 PUSH3 0x77C JUMP JUMPDEST PUSH3 0x387 JUMP JUMPDEST PUSH3 0x22C PUSH3 0x438 JUMP JUMPDEST PUSH1 0x1 DUP5 DUP5 DUP5 DUP5 PUSH1 0x40 MLOAD PUSH3 0x240 SWAP1 PUSH3 0x50B JUMP JUMPDEST PUSH3 0x24F SWAP5 SWAP4 SWAP3 SWAP2 SWAP1 PUSH3 0x7E9 JUMP JUMPDEST PUSH1 0x40 MLOAD DUP1 SWAP2 SUB SWAP1 PUSH1 0x0 CREATE DUP1 ISZERO DUP1 ISZERO PUSH3 0x26C JUMPI RETURNDATASIZE PUSH1 0x0 DUP1 RETURNDATACOPY RETURNDATASIZE PUSH1 0x0 REVERT JUMPDEST POP DUP2 SLOAD PUSH1 0x1 DUP2 ADD DUP4 SSTORE PUSH1 0x0 SWAP3 DUP4 MSTORE PUSH1 0x20 SWAP1 SWAP3 KECCAK256 SWAP1 SWAP2 ADD DUP1 SLOAD PUSH20 0xFFFFFFFFFFFFFFFFFFFFFFFFFFFFFFFFFFFFFFFF NOT AND PUSH1 0x1 PUSH1 0xA0 PUSH1 0x2 EXP SUB SWAP1 SWAP3 AND SWAP2 SWAP1 SWAP2 OR SWAP1 SSTORE POP POP POP POP JUMP JUMPDEST PUSH3 0x2BC PUSH3 0x438 JUMP JUMPDEST JUMP JUMPDEST PUSH3 0x2C8 PUSH3 0x438 JUMP JUMPDEST PUSH3 0x2BC PUSH1 0x0 PUSH3 0x4AE JUMP JUMPDEST PUSH3 0x2DE PUSH3 0x438 JUMP JUMPDEST PUSH1 0x40 DUP1 MLOAD DUP1 DUP3 ADD SWAP1 SWAP2 MSTORE DUP3 DUP2 MSTORE PUSH1 0x20 DUP2 ADD DUP3 SWAP1 MSTORE PUSH1 0x3 DUP1 SLOAD PUSH1 0x1 DUP2 ADD DUP3 SSTORE PUSH1 0x0 SWAP2 SWAP1 SWAP2 MSTORE DUP2 MLOAD PUSH1 0x2 SWAP1 SWAP2 MUL PUSH32 0xC2575A0E9E593C00F959F8C92F12DB2869C3395A3B0502D05E2516446F71F85B ADD SWAP1 DUP2 SWAP1 PUSH3 0x33A SWAP1 DUP3 PUSH3 0x8EA JUMP JUMPDEST POP PUSH1 0x20 DUP3 ADD MLOAD DUP2 PUSH1 0x1 ADD SSTORE POP POP POP POP JUMP JUMPDEST PUSH3 0x355 PUSH3 0x438 JUMP JUMPDEST PUSH1 0x2 DUP5 DUP5 DUP5 DUP5 ADDRESS PUSH1 0x40 MLOAD PUSH3 0x36A SWAP1 PUSH3 0x519 JUMP JUMPDEST PUSH3 0x24F SWAP6 SWAP5 SWAP4 SWAP3 SWAP2 SWAP1 PUSH3 0x9BD JUMP JUMPDEST PUSH3 0x384 PUSH3 0x438 JUMP JUMPDEST POP JUMP JUMPDEST PUSH3 0x391 PUSH3 0x438 JUMP JUMPDEST PUSH1 0x1 PUSH1 0xA0 PUSH1 0x2 EXP SUB DUP2 AND PUSH3 0x42D JUMPI PUSH1 0x40 MLOAD PUSH32 0x8C379A000000000000000000000000000000000000000000000000000000000 DUP2 MSTORE PUSH1 0x20 PUSH1 0x4 DUP3 ADD MSTORE PUSH1 0x26 PUSH1 0x24 DUP3 ADD MSTORE PUSH32 0x4F776E61626C653A206E6577206F776E657220697320746865207A65726F2061 PUSH1 0x44 DUP3 ADD MSTORE PUSH32 0x6464726573730000000000000000000000000000000000000000000000000000 PUSH1 0x64 DUP3 ADD MSTORE PUSH1 0x84 ADD JUMPDEST PUSH1 0x40 MLOAD DUP1 SWAP2 SUB SWAP1 REVERT JUMPDEST PUSH3 0x384 DUP2 PUSH3 0x4AE JUMP JUMPDEST PUSH1 0x0 SLOAD PUSH1 0x1 PUSH1 0xA0 PUSH1 0x2 EXP SUB AND CALLER EQ PUSH3 0x2BC JUMPI PUSH1 0x40 MLOAD PUSH32 0x8C379A000000000000000000000000000000000000000000000000000000000 DUP2 MSTORE PUSH1 0x20 PUSH1 0x4 DUP3 ADD DUP2 SWAP1 MSTORE PUSH1 0x24 DUP3 ADD MSTORE PUSH32 0x4F776E61626C653A2063616C6C6572206973206E6F7420746865206F776E6572 PUSH1 0x44 DUP3 ADD MSTORE PUSH1 0x64 ADD PUSH3 0x424 JUMP JUMPDEST PUSH1 0x0 DUP1 SLOAD PUSH1 0x1 PUSH1 0xA0 PUSH1 0x2 EXP SUB DUP4 DUP2 AND PUSH20 0xFFFFFFFFFFFFFFFFFFFFFFFFFFFFFFFFFFFFFFFF NOT DUP4 AND DUP2 OR DUP5 SSTORE PUSH1 0x40 MLOAD SWAP2 SWAP1 SWAP3 AND SWAP3 DUP4 SWAP2 PUSH32 0x8BE0079C531659141344CD1FD0A4F28419497F9722A3DAAFE3B4186F6B6457E0 SWAP2 SWAP1 LOG3 POP POP JUMP JUMPDEST PUSH2 0x446 DUP1 PUSH3 0xA13 DUP4 CODECOPY ADD SWAP1 JUMP JUMPDEST PUSH2 0x653 DUP1 PUSH3 0xE59 DUP4 CODECOPY ADD SWAP1 JUMP JUMPDEST PUSH32 0x4E487B7100000000000000000000000000000000000000000000000000000000 PUSH1 0x0 MSTORE PUSH1 0x41 PUSH1 0x4 MSTORE PUSH1 0x24 PUSH1 0x0 REVERT JUMPDEST PUSH1 0x0 DUP3 PUSH1 0x1F DUP4 ADD SLT PUSH3 0x568 JUMPI PUSH1 0x0 DUP1 REVERT JUMPDEST DUP2 CALLDATALOAD PUSH8 0xFFFFFFFFFFFFFFFF DUP1 DUP3 GT ISZERO PUSH3 0x586 JUMPI PUSH3 0x586 PUSH3 0x527 JUMP JUMPDEST PUSH1 0x40 MLOAD PUSH1 0x1F DUP4 ADD PUSH1 0x1F NOT SWAP1 DUP2 AND PUSH1 0x3F ADD AND DUP2 ADD SWAP1 DUP3 DUP3 GT DUP2 DUP4 LT OR ISZERO PUSH3 0x5B1 JUMPI PUSH3 0x5B1 PUSH3 0x527 JUMP JUMPDEST DUP2 PUSH1 0x40 MSTORE DUP4 DUP2 MSTORE DUP7 PUSH1 0x20 DUP6 DUP9 ADD ADD GT ISZERO PUSH3 0x5CB JUMPI PUSH1 0x0 DUP1 REVERT JUMPDEST DUP4 PUSH1 0x20 DUP8 ADD PUSH1 0x20 DUP4 ADD CALLDATACOPY PUSH1 0x0 PUSH1 0x20 DUP6 DUP4 ADD ADD MSTORE DUP1 SWAP5 POP POP POP POP POP SWAP3 SWAP2 POP POP JUMP JUMPDEST DUP1 CALLDATALOAD PUSH1 0x1 PUSH1 0xA0 PUSH1 0x2 EXP SUB DUP2 AND DUP2 EQ PUSH3 0x603 JUMPI PUSH1 0x0 DUP1 REVERT JUMPDEST SWAP2 SWAP1 POP JUMP JUMPDEST PUSH1 0x0 DUP1 PUSH1 0x0 DUP1 PUSH1 0x80 DUP6 DUP8 SUB SLT ISZERO PUSH3 0x61F JUMPI PUSH1 0x0 DUP1 REVERT JUMPDEST DUP5 CALLDATALOAD PUSH8 0xFFFFFFFFFFFFFFFF DUP1 DUP3 GT ISZERO PUSH3 0x638 JUMPI PUSH1 0x0 DUP1 REVERT JUMPDEST PUSH3 0x646 DUP9 DUP4 DUP10 ADD PUSH3 0x556 JUMP JUMPDEST SWAP6 POP PUSH3 0x656 PUSH1 0x20 DUP9 ADD PUSH3 0x5EB JUMP JUMPDEST SWAP5 POP PUSH1 0x40 DUP8 ADD CALLDATALOAD SWAP2 POP DUP1 DUP3 GT ISZERO PUSH3 0x66D JUMPI PUSH1 0x0 DUP1 REVERT JUMPDEST PUSH3 0x67B DUP9 DUP4 DUP10 ADD PUSH3 0x556 JUMP JUMPDEST SWAP4 POP PUSH1 0x60 DUP8 ADD CALLDATALOAD SWAP2 POP DUP1 DUP3 GT ISZERO PUSH3 0x692 JUMPI PUSH1 0x0 DUP1 REVERT JUMPDEST POP PUSH3 0x6A1 DUP8 DUP3 DUP9 ADD PUSH3 0x556 JUMP JUMPDEST SWAP2 POP POP SWAP3 SWAP6 SWAP2 SWAP5 POP SWAP3 POP JUMP JUMPDEST PUSH1 0x0 DUP1 PUSH1 0x40 DUP4 DUP6 SUB SLT ISZERO PUSH3 0x6C1 JUMPI PUSH1 0x0 DUP1 REVERT JUMPDEST DUP3 CALLDATALOAD PUSH8 0xFFFFFFFFFFFFFFFF DUP2 GT ISZERO PUSH3 0x6D9 JUMPI PUSH1 0x0 DUP1 REVERT JUMPDEST PUSH3 0x6E7 DUP6 DUP3 DUP7 ADD PUSH3 0x556 JUMP JUMPDEST SWAP6 PUSH1 0x20 SWAP5 SWAP1 SWAP5 ADD CALLDATALOAD SWAP5 POP POP POP POP JUMP JUMPDEST PUSH1 0x0 DUP1 PUSH1 0x0 DUP1 PUSH1 0x80 DUP6 DUP8 SUB SLT ISZERO PUSH3 0x70D JUMPI PUSH1 0x0 DUP1 REVERT JUMPDEST DUP5 CALLDATALOAD PUSH8 0xFFFFFFFFFFFFFFFF DUP1 DUP3 GT ISZERO PUSH3 0x726 JUMPI PUSH1 0x0 DUP1 REVERT JUMPDEST PUSH3 0x734 DUP9 DUP4 DUP10 ADD PUSH3 0x556 JUMP JUMPDEST SWAP6 POP PUSH3 0x744 PUSH1 0x20 DUP9 ADD PUSH3 0x5EB JUMP JUMPDEST SWAP5 POP PUSH1 0x40 DUP8 ADD CALLDATALOAD SWAP4 POP PUSH1 0x60 DUP8 ADD CALLDATALOAD SWAP2 POP DUP1 DUP3 GT ISZERO PUSH3 0x692 JUMPI PUSH1 0x0 DUP1 REVERT JUMPDEST PUSH1 0x0 PUSH1 0x20 DUP3 DUP5 SUB SLT ISZERO PUSH3 0x775 JUMPI PUSH1 0x0 DUP1 REVERT JUMPDEST POP CALLDATALOAD SWAP2 SWAP1 POP JUMP JUMPDEST PUSH1 0x0 PUSH1 0x20 DUP3 DUP5 SUB SLT ISZERO PUSH3 0x78F JUMPI PUSH1 0x0 DUP1 REVERT JUMPDEST PUSH3 0x79A DUP3 PUSH3 0x5EB JUMP JUMPDEST SWAP4 SWAP3 POP POP POP JUMP JUMPDEST PUSH1 0x0 DUP2 MLOAD DUP1 DUP5 MSTORE PUSH1 0x0 JUMPDEST DUP2 DUP2 LT ISZERO PUSH3 0x7C9 JUMPI PUSH1 0x20 DUP2 DUP6 ADD DUP2 ADD MLOAD DUP7 DUP4 ADD DUP3 ADD MSTORE ADD PUSH3 0x7AB JUMP JUMPDEST POP PUSH1 0x0 PUSH1 0x20 DUP3 DUP7 ADD ADD MSTORE PUSH1 0x20 PUSH1 0x1F NOT PUSH1 0x1F DUP4 ADD AND DUP6 ADD ADD SWAP2 POP POP SWAP3 SWAP2 POP POP JUMP JUMPDEST PUSH1 0x80 DUP2 MSTORE PUSH1 0x0 PUSH3 0x7FE PUSH1 0x80 DUP4 ADD DUP8 PUSH3 0x7A1 JUMP JUMPDEST PUSH1 0x1 PUSH1 0xA0 PUSH1 0x2 EXP SUB DUP7 AND PUSH1 0x20 DUP5 ADD MSTORE DUP3 DUP2 SUB PUSH1 0x40 DUP5 ADD MSTORE PUSH3 0x821 DUP2 DUP7 PUSH3 0x7A1 JUMP JUMPDEST SWAP1 POP DUP3 DUP2 SUB PUSH1 0x60 DUP5 ADD MSTORE PUSH3 0x837 DUP2 DUP6 PUSH3 0x7A1 JUMP JUMPDEST SWAP8 SWAP7 POP POP POP POP POP POP POP JUMP JUMPDEST PUSH1 0x2 DUP2 DIV PUSH1 0x1 DUP3 AND DUP1 PUSH3 0x857 JUMPI PUSH1 0x7F DUP3 AND SWAP2 POP JUMPDEST PUSH1 0x20 DUP3 LT DUP2 SUB PUSH3 0x891 JUMPI PUSH32 0x4E487B7100000000000000000000000000000000000000000000000000000000 PUSH1 0x0 MSTORE PUSH1 0x22 PUSH1 0x4 MSTORE PUSH1 0x24 PUSH1 0x0 REVERT JUMPDEST POP SWAP2 SWAP1 POP JUMP JUMPDEST PUSH1 0x1F DUP3 GT ISZERO PUSH3 0x8E5 JUMPI PUSH1 0x0 DUP2 DUP2 MSTORE PUSH1 0x20 DUP2 KECCAK256 PUSH1 0x20 PUSH1 0x1F DUP7 ADD DIV DUP2 ADD PUSH1 0x20 DUP7 LT ISZERO PUSH3 0x8C0 JUMPI POP DUP1 JUMPDEST PUSH1 0x20 PUSH1 0x1F DUP7 ADD DIV DUP3 ADD SWAP2 POP JUMPDEST DUP2 DUP2 LT ISZERO PUSH3 0x8E1 JUMPI DUP3 DUP2 SSTORE PUSH1 0x1 ADD PUSH3 0x8CC JUMP JUMPDEST POP POP POP JUMPDEST POP POP POP JUMP JUMPDEST DUP2 MLOAD PUSH8 0xFFFFFFFFFFFFFFFF DUP2 GT ISZERO PUSH3 0x907 JUMPI PUSH3 0x907 PUSH3 0x527 JUMP JUMPDEST PUSH3 0x91F DUP2 PUSH3 0x918 DUP5 SLOAD PUSH3 0x842 JUMP JUMPDEST DUP5 PUSH3 0x897 JUMP JUMPDEST PUSH1 0x20 DUP1 PUSH1 0x1F DUP4 GT PUSH1 0x1 DUP2 EQ PUSH3 0x95B JUMPI PUSH1 0x0 DUP5 ISZERO PUSH3 0x93E JUMPI POP DUP6 DUP4 ADD MLOAD JUMPDEST PUSH1 0x2 DUP1 DUP7 MUL PUSH1 0x8 DUP8 MUL SWAP1 SWAP2 EXP PUSH1 0x0 NOT DIV NOT DUP3 AND OR DUP7 SSTORE POP PUSH3 0x8E1 JUMP JUMPDEST PUSH1 0x0 DUP6 DUP2 MSTORE PUSH1 0x20 DUP2 KECCAK256 PUSH1 0x1F NOT DUP7 AND SWAP2 JUMPDEST DUP3 DUP2 LT ISZERO PUSH3 0x98C JUMPI DUP9 DUP7 ADD MLOAD DUP3 SSTORE SWAP5 DUP5 ADD SWAP5 PUSH1 0x1 SWAP1 SWAP2 ADD SWAP1 DUP5 ADD PUSH3 0x96B JUMP JUMPDEST POP DUP6 DUP3 LT ISZERO PUSH3 0x9AD JUMPI DUP8 DUP6 ADD MLOAD PUSH1 0x8 PUSH1 0x1F DUP9 AND MUL PUSH1 0x2 EXP PUSH1 0x0 NOT DIV NOT AND DUP2 SSTORE JUMPDEST POP POP POP POP POP PUSH1 0x2 MUL PUSH1 0x1 ADD SWAP1 SSTORE POP JUMP JUMPDEST PUSH1 0xA0 DUP2 MSTORE PUSH1 0x0 PUSH3 0x9D2 PUSH1 0xA0 DUP4 ADD DUP9 PUSH3 0x7A1 JUMP JUMPDEST PUSH1 0x1 PUSH1 0xA0 PUSH1 0x2 EXP SUB DUP1 DUP9 AND PUSH1 0x20 DUP6 ADD MSTORE DUP7 PUSH1 0x40 DUP6 ADD MSTORE DUP4 DUP3 SUB PUSH1 0x60 DUP6 ADD MSTORE PUSH3 0x9FC DUP3 DUP8 PUSH3 0x7A1 JUMP JUMPDEST SWAP3 POP DUP1 DUP6 AND PUSH1 0x80 DUP6 ADD MSTORE POP POP SWAP7 SWAP6 POP POP POP POP POP POP JUMP INVALID PUSH1 0x80 PUSH1 0x40 MSTORE CALLVALUE DUP1 ISZERO PUSH2 0x10 JUMPI PUSH1 0x0 DUP1 REVERT JUMPDEST POP PUSH1 0x40 MLOAD PUSH2 0x446 CODESIZE SUB DUP1 PUSH2 0x446 DUP4 CODECOPY DUP2 ADD PUSH1 0x40 DUP2 SWAP1 MSTORE PUSH2 0x2F SWAP2 PUSH2 0x156 JUMP JUMPDEST DUP4 DUP4 PUSH1 0x0 PUSH2 0x3D DUP4 DUP3 PUSH2 0x2A0 JUMP JUMPDEST POP PUSH1 0x1 DUP1 SLOAD PUSH1 0x1 PUSH1 0xA0 PUSH1 0x2 EXP SUB NOT AND PUSH1 0x1 PUSH1 0xA0 PUSH1 0x2 EXP SUB SWAP3 SWAP1 SWAP3 AND SWAP2 SWAP1 SWAP2 OR SWAP1 SSTORE POP PUSH1 0x2 PUSH2 0x6B DUP4 DUP3 PUSH2 0x2A0 JUMP JUMPDEST POP PUSH1 0x3 PUSH2 0x78 DUP3 DUP3 PUSH2 0x2A0 JUMP JUMPDEST POP POP POP POP POP PUSH2 0x365 JUMP JUMPDEST PUSH32 0x4E487B7100000000000000000000000000000000000000000000000000000000 PUSH1 0x0 MSTORE PUSH1 0x41 PUSH1 0x4 MSTORE PUSH1 0x24 PUSH1 0x0 REVERT JUMPDEST PUSH1 0x0 DUP3 PUSH1 0x1F DUP4 ADD SLT PUSH2 0xC2 JUMPI PUSH1 0x0 DUP1 REVERT JUMPDEST DUP2 MLOAD PUSH1 0x1 PUSH1 0x40 PUSH1 0x2 EXP SUB DUP1 DUP3 GT ISZERO PUSH2 0xDC JUMPI PUSH2 0xDC PUSH2 0x82 JUMP JUMPDEST PUSH1 0x40 MLOAD PUSH1 0x1F DUP4 ADD PUSH1 0x1F NOT SWAP1 DUP2 AND PUSH1 0x3F ADD AND DUP2 ADD SWAP1 DUP3 DUP3 GT DUP2 DUP4 LT OR ISZERO PUSH2 0x104 JUMPI PUSH2 0x104 PUSH2 0x82 JUMP JUMPDEST DUP2 PUSH1 0x40 MSTORE DUP4 DUP2 MSTORE PUSH1 0x20 SWAP3 POP DUP7 DUP4 DUP6 DUP9 ADD ADD GT ISZERO PUSH2 0x120 JUMPI PUSH1 0x0 DUP1 REVERT JUMPDEST PUSH1 0x0 SWAP2 POP JUMPDEST DUP4 DUP3 LT ISZERO PUSH2 0x142 JUMPI DUP6 DUP3 ADD DUP4 ADD MLOAD DUP2 DUP4 ADD DUP5 ADD MSTORE SWAP1 DUP3 ADD SWAP1 PUSH2 0x125 JUMP JUMPDEST PUSH1 0x0 SWAP4 DUP2 ADD SWAP1 SWAP3 ADD SWAP3 SWAP1 SWAP3 MSTORE SWAP5 SWAP4 POP POP POP POP JUMP JUMPDEST PUSH1 0x0 DUP1 PUSH1 0x0 DUP1 PUSH1 0x80 DUP6 DUP8 SUB SLT ISZERO PUSH2 0x16C JUMPI PUSH1 0x0 DUP1 REVERT JUMPDEST DUP5 MLOAD PUSH1 0x1 PUSH1 0x40 PUSH1 0x2 EXP SUB DUP1 DUP3 GT ISZERO PUSH2 0x183 JUMPI PUSH1 0x0 DUP1 REVERT JUMPDEST PUSH2 0x18F DUP9 DUP4 DUP10 ADD PUSH2 0xB1 JUMP JUMPDEST PUSH1 0x20 DUP9 ADD MLOAD SWAP1 SWAP7 POP SWAP2 POP PUSH1 0x1 PUSH1 0xA0 PUSH1 0x2 EXP SUB DUP3 AND DUP3 EQ PUSH2 0x1AE JUMPI PUSH1 0x0 DUP1 REVERT JUMPDEST PUSH1 0x40 DUP8 ADD MLOAD SWAP2 SWAP5 POP DUP1 DUP3 GT ISZERO PUSH2 0x1C3 JUMPI PUSH1 0x0 DUP1 REVERT JUMPDEST PUSH2 0x1CF DUP9 DUP4 DUP10 ADD PUSH2 0xB1 JUMP JUMPDEST SWAP4 POP PUSH1 0x60 DUP8 ADD MLOAD SWAP2 POP DUP1 DUP3 GT ISZERO PUSH2 0x1E5 JUMPI PUSH1 0x0 DUP1 REVERT JUMPDEST POP PUSH2 0x1F2 DUP8 DUP3 DUP9 ADD PUSH2 0xB1 JUMP JUMPDEST SWAP2 POP POP SWAP3 SWAP6 SWAP2 SWAP5 POP SWAP3 POP JUMP JUMPDEST PUSH1 0x2 DUP2 DIV PUSH1 0x1 DUP3 AND DUP1 PUSH2 0x212 JUMPI PUSH1 0x7F DUP3 AND SWAP2 POP JUMPDEST PUSH1 0x20 DUP3 LT DUP2 SUB PUSH2 0x24B JUMPI PUSH32 0x4E487B7100000000000000000000000000000000000000000000000000000000 PUSH1 0x0 MSTORE PUSH1 0x22 PUSH1 0x4 MSTORE PUSH1 0x24 PUSH1 0x0 REVERT JUMPDEST POP SWAP2 SWAP1 POP JUMP JUMPDEST PUSH1 0x1F DUP3 GT ISZERO PUSH2 0x29B JUMPI PUSH1 0x0 DUP2 DUP2 MSTORE PUSH1 0x20 DUP2 KECCAK256 PUSH1 0x20 PUSH1 0x1F DUP7 ADD DIV DUP2 ADD PUSH1 0x20 DUP7 LT ISZERO PUSH2 0x278 JUMPI POP DUP1 JUMPDEST PUSH1 0x20 PUSH1 0x1F DUP7 ADD DIV DUP3 ADD SWAP2 POP JUMPDEST DUP2 DUP2 LT ISZERO PUSH2 0x297 JUMPI DUP3 DUP2 SSTORE PUSH1 0x1 ADD PUSH2 0x284 JUMP JUMPDEST POP POP POP JUMPDEST POP POP POP JUMP JUMPDEST DUP2 MLOAD PUSH1 0x1 PUSH1 0x40 PUSH1 0x2 EXP SUB DUP2 GT ISZERO PUSH2 0x2B9 JUMPI PUSH2 0x2B9 PUSH2 0x82 JUMP JUMPDEST PUSH2 0x2CD DUP2 PUSH2 0x2C7 DUP5 SLOAD PUSH2 0x1FE JUMP JUMPDEST DUP5 PUSH2 0x251 JUMP JUMPDEST PUSH1 0x20 DUP1 PUSH1 0x1F DUP4 GT PUSH1 0x1 DUP2 EQ PUSH2 0x306 JUMPI PUSH1 0x0 DUP5 ISZERO PUSH2 0x2EA JUMPI POP DUP6 DUP4 ADD MLOAD JUMPDEST PUSH1 0x2 DUP1 DUP7 MUL PUSH1 0x8 DUP8 MUL SWAP1 SWAP2 EXP PUSH1 0x0 NOT DIV NOT DUP3 AND OR DUP7 SSTORE POP PUSH2 0x297 JUMP JUMPDEST PUSH1 0x0 DUP6 DUP2 MSTORE PUSH1 0x20 DUP2 KECCAK256 PUSH1 0x1F NOT DUP7 AND SWAP2 JUMPDEST DUP3 DUP2 LT ISZERO PUSH2 0x335 JUMPI DUP9 DUP7 ADD MLOAD DUP3 SSTORE SWAP5 DUP5 ADD SWAP5 PUSH1 0x1 SWAP1 SWAP2 ADD SWAP1 DUP5 ADD PUSH2 0x316 JUMP JUMPDEST POP DUP6 DUP3 LT ISZERO PUSH2 0x355 JUMPI DUP8 DUP6 ADD MLOAD PUSH1 0x8 PUSH1 0x1F DUP9 AND MUL PUSH1 0x2 EXP PUSH1 0x0 NOT DIV NOT AND DUP2 SSTORE JUMPDEST POP POP POP POP POP PUSH1 0x2 MUL PUSH1 0x1 ADD SWAP1 SSTORE POP JUMP JUMPDEST PUSH1 0xD3 DUP1 PUSH2 0x373 PUSH1 0x0 CODECOPY PUSH1 0x0 RETURN INVALID PUSH1 0x80 PUSH1 0x40 MSTORE CALLVALUE DUP1 ISZERO PUSH1 0xF JUMPI PUSH1 0x0 DUP1 REVERT JUMPDEST POP PUSH1 0x4 CALLDATASIZE LT PUSH1 0x4E JUMPI PUSH29 0x100000000000000000000000000000000000000000000000000000000 PUSH1 0x0 CALLDATALOAD DIV PUSH4 0x1581B600 DUP2 EQ PUSH1 0x53 JUMPI DUP1 PUSH4 0xD4E93292 EQ PUSH1 0x9B JUMPI JUMPDEST PUSH1 0x0 DUP1 REVERT JUMPDEST PUSH1 0x1 SLOAD PUSH1 0x72 SWAP1 PUSH20 0xFFFFFFFFFFFFFFFFFFFFFFFFFFFFFFFFFFFFFFFF AND DUP2 JUMP JUMPDEST PUSH1 0x40 MLOAD PUSH20 0xFFFFFFFFFFFFFFFFFFFFFFFFFFFFFFFFFFFFFFFF SWAP1 SWAP2 AND DUP2 MSTORE PUSH1 0x20 ADD PUSH1 0x40 MLOAD DUP1 SWAP2 SUB SWAP1 RETURN JUMPDEST STOP INVALID LOG2 PUSH5 0x6970667358 0x22 SLT KECCAK256 SUB SWAP4 BASEFEE SWAP12 0x4D DUP3 PUSH5 0xF547AF4C07 DUP15 0xBC TIMESTAMP 0xDA SELFDESTRUCT 0xBF PUSH27 0xBC6E7C6E4FB6A05E9289370CE64736F6C63430008110033608060 BLOCKHASH MSTORE PUSH1 0x40 MLOAD PUSH2 0x653 CODESIZE SUB DUP1 PUSH2 0x653 DUP4 CODECOPY DUP2 ADD PUSH1 0x40 DUP2 SWAP1 MSTORE PUSH2 0x22 SWAP2 PUSH2 0x17E JUMP JUMPDEST DUP5 DUP5 PUSH1 0x0 PUSH2 0x30 DUP4 DUP3 PUSH2 0x2AE JUMP JUMPDEST POP PUSH1 0x1 DUP1 SLOAD PUSH1 0x1 PUSH1 0xA0 PUSH1 0x2 EXP SUB NOT AND PUSH1 0x1 PUSH1 0xA0 PUSH1 0x2 EXP SUB SWAP3 SWAP1 SWAP3 AND SWAP2 SWAP1 SWAP2 OR SWAP1 SSTORE POP PUSH1 0x2 DUP4 SWAP1 SSTORE PUSH1 0x3 PUSH2 0x63 DUP4 DUP3 PUSH2 0x2AE JUMP JUMPDEST POP PUSH1 0x4 DUP1 SLOAD PUSH1 0x1 PUSH1 0xA0 PUSH1 0x2 EXP SUB NOT AND PUSH1 0x1 PUSH1 0xA0 PUSH1 0x2 EXP SUB SWAP3 SWAP1 SWAP3 AND SWAP2 SWAP1 SWAP2 OR SWAP1 SSTORE POP PUSH2 0x373 SWAP3 POP POP POP JUMP JUMPDEST PUSH32 0x4E487B7100000000000000000000000000000000000000000000000000000000 PUSH1 0x0 MSTORE PUSH1 0x41 PUSH1 0x4 MSTORE PUSH1 0x24 PUSH1 0x0 REVERT JUMPDEST PUSH1 0x0 DUP3 PUSH1 0x1F DUP4 ADD SLT PUSH2 0xCE JUMPI PUSH1 0x0 DUP1 REVERT JUMPDEST DUP2 MLOAD PUSH1 0x1 PUSH1 0x40 PUSH1 0x2 EXP SUB DUP1 DUP3 GT ISZERO PUSH2 0xE8 JUMPI PUSH2 0xE8 PUSH2 0x8E JUMP JUMPDEST PUSH1 0x40 MLOAD PUSH1 0x1F DUP4 ADD PUSH1 0x1F NOT SWAP1 DUP2 AND PUSH1 0x3F ADD AND DUP2 ADD SWAP1 DUP3 DUP3 GT DUP2 DUP4 LT OR ISZERO PUSH2 0x110 JUMPI PUSH2 0x110 PUSH2 0x8E JUMP JUMPDEST DUP2 PUSH1 0x40 MSTORE DUP4 DUP2 MSTORE PUSH1 0x20 SWAP3 POP DUP7 DUP4 DUP6 DUP9 ADD ADD GT ISZERO PUSH2 0x12C JUMPI PUSH1 0x0 DUP1 REVERT JUMPDEST PUSH1 0x0 SWAP2 POP JUMPDEST DUP4 DUP3 LT ISZERO PUSH2 0x14E JUMPI DUP6 DUP3 ADD DUP4 ADD MLOAD DUP2 DUP4 ADD DUP5 ADD MSTORE SWAP1 DUP3 ADD SWAP1 PUSH2 0x131 JUMP JUMPDEST PUSH1 0x0 SWAP4 DUP2 ADD SWAP1 SWAP3 ADD SWAP3 SWAP1 SWAP3 MSTORE SWAP5 SWAP4 POP POP POP POP JUMP JUMPDEST DUP1 MLOAD PUSH1 0x1 PUSH1 0xA0 PUSH1 0x2 EXP SUB DUP2 AND DUP2 EQ PUSH2 0x179 JUMPI PUSH1 0x0 DUP1 REVERT JUMPDEST SWAP2 SWAP1 POP JUMP JUMPDEST PUSH1 0x0 DUP1 PUSH1 0x0 DUP1 PUSH1 0x0 PUSH1 0xA0 DUP7 DUP9 SUB SLT ISZERO PUSH2 0x196 JUMPI PUSH1 0x0 DUP1 REVERT JUMPDEST DUP6 MLOAD PUSH1 0x1 PUSH1 0x40 PUSH1 0x2 EXP SUB DUP1 DUP3 GT ISZERO PUSH2 0x1AD JUMPI PUSH1 0x0 DUP1 REVERT JUMPDEST PUSH2 0x1B9 DUP10 DUP4 DUP11 ADD PUSH2 0xBD JUMP JUMPDEST SWAP7 POP PUSH2 0x1C7 PUSH1 0x20 DUP10 ADD PUSH2 0x162 JUMP JUMPDEST SWAP6 POP PUSH1 0x40 DUP9 ADD MLOAD SWAP5 POP PUSH1 0x60 DUP9 ADD MLOAD SWAP2 POP DUP1 DUP3 GT ISZERO PUSH2 0x1E4 JUMPI PUSH1 0x0 DUP1 REVERT JUMPDEST POP PUSH2 0x1F1 DUP9 DUP3 DUP10 ADD PUSH2 0xBD JUMP JUMPDEST SWAP3 POP POP PUSH2 0x200 PUSH1 0x80 DUP8 ADD PUSH2 0x162 JUMP JUMPDEST SWAP1 POP SWAP3 SWAP6 POP SWAP3 SWAP6 SWAP1 SWAP4 POP JUMP JUMPDEST PUSH1 0x2 DUP2 DIV PUSH1 0x1 DUP3 AND DUP1 PUSH2 0x220 JUMPI PUSH1 0x7F DUP3 AND SWAP2 POP JUMPDEST PUSH1 0x20 DUP3 LT DUP2 SUB PUSH2 0x259 JUMPI PUSH32 0x4E487B7100000000000000000000000000000000000000000000000000000000 PUSH1 0x0 MSTORE PUSH1 0x22 PUSH1 0x4 MSTORE PUSH1 0x24 PUSH1 0x0 REVERT JUMPDEST POP SWAP2 SWAP1 POP JUMP JUMPDEST PUSH1 0x1F DUP3 GT ISZERO PUSH2 0x2A9 JUMPI PUSH1 0x0 DUP2 DUP2 MSTORE PUSH1 0x20 DUP2 KECCAK256 PUSH1 0x20 PUSH1 0x1F DUP7 ADD DIV DUP2 ADD PUSH1 0x20 DUP7 LT ISZERO PUSH2 0x286 JUMPI POP DUP1 JUMPDEST PUSH1 0x20 PUSH1 0x1F DUP7 ADD DIV DUP3 ADD SWAP2 POP JUMPDEST DUP2 DUP2 LT ISZERO PUSH2 0x2A5 JUMPI DUP3 DUP2 SSTORE PUSH1 0x1 ADD PUSH2 0x292 JUMP JUMPDEST POP POP POP JUMPDEST POP POP POP JUMP JUMPDEST DUP2 MLOAD PUSH1 0x1 PUSH1 0x40 PUSH1 0x2 EXP SUB DUP2 GT ISZERO PUSH2 0x2C7 JUMPI PUSH2 0x2C7 PUSH2 0x8E JUMP JUMPDEST PUSH2 0x2DB DUP2 PUSH2 0x2D5 DUP5 SLOAD PUSH2 0x20C JUMP JUMPDEST DUP5 PUSH2 0x25F JUMP JUMPDEST PUSH1 0x20 DUP1 PUSH1 0x1F DUP4 GT PUSH1 0x1 DUP2 EQ PUSH2 0x314 JUMPI PUSH1 0x0 DUP5 ISZERO PUSH2 0x2F8 JUMPI POP DUP6 DUP4 ADD MLOAD JUMPDEST PUSH1 0x2 DUP1 DUP7 MUL PUSH1 0x8 DUP8 MUL SWAP1 SWAP2 EXP PUSH1 0x0 NOT DIV NOT DUP3 AND OR DUP7 SSTORE POP PUSH2 0x2A5 JUMP JUMPDEST PUSH1 0x0 DUP6 DUP2 MSTORE PUSH1 0x20 DUP2 KECCAK256 PUSH1 0x1F NOT DUP7 AND SWAP2 JUMPDEST DUP3 DUP2 LT ISZERO PUSH2 0x343 JUMPI DUP9 DUP7 ADD MLOAD DUP3 SSTORE SWAP5 DUP5 ADD SWAP5 PUSH1 0x1 SWAP1 SWAP2 ADD SWAP1 DUP5 ADD PUSH2 0x324 JUMP JUMPDEST POP DUP6 DUP3 LT ISZERO PUSH2 0x363 JUMPI DUP8 DUP6 ADD MLOAD PUSH1 0x8 PUSH1 0x1F DUP9 AND MUL PUSH1 0x2 EXP PUSH1 0x0 NOT DIV NOT AND DUP2 SSTORE JUMPDEST POP POP POP POP POP PUSH1 0x2 MUL PUSH1 0x1 ADD SWAP1 SSTORE POP JUMP JUMPDEST PUSH2 0x2D1 DUP1 PUSH2 0x382 PUSH1 0x0 CODECOPY PUSH1 0x0 RETURN INVALID PUSH1 0x80 PUSH1 0x40 MSTORE PUSH1 0x4 CALLDATASIZE LT PUSH2 0x5C JUMPI PUSH29 0x100000000000000000000000000000000000000000000000000000000 PUSH1 0x0 CALLDATALOAD DIV PUSH4 0x1581B600 DUP2 EQ PUSH2 0x65 JUMPI DUP1 PUSH4 0xD0E30DB0 EQ PUSH2 0xBB JUMPI DUP1 PUSH4 0xD4E93292 EQ PUSH2 0xC3 JUMPI DUP1 PUSH4 0xDA6E75C2 EQ PUSH2 0xCF JUMPI STOP JUMPDEST CALLDATASIZE PUSH2 0x63 JUMPI STOP JUMPDEST STOP JUMPDEST CALLVALUE DUP1 ISZERO PUSH2 0x71 JUMPI PUSH1 0x0 DUP1 REVERT JUMPDEST POP PUSH1 0x1 SLOAD PUSH2 0x92 SWAP1 PUSH20 0xFFFFFFFFFFFFFFFFFFFFFFFFFFFFFFFFFFFFFFFF AND DUP2 JUMP JUMPDEST PUSH1 0x40 MLOAD PUSH20 0xFFFFFFFFFFFFFFFFFFFFFFFFFFFFFFFFFFFFFFFF SWAP1 SWAP2 AND DUP2 MSTORE PUSH1 0x20 ADD PUSH1 0x40 MLOAD DUP1 SWAP2 SUB SWAP1 RETURN JUMPDEST PUSH2 0x63 PUSH2 0xE4 JUMP JUMPDEST CALLVALUE DUP1 ISZERO PUSH2 0x63 JUMPI PUSH1 0x0 DUP1 REVERT JUMPDEST CALLVALUE DUP1 ISZERO PUSH2 0xDB JUMPI PUSH1 0x0 DUP1 REVERT JUMPDEST POP PUSH2 0x63 PUSH2 0x119 JUMP JUMPDEST PUSH1 0x40 MLOAD CALLVALUE DUP2 MSTORE PUSH32 0xA34E3D4F1E6B837DBCE1011B61499FA1A483A0ABEE6A7A6697660B4B2D97132 SWAP1 PUSH1 0x20 ADD PUSH1 0x40 MLOAD DUP1 SWAP2 SUB SWAP1 LOG1 JUMP JUMPDEST PUSH1 0x2 SLOAD ADDRESS BALANCE LT ISZERO PUSH2 0x18B JUMPI PUSH1 0x40 MLOAD PUSH32 0x8C379A000000000000000000000000000000000000000000000000000000000 DUP2 MSTORE PUSH1 0x20 PUSH1 0x4 DUP3 ADD MSTORE PUSH1 0x14 PUSH1 0x24 DUP3 ADD MSTORE PUSH32 0x466F6E646F7320696E737566696369656E746573000000000000000000000000 PUSH1 0x44 DUP3 ADD MSTORE PUSH1 0x64 ADD JUMPDEST PUSH1 0x40 MLOAD DUP1 SWAP2 SUB SWAP1 REVERT JUMPDEST PUSH1 0x4 SLOAD PUSH1 0x2 SLOAD PUSH1 0x40 MLOAD PUSH1 0x0 SWAP3 PUSH20 0xFFFFFFFFFFFFFFFFFFFFFFFFFFFFFFFFFFFFFFFF AND SWAP2 SWAP1 DUP4 DUP2 DUP2 DUP2 DUP6 DUP8 GAS CALL SWAP3 POP POP POP RETURNDATASIZE DUP1 PUSH1 0x0 DUP2 EQ PUSH2 0x1E7 JUMPI PUSH1 0x40 MLOAD SWAP2 POP PUSH1 0x1F NOT PUSH1 0x3F RETURNDATASIZE ADD AND DUP3 ADD PUSH1 0x40 MSTORE RETURNDATASIZE DUP3 MSTORE RETURNDATASIZE PUSH1 0x0 PUSH1 0x20 DUP5 ADD RETURNDATACOPY PUSH2 0x1EC JUMP JUMPDEST PUSH1 0x60 SWAP2 POP JUMPDEST POP SWAP1 SWAP2 POP POP PUSH1 0x1 DUP2 ISZERO ISZERO EQ PUSH2 0x25D JUMPI PUSH1 0x40 MLOAD PUSH32 0x8C379A000000000000000000000000000000000000000000000000000000000 DUP2 MSTORE PUSH1 0x20 PUSH1 0x4 DUP3 ADD MSTORE PUSH1 0x16 PUSH1 0x24 DUP3 ADD MSTORE PUSH32 0x46616C6C6F206C61207472616E73666572656E63696100000000000000000000 PUSH1 0x44 DUP3 ADD MSTORE PUSH1 0x64 ADD PUSH2 0x182 JUMP JUMPDEST PUSH32 0x56E1CF8A52E84572FF49B950FA9A1A1867319BF8EBA3BF8C77BC4354678A34C5 PUSH1 0x2 SLOAD PUSH1 0x40 MLOAD PUSH2 0x290 SWAP2 DUP2 MSTORE PUSH1 0x20 ADD SWAP1 JUMP JUMPDEST PUSH1 0x40 MLOAD DUP1 SWAP2 SUB SWAP1 LOG1 POP JUMP INVALID LOG2 PUSH5 0x6970667358 0x22 SLT KECCAK256 0xE2 0x5D 0xDC 0x26 0xBA PUSH26 0x28058349EED3AA390545ADC794C87743581E7D2764CBFF49820A PUSH5 0x736F6C6343 STOP ADDMOD GT STOP CALLER LOG2 PUSH5 0x6970667358 0x22 SLT KECCAK256 PUSH22 0x352EBBE74DFF2D772271B5F8A8E49269531AEE58B33B 0xC2 OR DUP16 0xA9 0xEB SLT 0xDC SDIV 0x29 PUSH5 0x736F6C6343 STOP ADDMOD GT STOP CALLER "
				},
				"gasEstimates": {
					"creation": {
						"codeDepositCost": "1069000",
						"executionCost": "infinite",
						"totalCost": "infinite"
					},
					"external": {
						"": "189",
						"addNewEmployee(string,address,string,string)": "infinite",
						"addNewService(string,uint256)": "infinite",
						"addNewTenant(string,address,uint256,string)": "infinite",
						"getContractBalance()": "615",
						"owner()": "572",
						"payAllServices()": "infinite",
						"paySalaries()": "infinite",
						"payService(uint256)": "708",
						"renounceOwnership()": "infinite",
						"showContractAddress()": "263",
						"transferOwnership(address)": "22764"
					},
					"internal": {
						"getPayer(address)": "infinite"
					}
				},
				"methodIdentifiers": {
					"addNewEmployee(string,address,string,string)": "40f851e2",
					"addNewService(string,uint256)": "72673e31",
					"addNewTenant(string,address,uint256,string)": "cc0395bf",
					"getContractBalance()": "6f9fb98a",
					"owner()": "8da5cb5b",
					"payAllServices()": "ec3ab274",
					"paySalaries()": "42e36b3b",
					"payService(uint256)": "cd7d77c5",
					"renounceOwnership()": "715018a6",
					"showContractAddress()": "7ca2e656",
					"transferOwnership(address)": "f2fde38b"
				}
			},
			"storageLayout": {
				"storage": [
					{
						"astId": 7,
						"contract": "contracts/Consorcio.sol:Consorcio",
						"label": "_owner",
						"offset": 0,
						"slot": "0",
						"type": "t_address"
					},
					{
						"astId": 183,
						"contract": "contracts/Consorcio.sol:Consorcio",
						"label": "employeeList",
						"offset": 0,
						"slot": "1",
						"type": "t_array(t_contract(Employee)411)dyn_storage"
					},
					{
						"astId": 187,
						"contract": "contracts/Consorcio.sol:Consorcio",
						"label": "tenantList",
						"offset": 0,
						"slot": "2",
						"type": "t_array(t_contract(Tenant)513)dyn_storage"
					},
					{
						"astId": 191,
						"contract": "contracts/Consorcio.sol:Consorcio",
						"label": "serviceList",
						"offset": 0,
						"slot": "3",
						"type": "t_array(t_struct(Service)179_storage)dyn_storage"
					}
				],
				"types": {
					"t_address": {
						"encoding": "inplace",
						"label": "address",
						"numberOfBytes": "20"
					},
					"t_array(t_contract(Employee)411)dyn_storage": {
						"base": "t_contract(Employee)411",
						"encoding": "dynamic_array",
						"label": "contract Employee[]",
						"numberOfBytes": "32"
					},
					"t_array(t_contract(Tenant)513)dyn_storage": {
						"base": "t_contract(Tenant)513",
						"encoding": "dynamic_array",
						"label": "contract Tenant[]",
						"numberOfBytes": "32"
					},
					"t_array(t_struct(Service)179_storage)dyn_storage": {
						"base": "t_struct(Service)179_storage",
						"encoding": "dynamic_array",
						"label": "struct Consorcio.Service[]",
						"numberOfBytes": "32"
					},
					"t_contract(Employee)411": {
						"encoding": "inplace",
						"label": "contract Employee",
						"numberOfBytes": "20"
					},
					"t_contract(Tenant)513": {
						"encoding": "inplace",
						"label": "contract Tenant",
						"numberOfBytes": "20"
					},
					"t_string_storage": {
						"encoding": "bytes",
						"label": "string",
						"numberOfBytes": "32"
					},
					"t_struct(Service)179_storage": {
						"encoding": "inplace",
						"label": "struct Consorcio.Service",
						"members": [
							{
								"astId": 176,
								"contract": "contracts/Consorcio.sol:Consorcio",
								"label": "name",
								"offset": 0,
								"slot": "0",
								"type": "t_string_storage"
							},
							{
								"astId": 178,
								"contract": "contracts/Consorcio.sol:Consorcio",
								"label": "price",
								"offset": 0,
								"slot": "1",
								"type": "t_uint256"
							}
						],
						"numberOfBytes": "64"
					},
					"t_uint256": {
						"encoding": "inplace",
						"label": "uint256",
						"numberOfBytes": "32"
					}
				}
			},
			"userdoc": {
				"kind": "user",
				"methods": {},
				"version": 1
			}
		}
	}
}