{
	"contracts/Employee.sol": {
		"Employee": {
			"abi": [
				{
					"inputs": [
						{
							"internalType": "string",
							"name": "newName",
							"type": "string"
						},
						{
							"internalType": "address",
							"name": "newAddress",
							"type": "address"
						},
						{
							"internalType": "string",
							"name": "newProfession",
							"type": "string"
						},
						{
							"internalType": "string",
							"name": "newSchedule",
							"type": "string"
						}
					],
					"stateMutability": "nonpayable",
					"type": "constructor"
				},
				{
					"inputs": [],
					"name": "withdrawAddress",
					"outputs": [
						{
							"internalType": "address",
							"name": "",
							"type": "address"
						}
					],
					"stateMutability": "view",
					"type": "function"
				},
				{
					"inputs": [],
					"name": "withdrawal",
					"outputs": [],
					"stateMutability": "nonpayable",
					"type": "function"
				}
			],
			"devdoc": {
				"kind": "dev",
				"methods": {},
				"version": 1
			},
			"evm": {
				"assembly": "    /* \"contracts/Employee.sol\":91:466  contract Employee is BaseUser {... */\n  mstore(0x40, 0x80)\n    /* \"contracts/Employee.sol\":194:461  constructor(... */\n  callvalue\n  dup1\n  iszero\n  tag_1\n  jumpi\n  0x00\n  dup1\n  revert\ntag_1:\n  pop\n  mload(0x40)\n  sub(codesize, bytecodeSize)\n  dup1\n  bytecodeSize\n  dup4\n  codecopy\n  dup2\n  add\n  0x40\n  dup2\n  swap1\n  mstore\n  tag_2\n  swap2\n  tag_3\n  jump\t// in\ntag_2:\n    /* \"contracts/Employee.sol\":362:369  newName */\n  dup4\n    /* \"contracts/Employee.sol\":371:381  newAddress */\n  dup4\n    /* \"contracts/BaseUser.sol\":219:223  name */\n  0x00\n    /* \"contracts/BaseUser.sol\":219:233  name = newName */\n  tag_7\n    /* \"contracts/Employee.sol\":362:369  newName */\n  dup4\n    /* \"contracts/BaseUser.sol\":219:223  name */\n  dup3\n    /* \"contracts/BaseUser.sol\":219:233  name = newName */\n  tag_8\n  jump\t// in\ntag_7:\n  pop\n    /* \"contracts/BaseUser.sol\":244:259  withdrawAddress */\n  0x01\n    /* \"contracts/BaseUser.sol\":244:272  withdrawAddress = newAddress */\n  dup1\n  sload\n  not(sub(exp(0x02, 0xa0), 0x01))\n  and\n  sub(exp(0x02, 0xa0), 0x01)\n  swap3\n  swap1\n  swap3\n  and\n  swap2\n  swap1\n  swap2\n  or\n  swap1\n  sstore\n  pop\n    /* \"contracts/Employee.sol\":394:404  profession */\n  0x02\n    /* \"contracts/Employee.sol\":394:420  profession = newProfession */\n  tag_10\n    /* \"contracts/Employee.sol\":407:420  newProfession */\n  dup4\n    /* \"contracts/Employee.sol\":394:404  profession */\n  dup3\n    /* \"contracts/Employee.sol\":394:420  profession = newProfession */\n  tag_8\n  jump\t// in\ntag_10:\n  pop\n    /* \"contracts/Employee.sol\":431:439  schedule */\n  0x03\n    /* \"contracts/Employee.sol\":431:453  schedule = newSchedule */\n  tag_11\n    /* \"contracts/Employee.sol\":442:453  newSchedule */\n  dup3\n    /* \"contracts/Employee.sol\":431:439  schedule */\n  dup3\n    /* \"contracts/Employee.sol\":431:453  schedule = newSchedule */\n  tag_8\n  jump\t// in\ntag_11:\n  pop\n    /* \"contracts/Employee.sol\":194:461  constructor(... */\n  pop\n  pop\n  pop\n  pop\n    /* \"contracts/Employee.sol\":91:466  contract Employee is BaseUser {... */\n  jump(tag_19)\n    /* \"#utility.yul\":14:198   */\ntag_13:\n    /* \"#utility.yul\":66:143   */\n  0x4e487b7100000000000000000000000000000000000000000000000000000000\n    /* \"#utility.yul\":63:64   */\n  0x00\n    /* \"#utility.yul\":56:144   */\n  mstore\n    /* \"#utility.yul\":163:167   */\n  0x41\n    /* \"#utility.yul\":160:161   */\n  0x04\n    /* \"#utility.yul\":153:168   */\n  mstore\n    /* \"#utility.yul\":187:191   */\n  0x24\n    /* \"#utility.yul\":184:185   */\n  0x00\n    /* \"#utility.yul\":177:192   */\n  revert\n    /* \"#utility.yul\":203:1043   */\ntag_14:\n    /* \"#utility.yul\":257:262   */\n  0x00\n    /* \"#utility.yul\":310:313   */\n  dup3\n    /* \"#utility.yul\":303:307   */\n  0x1f\n    /* \"#utility.yul\":295:301   */\n  dup4\n    /* \"#utility.yul\":291:308   */\n  add\n    /* \"#utility.yul\":287:314   */\n  slt\n    /* \"#utility.yul\":277:332   */\n  tag_22\n  jumpi\n    /* \"#utility.yul\":328:329   */\n  0x00\n    /* \"#utility.yul\":325:326   */\n  dup1\n    /* \"#utility.yul\":318:330   */\n  revert\n    /* \"#utility.yul\":277:332   */\ntag_22:\n    /* \"#utility.yul\":357:363   */\n  dup2\n    /* \"#utility.yul\":351:364   */\n  mload\n  sub(exp(0x02, 0x40), 0x01)\n    /* \"#utility.yul\":420:422   */\n  dup1\n    /* \"#utility.yul\":416:418   */\n  dup3\n    /* \"#utility.yul\":413:423   */\n  gt\n    /* \"#utility.yul\":410:446   */\n  iszero\n  tag_24\n  jumpi\n    /* \"#utility.yul\":426:444   */\n  tag_24\n  tag_13\n  jump\t// in\ntag_24:\n    /* \"#utility.yul\":501:503   */\n  0x40\n    /* \"#utility.yul\":495:504   */\n  mload\n    /* \"#utility.yul\":469:471   */\n  0x1f\n    /* \"#utility.yul\":555:568   */\n  dup4\n  add\n  not(0x1f)\n    /* \"#utility.yul\":551:573   */\n  swap1\n  dup2\n  and\n    /* \"#utility.yul\":575:577   */\n  0x3f\n    /* \"#utility.yul\":547:578   */\n  add\n    /* \"#utility.yul\":543:583   */\n  and\n    /* \"#utility.yul\":531:584   */\n  dup2\n  add\n  swap1\n    /* \"#utility.yul\":599:617   */\n  dup3\n  dup3\n  gt\n    /* \"#utility.yul\":619:641   */\n  dup2\n  dup4\n  lt\n    /* \"#utility.yul\":596:642   */\n  or\n    /* \"#utility.yul\":593:665   */\n  iszero\n  tag_26\n  jumpi\n    /* \"#utility.yul\":645:663   */\n  tag_26\n  tag_13\n  jump\t// in\ntag_26:\n    /* \"#utility.yul\":685:695   */\n  dup2\n    /* \"#utility.yul\":681:683   */\n  0x40\n    /* \"#utility.yul\":674:696   */\n  mstore\n    /* \"#utility.yul\":720:722   */\n  dup4\n    /* \"#utility.yul\":712:718   */\n  dup2\n    /* \"#utility.yul\":705:723   */\n  mstore\n    /* \"#utility.yul\":742:746   */\n  0x20\n    /* \"#utility.yul\":732:746   */\n  swap3\n  pop\n    /* \"#utility.yul\":787:790   */\n  dup7\n    /* \"#utility.yul\":782:784   */\n  dup4\n    /* \"#utility.yul\":777:779   */\n  dup6\n    /* \"#utility.yul\":769:775   */\n  dup9\n    /* \"#utility.yul\":765:780   */\n  add\n    /* \"#utility.yul\":761:785   */\n  add\n    /* \"#utility.yul\":758:791   */\n  gt\n    /* \"#utility.yul\":755:808   */\n  iszero\n  tag_27\n  jumpi\n    /* \"#utility.yul\":804:805   */\n  0x00\n    /* \"#utility.yul\":801:802   */\n  dup1\n    /* \"#utility.yul\":794:806   */\n  revert\n    /* \"#utility.yul\":755:808   */\ntag_27:\n    /* \"#utility.yul\":826:827   */\n  0x00\n    /* \"#utility.yul\":817:827   */\n  swap2\n  pop\n    /* \"#utility.yul\":836:969   */\ntag_28:\n    /* \"#utility.yul\":850:852   */\n  dup4\n    /* \"#utility.yul\":847:848   */\n  dup3\n    /* \"#utility.yul\":844:853   */\n  lt\n    /* \"#utility.yul\":836:969   */\n  iszero\n  tag_30\n  jumpi\n    /* \"#utility.yul\":938:952   */\n  dup6\n  dup3\n  add\n    /* \"#utility.yul\":934:957   */\n  dup4\n  add\n    /* \"#utility.yul\":928:958   */\n  mload\n    /* \"#utility.yul\":907:921   */\n  dup2\n  dup4\n  add\n    /* \"#utility.yul\":903:926   */\n  dup5\n  add\n    /* \"#utility.yul\":896:959   */\n  mstore\n    /* \"#utility.yul\":861:871   */\n  swap1\n  dup3\n  add\n  swap1\n    /* \"#utility.yul\":836:969   */\n  jump(tag_28)\ntag_30:\n    /* \"#utility.yul\":1011:1012   */\n  0x00\n    /* \"#utility.yul\":989:1004   */\n  swap4\n  dup2\n  add\n    /* \"#utility.yul\":985:1009   */\n  swap1\n  swap3\n  add\n    /* \"#utility.yul\":978:1013   */\n  swap3\n  swap1\n  swap3\n  mstore\n    /* \"#utility.yul\":993:999   */\n  swap5\n    /* \"#utility.yul\":203:1043   */\n  swap4\n  pop\n  pop\n  pop\n  pop\n  jump\t// out\n    /* \"#utility.yul\":1048:1982   */\ntag_3:\n    /* \"#utility.yul\":1175:1181   */\n  0x00\n    /* \"#utility.yul\":1183:1189   */\n  dup1\n    /* \"#utility.yul\":1191:1197   */\n  0x00\n    /* \"#utility.yul\":1199:1205   */\n  dup1\n    /* \"#utility.yul\":1252:1255   */\n  0x80\n    /* \"#utility.yul\":1240:1249   */\n  dup6\n    /* \"#utility.yul\":1231:1238   */\n  dup8\n    /* \"#utility.yul\":1227:1250   */\n  sub\n    /* \"#utility.yul\":1223:1256   */\n  slt\n    /* \"#utility.yul\":1220:1273   */\n  iszero\n  tag_32\n  jumpi\n    /* \"#utility.yul\":1269:1270   */\n  0x00\n    /* \"#utility.yul\":1266:1267   */\n  dup1\n    /* \"#utility.yul\":1259:1271   */\n  revert\n    /* \"#utility.yul\":1220:1273   */\ntag_32:\n    /* \"#utility.yul\":1302:1311   */\n  dup5\n    /* \"#utility.yul\":1296:1312   */\n  mload\n  sub(exp(0x02, 0x40), 0x01)\n    /* \"#utility.yul\":1372:1374   */\n  dup1\n    /* \"#utility.yul\":1364:1370   */\n  dup3\n    /* \"#utility.yul\":1361:1375   */\n  gt\n    /* \"#utility.yul\":1358:1392   */\n  iszero\n  tag_33\n  jumpi\n    /* \"#utility.yul\":1388:1389   */\n  0x00\n    /* \"#utility.yul\":1385:1386   */\n  dup1\n    /* \"#utility.yul\":1378:1390   */\n  revert\n    /* \"#utility.yul\":1358:1392   */\ntag_33:\n    /* \"#utility.yul\":1411:1472   */\n  tag_34\n    /* \"#utility.yul\":1464:1471   */\n  dup9\n    /* \"#utility.yul\":1455:1461   */\n  dup4\n    /* \"#utility.yul\":1444:1453   */\n  dup10\n    /* \"#utility.yul\":1440:1462   */\n  add\n    /* \"#utility.yul\":1411:1472   */\n  tag_14\n  jump\t// in\ntag_34:\n    /* \"#utility.yul\":1515:1517   */\n  0x20\n    /* \"#utility.yul\":1500:1518   */\n  dup9\n  add\n    /* \"#utility.yul\":1494:1519   */\n  mload\n    /* \"#utility.yul\":1401:1472   */\n  swap1\n  swap7\n  pop\n    /* \"#utility.yul\":1494:1519   */\n  swap2\n  pop\n  sub(exp(0x02, 0xa0), 0x01)\n    /* \"#utility.yul\":1548:1579   */\n  dup3\n  and\n    /* \"#utility.yul\":1538:1580   */\n  dup3\n  eq\n    /* \"#utility.yul\":1528:1598   */\n  tag_35\n  jumpi\n    /* \"#utility.yul\":1594:1595   */\n  0x00\n    /* \"#utility.yul\":1591:1592   */\n  dup1\n    /* \"#utility.yul\":1584:1596   */\n  revert\n    /* \"#utility.yul\":1528:1598   */\ntag_35:\n    /* \"#utility.yul\":1668:1670   */\n  0x40\n    /* \"#utility.yul\":1653:1671   */\n  dup8\n  add\n    /* \"#utility.yul\":1647:1672   */\n  mload\n    /* \"#utility.yul\":1617:1622   */\n  swap2\n  swap5\n  pop\n    /* \"#utility.yul\":1684:1700   */\n  dup1\n  dup3\n  gt\n    /* \"#utility.yul\":1681:1717   */\n  iszero\n  tag_36\n  jumpi\n    /* \"#utility.yul\":1713:1714   */\n  0x00\n    /* \"#utility.yul\":1710:1711   */\n  dup1\n    /* \"#utility.yul\":1703:1715   */\n  revert\n    /* \"#utility.yul\":1681:1717   */\ntag_36:\n    /* \"#utility.yul\":1736:1799   */\n  tag_37\n    /* \"#utility.yul\":1791:1798   */\n  dup9\n    /* \"#utility.yul\":1780:1788   */\n  dup4\n    /* \"#utility.yul\":1769:1778   */\n  dup10\n    /* \"#utility.yul\":1765:1789   */\n  add\n    /* \"#utility.yul\":1736:1799   */\n  tag_14\n  jump\t// in\ntag_37:\n    /* \"#utility.yul\":1726:1799   */\n  swap4\n  pop\n    /* \"#utility.yul\":1845:1847   */\n  0x60\n    /* \"#utility.yul\":1834:1843   */\n  dup8\n    /* \"#utility.yul\":1830:1848   */\n  add\n    /* \"#utility.yul\":1824:1849   */\n  mload\n    /* \"#utility.yul\":1808:1849   */\n  swap2\n  pop\n    /* \"#utility.yul\":1874:1876   */\n  dup1\n    /* \"#utility.yul\":1864:1872   */\n  dup3\n    /* \"#utility.yul\":1861:1877   */\n  gt\n    /* \"#utility.yul\":1858:1894   */\n  iszero\n  tag_38\n  jumpi\n    /* \"#utility.yul\":1890:1891   */\n  0x00\n    /* \"#utility.yul\":1887:1888   */\n  dup1\n    /* \"#utility.yul\":1880:1892   */\n  revert\n    /* \"#utility.yul\":1858:1894   */\ntag_38:\n  pop\n    /* \"#utility.yul\":1913:1976   */\n  tag_39\n    /* \"#utility.yul\":1968:1975   */\n  dup8\n    /* \"#utility.yul\":1957:1965   */\n  dup3\n    /* \"#utility.yul\":1946:1955   */\n  dup9\n    /* \"#utility.yul\":1942:1966   */\n  add\n    /* \"#utility.yul\":1913:1976   */\n  tag_14\n  jump\t// in\ntag_39:\n    /* \"#utility.yul\":1903:1976   */\n  swap2\n  pop\n  pop\n    /* \"#utility.yul\":1048:1982   */\n  swap3\n  swap6\n  swap2\n  swap5\n  pop\n  swap3\n  pop\n  jump\t// out\n    /* \"#utility.yul\":1987:2424   */\ntag_15:\n    /* \"#utility.yul\":2072:2073   */\n  0x02\n    /* \"#utility.yul\":2062:2074   */\n  dup2\n  div\n    /* \"#utility.yul\":2119:2120   */\n  0x01\n    /* \"#utility.yul\":2109:2121   */\n  dup3\n  and\n  dup1\n    /* \"#utility.yul\":2130:2191   */\n  tag_41\n  jumpi\n    /* \"#utility.yul\":2184:2188   */\n  0x7f\n    /* \"#utility.yul\":2176:2182   */\n  dup3\n    /* \"#utility.yul\":2172:2189   */\n  and\n    /* \"#utility.yul\":2162:2189   */\n  swap2\n  pop\n    /* \"#utility.yul\":2130:2191   */\ntag_41:\n    /* \"#utility.yul\":2237:2239   */\n  0x20\n    /* \"#utility.yul\":2229:2235   */\n  dup3\n    /* \"#utility.yul\":2226:2240   */\n  lt\n    /* \"#utility.yul\":2206:2224   */\n  dup2\n    /* \"#utility.yul\":2203:2241   */\n  sub\n    /* \"#utility.yul\":2200:2418   */\n  tag_42\n  jumpi\n    /* \"#utility.yul\":2274:2351   */\n  0x4e487b7100000000000000000000000000000000000000000000000000000000\n    /* \"#utility.yul\":2271:2272   */\n  0x00\n    /* \"#utility.yul\":2264:2352   */\n  mstore\n    /* \"#utility.yul\":2375:2379   */\n  0x22\n    /* \"#utility.yul\":2372:2373   */\n  0x04\n    /* \"#utility.yul\":2365:2380   */\n  mstore\n    /* \"#utility.yul\":2403:2407   */\n  0x24\n    /* \"#utility.yul\":2400:2401   */\n  0x00\n    /* \"#utility.yul\":2393:2408   */\n  revert\n    /* \"#utility.yul\":2200:2418   */\ntag_42:\n  pop\n    /* \"#utility.yul\":1987:2424   */\n  swap2\n  swap1\n  pop\n  jump\t// out\n    /* \"#utility.yul\":2555:3106   */\ntag_17:\n    /* \"#utility.yul\":2657:2659   */\n  0x1f\n    /* \"#utility.yul\":2652:2655   */\n  dup3\n    /* \"#utility.yul\":2649:2660   */\n  gt\n    /* \"#utility.yul\":2646:3100   */\n  iszero\n  tag_45\n  jumpi\n    /* \"#utility.yul\":2693:2694   */\n  0x00\n    /* \"#utility.yul\":2718:2723   */\n  dup2\n    /* \"#utility.yul\":2714:2716   */\n  dup2\n    /* \"#utility.yul\":2707:2724   */\n  mstore\n    /* \"#utility.yul\":2763:2767   */\n  0x20\n    /* \"#utility.yul\":2759:2761   */\n  dup2\n    /* \"#utility.yul\":2749:2768   */\n  keccak256\n    /* \"#utility.yul\":2835:2839   */\n  0x20\n    /* \"#utility.yul\":2830:2832   */\n  0x1f\n    /* \"#utility.yul\":2818:2828   */\n  dup7\n    /* \"#utility.yul\":2814:2833   */\n  add\n    /* \"#utility.yul\":2810:2840   */\n  div\n    /* \"#utility.yul\":2804:2808   */\n  dup2\n    /* \"#utility.yul\":2800:2841   */\n  add\n    /* \"#utility.yul\":2872:2876   */\n  0x20\n    /* \"#utility.yul\":2860:2870   */\n  dup7\n    /* \"#utility.yul\":2857:2877   */\n  lt\n    /* \"#utility.yul\":2854:2901   */\n  iszero\n  tag_46\n  jumpi\n  pop\n    /* \"#utility.yul\":2895:2899   */\n  dup1\n    /* \"#utility.yul\":2854:2901   */\ntag_46:\n    /* \"#utility.yul\":2952:2956   */\n  0x20\n    /* \"#utility.yul\":2947:2949   */\n  0x1f\n    /* \"#utility.yul\":2942:2945   */\n  dup7\n    /* \"#utility.yul\":2938:2950   */\n  add\n    /* \"#utility.yul\":2934:2957   */\n  div\n    /* \"#utility.yul\":2928:2932   */\n  dup3\n    /* \"#utility.yul\":2924:2958   */\n  add\n    /* \"#utility.yul\":2914:2958   */\n  swap2\n  pop\n    /* \"#utility.yul\":3008:3090   */\ntag_47:\n    /* \"#utility.yul\":3026:3028   */\n  dup2\n    /* \"#utility.yul\":3019:3024   */\n  dup2\n    /* \"#utility.yul\":3016:3029   */\n  lt\n    /* \"#utility.yul\":3008:3090   */\n  iszero\n  tag_49\n  jumpi\n    /* \"#utility.yul\":3071:3088   */\n  dup3\n  dup2\n  sstore\n    /* \"#utility.yul\":3052:3053   */\n  0x01\n    /* \"#utility.yul\":3041:3054   */\n  add\n    /* \"#utility.yul\":3008:3090   */\n  jump(tag_47)\ntag_49:\n    /* \"#utility.yul\":3012:3015   */\n  pop\n  pop\n  pop\n    /* \"#utility.yul\":2646:3100   */\ntag_45:\n    /* \"#utility.yul\":2555:3106   */\n  pop\n  pop\n  pop\n  jump\t// out\n    /* \"#utility.yul\":3290:4649   */\ntag_8:\n    /* \"#utility.yul\":3416:3419   */\n  dup2\n    /* \"#utility.yul\":3410:3420   */\n  mload\n  sub(exp(0x02, 0x40), 0x01)\n    /* \"#utility.yul\":3435:3441   */\n  dup2\n    /* \"#utility.yul\":3432:3462   */\n  gt\n    /* \"#utility.yul\":3429:3485   */\n  iszero\n  tag_53\n  jumpi\n    /* \"#utility.yul\":3465:3483   */\n  tag_53\n  tag_13\n  jump\t// in\ntag_53:\n    /* \"#utility.yul\":3494:3591   */\n  tag_54\n    /* \"#utility.yul\":3584:3590   */\n  dup2\n    /* \"#utility.yul\":3544:3582   */\n  tag_55\n    /* \"#utility.yul\":3576:3580   */\n  dup5\n    /* \"#utility.yul\":3570:3581   */\n  sload\n    /* \"#utility.yul\":3544:3582   */\n  tag_15\n  jump\t// in\ntag_55:\n    /* \"#utility.yul\":3538:3542   */\n  dup5\n    /* \"#utility.yul\":3494:3591   */\n  tag_17\n  jump\t// in\ntag_54:\n    /* \"#utility.yul\":3646:3650   */\n  0x20\n  dup1\n    /* \"#utility.yul\":3710:3712   */\n  0x1f\n    /* \"#utility.yul\":3699:3713   */\n  dup4\n  gt\n    /* \"#utility.yul\":3727:3728   */\n  0x01\n    /* \"#utility.yul\":3722:4392   */\n  dup2\n  eq\n  tag_57\n  jumpi\n    /* \"#utility.yul\":4436:4437   */\n  0x00\n    /* \"#utility.yul\":4453:4459   */\n  dup5\n    /* \"#utility.yul\":4450:4539   */\n  iszero\n  tag_58\n  jumpi\n  pop\n    /* \"#utility.yul\":4505:4524   */\n  dup6\n  dup4\n  add\n    /* \"#utility.yul\":4499:4525   */\n  mload\n    /* \"#utility.yul\":4450:4539   */\ntag_58:\n    /* \"#utility.yul\":3271:3272   */\n  0x02\n    /* \"#utility.yul\":3267:3278   */\n  dup1\n  dup7\n  mul\n    /* \"#utility.yul\":3254:3255   */\n  0x08\n    /* \"#utility.yul\":3250:3261   */\n  dup8\n  mul\n    /* \"#utility.yul\":3243:3262   */\n  swap1\n  swap2\n  exp\n  not(0x00)\n    /* \"#utility.yul\":3231:3263   */\n  div\n    /* \"#utility.yul\":3227:3264   */\n  not\n    /* \"#utility.yul\":3217:3265   */\n  dup3\n  and\n    /* \"#utility.yul\":3214:3279   */\n  or\n    /* \"#utility.yul\":4559:4563   */\n  dup7\n    /* \"#utility.yul\":4552:4633   */\n  sstore\n  pop\n    /* \"#utility.yul\":3692:4643   */\n  jump(tag_49)\n    /* \"#utility.yul\":3722:4392   */\ntag_57:\n    /* \"#utility.yul\":2502:2503   */\n  0x00\n    /* \"#utility.yul\":2495:2509   */\n  dup6\n  dup2\n  mstore\n    /* \"#utility.yul\":2539:2543   */\n  0x20\n    /* \"#utility.yul\":2526:2544   */\n  dup2\n  keccak256\n  not(0x1f)\n    /* \"#utility.yul\":3758:3778   */\n  dup7\n  and\n  swap2\n    /* \"#utility.yul\":3876:4112   */\ntag_61:\n    /* \"#utility.yul\":3890:3897   */\n  dup3\n    /* \"#utility.yul\":3887:3888   */\n  dup2\n    /* \"#utility.yul\":3884:3898   */\n  lt\n    /* \"#utility.yul\":3876:4112   */\n  iszero\n  tag_63\n  jumpi\n    /* \"#utility.yul\":3979:3998   */\n  dup9\n  dup7\n  add\n    /* \"#utility.yul\":3973:3999   */\n  mload\n    /* \"#utility.yul\":3958:4000   */\n  dup3\n  sstore\n    /* \"#utility.yul\":4071:4098   */\n  swap5\n  dup5\n  add\n  swap5\n    /* \"#utility.yul\":4039:4040   */\n  0x01\n    /* \"#utility.yul\":4027:4041   */\n  swap1\n  swap2\n  add\n  swap1\n    /* \"#utility.yul\":3906:3925   */\n  dup5\n  add\n    /* \"#utility.yul\":3876:4112   */\n  jump(tag_61)\ntag_63:\n    /* \"#utility.yul\":3880:3883   */\n  pop\n    /* \"#utility.yul\":4140:4146   */\n  dup6\n    /* \"#utility.yul\":4131:4138   */\n  dup3\n    /* \"#utility.yul\":4128:4147   */\n  lt\n    /* \"#utility.yul\":4125:4333   */\n  iszero\n  tag_64\n  jumpi\n    /* \"#utility.yul\":4201:4220   */\n  dup8\n  dup6\n  add\n    /* \"#utility.yul\":4195:4221   */\n  mload\n    /* \"#utility.yul\":4295:4296   */\n  0x08\n    /* \"#utility.yul\":4310:4312   */\n  0x1f\n    /* \"#utility.yul\":4298:4313   */\n  dup9\n  and\n    /* \"#utility.yul\":4291:4314   */\n  mul\n    /* \"#utility.yul\":4288:4289   */\n  0x02\n    /* \"#utility.yul\":4284:4315   */\n  exp\n  not(0x00)\n    /* \"#utility.yul\":4272:4316   */\n  div\n    /* \"#utility.yul\":4268:4317   */\n  not\n    /* \"#utility.yul\":4253:4318   */\n  and\n    /* \"#utility.yul\":4238:4319   */\n  dup2\n  sstore\n    /* \"#utility.yul\":4125:4333   */\ntag_64:\n  pop\n  pop\n  pop\n  pop\n  pop\n    /* \"#utility.yul\":4375:4376   */\n  0x02\n    /* \"#utility.yul\":4363:4377   */\n  mul\n    /* \"#utility.yul\":4379:4380   */\n  0x01\n    /* \"#utility.yul\":4359:4381   */\n  add\n    /* \"#utility.yul\":4346:4382   */\n  swap1\n  sstore\n  pop\n    /* \"#utility.yul\":3290:4649   */\n  jump\t// out\ntag_19:\n    /* \"contracts/Employee.sol\":91:466  contract Employee is BaseUser {... */\n  dataSize(sub_0)\n  dup1\n  dataOffset(sub_0)\n  0x00\n  codecopy\n  0x00\n  return\nstop\n\nsub_0: assembly {\n        /* \"contracts/Employee.sol\":91:466  contract Employee is BaseUser {... */\n      mstore(0x40, 0x80)\n      callvalue\n      dup1\n      iszero\n      tag_1\n      jumpi\n      0x00\n      dup1\n      revert\n    tag_1:\n      pop\n      jumpi(tag_2, lt(calldatasize, 0x04))\n      div(calldataload(0x00), 0x0100000000000000000000000000000000000000000000000000000000)\n      0x1581b600\n      dup2\n      eq\n      tag_3\n      jumpi\n      dup1\n      0xd4e93292\n      eq\n      tag_4\n      jumpi\n    tag_2:\n      0x00\n      dup1\n      revert\n        /* \"contracts/BaseUser.sol\":114:144  address public withdrawAddress */\n    tag_3:\n      sload(0x01)\n      tag_5\n      swap1\n      0xffffffffffffffffffffffffffffffffffffffff\n      and\n      dup2\n      jump\n    tag_5:\n      mload(0x40)\n        /* \"#utility.yul\":190:232   */\n      0xffffffffffffffffffffffffffffffffffffffff\n        /* \"#utility.yul\":178:233   */\n      swap1\n      swap2\n      and\n        /* \"#utility.yul\":160:234   */\n      dup2\n      mstore\n        /* \"#utility.yul\":148:150   */\n      0x20\n        /* \"#utility.yul\":133:151   */\n      add\n        /* \"contracts/BaseUser.sol\":114:144  address public withdrawAddress */\n      mload(0x40)\n      dup1\n      swap2\n      sub\n      swap1\n      return\n        /* \"contracts/BaseUser.sol\":288:388  function withdrawal() public {... */\n    tag_4:\n      stop\n\n    auxdata: 0xa26469706673582212200393489b4d8264f547af4c078ebc42daffbf7a0bc6e7c6e4fb6a05e9289370ce64736f6c63430008110033\n}\n",
				"bytecode": {
					"linkReferences": {},
					"object": "608060405234801561001057600080fd5b5060405161044638038061044683398101604081905261002f91610156565b8383600061003d83826102a0565b5060018054600160a060020a031916600160a060020a039290921691909117905550600261006b83826102a0565b50600361007882826102a0565b5050505050610365565b7f4e487b7100000000000000000000000000000000000000000000000000000000600052604160045260246000fd5b600082601f8301126100c257600080fd5b81516001604060020a03808211156100dc576100dc610082565b604051601f8301601f19908116603f0116810190828211818310171561010457610104610082565b8160405283815260209250868385880101111561012057600080fd5b600091505b838210156101425785820183015181830184015290820190610125565b600093810190920192909252949350505050565b6000806000806080858703121561016c57600080fd5b84516001604060020a038082111561018357600080fd5b61018f888389016100b1565b60208801519096509150600160a060020a03821682146101ae57600080fd5b6040870151919450808211156101c357600080fd5b6101cf888389016100b1565b935060608701519150808211156101e557600080fd5b506101f2878288016100b1565b91505092959194509250565b60028104600182168061021257607f821691505b60208210810361024b577f4e487b7100000000000000000000000000000000000000000000000000000000600052602260045260246000fd5b50919050565b601f82111561029b576000818152602081206020601f860104810160208610156102785750805b6020601f860104820191505b8181101561029757828155600101610284565b5050505b505050565b81516001604060020a038111156102b9576102b9610082565b6102cd816102c784546101fe565b84610251565b602080601f83116001811461030657600084156102ea5750858301515b60028086026008870290910a6000190419821617865550610297565b600085815260208120601f198616915b8281101561033557888601518255948401946001909101908401610316565b508582101561035557878501516008601f88160260020a60001904191681555b5050505050600202600101905550565b60d3806103736000396000f3fe6080604052348015600f57600080fd5b5060043610604e577c010000000000000000000000000000000000000000000000000000000060003504631581b60081146053578063d4e9329214609b575b600080fd5b60015460729073ffffffffffffffffffffffffffffffffffffffff1681565b60405173ffffffffffffffffffffffffffffffffffffffff909116815260200160405180910390f35b00fea26469706673582212200393489b4d8264f547af4c078ebc42daffbf7a0bc6e7c6e4fb6a05e9289370ce64736f6c63430008110033",
					"opcodes": "PUSH1 0x80 PUSH1 0x40 MSTORE CALLVALUE DUP1 ISZERO PUSH2 0x10 JUMPI PUSH1 0x0 DUP1 REVERT JUMPDEST POP PUSH1 0x40 MLOAD PUSH2 0x446 CODESIZE SUB DUP1 PUSH2 0x446 DUP4 CODECOPY DUP2 ADD PUSH1 0x40 DUP2 SWAP1 MSTORE PUSH2 0x2F SWAP2 PUSH2 0x156 JUMP JUMPDEST DUP4 DUP4 PUSH1 0x0 PUSH2 0x3D DUP4 DUP3 PUSH2 0x2A0 JUMP JUMPDEST POP PUSH1 0x1 DUP1 SLOAD PUSH1 0x1 PUSH1 0xA0 PUSH1 0x2 EXP SUB NOT AND PUSH1 0x1 PUSH1 0xA0 PUSH1 0x2 EXP SUB SWAP3 SWAP1 SWAP3 AND SWAP2 SWAP1 SWAP2 OR SWAP1 SSTORE POP PUSH1 0x2 PUSH2 0x6B DUP4 DUP3 PUSH2 0x2A0 JUMP JUMPDEST POP PUSH1 0x3 PUSH2 0x78 DUP3 DUP3 PUSH2 0x2A0 JUMP JUMPDEST POP POP POP POP POP PUSH2 0x365 JUMP JUMPDEST PUSH32 0x4E487B7100000000000000000000000000000000000000000000000000000000 PUSH1 0x0 MSTORE PUSH1 0x41 PUSH1 0x4 MSTORE PUSH1 0x24 PUSH1 0x0 REVERT JUMPDEST PUSH1 0x0 DUP3 PUSH1 0x1F DUP4 ADD SLT PUSH2 0xC2 JUMPI PUSH1 0x0 DUP1 REVERT JUMPDEST DUP2 MLOAD PUSH1 0x1 PUSH1 0x40 PUSH1 0x2 EXP SUB DUP1 DUP3 GT ISZERO PUSH2 0xDC JUMPI PUSH2 0xDC PUSH2 0x82 JUMP JUMPDEST PUSH1 0x40 MLOAD PUSH1 0x1F DUP4 ADD PUSH1 0x1F NOT SWAP1 DUP2 AND PUSH1 0x3F ADD AND DUP2 ADD SWAP1 DUP3 DUP3 GT DUP2 DUP4 LT OR ISZERO PUSH2 0x104 JUMPI PUSH2 0x104 PUSH2 0x82 JUMP JUMPDEST DUP2 PUSH1 0x40 MSTORE DUP4 DUP2 MSTORE PUSH1 0x20 SWAP3 POP DUP7 DUP4 DUP6 DUP9 ADD ADD GT ISZERO PUSH2 0x120 JUMPI PUSH1 0x0 DUP1 REVERT JUMPDEST PUSH1 0x0 SWAP2 POP JUMPDEST DUP4 DUP3 LT ISZERO PUSH2 0x142 JUMPI DUP6 DUP3 ADD DUP4 ADD MLOAD DUP2 DUP4 ADD DUP5 ADD MSTORE SWAP1 DUP3 ADD SWAP1 PUSH2 0x125 JUMP JUMPDEST PUSH1 0x0 SWAP4 DUP2 ADD SWAP1 SWAP3 ADD SWAP3 SWAP1 SWAP3 MSTORE SWAP5 SWAP4 POP POP POP POP JUMP JUMPDEST PUSH1 0x0 DUP1 PUSH1 0x0 DUP1 PUSH1 0x80 DUP6 DUP8 SUB SLT ISZERO PUSH2 0x16C JUMPI PUSH1 0x0 DUP1 REVERT JUMPDEST DUP5 MLOAD PUSH1 0x1 PUSH1 0x40 PUSH1 0x2 EXP SUB DUP1 DUP3 GT ISZERO PUSH2 0x183 JUMPI PUSH1 0x0 DUP1 REVERT JUMPDEST PUSH2 0x18F DUP9 DUP4 DUP10 ADD PUSH2 0xB1 JUMP JUMPDEST PUSH1 0x20 DUP9 ADD MLOAD SWAP1 SWAP7 POP SWAP2 POP PUSH1 0x1 PUSH1 0xA0 PUSH1 0x2 EXP SUB DUP3 AND DUP3 EQ PUSH2 0x1AE JUMPI PUSH1 0x0 DUP1 REVERT JUMPDEST PUSH1 0x40 DUP8 ADD MLOAD SWAP2 SWAP5 POP DUP1 DUP3 GT ISZERO PUSH2 0x1C3 JUMPI PUSH1 0x0 DUP1 REVERT JUMPDEST PUSH2 0x1CF DUP9 DUP4 DUP10 ADD PUSH2 0xB1 JUMP JUMPDEST SWAP4 POP PUSH1 0x60 DUP8 ADD MLOAD SWAP2 POP DUP1 DUP3 GT ISZERO PUSH2 0x1E5 JUMPI PUSH1 0x0 DUP1 REVERT JUMPDEST POP PUSH2 0x1F2 DUP8 DUP3 DUP9 ADD PUSH2 0xB1 JUMP JUMPDEST SWAP2 POP POP SWAP3 SWAP6 SWAP2 SWAP5 POP SWAP3 POP JUMP JUMPDEST PUSH1 0x2 DUP2 DIV PUSH1 0x1 DUP3 AND DUP1 PUSH2 0x212 JUMPI PUSH1 0x7F DUP3 AND SWAP2 POP JUMPDEST PUSH1 0x20 DUP3 LT DUP2 SUB PUSH2 0x24B JUMPI PUSH32 0x4E487B7100000000000000000000000000000000000000000000000000000000 PUSH1 0x0 MSTORE PUSH1 0x22 PUSH1 0x4 MSTORE PUSH1 0x24 PUSH1 0x0 REVERT JUMPDEST POP SWAP2 SWAP1 POP JUMP JUMPDEST PUSH1 0x1F DUP3 GT ISZERO PUSH2 0x29B JUMPI PUSH1 0x0 DUP2 DUP2 MSTORE PUSH1 0x20 DUP2 KECCAK256 PUSH1 0x20 PUSH1 0x1F DUP7 ADD DIV DUP2 ADD PUSH1 0x20 DUP7 LT ISZERO PUSH2 0x278 JUMPI POP DUP1 JUMPDEST PUSH1 0x20 PUSH1 0x1F DUP7 ADD DIV DUP3 ADD SWAP2 POP JUMPDEST DUP2 DUP2 LT ISZERO PUSH2 0x297 JUMPI DUP3 DUP2 SSTORE PUSH1 0x1 ADD PUSH2 0x284 JUMP JUMPDEST POP POP POP JUMPDEST POP POP POP JUMP JUMPDEST DUP2 MLOAD PUSH1 0x1 PUSH1 0x40 PUSH1 0x2 EXP SUB DUP2 GT ISZERO PUSH2 0x2B9 JUMPI PUSH2 0x2B9 PUSH2 0x82 JUMP JUMPDEST PUSH2 0x2CD DUP2 PUSH2 0x2C7 DUP5 SLOAD PUSH2 0x1FE JUMP JUMPDEST DUP5 PUSH2 0x251 JUMP JUMPDEST PUSH1 0x20 DUP1 PUSH1 0x1F DUP4 GT PUSH1 0x1 DUP2 EQ PUSH2 0x306 JUMPI PUSH1 0x0 DUP5 ISZERO PUSH2 0x2EA JUMPI POP DUP6 DUP4 ADD MLOAD JUMPDEST PUSH1 0x2 DUP1 DUP7 MUL PUSH1 0x8 DUP8 MUL SWAP1 SWAP2 EXP PUSH1 0x0 NOT DIV NOT DUP3 AND OR DUP7 SSTORE POP PUSH2 0x297 JUMP JUMPDEST PUSH1 0x0 DUP6 DUP2 MSTORE PUSH1 0x20 DUP2 KECCAK256 PUSH1 0x1F NOT DUP7 AND SWAP2 JUMPDEST DUP3 DUP2 LT ISZERO PUSH2 0x335 JUMPI DUP9 DUP7 ADD MLOAD DUP3 SSTORE SWAP5 DUP5 ADD SWAP5 PUSH1 0x1 SWAP1 SWAP2 ADD SWAP1 DUP5 ADD PUSH2 0x316 JUMP JUMPDEST POP DUP6 DUP3 LT ISZERO PUSH2 0x355 JUMPI DUP8 DUP6 ADD MLOAD PUSH1 0x8 PUSH1 0x1F DUP9 AND MUL PUSH1 0x2 EXP PUSH1 0x0 NOT DIV NOT AND DUP2 SSTORE JUMPDEST POP POP POP POP POP PUSH1 0x2 MUL PUSH1 0x1 ADD SWAP1 SSTORE POP JUMP JUMPDEST PUSH1 0xD3 DUP1 PUSH2 0x373 PUSH1 0x0 CODECOPY PUSH1 0x0 RETURN INVALID PUSH1 0x80 PUSH1 0x40 MSTORE CALLVALUE DUP1 ISZERO PUSH1 0xF JUMPI PUSH1 0x0 DUP1 REVERT JUMPDEST POP PUSH1 0x4 CALLDATASIZE LT PUSH1 0x4E JUMPI PUSH29 0x100000000000000000000000000000000000000000000000000000000 PUSH1 0x0 CALLDATALOAD DIV PUSH4 0x1581B600 DUP2 EQ PUSH1 0x53 JUMPI DUP1 PUSH4 0xD4E93292 EQ PUSH1 0x9B JUMPI JUMPDEST PUSH1 0x0 DUP1 REVERT JUMPDEST PUSH1 0x1 SLOAD PUSH1 0x72 SWAP1 PUSH20 0xFFFFFFFFFFFFFFFFFFFFFFFFFFFFFFFFFFFFFFFF AND DUP2 JUMP JUMPDEST PUSH1 0x40 MLOAD PUSH20 0xFFFFFFFFFFFFFFFFFFFFFFFFFFFFFFFFFFFFFFFF SWAP1 SWAP2 AND DUP2 MSTORE PUSH1 0x20 ADD PUSH1 0x40 MLOAD DUP1 SWAP2 SUB SWAP1 RETURN JUMPDEST STOP INVALID LOG2 PUSH5 0x6970667358 0x22 SLT KECCAK256 SUB SWAP4 BASEFEE SWAP12 0x4D DUP3 PUSH5 0xF547AF4C07 DUP15 0xBC TIMESTAMP 0xDA SELFDESTRUCT 0xBF PUSH27 0xBC6E7C6E4FB6A05E9289370CE64736F6C63430008110033000000 "
				},
				"gasEstimates": {
					"creation": {
						"codeDepositCost": "42200",
						"executionCost": "infinite",
						"totalCost": "infinite"
					},
					"external": {
						"withdrawAddress()": "381",
						"withdrawal()": "122"
					}
				},
				"methodIdentifiers": {
					"withdrawAddress()": "1581b600",
					"withdrawal()": "d4e93292"
				}
			},
			"storageLayout": {
				"storage": [
					{
						"astId": 138,
						"contract": "contracts/Employee.sol:Employee",
						"label": "name",
						"offset": 0,
						"slot": "0",
						"type": "t_string_storage"
					},
					{
						"astId": 140,
						"contract": "contracts/Employee.sol:Employee",
						"label": "withdrawAddress",
						"offset": 0,
						"slot": "1",
						"type": "t_address"
					},
					{
						"astId": 384,
						"contract": "contracts/Employee.sol:Employee",
						"label": "profession",
						"offset": 0,
						"slot": "2",
						"type": "t_string_storage"
					},
					{
						"astId": 386,
						"contract": "contracts/Employee.sol:Employee",
						"label": "schedule",
						"offset": 0,
						"slot": "3",
						"type": "t_string_storage"
					}
				],
				"types": {
					"t_address": {
						"encoding": "inplace",
						"label": "address",
						"numberOfBytes": "20"
					},
					"t_string_storage": {
						"encoding": "bytes",
						"label": "string",
						"numberOfBytes": "32"
					}
				}
			},
			"userdoc": {
				"kind": "user",
				"methods": {},
				"version": 1
			}
		}
	}
}