{
	"contracts/Tenant.sol": {
		"Tenant": {
			"abi": [
				{
					"inputs": [
						{
							"internalType": "address",
							"name": "_consorcioAddress",
							"type": "address"
						}
					],
					"stateMutability": "payable",
					"type": "constructor"
				},
				{
					"anonymous": false,
					"inputs": [
						{
							"indexed": false,
							"internalType": "uint256",
							"name": "amount",
							"type": "uint256"
						}
					],
					"name": "EtherReceived",
					"type": "event"
				},
				{
					"anonymous": false,
					"inputs": [
						{
							"indexed": false,
							"internalType": "uint256",
							"name": "pricePaid",
							"type": "uint256"
						}
					],
					"name": "ExpensesPaid",
					"type": "event"
				},
				{
					"anonymous": false,
					"inputs": [
						{
							"indexed": true,
							"internalType": "address",
							"name": "previousOwner",
							"type": "address"
						},
						{
							"indexed": true,
							"internalType": "address",
							"name": "newOwner",
							"type": "address"
						}
					],
					"name": "OwnershipTransferred",
					"type": "event"
				},
				{
					"stateMutability": "payable",
					"type": "fallback"
				},
				{
					"inputs": [
						{
							"internalType": "string",
							"name": "_name",
							"type": "string"
						},
						{
							"internalType": "address",
							"name": "_tenantAddress",
							"type": "address"
						},
						{
							"internalType": "uint256",
							"name": "_rentalCost",
							"type": "uint256"
						},
						{
							"internalType": "string",
							"name": "_residence",
							"type": "string"
						}
					],
					"name": "addNewTenant",
					"outputs": [],
					"stateMutability": "nonpayable",
					"type": "function"
				},
				{
					"inputs": [],
					"name": "deposit",
					"outputs": [],
					"stateMutability": "payable",
					"type": "function"
				},
				{
					"inputs": [
						{
							"internalType": "address",
							"name": "_tenantAddress",
							"type": "address"
						}
					],
					"name": "getTenant",
					"outputs": [
						{
							"internalType": "string",
							"name": "name",
							"type": "string"
						},
						{
							"internalType": "address",
							"name": "tenantAddress",
							"type": "address"
						},
						{
							"internalType": "uint256",
							"name": "rentalCost",
							"type": "uint256"
						},
						{
							"internalType": "string",
							"name": "residence",
							"type": "string"
						},
						{
							"internalType": "address",
							"name": "consorcioContractAddress",
							"type": "address"
						}
					],
					"stateMutability": "view",
					"type": "function"
				},
				{
					"inputs": [],
					"name": "owner",
					"outputs": [
						{
							"internalType": "address",
							"name": "",
							"type": "address"
						}
					],
					"stateMutability": "view",
					"type": "function"
				},
				{
					"inputs": [],
					"name": "payExpenses",
					"outputs": [],
					"stateMutability": "payable",
					"type": "function"
				},
				{
					"inputs": [],
					"name": "renounceOwnership",
					"outputs": [],
					"stateMutability": "nonpayable",
					"type": "function"
				},
				{
					"inputs": [
						{
							"internalType": "address",
							"name": "_tenantAddress",
							"type": "address"
						},
						{
							"internalType": "uint256",
							"name": "_newRentalCost",
							"type": "uint256"
						}
					],
					"name": "setRentalCost",
					"outputs": [],
					"stateMutability": "nonpayable",
					"type": "function"
				},
				{
					"inputs": [
						{
							"internalType": "address",
							"name": "newOwner",
							"type": "address"
						}
					],
					"name": "transferOwnership",
					"outputs": [],
					"stateMutability": "nonpayable",
					"type": "function"
				},
				{
					"inputs": [],
					"name": "withdrawAddress",
					"outputs": [
						{
							"internalType": "address",
							"name": "",
							"type": "address"
						}
					],
					"stateMutability": "view",
					"type": "function"
				},
				{
					"inputs": [],
					"name": "withdrawal",
					"outputs": [],
					"stateMutability": "nonpayable",
					"type": "function"
				},
				{
					"stateMutability": "payable",
					"type": "receive"
				}
			],
			"devdoc": {
				"kind": "dev",
				"methods": {
					"owner()": {
						"details": "Returns the address of the current owner."
					},
					"renounceOwnership()": {
						"details": "Leaves the contract without owner. It will not be possible to call `onlyOwner` functions anymore. Can only be called by the current owner. NOTE: Renouncing ownership will leave the contract without an owner, thereby removing any functionality that is only available to the owner."
					},
					"transferOwnership(address)": {
						"details": "Transfers ownership of the contract to a new account (`newOwner`). Can only be called by the current owner."
					}
				},
				"version": 1
			},
			"evm": {
				"assembly": "    /* \"contracts/Tenant.sol\":143:2409  contract Tenant is BaseUser, Ownable {... */\n  mstore(0x40, 0x80)\n    /* \"contracts/Tenant.sol\":794:956  constructor (address _consorcioAddress) payable BaseUser (\"\", 0x0000000000000000000000000000000000000000)  {... */\n  mload(0x40)\n  sub(codesize, bytecodeSize)\n  dup1\n  bytecodeSize\n  dup4\n  codecopy\n  dup2\n  add\n  0x40\n  dup2\n  swap1\n  mstore\n  tag_1\n  swap2\n  tag_2\n  jump\t// in\ntag_1:\n    /* \"contracts/BaseUser.sol\":153:280  constructor(string memory newName, address newAddress) {... */\n  0x40\n  dup1\n  mload\n  0x20\n  dup2\n  add\n  swap1\n  swap2\n  mstore\n  0x00\n  dup1\n  dup3\n  mstore\n  dup1\n    /* \"contracts/BaseUser.sol\":219:233  name = newName */\n  tag_7\n    /* \"contracts/BaseUser.sol\":153:280  constructor(string memory newName, address newAddress) {... */\n  dup4\n  dup3\n    /* \"contracts/BaseUser.sol\":219:233  name = newName */\n  tag_8\n  jump\t// in\ntag_7:\n  pop\n    /* \"contracts/BaseUser.sol\":244:259  withdrawAddress */\n  0x01\n    /* \"contracts/BaseUser.sol\":244:272  withdrawAddress = newAddress */\n  dup1\n  sload\n  not(sub(exp(0x02, 0xa0), 0x01))\n  and\n  sub(exp(0x02, 0xa0), 0x01)\n  swap3\n  swap1\n  swap3\n  and\n  swap2\n  swap1\n  swap2\n  or\n  swap1\n  sstore\n  pop\n    /* \"@openzeppelin/contracts/access/Ownable.sol\":936:968  _transferOwnership(_msgSender()) */\n  tag_10\n    /* \"@openzeppelin/contracts/access/Ownable.sol\":955:967  _msgSender() */\n  tag_11\n    /* \"@openzeppelin/contracts/access/Ownable.sol\":955:965  _msgSender */\n  0x0100000000\n  tag_12\n  dup2\n  mul\n    /* \"@openzeppelin/contracts/access/Ownable.sol\":955:967  _msgSender() */\n  div\n  jump\t// in\ntag_11:\n    /* \"@openzeppelin/contracts/access/Ownable.sol\":936:954  _transferOwnership */\n  0x0100000000\n  tag_13\n  dup2\n  mul\n    /* \"@openzeppelin/contracts/access/Ownable.sol\":936:968  _transferOwnership(_msgSender()) */\n  div\n  jump\t// in\ntag_10:\n    /* \"contracts/Tenant.sol\":912:928  consorcioAddress */\n  0x03\n    /* \"contracts/Tenant.sol\":912:948  consorcioAddress = _consorcioAddress */\n  dup1\n  sload\n  not(sub(exp(0x02, 0xa0), 0x01))\n  and\n  sub(exp(0x02, 0xa0), 0x01)\n  swap3\n  swap1\n  swap3\n  and\n  swap2\n  swap1\n  swap2\n  or\n  swap1\n  sstore\n    /* \"contracts/Tenant.sol\":143:2409  contract Tenant is BaseUser, Ownable {... */\n  jump(tag_23)\n    /* \"@openzeppelin/contracts/utils/Context.sol\":640:736  function _msgSender() internal view virtual returns (address) {... */\ntag_12:\n    /* \"@openzeppelin/contracts/utils/Context.sol\":719:729  msg.sender */\n  caller\n  swap1\n    /* \"@openzeppelin/contracts/utils/Context.sol\":640:736  function _msgSender() internal view virtual returns (address) {... */\n  jump\t// out\n    /* \"@openzeppelin/contracts/access/Ownable.sol\":2433:2620  function _transferOwnership(address newOwner) internal virtual {... */\ntag_13:\n    /* \"@openzeppelin/contracts/access/Ownable.sol\":2525:2531  _owner */\n  0x02\n  dup1\n  sload\n  sub(exp(0x02, 0xa0), 0x01)\n    /* \"@openzeppelin/contracts/access/Ownable.sol\":2541:2558  _owner = newOwner */\n  dup4\n  dup2\n  and\n  not(sub(exp(0x02, 0xa0), 0x01))\n  dup4\n  and\n  dup2\n  or\n  swap1\n  swap4\n  sstore\n    /* \"@openzeppelin/contracts/access/Ownable.sol\":2573:2613  OwnershipTransferred(oldOwner, newOwner) */\n  mload(0x40)\n    /* \"@openzeppelin/contracts/access/Ownable.sol\":2525:2531  _owner */\n  swap2\n  and\n  swap2\n    /* \"@openzeppelin/contracts/access/Ownable.sol\":2541:2558  _owner = newOwner */\n  swap1\n    /* \"@openzeppelin/contracts/access/Ownable.sol\":2525:2531  _owner */\n  dup3\n  swap1\n    /* \"@openzeppelin/contracts/access/Ownable.sol\":2573:2613  OwnershipTransferred(oldOwner, newOwner) */\n  0x8be0079c531659141344cd1fd0a4f28419497f9722a3daafe3b4186f6b6457e0\n  swap1\n    /* \"@openzeppelin/contracts/access/Ownable.sol\":2506:2522  address oldOwner */\n  0x00\n  swap1\n    /* \"@openzeppelin/contracts/access/Ownable.sol\":2573:2613  OwnershipTransferred(oldOwner, newOwner) */\n  log3\n    /* \"@openzeppelin/contracts/access/Ownable.sol\":2496:2620  {... */\n  pop\n    /* \"@openzeppelin/contracts/access/Ownable.sol\":2433:2620  function _transferOwnership(address newOwner) internal virtual {... */\n  pop\n  jump\t// out\n    /* \"#utility.yul\":14:304   */\ntag_2:\n    /* \"#utility.yul\":84:90   */\n  0x00\n    /* \"#utility.yul\":137:139   */\n  0x20\n    /* \"#utility.yul\":125:134   */\n  dup3\n    /* \"#utility.yul\":116:123   */\n  dup5\n    /* \"#utility.yul\":112:135   */\n  sub\n    /* \"#utility.yul\":108:140   */\n  slt\n    /* \"#utility.yul\":105:157   */\n  iszero\n  tag_25\n  jumpi\n    /* \"#utility.yul\":153:154   */\n  0x00\n    /* \"#utility.yul\":150:151   */\n  dup1\n    /* \"#utility.yul\":143:155   */\n  revert\n    /* \"#utility.yul\":105:157   */\ntag_25:\n    /* \"#utility.yul\":179:195   */\n  dup2\n  mload\n  sub(exp(0x02, 0xa0), 0x01)\n    /* \"#utility.yul\":224:255   */\n  dup2\n  and\n    /* \"#utility.yul\":214:256   */\n  dup2\n  eq\n    /* \"#utility.yul\":204:274   */\n  tag_26\n  jumpi\n    /* \"#utility.yul\":270:271   */\n  0x00\n    /* \"#utility.yul\":267:268   */\n  dup1\n    /* \"#utility.yul\":260:272   */\n  revert\n    /* \"#utility.yul\":204:274   */\ntag_26:\n    /* \"#utility.yul\":293:298   */\n  swap4\n    /* \"#utility.yul\":14:304   */\n  swap3\n  pop\n  pop\n  pop\n  jump\t// out\n    /* \"#utility.yul\":309:493   */\ntag_18:\n    /* \"#utility.yul\":361:438   */\n  0x4e487b7100000000000000000000000000000000000000000000000000000000\n    /* \"#utility.yul\":358:359   */\n  0x00\n    /* \"#utility.yul\":351:439   */\n  mstore\n    /* \"#utility.yul\":458:462   */\n  0x41\n    /* \"#utility.yul\":455:456   */\n  0x04\n    /* \"#utility.yul\":448:463   */\n  mstore\n    /* \"#utility.yul\":482:486   */\n  0x24\n    /* \"#utility.yul\":479:480   */\n  0x00\n    /* \"#utility.yul\":472:487   */\n  revert\n    /* \"#utility.yul\":498:935   */\ntag_19:\n    /* \"#utility.yul\":583:584   */\n  0x02\n    /* \"#utility.yul\":573:585   */\n  dup2\n  div\n    /* \"#utility.yul\":630:631   */\n  0x01\n    /* \"#utility.yul\":620:632   */\n  dup3\n  and\n  dup1\n    /* \"#utility.yul\":641:702   */\n  tag_29\n  jumpi\n    /* \"#utility.yul\":695:699   */\n  0x7f\n    /* \"#utility.yul\":687:693   */\n  dup3\n    /* \"#utility.yul\":683:700   */\n  and\n    /* \"#utility.yul\":673:700   */\n  swap2\n  pop\n    /* \"#utility.yul\":641:702   */\ntag_29:\n    /* \"#utility.yul\":748:750   */\n  0x20\n    /* \"#utility.yul\":740:746   */\n  dup3\n    /* \"#utility.yul\":737:751   */\n  lt\n    /* \"#utility.yul\":717:735   */\n  dup2\n    /* \"#utility.yul\":714:752   */\n  sub\n    /* \"#utility.yul\":711:929   */\n  tag_30\n  jumpi\n    /* \"#utility.yul\":785:862   */\n  0x4e487b7100000000000000000000000000000000000000000000000000000000\n    /* \"#utility.yul\":782:783   */\n  0x00\n    /* \"#utility.yul\":775:863   */\n  mstore\n    /* \"#utility.yul\":886:890   */\n  0x22\n    /* \"#utility.yul\":883:884   */\n  0x04\n    /* \"#utility.yul\":876:891   */\n  mstore\n    /* \"#utility.yul\":914:918   */\n  0x24\n    /* \"#utility.yul\":911:912   */\n  0x00\n    /* \"#utility.yul\":904:919   */\n  revert\n    /* \"#utility.yul\":711:929   */\ntag_30:\n  pop\n    /* \"#utility.yul\":498:935   */\n  swap2\n  swap1\n  pop\n  jump\t// out\n    /* \"#utility.yul\":1066:1617   */\ntag_21:\n    /* \"#utility.yul\":1168:1170   */\n  0x1f\n    /* \"#utility.yul\":1163:1166   */\n  dup3\n    /* \"#utility.yul\":1160:1171   */\n  gt\n    /* \"#utility.yul\":1157:1611   */\n  iszero\n  tag_33\n  jumpi\n    /* \"#utility.yul\":1204:1205   */\n  0x00\n    /* \"#utility.yul\":1229:1234   */\n  dup2\n    /* \"#utility.yul\":1225:1227   */\n  dup2\n    /* \"#utility.yul\":1218:1235   */\n  mstore\n    /* \"#utility.yul\":1274:1278   */\n  0x20\n    /* \"#utility.yul\":1270:1272   */\n  dup2\n    /* \"#utility.yul\":1260:1279   */\n  keccak256\n    /* \"#utility.yul\":1346:1350   */\n  0x20\n    /* \"#utility.yul\":1341:1343   */\n  0x1f\n    /* \"#utility.yul\":1329:1339   */\n  dup7\n    /* \"#utility.yul\":1325:1344   */\n  add\n    /* \"#utility.yul\":1321:1351   */\n  div\n    /* \"#utility.yul\":1315:1319   */\n  dup2\n    /* \"#utility.yul\":1311:1352   */\n  add\n    /* \"#utility.yul\":1383:1387   */\n  0x20\n    /* \"#utility.yul\":1371:1381   */\n  dup7\n    /* \"#utility.yul\":1368:1388   */\n  lt\n    /* \"#utility.yul\":1365:1412   */\n  iszero\n  tag_34\n  jumpi\n  pop\n    /* \"#utility.yul\":1406:1410   */\n  dup1\n    /* \"#utility.yul\":1365:1412   */\ntag_34:\n    /* \"#utility.yul\":1463:1467   */\n  0x20\n    /* \"#utility.yul\":1458:1460   */\n  0x1f\n    /* \"#utility.yul\":1453:1456   */\n  dup7\n    /* \"#utility.yul\":1449:1461   */\n  add\n    /* \"#utility.yul\":1445:1468   */\n  div\n    /* \"#utility.yul\":1439:1443   */\n  dup3\n    /* \"#utility.yul\":1435:1469   */\n  add\n    /* \"#utility.yul\":1425:1469   */\n  swap2\n  pop\n    /* \"#utility.yul\":1519:1601   */\ntag_35:\n    /* \"#utility.yul\":1537:1539   */\n  dup2\n    /* \"#utility.yul\":1530:1535   */\n  dup2\n    /* \"#utility.yul\":1527:1540   */\n  lt\n    /* \"#utility.yul\":1519:1601   */\n  iszero\n  tag_37\n  jumpi\n    /* \"#utility.yul\":1582:1599   */\n  dup3\n  dup2\n  sstore\n    /* \"#utility.yul\":1563:1564   */\n  0x01\n    /* \"#utility.yul\":1552:1565   */\n  add\n    /* \"#utility.yul\":1519:1601   */\n  jump(tag_35)\ntag_37:\n    /* \"#utility.yul\":1523:1526   */\n  pop\n  pop\n  pop\n    /* \"#utility.yul\":1157:1611   */\ntag_33:\n    /* \"#utility.yul\":1066:1617   */\n  pop\n  pop\n  pop\n  jump\t// out\n    /* \"#utility.yul\":1801:3160   */\ntag_8:\n    /* \"#utility.yul\":1927:1930   */\n  dup2\n    /* \"#utility.yul\":1921:1931   */\n  mload\n    /* \"#utility.yul\":1954:1972   */\n  0xffffffffffffffff\n    /* \"#utility.yul\":1946:1952   */\n  dup2\n    /* \"#utility.yul\":1943:1973   */\n  gt\n    /* \"#utility.yul\":1940:1996   */\n  iszero\n  tag_41\n  jumpi\n    /* \"#utility.yul\":1976:1994   */\n  tag_41\n  tag_18\n  jump\t// in\ntag_41:\n    /* \"#utility.yul\":2005:2102   */\n  tag_42\n    /* \"#utility.yul\":2095:2101   */\n  dup2\n    /* \"#utility.yul\":2055:2093   */\n  tag_43\n    /* \"#utility.yul\":2087:2091   */\n  dup5\n    /* \"#utility.yul\":2081:2092   */\n  sload\n    /* \"#utility.yul\":2055:2093   */\n  tag_19\n  jump\t// in\ntag_43:\n    /* \"#utility.yul\":2049:2053   */\n  dup5\n    /* \"#utility.yul\":2005:2102   */\n  tag_21\n  jump\t// in\ntag_42:\n    /* \"#utility.yul\":2157:2161   */\n  0x20\n  dup1\n    /* \"#utility.yul\":2221:2223   */\n  0x1f\n    /* \"#utility.yul\":2210:2224   */\n  dup4\n  gt\n    /* \"#utility.yul\":2238:2239   */\n  0x01\n    /* \"#utility.yul\":2233:2903   */\n  dup2\n  eq\n  tag_45\n  jumpi\n    /* \"#utility.yul\":2947:2948   */\n  0x00\n    /* \"#utility.yul\":2964:2970   */\n  dup5\n    /* \"#utility.yul\":2961:3050   */\n  iszero\n  tag_46\n  jumpi\n  pop\n    /* \"#utility.yul\":3016:3035   */\n  dup6\n  dup4\n  add\n    /* \"#utility.yul\":3010:3036   */\n  mload\n    /* \"#utility.yul\":2961:3050   */\ntag_46:\n    /* \"#utility.yul\":1782:1783   */\n  0x02\n    /* \"#utility.yul\":1778:1789   */\n  dup1\n  dup7\n  mul\n    /* \"#utility.yul\":1765:1766   */\n  0x08\n    /* \"#utility.yul\":1761:1772   */\n  dup8\n  mul\n    /* \"#utility.yul\":1754:1773   */\n  swap1\n  swap2\n  exp\n  not(0x00)\n    /* \"#utility.yul\":1742:1774   */\n  div\n    /* \"#utility.yul\":1738:1775   */\n  not\n    /* \"#utility.yul\":1728:1776   */\n  dup3\n  and\n    /* \"#utility.yul\":1725:1790   */\n  or\n    /* \"#utility.yul\":3070:3074   */\n  dup7\n    /* \"#utility.yul\":3063:3144   */\n  sstore\n  pop\n    /* \"#utility.yul\":2203:3154   */\n  jump(tag_37)\n    /* \"#utility.yul\":2233:2903   */\ntag_45:\n    /* \"#utility.yul\":1013:1014   */\n  0x00\n    /* \"#utility.yul\":1006:1020   */\n  dup6\n  dup2\n  mstore\n    /* \"#utility.yul\":1050:1054   */\n  0x20\n    /* \"#utility.yul\":1037:1055   */\n  dup2\n  keccak256\n  not(0x1f)\n    /* \"#utility.yul\":2269:2289   */\n  dup7\n  and\n  swap2\n    /* \"#utility.yul\":2387:2623   */\ntag_49:\n    /* \"#utility.yul\":2401:2408   */\n  dup3\n    /* \"#utility.yul\":2398:2399   */\n  dup2\n    /* \"#utility.yul\":2395:2409   */\n  lt\n    /* \"#utility.yul\":2387:2623   */\n  iszero\n  tag_51\n  jumpi\n    /* \"#utility.yul\":2490:2509   */\n  dup9\n  dup7\n  add\n    /* \"#utility.yul\":2484:2510   */\n  mload\n    /* \"#utility.yul\":2469:2511   */\n  dup3\n  sstore\n    /* \"#utility.yul\":2582:2609   */\n  swap5\n  dup5\n  add\n  swap5\n    /* \"#utility.yul\":2550:2551   */\n  0x01\n    /* \"#utility.yul\":2538:2552   */\n  swap1\n  swap2\n  add\n  swap1\n    /* \"#utility.yul\":2417:2436   */\n  dup5\n  add\n    /* \"#utility.yul\":2387:2623   */\n  jump(tag_49)\ntag_51:\n    /* \"#utility.yul\":2391:2394   */\n  pop\n    /* \"#utility.yul\":2651:2657   */\n  dup6\n    /* \"#utility.yul\":2642:2649   */\n  dup3\n    /* \"#utility.yul\":2639:2658   */\n  lt\n    /* \"#utility.yul\":2636:2844   */\n  iszero\n  tag_52\n  jumpi\n    /* \"#utility.yul\":2712:2731   */\n  dup8\n  dup6\n  add\n    /* \"#utility.yul\":2706:2732   */\n  mload\n    /* \"#utility.yul\":2806:2807   */\n  0x08\n    /* \"#utility.yul\":2821:2823   */\n  0x1f\n    /* \"#utility.yul\":2809:2824   */\n  dup9\n  and\n    /* \"#utility.yul\":2802:2825   */\n  mul\n    /* \"#utility.yul\":2799:2800   */\n  0x02\n    /* \"#utility.yul\":2795:2826   */\n  exp\n  not(0x00)\n    /* \"#utility.yul\":2783:2827   */\n  div\n    /* \"#utility.yul\":2779:2828   */\n  not\n    /* \"#utility.yul\":2764:2829   */\n  and\n    /* \"#utility.yul\":2749:2830   */\n  dup2\n  sstore\n    /* \"#utility.yul\":2636:2844   */\ntag_52:\n  pop\n  pop\n  pop\n  pop\n  pop\n    /* \"#utility.yul\":2886:2887   */\n  0x02\n    /* \"#utility.yul\":2874:2888   */\n  mul\n    /* \"#utility.yul\":2890:2891   */\n  0x01\n    /* \"#utility.yul\":2870:2892   */\n  add\n    /* \"#utility.yul\":2857:2893   */\n  swap1\n  sstore\n  pop\n    /* \"#utility.yul\":1801:3160   */\n  jump\t// out\ntag_23:\n    /* \"contracts/Tenant.sol\":143:2409  contract Tenant is BaseUser, Ownable {... */\n  dataSize(sub_0)\n  dup1\n  dataOffset(sub_0)\n  0x00\n  codecopy\n  0x00\n  return\nstop\n\nsub_0: assembly {\n        /* \"contracts/Tenant.sol\":143:2409  contract Tenant is BaseUser, Ownable {... */\n      mstore(0x40, 0x80)\n      jumpi(tag_1, lt(calldatasize, 0x04))\n      calldataload(0x00)\n      0x0100000000000000000000000000000000000000000000000000000000\n      swap1\n      div\n      dup1\n      0xd0e30db0\n      gt\n      tag_13\n      jumpi\n      dup1\n      0xd0e30db0\n      eq\n      tag_8\n      jumpi\n      dup1\n      0xd4e93292\n      eq\n      tag_9\n      jumpi\n      dup1\n      0xda6e75c2\n      eq\n      tag_10\n      jumpi\n      dup1\n      0xe5cdb488\n      eq\n      tag_11\n      jumpi\n      dup1\n      0xf2fde38b\n      eq\n      tag_12\n      jumpi\n      stop\n    tag_13:\n      dup1\n      0x1581b600\n      eq\n      tag_3\n      jumpi\n      dup1\n      0x715018a6\n      eq\n      tag_4\n      jumpi\n      dup1\n      0x80c5b8e3\n      eq\n      tag_5\n      jumpi\n      dup1\n      0x8da5cb5b\n      eq\n      tag_6\n      jumpi\n      dup1\n      0xcc0395bf\n      eq\n      tag_7\n      jumpi\n      stop\n    tag_1:\n      jumpi(tag_2, calldatasize)\n      stop\n    tag_2:\n      stop\n        /* \"contracts/BaseUser.sol\":114:144  address public withdrawAddress */\n    tag_3:\n      callvalue\n      dup1\n      iszero\n      tag_18\n      jumpi\n      0x00\n      dup1\n      revert\n    tag_18:\n      pop\n      sload(0x01)\n      tag_19\n      swap1\n      sub(exp(0x02, 0xa0), 0x01)\n      and\n      dup2\n      jump\n    tag_19:\n      mload(0x40)\n      sub(exp(0x02, 0xa0), 0x01)\n        /* \"#utility.yul\":178:233   */\n      swap1\n      swap2\n      and\n        /* \"#utility.yul\":160:234   */\n      dup2\n      mstore\n        /* \"#utility.yul\":148:150   */\n      0x20\n        /* \"#utility.yul\":133:151   */\n      add\n        /* \"contracts/BaseUser.sol\":114:144  address public withdrawAddress */\n    tag_21:\n      mload(0x40)\n      dup1\n      swap2\n      sub\n      swap1\n      return\n        /* \"@openzeppelin/contracts/access/Ownable.sol\":1831:1932  function renounceOwnership() public virtual onlyOwner {... */\n    tag_4:\n      callvalue\n      dup1\n      iszero\n      tag_23\n      jumpi\n      0x00\n      dup1\n      revert\n    tag_23:\n      pop\n      tag_2\n      tag_25\n      jump\t// in\n        /* \"contracts/Tenant.sol\":1844:2005  function setRentalCost(address _tenantAddress, uint _newRentalCost) public onlyOwner {... */\n    tag_5:\n      callvalue\n      dup1\n      iszero\n      tag_26\n      jumpi\n      0x00\n      dup1\n      revert\n    tag_26:\n      pop\n      tag_2\n      tag_28\n      calldatasize\n      0x04\n      tag_29\n      jump\t// in\n    tag_28:\n      tag_30\n      jump\t// in\n        /* \"@openzeppelin/contracts/access/Ownable.sol\":1201:1286  function owner() public view virtual returns (address) {... */\n    tag_6:\n      callvalue\n      dup1\n      iszero\n      tag_31\n      jumpi\n      0x00\n      dup1\n      revert\n    tag_31:\n      pop\n        /* \"@openzeppelin/contracts/access/Ownable.sol\":1273:1279  _owner */\n      and(sub(exp(0x02, 0xa0), 0x01), sload(0x02))\n        /* \"@openzeppelin/contracts/access/Ownable.sol\":1201:1286  function owner() public view virtual returns (address) {... */\n      jump(tag_19)\n        /* \"contracts/Tenant.sol\":1066:1323  function addNewTenant(string memory _name, address _tenantAddress, uint _rentalCost, string memory _residence) public onlyOwner {... */\n    tag_7:\n      callvalue\n      dup1\n      iszero\n      tag_35\n      jumpi\n      0x00\n      dup1\n      revert\n    tag_35:\n      pop\n      tag_2\n      tag_37\n      calldatasize\n      0x04\n      tag_38\n      jump\t// in\n    tag_37:\n      tag_39\n      jump\t// in\n        /* \"contracts/Tenant.sol\":964:1056  function deposit() public payable onlyPayers{... */\n    tag_8:\n      tag_2\n      tag_41\n      jump\t// in\n        /* \"contracts/BaseUser.sol\":288:388  function withdrawal() public {... */\n    tag_9:\n      callvalue\n      dup1\n      iszero\n      tag_2\n      jumpi\n      0x00\n      dup1\n      revert\n        /* \"contracts/Tenant.sol\":2013:2404  function payExpenses() public payable onlyPayers{... */\n    tag_10:\n      tag_2\n      tag_46\n      jump\t// in\n        /* \"contracts/Tenant.sol\":1333:1836  function getTenant(address _tenantAddress) public view returns(string memory name, address tenantAddress, uint rentalCost, string memory residence, address consorcioContractAddress){... */\n    tag_11:\n      callvalue\n      dup1\n      iszero\n      tag_47\n      jumpi\n      0x00\n      dup1\n      revert\n    tag_47:\n      pop\n      tag_48\n      tag_49\n      calldatasize\n      0x04\n      tag_50\n      jump\t// in\n    tag_49:\n      tag_51\n      jump\t// in\n    tag_48:\n      mload(0x40)\n      tag_21\n      swap6\n      swap5\n      swap4\n      swap3\n      swap2\n      swap1\n      tag_53\n      jump\t// in\n        /* \"@openzeppelin/contracts/access/Ownable.sol\":2081:2279  function transferOwnership(address newOwner) public virtual onlyOwner {... */\n    tag_12:\n      callvalue\n      dup1\n      iszero\n      tag_54\n      jumpi\n      0x00\n      dup1\n      revert\n    tag_54:\n      pop\n      tag_2\n      tag_56\n      calldatasize\n      0x04\n      tag_50\n      jump\t// in\n    tag_56:\n      tag_57\n      jump\t// in\n        /* \"@openzeppelin/contracts/access/Ownable.sol\":1831:1932  function renounceOwnership() public virtual onlyOwner {... */\n    tag_25:\n        /* \"@openzeppelin/contracts/access/Ownable.sol\":1094:1107  _checkOwner() */\n      tag_59\n        /* \"@openzeppelin/contracts/access/Ownable.sol\":1094:1105  _checkOwner */\n      tag_60\n        /* \"@openzeppelin/contracts/access/Ownable.sol\":1094:1107  _checkOwner() */\n      jump\t// in\n    tag_59:\n        /* \"@openzeppelin/contracts/access/Ownable.sol\":1895:1925  _transferOwnership(address(0)) */\n      tag_62\n        /* \"@openzeppelin/contracts/access/Ownable.sol\":1922:1923  0 */\n      0x00\n        /* \"@openzeppelin/contracts/access/Ownable.sol\":1895:1913  _transferOwnership */\n      tag_63\n        /* \"@openzeppelin/contracts/access/Ownable.sol\":1895:1925  _transferOwnership(address(0)) */\n      jump\t// in\n    tag_62:\n        /* \"@openzeppelin/contracts/access/Ownable.sol\":1831:1932  function renounceOwnership() public virtual onlyOwner {... */\n      jump\t// out\n        /* \"contracts/Tenant.sol\":1844:2005  function setRentalCost(address _tenantAddress, uint _newRentalCost) public onlyOwner {... */\n    tag_30:\n        /* \"@openzeppelin/contracts/access/Ownable.sol\":1094:1107  _checkOwner() */\n      tag_65\n        /* \"@openzeppelin/contracts/access/Ownable.sol\":1094:1105  _checkOwner */\n      tag_60\n        /* \"@openzeppelin/contracts/access/Ownable.sol\":1094:1107  _checkOwner() */\n      jump\t// in\n    tag_65:\n      sub(exp(0x02, 0xa0), 0x01)\n        /* \"contracts/Tenant.sol\":1940:1969  tenantMapping[_tenantAddress] */\n      swap1\n      swap2\n      and\n      0x00\n      swap1\n      dup2\n      mstore\n        /* \"contracts/Tenant.sol\":1940:1953  tenantMapping */\n      0x04\n        /* \"contracts/Tenant.sol\":1940:1969  tenantMapping[_tenantAddress] */\n      0x20\n      mstore\n      0x40\n      swap1\n      keccak256\n        /* \"contracts/Tenant.sol\":1940:1980  tenantMapping[_tenantAddress].rentalCost */\n      0x02\n      add\n        /* \"contracts/Tenant.sol\":1940:1997  tenantMapping[_tenantAddress].rentalCost = _newRentalCost */\n      sstore\n        /* \"contracts/Tenant.sol\":1844:2005  function setRentalCost(address _tenantAddress, uint _newRentalCost) public onlyOwner {... */\n      jump\t// out\n        /* \"contracts/Tenant.sol\":1066:1323  function addNewTenant(string memory _name, address _tenantAddress, uint _rentalCost, string memory _residence) public onlyOwner {... */\n    tag_39:\n        /* \"@openzeppelin/contracts/access/Ownable.sol\":1094:1107  _checkOwner() */\n      tag_69\n        /* \"@openzeppelin/contracts/access/Ownable.sol\":1094:1105  _checkOwner */\n      tag_60\n        /* \"@openzeppelin/contracts/access/Ownable.sol\":1094:1107  _checkOwner() */\n      jump\t// in\n    tag_69:\n        /* \"contracts/Tenant.sol\":1237:1315  TenantStruct(_name, _tenantAddress, _rentalCost, _residence, consorcioAddress) */\n      0x40\n      dup1\n      mload\n      0xa0\n      dup2\n      add\n      dup3\n      mstore\n      dup6\n      dup2\n      mstore\n      sub(exp(0x02, 0xa0), 0x01)\n      dup1\n      dup7\n      and\n      0x20\n      dup1\n      dup5\n      add\n      dup3\n      swap1\n      mstore\n      dup4\n      dup6\n      add\n      dup8\n      swap1\n      mstore\n      0x60\n      dup5\n      add\n      dup7\n      swap1\n      mstore\n        /* \"contracts/Tenant.sol\":1298:1314  consorcioAddress */\n      sload(0x03)\n      swap1\n      swap3\n      and\n        /* \"contracts/Tenant.sol\":1237:1315  TenantStruct(_name, _tenantAddress, _rentalCost, _residence, consorcioAddress) */\n      0x80\n      dup5\n      add\n      mstore\n      0x00\n        /* \"contracts/Tenant.sol\":1205:1234  tenantMapping[_tenantAddress] */\n      swap1\n      dup2\n      mstore\n        /* \"contracts/Tenant.sol\":1205:1218  tenantMapping */\n      0x04\n        /* \"contracts/Tenant.sol\":1205:1234  tenantMapping[_tenantAddress] */\n      swap1\n      swap2\n      mstore\n      swap2\n      swap1\n      swap2\n      keccak256\n        /* \"contracts/Tenant.sol\":1205:1315  tenantMapping[_tenantAddress] = TenantStruct(_name, _tenantAddress, _rentalCost, _residence, consorcioAddress) */\n      dup2\n      mload\n        /* \"contracts/Tenant.sol\":1205:1234  tenantMapping[_tenantAddress] */\n      dup2\n      swap1\n        /* \"contracts/Tenant.sol\":1205:1315  tenantMapping[_tenantAddress] = TenantStruct(_name, _tenantAddress, _rentalCost, _residence, consorcioAddress) */\n      tag_71\n      swap1\n        /* \"contracts/Tenant.sol\":1205:1234  tenantMapping[_tenantAddress] */\n      dup3\n        /* \"contracts/Tenant.sol\":1205:1315  tenantMapping[_tenantAddress] = TenantStruct(_name, _tenantAddress, _rentalCost, _residence, consorcioAddress) */\n      tag_72\n      jump\t// in\n    tag_71:\n      pop\n      0x20\n      dup3\n      add\n      mload\n      0x01\n      dup3\n      add\n      dup1\n      sload\n      not(0xffffffffffffffffffffffffffffffffffffffff)\n      and\n      sub(exp(0x02, 0xa0), 0x01)\n      swap1\n      swap3\n      and\n      swap2\n      swap1\n      swap2\n      or\n      swap1\n      sstore\n      0x40\n      dup3\n      add\n      mload\n      0x02\n      dup3\n      add\n      sstore\n      0x60\n      dup3\n      add\n      mload\n      0x03\n      dup3\n      add\n      swap1\n      tag_73\n      swap1\n      dup3\n      tag_72\n      jump\t// in\n    tag_73:\n      pop\n      0x80\n      swap2\n      swap1\n      swap2\n      add\n      mload\n      0x04\n      swap1\n      swap2\n      add\n      dup1\n      sload\n      not(0xffffffffffffffffffffffffffffffffffffffff)\n      and\n      sub(exp(0x02, 0xa0), 0x01)\n      swap1\n      swap3\n      and\n      swap2\n      swap1\n      swap2\n      or\n      swap1\n      sstore\n      pop\n      pop\n      pop\n      pop\n        /* \"contracts/Tenant.sol\":1066:1323  function addNewTenant(string memory _name, address _tenantAddress, uint _rentalCost, string memory _residence) public onlyOwner {... */\n      jump\t// out\n        /* \"contracts/Tenant.sol\":964:1056  function deposit() public payable onlyPayers{... */\n    tag_41:\n        /* \"contracts/Tenant.sol\":631:641  msg.sender */\n      caller\n        /* \"contracts/Tenant.sol\":617:642  tenantMapping[msg.sender] */\n      0x00\n      dup2\n      dup2\n      mstore\n        /* \"contracts/Tenant.sol\":617:630  tenantMapping */\n      0x04\n        /* \"contracts/Tenant.sol\":617:642  tenantMapping[msg.sender] */\n      0x20\n      mstore\n      0x40\n      swap1\n      keccak256\n        /* \"contracts/Tenant.sol\":617:656  tenantMapping[msg.sender].tenantAddress */\n      0x01\n      add\n      sload\n      sub(exp(0x02, 0xa0), 0x01)\n      and\n        /* \"contracts/Tenant.sol\":594:656  address(msg.sender) == tenantMapping[msg.sender].tenantAddress */\n      eq\n        /* \"contracts/Tenant.sol\":586:683  require(address(msg.sender) == tenantMapping[msg.sender].tenantAddress, \"You aren't valid payer\") */\n      tag_75\n      jumpi\n      mload(0x40)\n      mul(0x461bcd, exp(0x02, 0xe5))\n      dup2\n      mstore\n        /* \"#utility.yul\":6480:6482   */\n      0x20\n        /* \"contracts/Tenant.sol\":586:683  require(address(msg.sender) == tenantMapping[msg.sender].tenantAddress, \"You aren't valid payer\") */\n      0x04\n      dup3\n      add\n        /* \"#utility.yul\":6462:6483   */\n      mstore\n        /* \"#utility.yul\":6519:6521   */\n      0x16\n        /* \"#utility.yul\":6499:6517   */\n      0x24\n      dup3\n      add\n        /* \"#utility.yul\":6492:6522   */\n      mstore\n        /* \"#utility.yul\":6558:6582   */\n      0x596f75206172656e27742076616c696420706179657200000000000000000000\n        /* \"#utility.yul\":6538:6556   */\n      0x44\n      dup3\n      add\n        /* \"#utility.yul\":6531:6583   */\n      mstore\n        /* \"#utility.yul\":6600:6618   */\n      0x64\n      add\n        /* \"contracts/Tenant.sol\":586:683  require(address(msg.sender) == tenantMapping[msg.sender].tenantAddress, \"You aren't valid payer\") */\n    tag_76:\n      mload(0x40)\n      dup1\n      swap2\n      sub\n      swap1\n      revert\n    tag_75:\n        /* \"contracts/Tenant.sol\":1024:1048  EtherReceived(msg.value) */\n      mload(0x40)\n        /* \"contracts/Tenant.sol\":1038:1047  msg.value */\n      callvalue\n        /* \"#utility.yul\":6775:6800   */\n      dup2\n      mstore\n        /* \"contracts/Tenant.sol\":1024:1048  EtherReceived(msg.value) */\n      0x0a34e3d4f1e6b837dbce1011b61499fa1a483a0abee6a7a6697660b4b2d97132\n      swap1\n        /* \"#utility.yul\":6763:6765   */\n      0x20\n        /* \"#utility.yul\":6748:6766   */\n      add\n        /* \"contracts/Tenant.sol\":1024:1048  EtherReceived(msg.value) */\n      mload(0x40)\n      dup1\n      swap2\n      sub\n      swap1\n      log1\n        /* \"contracts/Tenant.sol\":964:1056  function deposit() public payable onlyPayers{... */\n      jump\t// out\n        /* \"contracts/Tenant.sol\":2013:2404  function payExpenses() public payable onlyPayers{... */\n    tag_46:\n        /* \"contracts/Tenant.sol\":631:641  msg.sender */\n      caller\n        /* \"contracts/Tenant.sol\":617:642  tenantMapping[msg.sender] */\n      0x00\n      dup2\n      dup2\n      mstore\n        /* \"contracts/Tenant.sol\":617:630  tenantMapping */\n      0x04\n        /* \"contracts/Tenant.sol\":617:642  tenantMapping[msg.sender] */\n      0x20\n      mstore\n      0x40\n      swap1\n      keccak256\n        /* \"contracts/Tenant.sol\":617:656  tenantMapping[msg.sender].tenantAddress */\n      0x01\n      add\n      sload\n      sub(exp(0x02, 0xa0), 0x01)\n      and\n        /* \"contracts/Tenant.sol\":594:656  address(msg.sender) == tenantMapping[msg.sender].tenantAddress */\n      eq\n        /* \"contracts/Tenant.sol\":586:683  require(address(msg.sender) == tenantMapping[msg.sender].tenantAddress, \"You aren't valid payer\") */\n      tag_83\n      jumpi\n      mload(0x40)\n      mul(0x461bcd, exp(0x02, 0xe5))\n      dup2\n      mstore\n        /* \"#utility.yul\":6480:6482   */\n      0x20\n        /* \"contracts/Tenant.sol\":586:683  require(address(msg.sender) == tenantMapping[msg.sender].tenantAddress, \"You aren't valid payer\") */\n      0x04\n      dup3\n      add\n        /* \"#utility.yul\":6462:6483   */\n      mstore\n        /* \"#utility.yul\":6519:6521   */\n      0x16\n        /* \"#utility.yul\":6499:6517   */\n      0x24\n      dup3\n      add\n        /* \"#utility.yul\":6492:6522   */\n      mstore\n        /* \"#utility.yul\":6558:6582   */\n      0x596f75206172656e27742076616c696420706179657200000000000000000000\n        /* \"#utility.yul\":6538:6556   */\n      0x44\n      dup3\n      add\n        /* \"#utility.yul\":6531:6583   */\n      mstore\n        /* \"#utility.yul\":6600:6618   */\n      0x64\n      add\n        /* \"contracts/Tenant.sol\":586:683  require(address(msg.sender) == tenantMapping[msg.sender].tenantAddress, \"You aren't valid payer\") */\n      tag_76\n        /* \"#utility.yul\":6278:6624   */\n      jump\n        /* \"contracts/Tenant.sol\":586:683  require(address(msg.sender) == tenantMapping[msg.sender].tenantAddress, \"You aren't valid payer\") */\n    tag_83:\n        /* \"contracts/Tenant.sol\":2104:2114  msg.sender */\n      caller\n        /* \"contracts/Tenant.sol\":2072:2087  uint rentalCost */\n      0x00\n        /* \"contracts/Tenant.sol\":2090:2115  tenantMapping[msg.sender] */\n      swap1\n      dup2\n      mstore\n        /* \"contracts/Tenant.sol\":2090:2103  tenantMapping */\n      0x04\n        /* \"contracts/Tenant.sol\":2090:2115  tenantMapping[msg.sender] */\n      0x20\n      mstore\n      0x40\n      swap1\n      keccak256\n        /* \"contracts/Tenant.sol\":2090:2126  tenantMapping[msg.sender].rentalCost */\n      0x02\n      add\n      sload\n        /* \"contracts/Tenant.sol\":2145:2154  msg.value */\n      callvalue\n        /* \"contracts/Tenant.sol\":2145:2168  msg.value >= rentalCost */\n      dup2\n      gt\n      iszero\n        /* \"contracts/Tenant.sol\":2137:2204  require(msg.value >= rentalCost, \"The funds sent are insufficient\") */\n      tag_86\n      jumpi\n      mload(0x40)\n      mul(0x461bcd, exp(0x02, 0xe5))\n      dup2\n      mstore\n        /* \"#utility.yul\":7013:7015   */\n      0x20\n        /* \"contracts/Tenant.sol\":2137:2204  require(msg.value >= rentalCost, \"The funds sent are insufficient\") */\n      0x04\n      dup3\n      add\n        /* \"#utility.yul\":6995:7016   */\n      mstore\n        /* \"#utility.yul\":7052:7054   */\n      0x1f\n        /* \"#utility.yul\":7032:7050   */\n      0x24\n      dup3\n      add\n        /* \"#utility.yul\":7025:7055   */\n      mstore\n        /* \"#utility.yul\":7091:7124   */\n      0x5468652066756e64732073656e742061726520696e73756666696369656e7400\n        /* \"#utility.yul\":7071:7089   */\n      0x44\n      dup3\n      add\n        /* \"#utility.yul\":7064:7125   */\n      mstore\n        /* \"#utility.yul\":7142:7160   */\n      0x64\n      add\n        /* \"contracts/Tenant.sol\":2137:2204  require(msg.value >= rentalCost, \"The funds sent are insufficient\") */\n      tag_76\n        /* \"#utility.yul\":6811:7166   */\n      jump\n        /* \"contracts/Tenant.sol\":2137:2204  require(msg.value >= rentalCost, \"The funds sent are insufficient\") */\n    tag_86:\n        /* \"contracts/Tenant.sol\":2230:2246  consorcioAddress */\n      sload(0x03)\n        /* \"contracts/Tenant.sol\":2230:2298  consorcioAddress.call {... */\n      mload(0x40)\n        /* \"contracts/Tenant.sol\":2216:2225  bool sent */\n      0x00\n      swap2\n      sub(exp(0x02, 0xa0), 0x01)\n        /* \"contracts/Tenant.sol\":2230:2246  consorcioAddress */\n      and\n      swap1\n        /* \"contracts/Tenant.sol\":2274:2283  msg.value */\n      callvalue\n      swap1\n        /* \"contracts/Tenant.sol\":2216:2225  bool sent */\n      dup4\n        /* \"contracts/Tenant.sol\":2230:2298  consorcioAddress.call {... */\n      dup2\n        /* \"contracts/Tenant.sol\":2216:2225  bool sent */\n      dup2\n        /* \"contracts/Tenant.sol\":2230:2298  consorcioAddress.call {... */\n      dup2\n        /* \"contracts/Tenant.sol\":2274:2283  msg.value */\n      dup6\n        /* \"contracts/Tenant.sol\":2230:2246  consorcioAddress */\n      dup8\n        /* \"contracts/Tenant.sol\":2230:2298  consorcioAddress.call {... */\n      gas\n      call\n      swap3\n      pop\n      pop\n      pop\n      returndatasize\n      dup1\n      0x00\n      dup2\n      eq\n      tag_93\n      jumpi\n      mload(0x40)\n      swap2\n      pop\n      and(add(returndatasize, 0x3f), not(0x1f))\n      dup3\n      add\n      0x40\n      mstore\n      returndatasize\n      dup3\n      mstore\n      returndatasize\n      0x00\n      0x20\n      dup5\n      add\n      returndatacopy\n      jump(tag_92)\n    tag_93:\n      0x60\n      swap2\n      pop\n    tag_92:\n      pop\n        /* \"contracts/Tenant.sol\":2215:2298  (bool sent,) = consorcioAddress.call {... */\n      swap1\n      swap2\n      pop\n      pop\n        /* \"contracts/Tenant.sol\":2325:2329  true */\n      0x01\n        /* \"contracts/Tenant.sol\":2317:2329  sent == true */\n      dup2\n      iszero\n      iszero\n      eq\n        /* \"contracts/Tenant.sol\":2309:2356  require(sent == true, \"Fallo la transferencia\") */\n      tag_94\n      jumpi\n      mload(0x40)\n      mul(0x461bcd, exp(0x02, 0xe5))\n      dup2\n      mstore\n        /* \"#utility.yul\":7583:7585   */\n      0x20\n        /* \"contracts/Tenant.sol\":2309:2356  require(sent == true, \"Fallo la transferencia\") */\n      0x04\n      dup3\n      add\n        /* \"#utility.yul\":7565:7586   */\n      mstore\n        /* \"#utility.yul\":7622:7624   */\n      0x16\n        /* \"#utility.yul\":7602:7620   */\n      0x24\n      dup3\n      add\n        /* \"#utility.yul\":7595:7625   */\n      mstore\n        /* \"#utility.yul\":7661:7685   */\n      0x46616c6c6f206c61207472616e73666572656e63696100000000000000000000\n        /* \"#utility.yul\":7641:7659   */\n      0x44\n      dup3\n      add\n        /* \"#utility.yul\":7634:7686   */\n      mstore\n        /* \"#utility.yul\":7703:7721   */\n      0x64\n      add\n        /* \"contracts/Tenant.sol\":2309:2356  require(sent == true, \"Fallo la transferencia\") */\n      tag_76\n        /* \"#utility.yul\":7381:7727   */\n      jump\n        /* \"contracts/Tenant.sol\":2309:2356  require(sent == true, \"Fallo la transferencia\") */\n    tag_94:\n        /* \"contracts/Tenant.sol\":2372:2396  ExpensesPaid(rentalCost) */\n      mload(0x40)\n        /* \"#utility.yul\":6775:6800   */\n      dup3\n      dup2\n      mstore\n        /* \"contracts/Tenant.sol\":2372:2396  ExpensesPaid(rentalCost) */\n      0x56e1cf8a52e84572ff49b950fa9a1a1867319bf8eba3bf8c77bc4354678a34c5\n      swap1\n        /* \"#utility.yul\":6763:6765   */\n      0x20\n        /* \"#utility.yul\":6748:6766   */\n      add\n        /* \"contracts/Tenant.sol\":2372:2396  ExpensesPaid(rentalCost) */\n      mload(0x40)\n      dup1\n      swap2\n      sub\n      swap1\n      log1\n        /* \"contracts/Tenant.sol\":2061:2404  {... */\n      pop\n      pop\n        /* \"contracts/Tenant.sol\":2013:2404  function payExpenses() public payable onlyPayers{... */\n      jump\t// out\n        /* \"contracts/Tenant.sol\":1333:1836  function getTenant(address _tenantAddress) public view returns(string memory name, address tenantAddress, uint rentalCost, string memory residence, address consorcioContractAddress){... */\n    tag_51:\n      sub(exp(0x02, 0xa0), 0x01)\n        /* \"contracts/Tenant.sol\":1547:1576  tenantMapping[_tenantAddress] */\n      dup1\n      dup3\n      and\n        /* \"contracts/Tenant.sol\":1416:1437  address tenantAddress */\n      0x00\n        /* \"contracts/Tenant.sol\":1547:1576  tenantMapping[_tenantAddress] */\n      swap1\n      dup2\n      mstore\n        /* \"contracts/Tenant.sol\":1547:1560  tenantMapping */\n      0x04\n        /* \"contracts/Tenant.sol\":1547:1576  tenantMapping[_tenantAddress] */\n      0x20\n      dup2\n      swap1\n      mstore\n      0x40\n      dup3\n      keccak256\n        /* \"contracts/Tenant.sol\":1596:1639  tenantMapping[_tenantAddress].tenantAddress */\n      0x01\n      dup2\n      add\n      sload\n        /* \"contracts/Tenant.sol\":1654:1694  tenantMapping[_tenantAddress].rentalCost */\n      0x02\n      dup3\n      add\n      sload\n        /* \"contracts/Tenant.sol\":1763:1817  tenantMapping[_tenantAddress].consorcioContractAddress */\n      swap3\n      dup3\n      add\n      sload\n        /* \"contracts/Tenant.sol\":1525:1828  return (... */\n      dup3\n      sload\n        /* \"contracts/Tenant.sol\":1396:1414  string memory name */\n      0x60\n      swap7\n        /* \"contracts/Tenant.sol\":1416:1437  address tenantAddress */\n      dup7\n      swap6\n        /* \"contracts/Tenant.sol\":1396:1414  string memory name */\n      dup9\n      swap6\n        /* \"contracts/Tenant.sol\":1416:1437  address tenantAddress */\n      dup8\n      swap6\n        /* \"contracts/Tenant.sol\":1547:1576  tenantMapping[_tenantAddress] */\n      swap1\n      swap5\n        /* \"contracts/Tenant.sol\":1596:1639  tenantMapping[_tenantAddress].tenantAddress */\n      swap1\n      dup4\n      and\n      swap4\n        /* \"contracts/Tenant.sol\":1654:1694  tenantMapping[_tenantAddress].rentalCost */\n      swap2\n      swap3\n        /* \"contracts/Tenant.sol\":1709:1748  tenantMapping[_tenantAddress].residence */\n      0x03\n      dup7\n      add\n      swap3\n        /* \"contracts/Tenant.sol\":1763:1817  tenantMapping[_tenantAddress].consorcioContractAddress */\n      swap2\n      and\n      swap1\n        /* \"contracts/Tenant.sol\":1547:1576  tenantMapping[_tenantAddress] */\n      dup6\n      swap1\n        /* \"contracts/Tenant.sol\":1525:1828  return (... */\n      tag_99\n      swap1\n      tag_100\n      jump\t// in\n    tag_99:\n      dup1\n      0x1f\n      add\n      0x20\n      dup1\n      swap2\n      div\n      mul\n      0x20\n      add\n      mload(0x40)\n      swap1\n      dup2\n      add\n      0x40\n      mstore\n      dup1\n      swap3\n      swap2\n      swap1\n      dup2\n      dup2\n      mstore\n      0x20\n      add\n      dup3\n      dup1\n      sload\n      tag_101\n      swap1\n      tag_100\n      jump\t// in\n    tag_101:\n      dup1\n      iszero\n      tag_102\n      jumpi\n      dup1\n      0x1f\n      lt\n      tag_103\n      jumpi\n      0x0100\n      dup1\n      dup4\n      sload\n      div\n      mul\n      dup4\n      mstore\n      swap2\n      0x20\n      add\n      swap2\n      jump(tag_102)\n    tag_103:\n      dup3\n      add\n      swap2\n      swap1\n      0x00\n      mstore\n      keccak256(0x00, 0x20)\n      swap1\n    tag_104:\n      dup2\n      sload\n      dup2\n      mstore\n      swap1\n      0x01\n      add\n      swap1\n      0x20\n      add\n      dup1\n      dup4\n      gt\n      tag_104\n      jumpi\n      dup3\n      swap1\n      sub\n      0x1f\n      and\n      dup3\n      add\n      swap2\n    tag_102:\n      pop\n      pop\n      pop\n      pop\n      pop\n      swap5\n      pop\n      dup2\n      dup1\n      sload\n      tag_105\n      swap1\n      tag_100\n      jump\t// in\n    tag_105:\n      dup1\n      0x1f\n      add\n      0x20\n      dup1\n      swap2\n      div\n      mul\n      0x20\n      add\n      mload(0x40)\n      swap1\n      dup2\n      add\n      0x40\n      mstore\n      dup1\n      swap3\n      swap2\n      swap1\n      dup2\n      dup2\n      mstore\n      0x20\n      add\n      dup3\n      dup1\n      sload\n      tag_106\n      swap1\n      tag_100\n      jump\t// in\n    tag_106:\n      dup1\n      iszero\n      tag_107\n      jumpi\n      dup1\n      0x1f\n      lt\n      tag_108\n      jumpi\n      0x0100\n      dup1\n      dup4\n      sload\n      div\n      mul\n      dup4\n      mstore\n      swap2\n      0x20\n      add\n      swap2\n      jump(tag_107)\n    tag_108:\n      dup3\n      add\n      swap2\n      swap1\n      0x00\n      mstore\n      keccak256(0x00, 0x20)\n      swap1\n    tag_109:\n      dup2\n      sload\n      dup2\n      mstore\n      swap1\n      0x01\n      add\n      swap1\n      0x20\n      add\n      dup1\n      dup4\n      gt\n      tag_109\n      jumpi\n      dup3\n      swap1\n      sub\n      0x1f\n      and\n      dup3\n      add\n      swap2\n    tag_107:\n      pop\n      pop\n      pop\n      pop\n      pop\n      swap2\n      pop\n      swap5\n      pop\n      swap5\n      pop\n      swap5\n      pop\n      swap5\n      pop\n      swap5\n      pop\n        /* \"contracts/Tenant.sol\":1333:1836  function getTenant(address _tenantAddress) public view returns(string memory name, address tenantAddress, uint rentalCost, string memory residence, address consorcioContractAddress){... */\n      swap2\n      swap4\n      swap6\n      swap1\n      swap3\n      swap5\n      pop\n      jump\t// out\n        /* \"@openzeppelin/contracts/access/Ownable.sol\":2081:2279  function transferOwnership(address newOwner) public virtual onlyOwner {... */\n    tag_57:\n        /* \"@openzeppelin/contracts/access/Ownable.sol\":1094:1107  _checkOwner() */\n      tag_111\n        /* \"@openzeppelin/contracts/access/Ownable.sol\":1094:1105  _checkOwner */\n      tag_60\n        /* \"@openzeppelin/contracts/access/Ownable.sol\":1094:1107  _checkOwner() */\n      jump\t// in\n    tag_111:\n      sub(exp(0x02, 0xa0), 0x01)\n        /* \"@openzeppelin/contracts/access/Ownable.sol\":2169:2191  newOwner != address(0) */\n      dup2\n      and\n        /* \"@openzeppelin/contracts/access/Ownable.sol\":2161:2234  require(newOwner != address(0), \"Ownable: new owner is the zero address\") */\n      tag_113\n      jumpi\n      mload(0x40)\n      mul(0x461bcd, exp(0x02, 0xe5))\n      dup2\n      mstore\n        /* \"#utility.yul\":7934:7936   */\n      0x20\n        /* \"@openzeppelin/contracts/access/Ownable.sol\":2161:2234  require(newOwner != address(0), \"Ownable: new owner is the zero address\") */\n      0x04\n      dup3\n      add\n        /* \"#utility.yul\":7916:7937   */\n      mstore\n        /* \"#utility.yul\":7973:7975   */\n      0x26\n        /* \"#utility.yul\":7953:7971   */\n      0x24\n      dup3\n      add\n        /* \"#utility.yul\":7946:7976   */\n      mstore\n        /* \"#utility.yul\":8012:8046   */\n      0x4f776e61626c653a206e6577206f776e657220697320746865207a65726f2061\n        /* \"#utility.yul\":7992:8010   */\n      0x44\n      dup3\n      add\n        /* \"#utility.yul\":7985:8047   */\n      mstore\n        /* \"#utility.yul\":8083:8091   */\n      0x6464726573730000000000000000000000000000000000000000000000000000\n        /* \"#utility.yul\":8063:8081   */\n      0x64\n      dup3\n      add\n        /* \"#utility.yul\":8056:8092   */\n      mstore\n        /* \"#utility.yul\":8109:8128   */\n      0x84\n      add\n        /* \"@openzeppelin/contracts/access/Ownable.sol\":2161:2234  require(newOwner != address(0), \"Ownable: new owner is the zero address\") */\n      tag_76\n        /* \"#utility.yul\":7732:8134   */\n      jump\n        /* \"@openzeppelin/contracts/access/Ownable.sol\":2161:2234  require(newOwner != address(0), \"Ownable: new owner is the zero address\") */\n    tag_113:\n        /* \"@openzeppelin/contracts/access/Ownable.sol\":2244:2272  _transferOwnership(newOwner) */\n      tag_116\n        /* \"@openzeppelin/contracts/access/Ownable.sol\":2263:2271  newOwner */\n      dup2\n        /* \"@openzeppelin/contracts/access/Ownable.sol\":2244:2262  _transferOwnership */\n      tag_63\n        /* \"@openzeppelin/contracts/access/Ownable.sol\":2244:2272  _transferOwnership(newOwner) */\n      jump\t// in\n    tag_116:\n        /* \"@openzeppelin/contracts/access/Ownable.sol\":2081:2279  function transferOwnership(address newOwner) public virtual onlyOwner {... */\n      pop\n      jump\t// out\n        /* \"@openzeppelin/contracts/access/Ownable.sol\":1359:1489  function _checkOwner() internal view virtual {... */\n    tag_60:\n        /* \"@openzeppelin/contracts/access/Ownable.sol\":1273:1279  _owner */\n      and(sub(exp(0x02, 0xa0), 0x01), sload(0x02))\n        /* \"@openzeppelin/contracts/utils/Context.sol\":719:729  msg.sender */\n      caller\n        /* \"@openzeppelin/contracts/access/Ownable.sol\":1422:1445  owner() == _msgSender() */\n      eq\n        /* \"@openzeppelin/contracts/access/Ownable.sol\":1414:1482  require(owner() == _msgSender(), \"Ownable: caller is not the owner\") */\n      tag_62\n      jumpi\n      mload(0x40)\n      mul(0x461bcd, exp(0x02, 0xe5))\n      dup2\n      mstore\n        /* \"#utility.yul\":8341:8343   */\n      0x20\n        /* \"@openzeppelin/contracts/access/Ownable.sol\":1414:1482  require(owner() == _msgSender(), \"Ownable: caller is not the owner\") */\n      0x04\n      dup3\n      add\n        /* \"#utility.yul\":8323:8344   */\n      dup2\n      swap1\n      mstore\n        /* \"#utility.yul\":8360:8378   */\n      0x24\n      dup3\n      add\n        /* \"#utility.yul\":8353:8383   */\n      mstore\n        /* \"#utility.yul\":8419:8453   */\n      0x4f776e61626c653a2063616c6c6572206973206e6f7420746865206f776e6572\n        /* \"#utility.yul\":8399:8417   */\n      0x44\n      dup3\n      add\n        /* \"#utility.yul\":8392:8454   */\n      mstore\n        /* \"#utility.yul\":8471:8489   */\n      0x64\n      add\n        /* \"@openzeppelin/contracts/access/Ownable.sol\":1414:1482  require(owner() == _msgSender(), \"Ownable: caller is not the owner\") */\n      tag_76\n        /* \"#utility.yul\":8139:8495   */\n      jump\n        /* \"@openzeppelin/contracts/access/Ownable.sol\":2433:2620  function _transferOwnership(address newOwner) internal virtual {... */\n    tag_63:\n        /* \"@openzeppelin/contracts/access/Ownable.sol\":2525:2531  _owner */\n      0x02\n      dup1\n      sload\n      sub(exp(0x02, 0xa0), 0x01)\n        /* \"@openzeppelin/contracts/access/Ownable.sol\":2541:2558  _owner = newOwner */\n      dup4\n      dup2\n      and\n      not(0xffffffffffffffffffffffffffffffffffffffff)\n      dup4\n      and\n      dup2\n      or\n      swap1\n      swap4\n      sstore\n        /* \"@openzeppelin/contracts/access/Ownable.sol\":2573:2613  OwnershipTransferred(oldOwner, newOwner) */\n      mload(0x40)\n        /* \"@openzeppelin/contracts/access/Ownable.sol\":2525:2531  _owner */\n      swap2\n      and\n      swap2\n        /* \"@openzeppelin/contracts/access/Ownable.sol\":2541:2558  _owner = newOwner */\n      swap1\n        /* \"@openzeppelin/contracts/access/Ownable.sol\":2525:2531  _owner */\n      dup3\n      swap1\n        /* \"@openzeppelin/contracts/access/Ownable.sol\":2573:2613  OwnershipTransferred(oldOwner, newOwner) */\n      0x8be0079c531659141344cd1fd0a4f28419497f9722a3daafe3b4186f6b6457e0\n      swap1\n        /* \"@openzeppelin/contracts/access/Ownable.sol\":2506:2522  address oldOwner */\n      0x00\n      swap1\n        /* \"@openzeppelin/contracts/access/Ownable.sol\":2573:2613  OwnershipTransferred(oldOwner, newOwner) */\n      log3\n        /* \"@openzeppelin/contracts/access/Ownable.sol\":2496:2620  {... */\n      pop\n        /* \"@openzeppelin/contracts/access/Ownable.sol\":2433:2620  function _transferOwnership(address newOwner) internal virtual {... */\n      pop\n      jump\t// out\n        /* \"#utility.yul\":245:441   */\n    tag_126:\n        /* \"#utility.yul\":313:333   */\n      dup1\n      calldataload\n      sub(exp(0x02, 0xa0), 0x01)\n        /* \"#utility.yul\":362:416   */\n      dup2\n      and\n        /* \"#utility.yul\":352:417   */\n      dup2\n      eq\n        /* \"#utility.yul\":342:435   */\n      tag_136\n      jumpi\n        /* \"#utility.yul\":431:432   */\n      0x00\n        /* \"#utility.yul\":428:429   */\n      dup1\n        /* \"#utility.yul\":421:433   */\n      revert\n        /* \"#utility.yul\":342:435   */\n    tag_136:\n        /* \"#utility.yul\":245:441   */\n      swap2\n      swap1\n      pop\n      jump\t// out\n        /* \"#utility.yul\":446:700   */\n    tag_29:\n        /* \"#utility.yul\":514:520   */\n      0x00\n        /* \"#utility.yul\":522:528   */\n      dup1\n        /* \"#utility.yul\":575:577   */\n      0x40\n        /* \"#utility.yul\":563:572   */\n      dup4\n        /* \"#utility.yul\":554:561   */\n      dup6\n        /* \"#utility.yul\":550:573   */\n      sub\n        /* \"#utility.yul\":546:578   */\n      slt\n        /* \"#utility.yul\":543:595   */\n      iszero\n      tag_138\n      jumpi\n        /* \"#utility.yul\":591:592   */\n      0x00\n        /* \"#utility.yul\":588:589   */\n      dup1\n        /* \"#utility.yul\":581:593   */\n      revert\n        /* \"#utility.yul\":543:595   */\n    tag_138:\n        /* \"#utility.yul\":614:643   */\n      tag_139\n        /* \"#utility.yul\":633:642   */\n      dup4\n        /* \"#utility.yul\":614:643   */\n      tag_126\n      jump\t// in\n    tag_139:\n        /* \"#utility.yul\":604:643   */\n      swap5\n        /* \"#utility.yul\":690:692   */\n      0x20\n        /* \"#utility.yul\":675:693   */\n      swap4\n      swap1\n      swap4\n      add\n        /* \"#utility.yul\":662:694   */\n      calldataload\n      swap4\n      pop\n      pop\n      pop\n        /* \"#utility.yul\":446:700   */\n      jump\t// out\n        /* \"#utility.yul\":705:889   */\n    tag_127:\n        /* \"#utility.yul\":757:834   */\n      0x4e487b7100000000000000000000000000000000000000000000000000000000\n        /* \"#utility.yul\":754:755   */\n      0x00\n        /* \"#utility.yul\":747:835   */\n      mstore\n        /* \"#utility.yul\":854:858   */\n      0x41\n        /* \"#utility.yul\":851:852   */\n      0x04\n        /* \"#utility.yul\":844:859   */\n      mstore\n        /* \"#utility.yul\":878:882   */\n      0x24\n        /* \"#utility.yul\":875:876   */\n      0x00\n        /* \"#utility.yul\":868:883   */\n      revert\n        /* \"#utility.yul\":894:1613   */\n    tag_128:\n        /* \"#utility.yul\":937:942   */\n      0x00\n        /* \"#utility.yul\":990:993   */\n      dup3\n        /* \"#utility.yul\":983:987   */\n      0x1f\n        /* \"#utility.yul\":975:981   */\n      dup4\n        /* \"#utility.yul\":971:988   */\n      add\n        /* \"#utility.yul\":967:994   */\n      slt\n        /* \"#utility.yul\":957:1012   */\n      tag_142\n      jumpi\n        /* \"#utility.yul\":1008:1009   */\n      0x00\n        /* \"#utility.yul\":1005:1006   */\n      dup1\n        /* \"#utility.yul\":998:1010   */\n      revert\n        /* \"#utility.yul\":957:1012   */\n    tag_142:\n        /* \"#utility.yul\":1044:1050   */\n      dup2\n        /* \"#utility.yul\":1031:1051   */\n      calldataload\n        /* \"#utility.yul\":1070:1088   */\n      0xffffffffffffffff\n        /* \"#utility.yul\":1107:1109   */\n      dup1\n        /* \"#utility.yul\":1103:1105   */\n      dup3\n        /* \"#utility.yul\":1100:1110   */\n      gt\n        /* \"#utility.yul\":1097:1133   */\n      iszero\n      tag_144\n      jumpi\n        /* \"#utility.yul\":1113:1131   */\n      tag_144\n      tag_127\n      jump\t// in\n    tag_144:\n        /* \"#utility.yul\":1188:1190   */\n      0x40\n        /* \"#utility.yul\":1182:1191   */\n      mload\n        /* \"#utility.yul\":1156:1158   */\n      0x1f\n        /* \"#utility.yul\":1242:1255   */\n      dup4\n      add\n      not(0x1f)\n        /* \"#utility.yul\":1238:1260   */\n      swap1\n      dup2\n      and\n        /* \"#utility.yul\":1262:1264   */\n      0x3f\n        /* \"#utility.yul\":1234:1265   */\n      add\n        /* \"#utility.yul\":1230:1270   */\n      and\n        /* \"#utility.yul\":1218:1271   */\n      dup2\n      add\n      swap1\n        /* \"#utility.yul\":1286:1304   */\n      dup3\n      dup3\n      gt\n        /* \"#utility.yul\":1306:1328   */\n      dup2\n      dup4\n      lt\n        /* \"#utility.yul\":1283:1329   */\n      or\n        /* \"#utility.yul\":1280:1352   */\n      iszero\n      tag_146\n      jumpi\n        /* \"#utility.yul\":1332:1350   */\n      tag_146\n      tag_127\n      jump\t// in\n    tag_146:\n        /* \"#utility.yul\":1372:1382   */\n      dup2\n        /* \"#utility.yul\":1368:1370   */\n      0x40\n        /* \"#utility.yul\":1361:1383   */\n      mstore\n        /* \"#utility.yul\":1407:1409   */\n      dup4\n        /* \"#utility.yul\":1399:1405   */\n      dup2\n        /* \"#utility.yul\":1392:1410   */\n      mstore\n        /* \"#utility.yul\":1453:1456   */\n      dup7\n        /* \"#utility.yul\":1446:1450   */\n      0x20\n        /* \"#utility.yul\":1441:1443   */\n      dup6\n        /* \"#utility.yul\":1433:1439   */\n      dup9\n        /* \"#utility.yul\":1429:1444   */\n      add\n        /* \"#utility.yul\":1425:1451   */\n      add\n        /* \"#utility.yul\":1422:1457   */\n      gt\n        /* \"#utility.yul\":1419:1474   */\n      iszero\n      tag_147\n      jumpi\n        /* \"#utility.yul\":1470:1471   */\n      0x00\n        /* \"#utility.yul\":1467:1468   */\n      dup1\n        /* \"#utility.yul\":1460:1472   */\n      revert\n        /* \"#utility.yul\":1419:1474   */\n    tag_147:\n        /* \"#utility.yul\":1534:1536   */\n      dup4\n        /* \"#utility.yul\":1527:1531   */\n      0x20\n        /* \"#utility.yul\":1519:1525   */\n      dup8\n        /* \"#utility.yul\":1515:1532   */\n      add\n        /* \"#utility.yul\":1508:1512   */\n      0x20\n        /* \"#utility.yul\":1500:1506   */\n      dup4\n        /* \"#utility.yul\":1496:1513   */\n      add\n        /* \"#utility.yul\":1483:1537   */\n      calldatacopy\n        /* \"#utility.yul\":1581:1582   */\n      0x00\n        /* \"#utility.yul\":1574:1578   */\n      0x20\n        /* \"#utility.yul\":1569:1571   */\n      dup6\n        /* \"#utility.yul\":1561:1567   */\n      dup4\n        /* \"#utility.yul\":1557:1572   */\n      add\n        /* \"#utility.yul\":1553:1579   */\n      add\n        /* \"#utility.yul\":1546:1583   */\n      mstore\n        /* \"#utility.yul\":1601:1607   */\n      dup1\n        /* \"#utility.yul\":1592:1607   */\n      swap5\n      pop\n      pop\n      pop\n      pop\n      pop\n        /* \"#utility.yul\":894:1613   */\n      swap3\n      swap2\n      pop\n      pop\n      jump\t// out\n        /* \"#utility.yul\":1618:2304   */\n    tag_38:\n        /* \"#utility.yul\":1724:1730   */\n      0x00\n        /* \"#utility.yul\":1732:1738   */\n      dup1\n        /* \"#utility.yul\":1740:1746   */\n      0x00\n        /* \"#utility.yul\":1748:1754   */\n      dup1\n        /* \"#utility.yul\":1801:1804   */\n      0x80\n        /* \"#utility.yul\":1789:1798   */\n      dup6\n        /* \"#utility.yul\":1780:1787   */\n      dup8\n        /* \"#utility.yul\":1776:1799   */\n      sub\n        /* \"#utility.yul\":1772:1805   */\n      slt\n        /* \"#utility.yul\":1769:1822   */\n      iszero\n      tag_149\n      jumpi\n        /* \"#utility.yul\":1818:1819   */\n      0x00\n        /* \"#utility.yul\":1815:1816   */\n      dup1\n        /* \"#utility.yul\":1808:1820   */\n      revert\n        /* \"#utility.yul\":1769:1822   */\n    tag_149:\n        /* \"#utility.yul\":1858:1867   */\n      dup5\n        /* \"#utility.yul\":1845:1868   */\n      calldataload\n        /* \"#utility.yul\":1887:1905   */\n      0xffffffffffffffff\n        /* \"#utility.yul\":1928:1930   */\n      dup1\n        /* \"#utility.yul\":1920:1926   */\n      dup3\n        /* \"#utility.yul\":1917:1931   */\n      gt\n        /* \"#utility.yul\":1914:1948   */\n      iszero\n      tag_150\n      jumpi\n        /* \"#utility.yul\":1944:1945   */\n      0x00\n        /* \"#utility.yul\":1941:1942   */\n      dup1\n        /* \"#utility.yul\":1934:1946   */\n      revert\n        /* \"#utility.yul\":1914:1948   */\n    tag_150:\n        /* \"#utility.yul\":1967:2017   */\n      tag_151\n        /* \"#utility.yul\":2009:2016   */\n      dup9\n        /* \"#utility.yul\":2000:2006   */\n      dup4\n        /* \"#utility.yul\":1989:1998   */\n      dup10\n        /* \"#utility.yul\":1985:2007   */\n      add\n        /* \"#utility.yul\":1967:2017   */\n      tag_128\n      jump\t// in\n    tag_151:\n        /* \"#utility.yul\":1957:2017   */\n      swap6\n      pop\n        /* \"#utility.yul\":2036:2074   */\n      tag_152\n        /* \"#utility.yul\":2070:2072   */\n      0x20\n        /* \"#utility.yul\":2059:2068   */\n      dup9\n        /* \"#utility.yul\":2055:2073   */\n      add\n        /* \"#utility.yul\":2036:2074   */\n      tag_126\n      jump\t// in\n    tag_152:\n        /* \"#utility.yul\":2026:2074   */\n      swap5\n      pop\n        /* \"#utility.yul\":2121:2123   */\n      0x40\n        /* \"#utility.yul\":2110:2119   */\n      dup8\n        /* \"#utility.yul\":2106:2124   */\n      add\n        /* \"#utility.yul\":2093:2125   */\n      calldataload\n        /* \"#utility.yul\":2083:2125   */\n      swap4\n      pop\n        /* \"#utility.yul\":2178:2180   */\n      0x60\n        /* \"#utility.yul\":2167:2176   */\n      dup8\n        /* \"#utility.yul\":2163:2181   */\n      add\n        /* \"#utility.yul\":2150:2182   */\n      calldataload\n        /* \"#utility.yul\":2134:2182   */\n      swap2\n      pop\n        /* \"#utility.yul\":2207:2209   */\n      dup1\n        /* \"#utility.yul\":2197:2205   */\n      dup3\n        /* \"#utility.yul\":2194:2210   */\n      gt\n        /* \"#utility.yul\":2191:2227   */\n      iszero\n      tag_153\n      jumpi\n        /* \"#utility.yul\":2223:2224   */\n      0x00\n        /* \"#utility.yul\":2220:2221   */\n      dup1\n        /* \"#utility.yul\":2213:2225   */\n      revert\n        /* \"#utility.yul\":2191:2227   */\n    tag_153:\n      pop\n        /* \"#utility.yul\":2246:2298   */\n      tag_154\n        /* \"#utility.yul\":2290:2297   */\n      dup8\n        /* \"#utility.yul\":2279:2287   */\n      dup3\n        /* \"#utility.yul\":2268:2277   */\n      dup9\n        /* \"#utility.yul\":2264:2288   */\n      add\n        /* \"#utility.yul\":2246:2298   */\n      tag_128\n      jump\t// in\n    tag_154:\n        /* \"#utility.yul\":2236:2298   */\n      swap2\n      pop\n      pop\n        /* \"#utility.yul\":1618:2304   */\n      swap3\n      swap6\n      swap2\n      swap5\n      pop\n      swap3\n      pop\n      jump\t// out\n        /* \"#utility.yul\":2309:2495   */\n    tag_50:\n        /* \"#utility.yul\":2368:2374   */\n      0x00\n        /* \"#utility.yul\":2421:2423   */\n      0x20\n        /* \"#utility.yul\":2409:2418   */\n      dup3\n        /* \"#utility.yul\":2400:2407   */\n      dup5\n        /* \"#utility.yul\":2396:2419   */\n      sub\n        /* \"#utility.yul\":2392:2424   */\n      slt\n        /* \"#utility.yul\":2389:2441   */\n      iszero\n      tag_156\n      jumpi\n        /* \"#utility.yul\":2437:2438   */\n      0x00\n        /* \"#utility.yul\":2434:2435   */\n      dup1\n        /* \"#utility.yul\":2427:2439   */\n      revert\n        /* \"#utility.yul\":2389:2441   */\n    tag_156:\n        /* \"#utility.yul\":2460:2489   */\n      tag_157\n        /* \"#utility.yul\":2479:2488   */\n      dup3\n        /* \"#utility.yul\":2460:2489   */\n      tag_126\n      jump\t// in\n    tag_157:\n        /* \"#utility.yul\":2450:2489   */\n      swap4\n        /* \"#utility.yul\":2309:2495   */\n      swap3\n      pop\n      pop\n      pop\n      jump\t// out\n        /* \"#utility.yul\":2500:2923   */\n    tag_129:\n        /* \"#utility.yul\":2542:2545   */\n      0x00\n        /* \"#utility.yul\":2580:2585   */\n      dup2\n        /* \"#utility.yul\":2574:2586   */\n      mload\n        /* \"#utility.yul\":2607:2613   */\n      dup1\n        /* \"#utility.yul\":2602:2605   */\n      dup5\n        /* \"#utility.yul\":2595:2614   */\n      mstore\n        /* \"#utility.yul\":2632:2633   */\n      0x00\n        /* \"#utility.yul\":2642:2804   */\n    tag_159:\n        /* \"#utility.yul\":2656:2662   */\n      dup2\n        /* \"#utility.yul\":2653:2654   */\n      dup2\n        /* \"#utility.yul\":2650:2663   */\n      lt\n        /* \"#utility.yul\":2642:2804   */\n      iszero\n      tag_161\n      jumpi\n        /* \"#utility.yul\":2718:2722   */\n      0x20\n        /* \"#utility.yul\":2774:2787   */\n      dup2\n      dup6\n      add\n        /* \"#utility.yul\":2770:2792   */\n      dup2\n      add\n        /* \"#utility.yul\":2764:2793   */\n      mload\n        /* \"#utility.yul\":2746:2757   */\n      dup7\n      dup4\n      add\n        /* \"#utility.yul\":2742:2762   */\n      dup3\n      add\n        /* \"#utility.yul\":2735:2794   */\n      mstore\n        /* \"#utility.yul\":2671:2683   */\n      add\n        /* \"#utility.yul\":2642:2804   */\n      jump(tag_159)\n    tag_161:\n        /* \"#utility.yul\":2646:2649   */\n      pop\n        /* \"#utility.yul\":2849:2850   */\n      0x00\n        /* \"#utility.yul\":2842:2846   */\n      0x20\n        /* \"#utility.yul\":2833:2839   */\n      dup3\n        /* \"#utility.yul\":2828:2831   */\n      dup7\n        /* \"#utility.yul\":2824:2840   */\n      add\n        /* \"#utility.yul\":2820:2847   */\n      add\n        /* \"#utility.yul\":2813:2851   */\n      mstore\n        /* \"#utility.yul\":2912:2916   */\n      0x20\n        /* \"#utility.yul\":2905:2907   */\n      0x1f\n        /* \"#utility.yul\":2901:2908   */\n      not\n        /* \"#utility.yul\":2896:2898   */\n      0x1f\n        /* \"#utility.yul\":2888:2894   */\n      dup4\n        /* \"#utility.yul\":2884:2899   */\n      add\n        /* \"#utility.yul\":2880:2909   */\n      and\n        /* \"#utility.yul\":2875:2878   */\n      dup6\n        /* \"#utility.yul\":2871:2910   */\n      add\n        /* \"#utility.yul\":2867:2917   */\n      add\n        /* \"#utility.yul\":2860:2917   */\n      swap2\n      pop\n      pop\n        /* \"#utility.yul\":2500:2923   */\n      swap3\n      swap2\n      pop\n      pop\n      jump\t// out\n        /* \"#utility.yul\":2928:3606   */\n    tag_53:\n        /* \"#utility.yul\":3209:3212   */\n      0xa0\n        /* \"#utility.yul\":3198:3207   */\n      dup2\n        /* \"#utility.yul\":3191:3213   */\n      mstore\n        /* \"#utility.yul\":3172:3176   */\n      0x00\n        /* \"#utility.yul\":3236:3282   */\n      tag_163\n        /* \"#utility.yul\":3277:3280   */\n      0xa0\n        /* \"#utility.yul\":3266:3275   */\n      dup4\n        /* \"#utility.yul\":3262:3281   */\n      add\n        /* \"#utility.yul\":3254:3260   */\n      dup9\n        /* \"#utility.yul\":3236:3282   */\n      tag_129\n      jump\t// in\n    tag_163:\n      sub(exp(0x02, 0xa0), 0x01)\n        /* \"#utility.yul\":3391:3393   */\n      dup1\n        /* \"#utility.yul\":3383:3389   */\n      dup9\n        /* \"#utility.yul\":3379:3394   */\n      and\n        /* \"#utility.yul\":3374:3376   */\n      0x20\n        /* \"#utility.yul\":3363:3372   */\n      dup6\n        /* \"#utility.yul\":3359:3377   */\n      add\n        /* \"#utility.yul\":3352:3395   */\n      mstore\n        /* \"#utility.yul\":3431:3437   */\n      dup7\n        /* \"#utility.yul\":3426:3428   */\n      0x40\n        /* \"#utility.yul\":3415:3424   */\n      dup6\n        /* \"#utility.yul\":3411:3429   */\n      add\n        /* \"#utility.yul\":3404:3438   */\n      mstore\n        /* \"#utility.yul\":3486:3495   */\n      dup4\n        /* \"#utility.yul\":3478:3484   */\n      dup3\n        /* \"#utility.yul\":3474:3496   */\n      sub\n        /* \"#utility.yul\":3469:3471   */\n      0x60\n        /* \"#utility.yul\":3458:3467   */\n      dup6\n        /* \"#utility.yul\":3454:3472   */\n      add\n        /* \"#utility.yul\":3447:3497   */\n      mstore\n        /* \"#utility.yul\":3514:3547   */\n      tag_164\n        /* \"#utility.yul\":3540:3546   */\n      dup3\n        /* \"#utility.yul\":3532:3538   */\n      dup8\n        /* \"#utility.yul\":3514:3547   */\n      tag_129\n      jump\t// in\n    tag_164:\n        /* \"#utility.yul\":3506:3547   */\n      swap3\n      pop\n        /* \"#utility.yul\":3596:3598   */\n      dup1\n        /* \"#utility.yul\":3588:3594   */\n      dup6\n        /* \"#utility.yul\":3584:3599   */\n      and\n        /* \"#utility.yul\":3578:3581   */\n      0x80\n        /* \"#utility.yul\":3567:3576   */\n      dup6\n        /* \"#utility.yul\":3563:3582   */\n      add\n        /* \"#utility.yul\":3556:3600   */\n      mstore\n      pop\n      pop\n        /* \"#utility.yul\":2928:3606   */\n      swap7\n      swap6\n      pop\n      pop\n      pop\n      pop\n      pop\n      pop\n      jump\t// out\n        /* \"#utility.yul\":3611:4048   */\n    tag_100:\n        /* \"#utility.yul\":3696:3697   */\n      0x02\n        /* \"#utility.yul\":3686:3698   */\n      dup2\n      div\n        /* \"#utility.yul\":3743:3744   */\n      0x01\n        /* \"#utility.yul\":3733:3745   */\n      dup3\n      and\n      dup1\n        /* \"#utility.yul\":3754:3815   */\n      tag_166\n      jumpi\n        /* \"#utility.yul\":3808:3812   */\n      0x7f\n        /* \"#utility.yul\":3800:3806   */\n      dup3\n        /* \"#utility.yul\":3796:3813   */\n      and\n        /* \"#utility.yul\":3786:3813   */\n      swap2\n      pop\n        /* \"#utility.yul\":3754:3815   */\n    tag_166:\n        /* \"#utility.yul\":3861:3863   */\n      0x20\n        /* \"#utility.yul\":3853:3859   */\n      dup3\n        /* \"#utility.yul\":3850:3864   */\n      lt\n        /* \"#utility.yul\":3830:3848   */\n      dup2\n        /* \"#utility.yul\":3827:3865   */\n      sub\n        /* \"#utility.yul\":3824:4042   */\n      tag_167\n      jumpi\n        /* \"#utility.yul\":3898:3975   */\n      0x4e487b7100000000000000000000000000000000000000000000000000000000\n        /* \"#utility.yul\":3895:3896   */\n      0x00\n        /* \"#utility.yul\":3888:3976   */\n      mstore\n        /* \"#utility.yul\":3999:4003   */\n      0x22\n        /* \"#utility.yul\":3996:3997   */\n      0x04\n        /* \"#utility.yul\":3989:4004   */\n      mstore\n        /* \"#utility.yul\":4027:4031   */\n      0x24\n        /* \"#utility.yul\":4024:4025   */\n      0x00\n        /* \"#utility.yul\":4017:4032   */\n      revert\n        /* \"#utility.yul\":3824:4042   */\n    tag_167:\n      pop\n        /* \"#utility.yul\":3611:4048   */\n      swap2\n      swap1\n      pop\n      jump\t// out\n        /* \"#utility.yul\":4179:4730   */\n    tag_131:\n        /* \"#utility.yul\":4281:4283   */\n      0x1f\n        /* \"#utility.yul\":4276:4279   */\n      dup3\n        /* \"#utility.yul\":4273:4284   */\n      gt\n        /* \"#utility.yul\":4270:4724   */\n      iszero\n      tag_170\n      jumpi\n        /* \"#utility.yul\":4317:4318   */\n      0x00\n        /* \"#utility.yul\":4342:4347   */\n      dup2\n        /* \"#utility.yul\":4338:4340   */\n      dup2\n        /* \"#utility.yul\":4331:4348   */\n      mstore\n        /* \"#utility.yul\":4387:4391   */\n      0x20\n        /* \"#utility.yul\":4383:4385   */\n      dup2\n        /* \"#utility.yul\":4373:4392   */\n      keccak256\n        /* \"#utility.yul\":4459:4463   */\n      0x20\n        /* \"#utility.yul\":4454:4456   */\n      0x1f\n        /* \"#utility.yul\":4442:4452   */\n      dup7\n        /* \"#utility.yul\":4438:4457   */\n      add\n        /* \"#utility.yul\":4434:4464   */\n      div\n        /* \"#utility.yul\":4428:4432   */\n      dup2\n        /* \"#utility.yul\":4424:4465   */\n      add\n        /* \"#utility.yul\":4496:4500   */\n      0x20\n        /* \"#utility.yul\":4484:4494   */\n      dup7\n        /* \"#utility.yul\":4481:4501   */\n      lt\n        /* \"#utility.yul\":4478:4525   */\n      iszero\n      tag_171\n      jumpi\n      pop\n        /* \"#utility.yul\":4519:4523   */\n      dup1\n        /* \"#utility.yul\":4478:4525   */\n    tag_171:\n        /* \"#utility.yul\":4576:4580   */\n      0x20\n        /* \"#utility.yul\":4571:4573   */\n      0x1f\n        /* \"#utility.yul\":4566:4569   */\n      dup7\n        /* \"#utility.yul\":4562:4574   */\n      add\n        /* \"#utility.yul\":4558:4581   */\n      div\n        /* \"#utility.yul\":4552:4556   */\n      dup3\n        /* \"#utility.yul\":4548:4582   */\n      add\n        /* \"#utility.yul\":4538:4582   */\n      swap2\n      pop\n        /* \"#utility.yul\":4632:4714   */\n    tag_172:\n        /* \"#utility.yul\":4650:4652   */\n      dup2\n        /* \"#utility.yul\":4643:4648   */\n      dup2\n        /* \"#utility.yul\":4640:4653   */\n      lt\n        /* \"#utility.yul\":4632:4714   */\n      iszero\n      tag_174\n      jumpi\n        /* \"#utility.yul\":4695:4712   */\n      dup3\n      dup2\n      sstore\n        /* \"#utility.yul\":4676:4677   */\n      0x01\n        /* \"#utility.yul\":4665:4678   */\n      add\n        /* \"#utility.yul\":4632:4714   */\n      jump(tag_172)\n    tag_174:\n        /* \"#utility.yul\":4636:4639   */\n      pop\n      pop\n      pop\n        /* \"#utility.yul\":4270:4724   */\n    tag_170:\n        /* \"#utility.yul\":4179:4730   */\n      pop\n      pop\n      pop\n      jump\t// out\n        /* \"#utility.yul\":4914:6273   */\n    tag_72:\n        /* \"#utility.yul\":5040:5043   */\n      dup2\n        /* \"#utility.yul\":5034:5044   */\n      mload\n        /* \"#utility.yul\":5067:5085   */\n      0xffffffffffffffff\n        /* \"#utility.yul\":5059:5065   */\n      dup2\n        /* \"#utility.yul\":5056:5086   */\n      gt\n        /* \"#utility.yul\":5053:5109   */\n      iszero\n      tag_178\n      jumpi\n        /* \"#utility.yul\":5089:5107   */\n      tag_178\n      tag_127\n      jump\t// in\n    tag_178:\n        /* \"#utility.yul\":5118:5215   */\n      tag_179\n        /* \"#utility.yul\":5208:5214   */\n      dup2\n        /* \"#utility.yul\":5168:5206   */\n      tag_180\n        /* \"#utility.yul\":5200:5204   */\n      dup5\n        /* \"#utility.yul\":5194:5205   */\n      sload\n        /* \"#utility.yul\":5168:5206   */\n      tag_100\n      jump\t// in\n    tag_180:\n        /* \"#utility.yul\":5162:5166   */\n      dup5\n        /* \"#utility.yul\":5118:5215   */\n      tag_131\n      jump\t// in\n    tag_179:\n        /* \"#utility.yul\":5270:5274   */\n      0x20\n      dup1\n        /* \"#utility.yul\":5334:5336   */\n      0x1f\n        /* \"#utility.yul\":5323:5337   */\n      dup4\n      gt\n        /* \"#utility.yul\":5351:5352   */\n      0x01\n        /* \"#utility.yul\":5346:6016   */\n      dup2\n      eq\n      tag_182\n      jumpi\n        /* \"#utility.yul\":6060:6061   */\n      0x00\n        /* \"#utility.yul\":6077:6083   */\n      dup5\n        /* \"#utility.yul\":6074:6163   */\n      iszero\n      tag_183\n      jumpi\n      pop\n        /* \"#utility.yul\":6129:6148   */\n      dup6\n      dup4\n      add\n        /* \"#utility.yul\":6123:6149   */\n      mload\n        /* \"#utility.yul\":6074:6163   */\n    tag_183:\n        /* \"#utility.yul\":4895:4896   */\n      0x02\n        /* \"#utility.yul\":4891:4902   */\n      dup1\n      dup7\n      mul\n        /* \"#utility.yul\":4878:4879   */\n      0x08\n        /* \"#utility.yul\":4874:4885   */\n      dup8\n      mul\n        /* \"#utility.yul\":4867:4886   */\n      swap1\n      swap2\n      exp\n      not(0x00)\n        /* \"#utility.yul\":4855:4887   */\n      div\n        /* \"#utility.yul\":4851:4888   */\n      not\n        /* \"#utility.yul\":4841:4889   */\n      dup3\n      and\n        /* \"#utility.yul\":4838:4903   */\n      or\n        /* \"#utility.yul\":6183:6187   */\n      dup7\n        /* \"#utility.yul\":6176:6257   */\n      sstore\n      pop\n        /* \"#utility.yul\":5316:6267   */\n      jump(tag_174)\n        /* \"#utility.yul\":5346:6016   */\n    tag_182:\n        /* \"#utility.yul\":4126:4127   */\n      0x00\n        /* \"#utility.yul\":4119:4133   */\n      dup6\n      dup2\n      mstore\n        /* \"#utility.yul\":4163:4167   */\n      0x20\n        /* \"#utility.yul\":4150:4168   */\n      dup2\n      keccak256\n      not(0x1f)\n        /* \"#utility.yul\":5382:5402   */\n      dup7\n      and\n      swap2\n        /* \"#utility.yul\":5500:5736   */\n    tag_186:\n        /* \"#utility.yul\":5514:5521   */\n      dup3\n        /* \"#utility.yul\":5511:5512   */\n      dup2\n        /* \"#utility.yul\":5508:5522   */\n      lt\n        /* \"#utility.yul\":5500:5736   */\n      iszero\n      tag_188\n      jumpi\n        /* \"#utility.yul\":5603:5622   */\n      dup9\n      dup7\n      add\n        /* \"#utility.yul\":5597:5623   */\n      mload\n        /* \"#utility.yul\":5582:5624   */\n      dup3\n      sstore\n        /* \"#utility.yul\":5695:5722   */\n      swap5\n      dup5\n      add\n      swap5\n        /* \"#utility.yul\":5663:5664   */\n      0x01\n        /* \"#utility.yul\":5651:5665   */\n      swap1\n      swap2\n      add\n      swap1\n        /* \"#utility.yul\":5530:5549   */\n      dup5\n      add\n        /* \"#utility.yul\":5500:5736   */\n      jump(tag_186)\n    tag_188:\n        /* \"#utility.yul\":5504:5507   */\n      pop\n        /* \"#utility.yul\":5764:5770   */\n      dup6\n        /* \"#utility.yul\":5755:5762   */\n      dup3\n        /* \"#utility.yul\":5752:5771   */\n      lt\n        /* \"#utility.yul\":5749:5957   */\n      iszero\n      tag_189\n      jumpi\n        /* \"#utility.yul\":5825:5844   */\n      dup8\n      dup6\n      add\n        /* \"#utility.yul\":5819:5845   */\n      mload\n        /* \"#utility.yul\":5919:5920   */\n      0x08\n        /* \"#utility.yul\":5934:5936   */\n      0x1f\n        /* \"#utility.yul\":5922:5937   */\n      dup9\n      and\n        /* \"#utility.yul\":5915:5938   */\n      mul\n        /* \"#utility.yul\":5912:5913   */\n      0x02\n        /* \"#utility.yul\":5908:5939   */\n      exp\n      not(0x00)\n        /* \"#utility.yul\":5896:5940   */\n      div\n        /* \"#utility.yul\":5892:5941   */\n      not\n        /* \"#utility.yul\":5877:5942   */\n      and\n        /* \"#utility.yul\":5862:5943   */\n      dup2\n      sstore\n        /* \"#utility.yul\":5749:5957   */\n    tag_189:\n      pop\n      pop\n      pop\n      pop\n      pop\n        /* \"#utility.yul\":5999:6000   */\n      0x02\n        /* \"#utility.yul\":5987:6001   */\n      mul\n        /* \"#utility.yul\":6003:6004   */\n      0x01\n        /* \"#utility.yul\":5983:6005   */\n      add\n        /* \"#utility.yul\":5970:6006   */\n      swap1\n      sstore\n      pop\n        /* \"#utility.yul\":4914:6273   */\n      jump\t// out\n\n    auxdata: 0xa26469706673582212209cfbe269ec3c34c145298381118cc5dad06dbb4d5608133114b4b769f3fac49d64736f6c63430008110033\n}\n",
				"bytecode": {
					"linkReferences": {},
					"object": "608060405260405162000eda38038062000eda833981016040819052620000269162000107565b604080516020810190915260008082528062000043838262000210565b5060018054600160a060020a031916600160a060020a0392909216919091179055506200008b6200007c640100000000620000b1810204565b640100000000620000b5810204565b60038054600160a060020a031916600160a060020a0392909216919091179055620002e3565b3390565b60028054600160a060020a03838116600160a060020a0319831681179093556040519116919082907f8be0079c531659141344cd1fd0a4f28419497f9722a3daafe3b4186f6b6457e090600090a35050565b6000602082840312156200011a57600080fd5b8151600160a060020a03811681146200013257600080fd5b9392505050565b7f4e487b7100000000000000000000000000000000000000000000000000000000600052604160045260246000fd5b6002810460018216806200017d57607f821691505b602082108103620001b7577f4e487b7100000000000000000000000000000000000000000000000000000000600052602260045260246000fd5b50919050565b601f8211156200020b576000818152602081206020601f86010481016020861015620001e65750805b6020601f860104820191505b818110156200020757828155600101620001f2565b5050505b505050565b815167ffffffffffffffff8111156200022d576200022d62000139565b62000245816200023e845462000168565b84620001bd565b602080601f831160018114620002815760008415620002645750858301515b60028086026008870290910a600019041982161786555062000207565b600085815260208120601f198616915b82811015620002b25788860151825594840194600190910190840162000291565b5085821015620002d357878501516008601f88160260020a60001904191681555b5050505050600202600101905550565b610be780620002f36000396000f3fe6080604052600436106100ac576000357c010000000000000000000000000000000000000000000000000000000090048063d0e30db011610073578063d0e30db014610165578063d4e932921461016d578063da6e75c214610179578063e5cdb48814610181578063f2fde38b146101b257005b80631581b600146100b5578063715018a6146100f257806380c5b8e3146101075780638da5cb5b14610127578063cc0395bf1461014557005b366100b357005b005b3480156100c157600080fd5b506001546100d590600160a060020a031681565b604051600160a060020a0390911681526020015b60405180910390f35b3480156100fe57600080fd5b506100b36101d2565b34801561011357600080fd5b506100b361012236600461082c565b6101e6565b34801561013357600080fd5b50600254600160a060020a03166100d5565b34801561015157600080fd5b506100b3610160366004610912565b61020d565b6100b36102f8565b3480156100b357600080fd5b6100b361039e565b34801561018d57600080fd5b506101a161019c366004610990565b610553565b6040516100e99594939291906109f8565b3480156101be57600080fd5b506100b36101cd366004610990565b6106c1565b6101da610754565b6101e460006107b1565b565b6101ee610754565b600160a060020a03909116600090815260046020526040902060020155565b610215610754565b6040805160a081018252858152600160a060020a0380861660208084018290528385018790526060840186905260035490921660808401526000908152600490915291909120815181906102699082610aeb565b50602082015160018201805473ffffffffffffffffffffffffffffffffffffffff1916600160a060020a0390921691909117905560408201516002820155606082015160038201906102bb9082610aeb565b50608091909101516004909101805473ffffffffffffffffffffffffffffffffffffffff1916600160a060020a0390921691909117905550505050565b33600081815260046020526040902060010154600160a060020a0316146103695760405160e560020a62461bcd02815260206004820152601660248201527f596f75206172656e27742076616c69642070617965720000000000000000000060448201526064015b60405180910390fd5b6040513481527f0a34e3d4f1e6b837dbce1011b61499fa1a483a0abee6a7a6697660b4b2d971329060200160405180910390a1565b33600081815260046020526040902060010154600160a060020a03161461040a5760405160e560020a62461bcd02815260206004820152601660248201527f596f75206172656e27742076616c6964207061796572000000000000000000006044820152606401610360565b33600090815260046020526040902060020154348111156104705760405160e560020a62461bcd02815260206004820152601f60248201527f5468652066756e64732073656e742061726520696e73756666696369656e74006044820152606401610360565b600354604051600091600160a060020a03169034908381818185875af1925050503d80600081146104bd576040519150601f19603f3d011682016040523d82523d6000602084013e6104c2565b606091505b509091505060018115151461051c5760405160e560020a62461bcd02815260206004820152601660248201527f46616c6c6f206c61207472616e73666572656e636961000000000000000000006044820152606401610360565b6040518281527f56e1cf8a52e84572ff49b950fa9a1a1867319bf8eba3bf8c77bc4354678a34c59060200160405180910390a15050565b600160a060020a0380821660009081526004602081905260408220600181015460028201549282015482546060968695889587959094908316939192600386019291169085906105a290610a49565b80601f01602080910402602001604051908101604052809291908181526020018280546105ce90610a49565b801561061b5780601f106105f05761010080835404028352916020019161061b565b820191906000526020600020905b8154815290600101906020018083116105fe57829003601f168201915b5050505050945081805461062e90610a49565b80601f016020809104026020016040519081016040528092919081815260200182805461065a90610a49565b80156106a75780601f1061067c576101008083540402835291602001916106a7565b820191906000526020600020905b81548152906001019060200180831161068a57829003601f168201915b505050505091509450945094509450945091939590929450565b6106c9610754565b600160a060020a0381166107485760405160e560020a62461bcd02815260206004820152602660248201527f4f776e61626c653a206e6577206f776e657220697320746865207a65726f206160448201527f64647265737300000000000000000000000000000000000000000000000000006064820152608401610360565b610751816107b1565b50565b600254600160a060020a031633146101e45760405160e560020a62461bcd02815260206004820181905260248201527f4f776e61626c653a2063616c6c6572206973206e6f7420746865206f776e65726044820152606401610360565b60028054600160a060020a0383811673ffffffffffffffffffffffffffffffffffffffff19831681179093556040519116919082907f8be0079c531659141344cd1fd0a4f28419497f9722a3daafe3b4186f6b6457e090600090a35050565b8035600160a060020a038116811461082757600080fd5b919050565b6000806040838503121561083f57600080fd5b61084883610810565b946020939093013593505050565b7f4e487b7100000000000000000000000000000000000000000000000000000000600052604160045260246000fd5b600082601f83011261089657600080fd5b813567ffffffffffffffff808211156108b1576108b1610856565b604051601f8301601f19908116603f011681019082821181831017156108d9576108d9610856565b816040528381528660208588010111156108f257600080fd5b836020870160208301376000602085830101528094505050505092915050565b6000806000806080858703121561092857600080fd5b843567ffffffffffffffff8082111561094057600080fd5b61094c88838901610885565b955061095a60208801610810565b945060408701359350606087013591508082111561097757600080fd5b5061098487828801610885565b91505092959194509250565b6000602082840312156109a257600080fd5b6109ab82610810565b9392505050565b6000815180845260005b818110156109d8576020818501810151868301820152016109bc565b506000602082860101526020601f19601f83011685010191505092915050565b60a081526000610a0b60a08301886109b2565b600160a060020a0380881660208501528660408501528382036060850152610a3382876109b2565b9250808516608085015250509695505050505050565b600281046001821680610a5d57607f821691505b602082108103610a96577f4e487b7100000000000000000000000000000000000000000000000000000000600052602260045260246000fd5b50919050565b601f821115610ae6576000818152602081206020601f86010481016020861015610ac35750805b6020601f860104820191505b81811015610ae257828155600101610acf565b5050505b505050565b815167ffffffffffffffff811115610b0557610b05610856565b610b1981610b138454610a49565b84610a9c565b602080601f831160018114610b525760008415610b365750858301515b60028086026008870290910a6000190419821617865550610ae2565b600085815260208120601f198616915b82811015610b8157888601518255948401946001909101908401610b62565b5085821015610ba157878501516008601f88160260020a60001904191681555b505050505060020260010190555056fea26469706673582212209cfbe269ec3c34c145298381118cc5dad06dbb4d5608133114b4b769f3fac49d64736f6c63430008110033",
					"opcodes": "PUSH1 0x80 PUSH1 0x40 MSTORE PUSH1 0x40 MLOAD PUSH3 0xEDA CODESIZE SUB DUP1 PUSH3 0xEDA DUP4 CODECOPY DUP2 ADD PUSH1 0x40 DUP2 SWAP1 MSTORE PUSH3 0x26 SWAP2 PUSH3 0x107 JUMP JUMPDEST PUSH1 0x40 DUP1 MLOAD PUSH1 0x20 DUP2 ADD SWAP1 SWAP2 MSTORE PUSH1 0x0 DUP1 DUP3 MSTORE DUP1 PUSH3 0x43 DUP4 DUP3 PUSH3 0x210 JUMP JUMPDEST POP PUSH1 0x1 DUP1 SLOAD PUSH1 0x1 PUSH1 0xA0 PUSH1 0x2 EXP SUB NOT AND PUSH1 0x1 PUSH1 0xA0 PUSH1 0x2 EXP SUB SWAP3 SWAP1 SWAP3 AND SWAP2 SWAP1 SWAP2 OR SWAP1 SSTORE POP PUSH3 0x8B PUSH3 0x7C PUSH5 0x100000000 PUSH3 0xB1 DUP2 MUL DIV JUMP JUMPDEST PUSH5 0x100000000 PUSH3 0xB5 DUP2 MUL DIV JUMP JUMPDEST PUSH1 0x3 DUP1 SLOAD PUSH1 0x1 PUSH1 0xA0 PUSH1 0x2 EXP SUB NOT AND PUSH1 0x1 PUSH1 0xA0 PUSH1 0x2 EXP SUB SWAP3 SWAP1 SWAP3 AND SWAP2 SWAP1 SWAP2 OR SWAP1 SSTORE PUSH3 0x2E3 JUMP JUMPDEST CALLER SWAP1 JUMP JUMPDEST PUSH1 0x2 DUP1 SLOAD PUSH1 0x1 PUSH1 0xA0 PUSH1 0x2 EXP SUB DUP4 DUP2 AND PUSH1 0x1 PUSH1 0xA0 PUSH1 0x2 EXP SUB NOT DUP4 AND DUP2 OR SWAP1 SWAP4 SSTORE PUSH1 0x40 MLOAD SWAP2 AND SWAP2 SWAP1 DUP3 SWAP1 PUSH32 0x8BE0079C531659141344CD1FD0A4F28419497F9722A3DAAFE3B4186F6B6457E0 SWAP1 PUSH1 0x0 SWAP1 LOG3 POP POP JUMP JUMPDEST PUSH1 0x0 PUSH1 0x20 DUP3 DUP5 SUB SLT ISZERO PUSH3 0x11A JUMPI PUSH1 0x0 DUP1 REVERT JUMPDEST DUP2 MLOAD PUSH1 0x1 PUSH1 0xA0 PUSH1 0x2 EXP SUB DUP2 AND DUP2 EQ PUSH3 0x132 JUMPI PUSH1 0x0 DUP1 REVERT JUMPDEST SWAP4 SWAP3 POP POP POP JUMP JUMPDEST PUSH32 0x4E487B7100000000000000000000000000000000000000000000000000000000 PUSH1 0x0 MSTORE PUSH1 0x41 PUSH1 0x4 MSTORE PUSH1 0x24 PUSH1 0x0 REVERT JUMPDEST PUSH1 0x2 DUP2 DIV PUSH1 0x1 DUP3 AND DUP1 PUSH3 0x17D JUMPI PUSH1 0x7F DUP3 AND SWAP2 POP JUMPDEST PUSH1 0x20 DUP3 LT DUP2 SUB PUSH3 0x1B7 JUMPI PUSH32 0x4E487B7100000000000000000000000000000000000000000000000000000000 PUSH1 0x0 MSTORE PUSH1 0x22 PUSH1 0x4 MSTORE PUSH1 0x24 PUSH1 0x0 REVERT JUMPDEST POP SWAP2 SWAP1 POP JUMP JUMPDEST PUSH1 0x1F DUP3 GT ISZERO PUSH3 0x20B JUMPI PUSH1 0x0 DUP2 DUP2 MSTORE PUSH1 0x20 DUP2 KECCAK256 PUSH1 0x20 PUSH1 0x1F DUP7 ADD DIV DUP2 ADD PUSH1 0x20 DUP7 LT ISZERO PUSH3 0x1E6 JUMPI POP DUP1 JUMPDEST PUSH1 0x20 PUSH1 0x1F DUP7 ADD DIV DUP3 ADD SWAP2 POP JUMPDEST DUP2 DUP2 LT ISZERO PUSH3 0x207 JUMPI DUP3 DUP2 SSTORE PUSH1 0x1 ADD PUSH3 0x1F2 JUMP JUMPDEST POP POP POP JUMPDEST POP POP POP JUMP JUMPDEST DUP2 MLOAD PUSH8 0xFFFFFFFFFFFFFFFF DUP2 GT ISZERO PUSH3 0x22D JUMPI PUSH3 0x22D PUSH3 0x139 JUMP JUMPDEST PUSH3 0x245 DUP2 PUSH3 0x23E DUP5 SLOAD PUSH3 0x168 JUMP JUMPDEST DUP5 PUSH3 0x1BD JUMP JUMPDEST PUSH1 0x20 DUP1 PUSH1 0x1F DUP4 GT PUSH1 0x1 DUP2 EQ PUSH3 0x281 JUMPI PUSH1 0x0 DUP5 ISZERO PUSH3 0x264 JUMPI POP DUP6 DUP4 ADD MLOAD JUMPDEST PUSH1 0x2 DUP1 DUP7 MUL PUSH1 0x8 DUP8 MUL SWAP1 SWAP2 EXP PUSH1 0x0 NOT DIV NOT DUP3 AND OR DUP7 SSTORE POP PUSH3 0x207 JUMP JUMPDEST PUSH1 0x0 DUP6 DUP2 MSTORE PUSH1 0x20 DUP2 KECCAK256 PUSH1 0x1F NOT DUP7 AND SWAP2 JUMPDEST DUP3 DUP2 LT ISZERO PUSH3 0x2B2 JUMPI DUP9 DUP7 ADD MLOAD DUP3 SSTORE SWAP5 DUP5 ADD SWAP5 PUSH1 0x1 SWAP1 SWAP2 ADD SWAP1 DUP5 ADD PUSH3 0x291 JUMP JUMPDEST POP DUP6 DUP3 LT ISZERO PUSH3 0x2D3 JUMPI DUP8 DUP6 ADD MLOAD PUSH1 0x8 PUSH1 0x1F DUP9 AND MUL PUSH1 0x2 EXP PUSH1 0x0 NOT DIV NOT AND DUP2 SSTORE JUMPDEST POP POP POP POP POP PUSH1 0x2 MUL PUSH1 0x1 ADD SWAP1 SSTORE POP JUMP JUMPDEST PUSH2 0xBE7 DUP1 PUSH3 0x2F3 PUSH1 0x0 CODECOPY PUSH1 0x0 RETURN INVALID PUSH1 0x80 PUSH1 0x40 MSTORE PUSH1 0x4 CALLDATASIZE LT PUSH2 0xAC JUMPI PUSH1 0x0 CALLDATALOAD PUSH29 0x100000000000000000000000000000000000000000000000000000000 SWAP1 DIV DUP1 PUSH4 0xD0E30DB0 GT PUSH2 0x73 JUMPI DUP1 PUSH4 0xD0E30DB0 EQ PUSH2 0x165 JUMPI DUP1 PUSH4 0xD4E93292 EQ PUSH2 0x16D JUMPI DUP1 PUSH4 0xDA6E75C2 EQ PUSH2 0x179 JUMPI DUP1 PUSH4 0xE5CDB488 EQ PUSH2 0x181 JUMPI DUP1 PUSH4 0xF2FDE38B EQ PUSH2 0x1B2 JUMPI STOP JUMPDEST DUP1 PUSH4 0x1581B600 EQ PUSH2 0xB5 JUMPI DUP1 PUSH4 0x715018A6 EQ PUSH2 0xF2 JUMPI DUP1 PUSH4 0x80C5B8E3 EQ PUSH2 0x107 JUMPI DUP1 PUSH4 0x8DA5CB5B EQ PUSH2 0x127 JUMPI DUP1 PUSH4 0xCC0395BF EQ PUSH2 0x145 JUMPI STOP JUMPDEST CALLDATASIZE PUSH2 0xB3 JUMPI STOP JUMPDEST STOP JUMPDEST CALLVALUE DUP1 ISZERO PUSH2 0xC1 JUMPI PUSH1 0x0 DUP1 REVERT JUMPDEST POP PUSH1 0x1 SLOAD PUSH2 0xD5 SWAP1 PUSH1 0x1 PUSH1 0xA0 PUSH1 0x2 EXP SUB AND DUP2 JUMP JUMPDEST PUSH1 0x40 MLOAD PUSH1 0x1 PUSH1 0xA0 PUSH1 0x2 EXP SUB SWAP1 SWAP2 AND DUP2 MSTORE PUSH1 0x20 ADD JUMPDEST PUSH1 0x40 MLOAD DUP1 SWAP2 SUB SWAP1 RETURN JUMPDEST CALLVALUE DUP1 ISZERO PUSH2 0xFE JUMPI PUSH1 0x0 DUP1 REVERT JUMPDEST POP PUSH2 0xB3 PUSH2 0x1D2 JUMP JUMPDEST CALLVALUE DUP1 ISZERO PUSH2 0x113 JUMPI PUSH1 0x0 DUP1 REVERT JUMPDEST POP PUSH2 0xB3 PUSH2 0x122 CALLDATASIZE PUSH1 0x4 PUSH2 0x82C JUMP JUMPDEST PUSH2 0x1E6 JUMP JUMPDEST CALLVALUE DUP1 ISZERO PUSH2 0x133 JUMPI PUSH1 0x0 DUP1 REVERT JUMPDEST POP PUSH1 0x2 SLOAD PUSH1 0x1 PUSH1 0xA0 PUSH1 0x2 EXP SUB AND PUSH2 0xD5 JUMP JUMPDEST CALLVALUE DUP1 ISZERO PUSH2 0x151 JUMPI PUSH1 0x0 DUP1 REVERT JUMPDEST POP PUSH2 0xB3 PUSH2 0x160 CALLDATASIZE PUSH1 0x4 PUSH2 0x912 JUMP JUMPDEST PUSH2 0x20D JUMP JUMPDEST PUSH2 0xB3 PUSH2 0x2F8 JUMP JUMPDEST CALLVALUE DUP1 ISZERO PUSH2 0xB3 JUMPI PUSH1 0x0 DUP1 REVERT JUMPDEST PUSH2 0xB3 PUSH2 0x39E JUMP JUMPDEST CALLVALUE DUP1 ISZERO PUSH2 0x18D JUMPI PUSH1 0x0 DUP1 REVERT JUMPDEST POP PUSH2 0x1A1 PUSH2 0x19C CALLDATASIZE PUSH1 0x4 PUSH2 0x990 JUMP JUMPDEST PUSH2 0x553 JUMP JUMPDEST PUSH1 0x40 MLOAD PUSH2 0xE9 SWAP6 SWAP5 SWAP4 SWAP3 SWAP2 SWAP1 PUSH2 0x9F8 JUMP JUMPDEST CALLVALUE DUP1 ISZERO PUSH2 0x1BE JUMPI PUSH1 0x0 DUP1 REVERT JUMPDEST POP PUSH2 0xB3 PUSH2 0x1CD CALLDATASIZE PUSH1 0x4 PUSH2 0x990 JUMP JUMPDEST PUSH2 0x6C1 JUMP JUMPDEST PUSH2 0x1DA PUSH2 0x754 JUMP JUMPDEST PUSH2 0x1E4 PUSH1 0x0 PUSH2 0x7B1 JUMP JUMPDEST JUMP JUMPDEST PUSH2 0x1EE PUSH2 0x754 JUMP JUMPDEST PUSH1 0x1 PUSH1 0xA0 PUSH1 0x2 EXP SUB SWAP1 SWAP2 AND PUSH1 0x0 SWAP1 DUP2 MSTORE PUSH1 0x4 PUSH1 0x20 MSTORE PUSH1 0x40 SWAP1 KECCAK256 PUSH1 0x2 ADD SSTORE JUMP JUMPDEST PUSH2 0x215 PUSH2 0x754 JUMP JUMPDEST PUSH1 0x40 DUP1 MLOAD PUSH1 0xA0 DUP2 ADD DUP3 MSTORE DUP6 DUP2 MSTORE PUSH1 0x1 PUSH1 0xA0 PUSH1 0x2 EXP SUB DUP1 DUP7 AND PUSH1 0x20 DUP1 DUP5 ADD DUP3 SWAP1 MSTORE DUP4 DUP6 ADD DUP8 SWAP1 MSTORE PUSH1 0x60 DUP5 ADD DUP7 SWAP1 MSTORE PUSH1 0x3 SLOAD SWAP1 SWAP3 AND PUSH1 0x80 DUP5 ADD MSTORE PUSH1 0x0 SWAP1 DUP2 MSTORE PUSH1 0x4 SWAP1 SWAP2 MSTORE SWAP2 SWAP1 SWAP2 KECCAK256 DUP2 MLOAD DUP2 SWAP1 PUSH2 0x269 SWAP1 DUP3 PUSH2 0xAEB JUMP JUMPDEST POP PUSH1 0x20 DUP3 ADD MLOAD PUSH1 0x1 DUP3 ADD DUP1 SLOAD PUSH20 0xFFFFFFFFFFFFFFFFFFFFFFFFFFFFFFFFFFFFFFFF NOT AND PUSH1 0x1 PUSH1 0xA0 PUSH1 0x2 EXP SUB SWAP1 SWAP3 AND SWAP2 SWAP1 SWAP2 OR SWAP1 SSTORE PUSH1 0x40 DUP3 ADD MLOAD PUSH1 0x2 DUP3 ADD SSTORE PUSH1 0x60 DUP3 ADD MLOAD PUSH1 0x3 DUP3 ADD SWAP1 PUSH2 0x2BB SWAP1 DUP3 PUSH2 0xAEB JUMP JUMPDEST POP PUSH1 0x80 SWAP2 SWAP1 SWAP2 ADD MLOAD PUSH1 0x4 SWAP1 SWAP2 ADD DUP1 SLOAD PUSH20 0xFFFFFFFFFFFFFFFFFFFFFFFFFFFFFFFFFFFFFFFF NOT AND PUSH1 0x1 PUSH1 0xA0 PUSH1 0x2 EXP SUB SWAP1 SWAP3 AND SWAP2 SWAP1 SWAP2 OR SWAP1 SSTORE POP POP POP POP JUMP JUMPDEST CALLER PUSH1 0x0 DUP2 DUP2 MSTORE PUSH1 0x4 PUSH1 0x20 MSTORE PUSH1 0x40 SWAP1 KECCAK256 PUSH1 0x1 ADD SLOAD PUSH1 0x1 PUSH1 0xA0 PUSH1 0x2 EXP SUB AND EQ PUSH2 0x369 JUMPI PUSH1 0x40 MLOAD PUSH1 0xE5 PUSH1 0x2 EXP PUSH3 0x461BCD MUL DUP2 MSTORE PUSH1 0x20 PUSH1 0x4 DUP3 ADD MSTORE PUSH1 0x16 PUSH1 0x24 DUP3 ADD MSTORE PUSH32 0x596F75206172656E27742076616C696420706179657200000000000000000000 PUSH1 0x44 DUP3 ADD MSTORE PUSH1 0x64 ADD JUMPDEST PUSH1 0x40 MLOAD DUP1 SWAP2 SUB SWAP1 REVERT JUMPDEST PUSH1 0x40 MLOAD CALLVALUE DUP2 MSTORE PUSH32 0xA34E3D4F1E6B837DBCE1011B61499FA1A483A0ABEE6A7A6697660B4B2D97132 SWAP1 PUSH1 0x20 ADD PUSH1 0x40 MLOAD DUP1 SWAP2 SUB SWAP1 LOG1 JUMP JUMPDEST CALLER PUSH1 0x0 DUP2 DUP2 MSTORE PUSH1 0x4 PUSH1 0x20 MSTORE PUSH1 0x40 SWAP1 KECCAK256 PUSH1 0x1 ADD SLOAD PUSH1 0x1 PUSH1 0xA0 PUSH1 0x2 EXP SUB AND EQ PUSH2 0x40A JUMPI PUSH1 0x40 MLOAD PUSH1 0xE5 PUSH1 0x2 EXP PUSH3 0x461BCD MUL DUP2 MSTORE PUSH1 0x20 PUSH1 0x4 DUP3 ADD MSTORE PUSH1 0x16 PUSH1 0x24 DUP3 ADD MSTORE PUSH32 0x596F75206172656E27742076616C696420706179657200000000000000000000 PUSH1 0x44 DUP3 ADD MSTORE PUSH1 0x64 ADD PUSH2 0x360 JUMP JUMPDEST CALLER PUSH1 0x0 SWAP1 DUP2 MSTORE PUSH1 0x4 PUSH1 0x20 MSTORE PUSH1 0x40 SWAP1 KECCAK256 PUSH1 0x2 ADD SLOAD CALLVALUE DUP2 GT ISZERO PUSH2 0x470 JUMPI PUSH1 0x40 MLOAD PUSH1 0xE5 PUSH1 0x2 EXP PUSH3 0x461BCD MUL DUP2 MSTORE PUSH1 0x20 PUSH1 0x4 DUP3 ADD MSTORE PUSH1 0x1F PUSH1 0x24 DUP3 ADD MSTORE PUSH32 0x5468652066756E64732073656E742061726520696E73756666696369656E7400 PUSH1 0x44 DUP3 ADD MSTORE PUSH1 0x64 ADD PUSH2 0x360 JUMP JUMPDEST PUSH1 0x3 SLOAD PUSH1 0x40 MLOAD PUSH1 0x0 SWAP2 PUSH1 0x1 PUSH1 0xA0 PUSH1 0x2 EXP SUB AND SWAP1 CALLVALUE SWAP1 DUP4 DUP2 DUP2 DUP2 DUP6 DUP8 GAS CALL SWAP3 POP POP POP RETURNDATASIZE DUP1 PUSH1 0x0 DUP2 EQ PUSH2 0x4BD JUMPI PUSH1 0x40 MLOAD SWAP2 POP PUSH1 0x1F NOT PUSH1 0x3F RETURNDATASIZE ADD AND DUP3 ADD PUSH1 0x40 MSTORE RETURNDATASIZE DUP3 MSTORE RETURNDATASIZE PUSH1 0x0 PUSH1 0x20 DUP5 ADD RETURNDATACOPY PUSH2 0x4C2 JUMP JUMPDEST PUSH1 0x60 SWAP2 POP JUMPDEST POP SWAP1 SWAP2 POP POP PUSH1 0x1 DUP2 ISZERO ISZERO EQ PUSH2 0x51C JUMPI PUSH1 0x40 MLOAD PUSH1 0xE5 PUSH1 0x2 EXP PUSH3 0x461BCD MUL DUP2 MSTORE PUSH1 0x20 PUSH1 0x4 DUP3 ADD MSTORE PUSH1 0x16 PUSH1 0x24 DUP3 ADD MSTORE PUSH32 0x46616C6C6F206C61207472616E73666572656E63696100000000000000000000 PUSH1 0x44 DUP3 ADD MSTORE PUSH1 0x64 ADD PUSH2 0x360 JUMP JUMPDEST PUSH1 0x40 MLOAD DUP3 DUP2 MSTORE PUSH32 0x56E1CF8A52E84572FF49B950FA9A1A1867319BF8EBA3BF8C77BC4354678A34C5 SWAP1 PUSH1 0x20 ADD PUSH1 0x40 MLOAD DUP1 SWAP2 SUB SWAP1 LOG1 POP POP JUMP JUMPDEST PUSH1 0x1 PUSH1 0xA0 PUSH1 0x2 EXP SUB DUP1 DUP3 AND PUSH1 0x0 SWAP1 DUP2 MSTORE PUSH1 0x4 PUSH1 0x20 DUP2 SWAP1 MSTORE PUSH1 0x40 DUP3 KECCAK256 PUSH1 0x1 DUP2 ADD SLOAD PUSH1 0x2 DUP3 ADD SLOAD SWAP3 DUP3 ADD SLOAD DUP3 SLOAD PUSH1 0x60 SWAP7 DUP7 SWAP6 DUP9 SWAP6 DUP8 SWAP6 SWAP1 SWAP5 SWAP1 DUP4 AND SWAP4 SWAP2 SWAP3 PUSH1 0x3 DUP7 ADD SWAP3 SWAP2 AND SWAP1 DUP6 SWAP1 PUSH2 0x5A2 SWAP1 PUSH2 0xA49 JUMP JUMPDEST DUP1 PUSH1 0x1F ADD PUSH1 0x20 DUP1 SWAP2 DIV MUL PUSH1 0x20 ADD PUSH1 0x40 MLOAD SWAP1 DUP2 ADD PUSH1 0x40 MSTORE DUP1 SWAP3 SWAP2 SWAP1 DUP2 DUP2 MSTORE PUSH1 0x20 ADD DUP3 DUP1 SLOAD PUSH2 0x5CE SWAP1 PUSH2 0xA49 JUMP JUMPDEST DUP1 ISZERO PUSH2 0x61B JUMPI DUP1 PUSH1 0x1F LT PUSH2 0x5F0 JUMPI PUSH2 0x100 DUP1 DUP4 SLOAD DIV MUL DUP4 MSTORE SWAP2 PUSH1 0x20 ADD SWAP2 PUSH2 0x61B JUMP JUMPDEST DUP3 ADD SWAP2 SWAP1 PUSH1 0x0 MSTORE PUSH1 0x20 PUSH1 0x0 KECCAK256 SWAP1 JUMPDEST DUP2 SLOAD DUP2 MSTORE SWAP1 PUSH1 0x1 ADD SWAP1 PUSH1 0x20 ADD DUP1 DUP4 GT PUSH2 0x5FE JUMPI DUP3 SWAP1 SUB PUSH1 0x1F AND DUP3 ADD SWAP2 JUMPDEST POP POP POP POP POP SWAP5 POP DUP2 DUP1 SLOAD PUSH2 0x62E SWAP1 PUSH2 0xA49 JUMP JUMPDEST DUP1 PUSH1 0x1F ADD PUSH1 0x20 DUP1 SWAP2 DIV MUL PUSH1 0x20 ADD PUSH1 0x40 MLOAD SWAP1 DUP2 ADD PUSH1 0x40 MSTORE DUP1 SWAP3 SWAP2 SWAP1 DUP2 DUP2 MSTORE PUSH1 0x20 ADD DUP3 DUP1 SLOAD PUSH2 0x65A SWAP1 PUSH2 0xA49 JUMP JUMPDEST DUP1 ISZERO PUSH2 0x6A7 JUMPI DUP1 PUSH1 0x1F LT PUSH2 0x67C JUMPI PUSH2 0x100 DUP1 DUP4 SLOAD DIV MUL DUP4 MSTORE SWAP2 PUSH1 0x20 ADD SWAP2 PUSH2 0x6A7 JUMP JUMPDEST DUP3 ADD SWAP2 SWAP1 PUSH1 0x0 MSTORE PUSH1 0x20 PUSH1 0x0 KECCAK256 SWAP1 JUMPDEST DUP2 SLOAD DUP2 MSTORE SWAP1 PUSH1 0x1 ADD SWAP1 PUSH1 0x20 ADD DUP1 DUP4 GT PUSH2 0x68A JUMPI DUP3 SWAP1 SUB PUSH1 0x1F AND DUP3 ADD SWAP2 JUMPDEST POP POP POP POP POP SWAP2 POP SWAP5 POP SWAP5 POP SWAP5 POP SWAP5 POP SWAP5 POP SWAP2 SWAP4 SWAP6 SWAP1 SWAP3 SWAP5 POP JUMP JUMPDEST PUSH2 0x6C9 PUSH2 0x754 JUMP JUMPDEST PUSH1 0x1 PUSH1 0xA0 PUSH1 0x2 EXP SUB DUP2 AND PUSH2 0x748 JUMPI PUSH1 0x40 MLOAD PUSH1 0xE5 PUSH1 0x2 EXP PUSH3 0x461BCD MUL DUP2 MSTORE PUSH1 0x20 PUSH1 0x4 DUP3 ADD MSTORE PUSH1 0x26 PUSH1 0x24 DUP3 ADD MSTORE PUSH32 0x4F776E61626C653A206E6577206F776E657220697320746865207A65726F2061 PUSH1 0x44 DUP3 ADD MSTORE PUSH32 0x6464726573730000000000000000000000000000000000000000000000000000 PUSH1 0x64 DUP3 ADD MSTORE PUSH1 0x84 ADD PUSH2 0x360 JUMP JUMPDEST PUSH2 0x751 DUP2 PUSH2 0x7B1 JUMP JUMPDEST POP JUMP JUMPDEST PUSH1 0x2 SLOAD PUSH1 0x1 PUSH1 0xA0 PUSH1 0x2 EXP SUB AND CALLER EQ PUSH2 0x1E4 JUMPI PUSH1 0x40 MLOAD PUSH1 0xE5 PUSH1 0x2 EXP PUSH3 0x461BCD MUL DUP2 MSTORE PUSH1 0x20 PUSH1 0x4 DUP3 ADD DUP2 SWAP1 MSTORE PUSH1 0x24 DUP3 ADD MSTORE PUSH32 0x4F776E61626C653A2063616C6C6572206973206E6F7420746865206F776E6572 PUSH1 0x44 DUP3 ADD MSTORE PUSH1 0x64 ADD PUSH2 0x360 JUMP JUMPDEST PUSH1 0x2 DUP1 SLOAD PUSH1 0x1 PUSH1 0xA0 PUSH1 0x2 EXP SUB DUP4 DUP2 AND PUSH20 0xFFFFFFFFFFFFFFFFFFFFFFFFFFFFFFFFFFFFFFFF NOT DUP4 AND DUP2 OR SWAP1 SWAP4 SSTORE PUSH1 0x40 MLOAD SWAP2 AND SWAP2 SWAP1 DUP3 SWAP1 PUSH32 0x8BE0079C531659141344CD1FD0A4F28419497F9722A3DAAFE3B4186F6B6457E0 SWAP1 PUSH1 0x0 SWAP1 LOG3 POP POP JUMP JUMPDEST DUP1 CALLDATALOAD PUSH1 0x1 PUSH1 0xA0 PUSH1 0x2 EXP SUB DUP2 AND DUP2 EQ PUSH2 0x827 JUMPI PUSH1 0x0 DUP1 REVERT JUMPDEST SWAP2 SWAP1 POP JUMP JUMPDEST PUSH1 0x0 DUP1 PUSH1 0x40 DUP4 DUP6 SUB SLT ISZERO PUSH2 0x83F JUMPI PUSH1 0x0 DUP1 REVERT JUMPDEST PUSH2 0x848 DUP4 PUSH2 0x810 JUMP JUMPDEST SWAP5 PUSH1 0x20 SWAP4 SWAP1 SWAP4 ADD CALLDATALOAD SWAP4 POP POP POP JUMP JUMPDEST PUSH32 0x4E487B7100000000000000000000000000000000000000000000000000000000 PUSH1 0x0 MSTORE PUSH1 0x41 PUSH1 0x4 MSTORE PUSH1 0x24 PUSH1 0x0 REVERT JUMPDEST PUSH1 0x0 DUP3 PUSH1 0x1F DUP4 ADD SLT PUSH2 0x896 JUMPI PUSH1 0x0 DUP1 REVERT JUMPDEST DUP2 CALLDATALOAD PUSH8 0xFFFFFFFFFFFFFFFF DUP1 DUP3 GT ISZERO PUSH2 0x8B1 JUMPI PUSH2 0x8B1 PUSH2 0x856 JUMP JUMPDEST PUSH1 0x40 MLOAD PUSH1 0x1F DUP4 ADD PUSH1 0x1F NOT SWAP1 DUP2 AND PUSH1 0x3F ADD AND DUP2 ADD SWAP1 DUP3 DUP3 GT DUP2 DUP4 LT OR ISZERO PUSH2 0x8D9 JUMPI PUSH2 0x8D9 PUSH2 0x856 JUMP JUMPDEST DUP2 PUSH1 0x40 MSTORE DUP4 DUP2 MSTORE DUP7 PUSH1 0x20 DUP6 DUP9 ADD ADD GT ISZERO PUSH2 0x8F2 JUMPI PUSH1 0x0 DUP1 REVERT JUMPDEST DUP4 PUSH1 0x20 DUP8 ADD PUSH1 0x20 DUP4 ADD CALLDATACOPY PUSH1 0x0 PUSH1 0x20 DUP6 DUP4 ADD ADD MSTORE DUP1 SWAP5 POP POP POP POP POP SWAP3 SWAP2 POP POP JUMP JUMPDEST PUSH1 0x0 DUP1 PUSH1 0x0 DUP1 PUSH1 0x80 DUP6 DUP8 SUB SLT ISZERO PUSH2 0x928 JUMPI PUSH1 0x0 DUP1 REVERT JUMPDEST DUP5 CALLDATALOAD PUSH8 0xFFFFFFFFFFFFFFFF DUP1 DUP3 GT ISZERO PUSH2 0x940 JUMPI PUSH1 0x0 DUP1 REVERT JUMPDEST PUSH2 0x94C DUP9 DUP4 DUP10 ADD PUSH2 0x885 JUMP JUMPDEST SWAP6 POP PUSH2 0x95A PUSH1 0x20 DUP9 ADD PUSH2 0x810 JUMP JUMPDEST SWAP5 POP PUSH1 0x40 DUP8 ADD CALLDATALOAD SWAP4 POP PUSH1 0x60 DUP8 ADD CALLDATALOAD SWAP2 POP DUP1 DUP3 GT ISZERO PUSH2 0x977 JUMPI PUSH1 0x0 DUP1 REVERT JUMPDEST POP PUSH2 0x984 DUP8 DUP3 DUP9 ADD PUSH2 0x885 JUMP JUMPDEST SWAP2 POP POP SWAP3 SWAP6 SWAP2 SWAP5 POP SWAP3 POP JUMP JUMPDEST PUSH1 0x0 PUSH1 0x20 DUP3 DUP5 SUB SLT ISZERO PUSH2 0x9A2 JUMPI PUSH1 0x0 DUP1 REVERT JUMPDEST PUSH2 0x9AB DUP3 PUSH2 0x810 JUMP JUMPDEST SWAP4 SWAP3 POP POP POP JUMP JUMPDEST PUSH1 0x0 DUP2 MLOAD DUP1 DUP5 MSTORE PUSH1 0x0 JUMPDEST DUP2 DUP2 LT ISZERO PUSH2 0x9D8 JUMPI PUSH1 0x20 DUP2 DUP6 ADD DUP2 ADD MLOAD DUP7 DUP4 ADD DUP3 ADD MSTORE ADD PUSH2 0x9BC JUMP JUMPDEST POP PUSH1 0x0 PUSH1 0x20 DUP3 DUP7 ADD ADD MSTORE PUSH1 0x20 PUSH1 0x1F NOT PUSH1 0x1F DUP4 ADD AND DUP6 ADD ADD SWAP2 POP POP SWAP3 SWAP2 POP POP JUMP JUMPDEST PUSH1 0xA0 DUP2 MSTORE PUSH1 0x0 PUSH2 0xA0B PUSH1 0xA0 DUP4 ADD DUP9 PUSH2 0x9B2 JUMP JUMPDEST PUSH1 0x1 PUSH1 0xA0 PUSH1 0x2 EXP SUB DUP1 DUP9 AND PUSH1 0x20 DUP6 ADD MSTORE DUP7 PUSH1 0x40 DUP6 ADD MSTORE DUP4 DUP3 SUB PUSH1 0x60 DUP6 ADD MSTORE PUSH2 0xA33 DUP3 DUP8 PUSH2 0x9B2 JUMP JUMPDEST SWAP3 POP DUP1 DUP6 AND PUSH1 0x80 DUP6 ADD MSTORE POP POP SWAP7 SWAP6 POP POP POP POP POP POP JUMP JUMPDEST PUSH1 0x2 DUP2 DIV PUSH1 0x1 DUP3 AND DUP1 PUSH2 0xA5D JUMPI PUSH1 0x7F DUP3 AND SWAP2 POP JUMPDEST PUSH1 0x20 DUP3 LT DUP2 SUB PUSH2 0xA96 JUMPI PUSH32 0x4E487B7100000000000000000000000000000000000000000000000000000000 PUSH1 0x0 MSTORE PUSH1 0x22 PUSH1 0x4 MSTORE PUSH1 0x24 PUSH1 0x0 REVERT JUMPDEST POP SWAP2 SWAP1 POP JUMP JUMPDEST PUSH1 0x1F DUP3 GT ISZERO PUSH2 0xAE6 JUMPI PUSH1 0x0 DUP2 DUP2 MSTORE PUSH1 0x20 DUP2 KECCAK256 PUSH1 0x20 PUSH1 0x1F DUP7 ADD DIV DUP2 ADD PUSH1 0x20 DUP7 LT ISZERO PUSH2 0xAC3 JUMPI POP DUP1 JUMPDEST PUSH1 0x20 PUSH1 0x1F DUP7 ADD DIV DUP3 ADD SWAP2 POP JUMPDEST DUP2 DUP2 LT ISZERO PUSH2 0xAE2 JUMPI DUP3 DUP2 SSTORE PUSH1 0x1 ADD PUSH2 0xACF JUMP JUMPDEST POP POP POP JUMPDEST POP POP POP JUMP JUMPDEST DUP2 MLOAD PUSH8 0xFFFFFFFFFFFFFFFF DUP2 GT ISZERO PUSH2 0xB05 JUMPI PUSH2 0xB05 PUSH2 0x856 JUMP JUMPDEST PUSH2 0xB19 DUP2 PUSH2 0xB13 DUP5 SLOAD PUSH2 0xA49 JUMP JUMPDEST DUP5 PUSH2 0xA9C JUMP JUMPDEST PUSH1 0x20 DUP1 PUSH1 0x1F DUP4 GT PUSH1 0x1 DUP2 EQ PUSH2 0xB52 JUMPI PUSH1 0x0 DUP5 ISZERO PUSH2 0xB36 JUMPI POP DUP6 DUP4 ADD MLOAD JUMPDEST PUSH1 0x2 DUP1 DUP7 MUL PUSH1 0x8 DUP8 MUL SWAP1 SWAP2 EXP PUSH1 0x0 NOT DIV NOT DUP3 AND OR DUP7 SSTORE POP PUSH2 0xAE2 JUMP JUMPDEST PUSH1 0x0 DUP6 DUP2 MSTORE PUSH1 0x20 DUP2 KECCAK256 PUSH1 0x1F NOT DUP7 AND SWAP2 JUMPDEST DUP3 DUP2 LT ISZERO PUSH2 0xB81 JUMPI DUP9 DUP7 ADD MLOAD DUP3 SSTORE SWAP5 DUP5 ADD SWAP5 PUSH1 0x1 SWAP1 SWAP2 ADD SWAP1 DUP5 ADD PUSH2 0xB62 JUMP JUMPDEST POP DUP6 DUP3 LT ISZERO PUSH2 0xBA1 JUMPI DUP8 DUP6 ADD MLOAD PUSH1 0x8 PUSH1 0x1F DUP9 AND MUL PUSH1 0x2 EXP PUSH1 0x0 NOT DIV NOT AND DUP2 SSTORE JUMPDEST POP POP POP POP POP PUSH1 0x2 MUL PUSH1 0x1 ADD SWAP1 SSTORE POP JUMP INVALID LOG2 PUSH5 0x6970667358 0x22 SLT KECCAK256 SWAP13 0xFB 0xE2 PUSH10 0xEC3C34C145298381118C 0xC5 0xDA 0xD0 PUSH14 0xBB4D5608133114B4B769F3FAC49D PUSH5 0x736F6C6343 STOP ADDMOD GT STOP CALLER "
				},
				"gasEstimates": {
					"creation": {
						"codeDepositCost": "609400",
						"executionCost": "infinite",
						"totalCost": "infinite"
					},
					"external": {
						"": "189",
						"addNewTenant(string,address,uint256,string)": "infinite",
						"deposit()": "1550",
						"getTenant(address)": "infinite",
						"owner()": "606",
						"payExpenses()": "infinite",
						"renounceOwnership()": "infinite",
						"setRentalCost(address,uint256)": "20907",
						"transferOwnership(address)": "22745",
						"withdrawAddress()": "546",
						"withdrawal()": "150"
					}
				},
				"methodIdentifiers": {
					"addNewTenant(string,address,uint256,string)": "cc0395bf",
					"deposit()": "d0e30db0",
					"getTenant(address)": "e5cdb488",
					"owner()": "8da5cb5b",
					"payExpenses()": "da6e75c2",
					"renounceOwnership()": "715018a6",
					"setRentalCost(address,uint256)": "80c5b8e3",
					"transferOwnership(address)": "f2fde38b",
					"withdrawAddress()": "1581b600",
					"withdrawal()": "d4e93292"
				}
			},
			"storageLayout": {
				"storage": [
					{
						"astId": 138,
						"contract": "contracts/Tenant.sol:Tenant",
						"label": "name",
						"offset": 0,
						"slot": "0",
						"type": "t_string_storage"
					},
					{
						"astId": 140,
						"contract": "contracts/Tenant.sol:Tenant",
						"label": "withdrawAddress",
						"offset": 0,
						"slot": "1",
						"type": "t_address"
					},
					{
						"astId": 7,
						"contract": "contracts/Tenant.sol:Tenant",
						"label": "_owner",
						"offset": 0,
						"slot": "2",
						"type": "t_address"
					},
					{
						"astId": 599,
						"contract": "contracts/Tenant.sol:Tenant",
						"label": "consorcioAddress",
						"offset": 0,
						"slot": "3",
						"type": "t_address"
					},
					{
						"astId": 612,
						"contract": "contracts/Tenant.sol:Tenant",
						"label": "tenantMapping",
						"offset": 0,
						"slot": "4",
						"type": "t_mapping(t_address,t_struct(TenantStruct)623_storage)"
					}
				],
				"types": {
					"t_address": {
						"encoding": "inplace",
						"label": "address",
						"numberOfBytes": "20"
					},
					"t_mapping(t_address,t_struct(TenantStruct)623_storage)": {
						"encoding": "mapping",
						"key": "t_address",
						"label": "mapping(address => struct Tenant.TenantStruct)",
						"numberOfBytes": "32",
						"value": "t_struct(TenantStruct)623_storage"
					},
					"t_string_storage": {
						"encoding": "bytes",
						"label": "string",
						"numberOfBytes": "32"
					},
					"t_struct(TenantStruct)623_storage": {
						"encoding": "inplace",
						"label": "struct Tenant.TenantStruct",
						"members": [
							{
								"astId": 614,
								"contract": "contracts/Tenant.sol:Tenant",
								"label": "name",
								"offset": 0,
								"slot": "0",
								"type": "t_string_storage"
							},
							{
								"astId": 616,
								"contract": "contracts/Tenant.sol:Tenant",
								"label": "tenantAddress",
								"offset": 0,
								"slot": "1",
								"type": "t_address"
							},
							{
								"astId": 618,
								"contract": "contracts/Tenant.sol:Tenant",
								"label": "rentalCost",
								"offset": 0,
								"slot": "2",
								"type": "t_uint256"
							},
							{
								"astId": 620,
								"contract": "contracts/Tenant.sol:Tenant",
								"label": "residence",
								"offset": 0,
								"slot": "3",
								"type": "t_string_storage"
							},
							{
								"astId": 622,
								"contract": "contracts/Tenant.sol:Tenant",
								"label": "consorcioContractAddress",
								"offset": 0,
								"slot": "4",
								"type": "t_address"
							}
						],
						"numberOfBytes": "160"
					},
					"t_uint256": {
						"encoding": "inplace",
						"label": "uint256",
						"numberOfBytes": "32"
					}
				}
			},
			"userdoc": {
				"kind": "user",
				"methods": {},
				"version": 1
			}
		}
	}
}