{
	"contracts/Tenant.sol": {
		"Tenant": {
			"abi": [
				{
					"inputs": [
						{
							"internalType": "string",
							"name": "name",
							"type": "string"
						},
						{
							"internalType": "address",
							"name": "newWithdraAddress",
							"type": "address"
						},
						{
							"internalType": "address",
							"name": "_consorcioAddress",
							"type": "address"
						}
					],
					"stateMutability": "payable",
					"type": "constructor"
				},
				{
					"anonymous": false,
					"inputs": [
						{
							"indexed": false,
							"internalType": "uint256",
							"name": "amount",
							"type": "uint256"
						}
					],
					"name": "EtherReceived",
					"type": "event"
				},
				{
					"anonymous": false,
					"inputs": [
						{
							"indexed": false,
							"internalType": "uint256",
							"name": "pricePaid",
							"type": "uint256"
						}
					],
					"name": "ExpensesPaid",
					"type": "event"
				},
				{
					"anonymous": false,
					"inputs": [
						{
							"indexed": true,
							"internalType": "address",
							"name": "previousOwner",
							"type": "address"
						},
						{
							"indexed": true,
							"internalType": "address",
							"name": "newOwner",
							"type": "address"
						}
					],
					"name": "OwnershipTransferred",
					"type": "event"
				},
				{
					"stateMutability": "payable",
					"type": "fallback"
				},
				{
					"inputs": [
						{
							"internalType": "string",
							"name": "_name",
							"type": "string"
						},
						{
							"internalType": "address",
							"name": "_tenantAddress",
							"type": "address"
						},
						{
							"internalType": "uint256",
							"name": "_rentalCost",
							"type": "uint256"
						},
						{
							"internalType": "string",
							"name": "_residence",
							"type": "string"
						}
					],
					"name": "addNewTenant",
					"outputs": [],
					"stateMutability": "nonpayable",
					"type": "function"
				},
				{
					"inputs": [],
					"name": "deposit",
					"outputs": [],
					"stateMutability": "payable",
					"type": "function"
				},
				{
					"inputs": [
						{
							"internalType": "address",
							"name": "_tenantAddress",
							"type": "address"
						}
					],
					"name": "getTenant",
					"outputs": [
						{
							"internalType": "string",
							"name": "name",
							"type": "string"
						},
						{
							"internalType": "address",
							"name": "tenantAddress",
							"type": "address"
						},
						{
							"internalType": "uint256",
							"name": "rentalCost",
							"type": "uint256"
						},
						{
							"internalType": "string",
							"name": "residence",
							"type": "string"
						}
					],
					"stateMutability": "view",
					"type": "function"
				},
				{
					"inputs": [],
					"name": "owner",
					"outputs": [
						{
							"internalType": "address",
							"name": "",
							"type": "address"
						}
					],
					"stateMutability": "view",
					"type": "function"
				},
				{
					"inputs": [],
					"name": "payExpenses",
					"outputs": [],
					"stateMutability": "nonpayable",
					"type": "function"
				},
				{
					"inputs": [],
					"name": "renounceOwnership",
					"outputs": [],
					"stateMutability": "nonpayable",
					"type": "function"
				},
				{
					"inputs": [
						{
							"internalType": "address",
							"name": "newOwner",
							"type": "address"
						}
					],
					"name": "transferOwnership",
					"outputs": [],
					"stateMutability": "nonpayable",
					"type": "function"
				},
				{
					"inputs": [],
					"name": "withdrawAddress",
					"outputs": [
						{
							"internalType": "address",
							"name": "",
							"type": "address"
						}
					],
					"stateMutability": "view",
					"type": "function"
				},
				{
					"inputs": [],
					"name": "withdrawal",
					"outputs": [],
					"stateMutability": "nonpayable",
					"type": "function"
				},
				{
					"stateMutability": "payable",
					"type": "receive"
				}
			],
			"devdoc": {
				"kind": "dev",
				"methods": {
					"owner()": {
						"details": "Returns the address of the current owner."
					},
					"renounceOwnership()": {
						"details": "Leaves the contract without owner. It will not be possible to call `onlyOwner` functions anymore. Can only be called by the current owner. NOTE: Renouncing ownership will leave the contract without an owner, thereby removing any functionality that is only available to the owner."
					},
					"transferOwnership(address)": {
						"details": "Transfers ownership of the contract to a new account (`newOwner`). Can only be called by the current owner."
					}
				},
				"version": 1
			},
			"evm": {
				"assembly": "    /* \"contracts/Tenant.sol\":143:1967  contract Tenant is BaseUser, Ownable {... */\n  mstore(0x40, 0x80)\n    /* \"contracts/Tenant.sol\":687:873  constructor (string memory name, address newWithdraAddress, address _consorcioAddress) payable BaseUser (name, newWithdraAddress)  {... */\n  mload(0x40)\n  sub(codesize, bytecodeSize)\n  dup1\n  bytecodeSize\n  dup4\n  codecopy\n  dup2\n  add\n  0x40\n  dup2\n  swap1\n  mstore\n  tag_1\n  swap2\n  tag_2\n  jump\t// in\ntag_1:\n    /* \"contracts/Tenant.sol\":792:796  name */\n  dup3\n    /* \"contracts/Tenant.sol\":798:815  newWithdraAddress */\n  dup3\n    /* \"contracts/BaseUser.sol\":219:223  name */\n  0x00\n    /* \"contracts/BaseUser.sol\":219:233  name = newName */\n  tag_7\n    /* \"contracts/Tenant.sol\":792:796  name */\n  dup4\n    /* \"contracts/BaseUser.sol\":219:223  name */\n  dup3\n    /* \"contracts/BaseUser.sol\":219:233  name = newName */\n  tag_8\n  jump\t// in\ntag_7:\n  pop\n    /* \"contracts/BaseUser.sol\":244:259  withdrawAddress */\n  0x01\n    /* \"contracts/BaseUser.sol\":244:272  withdrawAddress = newAddress */\n  dup1\n  sload\n  not(sub(exp(0x02, 0xa0), 0x01))\n  and\n  sub(exp(0x02, 0xa0), 0x01)\n  swap3\n  swap1\n  swap3\n  and\n  swap2\n  swap1\n  swap2\n  or\n  swap1\n  sstore\n  pop\n    /* \"@openzeppelin/contracts/access/Ownable.sol\":936:968  _transferOwnership(_msgSender()) */\n  tag_10\n    /* \"@openzeppelin/contracts/access/Ownable.sol\":955:967  _msgSender() */\n  tag_11\n    /* \"@openzeppelin/contracts/access/Ownable.sol\":955:965  _msgSender */\n  0x0100000000\n  tag_12\n  dup2\n  mul\n    /* \"@openzeppelin/contracts/access/Ownable.sol\":955:967  _msgSender() */\n  div\n  jump\t// in\ntag_11:\n    /* \"@openzeppelin/contracts/access/Ownable.sol\":936:954  _transferOwnership */\n  0x0100000000\n  tag_13\n  dup2\n  mul\n    /* \"@openzeppelin/contracts/access/Ownable.sol\":936:968  _transferOwnership(_msgSender()) */\n  div\n  jump\t// in\ntag_10:\n    /* \"contracts/Tenant.sol\":829:845  consorcioAddress */\n  0x05\n    /* \"contracts/Tenant.sol\":829:865  consorcioAddress = _consorcioAddress */\n  dup1\n  sload\n  not(sub(exp(0x02, 0xa0), 0x01))\n  and\n  sub(exp(0x02, 0xa0), 0x01)\n  swap3\n  swap1\n  swap3\n  and\n  swap2\n  swap1\n  swap2\n  or\n  swap1\n  sstore\n  pop\n    /* \"contracts/Tenant.sol\":143:1967  contract Tenant is BaseUser, Ownable {... */\n  tag_24\n  swap1\n  pop\n  jump\n    /* \"@openzeppelin/contracts/utils/Context.sol\":640:736  function _msgSender() internal view virtual returns (address) {... */\ntag_12:\n    /* \"@openzeppelin/contracts/utils/Context.sol\":719:729  msg.sender */\n  caller\n  swap1\n    /* \"@openzeppelin/contracts/utils/Context.sol\":640:736  function _msgSender() internal view virtual returns (address) {... */\n  jump\t// out\n    /* \"@openzeppelin/contracts/access/Ownable.sol\":2433:2620  function _transferOwnership(address newOwner) internal virtual {... */\ntag_13:\n    /* \"@openzeppelin/contracts/access/Ownable.sol\":2525:2531  _owner */\n  0x02\n  dup1\n  sload\n  sub(exp(0x02, 0xa0), 0x01)\n    /* \"@openzeppelin/contracts/access/Ownable.sol\":2541:2558  _owner = newOwner */\n  dup4\n  dup2\n  and\n  not(sub(exp(0x02, 0xa0), 0x01))\n  dup4\n  and\n  dup2\n  or\n  swap1\n  swap4\n  sstore\n    /* \"@openzeppelin/contracts/access/Ownable.sol\":2573:2613  OwnershipTransferred(oldOwner, newOwner) */\n  mload(0x40)\n    /* \"@openzeppelin/contracts/access/Ownable.sol\":2525:2531  _owner */\n  swap2\n  and\n  swap2\n    /* \"@openzeppelin/contracts/access/Ownable.sol\":2541:2558  _owner = newOwner */\n  swap1\n    /* \"@openzeppelin/contracts/access/Ownable.sol\":2525:2531  _owner */\n  dup3\n  swap1\n    /* \"@openzeppelin/contracts/access/Ownable.sol\":2573:2613  OwnershipTransferred(oldOwner, newOwner) */\n  0x8be0079c531659141344cd1fd0a4f28419497f9722a3daafe3b4186f6b6457e0\n  swap1\n    /* \"@openzeppelin/contracts/access/Ownable.sol\":2506:2522  address oldOwner */\n  0x00\n  swap1\n    /* \"@openzeppelin/contracts/access/Ownable.sol\":2573:2613  OwnershipTransferred(oldOwner, newOwner) */\n  log3\n    /* \"@openzeppelin/contracts/access/Ownable.sol\":2496:2620  {... */\n  pop\n    /* \"@openzeppelin/contracts/access/Ownable.sol\":2433:2620  function _transferOwnership(address newOwner) internal virtual {... */\n  pop\n  jump\t// out\n    /* \"#utility.yul\":14:198   */\ntag_18:\n    /* \"#utility.yul\":66:143   */\n  0x4e487b7100000000000000000000000000000000000000000000000000000000\n    /* \"#utility.yul\":63:64   */\n  0x00\n    /* \"#utility.yul\":56:144   */\n  mstore\n    /* \"#utility.yul\":163:167   */\n  0x41\n    /* \"#utility.yul\":160:161   */\n  0x04\n    /* \"#utility.yul\":153:168   */\n  mstore\n    /* \"#utility.yul\":187:191   */\n  0x24\n    /* \"#utility.yul\":184:185   */\n  0x00\n    /* \"#utility.yul\":177:192   */\n  revert\n    /* \"#utility.yul\":203:380   */\ntag_19:\n    /* \"#utility.yul\":282:295   */\n  dup1\n  mload\n  sub(exp(0x02, 0xa0), 0x01)\n    /* \"#utility.yul\":324:355   */\n  dup2\n  and\n    /* \"#utility.yul\":314:356   */\n  dup2\n  eq\n    /* \"#utility.yul\":304:374   */\n  tag_27\n  jumpi\n    /* \"#utility.yul\":370:371   */\n  0x00\n    /* \"#utility.yul\":367:368   */\n  dup1\n    /* \"#utility.yul\":360:372   */\n  revert\n    /* \"#utility.yul\":304:374   */\ntag_27:\n    /* \"#utility.yul\":203:380   */\n  swap2\n  swap1\n  pop\n  jump\t// out\n    /* \"#utility.yul\":385:1599   */\ntag_2:\n    /* \"#utility.yul\":483:489   */\n  0x00\n    /* \"#utility.yul\":491:497   */\n  dup1\n    /* \"#utility.yul\":499:505   */\n  0x00\n    /* \"#utility.yul\":552:554   */\n  0x60\n    /* \"#utility.yul\":540:549   */\n  dup5\n    /* \"#utility.yul\":531:538   */\n  dup7\n    /* \"#utility.yul\":527:550   */\n  sub\n    /* \"#utility.yul\":523:555   */\n  slt\n    /* \"#utility.yul\":520:572   */\n  iszero\n  tag_29\n  jumpi\n    /* \"#utility.yul\":568:569   */\n  0x00\n    /* \"#utility.yul\":565:566   */\n  dup1\n    /* \"#utility.yul\":558:570   */\n  revert\n    /* \"#utility.yul\":520:572   */\ntag_29:\n    /* \"#utility.yul\":601:610   */\n  dup4\n    /* \"#utility.yul\":595:611   */\n  mload\n  sub(exp(0x02, 0x40), 0x01)\n    /* \"#utility.yul\":671:673   */\n  dup1\n    /* \"#utility.yul\":663:669   */\n  dup3\n    /* \"#utility.yul\":660:674   */\n  gt\n    /* \"#utility.yul\":657:691   */\n  iszero\n  tag_30\n  jumpi\n    /* \"#utility.yul\":687:688   */\n  0x00\n    /* \"#utility.yul\":684:685   */\n  dup1\n    /* \"#utility.yul\":677:689   */\n  revert\n    /* \"#utility.yul\":657:691   */\ntag_30:\n    /* \"#utility.yul\":725:731   */\n  dup2\n    /* \"#utility.yul\":714:723   */\n  dup7\n    /* \"#utility.yul\":710:732   */\n  add\n    /* \"#utility.yul\":700:732   */\n  swap2\n  pop\n    /* \"#utility.yul\":770:777   */\n  dup7\n    /* \"#utility.yul\":763:767   */\n  0x1f\n    /* \"#utility.yul\":759:761   */\n  dup4\n    /* \"#utility.yul\":755:768   */\n  add\n    /* \"#utility.yul\":751:778   */\n  slt\n    /* \"#utility.yul\":741:796   */\n  tag_31\n  jumpi\n    /* \"#utility.yul\":792:793   */\n  0x00\n    /* \"#utility.yul\":789:790   */\n  dup1\n    /* \"#utility.yul\":782:794   */\n  revert\n    /* \"#utility.yul\":741:796   */\ntag_31:\n    /* \"#utility.yul\":821:823   */\n  dup2\n    /* \"#utility.yul\":815:824   */\n  mload\n    /* \"#utility.yul\":843:845   */\n  dup2\n    /* \"#utility.yul\":839:841   */\n  dup2\n    /* \"#utility.yul\":836:846   */\n  gt\n    /* \"#utility.yul\":833:869   */\n  iszero\n  tag_33\n  jumpi\n    /* \"#utility.yul\":849:867   */\n  tag_33\n  tag_18\n  jump\t// in\ntag_33:\n    /* \"#utility.yul\":924:926   */\n  0x40\n    /* \"#utility.yul\":918:927   */\n  mload\n    /* \"#utility.yul\":892:894   */\n  0x1f\n    /* \"#utility.yul\":978:991   */\n  dup3\n  add\n  not(0x1f)\n    /* \"#utility.yul\":974:996   */\n  swap1\n  dup2\n  and\n    /* \"#utility.yul\":998:1000   */\n  0x3f\n    /* \"#utility.yul\":970:1001   */\n  add\n    /* \"#utility.yul\":966:1006   */\n  and\n    /* \"#utility.yul\":954:1007   */\n  dup2\n  add\n  swap1\n    /* \"#utility.yul\":1022:1040   */\n  dup4\n  dup3\n  gt\n    /* \"#utility.yul\":1042:1064   */\n  dup2\n  dup4\n  lt\n    /* \"#utility.yul\":1019:1065   */\n  or\n    /* \"#utility.yul\":1016:1088   */\n  iszero\n  tag_35\n  jumpi\n    /* \"#utility.yul\":1068:1086   */\n  tag_35\n  tag_18\n  jump\t// in\ntag_35:\n    /* \"#utility.yul\":1108:1118   */\n  dup2\n    /* \"#utility.yul\":1104:1106   */\n  0x40\n    /* \"#utility.yul\":1097:1119   */\n  mstore\n    /* \"#utility.yul\":1143:1145   */\n  dup3\n    /* \"#utility.yul\":1135:1141   */\n  dup2\n    /* \"#utility.yul\":1128:1146   */\n  mstore\n    /* \"#utility.yul\":1165:1169   */\n  0x20\n    /* \"#utility.yul\":1155:1169   */\n  swap4\n  pop\n    /* \"#utility.yul\":1206:1213   */\n  dup10\n    /* \"#utility.yul\":1201:1203   */\n  dup5\n    /* \"#utility.yul\":1196:1198   */\n  dup5\n    /* \"#utility.yul\":1192:1194   */\n  dup8\n    /* \"#utility.yul\":1188:1199   */\n  add\n    /* \"#utility.yul\":1184:1204   */\n  add\n    /* \"#utility.yul\":1181:1214   */\n  gt\n    /* \"#utility.yul\":1178:1231   */\n  iszero\n  tag_36\n  jumpi\n    /* \"#utility.yul\":1227:1228   */\n  0x00\n    /* \"#utility.yul\":1224:1225   */\n  dup1\n    /* \"#utility.yul\":1217:1229   */\n  revert\n    /* \"#utility.yul\":1178:1231   */\ntag_36:\n    /* \"#utility.yul\":1249:1250   */\n  0x00\n    /* \"#utility.yul\":1240:1250   */\n  swap2\n  pop\n    /* \"#utility.yul\":1259:1388   */\ntag_37:\n    /* \"#utility.yul\":1273:1275   */\n  dup3\n    /* \"#utility.yul\":1270:1271   */\n  dup3\n    /* \"#utility.yul\":1267:1276   */\n  lt\n    /* \"#utility.yul\":1259:1388   */\n  iszero\n  tag_39\n  jumpi\n    /* \"#utility.yul\":1361:1371   */\n  dup5\n  dup3\n  add\n    /* \"#utility.yul\":1357:1376   */\n  dup5\n  add\n    /* \"#utility.yul\":1351:1377   */\n  mload\n    /* \"#utility.yul\":1330:1344   */\n  dup2\n  dup4\n  add\n    /* \"#utility.yul\":1326:1349   */\n  dup6\n  add\n    /* \"#utility.yul\":1319:1378   */\n  mstore\n    /* \"#utility.yul\":1284:1294   */\n  swap1\n  dup4\n  add\n  swap1\n    /* \"#utility.yul\":1259:1388   */\n  jump(tag_37)\ntag_39:\n    /* \"#utility.yul\":1430:1431   */\n  0x00\n    /* \"#utility.yul\":1425:1427   */\n  dup5\n    /* \"#utility.yul\":1420:1422   */\n  dup5\n    /* \"#utility.yul\":1412:1418   */\n  dup4\n    /* \"#utility.yul\":1408:1423   */\n  add\n    /* \"#utility.yul\":1404:1428   */\n  add\n    /* \"#utility.yul\":1397:1432   */\n  mstore\n    /* \"#utility.yul\":1451:1457   */\n  dup1\n    /* \"#utility.yul\":1441:1457   */\n  swap8\n  pop\n  pop\n  pop\n  pop\n    /* \"#utility.yul\":1476:1525   */\n  tag_40\n    /* \"#utility.yul\":1521:1523   */\n  dup2\n    /* \"#utility.yul\":1510:1519   */\n  dup8\n    /* \"#utility.yul\":1506:1524   */\n  add\n    /* \"#utility.yul\":1476:1525   */\n  tag_19\n  jump\t// in\ntag_40:\n    /* \"#utility.yul\":1466:1525   */\n  swap4\n  pop\n  pop\n  pop\n    /* \"#utility.yul\":1544:1593   */\n  tag_41\n    /* \"#utility.yul\":1589:1591   */\n  0x40\n    /* \"#utility.yul\":1578:1587   */\n  dup6\n    /* \"#utility.yul\":1574:1592   */\n  add\n    /* \"#utility.yul\":1544:1593   */\n  tag_19\n  jump\t// in\ntag_41:\n    /* \"#utility.yul\":1534:1593   */\n  swap1\n  pop\n    /* \"#utility.yul\":385:1599   */\n  swap3\n  pop\n  swap3\n  pop\n  swap3\n  jump\t// out\n    /* \"#utility.yul\":1604:2041   */\ntag_20:\n    /* \"#utility.yul\":1689:1690   */\n  0x02\n    /* \"#utility.yul\":1679:1691   */\n  dup2\n  div\n    /* \"#utility.yul\":1736:1737   */\n  0x01\n    /* \"#utility.yul\":1726:1738   */\n  dup3\n  and\n  dup1\n    /* \"#utility.yul\":1747:1808   */\n  tag_43\n  jumpi\n    /* \"#utility.yul\":1801:1805   */\n  0x7f\n    /* \"#utility.yul\":1793:1799   */\n  dup3\n    /* \"#utility.yul\":1789:1806   */\n  and\n    /* \"#utility.yul\":1779:1806   */\n  swap2\n  pop\n    /* \"#utility.yul\":1747:1808   */\ntag_43:\n    /* \"#utility.yul\":1854:1856   */\n  0x20\n    /* \"#utility.yul\":1846:1852   */\n  dup3\n    /* \"#utility.yul\":1843:1857   */\n  lt\n    /* \"#utility.yul\":1823:1841   */\n  dup2\n    /* \"#utility.yul\":1820:1858   */\n  sub\n    /* \"#utility.yul\":1817:2035   */\n  tag_44\n  jumpi\n    /* \"#utility.yul\":1891:1968   */\n  0x4e487b7100000000000000000000000000000000000000000000000000000000\n    /* \"#utility.yul\":1888:1889   */\n  0x00\n    /* \"#utility.yul\":1881:1969   */\n  mstore\n    /* \"#utility.yul\":1992:1996   */\n  0x22\n    /* \"#utility.yul\":1989:1990   */\n  0x04\n    /* \"#utility.yul\":1982:1997   */\n  mstore\n    /* \"#utility.yul\":2020:2024   */\n  0x24\n    /* \"#utility.yul\":2017:2018   */\n  0x00\n    /* \"#utility.yul\":2010:2025   */\n  revert\n    /* \"#utility.yul\":1817:2035   */\ntag_44:\n  pop\n    /* \"#utility.yul\":1604:2041   */\n  swap2\n  swap1\n  pop\n  jump\t// out\n    /* \"#utility.yul\":2172:2723   */\ntag_22:\n    /* \"#utility.yul\":2274:2276   */\n  0x1f\n    /* \"#utility.yul\":2269:2272   */\n  dup3\n    /* \"#utility.yul\":2266:2277   */\n  gt\n    /* \"#utility.yul\":2263:2717   */\n  iszero\n  tag_47\n  jumpi\n    /* \"#utility.yul\":2310:2311   */\n  0x00\n    /* \"#utility.yul\":2335:2340   */\n  dup2\n    /* \"#utility.yul\":2331:2333   */\n  dup2\n    /* \"#utility.yul\":2324:2341   */\n  mstore\n    /* \"#utility.yul\":2380:2384   */\n  0x20\n    /* \"#utility.yul\":2376:2378   */\n  dup2\n    /* \"#utility.yul\":2366:2385   */\n  keccak256\n    /* \"#utility.yul\":2452:2456   */\n  0x20\n    /* \"#utility.yul\":2447:2449   */\n  0x1f\n    /* \"#utility.yul\":2435:2445   */\n  dup7\n    /* \"#utility.yul\":2431:2450   */\n  add\n    /* \"#utility.yul\":2427:2457   */\n  div\n    /* \"#utility.yul\":2421:2425   */\n  dup2\n    /* \"#utility.yul\":2417:2458   */\n  add\n    /* \"#utility.yul\":2489:2493   */\n  0x20\n    /* \"#utility.yul\":2477:2487   */\n  dup7\n    /* \"#utility.yul\":2474:2494   */\n  lt\n    /* \"#utility.yul\":2471:2518   */\n  iszero\n  tag_48\n  jumpi\n  pop\n    /* \"#utility.yul\":2512:2516   */\n  dup1\n    /* \"#utility.yul\":2471:2518   */\ntag_48:\n    /* \"#utility.yul\":2569:2573   */\n  0x20\n    /* \"#utility.yul\":2564:2566   */\n  0x1f\n    /* \"#utility.yul\":2559:2562   */\n  dup7\n    /* \"#utility.yul\":2555:2567   */\n  add\n    /* \"#utility.yul\":2551:2574   */\n  div\n    /* \"#utility.yul\":2545:2549   */\n  dup3\n    /* \"#utility.yul\":2541:2575   */\n  add\n    /* \"#utility.yul\":2531:2575   */\n  swap2\n  pop\n    /* \"#utility.yul\":2625:2707   */\ntag_49:\n    /* \"#utility.yul\":2643:2645   */\n  dup2\n    /* \"#utility.yul\":2636:2641   */\n  dup2\n    /* \"#utility.yul\":2633:2646   */\n  lt\n    /* \"#utility.yul\":2625:2707   */\n  iszero\n  tag_51\n  jumpi\n    /* \"#utility.yul\":2688:2705   */\n  dup3\n  dup2\n  sstore\n    /* \"#utility.yul\":2669:2670   */\n  0x01\n    /* \"#utility.yul\":2658:2671   */\n  add\n    /* \"#utility.yul\":2625:2707   */\n  jump(tag_49)\ntag_51:\n    /* \"#utility.yul\":2629:2632   */\n  pop\n  pop\n  pop\n    /* \"#utility.yul\":2263:2717   */\ntag_47:\n    /* \"#utility.yul\":2172:2723   */\n  pop\n  pop\n  pop\n  jump\t// out\n    /* \"#utility.yul\":2907:4266   */\ntag_8:\n    /* \"#utility.yul\":3033:3036   */\n  dup2\n    /* \"#utility.yul\":3027:3037   */\n  mload\n  sub(exp(0x02, 0x40), 0x01)\n    /* \"#utility.yul\":3052:3058   */\n  dup2\n    /* \"#utility.yul\":3049:3079   */\n  gt\n    /* \"#utility.yul\":3046:3102   */\n  iszero\n  tag_55\n  jumpi\n    /* \"#utility.yul\":3082:3100   */\n  tag_55\n  tag_18\n  jump\t// in\ntag_55:\n    /* \"#utility.yul\":3111:3208   */\n  tag_56\n    /* \"#utility.yul\":3201:3207   */\n  dup2\n    /* \"#utility.yul\":3161:3199   */\n  tag_57\n    /* \"#utility.yul\":3193:3197   */\n  dup5\n    /* \"#utility.yul\":3187:3198   */\n  sload\n    /* \"#utility.yul\":3161:3199   */\n  tag_20\n  jump\t// in\ntag_57:\n    /* \"#utility.yul\":3155:3159   */\n  dup5\n    /* \"#utility.yul\":3111:3208   */\n  tag_22\n  jump\t// in\ntag_56:\n    /* \"#utility.yul\":3263:3267   */\n  0x20\n  dup1\n    /* \"#utility.yul\":3327:3329   */\n  0x1f\n    /* \"#utility.yul\":3316:3330   */\n  dup4\n  gt\n    /* \"#utility.yul\":3344:3345   */\n  0x01\n    /* \"#utility.yul\":3339:4009   */\n  dup2\n  eq\n  tag_59\n  jumpi\n    /* \"#utility.yul\":4053:4054   */\n  0x00\n    /* \"#utility.yul\":4070:4076   */\n  dup5\n    /* \"#utility.yul\":4067:4156   */\n  iszero\n  tag_60\n  jumpi\n  pop\n    /* \"#utility.yul\":4122:4141   */\n  dup6\n  dup4\n  add\n    /* \"#utility.yul\":4116:4142   */\n  mload\n    /* \"#utility.yul\":4067:4156   */\ntag_60:\n    /* \"#utility.yul\":2888:2889   */\n  0x02\n    /* \"#utility.yul\":2884:2895   */\n  dup1\n  dup7\n  mul\n    /* \"#utility.yul\":2871:2872   */\n  0x08\n    /* \"#utility.yul\":2867:2878   */\n  dup8\n  mul\n    /* \"#utility.yul\":2860:2879   */\n  swap1\n  swap2\n  exp\n  not(0x00)\n    /* \"#utility.yul\":2848:2880   */\n  div\n    /* \"#utility.yul\":2844:2881   */\n  not\n    /* \"#utility.yul\":2834:2882   */\n  dup3\n  and\n    /* \"#utility.yul\":2831:2896   */\n  or\n    /* \"#utility.yul\":4176:4180   */\n  dup7\n    /* \"#utility.yul\":4169:4250   */\n  sstore\n  pop\n    /* \"#utility.yul\":3309:4260   */\n  jump(tag_51)\n    /* \"#utility.yul\":3339:4009   */\ntag_59:\n    /* \"#utility.yul\":2119:2120   */\n  0x00\n    /* \"#utility.yul\":2112:2126   */\n  dup6\n  dup2\n  mstore\n    /* \"#utility.yul\":2156:2160   */\n  0x20\n    /* \"#utility.yul\":2143:2161   */\n  dup2\n  keccak256\n  not(0x1f)\n    /* \"#utility.yul\":3375:3395   */\n  dup7\n  and\n  swap2\n    /* \"#utility.yul\":3493:3729   */\ntag_63:\n    /* \"#utility.yul\":3507:3514   */\n  dup3\n    /* \"#utility.yul\":3504:3505   */\n  dup2\n    /* \"#utility.yul\":3501:3515   */\n  lt\n    /* \"#utility.yul\":3493:3729   */\n  iszero\n  tag_65\n  jumpi\n    /* \"#utility.yul\":3596:3615   */\n  dup9\n  dup7\n  add\n    /* \"#utility.yul\":3590:3616   */\n  mload\n    /* \"#utility.yul\":3575:3617   */\n  dup3\n  sstore\n    /* \"#utility.yul\":3688:3715   */\n  swap5\n  dup5\n  add\n  swap5\n    /* \"#utility.yul\":3656:3657   */\n  0x01\n    /* \"#utility.yul\":3644:3658   */\n  swap1\n  swap2\n  add\n  swap1\n    /* \"#utility.yul\":3523:3542   */\n  dup5\n  add\n    /* \"#utility.yul\":3493:3729   */\n  jump(tag_63)\ntag_65:\n    /* \"#utility.yul\":3497:3500   */\n  pop\n    /* \"#utility.yul\":3757:3763   */\n  dup6\n    /* \"#utility.yul\":3748:3755   */\n  dup3\n    /* \"#utility.yul\":3745:3764   */\n  lt\n    /* \"#utility.yul\":3742:3950   */\n  iszero\n  tag_66\n  jumpi\n    /* \"#utility.yul\":3818:3837   */\n  dup8\n  dup6\n  add\n    /* \"#utility.yul\":3812:3838   */\n  mload\n    /* \"#utility.yul\":3912:3913   */\n  0x08\n    /* \"#utility.yul\":3927:3929   */\n  0x1f\n    /* \"#utility.yul\":3915:3930   */\n  dup9\n  and\n    /* \"#utility.yul\":3908:3931   */\n  mul\n    /* \"#utility.yul\":3905:3906   */\n  0x02\n    /* \"#utility.yul\":3901:3932   */\n  exp\n  not(0x00)\n    /* \"#utility.yul\":3889:3933   */\n  div\n    /* \"#utility.yul\":3885:3934   */\n  not\n    /* \"#utility.yul\":3870:3935   */\n  and\n    /* \"#utility.yul\":3855:3936   */\n  dup2\n  sstore\n    /* \"#utility.yul\":3742:3950   */\ntag_66:\n  pop\n  pop\n  pop\n  pop\n  pop\n    /* \"#utility.yul\":3992:3993   */\n  0x02\n    /* \"#utility.yul\":3980:3994   */\n  mul\n    /* \"#utility.yul\":3996:3997   */\n  0x01\n    /* \"#utility.yul\":3976:3998   */\n  add\n    /* \"#utility.yul\":3963:3999   */\n  swap1\n  sstore\n  pop\n    /* \"#utility.yul\":2907:4266   */\n  jump\t// out\ntag_24:\n    /* \"contracts/Tenant.sol\":143:1967  contract Tenant is BaseUser, Ownable {... */\n  dataSize(sub_0)\n  dup1\n  dataOffset(sub_0)\n  0x00\n  codecopy\n  0x00\n  return\nstop\n\nsub_0: assembly {\n        /* \"contracts/Tenant.sol\":143:1967  contract Tenant is BaseUser, Ownable {... */\n      mstore(0x40, 0x80)\n      jumpi(tag_1, lt(calldatasize, 0x04))\n      calldataload(0x00)\n      0x0100000000000000000000000000000000000000000000000000000000\n      swap1\n      div\n      dup1\n      0xd0e30db0\n      gt\n      tag_12\n      jumpi\n      dup1\n      0xd0e30db0\n      eq\n      tag_7\n      jumpi\n      dup1\n      0xd4e93292\n      eq\n      tag_8\n      jumpi\n      dup1\n      0xda6e75c2\n      eq\n      tag_9\n      jumpi\n      dup1\n      0xe5cdb488\n      eq\n      tag_10\n      jumpi\n      dup1\n      0xf2fde38b\n      eq\n      tag_11\n      jumpi\n      stop\n    tag_12:\n      dup1\n      0x1581b600\n      eq\n      tag_3\n      jumpi\n      dup1\n      0x715018a6\n      eq\n      tag_4\n      jumpi\n      dup1\n      0x8da5cb5b\n      eq\n      tag_5\n      jumpi\n      dup1\n      0xcc0395bf\n      eq\n      tag_6\n      jumpi\n      stop\n    tag_1:\n      jumpi(tag_2, calldatasize)\n      stop\n    tag_2:\n      stop\n        /* \"contracts/BaseUser.sol\":114:144  address public withdrawAddress */\n    tag_3:\n      callvalue\n      dup1\n      iszero\n      tag_17\n      jumpi\n      0x00\n      dup1\n      revert\n    tag_17:\n      pop\n      sload(0x01)\n      tag_18\n      swap1\n      sub(exp(0x02, 0xa0), 0x01)\n      and\n      dup2\n      jump\n    tag_18:\n      mload(0x40)\n      sub(exp(0x02, 0xa0), 0x01)\n        /* \"#utility.yul\":178:233   */\n      swap1\n      swap2\n      and\n        /* \"#utility.yul\":160:234   */\n      dup2\n      mstore\n        /* \"#utility.yul\":148:150   */\n      0x20\n        /* \"#utility.yul\":133:151   */\n      add\n        /* \"contracts/BaseUser.sol\":114:144  address public withdrawAddress */\n    tag_20:\n      mload(0x40)\n      dup1\n      swap2\n      sub\n      swap1\n      return\n        /* \"@openzeppelin/contracts/access/Ownable.sol\":1831:1932  function renounceOwnership() public virtual onlyOwner {... */\n    tag_4:\n      callvalue\n      dup1\n      iszero\n      tag_22\n      jumpi\n      0x00\n      dup1\n      revert\n    tag_22:\n      pop\n      tag_2\n      tag_24\n      jump\t// in\n        /* \"@openzeppelin/contracts/access/Ownable.sol\":1201:1286  function owner() public view virtual returns (address) {... */\n    tag_5:\n      callvalue\n      dup1\n      iszero\n      tag_25\n      jumpi\n      0x00\n      dup1\n      revert\n    tag_25:\n      pop\n        /* \"@openzeppelin/contracts/access/Ownable.sol\":1273:1279  _owner */\n      and(sub(exp(0x02, 0xa0), 0x01), sload(0x02))\n        /* \"@openzeppelin/contracts/access/Ownable.sol\":1201:1286  function owner() public view virtual returns (address) {... */\n      jump(tag_18)\n        /* \"contracts/Tenant.sol\":973:1230  function addNewTenant(string memory _name, address _tenantAddress, uint _rentalCost, string memory _residence) public onlyOwner {... */\n    tag_6:\n      callvalue\n      dup1\n      iszero\n      tag_29\n      jumpi\n      0x00\n      dup1\n      revert\n    tag_29:\n      pop\n      tag_2\n      tag_31\n      calldatasize\n      0x04\n      tag_32\n      jump\t// in\n    tag_31:\n      tag_33\n      jump\t// in\n        /* \"contracts/Tenant.sol\":881:963  function deposit() public payable {... */\n    tag_7:\n      tag_2\n      tag_35\n      jump\t// in\n        /* \"contracts/BaseUser.sol\":288:388  function withdrawal() public {... */\n    tag_8:\n      callvalue\n      dup1\n      iszero\n      tag_2\n      jumpi\n      0x00\n      dup1\n      revert\n        /* \"contracts/Tenant.sol\":1646:1962  function payExpenses() public {... */\n    tag_9:\n      callvalue\n      dup1\n      iszero\n      tag_39\n      jumpi\n      0x00\n      dup1\n      revert\n    tag_39:\n      pop\n      tag_2\n      tag_41\n      jump\t// in\n        /* \"contracts/Tenant.sol\":1238:1638  function getTenant(address _tenantAddress) public view returns(string memory name, address tenantAddress, uint rentalCost, string memory residence){... */\n    tag_10:\n      callvalue\n      dup1\n      iszero\n      tag_42\n      jumpi\n      0x00\n      dup1\n      revert\n    tag_42:\n      pop\n      tag_43\n      tag_44\n      calldatasize\n      0x04\n      tag_45\n      jump\t// in\n    tag_44:\n      tag_46\n      jump\t// in\n    tag_43:\n      mload(0x40)\n      tag_20\n      swap5\n      swap4\n      swap3\n      swap2\n      swap1\n      tag_48\n      jump\t// in\n        /* \"@openzeppelin/contracts/access/Ownable.sol\":2081:2279  function transferOwnership(address newOwner) public virtual onlyOwner {... */\n    tag_11:\n      callvalue\n      dup1\n      iszero\n      tag_49\n      jumpi\n      0x00\n      dup1\n      revert\n    tag_49:\n      pop\n      tag_2\n      tag_51\n      calldatasize\n      0x04\n      tag_45\n      jump\t// in\n    tag_51:\n      tag_52\n      jump\t// in\n        /* \"@openzeppelin/contracts/access/Ownable.sol\":1831:1932  function renounceOwnership() public virtual onlyOwner {... */\n    tag_24:\n        /* \"@openzeppelin/contracts/access/Ownable.sol\":1094:1107  _checkOwner() */\n      tag_54\n        /* \"@openzeppelin/contracts/access/Ownable.sol\":1094:1105  _checkOwner */\n      tag_55\n        /* \"@openzeppelin/contracts/access/Ownable.sol\":1094:1107  _checkOwner() */\n      jump\t// in\n    tag_54:\n        /* \"@openzeppelin/contracts/access/Ownable.sol\":1895:1925  _transferOwnership(address(0)) */\n      tag_57\n        /* \"@openzeppelin/contracts/access/Ownable.sol\":1922:1923  0 */\n      0x00\n        /* \"@openzeppelin/contracts/access/Ownable.sol\":1895:1913  _transferOwnership */\n      tag_58\n        /* \"@openzeppelin/contracts/access/Ownable.sol\":1895:1925  _transferOwnership(address(0)) */\n      jump\t// in\n    tag_57:\n        /* \"@openzeppelin/contracts/access/Ownable.sol\":1831:1932  function renounceOwnership() public virtual onlyOwner {... */\n      jump\t// out\n        /* \"contracts/Tenant.sol\":973:1230  function addNewTenant(string memory _name, address _tenantAddress, uint _rentalCost, string memory _residence) public onlyOwner {... */\n    tag_33:\n        /* \"@openzeppelin/contracts/access/Ownable.sol\":1094:1107  _checkOwner() */\n      tag_61\n        /* \"@openzeppelin/contracts/access/Ownable.sol\":1094:1105  _checkOwner */\n      tag_55\n        /* \"@openzeppelin/contracts/access/Ownable.sol\":1094:1107  _checkOwner() */\n      jump\t// in\n    tag_61:\n        /* \"contracts/Tenant.sol\":1144:1222  TenantStruct(_name, _tenantAddress, _rentalCost, _residence, consorcioAddress) */\n      0x40\n      dup1\n      mload\n      0xa0\n      dup2\n      add\n      dup3\n      mstore\n      dup6\n      dup2\n      mstore\n      sub(exp(0x02, 0xa0), 0x01)\n      dup1\n      dup7\n      and\n      0x20\n      dup1\n      dup5\n      add\n      dup3\n      swap1\n      mstore\n      dup4\n      dup6\n      add\n      dup8\n      swap1\n      mstore\n      0x60\n      dup5\n      add\n      dup7\n      swap1\n      mstore\n        /* \"contracts/Tenant.sol\":1205:1221  consorcioAddress */\n      sload(0x05)\n      swap1\n      swap3\n      and\n        /* \"contracts/Tenant.sol\":1144:1222  TenantStruct(_name, _tenantAddress, _rentalCost, _residence, consorcioAddress) */\n      0x80\n      dup5\n      add\n      mstore\n      0x00\n        /* \"contracts/Tenant.sol\":1112:1141  tenantMapping[_tenantAddress] */\n      swap1\n      dup2\n      mstore\n        /* \"contracts/Tenant.sol\":1112:1125  tenantMapping */\n      0x06\n        /* \"contracts/Tenant.sol\":1112:1141  tenantMapping[_tenantAddress] */\n      swap1\n      swap2\n      mstore\n      swap2\n      swap1\n      swap2\n      keccak256\n        /* \"contracts/Tenant.sol\":1112:1222  tenantMapping[_tenantAddress] = TenantStruct(_name, _tenantAddress, _rentalCost, _residence, consorcioAddress) */\n      dup2\n      mload\n        /* \"contracts/Tenant.sol\":1112:1141  tenantMapping[_tenantAddress] */\n      dup2\n      swap1\n        /* \"contracts/Tenant.sol\":1112:1222  tenantMapping[_tenantAddress] = TenantStruct(_name, _tenantAddress, _rentalCost, _residence, consorcioAddress) */\n      tag_63\n      swap1\n        /* \"contracts/Tenant.sol\":1112:1141  tenantMapping[_tenantAddress] */\n      dup3\n        /* \"contracts/Tenant.sol\":1112:1222  tenantMapping[_tenantAddress] = TenantStruct(_name, _tenantAddress, _rentalCost, _residence, consorcioAddress) */\n      tag_64\n      jump\t// in\n    tag_63:\n      pop\n      0x20\n      dup3\n      add\n      mload\n      0x01\n      dup3\n      add\n      dup1\n      sload\n      not(0xffffffffffffffffffffffffffffffffffffffff)\n      and\n      sub(exp(0x02, 0xa0), 0x01)\n      swap1\n      swap3\n      and\n      swap2\n      swap1\n      swap2\n      or\n      swap1\n      sstore\n      0x40\n      dup3\n      add\n      mload\n      0x02\n      dup3\n      add\n      sstore\n      0x60\n      dup3\n      add\n      mload\n      0x03\n      dup3\n      add\n      swap1\n      tag_65\n      swap1\n      dup3\n      tag_64\n      jump\t// in\n    tag_65:\n      pop\n      0x80\n      swap2\n      swap1\n      swap2\n      add\n      mload\n      0x04\n      swap1\n      swap2\n      add\n      dup1\n      sload\n      not(0xffffffffffffffffffffffffffffffffffffffff)\n      and\n      sub(exp(0x02, 0xa0), 0x01)\n      swap1\n      swap3\n      and\n      swap2\n      swap1\n      swap2\n      or\n      swap1\n      sstore\n      pop\n      pop\n      pop\n      pop\n        /* \"contracts/Tenant.sol\":973:1230  function addNewTenant(string memory _name, address _tenantAddress, uint _rentalCost, string memory _residence) public onlyOwner {... */\n      jump\t// out\n        /* \"contracts/Tenant.sol\":881:963  function deposit() public payable {... */\n    tag_35:\n        /* \"contracts/Tenant.sol\":931:955  EtherReceived(msg.value) */\n      mload(0x40)\n        /* \"contracts/Tenant.sol\":945:954  msg.value */\n      callvalue\n        /* \"#utility.yul\":6063:6088   */\n      dup2\n      mstore\n        /* \"contracts/Tenant.sol\":931:955  EtherReceived(msg.value) */\n      0x0a34e3d4f1e6b837dbce1011b61499fa1a483a0abee6a7a6697660b4b2d97132\n      swap1\n        /* \"#utility.yul\":6051:6053   */\n      0x20\n        /* \"#utility.yul\":6036:6054   */\n      add\n        /* \"contracts/Tenant.sol\":931:955  EtherReceived(msg.value) */\n      mload(0x40)\n      dup1\n      swap2\n      sub\n      swap1\n      log1\n        /* \"contracts/Tenant.sol\":881:963  function deposit() public payable {... */\n      jump\t// out\n        /* \"contracts/Tenant.sol\":1646:1962  function payExpenses() public {... */\n    tag_41:\n        /* \"contracts/Tenant.sol\":1720:1732  servicePrice */\n      sload(0x03)\n        /* \"contracts/Tenant.sol\":1703:1707  this */\n      address\n        /* \"contracts/Tenant.sol\":1695:1716  address(this).balance */\n      balance\n        /* \"contracts/Tenant.sol\":1695:1732  address(this).balance >= servicePrice */\n      lt\n      iszero\n        /* \"contracts/Tenant.sol\":1687:1757  require(address(this).balance >= servicePrice, \"Fondos insuficientes\") */\n      tag_71\n      jumpi\n      mload(0x40)\n      mul(0x461bcd, exp(0x02, 0xe5))\n      dup2\n      mstore\n        /* \"#utility.yul\":6301:6303   */\n      0x20\n        /* \"contracts/Tenant.sol\":1687:1757  require(address(this).balance >= servicePrice, \"Fondos insuficientes\") */\n      0x04\n      dup3\n      add\n        /* \"#utility.yul\":6283:6304   */\n      mstore\n        /* \"#utility.yul\":6340:6342   */\n      0x14\n        /* \"#utility.yul\":6320:6338   */\n      0x24\n      dup3\n      add\n        /* \"#utility.yul\":6313:6343   */\n      mstore\n        /* \"#utility.yul\":6379:6401   */\n      0x466f6e646f7320696e737566696369656e746573000000000000000000000000\n        /* \"#utility.yul\":6359:6377   */\n      0x44\n      dup3\n      add\n        /* \"#utility.yul\":6352:6402   */\n      mstore\n        /* \"#utility.yul\":6419:6437   */\n      0x64\n      add\n        /* \"contracts/Tenant.sol\":1687:1757  require(address(this).balance >= servicePrice, \"Fondos insuficientes\") */\n    tag_72:\n      mload(0x40)\n      dup1\n      swap2\n      sub\n      swap1\n      revert\n    tag_71:\n        /* \"contracts/Tenant.sol\":1783:1799  consorcioAddress */\n      sload(0x05)\n        /* \"contracts/Tenant.sol\":1827:1839  servicePrice */\n      sload(0x03)\n        /* \"contracts/Tenant.sol\":1783:1854  consorcioAddress.call {... */\n      mload(0x40)\n        /* \"contracts/Tenant.sol\":1769:1778  bool sent */\n      0x00\n      swap3\n      sub(exp(0x02, 0xa0), 0x01)\n        /* \"contracts/Tenant.sol\":1783:1799  consorcioAddress */\n      and\n      swap2\n        /* \"contracts/Tenant.sol\":1827:1839  servicePrice */\n      swap1\n        /* \"contracts/Tenant.sol\":1769:1778  bool sent */\n      dup4\n        /* \"contracts/Tenant.sol\":1783:1854  consorcioAddress.call {... */\n      dup2\n        /* \"contracts/Tenant.sol\":1769:1778  bool sent */\n      dup2\n        /* \"contracts/Tenant.sol\":1783:1854  consorcioAddress.call {... */\n      dup2\n        /* \"contracts/Tenant.sol\":1827:1839  servicePrice */\n      dup6\n        /* \"contracts/Tenant.sol\":1783:1799  consorcioAddress */\n      dup8\n        /* \"contracts/Tenant.sol\":1783:1854  consorcioAddress.call {... */\n      gas\n      call\n      swap3\n      pop\n      pop\n      pop\n      returndatasize\n      dup1\n      0x00\n      dup2\n      eq\n      tag_78\n      jumpi\n      mload(0x40)\n      swap2\n      pop\n      and(add(returndatasize, 0x3f), not(0x1f))\n      dup3\n      add\n      0x40\n      mstore\n      returndatasize\n      dup3\n      mstore\n      returndatasize\n      0x00\n      0x20\n      dup5\n      add\n      returndatacopy\n      jump(tag_77)\n    tag_78:\n      0x60\n      swap2\n      pop\n    tag_77:\n      pop\n        /* \"contracts/Tenant.sol\":1768:1854  (bool sent,) = consorcioAddress.call {... */\n      swap1\n      swap2\n      pop\n      pop\n        /* \"contracts/Tenant.sol\":1881:1885  true */\n      0x01\n        /* \"contracts/Tenant.sol\":1873:1885  sent == true */\n      dup2\n      iszero\n      iszero\n      eq\n        /* \"contracts/Tenant.sol\":1865:1912  require(sent == true, \"Fallo la transferencia\") */\n      tag_79\n      jumpi\n      mload(0x40)\n      mul(0x461bcd, exp(0x02, 0xe5))\n      dup2\n      mstore\n        /* \"#utility.yul\":6860:6862   */\n      0x20\n        /* \"contracts/Tenant.sol\":1865:1912  require(sent == true, \"Fallo la transferencia\") */\n      0x04\n      dup3\n      add\n        /* \"#utility.yul\":6842:6863   */\n      mstore\n        /* \"#utility.yul\":6899:6901   */\n      0x16\n        /* \"#utility.yul\":6879:6897   */\n      0x24\n      dup3\n      add\n        /* \"#utility.yul\":6872:6902   */\n      mstore\n        /* \"#utility.yul\":6938:6962   */\n      0x46616c6c6f206c61207472616e73666572656e63696100000000000000000000\n        /* \"#utility.yul\":6918:6936   */\n      0x44\n      dup3\n      add\n        /* \"#utility.yul\":6911:6963   */\n      mstore\n        /* \"#utility.yul\":6980:6998   */\n      0x64\n      add\n        /* \"contracts/Tenant.sol\":1865:1912  require(sent == true, \"Fallo la transferencia\") */\n      tag_72\n        /* \"#utility.yul\":6658:7004   */\n      jump\n        /* \"contracts/Tenant.sol\":1865:1912  require(sent == true, \"Fallo la transferencia\") */\n    tag_79:\n        /* \"contracts/Tenant.sol\":1928:1954  ExpensesPaid(servicePrice) */\n      0x56e1cf8a52e84572ff49b950fa9a1a1867319bf8eba3bf8c77bc4354678a34c5\n        /* \"contracts/Tenant.sol\":1941:1953  servicePrice */\n      sload(0x03)\n        /* \"contracts/Tenant.sol\":1928:1954  ExpensesPaid(servicePrice) */\n      mload(0x40)\n      tag_82\n      swap2\n        /* \"#utility.yul\":6063:6088   */\n      dup2\n      mstore\n        /* \"#utility.yul\":6051:6053   */\n      0x20\n        /* \"#utility.yul\":6036:6054   */\n      add\n      swap1\n        /* \"#utility.yul\":5917:6094   */\n      jump\n        /* \"contracts/Tenant.sol\":1928:1954  ExpensesPaid(servicePrice) */\n    tag_82:\n      mload(0x40)\n      dup1\n      swap2\n      sub\n      swap1\n      log1\n        /* \"contracts/Tenant.sol\":1676:1962  {... */\n      pop\n        /* \"contracts/Tenant.sol\":1646:1962  function payExpenses() public {... */\n      jump\t// out\n        /* \"contracts/Tenant.sol\":1238:1638  function getTenant(address _tenantAddress) public view returns(string memory name, address tenantAddress, uint rentalCost, string memory residence){... */\n    tag_46:\n      sub(exp(0x02, 0xa0), 0x01)\n        /* \"contracts/Tenant.sol\":1418:1447  tenantMapping[_tenantAddress] */\n      dup1\n      dup3\n      and\n        /* \"contracts/Tenant.sol\":1321:1342  address tenantAddress */\n      0x00\n        /* \"contracts/Tenant.sol\":1418:1447  tenantMapping[_tenantAddress] */\n      swap1\n      dup2\n      mstore\n        /* \"contracts/Tenant.sol\":1418:1431  tenantMapping */\n      0x06\n        /* \"contracts/Tenant.sol\":1418:1447  tenantMapping[_tenantAddress] */\n      0x20\n      mstore\n      0x40\n      dup2\n      keccak256\n        /* \"contracts/Tenant.sol\":1467:1510  tenantMapping[_tenantAddress].tenantAddress */\n      0x01\n      dup2\n      add\n      sload\n        /* \"contracts/Tenant.sol\":1525:1565  tenantMapping[_tenantAddress].rentalCost */\n      0x02\n      dup3\n      add\n      sload\n        /* \"contracts/Tenant.sol\":1396:1630  return (... */\n      dup3\n      sload\n        /* \"contracts/Tenant.sol\":1301:1319  string memory name */\n      0x60\n      swap6\n        /* \"contracts/Tenant.sol\":1321:1342  address tenantAddress */\n      dup6\n      swap5\n        /* \"contracts/Tenant.sol\":1301:1319  string memory name */\n      dup8\n      swap5\n        /* \"contracts/Tenant.sol\":1418:1447  tenantMapping[_tenantAddress] */\n      swap1\n      swap4\n        /* \"contracts/Tenant.sol\":1467:1510  tenantMapping[_tenantAddress].tenantAddress */\n      swap2\n      and\n      swap2\n        /* \"contracts/Tenant.sol\":1580:1619  tenantMapping[_tenantAddress].residence */\n      0x03\n      dup5\n      add\n      swap1\n        /* \"contracts/Tenant.sol\":1418:1447  tenantMapping[_tenantAddress] */\n      dup5\n      swap1\n        /* \"contracts/Tenant.sol\":1396:1630  return (... */\n      tag_84\n      swap1\n      tag_85\n      jump\t// in\n    tag_84:\n      dup1\n      0x1f\n      add\n      0x20\n      dup1\n      swap2\n      div\n      mul\n      0x20\n      add\n      mload(0x40)\n      swap1\n      dup2\n      add\n      0x40\n      mstore\n      dup1\n      swap3\n      swap2\n      swap1\n      dup2\n      dup2\n      mstore\n      0x20\n      add\n      dup3\n      dup1\n      sload\n      tag_86\n      swap1\n      tag_85\n      jump\t// in\n    tag_86:\n      dup1\n      iszero\n      tag_87\n      jumpi\n      dup1\n      0x1f\n      lt\n      tag_88\n      jumpi\n      0x0100\n      dup1\n      dup4\n      sload\n      div\n      mul\n      dup4\n      mstore\n      swap2\n      0x20\n      add\n      swap2\n      jump(tag_87)\n    tag_88:\n      dup3\n      add\n      swap2\n      swap1\n      0x00\n      mstore\n      keccak256(0x00, 0x20)\n      swap1\n    tag_89:\n      dup2\n      sload\n      dup2\n      mstore\n      swap1\n      0x01\n      add\n      swap1\n      0x20\n      add\n      dup1\n      dup4\n      gt\n      tag_89\n      jumpi\n      dup3\n      swap1\n      sub\n      0x1f\n      and\n      dup3\n      add\n      swap2\n    tag_87:\n      pop\n      pop\n      pop\n      pop\n      pop\n      swap4\n      pop\n      dup1\n      dup1\n      sload\n      tag_90\n      swap1\n      tag_85\n      jump\t// in\n    tag_90:\n      dup1\n      0x1f\n      add\n      0x20\n      dup1\n      swap2\n      div\n      mul\n      0x20\n      add\n      mload(0x40)\n      swap1\n      dup2\n      add\n      0x40\n      mstore\n      dup1\n      swap3\n      swap2\n      swap1\n      dup2\n      dup2\n      mstore\n      0x20\n      add\n      dup3\n      dup1\n      sload\n      tag_91\n      swap1\n      tag_85\n      jump\t// in\n    tag_91:\n      dup1\n      iszero\n      tag_92\n      jumpi\n      dup1\n      0x1f\n      lt\n      tag_93\n      jumpi\n      0x0100\n      dup1\n      dup4\n      sload\n      div\n      mul\n      dup4\n      mstore\n      swap2\n      0x20\n      add\n      swap2\n      jump(tag_92)\n    tag_93:\n      dup3\n      add\n      swap2\n      swap1\n      0x00\n      mstore\n      keccak256(0x00, 0x20)\n      swap1\n    tag_94:\n      dup2\n      sload\n      dup2\n      mstore\n      swap1\n      0x01\n      add\n      swap1\n      0x20\n      add\n      dup1\n      dup4\n      gt\n      tag_94\n      jumpi\n      dup3\n      swap1\n      sub\n      0x1f\n      and\n      dup3\n      add\n      swap2\n    tag_92:\n      pop\n      pop\n      pop\n      pop\n      pop\n      swap1\n      pop\n      swap4\n      pop\n      swap4\n      pop\n      swap4\n      pop\n      swap4\n      pop\n        /* \"contracts/Tenant.sol\":1238:1638  function getTenant(address _tenantAddress) public view returns(string memory name, address tenantAddress, uint rentalCost, string memory residence){... */\n      swap2\n      swap4\n      pop\n      swap2\n      swap4\n      jump\t// out\n        /* \"@openzeppelin/contracts/access/Ownable.sol\":2081:2279  function transferOwnership(address newOwner) public virtual onlyOwner {... */\n    tag_52:\n        /* \"@openzeppelin/contracts/access/Ownable.sol\":1094:1107  _checkOwner() */\n      tag_96\n        /* \"@openzeppelin/contracts/access/Ownable.sol\":1094:1105  _checkOwner */\n      tag_55\n        /* \"@openzeppelin/contracts/access/Ownable.sol\":1094:1107  _checkOwner() */\n      jump\t// in\n    tag_96:\n      sub(exp(0x02, 0xa0), 0x01)\n        /* \"@openzeppelin/contracts/access/Ownable.sol\":2169:2191  newOwner != address(0) */\n      dup2\n      and\n        /* \"@openzeppelin/contracts/access/Ownable.sol\":2161:2234  require(newOwner != address(0), \"Ownable: new owner is the zero address\") */\n      tag_98\n      jumpi\n      mload(0x40)\n      mul(0x461bcd, exp(0x02, 0xe5))\n      dup2\n      mstore\n        /* \"#utility.yul\":7211:7213   */\n      0x20\n        /* \"@openzeppelin/contracts/access/Ownable.sol\":2161:2234  require(newOwner != address(0), \"Ownable: new owner is the zero address\") */\n      0x04\n      dup3\n      add\n        /* \"#utility.yul\":7193:7214   */\n      mstore\n        /* \"#utility.yul\":7250:7252   */\n      0x26\n        /* \"#utility.yul\":7230:7248   */\n      0x24\n      dup3\n      add\n        /* \"#utility.yul\":7223:7253   */\n      mstore\n        /* \"#utility.yul\":7289:7323   */\n      0x4f776e61626c653a206e6577206f776e657220697320746865207a65726f2061\n        /* \"#utility.yul\":7269:7287   */\n      0x44\n      dup3\n      add\n        /* \"#utility.yul\":7262:7324   */\n      mstore\n        /* \"#utility.yul\":7360:7368   */\n      0x6464726573730000000000000000000000000000000000000000000000000000\n        /* \"#utility.yul\":7340:7358   */\n      0x64\n      dup3\n      add\n        /* \"#utility.yul\":7333:7369   */\n      mstore\n        /* \"#utility.yul\":7386:7405   */\n      0x84\n      add\n        /* \"@openzeppelin/contracts/access/Ownable.sol\":2161:2234  require(newOwner != address(0), \"Ownable: new owner is the zero address\") */\n      tag_72\n        /* \"#utility.yul\":7009:7411   */\n      jump\n        /* \"@openzeppelin/contracts/access/Ownable.sol\":2161:2234  require(newOwner != address(0), \"Ownable: new owner is the zero address\") */\n    tag_98:\n        /* \"@openzeppelin/contracts/access/Ownable.sol\":2244:2272  _transferOwnership(newOwner) */\n      tag_101\n        /* \"@openzeppelin/contracts/access/Ownable.sol\":2263:2271  newOwner */\n      dup2\n        /* \"@openzeppelin/contracts/access/Ownable.sol\":2244:2262  _transferOwnership */\n      tag_58\n        /* \"@openzeppelin/contracts/access/Ownable.sol\":2244:2272  _transferOwnership(newOwner) */\n      jump\t// in\n    tag_101:\n        /* \"@openzeppelin/contracts/access/Ownable.sol\":2081:2279  function transferOwnership(address newOwner) public virtual onlyOwner {... */\n      pop\n      jump\t// out\n        /* \"@openzeppelin/contracts/access/Ownable.sol\":1359:1489  function _checkOwner() internal view virtual {... */\n    tag_55:\n        /* \"@openzeppelin/contracts/access/Ownable.sol\":1273:1279  _owner */\n      and(sub(exp(0x02, 0xa0), 0x01), sload(0x02))\n        /* \"@openzeppelin/contracts/utils/Context.sol\":719:729  msg.sender */\n      caller\n        /* \"@openzeppelin/contracts/access/Ownable.sol\":1422:1445  owner() == _msgSender() */\n      eq\n        /* \"@openzeppelin/contracts/access/Ownable.sol\":1414:1482  require(owner() == _msgSender(), \"Ownable: caller is not the owner\") */\n      tag_57\n      jumpi\n      mload(0x40)\n      mul(0x461bcd, exp(0x02, 0xe5))\n      dup2\n      mstore\n        /* \"#utility.yul\":7618:7620   */\n      0x20\n        /* \"@openzeppelin/contracts/access/Ownable.sol\":1414:1482  require(owner() == _msgSender(), \"Ownable: caller is not the owner\") */\n      0x04\n      dup3\n      add\n        /* \"#utility.yul\":7600:7621   */\n      dup2\n      swap1\n      mstore\n        /* \"#utility.yul\":7637:7655   */\n      0x24\n      dup3\n      add\n        /* \"#utility.yul\":7630:7660   */\n      mstore\n        /* \"#utility.yul\":7696:7730   */\n      0x4f776e61626c653a2063616c6c6572206973206e6f7420746865206f776e6572\n        /* \"#utility.yul\":7676:7694   */\n      0x44\n      dup3\n      add\n        /* \"#utility.yul\":7669:7731   */\n      mstore\n        /* \"#utility.yul\":7748:7766   */\n      0x64\n      add\n        /* \"@openzeppelin/contracts/access/Ownable.sol\":1414:1482  require(owner() == _msgSender(), \"Ownable: caller is not the owner\") */\n      tag_72\n        /* \"#utility.yul\":7416:7772   */\n      jump\n        /* \"@openzeppelin/contracts/access/Ownable.sol\":2433:2620  function _transferOwnership(address newOwner) internal virtual {... */\n    tag_58:\n        /* \"@openzeppelin/contracts/access/Ownable.sol\":2525:2531  _owner */\n      0x02\n      dup1\n      sload\n      sub(exp(0x02, 0xa0), 0x01)\n        /* \"@openzeppelin/contracts/access/Ownable.sol\":2541:2558  _owner = newOwner */\n      dup4\n      dup2\n      and\n      not(0xffffffffffffffffffffffffffffffffffffffff)\n      dup4\n      and\n      dup2\n      or\n      swap1\n      swap4\n      sstore\n        /* \"@openzeppelin/contracts/access/Ownable.sol\":2573:2613  OwnershipTransferred(oldOwner, newOwner) */\n      mload(0x40)\n        /* \"@openzeppelin/contracts/access/Ownable.sol\":2525:2531  _owner */\n      swap2\n      and\n      swap2\n        /* \"@openzeppelin/contracts/access/Ownable.sol\":2541:2558  _owner = newOwner */\n      swap1\n        /* \"@openzeppelin/contracts/access/Ownable.sol\":2525:2531  _owner */\n      dup3\n      swap1\n        /* \"@openzeppelin/contracts/access/Ownable.sol\":2573:2613  OwnershipTransferred(oldOwner, newOwner) */\n      0x8be0079c531659141344cd1fd0a4f28419497f9722a3daafe3b4186f6b6457e0\n      swap1\n        /* \"@openzeppelin/contracts/access/Ownable.sol\":2506:2522  address oldOwner */\n      0x00\n      swap1\n        /* \"@openzeppelin/contracts/access/Ownable.sol\":2573:2613  OwnershipTransferred(oldOwner, newOwner) */\n      log3\n        /* \"@openzeppelin/contracts/access/Ownable.sol\":2496:2620  {... */\n      pop\n        /* \"@openzeppelin/contracts/access/Ownable.sol\":2433:2620  function _transferOwnership(address newOwner) internal virtual {... */\n      pop\n      jump\t// out\n        /* \"#utility.yul\":245:429   */\n    tag_111:\n        /* \"#utility.yul\":297:374   */\n      0x4e487b7100000000000000000000000000000000000000000000000000000000\n        /* \"#utility.yul\":294:295   */\n      0x00\n        /* \"#utility.yul\":287:375   */\n      mstore\n        /* \"#utility.yul\":394:398   */\n      0x41\n        /* \"#utility.yul\":391:392   */\n      0x04\n        /* \"#utility.yul\":384:399   */\n      mstore\n        /* \"#utility.yul\":418:422   */\n      0x24\n        /* \"#utility.yul\":415:416   */\n      0x00\n        /* \"#utility.yul\":408:423   */\n      revert\n        /* \"#utility.yul\":434:1153   */\n    tag_112:\n        /* \"#utility.yul\":477:482   */\n      0x00\n        /* \"#utility.yul\":530:533   */\n      dup3\n        /* \"#utility.yul\":523:527   */\n      0x1f\n        /* \"#utility.yul\":515:521   */\n      dup4\n        /* \"#utility.yul\":511:528   */\n      add\n        /* \"#utility.yul\":507:534   */\n      slt\n        /* \"#utility.yul\":497:552   */\n      tag_122\n      jumpi\n        /* \"#utility.yul\":548:549   */\n      0x00\n        /* \"#utility.yul\":545:546   */\n      dup1\n        /* \"#utility.yul\":538:550   */\n      revert\n        /* \"#utility.yul\":497:552   */\n    tag_122:\n        /* \"#utility.yul\":584:590   */\n      dup2\n        /* \"#utility.yul\":571:591   */\n      calldataload\n        /* \"#utility.yul\":610:628   */\n      0xffffffffffffffff\n        /* \"#utility.yul\":647:649   */\n      dup1\n        /* \"#utility.yul\":643:645   */\n      dup3\n        /* \"#utility.yul\":640:650   */\n      gt\n        /* \"#utility.yul\":637:673   */\n      iszero\n      tag_124\n      jumpi\n        /* \"#utility.yul\":653:671   */\n      tag_124\n      tag_111\n      jump\t// in\n    tag_124:\n        /* \"#utility.yul\":728:730   */\n      0x40\n        /* \"#utility.yul\":722:731   */\n      mload\n        /* \"#utility.yul\":696:698   */\n      0x1f\n        /* \"#utility.yul\":782:795   */\n      dup4\n      add\n      not(0x1f)\n        /* \"#utility.yul\":778:800   */\n      swap1\n      dup2\n      and\n        /* \"#utility.yul\":802:804   */\n      0x3f\n        /* \"#utility.yul\":774:805   */\n      add\n        /* \"#utility.yul\":770:810   */\n      and\n        /* \"#utility.yul\":758:811   */\n      dup2\n      add\n      swap1\n        /* \"#utility.yul\":826:844   */\n      dup3\n      dup3\n      gt\n        /* \"#utility.yul\":846:868   */\n      dup2\n      dup4\n      lt\n        /* \"#utility.yul\":823:869   */\n      or\n        /* \"#utility.yul\":820:892   */\n      iszero\n      tag_126\n      jumpi\n        /* \"#utility.yul\":872:890   */\n      tag_126\n      tag_111\n      jump\t// in\n    tag_126:\n        /* \"#utility.yul\":912:922   */\n      dup2\n        /* \"#utility.yul\":908:910   */\n      0x40\n        /* \"#utility.yul\":901:923   */\n      mstore\n        /* \"#utility.yul\":947:949   */\n      dup4\n        /* \"#utility.yul\":939:945   */\n      dup2\n        /* \"#utility.yul\":932:950   */\n      mstore\n        /* \"#utility.yul\":993:996   */\n      dup7\n        /* \"#utility.yul\":986:990   */\n      0x20\n        /* \"#utility.yul\":981:983   */\n      dup6\n        /* \"#utility.yul\":973:979   */\n      dup9\n        /* \"#utility.yul\":969:984   */\n      add\n        /* \"#utility.yul\":965:991   */\n      add\n        /* \"#utility.yul\":962:997   */\n      gt\n        /* \"#utility.yul\":959:1014   */\n      iszero\n      tag_127\n      jumpi\n        /* \"#utility.yul\":1010:1011   */\n      0x00\n        /* \"#utility.yul\":1007:1008   */\n      dup1\n        /* \"#utility.yul\":1000:1012   */\n      revert\n        /* \"#utility.yul\":959:1014   */\n    tag_127:\n        /* \"#utility.yul\":1074:1076   */\n      dup4\n        /* \"#utility.yul\":1067:1071   */\n      0x20\n        /* \"#utility.yul\":1059:1065   */\n      dup8\n        /* \"#utility.yul\":1055:1072   */\n      add\n        /* \"#utility.yul\":1048:1052   */\n      0x20\n        /* \"#utility.yul\":1040:1046   */\n      dup4\n        /* \"#utility.yul\":1036:1053   */\n      add\n        /* \"#utility.yul\":1023:1077   */\n      calldatacopy\n        /* \"#utility.yul\":1121:1122   */\n      0x00\n        /* \"#utility.yul\":1114:1118   */\n      0x20\n        /* \"#utility.yul\":1109:1111   */\n      dup6\n        /* \"#utility.yul\":1101:1107   */\n      dup4\n        /* \"#utility.yul\":1097:1112   */\n      add\n        /* \"#utility.yul\":1093:1119   */\n      add\n        /* \"#utility.yul\":1086:1123   */\n      mstore\n        /* \"#utility.yul\":1141:1147   */\n      dup1\n        /* \"#utility.yul\":1132:1147   */\n      swap5\n      pop\n      pop\n      pop\n      pop\n      pop\n        /* \"#utility.yul\":434:1153   */\n      swap3\n      swap2\n      pop\n      pop\n      jump\t// out\n        /* \"#utility.yul\":1158:1354   */\n    tag_113:\n        /* \"#utility.yul\":1226:1246   */\n      dup1\n      calldataload\n      sub(exp(0x02, 0xa0), 0x01)\n        /* \"#utility.yul\":1275:1329   */\n      dup2\n      and\n        /* \"#utility.yul\":1265:1330   */\n      dup2\n      eq\n        /* \"#utility.yul\":1255:1348   */\n      tag_129\n      jumpi\n        /* \"#utility.yul\":1344:1345   */\n      0x00\n        /* \"#utility.yul\":1341:1342   */\n      dup1\n        /* \"#utility.yul\":1334:1346   */\n      revert\n        /* \"#utility.yul\":1255:1348   */\n    tag_129:\n        /* \"#utility.yul\":1158:1354   */\n      swap2\n      swap1\n      pop\n      jump\t// out\n        /* \"#utility.yul\":1359:2045   */\n    tag_32:\n        /* \"#utility.yul\":1465:1471   */\n      0x00\n        /* \"#utility.yul\":1473:1479   */\n      dup1\n        /* \"#utility.yul\":1481:1487   */\n      0x00\n        /* \"#utility.yul\":1489:1495   */\n      dup1\n        /* \"#utility.yul\":1542:1545   */\n      0x80\n        /* \"#utility.yul\":1530:1539   */\n      dup6\n        /* \"#utility.yul\":1521:1528   */\n      dup8\n        /* \"#utility.yul\":1517:1540   */\n      sub\n        /* \"#utility.yul\":1513:1546   */\n      slt\n        /* \"#utility.yul\":1510:1563   */\n      iszero\n      tag_131\n      jumpi\n        /* \"#utility.yul\":1559:1560   */\n      0x00\n        /* \"#utility.yul\":1556:1557   */\n      dup1\n        /* \"#utility.yul\":1549:1561   */\n      revert\n        /* \"#utility.yul\":1510:1563   */\n    tag_131:\n        /* \"#utility.yul\":1599:1608   */\n      dup5\n        /* \"#utility.yul\":1586:1609   */\n      calldataload\n        /* \"#utility.yul\":1628:1646   */\n      0xffffffffffffffff\n        /* \"#utility.yul\":1669:1671   */\n      dup1\n        /* \"#utility.yul\":1661:1667   */\n      dup3\n        /* \"#utility.yul\":1658:1672   */\n      gt\n        /* \"#utility.yul\":1655:1689   */\n      iszero\n      tag_132\n      jumpi\n        /* \"#utility.yul\":1685:1686   */\n      0x00\n        /* \"#utility.yul\":1682:1683   */\n      dup1\n        /* \"#utility.yul\":1675:1687   */\n      revert\n        /* \"#utility.yul\":1655:1689   */\n    tag_132:\n        /* \"#utility.yul\":1708:1758   */\n      tag_133\n        /* \"#utility.yul\":1750:1757   */\n      dup9\n        /* \"#utility.yul\":1741:1747   */\n      dup4\n        /* \"#utility.yul\":1730:1739   */\n      dup10\n        /* \"#utility.yul\":1726:1748   */\n      add\n        /* \"#utility.yul\":1708:1758   */\n      tag_112\n      jump\t// in\n    tag_133:\n        /* \"#utility.yul\":1698:1758   */\n      swap6\n      pop\n        /* \"#utility.yul\":1777:1815   */\n      tag_134\n        /* \"#utility.yul\":1811:1813   */\n      0x20\n        /* \"#utility.yul\":1800:1809   */\n      dup9\n        /* \"#utility.yul\":1796:1814   */\n      add\n        /* \"#utility.yul\":1777:1815   */\n      tag_113\n      jump\t// in\n    tag_134:\n        /* \"#utility.yul\":1767:1815   */\n      swap5\n      pop\n        /* \"#utility.yul\":1862:1864   */\n      0x40\n        /* \"#utility.yul\":1851:1860   */\n      dup8\n        /* \"#utility.yul\":1847:1865   */\n      add\n        /* \"#utility.yul\":1834:1866   */\n      calldataload\n        /* \"#utility.yul\":1824:1866   */\n      swap4\n      pop\n        /* \"#utility.yul\":1919:1921   */\n      0x60\n        /* \"#utility.yul\":1908:1917   */\n      dup8\n        /* \"#utility.yul\":1904:1922   */\n      add\n        /* \"#utility.yul\":1891:1923   */\n      calldataload\n        /* \"#utility.yul\":1875:1923   */\n      swap2\n      pop\n        /* \"#utility.yul\":1948:1950   */\n      dup1\n        /* \"#utility.yul\":1938:1946   */\n      dup3\n        /* \"#utility.yul\":1935:1951   */\n      gt\n        /* \"#utility.yul\":1932:1968   */\n      iszero\n      tag_135\n      jumpi\n        /* \"#utility.yul\":1964:1965   */\n      0x00\n        /* \"#utility.yul\":1961:1962   */\n      dup1\n        /* \"#utility.yul\":1954:1966   */\n      revert\n        /* \"#utility.yul\":1932:1968   */\n    tag_135:\n      pop\n        /* \"#utility.yul\":1987:2039   */\n      tag_136\n        /* \"#utility.yul\":2031:2038   */\n      dup8\n        /* \"#utility.yul\":2020:2028   */\n      dup3\n        /* \"#utility.yul\":2009:2018   */\n      dup9\n        /* \"#utility.yul\":2005:2029   */\n      add\n        /* \"#utility.yul\":1987:2039   */\n      tag_112\n      jump\t// in\n    tag_136:\n        /* \"#utility.yul\":1977:2039   */\n      swap2\n      pop\n      pop\n        /* \"#utility.yul\":1359:2045   */\n      swap3\n      swap6\n      swap2\n      swap5\n      pop\n      swap3\n      pop\n      jump\t// out\n        /* \"#utility.yul\":2050:2236   */\n    tag_45:\n        /* \"#utility.yul\":2109:2115   */\n      0x00\n        /* \"#utility.yul\":2162:2164   */\n      0x20\n        /* \"#utility.yul\":2150:2159   */\n      dup3\n        /* \"#utility.yul\":2141:2148   */\n      dup5\n        /* \"#utility.yul\":2137:2160   */\n      sub\n        /* \"#utility.yul\":2133:2165   */\n      slt\n        /* \"#utility.yul\":2130:2182   */\n      iszero\n      tag_138\n      jumpi\n        /* \"#utility.yul\":2178:2179   */\n      0x00\n        /* \"#utility.yul\":2175:2176   */\n      dup1\n        /* \"#utility.yul\":2168:2180   */\n      revert\n        /* \"#utility.yul\":2130:2182   */\n    tag_138:\n        /* \"#utility.yul\":2201:2230   */\n      tag_139\n        /* \"#utility.yul\":2220:2229   */\n      dup3\n        /* \"#utility.yul\":2201:2230   */\n      tag_113\n      jump\t// in\n    tag_139:\n        /* \"#utility.yul\":2191:2230   */\n      swap4\n        /* \"#utility.yul\":2050:2236   */\n      swap3\n      pop\n      pop\n      pop\n      jump\t// out\n        /* \"#utility.yul\":2241:2664   */\n    tag_114:\n        /* \"#utility.yul\":2283:2286   */\n      0x00\n        /* \"#utility.yul\":2321:2326   */\n      dup2\n        /* \"#utility.yul\":2315:2327   */\n      mload\n        /* \"#utility.yul\":2348:2354   */\n      dup1\n        /* \"#utility.yul\":2343:2346   */\n      dup5\n        /* \"#utility.yul\":2336:2355   */\n      mstore\n        /* \"#utility.yul\":2373:2374   */\n      0x00\n        /* \"#utility.yul\":2383:2545   */\n    tag_141:\n        /* \"#utility.yul\":2397:2403   */\n      dup2\n        /* \"#utility.yul\":2394:2395   */\n      dup2\n        /* \"#utility.yul\":2391:2404   */\n      lt\n        /* \"#utility.yul\":2383:2545   */\n      iszero\n      tag_143\n      jumpi\n        /* \"#utility.yul\":2459:2463   */\n      0x20\n        /* \"#utility.yul\":2515:2528   */\n      dup2\n      dup6\n      add\n        /* \"#utility.yul\":2511:2533   */\n      dup2\n      add\n        /* \"#utility.yul\":2505:2534   */\n      mload\n        /* \"#utility.yul\":2487:2498   */\n      dup7\n      dup4\n      add\n        /* \"#utility.yul\":2483:2503   */\n      dup3\n      add\n        /* \"#utility.yul\":2476:2535   */\n      mstore\n        /* \"#utility.yul\":2412:2424   */\n      add\n        /* \"#utility.yul\":2383:2545   */\n      jump(tag_141)\n    tag_143:\n        /* \"#utility.yul\":2387:2390   */\n      pop\n        /* \"#utility.yul\":2590:2591   */\n      0x00\n        /* \"#utility.yul\":2583:2587   */\n      0x20\n        /* \"#utility.yul\":2574:2580   */\n      dup3\n        /* \"#utility.yul\":2569:2572   */\n      dup7\n        /* \"#utility.yul\":2565:2581   */\n      add\n        /* \"#utility.yul\":2561:2588   */\n      add\n        /* \"#utility.yul\":2554:2592   */\n      mstore\n        /* \"#utility.yul\":2653:2657   */\n      0x20\n        /* \"#utility.yul\":2646:2648   */\n      0x1f\n        /* \"#utility.yul\":2642:2649   */\n      not\n        /* \"#utility.yul\":2637:2639   */\n      0x1f\n        /* \"#utility.yul\":2629:2635   */\n      dup4\n        /* \"#utility.yul\":2625:2640   */\n      add\n        /* \"#utility.yul\":2621:2650   */\n      and\n        /* \"#utility.yul\":2616:2619   */\n      dup6\n        /* \"#utility.yul\":2612:2651   */\n      add\n        /* \"#utility.yul\":2608:2658   */\n      add\n        /* \"#utility.yul\":2601:2658   */\n      swap2\n      pop\n      pop\n        /* \"#utility.yul\":2241:2664   */\n      swap3\n      swap2\n      pop\n      pop\n      jump\t// out\n        /* \"#utility.yul\":2669:3245   */\n    tag_48:\n        /* \"#utility.yul\":2922:2925   */\n      0x80\n        /* \"#utility.yul\":2911:2920   */\n      dup2\n        /* \"#utility.yul\":2904:2926   */\n      mstore\n        /* \"#utility.yul\":2885:2889   */\n      0x00\n        /* \"#utility.yul\":2949:2995   */\n      tag_145\n        /* \"#utility.yul\":2990:2993   */\n      0x80\n        /* \"#utility.yul\":2979:2988   */\n      dup4\n        /* \"#utility.yul\":2975:2994   */\n      add\n        /* \"#utility.yul\":2967:2973   */\n      dup8\n        /* \"#utility.yul\":2949:2995   */\n      tag_114\n      jump\t// in\n    tag_145:\n      sub(exp(0x02, 0xa0), 0x01)\n        /* \"#utility.yul\":3035:3041   */\n      dup7\n        /* \"#utility.yul\":3031:3086   */\n      and\n        /* \"#utility.yul\":3026:3028   */\n      0x20\n        /* \"#utility.yul\":3015:3024   */\n      dup5\n        /* \"#utility.yul\":3011:3029   */\n      add\n        /* \"#utility.yul\":3004:3087   */\n      mstore\n        /* \"#utility.yul\":3123:3129   */\n      dup5\n        /* \"#utility.yul\":3118:3120   */\n      0x40\n        /* \"#utility.yul\":3107:3116   */\n      dup5\n        /* \"#utility.yul\":3103:3121   */\n      add\n        /* \"#utility.yul\":3096:3130   */\n      mstore\n        /* \"#utility.yul\":3178:3187   */\n      dup3\n        /* \"#utility.yul\":3170:3176   */\n      dup2\n        /* \"#utility.yul\":3166:3188   */\n      sub\n        /* \"#utility.yul\":3161:3163   */\n      0x60\n        /* \"#utility.yul\":3150:3159   */\n      dup5\n        /* \"#utility.yul\":3146:3164   */\n      add\n        /* \"#utility.yul\":3139:3189   */\n      mstore\n        /* \"#utility.yul\":3206:3239   */\n      tag_146\n        /* \"#utility.yul\":3232:3238   */\n      dup2\n        /* \"#utility.yul\":3224:3230   */\n      dup6\n        /* \"#utility.yul\":3206:3239   */\n      tag_114\n      jump\t// in\n    tag_146:\n        /* \"#utility.yul\":3198:3239   */\n      swap8\n        /* \"#utility.yul\":2669:3245   */\n      swap7\n      pop\n      pop\n      pop\n      pop\n      pop\n      pop\n      pop\n      jump\t// out\n        /* \"#utility.yul\":3250:3687   */\n    tag_85:\n        /* \"#utility.yul\":3335:3336   */\n      0x02\n        /* \"#utility.yul\":3325:3337   */\n      dup2\n      div\n        /* \"#utility.yul\":3382:3383   */\n      0x01\n        /* \"#utility.yul\":3372:3384   */\n      dup3\n      and\n      dup1\n        /* \"#utility.yul\":3393:3454   */\n      tag_148\n      jumpi\n        /* \"#utility.yul\":3447:3451   */\n      0x7f\n        /* \"#utility.yul\":3439:3445   */\n      dup3\n        /* \"#utility.yul\":3435:3452   */\n      and\n        /* \"#utility.yul\":3425:3452   */\n      swap2\n      pop\n        /* \"#utility.yul\":3393:3454   */\n    tag_148:\n        /* \"#utility.yul\":3500:3502   */\n      0x20\n        /* \"#utility.yul\":3492:3498   */\n      dup3\n        /* \"#utility.yul\":3489:3503   */\n      lt\n        /* \"#utility.yul\":3469:3487   */\n      dup2\n        /* \"#utility.yul\":3466:3504   */\n      sub\n        /* \"#utility.yul\":3463:3681   */\n      tag_149\n      jumpi\n        /* \"#utility.yul\":3537:3614   */\n      0x4e487b7100000000000000000000000000000000000000000000000000000000\n        /* \"#utility.yul\":3534:3535   */\n      0x00\n        /* \"#utility.yul\":3527:3615   */\n      mstore\n        /* \"#utility.yul\":3638:3642   */\n      0x22\n        /* \"#utility.yul\":3635:3636   */\n      0x04\n        /* \"#utility.yul\":3628:3643   */\n      mstore\n        /* \"#utility.yul\":3666:3670   */\n      0x24\n        /* \"#utility.yul\":3663:3664   */\n      0x00\n        /* \"#utility.yul\":3656:3671   */\n      revert\n        /* \"#utility.yul\":3463:3681   */\n    tag_149:\n      pop\n        /* \"#utility.yul\":3250:3687   */\n      swap2\n      swap1\n      pop\n      jump\t// out\n        /* \"#utility.yul\":3818:4369   */\n    tag_116:\n        /* \"#utility.yul\":3920:3922   */\n      0x1f\n        /* \"#utility.yul\":3915:3918   */\n      dup3\n        /* \"#utility.yul\":3912:3923   */\n      gt\n        /* \"#utility.yul\":3909:4363   */\n      iszero\n      tag_152\n      jumpi\n        /* \"#utility.yul\":3956:3957   */\n      0x00\n        /* \"#utility.yul\":3981:3986   */\n      dup2\n        /* \"#utility.yul\":3977:3979   */\n      dup2\n        /* \"#utility.yul\":3970:3987   */\n      mstore\n        /* \"#utility.yul\":4026:4030   */\n      0x20\n        /* \"#utility.yul\":4022:4024   */\n      dup2\n        /* \"#utility.yul\":4012:4031   */\n      keccak256\n        /* \"#utility.yul\":4098:4102   */\n      0x20\n        /* \"#utility.yul\":4093:4095   */\n      0x1f\n        /* \"#utility.yul\":4081:4091   */\n      dup7\n        /* \"#utility.yul\":4077:4096   */\n      add\n        /* \"#utility.yul\":4073:4103   */\n      div\n        /* \"#utility.yul\":4067:4071   */\n      dup2\n        /* \"#utility.yul\":4063:4104   */\n      add\n        /* \"#utility.yul\":4135:4139   */\n      0x20\n        /* \"#utility.yul\":4123:4133   */\n      dup7\n        /* \"#utility.yul\":4120:4140   */\n      lt\n        /* \"#utility.yul\":4117:4164   */\n      iszero\n      tag_153\n      jumpi\n      pop\n        /* \"#utility.yul\":4158:4162   */\n      dup1\n        /* \"#utility.yul\":4117:4164   */\n    tag_153:\n        /* \"#utility.yul\":4215:4219   */\n      0x20\n        /* \"#utility.yul\":4210:4212   */\n      0x1f\n        /* \"#utility.yul\":4205:4208   */\n      dup7\n        /* \"#utility.yul\":4201:4213   */\n      add\n        /* \"#utility.yul\":4197:4220   */\n      div\n        /* \"#utility.yul\":4191:4195   */\n      dup3\n        /* \"#utility.yul\":4187:4221   */\n      add\n        /* \"#utility.yul\":4177:4221   */\n      swap2\n      pop\n        /* \"#utility.yul\":4271:4353   */\n    tag_154:\n        /* \"#utility.yul\":4289:4291   */\n      dup2\n        /* \"#utility.yul\":4282:4287   */\n      dup2\n        /* \"#utility.yul\":4279:4292   */\n      lt\n        /* \"#utility.yul\":4271:4353   */\n      iszero\n      tag_156\n      jumpi\n        /* \"#utility.yul\":4334:4351   */\n      dup3\n      dup2\n      sstore\n        /* \"#utility.yul\":4315:4316   */\n      0x01\n        /* \"#utility.yul\":4304:4317   */\n      add\n        /* \"#utility.yul\":4271:4353   */\n      jump(tag_154)\n    tag_156:\n        /* \"#utility.yul\":4275:4278   */\n      pop\n      pop\n      pop\n        /* \"#utility.yul\":3909:4363   */\n    tag_152:\n        /* \"#utility.yul\":3818:4369   */\n      pop\n      pop\n      pop\n      jump\t// out\n        /* \"#utility.yul\":4553:5912   */\n    tag_64:\n        /* \"#utility.yul\":4679:4682   */\n      dup2\n        /* \"#utility.yul\":4673:4683   */\n      mload\n        /* \"#utility.yul\":4706:4724   */\n      0xffffffffffffffff\n        /* \"#utility.yul\":4698:4704   */\n      dup2\n        /* \"#utility.yul\":4695:4725   */\n      gt\n        /* \"#utility.yul\":4692:4748   */\n      iszero\n      tag_160\n      jumpi\n        /* \"#utility.yul\":4728:4746   */\n      tag_160\n      tag_111\n      jump\t// in\n    tag_160:\n        /* \"#utility.yul\":4757:4854   */\n      tag_161\n        /* \"#utility.yul\":4847:4853   */\n      dup2\n        /* \"#utility.yul\":4807:4845   */\n      tag_162\n        /* \"#utility.yul\":4839:4843   */\n      dup5\n        /* \"#utility.yul\":4833:4844   */\n      sload\n        /* \"#utility.yul\":4807:4845   */\n      tag_85\n      jump\t// in\n    tag_162:\n        /* \"#utility.yul\":4801:4805   */\n      dup5\n        /* \"#utility.yul\":4757:4854   */\n      tag_116\n      jump\t// in\n    tag_161:\n        /* \"#utility.yul\":4909:4913   */\n      0x20\n      dup1\n        /* \"#utility.yul\":4973:4975   */\n      0x1f\n        /* \"#utility.yul\":4962:4976   */\n      dup4\n      gt\n        /* \"#utility.yul\":4990:4991   */\n      0x01\n        /* \"#utility.yul\":4985:5655   */\n      dup2\n      eq\n      tag_164\n      jumpi\n        /* \"#utility.yul\":5699:5700   */\n      0x00\n        /* \"#utility.yul\":5716:5722   */\n      dup5\n        /* \"#utility.yul\":5713:5802   */\n      iszero\n      tag_165\n      jumpi\n      pop\n        /* \"#utility.yul\":5768:5787   */\n      dup6\n      dup4\n      add\n        /* \"#utility.yul\":5762:5788   */\n      mload\n        /* \"#utility.yul\":5713:5802   */\n    tag_165:\n        /* \"#utility.yul\":4534:4535   */\n      0x02\n        /* \"#utility.yul\":4530:4541   */\n      dup1\n      dup7\n      mul\n        /* \"#utility.yul\":4517:4518   */\n      0x08\n        /* \"#utility.yul\":4513:4524   */\n      dup8\n      mul\n        /* \"#utility.yul\":4506:4525   */\n      swap1\n      swap2\n      exp\n      not(0x00)\n        /* \"#utility.yul\":4494:4526   */\n      div\n        /* \"#utility.yul\":4490:4527   */\n      not\n        /* \"#utility.yul\":4480:4528   */\n      dup3\n      and\n        /* \"#utility.yul\":4477:4542   */\n      or\n        /* \"#utility.yul\":5822:5826   */\n      dup7\n        /* \"#utility.yul\":5815:5896   */\n      sstore\n      pop\n        /* \"#utility.yul\":4955:5906   */\n      jump(tag_156)\n        /* \"#utility.yul\":4985:5655   */\n    tag_164:\n        /* \"#utility.yul\":3765:3766   */\n      0x00\n        /* \"#utility.yul\":3758:3772   */\n      dup6\n      dup2\n      mstore\n        /* \"#utility.yul\":3802:3806   */\n      0x20\n        /* \"#utility.yul\":3789:3807   */\n      dup2\n      keccak256\n      not(0x1f)\n        /* \"#utility.yul\":5021:5041   */\n      dup7\n      and\n      swap2\n        /* \"#utility.yul\":5139:5375   */\n    tag_168:\n        /* \"#utility.yul\":5153:5160   */\n      dup3\n        /* \"#utility.yul\":5150:5151   */\n      dup2\n        /* \"#utility.yul\":5147:5161   */\n      lt\n        /* \"#utility.yul\":5139:5375   */\n      iszero\n      tag_170\n      jumpi\n        /* \"#utility.yul\":5242:5261   */\n      dup9\n      dup7\n      add\n        /* \"#utility.yul\":5236:5262   */\n      mload\n        /* \"#utility.yul\":5221:5263   */\n      dup3\n      sstore\n        /* \"#utility.yul\":5334:5361   */\n      swap5\n      dup5\n      add\n      swap5\n        /* \"#utility.yul\":5302:5303   */\n      0x01\n        /* \"#utility.yul\":5290:5304   */\n      swap1\n      swap2\n      add\n      swap1\n        /* \"#utility.yul\":5169:5188   */\n      dup5\n      add\n        /* \"#utility.yul\":5139:5375   */\n      jump(tag_168)\n    tag_170:\n        /* \"#utility.yul\":5143:5146   */\n      pop\n        /* \"#utility.yul\":5403:5409   */\n      dup6\n        /* \"#utility.yul\":5394:5401   */\n      dup3\n        /* \"#utility.yul\":5391:5410   */\n      lt\n        /* \"#utility.yul\":5388:5596   */\n      iszero\n      tag_171\n      jumpi\n        /* \"#utility.yul\":5464:5483   */\n      dup8\n      dup6\n      add\n        /* \"#utility.yul\":5458:5484   */\n      mload\n        /* \"#utility.yul\":5558:5559   */\n      0x08\n        /* \"#utility.yul\":5573:5575   */\n      0x1f\n        /* \"#utility.yul\":5561:5576   */\n      dup9\n      and\n        /* \"#utility.yul\":5554:5577   */\n      mul\n        /* \"#utility.yul\":5551:5552   */\n      0x02\n        /* \"#utility.yul\":5547:5578   */\n      exp\n      not(0x00)\n        /* \"#utility.yul\":5535:5579   */\n      div\n        /* \"#utility.yul\":5531:5580   */\n      not\n        /* \"#utility.yul\":5516:5581   */\n      and\n        /* \"#utility.yul\":5501:5582   */\n      dup2\n      sstore\n        /* \"#utility.yul\":5388:5596   */\n    tag_171:\n      pop\n      pop\n      pop\n      pop\n      pop\n        /* \"#utility.yul\":5638:5639   */\n      0x02\n        /* \"#utility.yul\":5626:5640   */\n      mul\n        /* \"#utility.yul\":5642:5643   */\n      0x01\n        /* \"#utility.yul\":5622:5644   */\n      add\n        /* \"#utility.yul\":5609:5645   */\n      swap1\n      sstore\n      pop\n        /* \"#utility.yul\":4553:5912   */\n      jump\t// out\n\n    auxdata: 0xa2646970667358221220702a237785937d0a86e3c4c8fda0b2f3285ec40821d74031ce0f36e69aeb38e564736f6c63430008110033\n}\n",
				"bytecode": {
					"linkReferences": {},
					"object": "608060405260405162000e4738038062000e47833981016040819052620000269162000149565b82826000620000368382620002eb565b5060018054600160a060020a031916600160a060020a0392909216919091179055506200007e6200006f640100000000620000a7810204565b640100000000620000ab810204565b60058054600160a060020a031916600160a060020a039290921691909117905550620003bd9050565b3390565b60028054600160a060020a03838116600160a060020a0319831681179093556040519116919082907f8be0079c531659141344cd1fd0a4f28419497f9722a3daafe3b4186f6b6457e090600090a35050565b7f4e487b7100000000000000000000000000000000000000000000000000000000600052604160045260246000fd5b8051600160a060020a03811681146200014457600080fd5b919050565b6000806000606084860312156200015f57600080fd5b83516001604060020a03808211156200017757600080fd5b818601915086601f8301126200018c57600080fd5b815181811115620001a157620001a1620000fd565b604051601f8201601f19908116603f01168101908382118183101715620001cc57620001cc620000fd565b81604052828152602093508984848701011115620001e957600080fd5b600091505b828210156200020d5784820184015181830185015290830190620001ee565b6000848483010152809750505050620002288187016200012c565b935050506200023a604085016200012c565b90509250925092565b6002810460018216806200025857607f821691505b60208210810362000292577f4e487b7100000000000000000000000000000000000000000000000000000000600052602260045260246000fd5b50919050565b601f821115620002e6576000818152602081206020601f86010481016020861015620002c15750805b6020601f860104820191505b81811015620002e257828155600101620002cd565b5050505b505050565b81516001604060020a03811115620003075762000307620000fd565b6200031f8162000318845462000243565b8462000298565b602080601f8311600181146200035b57600084156200033e5750858301515b60028086026008870290910a6000190419821617865550620002e2565b600085815260208120601f198616915b828110156200038c578886015182559484019460019091019084016200036b565b5085821015620003ad57878501516008601f88160260020a60001904191681555b5050505050600202600101905550565b610a7a80620003cd6000396000f3fe6080604052600436106100a1576000357c010000000000000000000000000000000000000000000000000000000090048063d0e30db011610073578063d0e30db01461013a578063d4e9329214610142578063da6e75c21461014e578063e5cdb48814610163578063f2fde38b1461019357005b80631581b600146100aa578063715018a6146100e75780638da5cb5b146100fc578063cc0395bf1461011a57005b366100a857005b005b3480156100b657600080fd5b506001546100ca90600160a060020a031681565b604051600160a060020a0390911681526020015b60405180910390f35b3480156100f357600080fd5b506100a86101b3565b34801561010857600080fd5b50600254600160a060020a03166100ca565b34801561012657600080fd5b506100a86101353660046107b1565b6101c7565b6100a86102b2565b3480156100a857600080fd5b34801561015a57600080fd5b506100a86102e7565b34801561016f57600080fd5b5061018361017e36600461082f565b61042e565b6040516100de9493929190610897565b34801561019f57600080fd5b506100a86101ae36600461082f565b61058a565b6101bb61061d565b6101c5600061067a565b565b6101cf61061d565b6040805160a081018252858152600160a060020a038086166020808401829052838501879052606084018690526005549092166080840152600090815260069091529190912081518190610223908261097e565b50602082015160018201805473ffffffffffffffffffffffffffffffffffffffff1916600160a060020a039092169190911790556040820151600282015560608201516003820190610275908261097e565b50608091909101516004909101805473ffffffffffffffffffffffffffffffffffffffff1916600160a060020a0390921691909117905550505050565b6040513481527f0a34e3d4f1e6b837dbce1011b61499fa1a483a0abee6a7a6697660b4b2d971329060200160405180910390a1565b600354303110156103425760405160e560020a62461bcd02815260206004820152601460248201527f466f6e646f7320696e737566696369656e74657300000000000000000000000060448201526064015b60405180910390fd5b600554600354604051600092600160a060020a031691908381818185875af1925050503d8060008114610391576040519150601f19603f3d011682016040523d82523d6000602084013e610396565b606091505b50909150506001811515146103f05760405160e560020a62461bcd02815260206004820152601660248201527f46616c6c6f206c61207472616e73666572656e636961000000000000000000006044820152606401610339565b7f56e1cf8a52e84572ff49b950fa9a1a1867319bf8eba3bf8c77bc4354678a34c560035460405161042391815260200190565b60405180910390a150565b600160a060020a0380821660009081526006602052604081206001810154600282015482546060958594879490939116916003840190849061046f906108dc565b80601f016020809104026020016040519081016040528092919081815260200182805461049b906108dc565b80156104e85780601f106104bd576101008083540402835291602001916104e8565b820191906000526020600020905b8154815290600101906020018083116104cb57829003601f168201915b505050505093508080546104fb906108dc565b80601f0160208091040260200160405190810160405280929190818152602001828054610527906108dc565b80156105745780601f1061054957610100808354040283529160200191610574565b820191906000526020600020905b81548152906001019060200180831161055757829003601f168201915b5050505050905093509350935093509193509193565b61059261061d565b600160a060020a0381166106115760405160e560020a62461bcd02815260206004820152602660248201527f4f776e61626c653a206e6577206f776e657220697320746865207a65726f206160448201527f64647265737300000000000000000000000000000000000000000000000000006064820152608401610339565b61061a8161067a565b50565b600254600160a060020a031633146101c55760405160e560020a62461bcd02815260206004820181905260248201527f4f776e61626c653a2063616c6c6572206973206e6f7420746865206f776e65726044820152606401610339565b60028054600160a060020a0383811673ffffffffffffffffffffffffffffffffffffffff19831681179093556040519116919082907f8be0079c531659141344cd1fd0a4f28419497f9722a3daafe3b4186f6b6457e090600090a35050565b7f4e487b7100000000000000000000000000000000000000000000000000000000600052604160045260246000fd5b600082601f83011261071957600080fd5b813567ffffffffffffffff80821115610734576107346106d9565b604051601f8301601f19908116603f0116810190828211818310171561075c5761075c6106d9565b8160405283815286602085880101111561077557600080fd5b836020870160208301376000602085830101528094505050505092915050565b8035600160a060020a03811681146107ac57600080fd5b919050565b600080600080608085870312156107c757600080fd5b843567ffffffffffffffff808211156107df57600080fd5b6107eb88838901610708565b95506107f960208801610795565b945060408701359350606087013591508082111561081657600080fd5b5061082387828801610708565b91505092959194509250565b60006020828403121561084157600080fd5b61084a82610795565b9392505050565b6000815180845260005b818110156108775760208185018101518683018201520161085b565b506000602082860101526020601f19601f83011685010191505092915050565b6080815260006108aa6080830187610851565b600160a060020a038616602084015284604084015282810360608401526108d18185610851565b979650505050505050565b6002810460018216806108f057607f821691505b602082108103610929577f4e487b7100000000000000000000000000000000000000000000000000000000600052602260045260246000fd5b50919050565b601f821115610979576000818152602081206020601f860104810160208610156109565750805b6020601f860104820191505b8181101561097557828155600101610962565b5050505b505050565b815167ffffffffffffffff811115610998576109986106d9565b6109ac816109a684546108dc565b8461092f565b602080601f8311600181146109e557600084156109c95750858301515b60028086026008870290910a6000190419821617865550610975565b600085815260208120601f198616915b82811015610a14578886015182559484019460019091019084016109f5565b5085821015610a3457878501516008601f88160260020a60001904191681555b505050505060020260010190555056fea2646970667358221220702a237785937d0a86e3c4c8fda0b2f3285ec40821d74031ce0f36e69aeb38e564736f6c63430008110033",
					"opcodes": "PUSH1 0x80 PUSH1 0x40 MSTORE PUSH1 0x40 MLOAD PUSH3 0xE47 CODESIZE SUB DUP1 PUSH3 0xE47 DUP4 CODECOPY DUP2 ADD PUSH1 0x40 DUP2 SWAP1 MSTORE PUSH3 0x26 SWAP2 PUSH3 0x149 JUMP JUMPDEST DUP3 DUP3 PUSH1 0x0 PUSH3 0x36 DUP4 DUP3 PUSH3 0x2EB JUMP JUMPDEST POP PUSH1 0x1 DUP1 SLOAD PUSH1 0x1 PUSH1 0xA0 PUSH1 0x2 EXP SUB NOT AND PUSH1 0x1 PUSH1 0xA0 PUSH1 0x2 EXP SUB SWAP3 SWAP1 SWAP3 AND SWAP2 SWAP1 SWAP2 OR SWAP1 SSTORE POP PUSH3 0x7E PUSH3 0x6F PUSH5 0x100000000 PUSH3 0xA7 DUP2 MUL DIV JUMP JUMPDEST PUSH5 0x100000000 PUSH3 0xAB DUP2 MUL DIV JUMP JUMPDEST PUSH1 0x5 DUP1 SLOAD PUSH1 0x1 PUSH1 0xA0 PUSH1 0x2 EXP SUB NOT AND PUSH1 0x1 PUSH1 0xA0 PUSH1 0x2 EXP SUB SWAP3 SWAP1 SWAP3 AND SWAP2 SWAP1 SWAP2 OR SWAP1 SSTORE POP PUSH3 0x3BD SWAP1 POP JUMP JUMPDEST CALLER SWAP1 JUMP JUMPDEST PUSH1 0x2 DUP1 SLOAD PUSH1 0x1 PUSH1 0xA0 PUSH1 0x2 EXP SUB DUP4 DUP2 AND PUSH1 0x1 PUSH1 0xA0 PUSH1 0x2 EXP SUB NOT DUP4 AND DUP2 OR SWAP1 SWAP4 SSTORE PUSH1 0x40 MLOAD SWAP2 AND SWAP2 SWAP1 DUP3 SWAP1 PUSH32 0x8BE0079C531659141344CD1FD0A4F28419497F9722A3DAAFE3B4186F6B6457E0 SWAP1 PUSH1 0x0 SWAP1 LOG3 POP POP JUMP JUMPDEST PUSH32 0x4E487B7100000000000000000000000000000000000000000000000000000000 PUSH1 0x0 MSTORE PUSH1 0x41 PUSH1 0x4 MSTORE PUSH1 0x24 PUSH1 0x0 REVERT JUMPDEST DUP1 MLOAD PUSH1 0x1 PUSH1 0xA0 PUSH1 0x2 EXP SUB DUP2 AND DUP2 EQ PUSH3 0x144 JUMPI PUSH1 0x0 DUP1 REVERT JUMPDEST SWAP2 SWAP1 POP JUMP JUMPDEST PUSH1 0x0 DUP1 PUSH1 0x0 PUSH1 0x60 DUP5 DUP7 SUB SLT ISZERO PUSH3 0x15F JUMPI PUSH1 0x0 DUP1 REVERT JUMPDEST DUP4 MLOAD PUSH1 0x1 PUSH1 0x40 PUSH1 0x2 EXP SUB DUP1 DUP3 GT ISZERO PUSH3 0x177 JUMPI PUSH1 0x0 DUP1 REVERT JUMPDEST DUP2 DUP7 ADD SWAP2 POP DUP7 PUSH1 0x1F DUP4 ADD SLT PUSH3 0x18C JUMPI PUSH1 0x0 DUP1 REVERT JUMPDEST DUP2 MLOAD DUP2 DUP2 GT ISZERO PUSH3 0x1A1 JUMPI PUSH3 0x1A1 PUSH3 0xFD JUMP JUMPDEST PUSH1 0x40 MLOAD PUSH1 0x1F DUP3 ADD PUSH1 0x1F NOT SWAP1 DUP2 AND PUSH1 0x3F ADD AND DUP2 ADD SWAP1 DUP4 DUP3 GT DUP2 DUP4 LT OR ISZERO PUSH3 0x1CC JUMPI PUSH3 0x1CC PUSH3 0xFD JUMP JUMPDEST DUP2 PUSH1 0x40 MSTORE DUP3 DUP2 MSTORE PUSH1 0x20 SWAP4 POP DUP10 DUP5 DUP5 DUP8 ADD ADD GT ISZERO PUSH3 0x1E9 JUMPI PUSH1 0x0 DUP1 REVERT JUMPDEST PUSH1 0x0 SWAP2 POP JUMPDEST DUP3 DUP3 LT ISZERO PUSH3 0x20D JUMPI DUP5 DUP3 ADD DUP5 ADD MLOAD DUP2 DUP4 ADD DUP6 ADD MSTORE SWAP1 DUP4 ADD SWAP1 PUSH3 0x1EE JUMP JUMPDEST PUSH1 0x0 DUP5 DUP5 DUP4 ADD ADD MSTORE DUP1 SWAP8 POP POP POP POP PUSH3 0x228 DUP2 DUP8 ADD PUSH3 0x12C JUMP JUMPDEST SWAP4 POP POP POP PUSH3 0x23A PUSH1 0x40 DUP6 ADD PUSH3 0x12C JUMP JUMPDEST SWAP1 POP SWAP3 POP SWAP3 POP SWAP3 JUMP JUMPDEST PUSH1 0x2 DUP2 DIV PUSH1 0x1 DUP3 AND DUP1 PUSH3 0x258 JUMPI PUSH1 0x7F DUP3 AND SWAP2 POP JUMPDEST PUSH1 0x20 DUP3 LT DUP2 SUB PUSH3 0x292 JUMPI PUSH32 0x4E487B7100000000000000000000000000000000000000000000000000000000 PUSH1 0x0 MSTORE PUSH1 0x22 PUSH1 0x4 MSTORE PUSH1 0x24 PUSH1 0x0 REVERT JUMPDEST POP SWAP2 SWAP1 POP JUMP JUMPDEST PUSH1 0x1F DUP3 GT ISZERO PUSH3 0x2E6 JUMPI PUSH1 0x0 DUP2 DUP2 MSTORE PUSH1 0x20 DUP2 KECCAK256 PUSH1 0x20 PUSH1 0x1F DUP7 ADD DIV DUP2 ADD PUSH1 0x20 DUP7 LT ISZERO PUSH3 0x2C1 JUMPI POP DUP1 JUMPDEST PUSH1 0x20 PUSH1 0x1F DUP7 ADD DIV DUP3 ADD SWAP2 POP JUMPDEST DUP2 DUP2 LT ISZERO PUSH3 0x2E2 JUMPI DUP3 DUP2 SSTORE PUSH1 0x1 ADD PUSH3 0x2CD JUMP JUMPDEST POP POP POP JUMPDEST POP POP POP JUMP JUMPDEST DUP2 MLOAD PUSH1 0x1 PUSH1 0x40 PUSH1 0x2 EXP SUB DUP2 GT ISZERO PUSH3 0x307 JUMPI PUSH3 0x307 PUSH3 0xFD JUMP JUMPDEST PUSH3 0x31F DUP2 PUSH3 0x318 DUP5 SLOAD PUSH3 0x243 JUMP JUMPDEST DUP5 PUSH3 0x298 JUMP JUMPDEST PUSH1 0x20 DUP1 PUSH1 0x1F DUP4 GT PUSH1 0x1 DUP2 EQ PUSH3 0x35B JUMPI PUSH1 0x0 DUP5 ISZERO PUSH3 0x33E JUMPI POP DUP6 DUP4 ADD MLOAD JUMPDEST PUSH1 0x2 DUP1 DUP7 MUL PUSH1 0x8 DUP8 MUL SWAP1 SWAP2 EXP PUSH1 0x0 NOT DIV NOT DUP3 AND OR DUP7 SSTORE POP PUSH3 0x2E2 JUMP JUMPDEST PUSH1 0x0 DUP6 DUP2 MSTORE PUSH1 0x20 DUP2 KECCAK256 PUSH1 0x1F NOT DUP7 AND SWAP2 JUMPDEST DUP3 DUP2 LT ISZERO PUSH3 0x38C JUMPI DUP9 DUP7 ADD MLOAD DUP3 SSTORE SWAP5 DUP5 ADD SWAP5 PUSH1 0x1 SWAP1 SWAP2 ADD SWAP1 DUP5 ADD PUSH3 0x36B JUMP JUMPDEST POP DUP6 DUP3 LT ISZERO PUSH3 0x3AD JUMPI DUP8 DUP6 ADD MLOAD PUSH1 0x8 PUSH1 0x1F DUP9 AND MUL PUSH1 0x2 EXP PUSH1 0x0 NOT DIV NOT AND DUP2 SSTORE JUMPDEST POP POP POP POP POP PUSH1 0x2 MUL PUSH1 0x1 ADD SWAP1 SSTORE POP JUMP JUMPDEST PUSH2 0xA7A DUP1 PUSH3 0x3CD PUSH1 0x0 CODECOPY PUSH1 0x0 RETURN INVALID PUSH1 0x80 PUSH1 0x40 MSTORE PUSH1 0x4 CALLDATASIZE LT PUSH2 0xA1 JUMPI PUSH1 0x0 CALLDATALOAD PUSH29 0x100000000000000000000000000000000000000000000000000000000 SWAP1 DIV DUP1 PUSH4 0xD0E30DB0 GT PUSH2 0x73 JUMPI DUP1 PUSH4 0xD0E30DB0 EQ PUSH2 0x13A JUMPI DUP1 PUSH4 0xD4E93292 EQ PUSH2 0x142 JUMPI DUP1 PUSH4 0xDA6E75C2 EQ PUSH2 0x14E JUMPI DUP1 PUSH4 0xE5CDB488 EQ PUSH2 0x163 JUMPI DUP1 PUSH4 0xF2FDE38B EQ PUSH2 0x193 JUMPI STOP JUMPDEST DUP1 PUSH4 0x1581B600 EQ PUSH2 0xAA JUMPI DUP1 PUSH4 0x715018A6 EQ PUSH2 0xE7 JUMPI DUP1 PUSH4 0x8DA5CB5B EQ PUSH2 0xFC JUMPI DUP1 PUSH4 0xCC0395BF EQ PUSH2 0x11A JUMPI STOP JUMPDEST CALLDATASIZE PUSH2 0xA8 JUMPI STOP JUMPDEST STOP JUMPDEST CALLVALUE DUP1 ISZERO PUSH2 0xB6 JUMPI PUSH1 0x0 DUP1 REVERT JUMPDEST POP PUSH1 0x1 SLOAD PUSH2 0xCA SWAP1 PUSH1 0x1 PUSH1 0xA0 PUSH1 0x2 EXP SUB AND DUP2 JUMP JUMPDEST PUSH1 0x40 MLOAD PUSH1 0x1 PUSH1 0xA0 PUSH1 0x2 EXP SUB SWAP1 SWAP2 AND DUP2 MSTORE PUSH1 0x20 ADD JUMPDEST PUSH1 0x40 MLOAD DUP1 SWAP2 SUB SWAP1 RETURN JUMPDEST CALLVALUE DUP1 ISZERO PUSH2 0xF3 JUMPI PUSH1 0x0 DUP1 REVERT JUMPDEST POP PUSH2 0xA8 PUSH2 0x1B3 JUMP JUMPDEST CALLVALUE DUP1 ISZERO PUSH2 0x108 JUMPI PUSH1 0x0 DUP1 REVERT JUMPDEST POP PUSH1 0x2 SLOAD PUSH1 0x1 PUSH1 0xA0 PUSH1 0x2 EXP SUB AND PUSH2 0xCA JUMP JUMPDEST CALLVALUE DUP1 ISZERO PUSH2 0x126 JUMPI PUSH1 0x0 DUP1 REVERT JUMPDEST POP PUSH2 0xA8 PUSH2 0x135 CALLDATASIZE PUSH1 0x4 PUSH2 0x7B1 JUMP JUMPDEST PUSH2 0x1C7 JUMP JUMPDEST PUSH2 0xA8 PUSH2 0x2B2 JUMP JUMPDEST CALLVALUE DUP1 ISZERO PUSH2 0xA8 JUMPI PUSH1 0x0 DUP1 REVERT JUMPDEST CALLVALUE DUP1 ISZERO PUSH2 0x15A JUMPI PUSH1 0x0 DUP1 REVERT JUMPDEST POP PUSH2 0xA8 PUSH2 0x2E7 JUMP JUMPDEST CALLVALUE DUP1 ISZERO PUSH2 0x16F JUMPI PUSH1 0x0 DUP1 REVERT JUMPDEST POP PUSH2 0x183 PUSH2 0x17E CALLDATASIZE PUSH1 0x4 PUSH2 0x82F JUMP JUMPDEST PUSH2 0x42E JUMP JUMPDEST PUSH1 0x40 MLOAD PUSH2 0xDE SWAP5 SWAP4 SWAP3 SWAP2 SWAP1 PUSH2 0x897 JUMP JUMPDEST CALLVALUE DUP1 ISZERO PUSH2 0x19F JUMPI PUSH1 0x0 DUP1 REVERT JUMPDEST POP PUSH2 0xA8 PUSH2 0x1AE CALLDATASIZE PUSH1 0x4 PUSH2 0x82F JUMP JUMPDEST PUSH2 0x58A JUMP JUMPDEST PUSH2 0x1BB PUSH2 0x61D JUMP JUMPDEST PUSH2 0x1C5 PUSH1 0x0 PUSH2 0x67A JUMP JUMPDEST JUMP JUMPDEST PUSH2 0x1CF PUSH2 0x61D JUMP JUMPDEST PUSH1 0x40 DUP1 MLOAD PUSH1 0xA0 DUP2 ADD DUP3 MSTORE DUP6 DUP2 MSTORE PUSH1 0x1 PUSH1 0xA0 PUSH1 0x2 EXP SUB DUP1 DUP7 AND PUSH1 0x20 DUP1 DUP5 ADD DUP3 SWAP1 MSTORE DUP4 DUP6 ADD DUP8 SWAP1 MSTORE PUSH1 0x60 DUP5 ADD DUP7 SWAP1 MSTORE PUSH1 0x5 SLOAD SWAP1 SWAP3 AND PUSH1 0x80 DUP5 ADD MSTORE PUSH1 0x0 SWAP1 DUP2 MSTORE PUSH1 0x6 SWAP1 SWAP2 MSTORE SWAP2 SWAP1 SWAP2 KECCAK256 DUP2 MLOAD DUP2 SWAP1 PUSH2 0x223 SWAP1 DUP3 PUSH2 0x97E JUMP JUMPDEST POP PUSH1 0x20 DUP3 ADD MLOAD PUSH1 0x1 DUP3 ADD DUP1 SLOAD PUSH20 0xFFFFFFFFFFFFFFFFFFFFFFFFFFFFFFFFFFFFFFFF NOT AND PUSH1 0x1 PUSH1 0xA0 PUSH1 0x2 EXP SUB SWAP1 SWAP3 AND SWAP2 SWAP1 SWAP2 OR SWAP1 SSTORE PUSH1 0x40 DUP3 ADD MLOAD PUSH1 0x2 DUP3 ADD SSTORE PUSH1 0x60 DUP3 ADD MLOAD PUSH1 0x3 DUP3 ADD SWAP1 PUSH2 0x275 SWAP1 DUP3 PUSH2 0x97E JUMP JUMPDEST POP PUSH1 0x80 SWAP2 SWAP1 SWAP2 ADD MLOAD PUSH1 0x4 SWAP1 SWAP2 ADD DUP1 SLOAD PUSH20 0xFFFFFFFFFFFFFFFFFFFFFFFFFFFFFFFFFFFFFFFF NOT AND PUSH1 0x1 PUSH1 0xA0 PUSH1 0x2 EXP SUB SWAP1 SWAP3 AND SWAP2 SWAP1 SWAP2 OR SWAP1 SSTORE POP POP POP POP JUMP JUMPDEST PUSH1 0x40 MLOAD CALLVALUE DUP2 MSTORE PUSH32 0xA34E3D4F1E6B837DBCE1011B61499FA1A483A0ABEE6A7A6697660B4B2D97132 SWAP1 PUSH1 0x20 ADD PUSH1 0x40 MLOAD DUP1 SWAP2 SUB SWAP1 LOG1 JUMP JUMPDEST PUSH1 0x3 SLOAD ADDRESS BALANCE LT ISZERO PUSH2 0x342 JUMPI PUSH1 0x40 MLOAD PUSH1 0xE5 PUSH1 0x2 EXP PUSH3 0x461BCD MUL DUP2 MSTORE PUSH1 0x20 PUSH1 0x4 DUP3 ADD MSTORE PUSH1 0x14 PUSH1 0x24 DUP3 ADD MSTORE PUSH32 0x466F6E646F7320696E737566696369656E746573000000000000000000000000 PUSH1 0x44 DUP3 ADD MSTORE PUSH1 0x64 ADD JUMPDEST PUSH1 0x40 MLOAD DUP1 SWAP2 SUB SWAP1 REVERT JUMPDEST PUSH1 0x5 SLOAD PUSH1 0x3 SLOAD PUSH1 0x40 MLOAD PUSH1 0x0 SWAP3 PUSH1 0x1 PUSH1 0xA0 PUSH1 0x2 EXP SUB AND SWAP2 SWAP1 DUP4 DUP2 DUP2 DUP2 DUP6 DUP8 GAS CALL SWAP3 POP POP POP RETURNDATASIZE DUP1 PUSH1 0x0 DUP2 EQ PUSH2 0x391 JUMPI PUSH1 0x40 MLOAD SWAP2 POP PUSH1 0x1F NOT PUSH1 0x3F RETURNDATASIZE ADD AND DUP3 ADD PUSH1 0x40 MSTORE RETURNDATASIZE DUP3 MSTORE RETURNDATASIZE PUSH1 0x0 PUSH1 0x20 DUP5 ADD RETURNDATACOPY PUSH2 0x396 JUMP JUMPDEST PUSH1 0x60 SWAP2 POP JUMPDEST POP SWAP1 SWAP2 POP POP PUSH1 0x1 DUP2 ISZERO ISZERO EQ PUSH2 0x3F0 JUMPI PUSH1 0x40 MLOAD PUSH1 0xE5 PUSH1 0x2 EXP PUSH3 0x461BCD MUL DUP2 MSTORE PUSH1 0x20 PUSH1 0x4 DUP3 ADD MSTORE PUSH1 0x16 PUSH1 0x24 DUP3 ADD MSTORE PUSH32 0x46616C6C6F206C61207472616E73666572656E63696100000000000000000000 PUSH1 0x44 DUP3 ADD MSTORE PUSH1 0x64 ADD PUSH2 0x339 JUMP JUMPDEST PUSH32 0x56E1CF8A52E84572FF49B950FA9A1A1867319BF8EBA3BF8C77BC4354678A34C5 PUSH1 0x3 SLOAD PUSH1 0x40 MLOAD PUSH2 0x423 SWAP2 DUP2 MSTORE PUSH1 0x20 ADD SWAP1 JUMP JUMPDEST PUSH1 0x40 MLOAD DUP1 SWAP2 SUB SWAP1 LOG1 POP JUMP JUMPDEST PUSH1 0x1 PUSH1 0xA0 PUSH1 0x2 EXP SUB DUP1 DUP3 AND PUSH1 0x0 SWAP1 DUP2 MSTORE PUSH1 0x6 PUSH1 0x20 MSTORE PUSH1 0x40 DUP2 KECCAK256 PUSH1 0x1 DUP2 ADD SLOAD PUSH1 0x2 DUP3 ADD SLOAD DUP3 SLOAD PUSH1 0x60 SWAP6 DUP6 SWAP5 DUP8 SWAP5 SWAP1 SWAP4 SWAP2 AND SWAP2 PUSH1 0x3 DUP5 ADD SWAP1 DUP5 SWAP1 PUSH2 0x46F SWAP1 PUSH2 0x8DC JUMP JUMPDEST DUP1 PUSH1 0x1F ADD PUSH1 0x20 DUP1 SWAP2 DIV MUL PUSH1 0x20 ADD PUSH1 0x40 MLOAD SWAP1 DUP2 ADD PUSH1 0x40 MSTORE DUP1 SWAP3 SWAP2 SWAP1 DUP2 DUP2 MSTORE PUSH1 0x20 ADD DUP3 DUP1 SLOAD PUSH2 0x49B SWAP1 PUSH2 0x8DC JUMP JUMPDEST DUP1 ISZERO PUSH2 0x4E8 JUMPI DUP1 PUSH1 0x1F LT PUSH2 0x4BD JUMPI PUSH2 0x100 DUP1 DUP4 SLOAD DIV MUL DUP4 MSTORE SWAP2 PUSH1 0x20 ADD SWAP2 PUSH2 0x4E8 JUMP JUMPDEST DUP3 ADD SWAP2 SWAP1 PUSH1 0x0 MSTORE PUSH1 0x20 PUSH1 0x0 KECCAK256 SWAP1 JUMPDEST DUP2 SLOAD DUP2 MSTORE SWAP1 PUSH1 0x1 ADD SWAP1 PUSH1 0x20 ADD DUP1 DUP4 GT PUSH2 0x4CB JUMPI DUP3 SWAP1 SUB PUSH1 0x1F AND DUP3 ADD SWAP2 JUMPDEST POP POP POP POP POP SWAP4 POP DUP1 DUP1 SLOAD PUSH2 0x4FB SWAP1 PUSH2 0x8DC JUMP JUMPDEST DUP1 PUSH1 0x1F ADD PUSH1 0x20 DUP1 SWAP2 DIV MUL PUSH1 0x20 ADD PUSH1 0x40 MLOAD SWAP1 DUP2 ADD PUSH1 0x40 MSTORE DUP1 SWAP3 SWAP2 SWAP1 DUP2 DUP2 MSTORE PUSH1 0x20 ADD DUP3 DUP1 SLOAD PUSH2 0x527 SWAP1 PUSH2 0x8DC JUMP JUMPDEST DUP1 ISZERO PUSH2 0x574 JUMPI DUP1 PUSH1 0x1F LT PUSH2 0x549 JUMPI PUSH2 0x100 DUP1 DUP4 SLOAD DIV MUL DUP4 MSTORE SWAP2 PUSH1 0x20 ADD SWAP2 PUSH2 0x574 JUMP JUMPDEST DUP3 ADD SWAP2 SWAP1 PUSH1 0x0 MSTORE PUSH1 0x20 PUSH1 0x0 KECCAK256 SWAP1 JUMPDEST DUP2 SLOAD DUP2 MSTORE SWAP1 PUSH1 0x1 ADD SWAP1 PUSH1 0x20 ADD DUP1 DUP4 GT PUSH2 0x557 JUMPI DUP3 SWAP1 SUB PUSH1 0x1F AND DUP3 ADD SWAP2 JUMPDEST POP POP POP POP POP SWAP1 POP SWAP4 POP SWAP4 POP SWAP4 POP SWAP4 POP SWAP2 SWAP4 POP SWAP2 SWAP4 JUMP JUMPDEST PUSH2 0x592 PUSH2 0x61D JUMP JUMPDEST PUSH1 0x1 PUSH1 0xA0 PUSH1 0x2 EXP SUB DUP2 AND PUSH2 0x611 JUMPI PUSH1 0x40 MLOAD PUSH1 0xE5 PUSH1 0x2 EXP PUSH3 0x461BCD MUL DUP2 MSTORE PUSH1 0x20 PUSH1 0x4 DUP3 ADD MSTORE PUSH1 0x26 PUSH1 0x24 DUP3 ADD MSTORE PUSH32 0x4F776E61626C653A206E6577206F776E657220697320746865207A65726F2061 PUSH1 0x44 DUP3 ADD MSTORE PUSH32 0x6464726573730000000000000000000000000000000000000000000000000000 PUSH1 0x64 DUP3 ADD MSTORE PUSH1 0x84 ADD PUSH2 0x339 JUMP JUMPDEST PUSH2 0x61A DUP2 PUSH2 0x67A JUMP JUMPDEST POP JUMP JUMPDEST PUSH1 0x2 SLOAD PUSH1 0x1 PUSH1 0xA0 PUSH1 0x2 EXP SUB AND CALLER EQ PUSH2 0x1C5 JUMPI PUSH1 0x40 MLOAD PUSH1 0xE5 PUSH1 0x2 EXP PUSH3 0x461BCD MUL DUP2 MSTORE PUSH1 0x20 PUSH1 0x4 DUP3 ADD DUP2 SWAP1 MSTORE PUSH1 0x24 DUP3 ADD MSTORE PUSH32 0x4F776E61626C653A2063616C6C6572206973206E6F7420746865206F776E6572 PUSH1 0x44 DUP3 ADD MSTORE PUSH1 0x64 ADD PUSH2 0x339 JUMP JUMPDEST PUSH1 0x2 DUP1 SLOAD PUSH1 0x1 PUSH1 0xA0 PUSH1 0x2 EXP SUB DUP4 DUP2 AND PUSH20 0xFFFFFFFFFFFFFFFFFFFFFFFFFFFFFFFFFFFFFFFF NOT DUP4 AND DUP2 OR SWAP1 SWAP4 SSTORE PUSH1 0x40 MLOAD SWAP2 AND SWAP2 SWAP1 DUP3 SWAP1 PUSH32 0x8BE0079C531659141344CD1FD0A4F28419497F9722A3DAAFE3B4186F6B6457E0 SWAP1 PUSH1 0x0 SWAP1 LOG3 POP POP JUMP JUMPDEST PUSH32 0x4E487B7100000000000000000000000000000000000000000000000000000000 PUSH1 0x0 MSTORE PUSH1 0x41 PUSH1 0x4 MSTORE PUSH1 0x24 PUSH1 0x0 REVERT JUMPDEST PUSH1 0x0 DUP3 PUSH1 0x1F DUP4 ADD SLT PUSH2 0x719 JUMPI PUSH1 0x0 DUP1 REVERT JUMPDEST DUP2 CALLDATALOAD PUSH8 0xFFFFFFFFFFFFFFFF DUP1 DUP3 GT ISZERO PUSH2 0x734 JUMPI PUSH2 0x734 PUSH2 0x6D9 JUMP JUMPDEST PUSH1 0x40 MLOAD PUSH1 0x1F DUP4 ADD PUSH1 0x1F NOT SWAP1 DUP2 AND PUSH1 0x3F ADD AND DUP2 ADD SWAP1 DUP3 DUP3 GT DUP2 DUP4 LT OR ISZERO PUSH2 0x75C JUMPI PUSH2 0x75C PUSH2 0x6D9 JUMP JUMPDEST DUP2 PUSH1 0x40 MSTORE DUP4 DUP2 MSTORE DUP7 PUSH1 0x20 DUP6 DUP9 ADD ADD GT ISZERO PUSH2 0x775 JUMPI PUSH1 0x0 DUP1 REVERT JUMPDEST DUP4 PUSH1 0x20 DUP8 ADD PUSH1 0x20 DUP4 ADD CALLDATACOPY PUSH1 0x0 PUSH1 0x20 DUP6 DUP4 ADD ADD MSTORE DUP1 SWAP5 POP POP POP POP POP SWAP3 SWAP2 POP POP JUMP JUMPDEST DUP1 CALLDATALOAD PUSH1 0x1 PUSH1 0xA0 PUSH1 0x2 EXP SUB DUP2 AND DUP2 EQ PUSH2 0x7AC JUMPI PUSH1 0x0 DUP1 REVERT JUMPDEST SWAP2 SWAP1 POP JUMP JUMPDEST PUSH1 0x0 DUP1 PUSH1 0x0 DUP1 PUSH1 0x80 DUP6 DUP8 SUB SLT ISZERO PUSH2 0x7C7 JUMPI PUSH1 0x0 DUP1 REVERT JUMPDEST DUP5 CALLDATALOAD PUSH8 0xFFFFFFFFFFFFFFFF DUP1 DUP3 GT ISZERO PUSH2 0x7DF JUMPI PUSH1 0x0 DUP1 REVERT JUMPDEST PUSH2 0x7EB DUP9 DUP4 DUP10 ADD PUSH2 0x708 JUMP JUMPDEST SWAP6 POP PUSH2 0x7F9 PUSH1 0x20 DUP9 ADD PUSH2 0x795 JUMP JUMPDEST SWAP5 POP PUSH1 0x40 DUP8 ADD CALLDATALOAD SWAP4 POP PUSH1 0x60 DUP8 ADD CALLDATALOAD SWAP2 POP DUP1 DUP3 GT ISZERO PUSH2 0x816 JUMPI PUSH1 0x0 DUP1 REVERT JUMPDEST POP PUSH2 0x823 DUP8 DUP3 DUP9 ADD PUSH2 0x708 JUMP JUMPDEST SWAP2 POP POP SWAP3 SWAP6 SWAP2 SWAP5 POP SWAP3 POP JUMP JUMPDEST PUSH1 0x0 PUSH1 0x20 DUP3 DUP5 SUB SLT ISZERO PUSH2 0x841 JUMPI PUSH1 0x0 DUP1 REVERT JUMPDEST PUSH2 0x84A DUP3 PUSH2 0x795 JUMP JUMPDEST SWAP4 SWAP3 POP POP POP JUMP JUMPDEST PUSH1 0x0 DUP2 MLOAD DUP1 DUP5 MSTORE PUSH1 0x0 JUMPDEST DUP2 DUP2 LT ISZERO PUSH2 0x877 JUMPI PUSH1 0x20 DUP2 DUP6 ADD DUP2 ADD MLOAD DUP7 DUP4 ADD DUP3 ADD MSTORE ADD PUSH2 0x85B JUMP JUMPDEST POP PUSH1 0x0 PUSH1 0x20 DUP3 DUP7 ADD ADD MSTORE PUSH1 0x20 PUSH1 0x1F NOT PUSH1 0x1F DUP4 ADD AND DUP6 ADD ADD SWAP2 POP POP SWAP3 SWAP2 POP POP JUMP JUMPDEST PUSH1 0x80 DUP2 MSTORE PUSH1 0x0 PUSH2 0x8AA PUSH1 0x80 DUP4 ADD DUP8 PUSH2 0x851 JUMP JUMPDEST PUSH1 0x1 PUSH1 0xA0 PUSH1 0x2 EXP SUB DUP7 AND PUSH1 0x20 DUP5 ADD MSTORE DUP5 PUSH1 0x40 DUP5 ADD MSTORE DUP3 DUP2 SUB PUSH1 0x60 DUP5 ADD MSTORE PUSH2 0x8D1 DUP2 DUP6 PUSH2 0x851 JUMP JUMPDEST SWAP8 SWAP7 POP POP POP POP POP POP POP JUMP JUMPDEST PUSH1 0x2 DUP2 DIV PUSH1 0x1 DUP3 AND DUP1 PUSH2 0x8F0 JUMPI PUSH1 0x7F DUP3 AND SWAP2 POP JUMPDEST PUSH1 0x20 DUP3 LT DUP2 SUB PUSH2 0x929 JUMPI PUSH32 0x4E487B7100000000000000000000000000000000000000000000000000000000 PUSH1 0x0 MSTORE PUSH1 0x22 PUSH1 0x4 MSTORE PUSH1 0x24 PUSH1 0x0 REVERT JUMPDEST POP SWAP2 SWAP1 POP JUMP JUMPDEST PUSH1 0x1F DUP3 GT ISZERO PUSH2 0x979 JUMPI PUSH1 0x0 DUP2 DUP2 MSTORE PUSH1 0x20 DUP2 KECCAK256 PUSH1 0x20 PUSH1 0x1F DUP7 ADD DIV DUP2 ADD PUSH1 0x20 DUP7 LT ISZERO PUSH2 0x956 JUMPI POP DUP1 JUMPDEST PUSH1 0x20 PUSH1 0x1F DUP7 ADD DIV DUP3 ADD SWAP2 POP JUMPDEST DUP2 DUP2 LT ISZERO PUSH2 0x975 JUMPI DUP3 DUP2 SSTORE PUSH1 0x1 ADD PUSH2 0x962 JUMP JUMPDEST POP POP POP JUMPDEST POP POP POP JUMP JUMPDEST DUP2 MLOAD PUSH8 0xFFFFFFFFFFFFFFFF DUP2 GT ISZERO PUSH2 0x998 JUMPI PUSH2 0x998 PUSH2 0x6D9 JUMP JUMPDEST PUSH2 0x9AC DUP2 PUSH2 0x9A6 DUP5 SLOAD PUSH2 0x8DC JUMP JUMPDEST DUP5 PUSH2 0x92F JUMP JUMPDEST PUSH1 0x20 DUP1 PUSH1 0x1F DUP4 GT PUSH1 0x1 DUP2 EQ PUSH2 0x9E5 JUMPI PUSH1 0x0 DUP5 ISZERO PUSH2 0x9C9 JUMPI POP DUP6 DUP4 ADD MLOAD JUMPDEST PUSH1 0x2 DUP1 DUP7 MUL PUSH1 0x8 DUP8 MUL SWAP1 SWAP2 EXP PUSH1 0x0 NOT DIV NOT DUP3 AND OR DUP7 SSTORE POP PUSH2 0x975 JUMP JUMPDEST PUSH1 0x0 DUP6 DUP2 MSTORE PUSH1 0x20 DUP2 KECCAK256 PUSH1 0x1F NOT DUP7 AND SWAP2 JUMPDEST DUP3 DUP2 LT ISZERO PUSH2 0xA14 JUMPI DUP9 DUP7 ADD MLOAD DUP3 SSTORE SWAP5 DUP5 ADD SWAP5 PUSH1 0x1 SWAP1 SWAP2 ADD SWAP1 DUP5 ADD PUSH2 0x9F5 JUMP JUMPDEST POP DUP6 DUP3 LT ISZERO PUSH2 0xA34 JUMPI DUP8 DUP6 ADD MLOAD PUSH1 0x8 PUSH1 0x1F DUP9 AND MUL PUSH1 0x2 EXP PUSH1 0x0 NOT DIV NOT AND DUP2 SSTORE JUMPDEST POP POP POP POP POP PUSH1 0x2 MUL PUSH1 0x1 ADD SWAP1 SSTORE POP JUMP INVALID LOG2 PUSH5 0x6970667358 0x22 SLT KECCAK256 PUSH17 0x2A237785937D0A86E3C4C8FDA0B2F3285E 0xC4 ADDMOD 0x21 0xD7 BLOCKHASH BALANCE 0xCE 0xF CALLDATASIZE 0xE6 SWAP11 0xEB CODESIZE 0xE5 PUSH5 0x736F6C6343 STOP ADDMOD GT STOP CALLER "
				},
				"gasEstimates": {
					"creation": {
						"codeDepositCost": "536400",
						"executionCost": "infinite",
						"totalCost": "infinite"
					},
					"external": {
						"": "167",
						"addNewTenant(string,address,uint256,string)": "infinite",
						"deposit()": "1181",
						"getTenant(address)": "infinite",
						"owner()": "584",
						"payExpenses()": "infinite",
						"renounceOwnership()": "infinite",
						"transferOwnership(address)": "22745",
						"withdrawAddress()": "546",
						"withdrawal()": "150"
					}
				},
				"methodIdentifiers": {
					"addNewTenant(string,address,uint256,string)": "cc0395bf",
					"deposit()": "d0e30db0",
					"getTenant(address)": "e5cdb488",
					"owner()": "8da5cb5b",
					"payExpenses()": "da6e75c2",
					"renounceOwnership()": "715018a6",
					"transferOwnership(address)": "f2fde38b",
					"withdrawAddress()": "1581b600",
					"withdrawal()": "d4e93292"
				}
			},
			"storageLayout": {
				"storage": [
					{
						"astId": 138,
						"contract": "contracts/Tenant.sol:Tenant",
						"label": "name",
						"offset": 0,
						"slot": "0",
						"type": "t_string_storage"
					},
					{
						"astId": 140,
						"contract": "contracts/Tenant.sol:Tenant",
						"label": "withdrawAddress",
						"offset": 0,
						"slot": "1",
						"type": "t_address"
					},
					{
						"astId": 7,
						"contract": "contracts/Tenant.sol:Tenant",
						"label": "_owner",
						"offset": 0,
						"slot": "2",
						"type": "t_address"
					},
					{
						"astId": 171,
						"contract": "contracts/Tenant.sol:Tenant",
						"label": "servicePrice",
						"offset": 0,
						"slot": "3",
						"type": "t_uint256"
					},
					{
						"astId": 173,
						"contract": "contracts/Tenant.sol:Tenant",
						"label": "buildingAddress",
						"offset": 0,
						"slot": "4",
						"type": "t_string_storage"
					},
					{
						"astId": 175,
						"contract": "contracts/Tenant.sol:Tenant",
						"label": "consorcioAddress",
						"offset": 0,
						"slot": "5",
						"type": "t_address"
					},
					{
						"astId": 188,
						"contract": "contracts/Tenant.sol:Tenant",
						"label": "tenantMapping",
						"offset": 0,
						"slot": "6",
						"type": "t_mapping(t_address,t_struct(TenantStruct)199_storage)"
					}
				],
				"types": {
					"t_address": {
						"encoding": "inplace",
						"label": "address",
						"numberOfBytes": "20"
					},
					"t_mapping(t_address,t_struct(TenantStruct)199_storage)": {
						"encoding": "mapping",
						"key": "t_address",
						"label": "mapping(address => struct Tenant.TenantStruct)",
						"numberOfBytes": "32",
						"value": "t_struct(TenantStruct)199_storage"
					},
					"t_string_storage": {
						"encoding": "bytes",
						"label": "string",
						"numberOfBytes": "32"
					},
					"t_struct(TenantStruct)199_storage": {
						"encoding": "inplace",
						"label": "struct Tenant.TenantStruct",
						"members": [
							{
								"astId": 190,
								"contract": "contracts/Tenant.sol:Tenant",
								"label": "name",
								"offset": 0,
								"slot": "0",
								"type": "t_string_storage"
							},
							{
								"astId": 192,
								"contract": "contracts/Tenant.sol:Tenant",
								"label": "tenantAddress",
								"offset": 0,
								"slot": "1",
								"type": "t_address"
							},
							{
								"astId": 194,
								"contract": "contracts/Tenant.sol:Tenant",
								"label": "rentalCost",
								"offset": 0,
								"slot": "2",
								"type": "t_uint256"
							},
							{
								"astId": 196,
								"contract": "contracts/Tenant.sol:Tenant",
								"label": "residence",
								"offset": 0,
								"slot": "3",
								"type": "t_string_storage"
							},
							{
								"astId": 198,
								"contract": "contracts/Tenant.sol:Tenant",
								"label": "consorcioAddress",
								"offset": 0,
								"slot": "4",
								"type": "t_address"
							}
						],
						"numberOfBytes": "160"
					},
					"t_uint256": {
						"encoding": "inplace",
						"label": "uint256",
						"numberOfBytes": "32"
					}
				}
			},
			"userdoc": {
				"kind": "user",
				"methods": {},
				"version": 1
			}
		}
	}
}