{
	"contracts/Consorcio.sol": {
		"Consorcio": {
			"abi": [
				{
					"anonymous": false,
					"inputs": [
						{
							"indexed": true,
							"internalType": "address",
							"name": "previousOwner",
							"type": "address"
						},
						{
							"indexed": true,
							"internalType": "address",
							"name": "newOwner",
							"type": "address"
						}
					],
					"name": "OwnershipTransferred",
					"type": "event"
				},
				{
					"stateMutability": "payable",
					"type": "fallback"
				},
				{
					"inputs": [],
					"name": "addNewEmployee",
					"outputs": [],
					"stateMutability": "nonpayable",
					"type": "function"
				},
				{
					"inputs": [],
					"name": "addNewService",
					"outputs": [],
					"stateMutability": "nonpayable",
					"type": "function"
				},
				{
					"inputs": [
						{
							"internalType": "string",
							"name": "_name",
							"type": "string"
						},
						{
							"internalType": "address",
							"name": "_tenantAddress",
							"type": "address"
						},
						{
							"internalType": "uint256",
							"name": "_rentalCost",
							"type": "uint256"
						},
						{
							"internalType": "string",
							"name": "_residence",
							"type": "string"
						}
					],
					"name": "addNewTenant",
					"outputs": [],
					"stateMutability": "nonpayable",
					"type": "function"
				},
				{
					"inputs": [],
					"name": "getContractBalance",
					"outputs": [
						{
							"internalType": "uint256",
							"name": "balance",
							"type": "uint256"
						}
					],
					"stateMutability": "view",
					"type": "function"
				},
				{
					"inputs": [],
					"name": "owner",
					"outputs": [
						{
							"internalType": "address",
							"name": "",
							"type": "address"
						}
					],
					"stateMutability": "view",
					"type": "function"
				},
				{
					"inputs": [],
					"name": "payAllServices",
					"outputs": [],
					"stateMutability": "nonpayable",
					"type": "function"
				},
				{
					"inputs": [],
					"name": "paySalaries",
					"outputs": [],
					"stateMutability": "nonpayable",
					"type": "function"
				},
				{
					"inputs": [
						{
							"internalType": "uint256",
							"name": "index",
							"type": "uint256"
						}
					],
					"name": "payService",
					"outputs": [],
					"stateMutability": "nonpayable",
					"type": "function"
				},
				{
					"inputs": [],
					"name": "renounceOwnership",
					"outputs": [],
					"stateMutability": "nonpayable",
					"type": "function"
				},
				{
					"inputs": [],
					"name": "showContractAddress",
					"outputs": [
						{
							"internalType": "address",
							"name": "",
							"type": "address"
						}
					],
					"stateMutability": "view",
					"type": "function"
				},
				{
					"inputs": [
						{
							"internalType": "address",
							"name": "newOwner",
							"type": "address"
						}
					],
					"name": "transferOwnership",
					"outputs": [],
					"stateMutability": "nonpayable",
					"type": "function"
				},
				{
					"stateMutability": "payable",
					"type": "receive"
				}
			],
			"devdoc": {
				"kind": "dev",
				"methods": {
					"owner()": {
						"details": "Returns the address of the current owner."
					},
					"renounceOwnership()": {
						"details": "Leaves the contract without owner. It will not be possible to call `onlyOwner` functions anymore. Can only be called by the current owner. NOTE: Renouncing ownership will leave the contract without an owner, thereby removing any functionality that is only available to the owner."
					},
					"transferOwnership(address)": {
						"details": "Transfers ownership of the contract to a new account (`newOwner`). Can only be called by the current owner."
					}
				},
				"version": 1
			},
			"evm": {
				"assembly": "    /* \"contracts/Consorcio.sol\":167:1250  contract Consorcio is Ownable {... */\n  mstore(0x40, 0x80)\n  callvalue\n  dup1\n  iszero\n  tag_1\n  jumpi\n  0x00\n  dup1\n  revert\ntag_1:\n  pop\n    /* \"@openzeppelin/contracts/access/Ownable.sol\":936:968  _transferOwnership(_msgSender()) */\n  tag_4\n    /* \"@openzeppelin/contracts/access/Ownable.sol\":955:967  _msgSender() */\n  tag_5\n    /* \"@openzeppelin/contracts/access/Ownable.sol\":955:965  _msgSender */\n  0x0100000000\n  tag_6\n  dup2\n  mul\n    /* \"@openzeppelin/contracts/access/Ownable.sol\":955:967  _msgSender() */\n  div\n  jump\t// in\ntag_5:\n    /* \"@openzeppelin/contracts/access/Ownable.sol\":936:954  _transferOwnership */\n  0x0100000000\n  tag_7\n  dup2\n  mul\n    /* \"@openzeppelin/contracts/access/Ownable.sol\":936:968  _transferOwnership(_msgSender()) */\n  div\n  jump\t// in\ntag_4:\n    /* \"contracts/Consorcio.sol\":167:1250  contract Consorcio is Ownable {... */\n  jump(tag_8)\n    /* \"@openzeppelin/contracts/utils/Context.sol\":640:736  function _msgSender() internal view virtual returns (address) {... */\ntag_6:\n    /* \"@openzeppelin/contracts/utils/Context.sol\":719:729  msg.sender */\n  caller\n  swap1\n    /* \"@openzeppelin/contracts/utils/Context.sol\":640:736  function _msgSender() internal view virtual returns (address) {... */\n  jump\t// out\n    /* \"@openzeppelin/contracts/access/Ownable.sol\":2433:2620  function _transferOwnership(address newOwner) internal virtual {... */\ntag_7:\n    /* \"@openzeppelin/contracts/access/Ownable.sol\":2506:2522  address oldOwner */\n  0x00\n    /* \"@openzeppelin/contracts/access/Ownable.sol\":2525:2531  _owner */\n  dup1\n  sload\n  sub(exp(0x02, 0xa0), 0x01)\n    /* \"@openzeppelin/contracts/access/Ownable.sol\":2541:2558  _owner = newOwner */\n  dup4\n  dup2\n  and\n  not(sub(exp(0x02, 0xa0), 0x01))\n  dup4\n  and\n  dup2\n  or\n  dup5\n  sstore\n    /* \"@openzeppelin/contracts/access/Ownable.sol\":2573:2613  OwnershipTransferred(oldOwner, newOwner) */\n  mload(0x40)\n    /* \"@openzeppelin/contracts/access/Ownable.sol\":2525:2531  _owner */\n  swap2\n  swap1\n  swap3\n  and\n  swap3\n  dup4\n  swap2\n    /* \"@openzeppelin/contracts/access/Ownable.sol\":2573:2613  OwnershipTransferred(oldOwner, newOwner) */\n  0x8be0079c531659141344cd1fd0a4f28419497f9722a3daafe3b4186f6b6457e0\n  swap2\n    /* \"@openzeppelin/contracts/access/Ownable.sol\":2506:2522  address oldOwner */\n  swap1\n    /* \"@openzeppelin/contracts/access/Ownable.sol\":2573:2613  OwnershipTransferred(oldOwner, newOwner) */\n  log3\n    /* \"@openzeppelin/contracts/access/Ownable.sol\":2496:2620  {... */\n  pop\n    /* \"@openzeppelin/contracts/access/Ownable.sol\":2433:2620  function _transferOwnership(address newOwner) internal virtual {... */\n  pop\n  jump\t// out\n    /* \"contracts/Consorcio.sol\":167:1250  contract Consorcio is Ownable {... */\ntag_8:\n  dataSize(sub_0)\n  dup1\n  dataOffset(sub_0)\n  0x00\n  codecopy\n  0x00\n  return\nstop\n\nsub_0: assembly {\n        /* \"contracts/Consorcio.sol\":167:1250  contract Consorcio is Ownable {... */\n      mstore(0x40, 0x80)\n      jumpi(tag_1, lt(calldatasize, 0x04))\n      calldataload(0x00)\n      0x0100000000000000000000000000000000000000000000000000000000\n      swap1\n      div\n      dup1\n      0xcc0395bf\n      gt\n      tag_14\n      jumpi\n      dup1\n      0xcc0395bf\n      eq\n      tag_8\n      jumpi\n      dup1\n      0xcd7d77c5\n      eq\n      tag_9\n      jumpi\n      dup1\n      0xd57efa3b\n      eq\n      tag_3\n      jumpi\n      dup1\n      0xec3ab274\n      eq\n      tag_3\n      jumpi\n      dup1\n      0xf2fde38b\n      eq\n      tag_12\n      jumpi\n      dup1\n      0xffceea3c\n      eq\n      tag_3\n      jumpi\n      stop\n    tag_14:\n      dup1\n      0x42e36b3b\n      eq\n      tag_3\n      jumpi\n      dup1\n      0x6f9fb98a\n      eq\n      tag_4\n      jumpi\n      dup1\n      0x715018a6\n      eq\n      tag_5\n      jumpi\n      dup1\n      0x7ca2e656\n      eq\n      tag_6\n      jumpi\n      dup1\n      0x8da5cb5b\n      eq\n      tag_7\n      jumpi\n      stop\n    tag_1:\n      jumpi(tag_2, calldatasize)\n      stop\n    tag_2:\n      stop\n        /* \"contracts/Consorcio.sol\":463:505  function paySalaries() public onlyOwner {} */\n    tag_3:\n      callvalue\n      dup1\n      iszero\n      tag_19\n      jumpi\n      0x00\n      dup1\n      revert\n    tag_19:\n      pop\n      tag_2\n      tag_21\n      jump\t// in\n        /* \"contracts/Consorcio.sol\":1133:1247  function getContractBalance() public view returns(uint256 balance) {... */\n    tag_4:\n      callvalue\n      dup1\n      iszero\n      tag_22\n      jumpi\n      0x00\n      dup1\n      revert\n    tag_22:\n      pop\n      mload(0x40)\n        /* \"contracts/Consorcio.sol\":1226:1230  this */\n      address\n        /* \"contracts/Consorcio.sol\":1218:1239  address(this).balance */\n      balance\n        /* \"#utility.yul\":160:185   */\n      dup2\n      mstore\n        /* \"#utility.yul\":148:150   */\n      0x20\n        /* \"#utility.yul\":133:151   */\n      add\n        /* \"contracts/Consorcio.sol\":1133:1247  function getContractBalance() public view returns(uint256 balance) {... */\n    tag_25:\n      mload(0x40)\n      dup1\n      swap2\n      sub\n      swap1\n      return\n        /* \"@openzeppelin/contracts/access/Ownable.sol\":1831:1932  function renounceOwnership() public virtual onlyOwner {... */\n    tag_5:\n      callvalue\n      dup1\n      iszero\n      tag_27\n      jumpi\n      0x00\n      dup1\n      revert\n    tag_27:\n      pop\n      tag_2\n      tag_29\n      jump\t// in\n        /* \"contracts/Consorcio.sol\":1026:1125  function showContractAddress() public view returns(address) {... */\n    tag_6:\n      callvalue\n      dup1\n      iszero\n      tag_30\n      jumpi\n      0x00\n      dup1\n      revert\n    tag_30:\n      pop\n        /* \"contracts/Consorcio.sol\":1112:1116  this */\n      address\n        /* \"contracts/Consorcio.sol\":1026:1125  function showContractAddress() public view returns(address) {... */\n    tag_31:\n      mload(0x40)\n      sub(exp(0x02, 0xa0), 0x01)\n        /* \"#utility.yul\":360:415   */\n      swap1\n      swap2\n      and\n        /* \"#utility.yul\":342:416   */\n      dup2\n      mstore\n        /* \"#utility.yul\":330:332   */\n      0x20\n        /* \"#utility.yul\":315:333   */\n      add\n        /* \"contracts/Consorcio.sol\":1026:1125  function showContractAddress() public view returns(address) {... */\n      tag_25\n        /* \"#utility.yul\":196:422   */\n      jump\n        /* \"@openzeppelin/contracts/access/Ownable.sol\":1201:1286  function owner() public view virtual returns (address) {... */\n    tag_7:\n      callvalue\n      dup1\n      iszero\n      tag_35\n      jumpi\n      0x00\n      dup1\n      revert\n    tag_35:\n      pop\n        /* \"@openzeppelin/contracts/access/Ownable.sol\":1247:1254  address */\n      0x00\n        /* \"@openzeppelin/contracts/access/Ownable.sol\":1273:1279  _owner */\n      sload\n      sub(exp(0x02, 0xa0), 0x01)\n      and\n        /* \"@openzeppelin/contracts/access/Ownable.sol\":1201:1286  function owner() public view virtual returns (address) {... */\n      jump(tag_31)\n        /* \"contracts/Consorcio.sol\":625:909  function addNewTenant(... */\n    tag_8:\n      callvalue\n      dup1\n      iszero\n      tag_39\n      jumpi\n      0x00\n      dup1\n      revert\n    tag_39:\n      pop\n      tag_2\n      tag_41\n      calldatasize\n      0x04\n      tag_42\n      jump\t// in\n    tag_41:\n      tag_43\n      jump\t// in\n        /* \"contracts/Consorcio.sol\":566:617  function payService(uint index) public onlyOwner {} */\n    tag_9:\n      callvalue\n      dup1\n      iszero\n      tag_44\n      jumpi\n      0x00\n      dup1\n      revert\n    tag_44:\n      pop\n      tag_2\n      tag_46\n      calldatasize\n      0x04\n      tag_47\n      jump\t// in\n    tag_46:\n      tag_48\n      jump\t// in\n        /* \"@openzeppelin/contracts/access/Ownable.sol\":2081:2279  function transferOwnership(address newOwner) public virtual onlyOwner {... */\n    tag_12:\n      callvalue\n      dup1\n      iszero\n      tag_55\n      jumpi\n      0x00\n      dup1\n      revert\n    tag_55:\n      pop\n      tag_2\n      tag_57\n      calldatasize\n      0x04\n      tag_58\n      jump\t// in\n    tag_57:\n      tag_59\n      jump\t// in\n        /* \"contracts/Consorcio.sol\":463:505  function paySalaries() public onlyOwner {} */\n    tag_21:\n        /* \"@openzeppelin/contracts/access/Ownable.sol\":1094:1107  _checkOwner() */\n      tag_64\n        /* \"@openzeppelin/contracts/access/Ownable.sol\":1094:1105  _checkOwner */\n      tag_65\n        /* \"@openzeppelin/contracts/access/Ownable.sol\":1094:1107  _checkOwner() */\n      jump\t// in\n    tag_64:\n        /* \"contracts/Consorcio.sol\":463:505  function paySalaries() public onlyOwner {} */\n      jump\t// out\n        /* \"@openzeppelin/contracts/access/Ownable.sol\":1831:1932  function renounceOwnership() public virtual onlyOwner {... */\n    tag_29:\n        /* \"@openzeppelin/contracts/access/Ownable.sol\":1094:1107  _checkOwner() */\n      tag_69\n        /* \"@openzeppelin/contracts/access/Ownable.sol\":1094:1105  _checkOwner */\n      tag_65\n        /* \"@openzeppelin/contracts/access/Ownable.sol\":1094:1107  _checkOwner() */\n      jump\t// in\n    tag_69:\n        /* \"@openzeppelin/contracts/access/Ownable.sol\":1895:1925  _transferOwnership(address(0)) */\n      tag_64\n        /* \"@openzeppelin/contracts/access/Ownable.sol\":1922:1923  0 */\n      0x00\n        /* \"@openzeppelin/contracts/access/Ownable.sol\":1895:1913  _transferOwnership */\n      tag_72\n        /* \"@openzeppelin/contracts/access/Ownable.sol\":1895:1925  _transferOwnership(address(0)) */\n      jump\t// in\n        /* \"contracts/Consorcio.sol\":625:909  function addNewTenant(... */\n    tag_43:\n        /* \"@openzeppelin/contracts/access/Ownable.sol\":1094:1107  _checkOwner() */\n      tag_76\n        /* \"@openzeppelin/contracts/access/Ownable.sol\":1094:1105  _checkOwner */\n      tag_65\n        /* \"@openzeppelin/contracts/access/Ownable.sol\":1094:1107  _checkOwner() */\n      jump\t// in\n    tag_76:\n        /* \"contracts/Consorcio.sol\":811:821  tenantList */\n      0x02\n        /* \"contracts/Consorcio.sol\":838:843  _name */\n      dup5\n        /* \"contracts/Consorcio.sol\":845:859  _tenantAddress */\n      dup5\n        /* \"contracts/Consorcio.sol\":861:872  _rentalCost */\n      dup5\n        /* \"contracts/Consorcio.sol\":874:884  _residence */\n      dup5\n        /* \"contracts/Consorcio.sol\":894:898  this */\n      address\n        /* \"contracts/Consorcio.sol\":827:900  new Tenant(_name, _tenantAddress, _rentalCost, _residence, address(this)) */\n      mload(0x40)\n      tag_78\n      swap1\n      tag_79\n      jump\t// in\n    tag_78:\n      tag_80\n      swap6\n      swap5\n      swap4\n      swap3\n      swap2\n      swap1\n      tag_81\n      jump\t// in\n    tag_80:\n      mload(0x40)\n      dup1\n      swap2\n      sub\n      swap1\n      0x00\n      create\n      dup1\n      iszero\n      dup1\n      iszero\n      tag_82\n      jumpi\n      returndatasize\n      0x00\n      dup1\n      returndatacopy\n      revert(0x00, returndatasize)\n    tag_82:\n      pop\n        /* \"contracts/Consorcio.sol\":811:901  tenantList.push(new Tenant(_name, _tenantAddress, _rentalCost, _residence, address(this))) */\n      dup2\n      sload\n      0x01\n      dup2\n      add\n      dup4\n      sstore\n      0x00\n      swap3\n      dup4\n      mstore\n      0x20\n      swap1\n      swap3\n      keccak256\n      swap1\n      swap2\n      add\n      dup1\n      sload\n      not(0xffffffffffffffffffffffffffffffffffffffff)\n      and\n      sub(exp(0x02, 0xa0), 0x01)\n      swap1\n      swap3\n      and\n      swap2\n      swap1\n      swap2\n      or\n      swap1\n      sstore\n      pop\n      pop\n      pop\n      pop\n        /* \"contracts/Consorcio.sol\":625:909  function addNewTenant(... */\n      jump\t// out\n        /* \"contracts/Consorcio.sol\":566:617  function payService(uint index) public onlyOwner {} */\n    tag_48:\n        /* \"@openzeppelin/contracts/access/Ownable.sol\":1094:1107  _checkOwner() */\n      tag_85\n        /* \"@openzeppelin/contracts/access/Ownable.sol\":1094:1105  _checkOwner */\n      tag_65\n        /* \"@openzeppelin/contracts/access/Ownable.sol\":1094:1107  _checkOwner() */\n      jump\t// in\n    tag_85:\n        /* \"contracts/Consorcio.sol\":566:617  function payService(uint index) public onlyOwner {} */\n      pop\n      jump\t// out\n        /* \"@openzeppelin/contracts/access/Ownable.sol\":2081:2279  function transferOwnership(address newOwner) public virtual onlyOwner {... */\n    tag_59:\n        /* \"@openzeppelin/contracts/access/Ownable.sol\":1094:1107  _checkOwner() */\n      tag_94\n        /* \"@openzeppelin/contracts/access/Ownable.sol\":1094:1105  _checkOwner */\n      tag_65\n        /* \"@openzeppelin/contracts/access/Ownable.sol\":1094:1107  _checkOwner() */\n      jump\t// in\n    tag_94:\n      sub(exp(0x02, 0xa0), 0x01)\n        /* \"@openzeppelin/contracts/access/Ownable.sol\":2169:2191  newOwner != address(0) */\n      dup2\n      and\n        /* \"@openzeppelin/contracts/access/Ownable.sol\":2161:2234  require(newOwner != address(0), \"Ownable: new owner is the zero address\") */\n      tag_96\n      jumpi\n      mload(0x40)\n      0x08c379a000000000000000000000000000000000000000000000000000000000\n      dup2\n      mstore\n        /* \"#utility.yul\":3921:3923   */\n      0x20\n        /* \"@openzeppelin/contracts/access/Ownable.sol\":2161:2234  require(newOwner != address(0), \"Ownable: new owner is the zero address\") */\n      0x04\n      dup3\n      add\n        /* \"#utility.yul\":3903:3924   */\n      mstore\n        /* \"#utility.yul\":3960:3962   */\n      0x26\n        /* \"#utility.yul\":3940:3958   */\n      0x24\n      dup3\n      add\n        /* \"#utility.yul\":3933:3963   */\n      mstore\n        /* \"#utility.yul\":3999:4033   */\n      0x4f776e61626c653a206e6577206f776e657220697320746865207a65726f2061\n        /* \"#utility.yul\":3979:3997   */\n      0x44\n      dup3\n      add\n        /* \"#utility.yul\":3972:4034   */\n      mstore\n        /* \"#utility.yul\":4070:4078   */\n      0x6464726573730000000000000000000000000000000000000000000000000000\n        /* \"#utility.yul\":4050:4068   */\n      0x64\n      dup3\n      add\n        /* \"#utility.yul\":4043:4079   */\n      mstore\n        /* \"#utility.yul\":4096:4115   */\n      0x84\n      add\n        /* \"@openzeppelin/contracts/access/Ownable.sol\":2161:2234  require(newOwner != address(0), \"Ownable: new owner is the zero address\") */\n    tag_97:\n      mload(0x40)\n      dup1\n      swap2\n      sub\n      swap1\n      revert\n    tag_96:\n        /* \"@openzeppelin/contracts/access/Ownable.sol\":2244:2272  _transferOwnership(newOwner) */\n      tag_85\n        /* \"@openzeppelin/contracts/access/Ownable.sol\":2263:2271  newOwner */\n      dup2\n        /* \"@openzeppelin/contracts/access/Ownable.sol\":2244:2262  _transferOwnership */\n      tag_72\n        /* \"@openzeppelin/contracts/access/Ownable.sol\":2244:2272  _transferOwnership(newOwner) */\n      jump\t// in\n        /* \"@openzeppelin/contracts/access/Ownable.sol\":1359:1489  function _checkOwner() internal view virtual {... */\n    tag_65:\n        /* \"@openzeppelin/contracts/access/Ownable.sol\":1247:1254  address */\n      0x00\n        /* \"@openzeppelin/contracts/access/Ownable.sol\":1273:1279  _owner */\n      sload\n      sub(exp(0x02, 0xa0), 0x01)\n      and\n        /* \"@openzeppelin/contracts/utils/Context.sol\":719:729  msg.sender */\n      caller\n        /* \"@openzeppelin/contracts/access/Ownable.sol\":1422:1445  owner() == _msgSender() */\n      eq\n        /* \"@openzeppelin/contracts/access/Ownable.sol\":1414:1482  require(owner() == _msgSender(), \"Ownable: caller is not the owner\") */\n      tag_64\n      jumpi\n      mload(0x40)\n      0x08c379a000000000000000000000000000000000000000000000000000000000\n      dup2\n      mstore\n        /* \"#utility.yul\":4328:4330   */\n      0x20\n        /* \"@openzeppelin/contracts/access/Ownable.sol\":1414:1482  require(owner() == _msgSender(), \"Ownable: caller is not the owner\") */\n      0x04\n      dup3\n      add\n        /* \"#utility.yul\":4310:4331   */\n      dup2\n      swap1\n      mstore\n        /* \"#utility.yul\":4347:4365   */\n      0x24\n      dup3\n      add\n        /* \"#utility.yul\":4340:4370   */\n      mstore\n        /* \"#utility.yul\":4406:4440   */\n      0x4f776e61626c653a2063616c6c6572206973206e6f7420746865206f776e6572\n        /* \"#utility.yul\":4386:4404   */\n      0x44\n      dup3\n      add\n        /* \"#utility.yul\":4379:4441   */\n      mstore\n        /* \"#utility.yul\":4458:4476   */\n      0x64\n      add\n        /* \"@openzeppelin/contracts/access/Ownable.sol\":1414:1482  require(owner() == _msgSender(), \"Ownable: caller is not the owner\") */\n      tag_97\n        /* \"#utility.yul\":4126:4482   */\n      jump\n        /* \"@openzeppelin/contracts/access/Ownable.sol\":2433:2620  function _transferOwnership(address newOwner) internal virtual {... */\n    tag_72:\n        /* \"@openzeppelin/contracts/access/Ownable.sol\":2506:2522  address oldOwner */\n      0x00\n        /* \"@openzeppelin/contracts/access/Ownable.sol\":2525:2531  _owner */\n      dup1\n      sload\n      sub(exp(0x02, 0xa0), 0x01)\n        /* \"@openzeppelin/contracts/access/Ownable.sol\":2541:2558  _owner = newOwner */\n      dup4\n      dup2\n      and\n      not(0xffffffffffffffffffffffffffffffffffffffff)\n      dup4\n      and\n      dup2\n      or\n      dup5\n      sstore\n        /* \"@openzeppelin/contracts/access/Ownable.sol\":2573:2613  OwnershipTransferred(oldOwner, newOwner) */\n      mload(0x40)\n        /* \"@openzeppelin/contracts/access/Ownable.sol\":2525:2531  _owner */\n      swap2\n      swap1\n      swap3\n      and\n      swap3\n      dup4\n      swap2\n        /* \"@openzeppelin/contracts/access/Ownable.sol\":2573:2613  OwnershipTransferred(oldOwner, newOwner) */\n      0x8be0079c531659141344cd1fd0a4f28419497f9722a3daafe3b4186f6b6457e0\n      swap2\n        /* \"@openzeppelin/contracts/access/Ownable.sol\":2506:2522  address oldOwner */\n      swap1\n        /* \"@openzeppelin/contracts/access/Ownable.sol\":2573:2613  OwnershipTransferred(oldOwner, newOwner) */\n      log3\n        /* \"@openzeppelin/contracts/access/Ownable.sol\":2496:2620  {... */\n      pop\n        /* \"@openzeppelin/contracts/access/Ownable.sol\":2433:2620  function _transferOwnership(address newOwner) internal virtual {... */\n      pop\n      jump\t// out\n    tag_79:\n      dataSize(sub_0)\n      dup1\n      dataOffset(sub_0)\n      dup4\n      codecopy\n      add\n      swap1\n      jump\t// out\n        /* \"#utility.yul\":427:611   */\n    tag_112:\n        /* \"#utility.yul\":479:556   */\n      0x4e487b7100000000000000000000000000000000000000000000000000000000\n        /* \"#utility.yul\":476:477   */\n      0x00\n        /* \"#utility.yul\":469:557   */\n      mstore\n        /* \"#utility.yul\":576:580   */\n      0x41\n        /* \"#utility.yul\":573:574   */\n      0x04\n        /* \"#utility.yul\":566:581   */\n      mstore\n        /* \"#utility.yul\":600:604   */\n      0x24\n        /* \"#utility.yul\":597:598   */\n      0x00\n        /* \"#utility.yul\":590:605   */\n      revert\n        /* \"#utility.yul\":616:1335   */\n    tag_113:\n        /* \"#utility.yul\":659:664   */\n      0x00\n        /* \"#utility.yul\":712:715   */\n      dup3\n        /* \"#utility.yul\":705:709   */\n      0x1f\n        /* \"#utility.yul\":697:703   */\n      dup4\n        /* \"#utility.yul\":693:710   */\n      add\n        /* \"#utility.yul\":689:716   */\n      slt\n        /* \"#utility.yul\":679:734   */\n      tag_121\n      jumpi\n        /* \"#utility.yul\":730:731   */\n      0x00\n        /* \"#utility.yul\":727:728   */\n      dup1\n        /* \"#utility.yul\":720:732   */\n      revert\n        /* \"#utility.yul\":679:734   */\n    tag_121:\n        /* \"#utility.yul\":766:772   */\n      dup2\n        /* \"#utility.yul\":753:773   */\n      calldataload\n        /* \"#utility.yul\":792:810   */\n      0xffffffffffffffff\n        /* \"#utility.yul\":829:831   */\n      dup1\n        /* \"#utility.yul\":825:827   */\n      dup3\n        /* \"#utility.yul\":822:832   */\n      gt\n        /* \"#utility.yul\":819:855   */\n      iszero\n      tag_123\n      jumpi\n        /* \"#utility.yul\":835:853   */\n      tag_123\n      tag_112\n      jump\t// in\n    tag_123:\n        /* \"#utility.yul\":910:912   */\n      0x40\n        /* \"#utility.yul\":904:913   */\n      mload\n        /* \"#utility.yul\":878:880   */\n      0x1f\n        /* \"#utility.yul\":964:977   */\n      dup4\n      add\n      not(0x1f)\n        /* \"#utility.yul\":960:982   */\n      swap1\n      dup2\n      and\n        /* \"#utility.yul\":984:986   */\n      0x3f\n        /* \"#utility.yul\":956:987   */\n      add\n        /* \"#utility.yul\":952:992   */\n      and\n        /* \"#utility.yul\":940:993   */\n      dup2\n      add\n      swap1\n        /* \"#utility.yul\":1008:1026   */\n      dup3\n      dup3\n      gt\n        /* \"#utility.yul\":1028:1050   */\n      dup2\n      dup4\n      lt\n        /* \"#utility.yul\":1005:1051   */\n      or\n        /* \"#utility.yul\":1002:1074   */\n      iszero\n      tag_125\n      jumpi\n        /* \"#utility.yul\":1054:1072   */\n      tag_125\n      tag_112\n      jump\t// in\n    tag_125:\n        /* \"#utility.yul\":1094:1104   */\n      dup2\n        /* \"#utility.yul\":1090:1092   */\n      0x40\n        /* \"#utility.yul\":1083:1105   */\n      mstore\n        /* \"#utility.yul\":1129:1131   */\n      dup4\n        /* \"#utility.yul\":1121:1127   */\n      dup2\n        /* \"#utility.yul\":1114:1132   */\n      mstore\n        /* \"#utility.yul\":1175:1178   */\n      dup7\n        /* \"#utility.yul\":1168:1172   */\n      0x20\n        /* \"#utility.yul\":1163:1165   */\n      dup6\n        /* \"#utility.yul\":1155:1161   */\n      dup9\n        /* \"#utility.yul\":1151:1166   */\n      add\n        /* \"#utility.yul\":1147:1173   */\n      add\n        /* \"#utility.yul\":1144:1179   */\n      gt\n        /* \"#utility.yul\":1141:1196   */\n      iszero\n      tag_126\n      jumpi\n        /* \"#utility.yul\":1192:1193   */\n      0x00\n        /* \"#utility.yul\":1189:1190   */\n      dup1\n        /* \"#utility.yul\":1182:1194   */\n      revert\n        /* \"#utility.yul\":1141:1196   */\n    tag_126:\n        /* \"#utility.yul\":1256:1258   */\n      dup4\n        /* \"#utility.yul\":1249:1253   */\n      0x20\n        /* \"#utility.yul\":1241:1247   */\n      dup8\n        /* \"#utility.yul\":1237:1254   */\n      add\n        /* \"#utility.yul\":1230:1234   */\n      0x20\n        /* \"#utility.yul\":1222:1228   */\n      dup4\n        /* \"#utility.yul\":1218:1235   */\n      add\n        /* \"#utility.yul\":1205:1259   */\n      calldatacopy\n        /* \"#utility.yul\":1303:1304   */\n      0x00\n        /* \"#utility.yul\":1296:1300   */\n      0x20\n        /* \"#utility.yul\":1291:1293   */\n      dup6\n        /* \"#utility.yul\":1283:1289   */\n      dup4\n        /* \"#utility.yul\":1279:1294   */\n      add\n        /* \"#utility.yul\":1275:1301   */\n      add\n        /* \"#utility.yul\":1268:1305   */\n      mstore\n        /* \"#utility.yul\":1323:1329   */\n      dup1\n        /* \"#utility.yul\":1314:1329   */\n      swap5\n      pop\n      pop\n      pop\n      pop\n      pop\n        /* \"#utility.yul\":616:1335   */\n      swap3\n      swap2\n      pop\n      pop\n      jump\t// out\n        /* \"#utility.yul\":1340:1536   */\n    tag_114:\n        /* \"#utility.yul\":1408:1428   */\n      dup1\n      calldataload\n      sub(exp(0x02, 0xa0), 0x01)\n        /* \"#utility.yul\":1457:1511   */\n      dup2\n      and\n        /* \"#utility.yul\":1447:1512   */\n      dup2\n      eq\n        /* \"#utility.yul\":1437:1530   */\n      tag_128\n      jumpi\n        /* \"#utility.yul\":1526:1527   */\n      0x00\n        /* \"#utility.yul\":1523:1524   */\n      dup1\n        /* \"#utility.yul\":1516:1528   */\n      revert\n        /* \"#utility.yul\":1437:1530   */\n    tag_128:\n        /* \"#utility.yul\":1340:1536   */\n      swap2\n      swap1\n      pop\n      jump\t// out\n        /* \"#utility.yul\":1541:2227   */\n    tag_42:\n        /* \"#utility.yul\":1647:1653   */\n      0x00\n        /* \"#utility.yul\":1655:1661   */\n      dup1\n        /* \"#utility.yul\":1663:1669   */\n      0x00\n        /* \"#utility.yul\":1671:1677   */\n      dup1\n        /* \"#utility.yul\":1724:1727   */\n      0x80\n        /* \"#utility.yul\":1712:1721   */\n      dup6\n        /* \"#utility.yul\":1703:1710   */\n      dup8\n        /* \"#utility.yul\":1699:1722   */\n      sub\n        /* \"#utility.yul\":1695:1728   */\n      slt\n        /* \"#utility.yul\":1692:1745   */\n      iszero\n      tag_130\n      jumpi\n        /* \"#utility.yul\":1741:1742   */\n      0x00\n        /* \"#utility.yul\":1738:1739   */\n      dup1\n        /* \"#utility.yul\":1731:1743   */\n      revert\n        /* \"#utility.yul\":1692:1745   */\n    tag_130:\n        /* \"#utility.yul\":1781:1790   */\n      dup5\n        /* \"#utility.yul\":1768:1791   */\n      calldataload\n        /* \"#utility.yul\":1810:1828   */\n      0xffffffffffffffff\n        /* \"#utility.yul\":1851:1853   */\n      dup1\n        /* \"#utility.yul\":1843:1849   */\n      dup3\n        /* \"#utility.yul\":1840:1854   */\n      gt\n        /* \"#utility.yul\":1837:1871   */\n      iszero\n      tag_131\n      jumpi\n        /* \"#utility.yul\":1867:1868   */\n      0x00\n        /* \"#utility.yul\":1864:1865   */\n      dup1\n        /* \"#utility.yul\":1857:1869   */\n      revert\n        /* \"#utility.yul\":1837:1871   */\n    tag_131:\n        /* \"#utility.yul\":1890:1940   */\n      tag_132\n        /* \"#utility.yul\":1932:1939   */\n      dup9\n        /* \"#utility.yul\":1923:1929   */\n      dup4\n        /* \"#utility.yul\":1912:1921   */\n      dup10\n        /* \"#utility.yul\":1908:1930   */\n      add\n        /* \"#utility.yul\":1890:1940   */\n      tag_113\n      jump\t// in\n    tag_132:\n        /* \"#utility.yul\":1880:1940   */\n      swap6\n      pop\n        /* \"#utility.yul\":1959:1997   */\n      tag_133\n        /* \"#utility.yul\":1993:1995   */\n      0x20\n        /* \"#utility.yul\":1982:1991   */\n      dup9\n        /* \"#utility.yul\":1978:1996   */\n      add\n        /* \"#utility.yul\":1959:1997   */\n      tag_114\n      jump\t// in\n    tag_133:\n        /* \"#utility.yul\":1949:1997   */\n      swap5\n      pop\n        /* \"#utility.yul\":2044:2046   */\n      0x40\n        /* \"#utility.yul\":2033:2042   */\n      dup8\n        /* \"#utility.yul\":2029:2047   */\n      add\n        /* \"#utility.yul\":2016:2048   */\n      calldataload\n        /* \"#utility.yul\":2006:2048   */\n      swap4\n      pop\n        /* \"#utility.yul\":2101:2103   */\n      0x60\n        /* \"#utility.yul\":2090:2099   */\n      dup8\n        /* \"#utility.yul\":2086:2104   */\n      add\n        /* \"#utility.yul\":2073:2105   */\n      calldataload\n        /* \"#utility.yul\":2057:2105   */\n      swap2\n      pop\n        /* \"#utility.yul\":2130:2132   */\n      dup1\n        /* \"#utility.yul\":2120:2128   */\n      dup3\n        /* \"#utility.yul\":2117:2133   */\n      gt\n        /* \"#utility.yul\":2114:2150   */\n      iszero\n      tag_134\n      jumpi\n        /* \"#utility.yul\":2146:2147   */\n      0x00\n        /* \"#utility.yul\":2143:2144   */\n      dup1\n        /* \"#utility.yul\":2136:2148   */\n      revert\n        /* \"#utility.yul\":2114:2150   */\n    tag_134:\n      pop\n        /* \"#utility.yul\":2169:2221   */\n      tag_135\n        /* \"#utility.yul\":2213:2220   */\n      dup8\n        /* \"#utility.yul\":2202:2210   */\n      dup3\n        /* \"#utility.yul\":2191:2200   */\n      dup9\n        /* \"#utility.yul\":2187:2211   */\n      add\n        /* \"#utility.yul\":2169:2221   */\n      tag_113\n      jump\t// in\n    tag_135:\n        /* \"#utility.yul\":2159:2221   */\n      swap2\n      pop\n      pop\n        /* \"#utility.yul\":1541:2227   */\n      swap3\n      swap6\n      swap2\n      swap5\n      pop\n      swap3\n      pop\n      jump\t// out\n        /* \"#utility.yul\":2232:2412   */\n    tag_47:\n        /* \"#utility.yul\":2291:2297   */\n      0x00\n        /* \"#utility.yul\":2344:2346   */\n      0x20\n        /* \"#utility.yul\":2332:2341   */\n      dup3\n        /* \"#utility.yul\":2323:2330   */\n      dup5\n        /* \"#utility.yul\":2319:2342   */\n      sub\n        /* \"#utility.yul\":2315:2347   */\n      slt\n        /* \"#utility.yul\":2312:2364   */\n      iszero\n      tag_137\n      jumpi\n        /* \"#utility.yul\":2360:2361   */\n      0x00\n        /* \"#utility.yul\":2357:2358   */\n      dup1\n        /* \"#utility.yul\":2350:2362   */\n      revert\n        /* \"#utility.yul\":2312:2364   */\n    tag_137:\n      pop\n        /* \"#utility.yul\":2383:2406   */\n      calldataload\n      swap2\n        /* \"#utility.yul\":2232:2412   */\n      swap1\n      pop\n      jump\t// out\n        /* \"#utility.yul\":2417:2603   */\n    tag_58:\n        /* \"#utility.yul\":2476:2482   */\n      0x00\n        /* \"#utility.yul\":2529:2531   */\n      0x20\n        /* \"#utility.yul\":2517:2526   */\n      dup3\n        /* \"#utility.yul\":2508:2515   */\n      dup5\n        /* \"#utility.yul\":2504:2527   */\n      sub\n        /* \"#utility.yul\":2500:2532   */\n      slt\n        /* \"#utility.yul\":2497:2549   */\n      iszero\n      tag_139\n      jumpi\n        /* \"#utility.yul\":2545:2546   */\n      0x00\n        /* \"#utility.yul\":2542:2543   */\n      dup1\n        /* \"#utility.yul\":2535:2547   */\n      revert\n        /* \"#utility.yul\":2497:2549   */\n    tag_139:\n        /* \"#utility.yul\":2568:2597   */\n      tag_140\n        /* \"#utility.yul\":2587:2596   */\n      dup3\n        /* \"#utility.yul\":2568:2597   */\n      tag_114\n      jump\t// in\n    tag_140:\n        /* \"#utility.yul\":2558:2597   */\n      swap4\n        /* \"#utility.yul\":2417:2603   */\n      swap3\n      pop\n      pop\n      pop\n      jump\t// out\n        /* \"#utility.yul\":2608:3031   */\n    tag_115:\n        /* \"#utility.yul\":2650:2653   */\n      0x00\n        /* \"#utility.yul\":2688:2693   */\n      dup2\n        /* \"#utility.yul\":2682:2694   */\n      mload\n        /* \"#utility.yul\":2715:2721   */\n      dup1\n        /* \"#utility.yul\":2710:2713   */\n      dup5\n        /* \"#utility.yul\":2703:2722   */\n      mstore\n        /* \"#utility.yul\":2740:2741   */\n      0x00\n        /* \"#utility.yul\":2750:2912   */\n    tag_142:\n        /* \"#utility.yul\":2764:2770   */\n      dup2\n        /* \"#utility.yul\":2761:2762   */\n      dup2\n        /* \"#utility.yul\":2758:2771   */\n      lt\n        /* \"#utility.yul\":2750:2912   */\n      iszero\n      tag_144\n      jumpi\n        /* \"#utility.yul\":2826:2830   */\n      0x20\n        /* \"#utility.yul\":2882:2895   */\n      dup2\n      dup6\n      add\n        /* \"#utility.yul\":2878:2900   */\n      dup2\n      add\n        /* \"#utility.yul\":2872:2901   */\n      mload\n        /* \"#utility.yul\":2854:2865   */\n      dup7\n      dup4\n      add\n        /* \"#utility.yul\":2850:2870   */\n      dup3\n      add\n        /* \"#utility.yul\":2843:2902   */\n      mstore\n        /* \"#utility.yul\":2779:2791   */\n      add\n        /* \"#utility.yul\":2750:2912   */\n      jump(tag_142)\n    tag_144:\n        /* \"#utility.yul\":2754:2757   */\n      pop\n        /* \"#utility.yul\":2957:2958   */\n      0x00\n        /* \"#utility.yul\":2950:2954   */\n      0x20\n        /* \"#utility.yul\":2941:2947   */\n      dup3\n        /* \"#utility.yul\":2936:2939   */\n      dup7\n        /* \"#utility.yul\":2932:2948   */\n      add\n        /* \"#utility.yul\":2928:2955   */\n      add\n        /* \"#utility.yul\":2921:2959   */\n      mstore\n        /* \"#utility.yul\":3020:3024   */\n      0x20\n        /* \"#utility.yul\":3013:3015   */\n      0x1f\n        /* \"#utility.yul\":3009:3016   */\n      not\n        /* \"#utility.yul\":3004:3006   */\n      0x1f\n        /* \"#utility.yul\":2996:3002   */\n      dup4\n        /* \"#utility.yul\":2992:3007   */\n      add\n        /* \"#utility.yul\":2988:3017   */\n      and\n        /* \"#utility.yul\":2983:2986   */\n      dup6\n        /* \"#utility.yul\":2979:3018   */\n      add\n        /* \"#utility.yul\":2975:3025   */\n      add\n        /* \"#utility.yul\":2968:3025   */\n      swap2\n      pop\n      pop\n        /* \"#utility.yul\":2608:3031   */\n      swap3\n      swap2\n      pop\n      pop\n      jump\t// out\n        /* \"#utility.yul\":3036:3714   */\n    tag_81:\n        /* \"#utility.yul\":3317:3320   */\n      0xa0\n        /* \"#utility.yul\":3306:3315   */\n      dup2\n        /* \"#utility.yul\":3299:3321   */\n      mstore\n        /* \"#utility.yul\":3280:3284   */\n      0x00\n        /* \"#utility.yul\":3344:3390   */\n      tag_146\n        /* \"#utility.yul\":3385:3388   */\n      0xa0\n        /* \"#utility.yul\":3374:3383   */\n      dup4\n        /* \"#utility.yul\":3370:3389   */\n      add\n        /* \"#utility.yul\":3362:3368   */\n      dup9\n        /* \"#utility.yul\":3344:3390   */\n      tag_115\n      jump\t// in\n    tag_146:\n      sub(exp(0x02, 0xa0), 0x01)\n        /* \"#utility.yul\":3499:3501   */\n      dup1\n        /* \"#utility.yul\":3491:3497   */\n      dup9\n        /* \"#utility.yul\":3487:3502   */\n      and\n        /* \"#utility.yul\":3482:3484   */\n      0x20\n        /* \"#utility.yul\":3471:3480   */\n      dup6\n        /* \"#utility.yul\":3467:3485   */\n      add\n        /* \"#utility.yul\":3460:3503   */\n      mstore\n        /* \"#utility.yul\":3539:3545   */\n      dup7\n        /* \"#utility.yul\":3534:3536   */\n      0x40\n        /* \"#utility.yul\":3523:3532   */\n      dup6\n        /* \"#utility.yul\":3519:3537   */\n      add\n        /* \"#utility.yul\":3512:3546   */\n      mstore\n        /* \"#utility.yul\":3594:3603   */\n      dup4\n        /* \"#utility.yul\":3586:3592   */\n      dup3\n        /* \"#utility.yul\":3582:3604   */\n      sub\n        /* \"#utility.yul\":3577:3579   */\n      0x60\n        /* \"#utility.yul\":3566:3575   */\n      dup6\n        /* \"#utility.yul\":3562:3580   */\n      add\n        /* \"#utility.yul\":3555:3605   */\n      mstore\n        /* \"#utility.yul\":3622:3655   */\n      tag_147\n        /* \"#utility.yul\":3648:3654   */\n      dup3\n        /* \"#utility.yul\":3640:3646   */\n      dup8\n        /* \"#utility.yul\":3622:3655   */\n      tag_115\n      jump\t// in\n    tag_147:\n        /* \"#utility.yul\":3614:3655   */\n      swap3\n      pop\n        /* \"#utility.yul\":3704:3706   */\n      dup1\n        /* \"#utility.yul\":3696:3702   */\n      dup6\n        /* \"#utility.yul\":3692:3707   */\n      and\n        /* \"#utility.yul\":3686:3689   */\n      0x80\n        /* \"#utility.yul\":3675:3684   */\n      dup6\n        /* \"#utility.yul\":3671:3690   */\n      add\n        /* \"#utility.yul\":3664:3708   */\n      mstore\n      pop\n      pop\n        /* \"#utility.yul\":3036:3714   */\n      swap7\n      swap6\n      pop\n      pop\n      pop\n      pop\n      pop\n      pop\n      jump\t// out\n    stop\n\n    sub_0: assembly {\n            /* \"contracts/Tenant.sol\":89:1171  contract Tenant is BaseUser {... */\n          mstore(0x40, 0x80)\n            /* \"contracts/Tenant.sol\":391:752  constructor (... */\n          mload(0x40)\n          sub(codesize, bytecodeSize)\n          dup1\n          bytecodeSize\n          dup4\n          codecopy\n          dup2\n          add\n          0x40\n          dup2\n          swap1\n          mstore\n          tag_1\n          swap2\n          tag_2\n          jump\t// in\n        tag_1:\n            /* \"contracts/Tenant.sol\":589:593  name */\n          dup5\n            /* \"contracts/Tenant.sol\":595:612  newWithdraAddress */\n          dup5\n            /* \"contracts/BaseUser.sol\":220:224  name */\n          0x00\n            /* \"contracts/BaseUser.sol\":220:234  name = newName */\n          tag_6\n            /* \"contracts/Tenant.sol\":589:593  name */\n          dup4\n            /* \"contracts/BaseUser.sol\":220:224  name */\n          dup3\n            /* \"contracts/BaseUser.sol\":220:234  name = newName */\n          tag_7\n          jump\t// in\n        tag_6:\n          pop\n            /* \"contracts/BaseUser.sol\":245:260  withdrawAddress */\n          0x01\n            /* \"contracts/BaseUser.sol\":245:273  withdrawAddress = newAddress */\n          dup1\n          sload\n          not(sub(exp(0x02, 0xa0), 0x01))\n          and\n          sub(exp(0x02, 0xa0), 0x01)\n          swap3\n          swap1\n          swap3\n          and\n          swap2\n          swap1\n          swap2\n          or\n          swap1\n          sstore\n          pop\n            /* \"contracts/Tenant.sol\":636:648  servicePrice */\n          0x02\n            /* \"contracts/Tenant.sol\":636:656  servicePrice = price */\n          dup4\n          swap1\n          sstore\n            /* \"contracts/Tenant.sol\":667:682  buildingAddress */\n          0x03\n            /* \"contracts/Tenant.sol\":667:699  buildingAddress = newBuildingAdd */\n          tag_9\n            /* \"contracts/Tenant.sol\":685:699  newBuildingAdd */\n          dup4\n            /* \"contracts/Tenant.sol\":667:682  buildingAddress */\n          dup3\n            /* \"contracts/Tenant.sol\":667:699  buildingAddress = newBuildingAdd */\n          tag_7\n          jump\t// in\n        tag_9:\n          pop\n            /* \"contracts/Tenant.sol\":710:726  consorcioAddress */\n          0x04\n            /* \"contracts/Tenant.sol\":710:744  consorcioAddress = newConsorcioAdd */\n          dup1\n          sload\n          not(sub(exp(0x02, 0xa0), 0x01))\n          and\n          sub(exp(0x02, 0xa0), 0x01)\n          swap3\n          swap1\n          swap3\n          and\n          swap2\n          swap1\n          swap2\n          or\n          swap1\n          sstore\n          pop\n            /* \"contracts/Tenant.sol\":89:1171  contract Tenant is BaseUser {... */\n          tag_18\n          swap3\n          pop\n          pop\n          pop\n          jump\n            /* \"#utility.yul\":14:198   */\n        tag_11:\n            /* \"#utility.yul\":66:143   */\n          0x4e487b7100000000000000000000000000000000000000000000000000000000\n            /* \"#utility.yul\":63:64   */\n          0x00\n            /* \"#utility.yul\":56:144   */\n          mstore\n            /* \"#utility.yul\":163:167   */\n          0x41\n            /* \"#utility.yul\":160:161   */\n          0x04\n            /* \"#utility.yul\":153:168   */\n          mstore\n            /* \"#utility.yul\":187:191   */\n          0x24\n            /* \"#utility.yul\":184:185   */\n          0x00\n            /* \"#utility.yul\":177:192   */\n          revert\n            /* \"#utility.yul\":203:1043   */\n        tag_12:\n            /* \"#utility.yul\":257:262   */\n          0x00\n            /* \"#utility.yul\":310:313   */\n          dup3\n            /* \"#utility.yul\":303:307   */\n          0x1f\n            /* \"#utility.yul\":295:301   */\n          dup4\n            /* \"#utility.yul\":291:308   */\n          add\n            /* \"#utility.yul\":287:314   */\n          slt\n            /* \"#utility.yul\":277:332   */\n          tag_21\n          jumpi\n            /* \"#utility.yul\":328:329   */\n          0x00\n            /* \"#utility.yul\":325:326   */\n          dup1\n            /* \"#utility.yul\":318:330   */\n          revert\n            /* \"#utility.yul\":277:332   */\n        tag_21:\n            /* \"#utility.yul\":357:363   */\n          dup2\n            /* \"#utility.yul\":351:364   */\n          mload\n          sub(exp(0x02, 0x40), 0x01)\n            /* \"#utility.yul\":420:422   */\n          dup1\n            /* \"#utility.yul\":416:418   */\n          dup3\n            /* \"#utility.yul\":413:423   */\n          gt\n            /* \"#utility.yul\":410:446   */\n          iszero\n          tag_23\n          jumpi\n            /* \"#utility.yul\":426:444   */\n          tag_23\n          tag_11\n          jump\t// in\n        tag_23:\n            /* \"#utility.yul\":501:503   */\n          0x40\n            /* \"#utility.yul\":495:504   */\n          mload\n            /* \"#utility.yul\":469:471   */\n          0x1f\n            /* \"#utility.yul\":555:568   */\n          dup4\n          add\n          not(0x1f)\n            /* \"#utility.yul\":551:573   */\n          swap1\n          dup2\n          and\n            /* \"#utility.yul\":575:577   */\n          0x3f\n            /* \"#utility.yul\":547:578   */\n          add\n            /* \"#utility.yul\":543:583   */\n          and\n            /* \"#utility.yul\":531:584   */\n          dup2\n          add\n          swap1\n            /* \"#utility.yul\":599:617   */\n          dup3\n          dup3\n          gt\n            /* \"#utility.yul\":619:641   */\n          dup2\n          dup4\n          lt\n            /* \"#utility.yul\":596:642   */\n          or\n            /* \"#utility.yul\":593:665   */\n          iszero\n          tag_25\n          jumpi\n            /* \"#utility.yul\":645:663   */\n          tag_25\n          tag_11\n          jump\t// in\n        tag_25:\n            /* \"#utility.yul\":685:695   */\n          dup2\n            /* \"#utility.yul\":681:683   */\n          0x40\n            /* \"#utility.yul\":674:696   */\n          mstore\n            /* \"#utility.yul\":720:722   */\n          dup4\n            /* \"#utility.yul\":712:718   */\n          dup2\n            /* \"#utility.yul\":705:723   */\n          mstore\n            /* \"#utility.yul\":742:746   */\n          0x20\n            /* \"#utility.yul\":732:746   */\n          swap3\n          pop\n            /* \"#utility.yul\":787:790   */\n          dup7\n            /* \"#utility.yul\":782:784   */\n          dup4\n            /* \"#utility.yul\":777:779   */\n          dup6\n            /* \"#utility.yul\":769:775   */\n          dup9\n            /* \"#utility.yul\":765:780   */\n          add\n            /* \"#utility.yul\":761:785   */\n          add\n            /* \"#utility.yul\":758:791   */\n          gt\n            /* \"#utility.yul\":755:808   */\n          iszero\n          tag_26\n          jumpi\n            /* \"#utility.yul\":804:805   */\n          0x00\n            /* \"#utility.yul\":801:802   */\n          dup1\n            /* \"#utility.yul\":794:806   */\n          revert\n            /* \"#utility.yul\":755:808   */\n        tag_26:\n            /* \"#utility.yul\":826:827   */\n          0x00\n            /* \"#utility.yul\":817:827   */\n          swap2\n          pop\n            /* \"#utility.yul\":836:969   */\n        tag_27:\n            /* \"#utility.yul\":850:852   */\n          dup4\n            /* \"#utility.yul\":847:848   */\n          dup3\n            /* \"#utility.yul\":844:853   */\n          lt\n            /* \"#utility.yul\":836:969   */\n          iszero\n          tag_29\n          jumpi\n            /* \"#utility.yul\":938:952   */\n          dup6\n          dup3\n          add\n            /* \"#utility.yul\":934:957   */\n          dup4\n          add\n            /* \"#utility.yul\":928:958   */\n          mload\n            /* \"#utility.yul\":907:921   */\n          dup2\n          dup4\n          add\n            /* \"#utility.yul\":903:926   */\n          dup5\n          add\n            /* \"#utility.yul\":896:959   */\n          mstore\n            /* \"#utility.yul\":861:871   */\n          swap1\n          dup3\n          add\n          swap1\n            /* \"#utility.yul\":836:969   */\n          jump(tag_27)\n        tag_29:\n            /* \"#utility.yul\":1011:1012   */\n          0x00\n            /* \"#utility.yul\":989:1004   */\n          swap4\n          dup2\n          add\n            /* \"#utility.yul\":985:1009   */\n          swap1\n          swap3\n          add\n            /* \"#utility.yul\":978:1013   */\n          swap3\n          swap1\n          swap3\n          mstore\n            /* \"#utility.yul\":993:999   */\n          swap5\n            /* \"#utility.yul\":203:1043   */\n          swap4\n          pop\n          pop\n          pop\n          pop\n          jump\t// out\n            /* \"#utility.yul\":1048:1225   */\n        tag_13:\n            /* \"#utility.yul\":1127:1140   */\n          dup1\n          mload\n          sub(exp(0x02, 0xa0), 0x01)\n            /* \"#utility.yul\":1169:1200   */\n          dup2\n          and\n            /* \"#utility.yul\":1159:1201   */\n          dup2\n          eq\n            /* \"#utility.yul\":1149:1219   */\n          tag_31\n          jumpi\n            /* \"#utility.yul\":1215:1216   */\n          0x00\n            /* \"#utility.yul\":1212:1213   */\n          dup1\n            /* \"#utility.yul\":1205:1217   */\n          revert\n            /* \"#utility.yul\":1149:1219   */\n        tag_31:\n            /* \"#utility.yul\":1048:1225   */\n          swap2\n          swap1\n          pop\n          jump\t// out\n            /* \"#utility.yul\":1230:2025   */\n        tag_2:\n            /* \"#utility.yul\":1356:1362   */\n          0x00\n            /* \"#utility.yul\":1364:1370   */\n          dup1\n            /* \"#utility.yul\":1372:1378   */\n          0x00\n            /* \"#utility.yul\":1380:1386   */\n          dup1\n            /* \"#utility.yul\":1388:1394   */\n          0x00\n            /* \"#utility.yul\":1441:1444   */\n          0xa0\n            /* \"#utility.yul\":1429:1438   */\n          dup7\n            /* \"#utility.yul\":1420:1427   */\n          dup9\n            /* \"#utility.yul\":1416:1439   */\n          sub\n            /* \"#utility.yul\":1412:1445   */\n          slt\n            /* \"#utility.yul\":1409:1462   */\n          iszero\n          tag_33\n          jumpi\n            /* \"#utility.yul\":1458:1459   */\n          0x00\n            /* \"#utility.yul\":1455:1456   */\n          dup1\n            /* \"#utility.yul\":1448:1460   */\n          revert\n            /* \"#utility.yul\":1409:1462   */\n        tag_33:\n            /* \"#utility.yul\":1491:1500   */\n          dup6\n            /* \"#utility.yul\":1485:1501   */\n          mload\n          sub(exp(0x02, 0x40), 0x01)\n            /* \"#utility.yul\":1561:1563   */\n          dup1\n            /* \"#utility.yul\":1553:1559   */\n          dup3\n            /* \"#utility.yul\":1550:1564   */\n          gt\n            /* \"#utility.yul\":1547:1581   */\n          iszero\n          tag_34\n          jumpi\n            /* \"#utility.yul\":1577:1578   */\n          0x00\n            /* \"#utility.yul\":1574:1575   */\n          dup1\n            /* \"#utility.yul\":1567:1579   */\n          revert\n            /* \"#utility.yul\":1547:1581   */\n        tag_34:\n            /* \"#utility.yul\":1600:1661   */\n          tag_35\n            /* \"#utility.yul\":1653:1660   */\n          dup10\n            /* \"#utility.yul\":1644:1650   */\n          dup4\n            /* \"#utility.yul\":1633:1642   */\n          dup11\n            /* \"#utility.yul\":1629:1651   */\n          add\n            /* \"#utility.yul\":1600:1661   */\n          tag_12\n          jump\t// in\n        tag_35:\n            /* \"#utility.yul\":1590:1661   */\n          swap7\n          pop\n            /* \"#utility.yul\":1680:1729   */\n          tag_36\n            /* \"#utility.yul\":1725:1727   */\n          0x20\n            /* \"#utility.yul\":1714:1723   */\n          dup10\n            /* \"#utility.yul\":1710:1728   */\n          add\n            /* \"#utility.yul\":1680:1729   */\n          tag_13\n          jump\t// in\n        tag_36:\n            /* \"#utility.yul\":1670:1729   */\n          swap6\n          pop\n            /* \"#utility.yul\":1769:1771   */\n          0x40\n            /* \"#utility.yul\":1758:1767   */\n          dup9\n            /* \"#utility.yul\":1754:1772   */\n          add\n            /* \"#utility.yul\":1748:1773   */\n          mload\n            /* \"#utility.yul\":1738:1773   */\n          swap5\n          pop\n            /* \"#utility.yul\":1819:1821   */\n          0x60\n            /* \"#utility.yul\":1808:1817   */\n          dup9\n            /* \"#utility.yul\":1804:1822   */\n          add\n            /* \"#utility.yul\":1798:1823   */\n          mload\n            /* \"#utility.yul\":1782:1823   */\n          swap2\n          pop\n            /* \"#utility.yul\":1848:1850   */\n          dup1\n            /* \"#utility.yul\":1838:1846   */\n          dup3\n            /* \"#utility.yul\":1835:1851   */\n          gt\n            /* \"#utility.yul\":1832:1868   */\n          iszero\n          tag_37\n          jumpi\n            /* \"#utility.yul\":1864:1865   */\n          0x00\n            /* \"#utility.yul\":1861:1862   */\n          dup1\n            /* \"#utility.yul\":1854:1866   */\n          revert\n            /* \"#utility.yul\":1832:1868   */\n        tag_37:\n          pop\n            /* \"#utility.yul\":1887:1950   */\n          tag_38\n            /* \"#utility.yul\":1942:1949   */\n          dup9\n            /* \"#utility.yul\":1931:1939   */\n          dup3\n            /* \"#utility.yul\":1920:1929   */\n          dup10\n            /* \"#utility.yul\":1916:1940   */\n          add\n            /* \"#utility.yul\":1887:1950   */\n          tag_12\n          jump\t// in\n        tag_38:\n            /* \"#utility.yul\":1877:1950   */\n          swap3\n          pop\n          pop\n            /* \"#utility.yul\":1969:2019   */\n          tag_39\n            /* \"#utility.yul\":2014:2017   */\n          0x80\n            /* \"#utility.yul\":2003:2012   */\n          dup8\n            /* \"#utility.yul\":1999:2018   */\n          add\n            /* \"#utility.yul\":1969:2019   */\n          tag_13\n          jump\t// in\n        tag_39:\n            /* \"#utility.yul\":1959:2019   */\n          swap1\n          pop\n            /* \"#utility.yul\":1230:2025   */\n          swap3\n          swap6\n          pop\n          swap3\n          swap6\n          swap1\n          swap4\n          pop\n          jump\t// out\n            /* \"#utility.yul\":2030:2467   */\n        tag_14:\n            /* \"#utility.yul\":2115:2116   */\n          0x02\n            /* \"#utility.yul\":2105:2117   */\n          dup2\n          div\n            /* \"#utility.yul\":2162:2163   */\n          0x01\n            /* \"#utility.yul\":2152:2164   */\n          dup3\n          and\n          dup1\n            /* \"#utility.yul\":2173:2234   */\n          tag_41\n          jumpi\n            /* \"#utility.yul\":2227:2231   */\n          0x7f\n            /* \"#utility.yul\":2219:2225   */\n          dup3\n            /* \"#utility.yul\":2215:2232   */\n          and\n            /* \"#utility.yul\":2205:2232   */\n          swap2\n          pop\n            /* \"#utility.yul\":2173:2234   */\n        tag_41:\n            /* \"#utility.yul\":2280:2282   */\n          0x20\n            /* \"#utility.yul\":2272:2278   */\n          dup3\n            /* \"#utility.yul\":2269:2283   */\n          lt\n            /* \"#utility.yul\":2249:2267   */\n          dup2\n            /* \"#utility.yul\":2246:2284   */\n          sub\n            /* \"#utility.yul\":2243:2461   */\n          tag_42\n          jumpi\n            /* \"#utility.yul\":2317:2394   */\n          0x4e487b7100000000000000000000000000000000000000000000000000000000\n            /* \"#utility.yul\":2314:2315   */\n          0x00\n            /* \"#utility.yul\":2307:2395   */\n          mstore\n            /* \"#utility.yul\":2418:2422   */\n          0x22\n            /* \"#utility.yul\":2415:2416   */\n          0x04\n            /* \"#utility.yul\":2408:2423   */\n          mstore\n            /* \"#utility.yul\":2446:2450   */\n          0x24\n            /* \"#utility.yul\":2443:2444   */\n          0x00\n            /* \"#utility.yul\":2436:2451   */\n          revert\n            /* \"#utility.yul\":2243:2461   */\n        tag_42:\n          pop\n            /* \"#utility.yul\":2030:2467   */\n          swap2\n          swap1\n          pop\n          jump\t// out\n            /* \"#utility.yul\":2598:3149   */\n        tag_16:\n            /* \"#utility.yul\":2700:2702   */\n          0x1f\n            /* \"#utility.yul\":2695:2698   */\n          dup3\n            /* \"#utility.yul\":2692:2703   */\n          gt\n            /* \"#utility.yul\":2689:3143   */\n          iszero\n          tag_45\n          jumpi\n            /* \"#utility.yul\":2736:2737   */\n          0x00\n            /* \"#utility.yul\":2761:2766   */\n          dup2\n            /* \"#utility.yul\":2757:2759   */\n          dup2\n            /* \"#utility.yul\":2750:2767   */\n          mstore\n            /* \"#utility.yul\":2806:2810   */\n          0x20\n            /* \"#utility.yul\":2802:2804   */\n          dup2\n            /* \"#utility.yul\":2792:2811   */\n          keccak256\n            /* \"#utility.yul\":2878:2882   */\n          0x20\n            /* \"#utility.yul\":2873:2875   */\n          0x1f\n            /* \"#utility.yul\":2861:2871   */\n          dup7\n            /* \"#utility.yul\":2857:2876   */\n          add\n            /* \"#utility.yul\":2853:2883   */\n          div\n            /* \"#utility.yul\":2847:2851   */\n          dup2\n            /* \"#utility.yul\":2843:2884   */\n          add\n            /* \"#utility.yul\":2915:2919   */\n          0x20\n            /* \"#utility.yul\":2903:2913   */\n          dup7\n            /* \"#utility.yul\":2900:2920   */\n          lt\n            /* \"#utility.yul\":2897:2944   */\n          iszero\n          tag_46\n          jumpi\n          pop\n            /* \"#utility.yul\":2938:2942   */\n          dup1\n            /* \"#utility.yul\":2897:2944   */\n        tag_46:\n            /* \"#utility.yul\":2995:2999   */\n          0x20\n            /* \"#utility.yul\":2990:2992   */\n          0x1f\n            /* \"#utility.yul\":2985:2988   */\n          dup7\n            /* \"#utility.yul\":2981:2993   */\n          add\n            /* \"#utility.yul\":2977:3000   */\n          div\n            /* \"#utility.yul\":2971:2975   */\n          dup3\n            /* \"#utility.yul\":2967:3001   */\n          add\n            /* \"#utility.yul\":2957:3001   */\n          swap2\n          pop\n            /* \"#utility.yul\":3051:3133   */\n        tag_47:\n            /* \"#utility.yul\":3069:3071   */\n          dup2\n            /* \"#utility.yul\":3062:3067   */\n          dup2\n            /* \"#utility.yul\":3059:3072   */\n          lt\n            /* \"#utility.yul\":3051:3133   */\n          iszero\n          tag_49\n          jumpi\n            /* \"#utility.yul\":3114:3131   */\n          dup3\n          dup2\n          sstore\n            /* \"#utility.yul\":3095:3096   */\n          0x01\n            /* \"#utility.yul\":3084:3097   */\n          add\n            /* \"#utility.yul\":3051:3133   */\n          jump(tag_47)\n        tag_49:\n            /* \"#utility.yul\":3055:3058   */\n          pop\n          pop\n          pop\n            /* \"#utility.yul\":2689:3143   */\n        tag_45:\n            /* \"#utility.yul\":2598:3149   */\n          pop\n          pop\n          pop\n          jump\t// out\n            /* \"#utility.yul\":3333:4692   */\n        tag_7:\n            /* \"#utility.yul\":3459:3462   */\n          dup2\n            /* \"#utility.yul\":3453:3463   */\n          mload\n          sub(exp(0x02, 0x40), 0x01)\n            /* \"#utility.yul\":3478:3484   */\n          dup2\n            /* \"#utility.yul\":3475:3505   */\n          gt\n            /* \"#utility.yul\":3472:3528   */\n          iszero\n          tag_53\n          jumpi\n            /* \"#utility.yul\":3508:3526   */\n          tag_53\n          tag_11\n          jump\t// in\n        tag_53:\n            /* \"#utility.yul\":3537:3634   */\n          tag_54\n            /* \"#utility.yul\":3627:3633   */\n          dup2\n            /* \"#utility.yul\":3587:3625   */\n          tag_55\n            /* \"#utility.yul\":3619:3623   */\n          dup5\n            /* \"#utility.yul\":3613:3624   */\n          sload\n            /* \"#utility.yul\":3587:3625   */\n          tag_14\n          jump\t// in\n        tag_55:\n            /* \"#utility.yul\":3581:3585   */\n          dup5\n            /* \"#utility.yul\":3537:3634   */\n          tag_16\n          jump\t// in\n        tag_54:\n            /* \"#utility.yul\":3689:3693   */\n          0x20\n          dup1\n            /* \"#utility.yul\":3753:3755   */\n          0x1f\n            /* \"#utility.yul\":3742:3756   */\n          dup4\n          gt\n            /* \"#utility.yul\":3770:3771   */\n          0x01\n            /* \"#utility.yul\":3765:4435   */\n          dup2\n          eq\n          tag_57\n          jumpi\n            /* \"#utility.yul\":4479:4480   */\n          0x00\n            /* \"#utility.yul\":4496:4502   */\n          dup5\n            /* \"#utility.yul\":4493:4582   */\n          iszero\n          tag_58\n          jumpi\n          pop\n            /* \"#utility.yul\":4548:4567   */\n          dup6\n          dup4\n          add\n            /* \"#utility.yul\":4542:4568   */\n          mload\n            /* \"#utility.yul\":4493:4582   */\n        tag_58:\n            /* \"#utility.yul\":3314:3315   */\n          0x02\n            /* \"#utility.yul\":3310:3321   */\n          dup1\n          dup7\n          mul\n            /* \"#utility.yul\":3297:3298   */\n          0x08\n            /* \"#utility.yul\":3293:3304   */\n          dup8\n          mul\n            /* \"#utility.yul\":3286:3305   */\n          swap1\n          swap2\n          exp\n          not(0x00)\n            /* \"#utility.yul\":3274:3306   */\n          div\n            /* \"#utility.yul\":3270:3307   */\n          not\n            /* \"#utility.yul\":3260:3308   */\n          dup3\n          and\n            /* \"#utility.yul\":3257:3322   */\n          or\n            /* \"#utility.yul\":4602:4606   */\n          dup7\n            /* \"#utility.yul\":4595:4676   */\n          sstore\n          pop\n            /* \"#utility.yul\":3735:4686   */\n          jump(tag_49)\n            /* \"#utility.yul\":3765:4435   */\n        tag_57:\n            /* \"#utility.yul\":2545:2546   */\n          0x00\n            /* \"#utility.yul\":2538:2552   */\n          dup6\n          dup2\n          mstore\n            /* \"#utility.yul\":2582:2586   */\n          0x20\n            /* \"#utility.yul\":2569:2587   */\n          dup2\n          keccak256\n          not(0x1f)\n            /* \"#utility.yul\":3801:3821   */\n          dup7\n          and\n          swap2\n            /* \"#utility.yul\":3919:4155   */\n        tag_61:\n            /* \"#utility.yul\":3933:3940   */\n          dup3\n            /* \"#utility.yul\":3930:3931   */\n          dup2\n            /* \"#utility.yul\":3927:3941   */\n          lt\n            /* \"#utility.yul\":3919:4155   */\n          iszero\n          tag_63\n          jumpi\n            /* \"#utility.yul\":4022:4041   */\n          dup9\n          dup7\n          add\n            /* \"#utility.yul\":4016:4042   */\n          mload\n            /* \"#utility.yul\":4001:4043   */\n          dup3\n          sstore\n            /* \"#utility.yul\":4114:4141   */\n          swap5\n          dup5\n          add\n          swap5\n            /* \"#utility.yul\":4082:4083   */\n          0x01\n            /* \"#utility.yul\":4070:4084   */\n          swap1\n          swap2\n          add\n          swap1\n            /* \"#utility.yul\":3949:3968   */\n          dup5\n          add\n            /* \"#utility.yul\":3919:4155   */\n          jump(tag_61)\n        tag_63:\n            /* \"#utility.yul\":3923:3926   */\n          pop\n            /* \"#utility.yul\":4183:4189   */\n          dup6\n            /* \"#utility.yul\":4174:4181   */\n          dup3\n            /* \"#utility.yul\":4171:4190   */\n          lt\n            /* \"#utility.yul\":4168:4376   */\n          iszero\n          tag_64\n          jumpi\n            /* \"#utility.yul\":4244:4263   */\n          dup8\n          dup6\n          add\n            /* \"#utility.yul\":4238:4264   */\n          mload\n            /* \"#utility.yul\":4338:4339   */\n          0x08\n            /* \"#utility.yul\":4353:4355   */\n          0x1f\n            /* \"#utility.yul\":4341:4356   */\n          dup9\n          and\n            /* \"#utility.yul\":4334:4357   */\n          mul\n            /* \"#utility.yul\":4331:4332   */\n          0x02\n            /* \"#utility.yul\":4327:4358   */\n          exp\n          not(0x00)\n            /* \"#utility.yul\":4315:4359   */\n          div\n            /* \"#utility.yul\":4311:4360   */\n          not\n            /* \"#utility.yul\":4296:4361   */\n          and\n            /* \"#utility.yul\":4281:4362   */\n          dup2\n          sstore\n            /* \"#utility.yul\":4168:4376   */\n        tag_64:\n          pop\n          pop\n          pop\n          pop\n          pop\n            /* \"#utility.yul\":4418:4419   */\n          0x02\n            /* \"#utility.yul\":4406:4420   */\n          mul\n            /* \"#utility.yul\":4422:4423   */\n          0x01\n            /* \"#utility.yul\":4402:4424   */\n          add\n            /* \"#utility.yul\":4389:4425   */\n          swap1\n          sstore\n          pop\n            /* \"#utility.yul\":3333:4692   */\n          jump\t// out\n        tag_18:\n            /* \"contracts/Tenant.sol\":89:1171  contract Tenant is BaseUser {... */\n          dataSize(sub_0)\n          dup1\n          dataOffset(sub_0)\n          0x00\n          codecopy\n          0x00\n          return\n        stop\n\n        sub_0: assembly {\n                /* \"contracts/Tenant.sol\":89:1171  contract Tenant is BaseUser {... */\n              mstore(0x40, 0x80)\n              jumpi(tag_1, lt(calldatasize, 0x04))\n              div(calldataload(0x00), 0x0100000000000000000000000000000000000000000000000000000000)\n              0xd0e30db0\n              dup2\n              eq\n              tag_3\n              jumpi\n              dup1\n              0xd4e93292\n              eq\n              tag_4\n              jumpi\n              dup1\n              0xda6e75c2\n              eq\n              tag_5\n              jumpi\n              stop\n            tag_1:\n              jumpi(tag_2, calldatasize)\n              stop\n            tag_2:\n              stop\n                /* \"contracts/Tenant.sol\":760:842  function deposit() public payable {... */\n            tag_3:\n              tag_2\n              tag_11\n              jump\t// in\n                /* \"contracts/BaseUser.sol\":289:389  function withdrawal() public {... */\n            tag_4:\n              callvalue\n              dup1\n              iszero\n              tag_2\n              jumpi\n              0x00\n              dup1\n              revert\n                /* \"contracts/Tenant.sol\":850:1166  function payExpenses() public {... */\n            tag_5:\n              callvalue\n              dup1\n              iszero\n              tag_15\n              jumpi\n              0x00\n              dup1\n              revert\n            tag_15:\n              pop\n              tag_2\n              tag_17\n              jump\t// in\n                /* \"contracts/Tenant.sol\":760:842  function deposit() public payable {... */\n            tag_11:\n                /* \"contracts/Tenant.sol\":810:834  EtherReceived(msg.value) */\n              mload(0x40)\n                /* \"contracts/Tenant.sol\":824:833  msg.value */\n              callvalue\n                /* \"#utility.yul\":160:185   */\n              dup2\n              mstore\n                /* \"contracts/Tenant.sol\":810:834  EtherReceived(msg.value) */\n              0x0a34e3d4f1e6b837dbce1011b61499fa1a483a0abee6a7a6697660b4b2d97132\n              swap1\n                /* \"#utility.yul\":148:150   */\n              0x20\n                /* \"#utility.yul\":133:151   */\n              add\n                /* \"contracts/Tenant.sol\":810:834  EtherReceived(msg.value) */\n              mload(0x40)\n              dup1\n              swap2\n              sub\n              swap1\n              log1\n                /* \"contracts/Tenant.sol\":760:842  function deposit() public payable {... */\n              jump\t// out\n                /* \"contracts/Tenant.sol\":850:1166  function payExpenses() public {... */\n            tag_17:\n                /* \"contracts/Tenant.sol\":924:936  servicePrice */\n              sload(0x02)\n                /* \"contracts/Tenant.sol\":907:911  this */\n              address\n                /* \"contracts/Tenant.sol\":899:920  address(this).balance */\n              balance\n                /* \"contracts/Tenant.sol\":899:936  address(this).balance >= servicePrice */\n              lt\n              iszero\n                /* \"contracts/Tenant.sol\":891:961  require(address(this).balance >= servicePrice, \"Fondos insuficientes\") */\n              tag_23\n              jumpi\n              mload(0x40)\n              0x08c379a000000000000000000000000000000000000000000000000000000000\n              dup2\n              mstore\n                /* \"#utility.yul\":398:400   */\n              0x20\n                /* \"contracts/Tenant.sol\":891:961  require(address(this).balance >= servicePrice, \"Fondos insuficientes\") */\n              0x04\n              dup3\n              add\n                /* \"#utility.yul\":380:401   */\n              mstore\n                /* \"#utility.yul\":437:439   */\n              0x14\n                /* \"#utility.yul\":417:435   */\n              0x24\n              dup3\n              add\n                /* \"#utility.yul\":410:440   */\n              mstore\n                /* \"#utility.yul\":476:498   */\n              0x466f6e646f7320696e737566696369656e746573000000000000000000000000\n                /* \"#utility.yul\":456:474   */\n              0x44\n              dup3\n              add\n                /* \"#utility.yul\":449:499   */\n              mstore\n                /* \"#utility.yul\":516:534   */\n              0x64\n              add\n                /* \"contracts/Tenant.sol\":891:961  require(address(this).balance >= servicePrice, \"Fondos insuficientes\") */\n            tag_24:\n              mload(0x40)\n              dup1\n              swap2\n              sub\n              swap1\n              revert\n            tag_23:\n                /* \"contracts/Tenant.sol\":987:1003  consorcioAddress */\n              sload(0x04)\n                /* \"contracts/Tenant.sol\":1031:1043  servicePrice */\n              sload(0x02)\n                /* \"contracts/Tenant.sol\":987:1058  consorcioAddress.call {... */\n              mload(0x40)\n                /* \"contracts/Tenant.sol\":973:982  bool sent */\n              0x00\n              swap3\n                /* \"contracts/Tenant.sol\":987:1003  consorcioAddress */\n              0xffffffffffffffffffffffffffffffffffffffff\n              and\n              swap2\n                /* \"contracts/Tenant.sol\":1031:1043  servicePrice */\n              swap1\n                /* \"contracts/Tenant.sol\":973:982  bool sent */\n              dup4\n                /* \"contracts/Tenant.sol\":987:1058  consorcioAddress.call {... */\n              dup2\n                /* \"contracts/Tenant.sol\":973:982  bool sent */\n              dup2\n                /* \"contracts/Tenant.sol\":987:1058  consorcioAddress.call {... */\n              dup2\n                /* \"contracts/Tenant.sol\":1031:1043  servicePrice */\n              dup6\n                /* \"contracts/Tenant.sol\":987:1003  consorcioAddress */\n              dup8\n                /* \"contracts/Tenant.sol\":987:1058  consorcioAddress.call {... */\n              gas\n              call\n              swap3\n              pop\n              pop\n              pop\n              returndatasize\n              dup1\n              0x00\n              dup2\n              eq\n              tag_30\n              jumpi\n              mload(0x40)\n              swap2\n              pop\n              and(add(returndatasize, 0x3f), not(0x1f))\n              dup3\n              add\n              0x40\n              mstore\n              returndatasize\n              dup3\n              mstore\n              returndatasize\n              0x00\n              0x20\n              dup5\n              add\n              returndatacopy\n              jump(tag_29)\n            tag_30:\n              0x60\n              swap2\n              pop\n            tag_29:\n              pop\n                /* \"contracts/Tenant.sol\":972:1058  (bool sent,) = consorcioAddress.call {... */\n              swap1\n              swap2\n              pop\n              pop\n                /* \"contracts/Tenant.sol\":1085:1089  true */\n              0x01\n                /* \"contracts/Tenant.sol\":1077:1089  sent == true */\n              dup2\n              iszero\n              iszero\n              eq\n                /* \"contracts/Tenant.sol\":1069:1116  require(sent == true, \"Fallo la transferencia\") */\n              tag_31\n              jumpi\n              mload(0x40)\n              0x08c379a000000000000000000000000000000000000000000000000000000000\n              dup2\n              mstore\n                /* \"#utility.yul\":957:959   */\n              0x20\n                /* \"contracts/Tenant.sol\":1069:1116  require(sent == true, \"Fallo la transferencia\") */\n              0x04\n              dup3\n              add\n                /* \"#utility.yul\":939:960   */\n              mstore\n                /* \"#utility.yul\":996:998   */\n              0x16\n                /* \"#utility.yul\":976:994   */\n              0x24\n              dup3\n              add\n                /* \"#utility.yul\":969:999   */\n              mstore\n                /* \"#utility.yul\":1035:1059   */\n              0x46616c6c6f206c61207472616e73666572656e63696100000000000000000000\n                /* \"#utility.yul\":1015:1033   */\n              0x44\n              dup3\n              add\n                /* \"#utility.yul\":1008:1060   */\n              mstore\n                /* \"#utility.yul\":1077:1095   */\n              0x64\n              add\n                /* \"contracts/Tenant.sol\":1069:1116  require(sent == true, \"Fallo la transferencia\") */\n              tag_24\n                /* \"#utility.yul\":755:1101   */\n              jump\n                /* \"contracts/Tenant.sol\":1069:1116  require(sent == true, \"Fallo la transferencia\") */\n            tag_31:\n                /* \"contracts/Tenant.sol\":1132:1158  ExpensesPaid(servicePrice) */\n              0x56e1cf8a52e84572ff49b950fa9a1a1867319bf8eba3bf8c77bc4354678a34c5\n                /* \"contracts/Tenant.sol\":1145:1157  servicePrice */\n              sload(0x02)\n                /* \"contracts/Tenant.sol\":1132:1158  ExpensesPaid(servicePrice) */\n              mload(0x40)\n              tag_34\n              swap2\n                /* \"#utility.yul\":160:185   */\n              dup2\n              mstore\n                /* \"#utility.yul\":148:150   */\n              0x20\n                /* \"#utility.yul\":133:151   */\n              add\n              swap1\n                /* \"#utility.yul\":14:191   */\n              jump\n                /* \"contracts/Tenant.sol\":1132:1158  ExpensesPaid(servicePrice) */\n            tag_34:\n              mload(0x40)\n              dup1\n              swap2\n              sub\n              swap1\n              log1\n                /* \"contracts/Tenant.sol\":880:1166  {... */\n              pop\n                /* \"contracts/Tenant.sol\":850:1166  function payExpenses() public {... */\n              jump\t// out\n\n            auxdata: 0xa2646970667358221220b1579785c0bd677379c911dd4a2f881f4c15e4e1ab81f223e241c06e9df37f6e64736f6c63430008110033\n        }\n    }\n\n    auxdata: 0xa2646970667358221220ed46b8abe051c83c7c1829e75601433668ab4120e4ca9a43e8039555f2ac128764736f6c63430008110033\n}\n",
				"bytecode": {
					"linkReferences": {},
					"object": "608060405234801561001057600080fd5b50610033610025640100000000610038810204565b64010000000061003c810204565b61008c565b3390565b60008054600160a060020a03838116600160a060020a0319831681178455604051919092169283917f8be0079c531659141344cd1fd0a4f28419497f9722a3daafe3b4186f6b6457e09190a35050565b610c978061009b6000396000f3fe608060405260043610620000c4576000357c010000000000000000000000000000000000000000000000000000000090048063cc0395bf1162000086578063cc0395bf1462000169578063cd7d77c5146200018e578063d57efa3b14620000ce578063ec3ab27414620000ce578063f2fde38b14620001b3578063ffceea3c14620000ce57005b806342e36b3b14620000ce5780636f9fb98a14620000e6578063715018a614620001085780637ca2e65614620001205780638da5cb5b146200014957005b36620000cc57005b005b348015620000db57600080fd5b50620000cc620001d8565b348015620000f357600080fd5b50604051303181526020015b60405180910390f35b3480156200011557600080fd5b50620000cc620001e4565b3480156200012d57600080fd5b50305b604051600160a060020a039091168152602001620000ff565b3480156200015657600080fd5b50600054600160a060020a031662000130565b3480156200017657600080fd5b50620000cc620001883660046200050c565b620001fa565b3480156200019b57600080fd5b50620000cc620001ad36600462000593565b6200028c565b348015620001c057600080fd5b50620000cc620001d2366004620005ad565b62000299565b620001e26200034a565b565b620001ee6200034a565b620001e26000620003c0565b620002046200034a565b6002848484843060405162000219906200041d565b620002299594939291906200061a565b604051809103906000f08015801562000246573d6000803e3d6000fd5b50815460018101835560009283526020909220909101805473ffffffffffffffffffffffffffffffffffffffff1916600160a060020a0390921691909117905550505050565b620002966200034a565b50565b620002a36200034a565b600160a060020a0381166200033f576040517f08c379a000000000000000000000000000000000000000000000000000000000815260206004820152602660248201527f4f776e61626c653a206e6577206f776e657220697320746865207a65726f206160448201527f646472657373000000000000000000000000000000000000000000000000000060648201526084015b60405180910390fd5b6200029681620003c0565b600054600160a060020a03163314620001e2576040517f08c379a000000000000000000000000000000000000000000000000000000000815260206004820181905260248201527f4f776e61626c653a2063616c6c6572206973206e6f7420746865206f776e6572604482015260640162000336565b60008054600160a060020a0383811673ffffffffffffffffffffffffffffffffffffffff19831681178455604051919092169283917f8be0079c531659141344cd1fd0a4f28419497f9722a3daafe3b4186f6b6457e09190a35050565b6105f2806200067083390190565b7f4e487b7100000000000000000000000000000000000000000000000000000000600052604160045260246000fd5b600082601f8301126200046c57600080fd5b813567ffffffffffffffff808211156200048a576200048a6200042b565b604051601f8301601f19908116603f01168101908282118183101715620004b557620004b56200042b565b81604052838152866020858801011115620004cf57600080fd5b836020870160208301376000602085830101528094505050505092915050565b8035600160a060020a03811681146200050757600080fd5b919050565b600080600080608085870312156200052357600080fd5b843567ffffffffffffffff808211156200053c57600080fd5b6200054a888389016200045a565b95506200055a60208801620004ef565b94506040870135935060608701359150808211156200057857600080fd5b5062000587878288016200045a565b91505092959194509250565b600060208284031215620005a657600080fd5b5035919050565b600060208284031215620005c057600080fd5b620005cb82620004ef565b9392505050565b6000815180845260005b81811015620005fa57602081850181015186830182015201620005dc565b506000602082860101526020601f19601f83011685010191505092915050565b60a0815260006200062f60a0830188620005d2565b600160a060020a0380881660208501528660408501528382036060850152620006598287620005d2565b925080851660808501525050969550505050505056fe60806040526040516105f23803806105f28339810160408190526100229161017e565b8484600061003083826102ae565b5060018054600160a060020a031916600160a060020a0392909216919091179055506002839055600361006383826102ae565b5060048054600160a060020a031916600160a060020a03929092169190911790555061037392505050565b7f4e487b7100000000000000000000000000000000000000000000000000000000600052604160045260246000fd5b600082601f8301126100ce57600080fd5b81516001604060020a03808211156100e8576100e861008e565b604051601f8301601f19908116603f011681019082821181831017156101105761011061008e565b8160405283815260209250868385880101111561012c57600080fd5b600091505b8382101561014e5785820183015181830184015290820190610131565b600093810190920192909252949350505050565b8051600160a060020a038116811461017957600080fd5b919050565b600080600080600060a0868803121561019657600080fd5b85516001604060020a03808211156101ad57600080fd5b6101b989838a016100bd565b96506101c760208901610162565b95506040880151945060608801519150808211156101e457600080fd5b506101f1888289016100bd565b92505061020060808701610162565b90509295509295909350565b60028104600182168061022057607f821691505b602082108103610259577f4e487b7100000000000000000000000000000000000000000000000000000000600052602260045260246000fd5b50919050565b601f8211156102a9576000818152602081206020601f860104810160208610156102865750805b6020601f860104820191505b818110156102a557828155600101610292565b5050505b505050565b81516001604060020a038111156102c7576102c761008e565b6102db816102d5845461020c565b8461025f565b602080601f83116001811461031457600084156102f85750858301515b60028086026008870290910a60001904198216178655506102a5565b600085815260208120601f198616915b8281101561034357888601518255948401946001909101908401610324565b508582101561036357878501516008601f88160260020a60001904191681555b5050505050600202600101905550565b610270806103826000396000f3fe608060405260043610610051577c01000000000000000000000000000000000000000000000000000000006000350463d0e30db0811461005a578063d4e9329214610062578063da6e75c21461006e57005b3661005857005b005b610058610083565b34801561005857600080fd5b34801561007a57600080fd5b506100586100b8565b6040513481527f0a34e3d4f1e6b837dbce1011b61499fa1a483a0abee6a7a6697660b4b2d971329060200160405180910390a1565b6002543031101561012a576040517f08c379a000000000000000000000000000000000000000000000000000000000815260206004820152601460248201527f466f6e646f7320696e737566696369656e74657300000000000000000000000060448201526064015b60405180910390fd5b60045460025460405160009273ffffffffffffffffffffffffffffffffffffffff1691908381818185875af1925050503d8060008114610186576040519150601f19603f3d011682016040523d82523d6000602084013e61018b565b606091505b50909150506001811515146101fc576040517f08c379a000000000000000000000000000000000000000000000000000000000815260206004820152601660248201527f46616c6c6f206c61207472616e73666572656e636961000000000000000000006044820152606401610121565b7f56e1cf8a52e84572ff49b950fa9a1a1867319bf8eba3bf8c77bc4354678a34c560025460405161022f91815260200190565b60405180910390a15056fea2646970667358221220b1579785c0bd677379c911dd4a2f881f4c15e4e1ab81f223e241c06e9df37f6e64736f6c63430008110033a2646970667358221220ed46b8abe051c83c7c1829e75601433668ab4120e4ca9a43e8039555f2ac128764736f6c63430008110033",
					"opcodes": "PUSH1 0x80 PUSH1 0x40 MSTORE CALLVALUE DUP1 ISZERO PUSH2 0x10 JUMPI PUSH1 0x0 DUP1 REVERT JUMPDEST POP PUSH2 0x33 PUSH2 0x25 PUSH5 0x100000000 PUSH2 0x38 DUP2 MUL DIV JUMP JUMPDEST PUSH5 0x100000000 PUSH2 0x3C DUP2 MUL DIV JUMP JUMPDEST PUSH2 0x8C JUMP JUMPDEST CALLER SWAP1 JUMP JUMPDEST PUSH1 0x0 DUP1 SLOAD PUSH1 0x1 PUSH1 0xA0 PUSH1 0x2 EXP SUB DUP4 DUP2 AND PUSH1 0x1 PUSH1 0xA0 PUSH1 0x2 EXP SUB NOT DUP4 AND DUP2 OR DUP5 SSTORE PUSH1 0x40 MLOAD SWAP2 SWAP1 SWAP3 AND SWAP3 DUP4 SWAP2 PUSH32 0x8BE0079C531659141344CD1FD0A4F28419497F9722A3DAAFE3B4186F6B6457E0 SWAP2 SWAP1 LOG3 POP POP JUMP JUMPDEST PUSH2 0xC97 DUP1 PUSH2 0x9B PUSH1 0x0 CODECOPY PUSH1 0x0 RETURN INVALID PUSH1 0x80 PUSH1 0x40 MSTORE PUSH1 0x4 CALLDATASIZE LT PUSH3 0xC4 JUMPI PUSH1 0x0 CALLDATALOAD PUSH29 0x100000000000000000000000000000000000000000000000000000000 SWAP1 DIV DUP1 PUSH4 0xCC0395BF GT PUSH3 0x86 JUMPI DUP1 PUSH4 0xCC0395BF EQ PUSH3 0x169 JUMPI DUP1 PUSH4 0xCD7D77C5 EQ PUSH3 0x18E JUMPI DUP1 PUSH4 0xD57EFA3B EQ PUSH3 0xCE JUMPI DUP1 PUSH4 0xEC3AB274 EQ PUSH3 0xCE JUMPI DUP1 PUSH4 0xF2FDE38B EQ PUSH3 0x1B3 JUMPI DUP1 PUSH4 0xFFCEEA3C EQ PUSH3 0xCE JUMPI STOP JUMPDEST DUP1 PUSH4 0x42E36B3B EQ PUSH3 0xCE JUMPI DUP1 PUSH4 0x6F9FB98A EQ PUSH3 0xE6 JUMPI DUP1 PUSH4 0x715018A6 EQ PUSH3 0x108 JUMPI DUP1 PUSH4 0x7CA2E656 EQ PUSH3 0x120 JUMPI DUP1 PUSH4 0x8DA5CB5B EQ PUSH3 0x149 JUMPI STOP JUMPDEST CALLDATASIZE PUSH3 0xCC JUMPI STOP JUMPDEST STOP JUMPDEST CALLVALUE DUP1 ISZERO PUSH3 0xDB JUMPI PUSH1 0x0 DUP1 REVERT JUMPDEST POP PUSH3 0xCC PUSH3 0x1D8 JUMP JUMPDEST CALLVALUE DUP1 ISZERO PUSH3 0xF3 JUMPI PUSH1 0x0 DUP1 REVERT JUMPDEST POP PUSH1 0x40 MLOAD ADDRESS BALANCE DUP2 MSTORE PUSH1 0x20 ADD JUMPDEST PUSH1 0x40 MLOAD DUP1 SWAP2 SUB SWAP1 RETURN JUMPDEST CALLVALUE DUP1 ISZERO PUSH3 0x115 JUMPI PUSH1 0x0 DUP1 REVERT JUMPDEST POP PUSH3 0xCC PUSH3 0x1E4 JUMP JUMPDEST CALLVALUE DUP1 ISZERO PUSH3 0x12D JUMPI PUSH1 0x0 DUP1 REVERT JUMPDEST POP ADDRESS JUMPDEST PUSH1 0x40 MLOAD PUSH1 0x1 PUSH1 0xA0 PUSH1 0x2 EXP SUB SWAP1 SWAP2 AND DUP2 MSTORE PUSH1 0x20 ADD PUSH3 0xFF JUMP JUMPDEST CALLVALUE DUP1 ISZERO PUSH3 0x156 JUMPI PUSH1 0x0 DUP1 REVERT JUMPDEST POP PUSH1 0x0 SLOAD PUSH1 0x1 PUSH1 0xA0 PUSH1 0x2 EXP SUB AND PUSH3 0x130 JUMP JUMPDEST CALLVALUE DUP1 ISZERO PUSH3 0x176 JUMPI PUSH1 0x0 DUP1 REVERT JUMPDEST POP PUSH3 0xCC PUSH3 0x188 CALLDATASIZE PUSH1 0x4 PUSH3 0x50C JUMP JUMPDEST PUSH3 0x1FA JUMP JUMPDEST CALLVALUE DUP1 ISZERO PUSH3 0x19B JUMPI PUSH1 0x0 DUP1 REVERT JUMPDEST POP PUSH3 0xCC PUSH3 0x1AD CALLDATASIZE PUSH1 0x4 PUSH3 0x593 JUMP JUMPDEST PUSH3 0x28C JUMP JUMPDEST CALLVALUE DUP1 ISZERO PUSH3 0x1C0 JUMPI PUSH1 0x0 DUP1 REVERT JUMPDEST POP PUSH3 0xCC PUSH3 0x1D2 CALLDATASIZE PUSH1 0x4 PUSH3 0x5AD JUMP JUMPDEST PUSH3 0x299 JUMP JUMPDEST PUSH3 0x1E2 PUSH3 0x34A JUMP JUMPDEST JUMP JUMPDEST PUSH3 0x1EE PUSH3 0x34A JUMP JUMPDEST PUSH3 0x1E2 PUSH1 0x0 PUSH3 0x3C0 JUMP JUMPDEST PUSH3 0x204 PUSH3 0x34A JUMP JUMPDEST PUSH1 0x2 DUP5 DUP5 DUP5 DUP5 ADDRESS PUSH1 0x40 MLOAD PUSH3 0x219 SWAP1 PUSH3 0x41D JUMP JUMPDEST PUSH3 0x229 SWAP6 SWAP5 SWAP4 SWAP3 SWAP2 SWAP1 PUSH3 0x61A JUMP JUMPDEST PUSH1 0x40 MLOAD DUP1 SWAP2 SUB SWAP1 PUSH1 0x0 CREATE DUP1 ISZERO DUP1 ISZERO PUSH3 0x246 JUMPI RETURNDATASIZE PUSH1 0x0 DUP1 RETURNDATACOPY RETURNDATASIZE PUSH1 0x0 REVERT JUMPDEST POP DUP2 SLOAD PUSH1 0x1 DUP2 ADD DUP4 SSTORE PUSH1 0x0 SWAP3 DUP4 MSTORE PUSH1 0x20 SWAP1 SWAP3 KECCAK256 SWAP1 SWAP2 ADD DUP1 SLOAD PUSH20 0xFFFFFFFFFFFFFFFFFFFFFFFFFFFFFFFFFFFFFFFF NOT AND PUSH1 0x1 PUSH1 0xA0 PUSH1 0x2 EXP SUB SWAP1 SWAP3 AND SWAP2 SWAP1 SWAP2 OR SWAP1 SSTORE POP POP POP POP JUMP JUMPDEST PUSH3 0x296 PUSH3 0x34A JUMP JUMPDEST POP JUMP JUMPDEST PUSH3 0x2A3 PUSH3 0x34A JUMP JUMPDEST PUSH1 0x1 PUSH1 0xA0 PUSH1 0x2 EXP SUB DUP2 AND PUSH3 0x33F JUMPI PUSH1 0x40 MLOAD PUSH32 0x8C379A000000000000000000000000000000000000000000000000000000000 DUP2 MSTORE PUSH1 0x20 PUSH1 0x4 DUP3 ADD MSTORE PUSH1 0x26 PUSH1 0x24 DUP3 ADD MSTORE PUSH32 0x4F776E61626C653A206E6577206F776E657220697320746865207A65726F2061 PUSH1 0x44 DUP3 ADD MSTORE PUSH32 0x6464726573730000000000000000000000000000000000000000000000000000 PUSH1 0x64 DUP3 ADD MSTORE PUSH1 0x84 ADD JUMPDEST PUSH1 0x40 MLOAD DUP1 SWAP2 SUB SWAP1 REVERT JUMPDEST PUSH3 0x296 DUP2 PUSH3 0x3C0 JUMP JUMPDEST PUSH1 0x0 SLOAD PUSH1 0x1 PUSH1 0xA0 PUSH1 0x2 EXP SUB AND CALLER EQ PUSH3 0x1E2 JUMPI PUSH1 0x40 MLOAD PUSH32 0x8C379A000000000000000000000000000000000000000000000000000000000 DUP2 MSTORE PUSH1 0x20 PUSH1 0x4 DUP3 ADD DUP2 SWAP1 MSTORE PUSH1 0x24 DUP3 ADD MSTORE PUSH32 0x4F776E61626C653A2063616C6C6572206973206E6F7420746865206F776E6572 PUSH1 0x44 DUP3 ADD MSTORE PUSH1 0x64 ADD PUSH3 0x336 JUMP JUMPDEST PUSH1 0x0 DUP1 SLOAD PUSH1 0x1 PUSH1 0xA0 PUSH1 0x2 EXP SUB DUP4 DUP2 AND PUSH20 0xFFFFFFFFFFFFFFFFFFFFFFFFFFFFFFFFFFFFFFFF NOT DUP4 AND DUP2 OR DUP5 SSTORE PUSH1 0x40 MLOAD SWAP2 SWAP1 SWAP3 AND SWAP3 DUP4 SWAP2 PUSH32 0x8BE0079C531659141344CD1FD0A4F28419497F9722A3DAAFE3B4186F6B6457E0 SWAP2 SWAP1 LOG3 POP POP JUMP JUMPDEST PUSH2 0x5F2 DUP1 PUSH3 0x670 DUP4 CODECOPY ADD SWAP1 JUMP JUMPDEST PUSH32 0x4E487B7100000000000000000000000000000000000000000000000000000000 PUSH1 0x0 MSTORE PUSH1 0x41 PUSH1 0x4 MSTORE PUSH1 0x24 PUSH1 0x0 REVERT JUMPDEST PUSH1 0x0 DUP3 PUSH1 0x1F DUP4 ADD SLT PUSH3 0x46C JUMPI PUSH1 0x0 DUP1 REVERT JUMPDEST DUP2 CALLDATALOAD PUSH8 0xFFFFFFFFFFFFFFFF DUP1 DUP3 GT ISZERO PUSH3 0x48A JUMPI PUSH3 0x48A PUSH3 0x42B JUMP JUMPDEST PUSH1 0x40 MLOAD PUSH1 0x1F DUP4 ADD PUSH1 0x1F NOT SWAP1 DUP2 AND PUSH1 0x3F ADD AND DUP2 ADD SWAP1 DUP3 DUP3 GT DUP2 DUP4 LT OR ISZERO PUSH3 0x4B5 JUMPI PUSH3 0x4B5 PUSH3 0x42B JUMP JUMPDEST DUP2 PUSH1 0x40 MSTORE DUP4 DUP2 MSTORE DUP7 PUSH1 0x20 DUP6 DUP9 ADD ADD GT ISZERO PUSH3 0x4CF JUMPI PUSH1 0x0 DUP1 REVERT JUMPDEST DUP4 PUSH1 0x20 DUP8 ADD PUSH1 0x20 DUP4 ADD CALLDATACOPY PUSH1 0x0 PUSH1 0x20 DUP6 DUP4 ADD ADD MSTORE DUP1 SWAP5 POP POP POP POP POP SWAP3 SWAP2 POP POP JUMP JUMPDEST DUP1 CALLDATALOAD PUSH1 0x1 PUSH1 0xA0 PUSH1 0x2 EXP SUB DUP2 AND DUP2 EQ PUSH3 0x507 JUMPI PUSH1 0x0 DUP1 REVERT JUMPDEST SWAP2 SWAP1 POP JUMP JUMPDEST PUSH1 0x0 DUP1 PUSH1 0x0 DUP1 PUSH1 0x80 DUP6 DUP8 SUB SLT ISZERO PUSH3 0x523 JUMPI PUSH1 0x0 DUP1 REVERT JUMPDEST DUP5 CALLDATALOAD PUSH8 0xFFFFFFFFFFFFFFFF DUP1 DUP3 GT ISZERO PUSH3 0x53C JUMPI PUSH1 0x0 DUP1 REVERT JUMPDEST PUSH3 0x54A DUP9 DUP4 DUP10 ADD PUSH3 0x45A JUMP JUMPDEST SWAP6 POP PUSH3 0x55A PUSH1 0x20 DUP9 ADD PUSH3 0x4EF JUMP JUMPDEST SWAP5 POP PUSH1 0x40 DUP8 ADD CALLDATALOAD SWAP4 POP PUSH1 0x60 DUP8 ADD CALLDATALOAD SWAP2 POP DUP1 DUP3 GT ISZERO PUSH3 0x578 JUMPI PUSH1 0x0 DUP1 REVERT JUMPDEST POP PUSH3 0x587 DUP8 DUP3 DUP9 ADD PUSH3 0x45A JUMP JUMPDEST SWAP2 POP POP SWAP3 SWAP6 SWAP2 SWAP5 POP SWAP3 POP JUMP JUMPDEST PUSH1 0x0 PUSH1 0x20 DUP3 DUP5 SUB SLT ISZERO PUSH3 0x5A6 JUMPI PUSH1 0x0 DUP1 REVERT JUMPDEST POP CALLDATALOAD SWAP2 SWAP1 POP JUMP JUMPDEST PUSH1 0x0 PUSH1 0x20 DUP3 DUP5 SUB SLT ISZERO PUSH3 0x5C0 JUMPI PUSH1 0x0 DUP1 REVERT JUMPDEST PUSH3 0x5CB DUP3 PUSH3 0x4EF JUMP JUMPDEST SWAP4 SWAP3 POP POP POP JUMP JUMPDEST PUSH1 0x0 DUP2 MLOAD DUP1 DUP5 MSTORE PUSH1 0x0 JUMPDEST DUP2 DUP2 LT ISZERO PUSH3 0x5FA JUMPI PUSH1 0x20 DUP2 DUP6 ADD DUP2 ADD MLOAD DUP7 DUP4 ADD DUP3 ADD MSTORE ADD PUSH3 0x5DC JUMP JUMPDEST POP PUSH1 0x0 PUSH1 0x20 DUP3 DUP7 ADD ADD MSTORE PUSH1 0x20 PUSH1 0x1F NOT PUSH1 0x1F DUP4 ADD AND DUP6 ADD ADD SWAP2 POP POP SWAP3 SWAP2 POP POP JUMP JUMPDEST PUSH1 0xA0 DUP2 MSTORE PUSH1 0x0 PUSH3 0x62F PUSH1 0xA0 DUP4 ADD DUP9 PUSH3 0x5D2 JUMP JUMPDEST PUSH1 0x1 PUSH1 0xA0 PUSH1 0x2 EXP SUB DUP1 DUP9 AND PUSH1 0x20 DUP6 ADD MSTORE DUP7 PUSH1 0x40 DUP6 ADD MSTORE DUP4 DUP3 SUB PUSH1 0x60 DUP6 ADD MSTORE PUSH3 0x659 DUP3 DUP8 PUSH3 0x5D2 JUMP JUMPDEST SWAP3 POP DUP1 DUP6 AND PUSH1 0x80 DUP6 ADD MSTORE POP POP SWAP7 SWAP6 POP POP POP POP POP POP JUMP INVALID PUSH1 0x80 PUSH1 0x40 MSTORE PUSH1 0x40 MLOAD PUSH2 0x5F2 CODESIZE SUB DUP1 PUSH2 0x5F2 DUP4 CODECOPY DUP2 ADD PUSH1 0x40 DUP2 SWAP1 MSTORE PUSH2 0x22 SWAP2 PUSH2 0x17E JUMP JUMPDEST DUP5 DUP5 PUSH1 0x0 PUSH2 0x30 DUP4 DUP3 PUSH2 0x2AE JUMP JUMPDEST POP PUSH1 0x1 DUP1 SLOAD PUSH1 0x1 PUSH1 0xA0 PUSH1 0x2 EXP SUB NOT AND PUSH1 0x1 PUSH1 0xA0 PUSH1 0x2 EXP SUB SWAP3 SWAP1 SWAP3 AND SWAP2 SWAP1 SWAP2 OR SWAP1 SSTORE POP PUSH1 0x2 DUP4 SWAP1 SSTORE PUSH1 0x3 PUSH2 0x63 DUP4 DUP3 PUSH2 0x2AE JUMP JUMPDEST POP PUSH1 0x4 DUP1 SLOAD PUSH1 0x1 PUSH1 0xA0 PUSH1 0x2 EXP SUB NOT AND PUSH1 0x1 PUSH1 0xA0 PUSH1 0x2 EXP SUB SWAP3 SWAP1 SWAP3 AND SWAP2 SWAP1 SWAP2 OR SWAP1 SSTORE POP PUSH2 0x373 SWAP3 POP POP POP JUMP JUMPDEST PUSH32 0x4E487B7100000000000000000000000000000000000000000000000000000000 PUSH1 0x0 MSTORE PUSH1 0x41 PUSH1 0x4 MSTORE PUSH1 0x24 PUSH1 0x0 REVERT JUMPDEST PUSH1 0x0 DUP3 PUSH1 0x1F DUP4 ADD SLT PUSH2 0xCE JUMPI PUSH1 0x0 DUP1 REVERT JUMPDEST DUP2 MLOAD PUSH1 0x1 PUSH1 0x40 PUSH1 0x2 EXP SUB DUP1 DUP3 GT ISZERO PUSH2 0xE8 JUMPI PUSH2 0xE8 PUSH2 0x8E JUMP JUMPDEST PUSH1 0x40 MLOAD PUSH1 0x1F DUP4 ADD PUSH1 0x1F NOT SWAP1 DUP2 AND PUSH1 0x3F ADD AND DUP2 ADD SWAP1 DUP3 DUP3 GT DUP2 DUP4 LT OR ISZERO PUSH2 0x110 JUMPI PUSH2 0x110 PUSH2 0x8E JUMP JUMPDEST DUP2 PUSH1 0x40 MSTORE DUP4 DUP2 MSTORE PUSH1 0x20 SWAP3 POP DUP7 DUP4 DUP6 DUP9 ADD ADD GT ISZERO PUSH2 0x12C JUMPI PUSH1 0x0 DUP1 REVERT JUMPDEST PUSH1 0x0 SWAP2 POP JUMPDEST DUP4 DUP3 LT ISZERO PUSH2 0x14E JUMPI DUP6 DUP3 ADD DUP4 ADD MLOAD DUP2 DUP4 ADD DUP5 ADD MSTORE SWAP1 DUP3 ADD SWAP1 PUSH2 0x131 JUMP JUMPDEST PUSH1 0x0 SWAP4 DUP2 ADD SWAP1 SWAP3 ADD SWAP3 SWAP1 SWAP3 MSTORE SWAP5 SWAP4 POP POP POP POP JUMP JUMPDEST DUP1 MLOAD PUSH1 0x1 PUSH1 0xA0 PUSH1 0x2 EXP SUB DUP2 AND DUP2 EQ PUSH2 0x179 JUMPI PUSH1 0x0 DUP1 REVERT JUMPDEST SWAP2 SWAP1 POP JUMP JUMPDEST PUSH1 0x0 DUP1 PUSH1 0x0 DUP1 PUSH1 0x0 PUSH1 0xA0 DUP7 DUP9 SUB SLT ISZERO PUSH2 0x196 JUMPI PUSH1 0x0 DUP1 REVERT JUMPDEST DUP6 MLOAD PUSH1 0x1 PUSH1 0x40 PUSH1 0x2 EXP SUB DUP1 DUP3 GT ISZERO PUSH2 0x1AD JUMPI PUSH1 0x0 DUP1 REVERT JUMPDEST PUSH2 0x1B9 DUP10 DUP4 DUP11 ADD PUSH2 0xBD JUMP JUMPDEST SWAP7 POP PUSH2 0x1C7 PUSH1 0x20 DUP10 ADD PUSH2 0x162 JUMP JUMPDEST SWAP6 POP PUSH1 0x40 DUP9 ADD MLOAD SWAP5 POP PUSH1 0x60 DUP9 ADD MLOAD SWAP2 POP DUP1 DUP3 GT ISZERO PUSH2 0x1E4 JUMPI PUSH1 0x0 DUP1 REVERT JUMPDEST POP PUSH2 0x1F1 DUP9 DUP3 DUP10 ADD PUSH2 0xBD JUMP JUMPDEST SWAP3 POP POP PUSH2 0x200 PUSH1 0x80 DUP8 ADD PUSH2 0x162 JUMP JUMPDEST SWAP1 POP SWAP3 SWAP6 POP SWAP3 SWAP6 SWAP1 SWAP4 POP JUMP JUMPDEST PUSH1 0x2 DUP2 DIV PUSH1 0x1 DUP3 AND DUP1 PUSH2 0x220 JUMPI PUSH1 0x7F DUP3 AND SWAP2 POP JUMPDEST PUSH1 0x20 DUP3 LT DUP2 SUB PUSH2 0x259 JUMPI PUSH32 0x4E487B7100000000000000000000000000000000000000000000000000000000 PUSH1 0x0 MSTORE PUSH1 0x22 PUSH1 0x4 MSTORE PUSH1 0x24 PUSH1 0x0 REVERT JUMPDEST POP SWAP2 SWAP1 POP JUMP JUMPDEST PUSH1 0x1F DUP3 GT ISZERO PUSH2 0x2A9 JUMPI PUSH1 0x0 DUP2 DUP2 MSTORE PUSH1 0x20 DUP2 KECCAK256 PUSH1 0x20 PUSH1 0x1F DUP7 ADD DIV DUP2 ADD PUSH1 0x20 DUP7 LT ISZERO PUSH2 0x286 JUMPI POP DUP1 JUMPDEST PUSH1 0x20 PUSH1 0x1F DUP7 ADD DIV DUP3 ADD SWAP2 POP JUMPDEST DUP2 DUP2 LT ISZERO PUSH2 0x2A5 JUMPI DUP3 DUP2 SSTORE PUSH1 0x1 ADD PUSH2 0x292 JUMP JUMPDEST POP POP POP JUMPDEST POP POP POP JUMP JUMPDEST DUP2 MLOAD PUSH1 0x1 PUSH1 0x40 PUSH1 0x2 EXP SUB DUP2 GT ISZERO PUSH2 0x2C7 JUMPI PUSH2 0x2C7 PUSH2 0x8E JUMP JUMPDEST PUSH2 0x2DB DUP2 PUSH2 0x2D5 DUP5 SLOAD PUSH2 0x20C JUMP JUMPDEST DUP5 PUSH2 0x25F JUMP JUMPDEST PUSH1 0x20 DUP1 PUSH1 0x1F DUP4 GT PUSH1 0x1 DUP2 EQ PUSH2 0x314 JUMPI PUSH1 0x0 DUP5 ISZERO PUSH2 0x2F8 JUMPI POP DUP6 DUP4 ADD MLOAD JUMPDEST PUSH1 0x2 DUP1 DUP7 MUL PUSH1 0x8 DUP8 MUL SWAP1 SWAP2 EXP PUSH1 0x0 NOT DIV NOT DUP3 AND OR DUP7 SSTORE POP PUSH2 0x2A5 JUMP JUMPDEST PUSH1 0x0 DUP6 DUP2 MSTORE PUSH1 0x20 DUP2 KECCAK256 PUSH1 0x1F NOT DUP7 AND SWAP2 JUMPDEST DUP3 DUP2 LT ISZERO PUSH2 0x343 JUMPI DUP9 DUP7 ADD MLOAD DUP3 SSTORE SWAP5 DUP5 ADD SWAP5 PUSH1 0x1 SWAP1 SWAP2 ADD SWAP1 DUP5 ADD PUSH2 0x324 JUMP JUMPDEST POP DUP6 DUP3 LT ISZERO PUSH2 0x363 JUMPI DUP8 DUP6 ADD MLOAD PUSH1 0x8 PUSH1 0x1F DUP9 AND MUL PUSH1 0x2 EXP PUSH1 0x0 NOT DIV NOT AND DUP2 SSTORE JUMPDEST POP POP POP POP POP PUSH1 0x2 MUL PUSH1 0x1 ADD SWAP1 SSTORE POP JUMP JUMPDEST PUSH2 0x270 DUP1 PUSH2 0x382 PUSH1 0x0 CODECOPY PUSH1 0x0 RETURN INVALID PUSH1 0x80 PUSH1 0x40 MSTORE PUSH1 0x4 CALLDATASIZE LT PUSH2 0x51 JUMPI PUSH29 0x100000000000000000000000000000000000000000000000000000000 PUSH1 0x0 CALLDATALOAD DIV PUSH4 0xD0E30DB0 DUP2 EQ PUSH2 0x5A JUMPI DUP1 PUSH4 0xD4E93292 EQ PUSH2 0x62 JUMPI DUP1 PUSH4 0xDA6E75C2 EQ PUSH2 0x6E JUMPI STOP JUMPDEST CALLDATASIZE PUSH2 0x58 JUMPI STOP JUMPDEST STOP JUMPDEST PUSH2 0x58 PUSH2 0x83 JUMP JUMPDEST CALLVALUE DUP1 ISZERO PUSH2 0x58 JUMPI PUSH1 0x0 DUP1 REVERT JUMPDEST CALLVALUE DUP1 ISZERO PUSH2 0x7A JUMPI PUSH1 0x0 DUP1 REVERT JUMPDEST POP PUSH2 0x58 PUSH2 0xB8 JUMP JUMPDEST PUSH1 0x40 MLOAD CALLVALUE DUP2 MSTORE PUSH32 0xA34E3D4F1E6B837DBCE1011B61499FA1A483A0ABEE6A7A6697660B4B2D97132 SWAP1 PUSH1 0x20 ADD PUSH1 0x40 MLOAD DUP1 SWAP2 SUB SWAP1 LOG1 JUMP JUMPDEST PUSH1 0x2 SLOAD ADDRESS BALANCE LT ISZERO PUSH2 0x12A JUMPI PUSH1 0x40 MLOAD PUSH32 0x8C379A000000000000000000000000000000000000000000000000000000000 DUP2 MSTORE PUSH1 0x20 PUSH1 0x4 DUP3 ADD MSTORE PUSH1 0x14 PUSH1 0x24 DUP3 ADD MSTORE PUSH32 0x466F6E646F7320696E737566696369656E746573000000000000000000000000 PUSH1 0x44 DUP3 ADD MSTORE PUSH1 0x64 ADD JUMPDEST PUSH1 0x40 MLOAD DUP1 SWAP2 SUB SWAP1 REVERT JUMPDEST PUSH1 0x4 SLOAD PUSH1 0x2 SLOAD PUSH1 0x40 MLOAD PUSH1 0x0 SWAP3 PUSH20 0xFFFFFFFFFFFFFFFFFFFFFFFFFFFFFFFFFFFFFFFF AND SWAP2 SWAP1 DUP4 DUP2 DUP2 DUP2 DUP6 DUP8 GAS CALL SWAP3 POP POP POP RETURNDATASIZE DUP1 PUSH1 0x0 DUP2 EQ PUSH2 0x186 JUMPI PUSH1 0x40 MLOAD SWAP2 POP PUSH1 0x1F NOT PUSH1 0x3F RETURNDATASIZE ADD AND DUP3 ADD PUSH1 0x40 MSTORE RETURNDATASIZE DUP3 MSTORE RETURNDATASIZE PUSH1 0x0 PUSH1 0x20 DUP5 ADD RETURNDATACOPY PUSH2 0x18B JUMP JUMPDEST PUSH1 0x60 SWAP2 POP JUMPDEST POP SWAP1 SWAP2 POP POP PUSH1 0x1 DUP2 ISZERO ISZERO EQ PUSH2 0x1FC JUMPI PUSH1 0x40 MLOAD PUSH32 0x8C379A000000000000000000000000000000000000000000000000000000000 DUP2 MSTORE PUSH1 0x20 PUSH1 0x4 DUP3 ADD MSTORE PUSH1 0x16 PUSH1 0x24 DUP3 ADD MSTORE PUSH32 0x46616C6C6F206C61207472616E73666572656E63696100000000000000000000 PUSH1 0x44 DUP3 ADD MSTORE PUSH1 0x64 ADD PUSH2 0x121 JUMP JUMPDEST PUSH32 0x56E1CF8A52E84572FF49B950FA9A1A1867319BF8EBA3BF8C77BC4354678A34C5 PUSH1 0x2 SLOAD PUSH1 0x40 MLOAD PUSH2 0x22F SWAP2 DUP2 MSTORE PUSH1 0x20 ADD SWAP1 JUMP JUMPDEST PUSH1 0x40 MLOAD DUP1 SWAP2 SUB SWAP1 LOG1 POP JUMP INVALID LOG2 PUSH5 0x6970667358 0x22 SLT KECCAK256 0xB1 JUMPI SWAP8 DUP6 0xC0 0xBD PUSH8 0x7379C911DD4A2F88 0x1F 0x4C ISZERO 0xE4 0xE1 0xAB DUP2 CALLCODE 0x23 0xE2 COINBASE 0xC0 PUSH15 0x9DF37F6E64736F6C63430008110033 LOG2 PUSH5 0x6970667358 0x22 SLT KECCAK256 0xED CHAINID 0xB8 0xAB 0xE0 MLOAD 0xC8 EXTCODECOPY PUSH29 0x1829E75601433668AB4120E4CA9A43E8039555F2AC128764736F6C6343 STOP ADDMOD GT STOP CALLER "
				},
				"gasEstimates": {
					"creation": {
						"codeDepositCost": "644600",
						"executionCost": "infinite",
						"totalCost": "infinite"
					},
					"external": {
						"": "189",
						"addNewEmployee()": "infinite",
						"addNewService()": "infinite",
						"addNewTenant(string,address,uint256,string)": "infinite",
						"getContractBalance()": "593",
						"owner()": "639",
						"payAllServices()": "infinite",
						"paySalaries()": "infinite",
						"payService(uint256)": "664",
						"renounceOwnership()": "infinite",
						"showContractAddress()": "330",
						"transferOwnership(address)": "22742"
					}
				},
				"methodIdentifiers": {
					"addNewEmployee()": "d57efa3b",
					"addNewService()": "ffceea3c",
					"addNewTenant(string,address,uint256,string)": "cc0395bf",
					"getContractBalance()": "6f9fb98a",
					"owner()": "8da5cb5b",
					"payAllServices()": "ec3ab274",
					"paySalaries()": "42e36b3b",
					"payService(uint256)": "cd7d77c5",
					"renounceOwnership()": "715018a6",
					"showContractAddress()": "7ca2e656",
					"transferOwnership(address)": "f2fde38b"
				}
			},
			"storageLayout": {
				"storage": [
					{
						"astId": 7,
						"contract": "contracts/Consorcio.sol:Consorcio",
						"label": "_owner",
						"offset": 0,
						"slot": "0",
						"type": "t_address"
					},
					{
						"astId": 177,
						"contract": "contracts/Consorcio.sol:Consorcio",
						"label": "employeeList",
						"offset": 0,
						"slot": "1",
						"type": "t_array(t_contract(Employee)314)dyn_storage"
					},
					{
						"astId": 181,
						"contract": "contracts/Consorcio.sol:Consorcio",
						"label": "tenantList",
						"offset": 0,
						"slot": "2",
						"type": "t_array(t_contract(Tenant)416)dyn_storage"
					},
					{
						"astId": 185,
						"contract": "contracts/Consorcio.sol:Consorcio",
						"label": "serviceList",
						"offset": 0,
						"slot": "3",
						"type": "t_array(t_struct(Service)173_storage)dyn_storage"
					}
				],
				"types": {
					"t_address": {
						"encoding": "inplace",
						"label": "address",
						"numberOfBytes": "20"
					},
					"t_array(t_contract(Employee)314)dyn_storage": {
						"base": "t_contract(Employee)314",
						"encoding": "dynamic_array",
						"label": "contract Employee[]",
						"numberOfBytes": "32"
					},
					"t_array(t_contract(Tenant)416)dyn_storage": {
						"base": "t_contract(Tenant)416",
						"encoding": "dynamic_array",
						"label": "contract Tenant[]",
						"numberOfBytes": "32"
					},
					"t_array(t_struct(Service)173_storage)dyn_storage": {
						"base": "t_struct(Service)173_storage",
						"encoding": "dynamic_array",
						"label": "struct Consorcio.Service[]",
						"numberOfBytes": "32"
					},
					"t_contract(Employee)314": {
						"encoding": "inplace",
						"label": "contract Employee",
						"numberOfBytes": "20"
					},
					"t_contract(Tenant)416": {
						"encoding": "inplace",
						"label": "contract Tenant",
						"numberOfBytes": "20"
					},
					"t_string_storage": {
						"encoding": "bytes",
						"label": "string",
						"numberOfBytes": "32"
					},
					"t_struct(Service)173_storage": {
						"encoding": "inplace",
						"label": "struct Consorcio.Service",
						"members": [
							{
								"astId": 170,
								"contract": "contracts/Consorcio.sol:Consorcio",
								"label": "name",
								"offset": 0,
								"slot": "0",
								"type": "t_string_storage"
							},
							{
								"astId": 172,
								"contract": "contracts/Consorcio.sol:Consorcio",
								"label": "price",
								"offset": 0,
								"slot": "1",
								"type": "t_uint256"
							}
						],
						"numberOfBytes": "64"
					},
					"t_uint256": {
						"encoding": "inplace",
						"label": "uint256",
						"numberOfBytes": "32"
					}
				}
			},
			"userdoc": {
				"kind": "user",
				"methods": {},
				"version": 1
			}
		}
	}
}