{
	"contracts/Tenant.sol": {
		"Tenant": {
			"abi": [
				{
					"inputs": [
						{
							"internalType": "address",
							"name": "_consorcioAddress",
							"type": "address"
						}
					],
					"stateMutability": "payable",
					"type": "constructor"
				},
				{
					"anonymous": false,
					"inputs": [
						{
							"indexed": false,
							"internalType": "uint256",
							"name": "amount",
							"type": "uint256"
						}
					],
					"name": "EtherReceived",
					"type": "event"
				},
				{
					"anonymous": false,
					"inputs": [
						{
							"indexed": false,
							"internalType": "uint256",
							"name": "pricePaid",
							"type": "uint256"
						}
					],
					"name": "ExpensesPaid",
					"type": "event"
				},
				{
					"anonymous": false,
					"inputs": [
						{
							"indexed": true,
							"internalType": "address",
							"name": "previousOwner",
							"type": "address"
						},
						{
							"indexed": true,
							"internalType": "address",
							"name": "newOwner",
							"type": "address"
						}
					],
					"name": "OwnershipTransferred",
					"type": "event"
				},
				{
					"stateMutability": "payable",
					"type": "fallback"
				},
				{
					"inputs": [
						{
							"internalType": "string",
							"name": "_name",
							"type": "string"
						},
						{
							"internalType": "address",
							"name": "_tenantAddress",
							"type": "address"
						},
						{
							"internalType": "uint256",
							"name": "_rentalCost",
							"type": "uint256"
						},
						{
							"internalType": "string",
							"name": "_residence",
							"type": "string"
						}
					],
					"name": "addNewTenant",
					"outputs": [],
					"stateMutability": "nonpayable",
					"type": "function"
				},
				{
					"inputs": [],
					"name": "deposit",
					"outputs": [],
					"stateMutability": "payable",
					"type": "function"
				},
				{
					"inputs": [
						{
							"internalType": "address",
							"name": "_tenantAddress",
							"type": "address"
						}
					],
					"name": "getTenant",
					"outputs": [
						{
							"internalType": "string",
							"name": "name",
							"type": "string"
						},
						{
							"internalType": "address",
							"name": "tenantAddress",
							"type": "address"
						},
						{
							"internalType": "uint256",
							"name": "rentalCost",
							"type": "uint256"
						},
						{
							"internalType": "string",
							"name": "residence",
							"type": "string"
						},
						{
							"internalType": "address",
							"name": "consorcioContractAddress",
							"type": "address"
						}
					],
					"stateMutability": "view",
					"type": "function"
				},
				{
					"inputs": [],
					"name": "owner",
					"outputs": [
						{
							"internalType": "address",
							"name": "",
							"type": "address"
						}
					],
					"stateMutability": "view",
					"type": "function"
				},
				{
					"inputs": [],
					"name": "payExpenses",
					"outputs": [],
					"stateMutability": "payable",
					"type": "function"
				},
				{
					"inputs": [],
					"name": "renounceOwnership",
					"outputs": [],
					"stateMutability": "nonpayable",
					"type": "function"
				},
				{
					"inputs": [
						{
							"internalType": "address",
							"name": "newOwner",
							"type": "address"
						}
					],
					"name": "transferOwnership",
					"outputs": [],
					"stateMutability": "nonpayable",
					"type": "function"
				},
				{
					"inputs": [],
					"name": "withdrawAddress",
					"outputs": [
						{
							"internalType": "address",
							"name": "",
							"type": "address"
						}
					],
					"stateMutability": "view",
					"type": "function"
				},
				{
					"inputs": [],
					"name": "withdrawal",
					"outputs": [],
					"stateMutability": "nonpayable",
					"type": "function"
				},
				{
					"stateMutability": "payable",
					"type": "receive"
				}
			],
			"devdoc": {
				"kind": "dev",
				"methods": {
					"owner()": {
						"details": "Returns the address of the current owner."
					},
					"renounceOwnership()": {
						"details": "Leaves the contract without owner. It will not be possible to call `onlyOwner` functions anymore. Can only be called by the current owner. NOTE: Renouncing ownership will leave the contract without an owner, thereby removing any functionality that is only available to the owner."
					},
					"transferOwnership(address)": {
						"details": "Transfers ownership of the contract to a new account (`newOwner`). Can only be called by the current owner."
					}
				},
				"version": 1
			},
			"evm": {
				"assembly": "    /* \"contracts/Tenant.sol\":143:2257  contract Tenant is BaseUser, Ownable {... */\n  mstore(0x40, 0x80)\n    /* \"contracts/Tenant.sol\":626:788  constructor (address _consorcioAddress) payable BaseUser (\"\", 0x0000000000000000000000000000000000000000)  {... */\n  mload(0x40)\n  sub(codesize, bytecodeSize)\n  dup1\n  bytecodeSize\n  dup4\n  codecopy\n  dup2\n  add\n  0x40\n  dup2\n  swap1\n  mstore\n  tag_1\n  swap2\n  tag_2\n  jump\t// in\ntag_1:\n    /* \"contracts/BaseUser.sol\":153:280  constructor(string memory newName, address newAddress) {... */\n  0x40\n  dup1\n  mload\n  0x20\n  dup2\n  add\n  swap1\n  swap2\n  mstore\n  0x00\n  dup1\n  dup3\n  mstore\n  dup1\n    /* \"contracts/BaseUser.sol\":219:233  name = newName */\n  tag_7\n    /* \"contracts/BaseUser.sol\":153:280  constructor(string memory newName, address newAddress) {... */\n  dup4\n  dup3\n    /* \"contracts/BaseUser.sol\":219:233  name = newName */\n  tag_8\n  jump\t// in\ntag_7:\n  pop\n    /* \"contracts/BaseUser.sol\":244:259  withdrawAddress */\n  0x01\n    /* \"contracts/BaseUser.sol\":244:272  withdrawAddress = newAddress */\n  dup1\n  sload\n  not(sub(exp(0x02, 0xa0), 0x01))\n  and\n  sub(exp(0x02, 0xa0), 0x01)\n  swap3\n  swap1\n  swap3\n  and\n  swap2\n  swap1\n  swap2\n  or\n  swap1\n  sstore\n  pop\n    /* \"@openzeppelin/contracts/access/Ownable.sol\":936:968  _transferOwnership(_msgSender()) */\n  tag_10\n    /* \"@openzeppelin/contracts/access/Ownable.sol\":955:967  _msgSender() */\n  tag_11\n    /* \"@openzeppelin/contracts/access/Ownable.sol\":955:965  _msgSender */\n  0x0100000000\n  tag_12\n  dup2\n  mul\n    /* \"@openzeppelin/contracts/access/Ownable.sol\":955:967  _msgSender() */\n  div\n  jump\t// in\ntag_11:\n    /* \"@openzeppelin/contracts/access/Ownable.sol\":936:954  _transferOwnership */\n  0x0100000000\n  tag_13\n  dup2\n  mul\n    /* \"@openzeppelin/contracts/access/Ownable.sol\":936:968  _transferOwnership(_msgSender()) */\n  div\n  jump\t// in\ntag_10:\n    /* \"contracts/Tenant.sol\":744:760  consorcioAddress */\n  0x03\n    /* \"contracts/Tenant.sol\":744:780  consorcioAddress = _consorcioAddress */\n  dup1\n  sload\n  not(sub(exp(0x02, 0xa0), 0x01))\n  and\n  sub(exp(0x02, 0xa0), 0x01)\n  swap3\n  swap1\n  swap3\n  and\n  swap2\n  swap1\n  swap2\n  or\n  swap1\n  sstore\n    /* \"contracts/Tenant.sol\":143:2257  contract Tenant is BaseUser, Ownable {... */\n  jump(tag_23)\n    /* \"@openzeppelin/contracts/utils/Context.sol\":640:736  function _msgSender() internal view virtual returns (address) {... */\ntag_12:\n    /* \"@openzeppelin/contracts/utils/Context.sol\":719:729  msg.sender */\n  caller\n  swap1\n    /* \"@openzeppelin/contracts/utils/Context.sol\":640:736  function _msgSender() internal view virtual returns (address) {... */\n  jump\t// out\n    /* \"@openzeppelin/contracts/access/Ownable.sol\":2433:2620  function _transferOwnership(address newOwner) internal virtual {... */\ntag_13:\n    /* \"@openzeppelin/contracts/access/Ownable.sol\":2525:2531  _owner */\n  0x02\n  dup1\n  sload\n  sub(exp(0x02, 0xa0), 0x01)\n    /* \"@openzeppelin/contracts/access/Ownable.sol\":2541:2558  _owner = newOwner */\n  dup4\n  dup2\n  and\n  not(sub(exp(0x02, 0xa0), 0x01))\n  dup4\n  and\n  dup2\n  or\n  swap1\n  swap4\n  sstore\n    /* \"@openzeppelin/contracts/access/Ownable.sol\":2573:2613  OwnershipTransferred(oldOwner, newOwner) */\n  mload(0x40)\n    /* \"@openzeppelin/contracts/access/Ownable.sol\":2525:2531  _owner */\n  swap2\n  and\n  swap2\n    /* \"@openzeppelin/contracts/access/Ownable.sol\":2541:2558  _owner = newOwner */\n  swap1\n    /* \"@openzeppelin/contracts/access/Ownable.sol\":2525:2531  _owner */\n  dup3\n  swap1\n    /* \"@openzeppelin/contracts/access/Ownable.sol\":2573:2613  OwnershipTransferred(oldOwner, newOwner) */\n  0x8be0079c531659141344cd1fd0a4f28419497f9722a3daafe3b4186f6b6457e0\n  swap1\n    /* \"@openzeppelin/contracts/access/Ownable.sol\":2506:2522  address oldOwner */\n  0x00\n  swap1\n    /* \"@openzeppelin/contracts/access/Ownable.sol\":2573:2613  OwnershipTransferred(oldOwner, newOwner) */\n  log3\n    /* \"@openzeppelin/contracts/access/Ownable.sol\":2496:2620  {... */\n  pop\n    /* \"@openzeppelin/contracts/access/Ownable.sol\":2433:2620  function _transferOwnership(address newOwner) internal virtual {... */\n  pop\n  jump\t// out\n    /* \"#utility.yul\":14:304   */\ntag_2:\n    /* \"#utility.yul\":84:90   */\n  0x00\n    /* \"#utility.yul\":137:139   */\n  0x20\n    /* \"#utility.yul\":125:134   */\n  dup3\n    /* \"#utility.yul\":116:123   */\n  dup5\n    /* \"#utility.yul\":112:135   */\n  sub\n    /* \"#utility.yul\":108:140   */\n  slt\n    /* \"#utility.yul\":105:157   */\n  iszero\n  tag_25\n  jumpi\n    /* \"#utility.yul\":153:154   */\n  0x00\n    /* \"#utility.yul\":150:151   */\n  dup1\n    /* \"#utility.yul\":143:155   */\n  revert\n    /* \"#utility.yul\":105:157   */\ntag_25:\n    /* \"#utility.yul\":179:195   */\n  dup2\n  mload\n  sub(exp(0x02, 0xa0), 0x01)\n    /* \"#utility.yul\":224:255   */\n  dup2\n  and\n    /* \"#utility.yul\":214:256   */\n  dup2\n  eq\n    /* \"#utility.yul\":204:274   */\n  tag_26\n  jumpi\n    /* \"#utility.yul\":270:271   */\n  0x00\n    /* \"#utility.yul\":267:268   */\n  dup1\n    /* \"#utility.yul\":260:272   */\n  revert\n    /* \"#utility.yul\":204:274   */\ntag_26:\n    /* \"#utility.yul\":293:298   */\n  swap4\n    /* \"#utility.yul\":14:304   */\n  swap3\n  pop\n  pop\n  pop\n  jump\t// out\n    /* \"#utility.yul\":309:493   */\ntag_18:\n    /* \"#utility.yul\":361:438   */\n  0x4e487b7100000000000000000000000000000000000000000000000000000000\n    /* \"#utility.yul\":358:359   */\n  0x00\n    /* \"#utility.yul\":351:439   */\n  mstore\n    /* \"#utility.yul\":458:462   */\n  0x41\n    /* \"#utility.yul\":455:456   */\n  0x04\n    /* \"#utility.yul\":448:463   */\n  mstore\n    /* \"#utility.yul\":482:486   */\n  0x24\n    /* \"#utility.yul\":479:480   */\n  0x00\n    /* \"#utility.yul\":472:487   */\n  revert\n    /* \"#utility.yul\":498:935   */\ntag_19:\n    /* \"#utility.yul\":583:584   */\n  0x02\n    /* \"#utility.yul\":573:585   */\n  dup2\n  div\n    /* \"#utility.yul\":630:631   */\n  0x01\n    /* \"#utility.yul\":620:632   */\n  dup3\n  and\n  dup1\n    /* \"#utility.yul\":641:702   */\n  tag_29\n  jumpi\n    /* \"#utility.yul\":695:699   */\n  0x7f\n    /* \"#utility.yul\":687:693   */\n  dup3\n    /* \"#utility.yul\":683:700   */\n  and\n    /* \"#utility.yul\":673:700   */\n  swap2\n  pop\n    /* \"#utility.yul\":641:702   */\ntag_29:\n    /* \"#utility.yul\":748:750   */\n  0x20\n    /* \"#utility.yul\":740:746   */\n  dup3\n    /* \"#utility.yul\":737:751   */\n  lt\n    /* \"#utility.yul\":717:735   */\n  dup2\n    /* \"#utility.yul\":714:752   */\n  sub\n    /* \"#utility.yul\":711:929   */\n  tag_30\n  jumpi\n    /* \"#utility.yul\":785:862   */\n  0x4e487b7100000000000000000000000000000000000000000000000000000000\n    /* \"#utility.yul\":782:783   */\n  0x00\n    /* \"#utility.yul\":775:863   */\n  mstore\n    /* \"#utility.yul\":886:890   */\n  0x22\n    /* \"#utility.yul\":883:884   */\n  0x04\n    /* \"#utility.yul\":876:891   */\n  mstore\n    /* \"#utility.yul\":914:918   */\n  0x24\n    /* \"#utility.yul\":911:912   */\n  0x00\n    /* \"#utility.yul\":904:919   */\n  revert\n    /* \"#utility.yul\":711:929   */\ntag_30:\n  pop\n    /* \"#utility.yul\":498:935   */\n  swap2\n  swap1\n  pop\n  jump\t// out\n    /* \"#utility.yul\":1066:1617   */\ntag_21:\n    /* \"#utility.yul\":1168:1170   */\n  0x1f\n    /* \"#utility.yul\":1163:1166   */\n  dup3\n    /* \"#utility.yul\":1160:1171   */\n  gt\n    /* \"#utility.yul\":1157:1611   */\n  iszero\n  tag_33\n  jumpi\n    /* \"#utility.yul\":1204:1205   */\n  0x00\n    /* \"#utility.yul\":1229:1234   */\n  dup2\n    /* \"#utility.yul\":1225:1227   */\n  dup2\n    /* \"#utility.yul\":1218:1235   */\n  mstore\n    /* \"#utility.yul\":1274:1278   */\n  0x20\n    /* \"#utility.yul\":1270:1272   */\n  dup2\n    /* \"#utility.yul\":1260:1279   */\n  keccak256\n    /* \"#utility.yul\":1346:1350   */\n  0x20\n    /* \"#utility.yul\":1341:1343   */\n  0x1f\n    /* \"#utility.yul\":1329:1339   */\n  dup7\n    /* \"#utility.yul\":1325:1344   */\n  add\n    /* \"#utility.yul\":1321:1351   */\n  div\n    /* \"#utility.yul\":1315:1319   */\n  dup2\n    /* \"#utility.yul\":1311:1352   */\n  add\n    /* \"#utility.yul\":1383:1387   */\n  0x20\n    /* \"#utility.yul\":1371:1381   */\n  dup7\n    /* \"#utility.yul\":1368:1388   */\n  lt\n    /* \"#utility.yul\":1365:1412   */\n  iszero\n  tag_34\n  jumpi\n  pop\n    /* \"#utility.yul\":1406:1410   */\n  dup1\n    /* \"#utility.yul\":1365:1412   */\ntag_34:\n    /* \"#utility.yul\":1463:1467   */\n  0x20\n    /* \"#utility.yul\":1458:1460   */\n  0x1f\n    /* \"#utility.yul\":1453:1456   */\n  dup7\n    /* \"#utility.yul\":1449:1461   */\n  add\n    /* \"#utility.yul\":1445:1468   */\n  div\n    /* \"#utility.yul\":1439:1443   */\n  dup3\n    /* \"#utility.yul\":1435:1469   */\n  add\n    /* \"#utility.yul\":1425:1469   */\n  swap2\n  pop\n    /* \"#utility.yul\":1519:1601   */\ntag_35:\n    /* \"#utility.yul\":1537:1539   */\n  dup2\n    /* \"#utility.yul\":1530:1535   */\n  dup2\n    /* \"#utility.yul\":1527:1540   */\n  lt\n    /* \"#utility.yul\":1519:1601   */\n  iszero\n  tag_37\n  jumpi\n    /* \"#utility.yul\":1582:1599   */\n  dup3\n  dup2\n  sstore\n    /* \"#utility.yul\":1563:1564   */\n  0x01\n    /* \"#utility.yul\":1552:1565   */\n  add\n    /* \"#utility.yul\":1519:1601   */\n  jump(tag_35)\ntag_37:\n    /* \"#utility.yul\":1523:1526   */\n  pop\n  pop\n  pop\n    /* \"#utility.yul\":1157:1611   */\ntag_33:\n    /* \"#utility.yul\":1066:1617   */\n  pop\n  pop\n  pop\n  jump\t// out\n    /* \"#utility.yul\":1801:3160   */\ntag_8:\n    /* \"#utility.yul\":1927:1930   */\n  dup2\n    /* \"#utility.yul\":1921:1931   */\n  mload\n    /* \"#utility.yul\":1954:1972   */\n  0xffffffffffffffff\n    /* \"#utility.yul\":1946:1952   */\n  dup2\n    /* \"#utility.yul\":1943:1973   */\n  gt\n    /* \"#utility.yul\":1940:1996   */\n  iszero\n  tag_41\n  jumpi\n    /* \"#utility.yul\":1976:1994   */\n  tag_41\n  tag_18\n  jump\t// in\ntag_41:\n    /* \"#utility.yul\":2005:2102   */\n  tag_42\n    /* \"#utility.yul\":2095:2101   */\n  dup2\n    /* \"#utility.yul\":2055:2093   */\n  tag_43\n    /* \"#utility.yul\":2087:2091   */\n  dup5\n    /* \"#utility.yul\":2081:2092   */\n  sload\n    /* \"#utility.yul\":2055:2093   */\n  tag_19\n  jump\t// in\ntag_43:\n    /* \"#utility.yul\":2049:2053   */\n  dup5\n    /* \"#utility.yul\":2005:2102   */\n  tag_21\n  jump\t// in\ntag_42:\n    /* \"#utility.yul\":2157:2161   */\n  0x20\n  dup1\n    /* \"#utility.yul\":2221:2223   */\n  0x1f\n    /* \"#utility.yul\":2210:2224   */\n  dup4\n  gt\n    /* \"#utility.yul\":2238:2239   */\n  0x01\n    /* \"#utility.yul\":2233:2903   */\n  dup2\n  eq\n  tag_45\n  jumpi\n    /* \"#utility.yul\":2947:2948   */\n  0x00\n    /* \"#utility.yul\":2964:2970   */\n  dup5\n    /* \"#utility.yul\":2961:3050   */\n  iszero\n  tag_46\n  jumpi\n  pop\n    /* \"#utility.yul\":3016:3035   */\n  dup6\n  dup4\n  add\n    /* \"#utility.yul\":3010:3036   */\n  mload\n    /* \"#utility.yul\":2961:3050   */\ntag_46:\n    /* \"#utility.yul\":1782:1783   */\n  0x02\n    /* \"#utility.yul\":1778:1789   */\n  dup1\n  dup7\n  mul\n    /* \"#utility.yul\":1765:1766   */\n  0x08\n    /* \"#utility.yul\":1761:1772   */\n  dup8\n  mul\n    /* \"#utility.yul\":1754:1773   */\n  swap1\n  swap2\n  exp\n  not(0x00)\n    /* \"#utility.yul\":1742:1774   */\n  div\n    /* \"#utility.yul\":1738:1775   */\n  not\n    /* \"#utility.yul\":1728:1776   */\n  dup3\n  and\n    /* \"#utility.yul\":1725:1790   */\n  or\n    /* \"#utility.yul\":3070:3074   */\n  dup7\n    /* \"#utility.yul\":3063:3144   */\n  sstore\n  pop\n    /* \"#utility.yul\":2203:3154   */\n  jump(tag_37)\n    /* \"#utility.yul\":2233:2903   */\ntag_45:\n    /* \"#utility.yul\":1013:1014   */\n  0x00\n    /* \"#utility.yul\":1006:1020   */\n  dup6\n  dup2\n  mstore\n    /* \"#utility.yul\":1050:1054   */\n  0x20\n    /* \"#utility.yul\":1037:1055   */\n  dup2\n  keccak256\n  not(0x1f)\n    /* \"#utility.yul\":2269:2289   */\n  dup7\n  and\n  swap2\n    /* \"#utility.yul\":2387:2623   */\ntag_49:\n    /* \"#utility.yul\":2401:2408   */\n  dup3\n    /* \"#utility.yul\":2398:2399   */\n  dup2\n    /* \"#utility.yul\":2395:2409   */\n  lt\n    /* \"#utility.yul\":2387:2623   */\n  iszero\n  tag_51\n  jumpi\n    /* \"#utility.yul\":2490:2509   */\n  dup9\n  dup7\n  add\n    /* \"#utility.yul\":2484:2510   */\n  mload\n    /* \"#utility.yul\":2469:2511   */\n  dup3\n  sstore\n    /* \"#utility.yul\":2582:2609   */\n  swap5\n  dup5\n  add\n  swap5\n    /* \"#utility.yul\":2550:2551   */\n  0x01\n    /* \"#utility.yul\":2538:2552   */\n  swap1\n  swap2\n  add\n  swap1\n    /* \"#utility.yul\":2417:2436   */\n  dup5\n  add\n    /* \"#utility.yul\":2387:2623   */\n  jump(tag_49)\ntag_51:\n    /* \"#utility.yul\":2391:2394   */\n  pop\n    /* \"#utility.yul\":2651:2657   */\n  dup6\n    /* \"#utility.yul\":2642:2649   */\n  dup3\n    /* \"#utility.yul\":2639:2658   */\n  lt\n    /* \"#utility.yul\":2636:2844   */\n  iszero\n  tag_52\n  jumpi\n    /* \"#utility.yul\":2712:2731   */\n  dup8\n  dup6\n  add\n    /* \"#utility.yul\":2706:2732   */\n  mload\n    /* \"#utility.yul\":2806:2807   */\n  0x08\n    /* \"#utility.yul\":2821:2823   */\n  0x1f\n    /* \"#utility.yul\":2809:2824   */\n  dup9\n  and\n    /* \"#utility.yul\":2802:2825   */\n  mul\n    /* \"#utility.yul\":2799:2800   */\n  0x02\n    /* \"#utility.yul\":2795:2826   */\n  exp\n  not(0x00)\n    /* \"#utility.yul\":2783:2827   */\n  div\n    /* \"#utility.yul\":2779:2828   */\n  not\n    /* \"#utility.yul\":2764:2829   */\n  and\n    /* \"#utility.yul\":2749:2830   */\n  dup2\n  sstore\n    /* \"#utility.yul\":2636:2844   */\ntag_52:\n  pop\n  pop\n  pop\n  pop\n  pop\n    /* \"#utility.yul\":2886:2887   */\n  0x02\n    /* \"#utility.yul\":2874:2888   */\n  mul\n    /* \"#utility.yul\":2890:2891   */\n  0x01\n    /* \"#utility.yul\":2870:2892   */\n  add\n    /* \"#utility.yul\":2857:2893   */\n  swap1\n  sstore\n  pop\n    /* \"#utility.yul\":1801:3160   */\n  jump\t// out\ntag_23:\n    /* \"contracts/Tenant.sol\":143:2257  contract Tenant is BaseUser, Ownable {... */\n  dataSize(sub_0)\n  dup1\n  dataOffset(sub_0)\n  0x00\n  codecopy\n  0x00\n  return\nstop\n\nsub_0: assembly {\n        /* \"contracts/Tenant.sol\":143:2257  contract Tenant is BaseUser, Ownable {... */\n      mstore(0x40, 0x80)\n      jumpi(tag_1, lt(calldatasize, 0x04))\n      calldataload(0x00)\n      0x0100000000000000000000000000000000000000000000000000000000\n      swap1\n      div\n      dup1\n      0xd0e30db0\n      gt\n      tag_12\n      jumpi\n      dup1\n      0xd0e30db0\n      eq\n      tag_7\n      jumpi\n      dup1\n      0xd4e93292\n      eq\n      tag_8\n      jumpi\n      dup1\n      0xda6e75c2\n      eq\n      tag_9\n      jumpi\n      dup1\n      0xe5cdb488\n      eq\n      tag_10\n      jumpi\n      dup1\n      0xf2fde38b\n      eq\n      tag_11\n      jumpi\n      stop\n    tag_12:\n      dup1\n      0x1581b600\n      eq\n      tag_3\n      jumpi\n      dup1\n      0x715018a6\n      eq\n      tag_4\n      jumpi\n      dup1\n      0x8da5cb5b\n      eq\n      tag_5\n      jumpi\n      dup1\n      0xcc0395bf\n      eq\n      tag_6\n      jumpi\n      stop\n    tag_1:\n      jumpi(tag_2, calldatasize)\n      stop\n    tag_2:\n      stop\n        /* \"contracts/BaseUser.sol\":114:144  address public withdrawAddress */\n    tag_3:\n      callvalue\n      dup1\n      iszero\n      tag_17\n      jumpi\n      0x00\n      dup1\n      revert\n    tag_17:\n      pop\n      sload(0x01)\n      tag_18\n      swap1\n      sub(exp(0x02, 0xa0), 0x01)\n      and\n      dup2\n      jump\n    tag_18:\n      mload(0x40)\n      sub(exp(0x02, 0xa0), 0x01)\n        /* \"#utility.yul\":178:233   */\n      swap1\n      swap2\n      and\n        /* \"#utility.yul\":160:234   */\n      dup2\n      mstore\n        /* \"#utility.yul\":148:150   */\n      0x20\n        /* \"#utility.yul\":133:151   */\n      add\n        /* \"contracts/BaseUser.sol\":114:144  address public withdrawAddress */\n    tag_20:\n      mload(0x40)\n      dup1\n      swap2\n      sub\n      swap1\n      return\n        /* \"@openzeppelin/contracts/access/Ownable.sol\":1831:1932  function renounceOwnership() public virtual onlyOwner {... */\n    tag_4:\n      callvalue\n      dup1\n      iszero\n      tag_22\n      jumpi\n      0x00\n      dup1\n      revert\n    tag_22:\n      pop\n      tag_2\n      tag_24\n      jump\t// in\n        /* \"@openzeppelin/contracts/access/Ownable.sol\":1201:1286  function owner() public view virtual returns (address) {... */\n    tag_5:\n      callvalue\n      dup1\n      iszero\n      tag_25\n      jumpi\n      0x00\n      dup1\n      revert\n    tag_25:\n      pop\n        /* \"@openzeppelin/contracts/access/Ownable.sol\":1273:1279  _owner */\n      and(sub(exp(0x02, 0xa0), 0x01), sload(0x02))\n        /* \"@openzeppelin/contracts/access/Ownable.sol\":1201:1286  function owner() public view virtual returns (address) {... */\n      jump(tag_18)\n        /* \"contracts/Tenant.sol\":996:1253  function addNewTenant(string memory _name, address _tenantAddress, uint _rentalCost, string memory _residence) public onlyOwner {... */\n    tag_6:\n      callvalue\n      dup1\n      iszero\n      tag_29\n      jumpi\n      0x00\n      dup1\n      revert\n    tag_29:\n      pop\n      tag_2\n      tag_31\n      calldatasize\n      0x04\n      tag_32\n      jump\t// in\n    tag_31:\n      tag_33\n      jump\t// in\n        /* \"contracts/Tenant.sol\":796:986  function deposit() public payable {... */\n    tag_7:\n      tag_2\n      tag_35\n      jump\t// in\n        /* \"contracts/BaseUser.sol\":288:388  function withdrawal() public {... */\n    tag_8:\n      callvalue\n      dup1\n      iszero\n      tag_2\n      jumpi\n      0x00\n      dup1\n      revert\n        /* \"contracts/Tenant.sol\":1774:2252  function payExpenses() public payable {... */\n    tag_9:\n      tag_2\n      tag_40\n      jump\t// in\n        /* \"contracts/Tenant.sol\":1263:1766  function getTenant(address _tenantAddress) public view returns(string memory name, address tenantAddress, uint rentalCost, string memory residence, address consorcioContractAddress){... */\n    tag_10:\n      callvalue\n      dup1\n      iszero\n      tag_41\n      jumpi\n      0x00\n      dup1\n      revert\n    tag_41:\n      pop\n      tag_42\n      tag_43\n      calldatasize\n      0x04\n      tag_44\n      jump\t// in\n    tag_43:\n      tag_45\n      jump\t// in\n    tag_42:\n      mload(0x40)\n      tag_20\n      swap6\n      swap5\n      swap4\n      swap3\n      swap2\n      swap1\n      tag_47\n      jump\t// in\n        /* \"@openzeppelin/contracts/access/Ownable.sol\":2081:2279  function transferOwnership(address newOwner) public virtual onlyOwner {... */\n    tag_11:\n      callvalue\n      dup1\n      iszero\n      tag_48\n      jumpi\n      0x00\n      dup1\n      revert\n    tag_48:\n      pop\n      tag_2\n      tag_50\n      calldatasize\n      0x04\n      tag_44\n      jump\t// in\n    tag_50:\n      tag_51\n      jump\t// in\n        /* \"@openzeppelin/contracts/access/Ownable.sol\":1831:1932  function renounceOwnership() public virtual onlyOwner {... */\n    tag_24:\n        /* \"@openzeppelin/contracts/access/Ownable.sol\":1094:1107  _checkOwner() */\n      tag_53\n        /* \"@openzeppelin/contracts/access/Ownable.sol\":1094:1105  _checkOwner */\n      tag_54\n        /* \"@openzeppelin/contracts/access/Ownable.sol\":1094:1107  _checkOwner() */\n      jump\t// in\n    tag_53:\n        /* \"@openzeppelin/contracts/access/Ownable.sol\":1895:1925  _transferOwnership(address(0)) */\n      tag_56\n        /* \"@openzeppelin/contracts/access/Ownable.sol\":1922:1923  0 */\n      0x00\n        /* \"@openzeppelin/contracts/access/Ownable.sol\":1895:1913  _transferOwnership */\n      tag_57\n        /* \"@openzeppelin/contracts/access/Ownable.sol\":1895:1925  _transferOwnership(address(0)) */\n      jump\t// in\n    tag_56:\n        /* \"@openzeppelin/contracts/access/Ownable.sol\":1831:1932  function renounceOwnership() public virtual onlyOwner {... */\n      jump\t// out\n        /* \"contracts/Tenant.sol\":996:1253  function addNewTenant(string memory _name, address _tenantAddress, uint _rentalCost, string memory _residence) public onlyOwner {... */\n    tag_33:\n        /* \"@openzeppelin/contracts/access/Ownable.sol\":1094:1107  _checkOwner() */\n      tag_60\n        /* \"@openzeppelin/contracts/access/Ownable.sol\":1094:1105  _checkOwner */\n      tag_54\n        /* \"@openzeppelin/contracts/access/Ownable.sol\":1094:1107  _checkOwner() */\n      jump\t// in\n    tag_60:\n        /* \"contracts/Tenant.sol\":1167:1245  TenantStruct(_name, _tenantAddress, _rentalCost, _residence, consorcioAddress) */\n      0x40\n      dup1\n      mload\n      0xa0\n      dup2\n      add\n      dup3\n      mstore\n      dup6\n      dup2\n      mstore\n      sub(exp(0x02, 0xa0), 0x01)\n      dup1\n      dup7\n      and\n      0x20\n      dup1\n      dup5\n      add\n      dup3\n      swap1\n      mstore\n      dup4\n      dup6\n      add\n      dup8\n      swap1\n      mstore\n      0x60\n      dup5\n      add\n      dup7\n      swap1\n      mstore\n        /* \"contracts/Tenant.sol\":1228:1244  consorcioAddress */\n      sload(0x03)\n      swap1\n      swap3\n      and\n        /* \"contracts/Tenant.sol\":1167:1245  TenantStruct(_name, _tenantAddress, _rentalCost, _residence, consorcioAddress) */\n      0x80\n      dup5\n      add\n      mstore\n      0x00\n        /* \"contracts/Tenant.sol\":1135:1164  tenantMapping[_tenantAddress] */\n      swap1\n      dup2\n      mstore\n        /* \"contracts/Tenant.sol\":1135:1148  tenantMapping */\n      0x04\n        /* \"contracts/Tenant.sol\":1135:1164  tenantMapping[_tenantAddress] */\n      swap1\n      swap2\n      mstore\n      swap2\n      swap1\n      swap2\n      keccak256\n        /* \"contracts/Tenant.sol\":1135:1245  tenantMapping[_tenantAddress] = TenantStruct(_name, _tenantAddress, _rentalCost, _residence, consorcioAddress) */\n      dup2\n      mload\n        /* \"contracts/Tenant.sol\":1135:1164  tenantMapping[_tenantAddress] */\n      dup2\n      swap1\n        /* \"contracts/Tenant.sol\":1135:1245  tenantMapping[_tenantAddress] = TenantStruct(_name, _tenantAddress, _rentalCost, _residence, consorcioAddress) */\n      tag_62\n      swap1\n        /* \"contracts/Tenant.sol\":1135:1164  tenantMapping[_tenantAddress] */\n      dup3\n        /* \"contracts/Tenant.sol\":1135:1245  tenantMapping[_tenantAddress] = TenantStruct(_name, _tenantAddress, _rentalCost, _residence, consorcioAddress) */\n      tag_63\n      jump\t// in\n    tag_62:\n      pop\n      0x20\n      dup3\n      add\n      mload\n      0x01\n      dup3\n      add\n      dup1\n      sload\n      not(0xffffffffffffffffffffffffffffffffffffffff)\n      and\n      sub(exp(0x02, 0xa0), 0x01)\n      swap1\n      swap3\n      and\n      swap2\n      swap1\n      swap2\n      or\n      swap1\n      sstore\n      0x40\n      dup3\n      add\n      mload\n      0x02\n      dup3\n      add\n      sstore\n      0x60\n      dup3\n      add\n      mload\n      0x03\n      dup3\n      add\n      swap1\n      tag_64\n      swap1\n      dup3\n      tag_63\n      jump\t// in\n    tag_64:\n      pop\n      0x80\n      swap2\n      swap1\n      swap2\n      add\n      mload\n      0x04\n      swap1\n      swap2\n      add\n      dup1\n      sload\n      not(0xffffffffffffffffffffffffffffffffffffffff)\n      and\n      sub(exp(0x02, 0xa0), 0x01)\n      swap1\n      swap3\n      and\n      swap2\n      swap1\n      swap2\n      or\n      swap1\n      sstore\n      pop\n      pop\n      pop\n      pop\n        /* \"contracts/Tenant.sol\":996:1253  function addNewTenant(string memory _name, address _tenantAddress, uint _rentalCost, string memory _residence) public onlyOwner {... */\n      jump\t// out\n        /* \"contracts/Tenant.sol\":796:986  function deposit() public payable {... */\n    tag_35:\n        /* \"contracts/Tenant.sol\":886:896  msg.sender */\n      caller\n        /* \"contracts/Tenant.sol\":872:897  tenantMapping[msg.sender] */\n      0x00\n      dup2\n      dup2\n      mstore\n        /* \"contracts/Tenant.sol\":872:885  tenantMapping */\n      0x04\n        /* \"contracts/Tenant.sol\":872:897  tenantMapping[msg.sender] */\n      0x20\n      mstore\n      0x40\n      swap1\n      keccak256\n        /* \"contracts/Tenant.sol\":872:911  tenantMapping[msg.sender].tenantAddress */\n      0x01\n      add\n      sload\n      sub(exp(0x02, 0xa0), 0x01)\n      and\n        /* \"contracts/Tenant.sol\":849:911  address(msg.sender) == tenantMapping[msg.sender].tenantAddress */\n      eq\n        /* \"contracts/Tenant.sol\":841:938  require(address(msg.sender) == tenantMapping[msg.sender].tenantAddress, \"You aren't valid payer\") */\n      tag_66\n      jumpi\n      mload(0x40)\n      mul(0x461bcd, exp(0x02, 0xe5))\n      dup2\n      mstore\n        /* \"#utility.yul\":6221:6223   */\n      0x20\n        /* \"contracts/Tenant.sol\":841:938  require(address(msg.sender) == tenantMapping[msg.sender].tenantAddress, \"You aren't valid payer\") */\n      0x04\n      dup3\n      add\n        /* \"#utility.yul\":6203:6224   */\n      mstore\n        /* \"#utility.yul\":6260:6262   */\n      0x16\n        /* \"#utility.yul\":6240:6258   */\n      0x24\n      dup3\n      add\n        /* \"#utility.yul\":6233:6263   */\n      mstore\n        /* \"#utility.yul\":6299:6323   */\n      0x596f75206172656e27742076616c696420706179657200000000000000000000\n        /* \"#utility.yul\":6279:6297   */\n      0x44\n      dup3\n      add\n        /* \"#utility.yul\":6272:6324   */\n      mstore\n        /* \"#utility.yul\":6341:6359   */\n      0x64\n      add\n        /* \"contracts/Tenant.sol\":841:938  require(address(msg.sender) == tenantMapping[msg.sender].tenantAddress, \"You aren't valid payer\") */\n    tag_67:\n      mload(0x40)\n      dup1\n      swap2\n      sub\n      swap1\n      revert\n    tag_66:\n        /* \"contracts/Tenant.sol\":954:978  EtherReceived(msg.value) */\n      mload(0x40)\n        /* \"contracts/Tenant.sol\":968:977  msg.value */\n      callvalue\n        /* \"#utility.yul\":6516:6541   */\n      dup2\n      mstore\n        /* \"contracts/Tenant.sol\":954:978  EtherReceived(msg.value) */\n      0x0a34e3d4f1e6b837dbce1011b61499fa1a483a0abee6a7a6697660b4b2d97132\n      swap1\n        /* \"#utility.yul\":6504:6506   */\n      0x20\n        /* \"#utility.yul\":6489:6507   */\n      add\n        /* \"contracts/Tenant.sol\":954:978  EtherReceived(msg.value) */\n      mload(0x40)\n      dup1\n      swap2\n      sub\n      swap1\n      log1\n        /* \"contracts/Tenant.sol\":796:986  function deposit() public payable {... */\n      jump\t// out\n        /* \"contracts/Tenant.sol\":1774:2252  function payExpenses() public payable {... */\n    tag_40:\n        /* \"contracts/Tenant.sol\":1855:1865  msg.sender */\n      caller\n        /* \"contracts/Tenant.sol\":1823:1838  uint rentalCost */\n      0x00\n        /* \"contracts/Tenant.sol\":1841:1866  tenantMapping[msg.sender] */\n      dup2\n      dup2\n      mstore\n        /* \"contracts/Tenant.sol\":1841:1854  tenantMapping */\n      0x04\n        /* \"contracts/Tenant.sol\":1841:1866  tenantMapping[msg.sender] */\n      0x20\n      mstore\n      0x40\n      swap1\n      keccak256\n        /* \"contracts/Tenant.sol\":1841:1877  tenantMapping[msg.sender].rentalCost */\n      0x02\n      dup2\n      add\n      sload\n        /* \"contracts/Tenant.sol\":1919:1958  tenantMapping[msg.sender].tenantAddress */\n      0x01\n      swap1\n      swap2\n      add\n      sload\n        /* \"contracts/Tenant.sol\":1841:1877  tenantMapping[msg.sender].rentalCost */\n      swap1\n      swap2\n      sub(exp(0x02, 0xa0), 0x01)\n        /* \"contracts/Tenant.sol\":1919:1958  tenantMapping[msg.sender].tenantAddress */\n      swap1\n      swap2\n      and\n        /* \"contracts/Tenant.sol\":1896:1958  address(msg.sender) == tenantMapping[msg.sender].tenantAddress */\n      eq\n        /* \"contracts/Tenant.sol\":1888:1985  require(address(msg.sender) == tenantMapping[msg.sender].tenantAddress, \"You aren't valid payer\") */\n      tag_73\n      jumpi\n      mload(0x40)\n      mul(0x461bcd, exp(0x02, 0xe5))\n      dup2\n      mstore\n        /* \"#utility.yul\":6221:6223   */\n      0x20\n        /* \"contracts/Tenant.sol\":1888:1985  require(address(msg.sender) == tenantMapping[msg.sender].tenantAddress, \"You aren't valid payer\") */\n      0x04\n      dup3\n      add\n        /* \"#utility.yul\":6203:6224   */\n      mstore\n        /* \"#utility.yul\":6260:6262   */\n      0x16\n        /* \"#utility.yul\":6240:6258   */\n      0x24\n      dup3\n      add\n        /* \"#utility.yul\":6233:6263   */\n      mstore\n        /* \"#utility.yul\":6299:6323   */\n      0x596f75206172656e27742076616c696420706179657200000000000000000000\n        /* \"#utility.yul\":6279:6297   */\n      0x44\n      dup3\n      add\n        /* \"#utility.yul\":6272:6324   */\n      mstore\n        /* \"#utility.yul\":6341:6359   */\n      0x64\n      add\n        /* \"contracts/Tenant.sol\":1888:1985  require(address(msg.sender) == tenantMapping[msg.sender].tenantAddress, \"You aren't valid payer\") */\n      tag_67\n        /* \"#utility.yul\":6019:6365   */\n      jump\n        /* \"contracts/Tenant.sol\":1888:1985  require(address(msg.sender) == tenantMapping[msg.sender].tenantAddress, \"You aren't valid payer\") */\n    tag_73:\n        /* \"contracts/Tenant.sol\":2017:2027  rentalCost */\n      dup1\n        /* \"contracts/Tenant.sol\":2004:2013  msg.value */\n      callvalue\n        /* \"contracts/Tenant.sol\":2004:2027  msg.value >= rentalCost */\n      lt\n      iszero\n        /* \"contracts/Tenant.sol\":1996:2052  require(msg.value >= rentalCost, \"Fondos insuficientes\") */\n      tag_75\n      jumpi\n      mload(0x40)\n      mul(0x461bcd, exp(0x02, 0xe5))\n      dup2\n      mstore\n        /* \"#utility.yul\":6754:6756   */\n      0x20\n        /* \"contracts/Tenant.sol\":1996:2052  require(msg.value >= rentalCost, \"Fondos insuficientes\") */\n      0x04\n      dup3\n      add\n        /* \"#utility.yul\":6736:6757   */\n      mstore\n        /* \"#utility.yul\":6793:6795   */\n      0x14\n        /* \"#utility.yul\":6773:6791   */\n      0x24\n      dup3\n      add\n        /* \"#utility.yul\":6766:6796   */\n      mstore\n        /* \"#utility.yul\":6832:6854   */\n      0x466f6e646f7320696e737566696369656e746573000000000000000000000000\n        /* \"#utility.yul\":6812:6830   */\n      0x44\n      dup3\n      add\n        /* \"#utility.yul\":6805:6855   */\n      mstore\n        /* \"#utility.yul\":6872:6890   */\n      0x64\n      add\n        /* \"contracts/Tenant.sol\":1996:2052  require(msg.value >= rentalCost, \"Fondos insuficientes\") */\n      tag_67\n        /* \"#utility.yul\":6552:6896   */\n      jump\n        /* \"contracts/Tenant.sol\":1996:2052  require(msg.value >= rentalCost, \"Fondos insuficientes\") */\n    tag_75:\n        /* \"contracts/Tenant.sol\":2078:2094  consorcioAddress */\n      sload(0x03)\n        /* \"contracts/Tenant.sol\":2078:2146  consorcioAddress.call {... */\n      mload(0x40)\n        /* \"contracts/Tenant.sol\":2064:2073  bool sent */\n      0x00\n      swap2\n      sub(exp(0x02, 0xa0), 0x01)\n        /* \"contracts/Tenant.sol\":2078:2094  consorcioAddress */\n      and\n      swap1\n        /* \"contracts/Tenant.sol\":2122:2131  msg.value */\n      callvalue\n      swap1\n        /* \"contracts/Tenant.sol\":2064:2073  bool sent */\n      dup4\n        /* \"contracts/Tenant.sol\":2078:2146  consorcioAddress.call {... */\n      dup2\n        /* \"contracts/Tenant.sol\":2064:2073  bool sent */\n      dup2\n        /* \"contracts/Tenant.sol\":2078:2146  consorcioAddress.call {... */\n      dup2\n        /* \"contracts/Tenant.sol\":2122:2131  msg.value */\n      dup6\n        /* \"contracts/Tenant.sol\":2078:2094  consorcioAddress */\n      dup8\n        /* \"contracts/Tenant.sol\":2078:2146  consorcioAddress.call {... */\n      gas\n      call\n      swap3\n      pop\n      pop\n      pop\n      returndatasize\n      dup1\n      0x00\n      dup2\n      eq\n      tag_82\n      jumpi\n      mload(0x40)\n      swap2\n      pop\n      and(add(returndatasize, 0x3f), not(0x1f))\n      dup3\n      add\n      0x40\n      mstore\n      returndatasize\n      dup3\n      mstore\n      returndatasize\n      0x00\n      0x20\n      dup5\n      add\n      returndatacopy\n      jump(tag_81)\n    tag_82:\n      0x60\n      swap2\n      pop\n    tag_81:\n      pop\n        /* \"contracts/Tenant.sol\":2063:2146  (bool sent,) = consorcioAddress.call {... */\n      swap1\n      swap2\n      pop\n      pop\n        /* \"contracts/Tenant.sol\":2173:2177  true */\n      0x01\n        /* \"contracts/Tenant.sol\":2165:2177  sent == true */\n      dup2\n      iszero\n      iszero\n      eq\n        /* \"contracts/Tenant.sol\":2157:2204  require(sent == true, \"Fallo la transferencia\") */\n      tag_83\n      jumpi\n      mload(0x40)\n      mul(0x461bcd, exp(0x02, 0xe5))\n      dup2\n      mstore\n        /* \"#utility.yul\":7313:7315   */\n      0x20\n        /* \"contracts/Tenant.sol\":2157:2204  require(sent == true, \"Fallo la transferencia\") */\n      0x04\n      dup3\n      add\n        /* \"#utility.yul\":7295:7316   */\n      mstore\n        /* \"#utility.yul\":7352:7354   */\n      0x16\n        /* \"#utility.yul\":7332:7350   */\n      0x24\n      dup3\n      add\n        /* \"#utility.yul\":7325:7355   */\n      mstore\n        /* \"#utility.yul\":7391:7415   */\n      0x46616c6c6f206c61207472616e73666572656e63696100000000000000000000\n        /* \"#utility.yul\":7371:7389   */\n      0x44\n      dup3\n      add\n        /* \"#utility.yul\":7364:7416   */\n      mstore\n        /* \"#utility.yul\":7433:7451   */\n      0x64\n      add\n        /* \"contracts/Tenant.sol\":2157:2204  require(sent == true, \"Fallo la transferencia\") */\n      tag_67\n        /* \"#utility.yul\":7111:7457   */\n      jump\n        /* \"contracts/Tenant.sol\":2157:2204  require(sent == true, \"Fallo la transferencia\") */\n    tag_83:\n        /* \"contracts/Tenant.sol\":2220:2244  ExpensesPaid(rentalCost) */\n      mload(0x40)\n        /* \"#utility.yul\":6516:6541   */\n      dup3\n      dup2\n      mstore\n        /* \"contracts/Tenant.sol\":2220:2244  ExpensesPaid(rentalCost) */\n      0x56e1cf8a52e84572ff49b950fa9a1a1867319bf8eba3bf8c77bc4354678a34c5\n      swap1\n        /* \"#utility.yul\":6504:6506   */\n      0x20\n        /* \"#utility.yul\":6489:6507   */\n      add\n        /* \"contracts/Tenant.sol\":2220:2244  ExpensesPaid(rentalCost) */\n      mload(0x40)\n      dup1\n      swap2\n      sub\n      swap1\n      log1\n        /* \"contracts/Tenant.sol\":1812:2252  {... */\n      pop\n      pop\n        /* \"contracts/Tenant.sol\":1774:2252  function payExpenses() public payable {... */\n      jump\t// out\n        /* \"contracts/Tenant.sol\":1263:1766  function getTenant(address _tenantAddress) public view returns(string memory name, address tenantAddress, uint rentalCost, string memory residence, address consorcioContractAddress){... */\n    tag_45:\n      sub(exp(0x02, 0xa0), 0x01)\n        /* \"contracts/Tenant.sol\":1477:1506  tenantMapping[_tenantAddress] */\n      dup1\n      dup3\n      and\n        /* \"contracts/Tenant.sol\":1346:1367  address tenantAddress */\n      0x00\n        /* \"contracts/Tenant.sol\":1477:1506  tenantMapping[_tenantAddress] */\n      swap1\n      dup2\n      mstore\n        /* \"contracts/Tenant.sol\":1477:1490  tenantMapping */\n      0x04\n        /* \"contracts/Tenant.sol\":1477:1506  tenantMapping[_tenantAddress] */\n      0x20\n      dup2\n      swap1\n      mstore\n      0x40\n      dup3\n      keccak256\n        /* \"contracts/Tenant.sol\":1526:1569  tenantMapping[_tenantAddress].tenantAddress */\n      0x01\n      dup2\n      add\n      sload\n        /* \"contracts/Tenant.sol\":1584:1624  tenantMapping[_tenantAddress].rentalCost */\n      0x02\n      dup3\n      add\n      sload\n        /* \"contracts/Tenant.sol\":1693:1747  tenantMapping[_tenantAddress].consorcioContractAddress */\n      swap3\n      dup3\n      add\n      sload\n        /* \"contracts/Tenant.sol\":1455:1758  return (... */\n      dup3\n      sload\n        /* \"contracts/Tenant.sol\":1326:1344  string memory name */\n      0x60\n      swap7\n        /* \"contracts/Tenant.sol\":1346:1367  address tenantAddress */\n      dup7\n      swap6\n        /* \"contracts/Tenant.sol\":1326:1344  string memory name */\n      dup9\n      swap6\n        /* \"contracts/Tenant.sol\":1346:1367  address tenantAddress */\n      dup8\n      swap6\n        /* \"contracts/Tenant.sol\":1477:1506  tenantMapping[_tenantAddress] */\n      swap1\n      swap5\n        /* \"contracts/Tenant.sol\":1526:1569  tenantMapping[_tenantAddress].tenantAddress */\n      swap1\n      dup4\n      and\n      swap4\n        /* \"contracts/Tenant.sol\":1584:1624  tenantMapping[_tenantAddress].rentalCost */\n      swap2\n      swap3\n        /* \"contracts/Tenant.sol\":1639:1678  tenantMapping[_tenantAddress].residence */\n      0x03\n      dup7\n      add\n      swap3\n        /* \"contracts/Tenant.sol\":1693:1747  tenantMapping[_tenantAddress].consorcioContractAddress */\n      swap2\n      and\n      swap1\n        /* \"contracts/Tenant.sol\":1477:1506  tenantMapping[_tenantAddress] */\n      dup6\n      swap1\n        /* \"contracts/Tenant.sol\":1455:1758  return (... */\n      tag_88\n      swap1\n      tag_89\n      jump\t// in\n    tag_88:\n      dup1\n      0x1f\n      add\n      0x20\n      dup1\n      swap2\n      div\n      mul\n      0x20\n      add\n      mload(0x40)\n      swap1\n      dup2\n      add\n      0x40\n      mstore\n      dup1\n      swap3\n      swap2\n      swap1\n      dup2\n      dup2\n      mstore\n      0x20\n      add\n      dup3\n      dup1\n      sload\n      tag_90\n      swap1\n      tag_89\n      jump\t// in\n    tag_90:\n      dup1\n      iszero\n      tag_91\n      jumpi\n      dup1\n      0x1f\n      lt\n      tag_92\n      jumpi\n      0x0100\n      dup1\n      dup4\n      sload\n      div\n      mul\n      dup4\n      mstore\n      swap2\n      0x20\n      add\n      swap2\n      jump(tag_91)\n    tag_92:\n      dup3\n      add\n      swap2\n      swap1\n      0x00\n      mstore\n      keccak256(0x00, 0x20)\n      swap1\n    tag_93:\n      dup2\n      sload\n      dup2\n      mstore\n      swap1\n      0x01\n      add\n      swap1\n      0x20\n      add\n      dup1\n      dup4\n      gt\n      tag_93\n      jumpi\n      dup3\n      swap1\n      sub\n      0x1f\n      and\n      dup3\n      add\n      swap2\n    tag_91:\n      pop\n      pop\n      pop\n      pop\n      pop\n      swap5\n      pop\n      dup2\n      dup1\n      sload\n      tag_94\n      swap1\n      tag_89\n      jump\t// in\n    tag_94:\n      dup1\n      0x1f\n      add\n      0x20\n      dup1\n      swap2\n      div\n      mul\n      0x20\n      add\n      mload(0x40)\n      swap1\n      dup2\n      add\n      0x40\n      mstore\n      dup1\n      swap3\n      swap2\n      swap1\n      dup2\n      dup2\n      mstore\n      0x20\n      add\n      dup3\n      dup1\n      sload\n      tag_95\n      swap1\n      tag_89\n      jump\t// in\n    tag_95:\n      dup1\n      iszero\n      tag_96\n      jumpi\n      dup1\n      0x1f\n      lt\n      tag_97\n      jumpi\n      0x0100\n      dup1\n      dup4\n      sload\n      div\n      mul\n      dup4\n      mstore\n      swap2\n      0x20\n      add\n      swap2\n      jump(tag_96)\n    tag_97:\n      dup3\n      add\n      swap2\n      swap1\n      0x00\n      mstore\n      keccak256(0x00, 0x20)\n      swap1\n    tag_98:\n      dup2\n      sload\n      dup2\n      mstore\n      swap1\n      0x01\n      add\n      swap1\n      0x20\n      add\n      dup1\n      dup4\n      gt\n      tag_98\n      jumpi\n      dup3\n      swap1\n      sub\n      0x1f\n      and\n      dup3\n      add\n      swap2\n    tag_96:\n      pop\n      pop\n      pop\n      pop\n      pop\n      swap2\n      pop\n      swap5\n      pop\n      swap5\n      pop\n      swap5\n      pop\n      swap5\n      pop\n      swap5\n      pop\n        /* \"contracts/Tenant.sol\":1263:1766  function getTenant(address _tenantAddress) public view returns(string memory name, address tenantAddress, uint rentalCost, string memory residence, address consorcioContractAddress){... */\n      swap2\n      swap4\n      swap6\n      swap1\n      swap3\n      swap5\n      pop\n      jump\t// out\n        /* \"@openzeppelin/contracts/access/Ownable.sol\":2081:2279  function transferOwnership(address newOwner) public virtual onlyOwner {... */\n    tag_51:\n        /* \"@openzeppelin/contracts/access/Ownable.sol\":1094:1107  _checkOwner() */\n      tag_100\n        /* \"@openzeppelin/contracts/access/Ownable.sol\":1094:1105  _checkOwner */\n      tag_54\n        /* \"@openzeppelin/contracts/access/Ownable.sol\":1094:1107  _checkOwner() */\n      jump\t// in\n    tag_100:\n      sub(exp(0x02, 0xa0), 0x01)\n        /* \"@openzeppelin/contracts/access/Ownable.sol\":2169:2191  newOwner != address(0) */\n      dup2\n      and\n        /* \"@openzeppelin/contracts/access/Ownable.sol\":2161:2234  require(newOwner != address(0), \"Ownable: new owner is the zero address\") */\n      tag_102\n      jumpi\n      mload(0x40)\n      mul(0x461bcd, exp(0x02, 0xe5))\n      dup2\n      mstore\n        /* \"#utility.yul\":7664:7666   */\n      0x20\n        /* \"@openzeppelin/contracts/access/Ownable.sol\":2161:2234  require(newOwner != address(0), \"Ownable: new owner is the zero address\") */\n      0x04\n      dup3\n      add\n        /* \"#utility.yul\":7646:7667   */\n      mstore\n        /* \"#utility.yul\":7703:7705   */\n      0x26\n        /* \"#utility.yul\":7683:7701   */\n      0x24\n      dup3\n      add\n        /* \"#utility.yul\":7676:7706   */\n      mstore\n        /* \"#utility.yul\":7742:7776   */\n      0x4f776e61626c653a206e6577206f776e657220697320746865207a65726f2061\n        /* \"#utility.yul\":7722:7740   */\n      0x44\n      dup3\n      add\n        /* \"#utility.yul\":7715:7777   */\n      mstore\n        /* \"#utility.yul\":7813:7821   */\n      0x6464726573730000000000000000000000000000000000000000000000000000\n        /* \"#utility.yul\":7793:7811   */\n      0x64\n      dup3\n      add\n        /* \"#utility.yul\":7786:7822   */\n      mstore\n        /* \"#utility.yul\":7839:7858   */\n      0x84\n      add\n        /* \"@openzeppelin/contracts/access/Ownable.sol\":2161:2234  require(newOwner != address(0), \"Ownable: new owner is the zero address\") */\n      tag_67\n        /* \"#utility.yul\":7462:7864   */\n      jump\n        /* \"@openzeppelin/contracts/access/Ownable.sol\":2161:2234  require(newOwner != address(0), \"Ownable: new owner is the zero address\") */\n    tag_102:\n        /* \"@openzeppelin/contracts/access/Ownable.sol\":2244:2272  _transferOwnership(newOwner) */\n      tag_105\n        /* \"@openzeppelin/contracts/access/Ownable.sol\":2263:2271  newOwner */\n      dup2\n        /* \"@openzeppelin/contracts/access/Ownable.sol\":2244:2262  _transferOwnership */\n      tag_57\n        /* \"@openzeppelin/contracts/access/Ownable.sol\":2244:2272  _transferOwnership(newOwner) */\n      jump\t// in\n    tag_105:\n        /* \"@openzeppelin/contracts/access/Ownable.sol\":2081:2279  function transferOwnership(address newOwner) public virtual onlyOwner {... */\n      pop\n      jump\t// out\n        /* \"@openzeppelin/contracts/access/Ownable.sol\":1359:1489  function _checkOwner() internal view virtual {... */\n    tag_54:\n        /* \"@openzeppelin/contracts/access/Ownable.sol\":1273:1279  _owner */\n      and(sub(exp(0x02, 0xa0), 0x01), sload(0x02))\n        /* \"@openzeppelin/contracts/utils/Context.sol\":719:729  msg.sender */\n      caller\n        /* \"@openzeppelin/contracts/access/Ownable.sol\":1422:1445  owner() == _msgSender() */\n      eq\n        /* \"@openzeppelin/contracts/access/Ownable.sol\":1414:1482  require(owner() == _msgSender(), \"Ownable: caller is not the owner\") */\n      tag_56\n      jumpi\n      mload(0x40)\n      mul(0x461bcd, exp(0x02, 0xe5))\n      dup2\n      mstore\n        /* \"#utility.yul\":8071:8073   */\n      0x20\n        /* \"@openzeppelin/contracts/access/Ownable.sol\":1414:1482  require(owner() == _msgSender(), \"Ownable: caller is not the owner\") */\n      0x04\n      dup3\n      add\n        /* \"#utility.yul\":8053:8074   */\n      dup2\n      swap1\n      mstore\n        /* \"#utility.yul\":8090:8108   */\n      0x24\n      dup3\n      add\n        /* \"#utility.yul\":8083:8113   */\n      mstore\n        /* \"#utility.yul\":8149:8183   */\n      0x4f776e61626c653a2063616c6c6572206973206e6f7420746865206f776e6572\n        /* \"#utility.yul\":8129:8147   */\n      0x44\n      dup3\n      add\n        /* \"#utility.yul\":8122:8184   */\n      mstore\n        /* \"#utility.yul\":8201:8219   */\n      0x64\n      add\n        /* \"@openzeppelin/contracts/access/Ownable.sol\":1414:1482  require(owner() == _msgSender(), \"Ownable: caller is not the owner\") */\n      tag_67\n        /* \"#utility.yul\":7869:8225   */\n      jump\n        /* \"@openzeppelin/contracts/access/Ownable.sol\":2433:2620  function _transferOwnership(address newOwner) internal virtual {... */\n    tag_57:\n        /* \"@openzeppelin/contracts/access/Ownable.sol\":2525:2531  _owner */\n      0x02\n      dup1\n      sload\n      sub(exp(0x02, 0xa0), 0x01)\n        /* \"@openzeppelin/contracts/access/Ownable.sol\":2541:2558  _owner = newOwner */\n      dup4\n      dup2\n      and\n      not(0xffffffffffffffffffffffffffffffffffffffff)\n      dup4\n      and\n      dup2\n      or\n      swap1\n      swap4\n      sstore\n        /* \"@openzeppelin/contracts/access/Ownable.sol\":2573:2613  OwnershipTransferred(oldOwner, newOwner) */\n      mload(0x40)\n        /* \"@openzeppelin/contracts/access/Ownable.sol\":2525:2531  _owner */\n      swap2\n      and\n      swap2\n        /* \"@openzeppelin/contracts/access/Ownable.sol\":2541:2558  _owner = newOwner */\n      swap1\n        /* \"@openzeppelin/contracts/access/Ownable.sol\":2525:2531  _owner */\n      dup3\n      swap1\n        /* \"@openzeppelin/contracts/access/Ownable.sol\":2573:2613  OwnershipTransferred(oldOwner, newOwner) */\n      0x8be0079c531659141344cd1fd0a4f28419497f9722a3daafe3b4186f6b6457e0\n      swap1\n        /* \"@openzeppelin/contracts/access/Ownable.sol\":2506:2522  address oldOwner */\n      0x00\n      swap1\n        /* \"@openzeppelin/contracts/access/Ownable.sol\":2573:2613  OwnershipTransferred(oldOwner, newOwner) */\n      log3\n        /* \"@openzeppelin/contracts/access/Ownable.sol\":2496:2620  {... */\n      pop\n        /* \"@openzeppelin/contracts/access/Ownable.sol\":2433:2620  function _transferOwnership(address newOwner) internal virtual {... */\n      pop\n      jump\t// out\n        /* \"#utility.yul\":245:429   */\n    tag_115:\n        /* \"#utility.yul\":297:374   */\n      0x4e487b7100000000000000000000000000000000000000000000000000000000\n        /* \"#utility.yul\":294:295   */\n      0x00\n        /* \"#utility.yul\":287:375   */\n      mstore\n        /* \"#utility.yul\":394:398   */\n      0x41\n        /* \"#utility.yul\":391:392   */\n      0x04\n        /* \"#utility.yul\":384:399   */\n      mstore\n        /* \"#utility.yul\":418:422   */\n      0x24\n        /* \"#utility.yul\":415:416   */\n      0x00\n        /* \"#utility.yul\":408:423   */\n      revert\n        /* \"#utility.yul\":434:1153   */\n    tag_116:\n        /* \"#utility.yul\":477:482   */\n      0x00\n        /* \"#utility.yul\":530:533   */\n      dup3\n        /* \"#utility.yul\":523:527   */\n      0x1f\n        /* \"#utility.yul\":515:521   */\n      dup4\n        /* \"#utility.yul\":511:528   */\n      add\n        /* \"#utility.yul\":507:534   */\n      slt\n        /* \"#utility.yul\":497:552   */\n      tag_126\n      jumpi\n        /* \"#utility.yul\":548:549   */\n      0x00\n        /* \"#utility.yul\":545:546   */\n      dup1\n        /* \"#utility.yul\":538:550   */\n      revert\n        /* \"#utility.yul\":497:552   */\n    tag_126:\n        /* \"#utility.yul\":584:590   */\n      dup2\n        /* \"#utility.yul\":571:591   */\n      calldataload\n        /* \"#utility.yul\":610:628   */\n      0xffffffffffffffff\n        /* \"#utility.yul\":647:649   */\n      dup1\n        /* \"#utility.yul\":643:645   */\n      dup3\n        /* \"#utility.yul\":640:650   */\n      gt\n        /* \"#utility.yul\":637:673   */\n      iszero\n      tag_128\n      jumpi\n        /* \"#utility.yul\":653:671   */\n      tag_128\n      tag_115\n      jump\t// in\n    tag_128:\n        /* \"#utility.yul\":728:730   */\n      0x40\n        /* \"#utility.yul\":722:731   */\n      mload\n        /* \"#utility.yul\":696:698   */\n      0x1f\n        /* \"#utility.yul\":782:795   */\n      dup4\n      add\n      not(0x1f)\n        /* \"#utility.yul\":778:800   */\n      swap1\n      dup2\n      and\n        /* \"#utility.yul\":802:804   */\n      0x3f\n        /* \"#utility.yul\":774:805   */\n      add\n        /* \"#utility.yul\":770:810   */\n      and\n        /* \"#utility.yul\":758:811   */\n      dup2\n      add\n      swap1\n        /* \"#utility.yul\":826:844   */\n      dup3\n      dup3\n      gt\n        /* \"#utility.yul\":846:868   */\n      dup2\n      dup4\n      lt\n        /* \"#utility.yul\":823:869   */\n      or\n        /* \"#utility.yul\":820:892   */\n      iszero\n      tag_130\n      jumpi\n        /* \"#utility.yul\":872:890   */\n      tag_130\n      tag_115\n      jump\t// in\n    tag_130:\n        /* \"#utility.yul\":912:922   */\n      dup2\n        /* \"#utility.yul\":908:910   */\n      0x40\n        /* \"#utility.yul\":901:923   */\n      mstore\n        /* \"#utility.yul\":947:949   */\n      dup4\n        /* \"#utility.yul\":939:945   */\n      dup2\n        /* \"#utility.yul\":932:950   */\n      mstore\n        /* \"#utility.yul\":993:996   */\n      dup7\n        /* \"#utility.yul\":986:990   */\n      0x20\n        /* \"#utility.yul\":981:983   */\n      dup6\n        /* \"#utility.yul\":973:979   */\n      dup9\n        /* \"#utility.yul\":969:984   */\n      add\n        /* \"#utility.yul\":965:991   */\n      add\n        /* \"#utility.yul\":962:997   */\n      gt\n        /* \"#utility.yul\":959:1014   */\n      iszero\n      tag_131\n      jumpi\n        /* \"#utility.yul\":1010:1011   */\n      0x00\n        /* \"#utility.yul\":1007:1008   */\n      dup1\n        /* \"#utility.yul\":1000:1012   */\n      revert\n        /* \"#utility.yul\":959:1014   */\n    tag_131:\n        /* \"#utility.yul\":1074:1076   */\n      dup4\n        /* \"#utility.yul\":1067:1071   */\n      0x20\n        /* \"#utility.yul\":1059:1065   */\n      dup8\n        /* \"#utility.yul\":1055:1072   */\n      add\n        /* \"#utility.yul\":1048:1052   */\n      0x20\n        /* \"#utility.yul\":1040:1046   */\n      dup4\n        /* \"#utility.yul\":1036:1053   */\n      add\n        /* \"#utility.yul\":1023:1077   */\n      calldatacopy\n        /* \"#utility.yul\":1121:1122   */\n      0x00\n        /* \"#utility.yul\":1114:1118   */\n      0x20\n        /* \"#utility.yul\":1109:1111   */\n      dup6\n        /* \"#utility.yul\":1101:1107   */\n      dup4\n        /* \"#utility.yul\":1097:1112   */\n      add\n        /* \"#utility.yul\":1093:1119   */\n      add\n        /* \"#utility.yul\":1086:1123   */\n      mstore\n        /* \"#utility.yul\":1141:1147   */\n      dup1\n        /* \"#utility.yul\":1132:1147   */\n      swap5\n      pop\n      pop\n      pop\n      pop\n      pop\n        /* \"#utility.yul\":434:1153   */\n      swap3\n      swap2\n      pop\n      pop\n      jump\t// out\n        /* \"#utility.yul\":1158:1354   */\n    tag_117:\n        /* \"#utility.yul\":1226:1246   */\n      dup1\n      calldataload\n      sub(exp(0x02, 0xa0), 0x01)\n        /* \"#utility.yul\":1275:1329   */\n      dup2\n      and\n        /* \"#utility.yul\":1265:1330   */\n      dup2\n      eq\n        /* \"#utility.yul\":1255:1348   */\n      tag_133\n      jumpi\n        /* \"#utility.yul\":1344:1345   */\n      0x00\n        /* \"#utility.yul\":1341:1342   */\n      dup1\n        /* \"#utility.yul\":1334:1346   */\n      revert\n        /* \"#utility.yul\":1255:1348   */\n    tag_133:\n        /* \"#utility.yul\":1158:1354   */\n      swap2\n      swap1\n      pop\n      jump\t// out\n        /* \"#utility.yul\":1359:2045   */\n    tag_32:\n        /* \"#utility.yul\":1465:1471   */\n      0x00\n        /* \"#utility.yul\":1473:1479   */\n      dup1\n        /* \"#utility.yul\":1481:1487   */\n      0x00\n        /* \"#utility.yul\":1489:1495   */\n      dup1\n        /* \"#utility.yul\":1542:1545   */\n      0x80\n        /* \"#utility.yul\":1530:1539   */\n      dup6\n        /* \"#utility.yul\":1521:1528   */\n      dup8\n        /* \"#utility.yul\":1517:1540   */\n      sub\n        /* \"#utility.yul\":1513:1546   */\n      slt\n        /* \"#utility.yul\":1510:1563   */\n      iszero\n      tag_135\n      jumpi\n        /* \"#utility.yul\":1559:1560   */\n      0x00\n        /* \"#utility.yul\":1556:1557   */\n      dup1\n        /* \"#utility.yul\":1549:1561   */\n      revert\n        /* \"#utility.yul\":1510:1563   */\n    tag_135:\n        /* \"#utility.yul\":1599:1608   */\n      dup5\n        /* \"#utility.yul\":1586:1609   */\n      calldataload\n        /* \"#utility.yul\":1628:1646   */\n      0xffffffffffffffff\n        /* \"#utility.yul\":1669:1671   */\n      dup1\n        /* \"#utility.yul\":1661:1667   */\n      dup3\n        /* \"#utility.yul\":1658:1672   */\n      gt\n        /* \"#utility.yul\":1655:1689   */\n      iszero\n      tag_136\n      jumpi\n        /* \"#utility.yul\":1685:1686   */\n      0x00\n        /* \"#utility.yul\":1682:1683   */\n      dup1\n        /* \"#utility.yul\":1675:1687   */\n      revert\n        /* \"#utility.yul\":1655:1689   */\n    tag_136:\n        /* \"#utility.yul\":1708:1758   */\n      tag_137\n        /* \"#utility.yul\":1750:1757   */\n      dup9\n        /* \"#utility.yul\":1741:1747   */\n      dup4\n        /* \"#utility.yul\":1730:1739   */\n      dup10\n        /* \"#utility.yul\":1726:1748   */\n      add\n        /* \"#utility.yul\":1708:1758   */\n      tag_116\n      jump\t// in\n    tag_137:\n        /* \"#utility.yul\":1698:1758   */\n      swap6\n      pop\n        /* \"#utility.yul\":1777:1815   */\n      tag_138\n        /* \"#utility.yul\":1811:1813   */\n      0x20\n        /* \"#utility.yul\":1800:1809   */\n      dup9\n        /* \"#utility.yul\":1796:1814   */\n      add\n        /* \"#utility.yul\":1777:1815   */\n      tag_117\n      jump\t// in\n    tag_138:\n        /* \"#utility.yul\":1767:1815   */\n      swap5\n      pop\n        /* \"#utility.yul\":1862:1864   */\n      0x40\n        /* \"#utility.yul\":1851:1860   */\n      dup8\n        /* \"#utility.yul\":1847:1865   */\n      add\n        /* \"#utility.yul\":1834:1866   */\n      calldataload\n        /* \"#utility.yul\":1824:1866   */\n      swap4\n      pop\n        /* \"#utility.yul\":1919:1921   */\n      0x60\n        /* \"#utility.yul\":1908:1917   */\n      dup8\n        /* \"#utility.yul\":1904:1922   */\n      add\n        /* \"#utility.yul\":1891:1923   */\n      calldataload\n        /* \"#utility.yul\":1875:1923   */\n      swap2\n      pop\n        /* \"#utility.yul\":1948:1950   */\n      dup1\n        /* \"#utility.yul\":1938:1946   */\n      dup3\n        /* \"#utility.yul\":1935:1951   */\n      gt\n        /* \"#utility.yul\":1932:1968   */\n      iszero\n      tag_139\n      jumpi\n        /* \"#utility.yul\":1964:1965   */\n      0x00\n        /* \"#utility.yul\":1961:1962   */\n      dup1\n        /* \"#utility.yul\":1954:1966   */\n      revert\n        /* \"#utility.yul\":1932:1968   */\n    tag_139:\n      pop\n        /* \"#utility.yul\":1987:2039   */\n      tag_140\n        /* \"#utility.yul\":2031:2038   */\n      dup8\n        /* \"#utility.yul\":2020:2028   */\n      dup3\n        /* \"#utility.yul\":2009:2018   */\n      dup9\n        /* \"#utility.yul\":2005:2029   */\n      add\n        /* \"#utility.yul\":1987:2039   */\n      tag_116\n      jump\t// in\n    tag_140:\n        /* \"#utility.yul\":1977:2039   */\n      swap2\n      pop\n      pop\n        /* \"#utility.yul\":1359:2045   */\n      swap3\n      swap6\n      swap2\n      swap5\n      pop\n      swap3\n      pop\n      jump\t// out\n        /* \"#utility.yul\":2050:2236   */\n    tag_44:\n        /* \"#utility.yul\":2109:2115   */\n      0x00\n        /* \"#utility.yul\":2162:2164   */\n      0x20\n        /* \"#utility.yul\":2150:2159   */\n      dup3\n        /* \"#utility.yul\":2141:2148   */\n      dup5\n        /* \"#utility.yul\":2137:2160   */\n      sub\n        /* \"#utility.yul\":2133:2165   */\n      slt\n        /* \"#utility.yul\":2130:2182   */\n      iszero\n      tag_142\n      jumpi\n        /* \"#utility.yul\":2178:2179   */\n      0x00\n        /* \"#utility.yul\":2175:2176   */\n      dup1\n        /* \"#utility.yul\":2168:2180   */\n      revert\n        /* \"#utility.yul\":2130:2182   */\n    tag_142:\n        /* \"#utility.yul\":2201:2230   */\n      tag_143\n        /* \"#utility.yul\":2220:2229   */\n      dup3\n        /* \"#utility.yul\":2201:2230   */\n      tag_117\n      jump\t// in\n    tag_143:\n        /* \"#utility.yul\":2191:2230   */\n      swap4\n        /* \"#utility.yul\":2050:2236   */\n      swap3\n      pop\n      pop\n      pop\n      jump\t// out\n        /* \"#utility.yul\":2241:2664   */\n    tag_118:\n        /* \"#utility.yul\":2283:2286   */\n      0x00\n        /* \"#utility.yul\":2321:2326   */\n      dup2\n        /* \"#utility.yul\":2315:2327   */\n      mload\n        /* \"#utility.yul\":2348:2354   */\n      dup1\n        /* \"#utility.yul\":2343:2346   */\n      dup5\n        /* \"#utility.yul\":2336:2355   */\n      mstore\n        /* \"#utility.yul\":2373:2374   */\n      0x00\n        /* \"#utility.yul\":2383:2545   */\n    tag_145:\n        /* \"#utility.yul\":2397:2403   */\n      dup2\n        /* \"#utility.yul\":2394:2395   */\n      dup2\n        /* \"#utility.yul\":2391:2404   */\n      lt\n        /* \"#utility.yul\":2383:2545   */\n      iszero\n      tag_147\n      jumpi\n        /* \"#utility.yul\":2459:2463   */\n      0x20\n        /* \"#utility.yul\":2515:2528   */\n      dup2\n      dup6\n      add\n        /* \"#utility.yul\":2511:2533   */\n      dup2\n      add\n        /* \"#utility.yul\":2505:2534   */\n      mload\n        /* \"#utility.yul\":2487:2498   */\n      dup7\n      dup4\n      add\n        /* \"#utility.yul\":2483:2503   */\n      dup3\n      add\n        /* \"#utility.yul\":2476:2535   */\n      mstore\n        /* \"#utility.yul\":2412:2424   */\n      add\n        /* \"#utility.yul\":2383:2545   */\n      jump(tag_145)\n    tag_147:\n        /* \"#utility.yul\":2387:2390   */\n      pop\n        /* \"#utility.yul\":2590:2591   */\n      0x00\n        /* \"#utility.yul\":2583:2587   */\n      0x20\n        /* \"#utility.yul\":2574:2580   */\n      dup3\n        /* \"#utility.yul\":2569:2572   */\n      dup7\n        /* \"#utility.yul\":2565:2581   */\n      add\n        /* \"#utility.yul\":2561:2588   */\n      add\n        /* \"#utility.yul\":2554:2592   */\n      mstore\n        /* \"#utility.yul\":2653:2657   */\n      0x20\n        /* \"#utility.yul\":2646:2648   */\n      0x1f\n        /* \"#utility.yul\":2642:2649   */\n      not\n        /* \"#utility.yul\":2637:2639   */\n      0x1f\n        /* \"#utility.yul\":2629:2635   */\n      dup4\n        /* \"#utility.yul\":2625:2640   */\n      add\n        /* \"#utility.yul\":2621:2650   */\n      and\n        /* \"#utility.yul\":2616:2619   */\n      dup6\n        /* \"#utility.yul\":2612:2651   */\n      add\n        /* \"#utility.yul\":2608:2658   */\n      add\n        /* \"#utility.yul\":2601:2658   */\n      swap2\n      pop\n      pop\n        /* \"#utility.yul\":2241:2664   */\n      swap3\n      swap2\n      pop\n      pop\n      jump\t// out\n        /* \"#utility.yul\":2669:3347   */\n    tag_47:\n        /* \"#utility.yul\":2950:2953   */\n      0xa0\n        /* \"#utility.yul\":2939:2948   */\n      dup2\n        /* \"#utility.yul\":2932:2954   */\n      mstore\n        /* \"#utility.yul\":2913:2917   */\n      0x00\n        /* \"#utility.yul\":2977:3023   */\n      tag_149\n        /* \"#utility.yul\":3018:3021   */\n      0xa0\n        /* \"#utility.yul\":3007:3016   */\n      dup4\n        /* \"#utility.yul\":3003:3022   */\n      add\n        /* \"#utility.yul\":2995:3001   */\n      dup9\n        /* \"#utility.yul\":2977:3023   */\n      tag_118\n      jump\t// in\n    tag_149:\n      sub(exp(0x02, 0xa0), 0x01)\n        /* \"#utility.yul\":3132:3134   */\n      dup1\n        /* \"#utility.yul\":3124:3130   */\n      dup9\n        /* \"#utility.yul\":3120:3135   */\n      and\n        /* \"#utility.yul\":3115:3117   */\n      0x20\n        /* \"#utility.yul\":3104:3113   */\n      dup6\n        /* \"#utility.yul\":3100:3118   */\n      add\n        /* \"#utility.yul\":3093:3136   */\n      mstore\n        /* \"#utility.yul\":3172:3178   */\n      dup7\n        /* \"#utility.yul\":3167:3169   */\n      0x40\n        /* \"#utility.yul\":3156:3165   */\n      dup6\n        /* \"#utility.yul\":3152:3170   */\n      add\n        /* \"#utility.yul\":3145:3179   */\n      mstore\n        /* \"#utility.yul\":3227:3236   */\n      dup4\n        /* \"#utility.yul\":3219:3225   */\n      dup3\n        /* \"#utility.yul\":3215:3237   */\n      sub\n        /* \"#utility.yul\":3210:3212   */\n      0x60\n        /* \"#utility.yul\":3199:3208   */\n      dup6\n        /* \"#utility.yul\":3195:3213   */\n      add\n        /* \"#utility.yul\":3188:3238   */\n      mstore\n        /* \"#utility.yul\":3255:3288   */\n      tag_150\n        /* \"#utility.yul\":3281:3287   */\n      dup3\n        /* \"#utility.yul\":3273:3279   */\n      dup8\n        /* \"#utility.yul\":3255:3288   */\n      tag_118\n      jump\t// in\n    tag_150:\n        /* \"#utility.yul\":3247:3288   */\n      swap3\n      pop\n        /* \"#utility.yul\":3337:3339   */\n      dup1\n        /* \"#utility.yul\":3329:3335   */\n      dup6\n        /* \"#utility.yul\":3325:3340   */\n      and\n        /* \"#utility.yul\":3319:3322   */\n      0x80\n        /* \"#utility.yul\":3308:3317   */\n      dup6\n        /* \"#utility.yul\":3304:3323   */\n      add\n        /* \"#utility.yul\":3297:3341   */\n      mstore\n      pop\n      pop\n        /* \"#utility.yul\":2669:3347   */\n      swap7\n      swap6\n      pop\n      pop\n      pop\n      pop\n      pop\n      pop\n      jump\t// out\n        /* \"#utility.yul\":3352:3789   */\n    tag_89:\n        /* \"#utility.yul\":3437:3438   */\n      0x02\n        /* \"#utility.yul\":3427:3439   */\n      dup2\n      div\n        /* \"#utility.yul\":3484:3485   */\n      0x01\n        /* \"#utility.yul\":3474:3486   */\n      dup3\n      and\n      dup1\n        /* \"#utility.yul\":3495:3556   */\n      tag_152\n      jumpi\n        /* \"#utility.yul\":3549:3553   */\n      0x7f\n        /* \"#utility.yul\":3541:3547   */\n      dup3\n        /* \"#utility.yul\":3537:3554   */\n      and\n        /* \"#utility.yul\":3527:3554   */\n      swap2\n      pop\n        /* \"#utility.yul\":3495:3556   */\n    tag_152:\n        /* \"#utility.yul\":3602:3604   */\n      0x20\n        /* \"#utility.yul\":3594:3600   */\n      dup3\n        /* \"#utility.yul\":3591:3605   */\n      lt\n        /* \"#utility.yul\":3571:3589   */\n      dup2\n        /* \"#utility.yul\":3568:3606   */\n      sub\n        /* \"#utility.yul\":3565:3783   */\n      tag_153\n      jumpi\n        /* \"#utility.yul\":3639:3716   */\n      0x4e487b7100000000000000000000000000000000000000000000000000000000\n        /* \"#utility.yul\":3636:3637   */\n      0x00\n        /* \"#utility.yul\":3629:3717   */\n      mstore\n        /* \"#utility.yul\":3740:3744   */\n      0x22\n        /* \"#utility.yul\":3737:3738   */\n      0x04\n        /* \"#utility.yul\":3730:3745   */\n      mstore\n        /* \"#utility.yul\":3768:3772   */\n      0x24\n        /* \"#utility.yul\":3765:3766   */\n      0x00\n        /* \"#utility.yul\":3758:3773   */\n      revert\n        /* \"#utility.yul\":3565:3783   */\n    tag_153:\n      pop\n        /* \"#utility.yul\":3352:3789   */\n      swap2\n      swap1\n      pop\n      jump\t// out\n        /* \"#utility.yul\":3920:4471   */\n    tag_120:\n        /* \"#utility.yul\":4022:4024   */\n      0x1f\n        /* \"#utility.yul\":4017:4020   */\n      dup3\n        /* \"#utility.yul\":4014:4025   */\n      gt\n        /* \"#utility.yul\":4011:4465   */\n      iszero\n      tag_156\n      jumpi\n        /* \"#utility.yul\":4058:4059   */\n      0x00\n        /* \"#utility.yul\":4083:4088   */\n      dup2\n        /* \"#utility.yul\":4079:4081   */\n      dup2\n        /* \"#utility.yul\":4072:4089   */\n      mstore\n        /* \"#utility.yul\":4128:4132   */\n      0x20\n        /* \"#utility.yul\":4124:4126   */\n      dup2\n        /* \"#utility.yul\":4114:4133   */\n      keccak256\n        /* \"#utility.yul\":4200:4204   */\n      0x20\n        /* \"#utility.yul\":4195:4197   */\n      0x1f\n        /* \"#utility.yul\":4183:4193   */\n      dup7\n        /* \"#utility.yul\":4179:4198   */\n      add\n        /* \"#utility.yul\":4175:4205   */\n      div\n        /* \"#utility.yul\":4169:4173   */\n      dup2\n        /* \"#utility.yul\":4165:4206   */\n      add\n        /* \"#utility.yul\":4237:4241   */\n      0x20\n        /* \"#utility.yul\":4225:4235   */\n      dup7\n        /* \"#utility.yul\":4222:4242   */\n      lt\n        /* \"#utility.yul\":4219:4266   */\n      iszero\n      tag_157\n      jumpi\n      pop\n        /* \"#utility.yul\":4260:4264   */\n      dup1\n        /* \"#utility.yul\":4219:4266   */\n    tag_157:\n        /* \"#utility.yul\":4317:4321   */\n      0x20\n        /* \"#utility.yul\":4312:4314   */\n      0x1f\n        /* \"#utility.yul\":4307:4310   */\n      dup7\n        /* \"#utility.yul\":4303:4315   */\n      add\n        /* \"#utility.yul\":4299:4322   */\n      div\n        /* \"#utility.yul\":4293:4297   */\n      dup3\n        /* \"#utility.yul\":4289:4323   */\n      add\n        /* \"#utility.yul\":4279:4323   */\n      swap2\n      pop\n        /* \"#utility.yul\":4373:4455   */\n    tag_158:\n        /* \"#utility.yul\":4391:4393   */\n      dup2\n        /* \"#utility.yul\":4384:4389   */\n      dup2\n        /* \"#utility.yul\":4381:4394   */\n      lt\n        /* \"#utility.yul\":4373:4455   */\n      iszero\n      tag_160\n      jumpi\n        /* \"#utility.yul\":4436:4453   */\n      dup3\n      dup2\n      sstore\n        /* \"#utility.yul\":4417:4418   */\n      0x01\n        /* \"#utility.yul\":4406:4419   */\n      add\n        /* \"#utility.yul\":4373:4455   */\n      jump(tag_158)\n    tag_160:\n        /* \"#utility.yul\":4377:4380   */\n      pop\n      pop\n      pop\n        /* \"#utility.yul\":4011:4465   */\n    tag_156:\n        /* \"#utility.yul\":3920:4471   */\n      pop\n      pop\n      pop\n      jump\t// out\n        /* \"#utility.yul\":4655:6014   */\n    tag_63:\n        /* \"#utility.yul\":4781:4784   */\n      dup2\n        /* \"#utility.yul\":4775:4785   */\n      mload\n        /* \"#utility.yul\":4808:4826   */\n      0xffffffffffffffff\n        /* \"#utility.yul\":4800:4806   */\n      dup2\n        /* \"#utility.yul\":4797:4827   */\n      gt\n        /* \"#utility.yul\":4794:4850   */\n      iszero\n      tag_164\n      jumpi\n        /* \"#utility.yul\":4830:4848   */\n      tag_164\n      tag_115\n      jump\t// in\n    tag_164:\n        /* \"#utility.yul\":4859:4956   */\n      tag_165\n        /* \"#utility.yul\":4949:4955   */\n      dup2\n        /* \"#utility.yul\":4909:4947   */\n      tag_166\n        /* \"#utility.yul\":4941:4945   */\n      dup5\n        /* \"#utility.yul\":4935:4946   */\n      sload\n        /* \"#utility.yul\":4909:4947   */\n      tag_89\n      jump\t// in\n    tag_166:\n        /* \"#utility.yul\":4903:4907   */\n      dup5\n        /* \"#utility.yul\":4859:4956   */\n      tag_120\n      jump\t// in\n    tag_165:\n        /* \"#utility.yul\":5011:5015   */\n      0x20\n      dup1\n        /* \"#utility.yul\":5075:5077   */\n      0x1f\n        /* \"#utility.yul\":5064:5078   */\n      dup4\n      gt\n        /* \"#utility.yul\":5092:5093   */\n      0x01\n        /* \"#utility.yul\":5087:5757   */\n      dup2\n      eq\n      tag_168\n      jumpi\n        /* \"#utility.yul\":5801:5802   */\n      0x00\n        /* \"#utility.yul\":5818:5824   */\n      dup5\n        /* \"#utility.yul\":5815:5904   */\n      iszero\n      tag_169\n      jumpi\n      pop\n        /* \"#utility.yul\":5870:5889   */\n      dup6\n      dup4\n      add\n        /* \"#utility.yul\":5864:5890   */\n      mload\n        /* \"#utility.yul\":5815:5904   */\n    tag_169:\n        /* \"#utility.yul\":4636:4637   */\n      0x02\n        /* \"#utility.yul\":4632:4643   */\n      dup1\n      dup7\n      mul\n        /* \"#utility.yul\":4619:4620   */\n      0x08\n        /* \"#utility.yul\":4615:4626   */\n      dup8\n      mul\n        /* \"#utility.yul\":4608:4627   */\n      swap1\n      swap2\n      exp\n      not(0x00)\n        /* \"#utility.yul\":4596:4628   */\n      div\n        /* \"#utility.yul\":4592:4629   */\n      not\n        /* \"#utility.yul\":4582:4630   */\n      dup3\n      and\n        /* \"#utility.yul\":4579:4644   */\n      or\n        /* \"#utility.yul\":5924:5928   */\n      dup7\n        /* \"#utility.yul\":5917:5998   */\n      sstore\n      pop\n        /* \"#utility.yul\":5057:6008   */\n      jump(tag_160)\n        /* \"#utility.yul\":5087:5757   */\n    tag_168:\n        /* \"#utility.yul\":3867:3868   */\n      0x00\n        /* \"#utility.yul\":3860:3874   */\n      dup6\n      dup2\n      mstore\n        /* \"#utility.yul\":3904:3908   */\n      0x20\n        /* \"#utility.yul\":3891:3909   */\n      dup2\n      keccak256\n      not(0x1f)\n        /* \"#utility.yul\":5123:5143   */\n      dup7\n      and\n      swap2\n        /* \"#utility.yul\":5241:5477   */\n    tag_172:\n        /* \"#utility.yul\":5255:5262   */\n      dup3\n        /* \"#utility.yul\":5252:5253   */\n      dup2\n        /* \"#utility.yul\":5249:5263   */\n      lt\n        /* \"#utility.yul\":5241:5477   */\n      iszero\n      tag_174\n      jumpi\n        /* \"#utility.yul\":5344:5363   */\n      dup9\n      dup7\n      add\n        /* \"#utility.yul\":5338:5364   */\n      mload\n        /* \"#utility.yul\":5323:5365   */\n      dup3\n      sstore\n        /* \"#utility.yul\":5436:5463   */\n      swap5\n      dup5\n      add\n      swap5\n        /* \"#utility.yul\":5404:5405   */\n      0x01\n        /* \"#utility.yul\":5392:5406   */\n      swap1\n      swap2\n      add\n      swap1\n        /* \"#utility.yul\":5271:5290   */\n      dup5\n      add\n        /* \"#utility.yul\":5241:5477   */\n      jump(tag_172)\n    tag_174:\n        /* \"#utility.yul\":5245:5248   */\n      pop\n        /* \"#utility.yul\":5505:5511   */\n      dup6\n        /* \"#utility.yul\":5496:5503   */\n      dup3\n        /* \"#utility.yul\":5493:5512   */\n      lt\n        /* \"#utility.yul\":5490:5698   */\n      iszero\n      tag_175\n      jumpi\n        /* \"#utility.yul\":5566:5585   */\n      dup8\n      dup6\n      add\n        /* \"#utility.yul\":5560:5586   */\n      mload\n        /* \"#utility.yul\":5660:5661   */\n      0x08\n        /* \"#utility.yul\":5675:5677   */\n      0x1f\n        /* \"#utility.yul\":5663:5678   */\n      dup9\n      and\n        /* \"#utility.yul\":5656:5679   */\n      mul\n        /* \"#utility.yul\":5653:5654   */\n      0x02\n        /* \"#utility.yul\":5649:5680   */\n      exp\n      not(0x00)\n        /* \"#utility.yul\":5637:5681   */\n      div\n        /* \"#utility.yul\":5633:5682   */\n      not\n        /* \"#utility.yul\":5618:5683   */\n      and\n        /* \"#utility.yul\":5603:5684   */\n      dup2\n      sstore\n        /* \"#utility.yul\":5490:5698   */\n    tag_175:\n      pop\n      pop\n      pop\n      pop\n      pop\n        /* \"#utility.yul\":5740:5741   */\n      0x02\n        /* \"#utility.yul\":5728:5742   */\n      mul\n        /* \"#utility.yul\":5744:5745   */\n      0x01\n        /* \"#utility.yul\":5724:5746   */\n      add\n        /* \"#utility.yul\":5711:5747   */\n      swap1\n      sstore\n      pop\n        /* \"#utility.yul\":4655:6014   */\n      jump\t// out\n\n    auxdata: 0xa2646970667358221220793718e946d50bb47a51edd8225c6a7f6671f68315253032b52b28ee6866432664736f6c63430008110033\n}\n",
				"bytecode": {
					"linkReferences": {},
					"object": "608060405260405162000e5638038062000e56833981016040819052620000269162000107565b604080516020810190915260008082528062000043838262000210565b5060018054600160a060020a031916600160a060020a0392909216919091179055506200008b6200007c640100000000620000b1810204565b640100000000620000b5810204565b60038054600160a060020a031916600160a060020a0392909216919091179055620002e3565b3390565b60028054600160a060020a03838116600160a060020a0319831681179093556040519116919082907f8be0079c531659141344cd1fd0a4f28419497f9722a3daafe3b4186f6b6457e090600090a35050565b6000602082840312156200011a57600080fd5b8151600160a060020a03811681146200013257600080fd5b9392505050565b7f4e487b7100000000000000000000000000000000000000000000000000000000600052604160045260246000fd5b6002810460018216806200017d57607f821691505b602082108103620001b7577f4e487b7100000000000000000000000000000000000000000000000000000000600052602260045260246000fd5b50919050565b601f8211156200020b576000818152602081206020601f86010481016020861015620001e65750805b6020601f860104820191505b818110156200020757828155600101620001f2565b5050505b505050565b815167ffffffffffffffff8111156200022d576200022d62000139565b62000245816200023e845462000168565b84620001bd565b602080601f831160018114620002815760008415620002645750858301515b60028086026008870290910a600019041982161786555062000207565b600085815260208120601f198616915b82811015620002b25788860151825594840194600190910190840162000291565b5085821015620002d357878501516008601f88160260020a60001904191681555b5050505050600202600101905550565b610b6380620002f36000396000f3fe6080604052600436106100a1576000357c010000000000000000000000000000000000000000000000000000000090048063d0e30db011610073578063d0e30db01461013a578063d4e9329214610142578063da6e75c21461014e578063e5cdb48814610156578063f2fde38b1461018757005b80631581b600146100aa578063715018a6146100e75780638da5cb5b146100fc578063cc0395bf1461011a57005b366100a857005b005b3480156100b657600080fd5b506001546100ca90600160a060020a031681565b604051600160a060020a0390911681526020015b60405180910390f35b3480156100f357600080fd5b506100a86101a7565b34801561010857600080fd5b50600254600160a060020a03166100ca565b34801561012657600080fd5b506100a861013536600461088e565b6101bb565b6100a86102a6565b3480156100a857600080fd5b6100a861034c565b34801561016257600080fd5b5061017661017136600461090c565b6104f9565b6040516100de959493929190610974565b34801561019357600080fd5b506100a86101a236600461090c565b610667565b6101af6106fa565b6101b96000610757565b565b6101c36106fa565b6040805160a081018252858152600160a060020a0380861660208084018290528385018790526060840186905260035490921660808401526000908152600490915291909120815181906102179082610a67565b50602082015160018201805473ffffffffffffffffffffffffffffffffffffffff1916600160a060020a0390921691909117905560408201516002820155606082015160038201906102699082610a67565b50608091909101516004909101805473ffffffffffffffffffffffffffffffffffffffff1916600160a060020a0390921691909117905550505050565b33600081815260046020526040902060010154600160a060020a0316146103175760405160e560020a62461bcd02815260206004820152601660248201527f596f75206172656e27742076616c69642070617965720000000000000000000060448201526064015b60405180910390fd5b6040513481527f0a34e3d4f1e6b837dbce1011b61499fa1a483a0abee6a7a6697660b4b2d971329060200160405180910390a1565b33600081815260046020526040902060028101546001909101549091600160a060020a03909116146103c35760405160e560020a62461bcd02815260206004820152601660248201527f596f75206172656e27742076616c696420706179657200000000000000000000604482015260640161030e565b803410156104165760405160e560020a62461bcd02815260206004820152601460248201527f466f6e646f7320696e737566696369656e746573000000000000000000000000604482015260640161030e565b600354604051600091600160a060020a03169034908381818185875af1925050503d8060008114610463576040519150601f19603f3d011682016040523d82523d6000602084013e610468565b606091505b50909150506001811515146104c25760405160e560020a62461bcd02815260206004820152601660248201527f46616c6c6f206c61207472616e73666572656e63696100000000000000000000604482015260640161030e565b6040518281527f56e1cf8a52e84572ff49b950fa9a1a1867319bf8eba3bf8c77bc4354678a34c59060200160405180910390a15050565b600160a060020a038082166000908152600460208190526040822060018101546002820154928201548254606096869588958795909490831693919260038601929116908590610548906109c5565b80601f0160208091040260200160405190810160405280929190818152602001828054610574906109c5565b80156105c15780601f10610596576101008083540402835291602001916105c1565b820191906000526020600020905b8154815290600101906020018083116105a457829003601f168201915b505050505094508180546105d4906109c5565b80601f0160208091040260200160405190810160405280929190818152602001828054610600906109c5565b801561064d5780601f106106225761010080835404028352916020019161064d565b820191906000526020600020905b81548152906001019060200180831161063057829003601f168201915b505050505091509450945094509450945091939590929450565b61066f6106fa565b600160a060020a0381166106ee5760405160e560020a62461bcd02815260206004820152602660248201527f4f776e61626c653a206e6577206f776e657220697320746865207a65726f206160448201527f6464726573730000000000000000000000000000000000000000000000000000606482015260840161030e565b6106f781610757565b50565b600254600160a060020a031633146101b95760405160e560020a62461bcd02815260206004820181905260248201527f4f776e61626c653a2063616c6c6572206973206e6f7420746865206f776e6572604482015260640161030e565b60028054600160a060020a0383811673ffffffffffffffffffffffffffffffffffffffff19831681179093556040519116919082907f8be0079c531659141344cd1fd0a4f28419497f9722a3daafe3b4186f6b6457e090600090a35050565b7f4e487b7100000000000000000000000000000000000000000000000000000000600052604160045260246000fd5b600082601f8301126107f657600080fd5b813567ffffffffffffffff80821115610811576108116107b6565b604051601f8301601f19908116603f01168101908282118183101715610839576108396107b6565b8160405283815286602085880101111561085257600080fd5b836020870160208301376000602085830101528094505050505092915050565b8035600160a060020a038116811461088957600080fd5b919050565b600080600080608085870312156108a457600080fd5b843567ffffffffffffffff808211156108bc57600080fd5b6108c8888389016107e5565b95506108d660208801610872565b94506040870135935060608701359150808211156108f357600080fd5b50610900878288016107e5565b91505092959194509250565b60006020828403121561091e57600080fd5b61092782610872565b9392505050565b6000815180845260005b8181101561095457602081850181015186830182015201610938565b506000602082860101526020601f19601f83011685010191505092915050565b60a08152600061098760a083018861092e565b600160a060020a03808816602085015286604085015283820360608501526109af828761092e565b9250808516608085015250509695505050505050565b6002810460018216806109d957607f821691505b602082108103610a12577f4e487b7100000000000000000000000000000000000000000000000000000000600052602260045260246000fd5b50919050565b601f821115610a62576000818152602081206020601f86010481016020861015610a3f5750805b6020601f860104820191505b81811015610a5e57828155600101610a4b565b5050505b505050565b815167ffffffffffffffff811115610a8157610a816107b6565b610a9581610a8f84546109c5565b84610a18565b602080601f831160018114610ace5760008415610ab25750858301515b60028086026008870290910a6000190419821617865550610a5e565b600085815260208120601f198616915b82811015610afd57888601518255948401946001909101908401610ade565b5085821015610b1d57878501516008601f88160260020a60001904191681555b505050505060020260010190555056fea2646970667358221220793718e946d50bb47a51edd8225c6a7f6671f68315253032b52b28ee6866432664736f6c63430008110033",
					"opcodes": "PUSH1 0x80 PUSH1 0x40 MSTORE PUSH1 0x40 MLOAD PUSH3 0xE56 CODESIZE SUB DUP1 PUSH3 0xE56 DUP4 CODECOPY DUP2 ADD PUSH1 0x40 DUP2 SWAP1 MSTORE PUSH3 0x26 SWAP2 PUSH3 0x107 JUMP JUMPDEST PUSH1 0x40 DUP1 MLOAD PUSH1 0x20 DUP2 ADD SWAP1 SWAP2 MSTORE PUSH1 0x0 DUP1 DUP3 MSTORE DUP1 PUSH3 0x43 DUP4 DUP3 PUSH3 0x210 JUMP JUMPDEST POP PUSH1 0x1 DUP1 SLOAD PUSH1 0x1 PUSH1 0xA0 PUSH1 0x2 EXP SUB NOT AND PUSH1 0x1 PUSH1 0xA0 PUSH1 0x2 EXP SUB SWAP3 SWAP1 SWAP3 AND SWAP2 SWAP1 SWAP2 OR SWAP1 SSTORE POP PUSH3 0x8B PUSH3 0x7C PUSH5 0x100000000 PUSH3 0xB1 DUP2 MUL DIV JUMP JUMPDEST PUSH5 0x100000000 PUSH3 0xB5 DUP2 MUL DIV JUMP JUMPDEST PUSH1 0x3 DUP1 SLOAD PUSH1 0x1 PUSH1 0xA0 PUSH1 0x2 EXP SUB NOT AND PUSH1 0x1 PUSH1 0xA0 PUSH1 0x2 EXP SUB SWAP3 SWAP1 SWAP3 AND SWAP2 SWAP1 SWAP2 OR SWAP1 SSTORE PUSH3 0x2E3 JUMP JUMPDEST CALLER SWAP1 JUMP JUMPDEST PUSH1 0x2 DUP1 SLOAD PUSH1 0x1 PUSH1 0xA0 PUSH1 0x2 EXP SUB DUP4 DUP2 AND PUSH1 0x1 PUSH1 0xA0 PUSH1 0x2 EXP SUB NOT DUP4 AND DUP2 OR SWAP1 SWAP4 SSTORE PUSH1 0x40 MLOAD SWAP2 AND SWAP2 SWAP1 DUP3 SWAP1 PUSH32 0x8BE0079C531659141344CD1FD0A4F28419497F9722A3DAAFE3B4186F6B6457E0 SWAP1 PUSH1 0x0 SWAP1 LOG3 POP POP JUMP JUMPDEST PUSH1 0x0 PUSH1 0x20 DUP3 DUP5 SUB SLT ISZERO PUSH3 0x11A JUMPI PUSH1 0x0 DUP1 REVERT JUMPDEST DUP2 MLOAD PUSH1 0x1 PUSH1 0xA0 PUSH1 0x2 EXP SUB DUP2 AND DUP2 EQ PUSH3 0x132 JUMPI PUSH1 0x0 DUP1 REVERT JUMPDEST SWAP4 SWAP3 POP POP POP JUMP JUMPDEST PUSH32 0x4E487B7100000000000000000000000000000000000000000000000000000000 PUSH1 0x0 MSTORE PUSH1 0x41 PUSH1 0x4 MSTORE PUSH1 0x24 PUSH1 0x0 REVERT JUMPDEST PUSH1 0x2 DUP2 DIV PUSH1 0x1 DUP3 AND DUP1 PUSH3 0x17D JUMPI PUSH1 0x7F DUP3 AND SWAP2 POP JUMPDEST PUSH1 0x20 DUP3 LT DUP2 SUB PUSH3 0x1B7 JUMPI PUSH32 0x4E487B7100000000000000000000000000000000000000000000000000000000 PUSH1 0x0 MSTORE PUSH1 0x22 PUSH1 0x4 MSTORE PUSH1 0x24 PUSH1 0x0 REVERT JUMPDEST POP SWAP2 SWAP1 POP JUMP JUMPDEST PUSH1 0x1F DUP3 GT ISZERO PUSH3 0x20B JUMPI PUSH1 0x0 DUP2 DUP2 MSTORE PUSH1 0x20 DUP2 KECCAK256 PUSH1 0x20 PUSH1 0x1F DUP7 ADD DIV DUP2 ADD PUSH1 0x20 DUP7 LT ISZERO PUSH3 0x1E6 JUMPI POP DUP1 JUMPDEST PUSH1 0x20 PUSH1 0x1F DUP7 ADD DIV DUP3 ADD SWAP2 POP JUMPDEST DUP2 DUP2 LT ISZERO PUSH3 0x207 JUMPI DUP3 DUP2 SSTORE PUSH1 0x1 ADD PUSH3 0x1F2 JUMP JUMPDEST POP POP POP JUMPDEST POP POP POP JUMP JUMPDEST DUP2 MLOAD PUSH8 0xFFFFFFFFFFFFFFFF DUP2 GT ISZERO PUSH3 0x22D JUMPI PUSH3 0x22D PUSH3 0x139 JUMP JUMPDEST PUSH3 0x245 DUP2 PUSH3 0x23E DUP5 SLOAD PUSH3 0x168 JUMP JUMPDEST DUP5 PUSH3 0x1BD JUMP JUMPDEST PUSH1 0x20 DUP1 PUSH1 0x1F DUP4 GT PUSH1 0x1 DUP2 EQ PUSH3 0x281 JUMPI PUSH1 0x0 DUP5 ISZERO PUSH3 0x264 JUMPI POP DUP6 DUP4 ADD MLOAD JUMPDEST PUSH1 0x2 DUP1 DUP7 MUL PUSH1 0x8 DUP8 MUL SWAP1 SWAP2 EXP PUSH1 0x0 NOT DIV NOT DUP3 AND OR DUP7 SSTORE POP PUSH3 0x207 JUMP JUMPDEST PUSH1 0x0 DUP6 DUP2 MSTORE PUSH1 0x20 DUP2 KECCAK256 PUSH1 0x1F NOT DUP7 AND SWAP2 JUMPDEST DUP3 DUP2 LT ISZERO PUSH3 0x2B2 JUMPI DUP9 DUP7 ADD MLOAD DUP3 SSTORE SWAP5 DUP5 ADD SWAP5 PUSH1 0x1 SWAP1 SWAP2 ADD SWAP1 DUP5 ADD PUSH3 0x291 JUMP JUMPDEST POP DUP6 DUP3 LT ISZERO PUSH3 0x2D3 JUMPI DUP8 DUP6 ADD MLOAD PUSH1 0x8 PUSH1 0x1F DUP9 AND MUL PUSH1 0x2 EXP PUSH1 0x0 NOT DIV NOT AND DUP2 SSTORE JUMPDEST POP POP POP POP POP PUSH1 0x2 MUL PUSH1 0x1 ADD SWAP1 SSTORE POP JUMP JUMPDEST PUSH2 0xB63 DUP1 PUSH3 0x2F3 PUSH1 0x0 CODECOPY PUSH1 0x0 RETURN INVALID PUSH1 0x80 PUSH1 0x40 MSTORE PUSH1 0x4 CALLDATASIZE LT PUSH2 0xA1 JUMPI PUSH1 0x0 CALLDATALOAD PUSH29 0x100000000000000000000000000000000000000000000000000000000 SWAP1 DIV DUP1 PUSH4 0xD0E30DB0 GT PUSH2 0x73 JUMPI DUP1 PUSH4 0xD0E30DB0 EQ PUSH2 0x13A JUMPI DUP1 PUSH4 0xD4E93292 EQ PUSH2 0x142 JUMPI DUP1 PUSH4 0xDA6E75C2 EQ PUSH2 0x14E JUMPI DUP1 PUSH4 0xE5CDB488 EQ PUSH2 0x156 JUMPI DUP1 PUSH4 0xF2FDE38B EQ PUSH2 0x187 JUMPI STOP JUMPDEST DUP1 PUSH4 0x1581B600 EQ PUSH2 0xAA JUMPI DUP1 PUSH4 0x715018A6 EQ PUSH2 0xE7 JUMPI DUP1 PUSH4 0x8DA5CB5B EQ PUSH2 0xFC JUMPI DUP1 PUSH4 0xCC0395BF EQ PUSH2 0x11A JUMPI STOP JUMPDEST CALLDATASIZE PUSH2 0xA8 JUMPI STOP JUMPDEST STOP JUMPDEST CALLVALUE DUP1 ISZERO PUSH2 0xB6 JUMPI PUSH1 0x0 DUP1 REVERT JUMPDEST POP PUSH1 0x1 SLOAD PUSH2 0xCA SWAP1 PUSH1 0x1 PUSH1 0xA0 PUSH1 0x2 EXP SUB AND DUP2 JUMP JUMPDEST PUSH1 0x40 MLOAD PUSH1 0x1 PUSH1 0xA0 PUSH1 0x2 EXP SUB SWAP1 SWAP2 AND DUP2 MSTORE PUSH1 0x20 ADD JUMPDEST PUSH1 0x40 MLOAD DUP1 SWAP2 SUB SWAP1 RETURN JUMPDEST CALLVALUE DUP1 ISZERO PUSH2 0xF3 JUMPI PUSH1 0x0 DUP1 REVERT JUMPDEST POP PUSH2 0xA8 PUSH2 0x1A7 JUMP JUMPDEST CALLVALUE DUP1 ISZERO PUSH2 0x108 JUMPI PUSH1 0x0 DUP1 REVERT JUMPDEST POP PUSH1 0x2 SLOAD PUSH1 0x1 PUSH1 0xA0 PUSH1 0x2 EXP SUB AND PUSH2 0xCA JUMP JUMPDEST CALLVALUE DUP1 ISZERO PUSH2 0x126 JUMPI PUSH1 0x0 DUP1 REVERT JUMPDEST POP PUSH2 0xA8 PUSH2 0x135 CALLDATASIZE PUSH1 0x4 PUSH2 0x88E JUMP JUMPDEST PUSH2 0x1BB JUMP JUMPDEST PUSH2 0xA8 PUSH2 0x2A6 JUMP JUMPDEST CALLVALUE DUP1 ISZERO PUSH2 0xA8 JUMPI PUSH1 0x0 DUP1 REVERT JUMPDEST PUSH2 0xA8 PUSH2 0x34C JUMP JUMPDEST CALLVALUE DUP1 ISZERO PUSH2 0x162 JUMPI PUSH1 0x0 DUP1 REVERT JUMPDEST POP PUSH2 0x176 PUSH2 0x171 CALLDATASIZE PUSH1 0x4 PUSH2 0x90C JUMP JUMPDEST PUSH2 0x4F9 JUMP JUMPDEST PUSH1 0x40 MLOAD PUSH2 0xDE SWAP6 SWAP5 SWAP4 SWAP3 SWAP2 SWAP1 PUSH2 0x974 JUMP JUMPDEST CALLVALUE DUP1 ISZERO PUSH2 0x193 JUMPI PUSH1 0x0 DUP1 REVERT JUMPDEST POP PUSH2 0xA8 PUSH2 0x1A2 CALLDATASIZE PUSH1 0x4 PUSH2 0x90C JUMP JUMPDEST PUSH2 0x667 JUMP JUMPDEST PUSH2 0x1AF PUSH2 0x6FA JUMP JUMPDEST PUSH2 0x1B9 PUSH1 0x0 PUSH2 0x757 JUMP JUMPDEST JUMP JUMPDEST PUSH2 0x1C3 PUSH2 0x6FA JUMP JUMPDEST PUSH1 0x40 DUP1 MLOAD PUSH1 0xA0 DUP2 ADD DUP3 MSTORE DUP6 DUP2 MSTORE PUSH1 0x1 PUSH1 0xA0 PUSH1 0x2 EXP SUB DUP1 DUP7 AND PUSH1 0x20 DUP1 DUP5 ADD DUP3 SWAP1 MSTORE DUP4 DUP6 ADD DUP8 SWAP1 MSTORE PUSH1 0x60 DUP5 ADD DUP7 SWAP1 MSTORE PUSH1 0x3 SLOAD SWAP1 SWAP3 AND PUSH1 0x80 DUP5 ADD MSTORE PUSH1 0x0 SWAP1 DUP2 MSTORE PUSH1 0x4 SWAP1 SWAP2 MSTORE SWAP2 SWAP1 SWAP2 KECCAK256 DUP2 MLOAD DUP2 SWAP1 PUSH2 0x217 SWAP1 DUP3 PUSH2 0xA67 JUMP JUMPDEST POP PUSH1 0x20 DUP3 ADD MLOAD PUSH1 0x1 DUP3 ADD DUP1 SLOAD PUSH20 0xFFFFFFFFFFFFFFFFFFFFFFFFFFFFFFFFFFFFFFFF NOT AND PUSH1 0x1 PUSH1 0xA0 PUSH1 0x2 EXP SUB SWAP1 SWAP3 AND SWAP2 SWAP1 SWAP2 OR SWAP1 SSTORE PUSH1 0x40 DUP3 ADD MLOAD PUSH1 0x2 DUP3 ADD SSTORE PUSH1 0x60 DUP3 ADD MLOAD PUSH1 0x3 DUP3 ADD SWAP1 PUSH2 0x269 SWAP1 DUP3 PUSH2 0xA67 JUMP JUMPDEST POP PUSH1 0x80 SWAP2 SWAP1 SWAP2 ADD MLOAD PUSH1 0x4 SWAP1 SWAP2 ADD DUP1 SLOAD PUSH20 0xFFFFFFFFFFFFFFFFFFFFFFFFFFFFFFFFFFFFFFFF NOT AND PUSH1 0x1 PUSH1 0xA0 PUSH1 0x2 EXP SUB SWAP1 SWAP3 AND SWAP2 SWAP1 SWAP2 OR SWAP1 SSTORE POP POP POP POP JUMP JUMPDEST CALLER PUSH1 0x0 DUP2 DUP2 MSTORE PUSH1 0x4 PUSH1 0x20 MSTORE PUSH1 0x40 SWAP1 KECCAK256 PUSH1 0x1 ADD SLOAD PUSH1 0x1 PUSH1 0xA0 PUSH1 0x2 EXP SUB AND EQ PUSH2 0x317 JUMPI PUSH1 0x40 MLOAD PUSH1 0xE5 PUSH1 0x2 EXP PUSH3 0x461BCD MUL DUP2 MSTORE PUSH1 0x20 PUSH1 0x4 DUP3 ADD MSTORE PUSH1 0x16 PUSH1 0x24 DUP3 ADD MSTORE PUSH32 0x596F75206172656E27742076616C696420706179657200000000000000000000 PUSH1 0x44 DUP3 ADD MSTORE PUSH1 0x64 ADD JUMPDEST PUSH1 0x40 MLOAD DUP1 SWAP2 SUB SWAP1 REVERT JUMPDEST PUSH1 0x40 MLOAD CALLVALUE DUP2 MSTORE PUSH32 0xA34E3D4F1E6B837DBCE1011B61499FA1A483A0ABEE6A7A6697660B4B2D97132 SWAP1 PUSH1 0x20 ADD PUSH1 0x40 MLOAD DUP1 SWAP2 SUB SWAP1 LOG1 JUMP JUMPDEST CALLER PUSH1 0x0 DUP2 DUP2 MSTORE PUSH1 0x4 PUSH1 0x20 MSTORE PUSH1 0x40 SWAP1 KECCAK256 PUSH1 0x2 DUP2 ADD SLOAD PUSH1 0x1 SWAP1 SWAP2 ADD SLOAD SWAP1 SWAP2 PUSH1 0x1 PUSH1 0xA0 PUSH1 0x2 EXP SUB SWAP1 SWAP2 AND EQ PUSH2 0x3C3 JUMPI PUSH1 0x40 MLOAD PUSH1 0xE5 PUSH1 0x2 EXP PUSH3 0x461BCD MUL DUP2 MSTORE PUSH1 0x20 PUSH1 0x4 DUP3 ADD MSTORE PUSH1 0x16 PUSH1 0x24 DUP3 ADD MSTORE PUSH32 0x596F75206172656E27742076616C696420706179657200000000000000000000 PUSH1 0x44 DUP3 ADD MSTORE PUSH1 0x64 ADD PUSH2 0x30E JUMP JUMPDEST DUP1 CALLVALUE LT ISZERO PUSH2 0x416 JUMPI PUSH1 0x40 MLOAD PUSH1 0xE5 PUSH1 0x2 EXP PUSH3 0x461BCD MUL DUP2 MSTORE PUSH1 0x20 PUSH1 0x4 DUP3 ADD MSTORE PUSH1 0x14 PUSH1 0x24 DUP3 ADD MSTORE PUSH32 0x466F6E646F7320696E737566696369656E746573000000000000000000000000 PUSH1 0x44 DUP3 ADD MSTORE PUSH1 0x64 ADD PUSH2 0x30E JUMP JUMPDEST PUSH1 0x3 SLOAD PUSH1 0x40 MLOAD PUSH1 0x0 SWAP2 PUSH1 0x1 PUSH1 0xA0 PUSH1 0x2 EXP SUB AND SWAP1 CALLVALUE SWAP1 DUP4 DUP2 DUP2 DUP2 DUP6 DUP8 GAS CALL SWAP3 POP POP POP RETURNDATASIZE DUP1 PUSH1 0x0 DUP2 EQ PUSH2 0x463 JUMPI PUSH1 0x40 MLOAD SWAP2 POP PUSH1 0x1F NOT PUSH1 0x3F RETURNDATASIZE ADD AND DUP3 ADD PUSH1 0x40 MSTORE RETURNDATASIZE DUP3 MSTORE RETURNDATASIZE PUSH1 0x0 PUSH1 0x20 DUP5 ADD RETURNDATACOPY PUSH2 0x468 JUMP JUMPDEST PUSH1 0x60 SWAP2 POP JUMPDEST POP SWAP1 SWAP2 POP POP PUSH1 0x1 DUP2 ISZERO ISZERO EQ PUSH2 0x4C2 JUMPI PUSH1 0x40 MLOAD PUSH1 0xE5 PUSH1 0x2 EXP PUSH3 0x461BCD MUL DUP2 MSTORE PUSH1 0x20 PUSH1 0x4 DUP3 ADD MSTORE PUSH1 0x16 PUSH1 0x24 DUP3 ADD MSTORE PUSH32 0x46616C6C6F206C61207472616E73666572656E63696100000000000000000000 PUSH1 0x44 DUP3 ADD MSTORE PUSH1 0x64 ADD PUSH2 0x30E JUMP JUMPDEST PUSH1 0x40 MLOAD DUP3 DUP2 MSTORE PUSH32 0x56E1CF8A52E84572FF49B950FA9A1A1867319BF8EBA3BF8C77BC4354678A34C5 SWAP1 PUSH1 0x20 ADD PUSH1 0x40 MLOAD DUP1 SWAP2 SUB SWAP1 LOG1 POP POP JUMP JUMPDEST PUSH1 0x1 PUSH1 0xA0 PUSH1 0x2 EXP SUB DUP1 DUP3 AND PUSH1 0x0 SWAP1 DUP2 MSTORE PUSH1 0x4 PUSH1 0x20 DUP2 SWAP1 MSTORE PUSH1 0x40 DUP3 KECCAK256 PUSH1 0x1 DUP2 ADD SLOAD PUSH1 0x2 DUP3 ADD SLOAD SWAP3 DUP3 ADD SLOAD DUP3 SLOAD PUSH1 0x60 SWAP7 DUP7 SWAP6 DUP9 SWAP6 DUP8 SWAP6 SWAP1 SWAP5 SWAP1 DUP4 AND SWAP4 SWAP2 SWAP3 PUSH1 0x3 DUP7 ADD SWAP3 SWAP2 AND SWAP1 DUP6 SWAP1 PUSH2 0x548 SWAP1 PUSH2 0x9C5 JUMP JUMPDEST DUP1 PUSH1 0x1F ADD PUSH1 0x20 DUP1 SWAP2 DIV MUL PUSH1 0x20 ADD PUSH1 0x40 MLOAD SWAP1 DUP2 ADD PUSH1 0x40 MSTORE DUP1 SWAP3 SWAP2 SWAP1 DUP2 DUP2 MSTORE PUSH1 0x20 ADD DUP3 DUP1 SLOAD PUSH2 0x574 SWAP1 PUSH2 0x9C5 JUMP JUMPDEST DUP1 ISZERO PUSH2 0x5C1 JUMPI DUP1 PUSH1 0x1F LT PUSH2 0x596 JUMPI PUSH2 0x100 DUP1 DUP4 SLOAD DIV MUL DUP4 MSTORE SWAP2 PUSH1 0x20 ADD SWAP2 PUSH2 0x5C1 JUMP JUMPDEST DUP3 ADD SWAP2 SWAP1 PUSH1 0x0 MSTORE PUSH1 0x20 PUSH1 0x0 KECCAK256 SWAP1 JUMPDEST DUP2 SLOAD DUP2 MSTORE SWAP1 PUSH1 0x1 ADD SWAP1 PUSH1 0x20 ADD DUP1 DUP4 GT PUSH2 0x5A4 JUMPI DUP3 SWAP1 SUB PUSH1 0x1F AND DUP3 ADD SWAP2 JUMPDEST POP POP POP POP POP SWAP5 POP DUP2 DUP1 SLOAD PUSH2 0x5D4 SWAP1 PUSH2 0x9C5 JUMP JUMPDEST DUP1 PUSH1 0x1F ADD PUSH1 0x20 DUP1 SWAP2 DIV MUL PUSH1 0x20 ADD PUSH1 0x40 MLOAD SWAP1 DUP2 ADD PUSH1 0x40 MSTORE DUP1 SWAP3 SWAP2 SWAP1 DUP2 DUP2 MSTORE PUSH1 0x20 ADD DUP3 DUP1 SLOAD PUSH2 0x600 SWAP1 PUSH2 0x9C5 JUMP JUMPDEST DUP1 ISZERO PUSH2 0x64D JUMPI DUP1 PUSH1 0x1F LT PUSH2 0x622 JUMPI PUSH2 0x100 DUP1 DUP4 SLOAD DIV MUL DUP4 MSTORE SWAP2 PUSH1 0x20 ADD SWAP2 PUSH2 0x64D JUMP JUMPDEST DUP3 ADD SWAP2 SWAP1 PUSH1 0x0 MSTORE PUSH1 0x20 PUSH1 0x0 KECCAK256 SWAP1 JUMPDEST DUP2 SLOAD DUP2 MSTORE SWAP1 PUSH1 0x1 ADD SWAP1 PUSH1 0x20 ADD DUP1 DUP4 GT PUSH2 0x630 JUMPI DUP3 SWAP1 SUB PUSH1 0x1F AND DUP3 ADD SWAP2 JUMPDEST POP POP POP POP POP SWAP2 POP SWAP5 POP SWAP5 POP SWAP5 POP SWAP5 POP SWAP5 POP SWAP2 SWAP4 SWAP6 SWAP1 SWAP3 SWAP5 POP JUMP JUMPDEST PUSH2 0x66F PUSH2 0x6FA JUMP JUMPDEST PUSH1 0x1 PUSH1 0xA0 PUSH1 0x2 EXP SUB DUP2 AND PUSH2 0x6EE JUMPI PUSH1 0x40 MLOAD PUSH1 0xE5 PUSH1 0x2 EXP PUSH3 0x461BCD MUL DUP2 MSTORE PUSH1 0x20 PUSH1 0x4 DUP3 ADD MSTORE PUSH1 0x26 PUSH1 0x24 DUP3 ADD MSTORE PUSH32 0x4F776E61626C653A206E6577206F776E657220697320746865207A65726F2061 PUSH1 0x44 DUP3 ADD MSTORE PUSH32 0x6464726573730000000000000000000000000000000000000000000000000000 PUSH1 0x64 DUP3 ADD MSTORE PUSH1 0x84 ADD PUSH2 0x30E JUMP JUMPDEST PUSH2 0x6F7 DUP2 PUSH2 0x757 JUMP JUMPDEST POP JUMP JUMPDEST PUSH1 0x2 SLOAD PUSH1 0x1 PUSH1 0xA0 PUSH1 0x2 EXP SUB AND CALLER EQ PUSH2 0x1B9 JUMPI PUSH1 0x40 MLOAD PUSH1 0xE5 PUSH1 0x2 EXP PUSH3 0x461BCD MUL DUP2 MSTORE PUSH1 0x20 PUSH1 0x4 DUP3 ADD DUP2 SWAP1 MSTORE PUSH1 0x24 DUP3 ADD MSTORE PUSH32 0x4F776E61626C653A2063616C6C6572206973206E6F7420746865206F776E6572 PUSH1 0x44 DUP3 ADD MSTORE PUSH1 0x64 ADD PUSH2 0x30E JUMP JUMPDEST PUSH1 0x2 DUP1 SLOAD PUSH1 0x1 PUSH1 0xA0 PUSH1 0x2 EXP SUB DUP4 DUP2 AND PUSH20 0xFFFFFFFFFFFFFFFFFFFFFFFFFFFFFFFFFFFFFFFF NOT DUP4 AND DUP2 OR SWAP1 SWAP4 SSTORE PUSH1 0x40 MLOAD SWAP2 AND SWAP2 SWAP1 DUP3 SWAP1 PUSH32 0x8BE0079C531659141344CD1FD0A4F28419497F9722A3DAAFE3B4186F6B6457E0 SWAP1 PUSH1 0x0 SWAP1 LOG3 POP POP JUMP JUMPDEST PUSH32 0x4E487B7100000000000000000000000000000000000000000000000000000000 PUSH1 0x0 MSTORE PUSH1 0x41 PUSH1 0x4 MSTORE PUSH1 0x24 PUSH1 0x0 REVERT JUMPDEST PUSH1 0x0 DUP3 PUSH1 0x1F DUP4 ADD SLT PUSH2 0x7F6 JUMPI PUSH1 0x0 DUP1 REVERT JUMPDEST DUP2 CALLDATALOAD PUSH8 0xFFFFFFFFFFFFFFFF DUP1 DUP3 GT ISZERO PUSH2 0x811 JUMPI PUSH2 0x811 PUSH2 0x7B6 JUMP JUMPDEST PUSH1 0x40 MLOAD PUSH1 0x1F DUP4 ADD PUSH1 0x1F NOT SWAP1 DUP2 AND PUSH1 0x3F ADD AND DUP2 ADD SWAP1 DUP3 DUP3 GT DUP2 DUP4 LT OR ISZERO PUSH2 0x839 JUMPI PUSH2 0x839 PUSH2 0x7B6 JUMP JUMPDEST DUP2 PUSH1 0x40 MSTORE DUP4 DUP2 MSTORE DUP7 PUSH1 0x20 DUP6 DUP9 ADD ADD GT ISZERO PUSH2 0x852 JUMPI PUSH1 0x0 DUP1 REVERT JUMPDEST DUP4 PUSH1 0x20 DUP8 ADD PUSH1 0x20 DUP4 ADD CALLDATACOPY PUSH1 0x0 PUSH1 0x20 DUP6 DUP4 ADD ADD MSTORE DUP1 SWAP5 POP POP POP POP POP SWAP3 SWAP2 POP POP JUMP JUMPDEST DUP1 CALLDATALOAD PUSH1 0x1 PUSH1 0xA0 PUSH1 0x2 EXP SUB DUP2 AND DUP2 EQ PUSH2 0x889 JUMPI PUSH1 0x0 DUP1 REVERT JUMPDEST SWAP2 SWAP1 POP JUMP JUMPDEST PUSH1 0x0 DUP1 PUSH1 0x0 DUP1 PUSH1 0x80 DUP6 DUP8 SUB SLT ISZERO PUSH2 0x8A4 JUMPI PUSH1 0x0 DUP1 REVERT JUMPDEST DUP5 CALLDATALOAD PUSH8 0xFFFFFFFFFFFFFFFF DUP1 DUP3 GT ISZERO PUSH2 0x8BC JUMPI PUSH1 0x0 DUP1 REVERT JUMPDEST PUSH2 0x8C8 DUP9 DUP4 DUP10 ADD PUSH2 0x7E5 JUMP JUMPDEST SWAP6 POP PUSH2 0x8D6 PUSH1 0x20 DUP9 ADD PUSH2 0x872 JUMP JUMPDEST SWAP5 POP PUSH1 0x40 DUP8 ADD CALLDATALOAD SWAP4 POP PUSH1 0x60 DUP8 ADD CALLDATALOAD SWAP2 POP DUP1 DUP3 GT ISZERO PUSH2 0x8F3 JUMPI PUSH1 0x0 DUP1 REVERT JUMPDEST POP PUSH2 0x900 DUP8 DUP3 DUP9 ADD PUSH2 0x7E5 JUMP JUMPDEST SWAP2 POP POP SWAP3 SWAP6 SWAP2 SWAP5 POP SWAP3 POP JUMP JUMPDEST PUSH1 0x0 PUSH1 0x20 DUP3 DUP5 SUB SLT ISZERO PUSH2 0x91E JUMPI PUSH1 0x0 DUP1 REVERT JUMPDEST PUSH2 0x927 DUP3 PUSH2 0x872 JUMP JUMPDEST SWAP4 SWAP3 POP POP POP JUMP JUMPDEST PUSH1 0x0 DUP2 MLOAD DUP1 DUP5 MSTORE PUSH1 0x0 JUMPDEST DUP2 DUP2 LT ISZERO PUSH2 0x954 JUMPI PUSH1 0x20 DUP2 DUP6 ADD DUP2 ADD MLOAD DUP7 DUP4 ADD DUP3 ADD MSTORE ADD PUSH2 0x938 JUMP JUMPDEST POP PUSH1 0x0 PUSH1 0x20 DUP3 DUP7 ADD ADD MSTORE PUSH1 0x20 PUSH1 0x1F NOT PUSH1 0x1F DUP4 ADD AND DUP6 ADD ADD SWAP2 POP POP SWAP3 SWAP2 POP POP JUMP JUMPDEST PUSH1 0xA0 DUP2 MSTORE PUSH1 0x0 PUSH2 0x987 PUSH1 0xA0 DUP4 ADD DUP9 PUSH2 0x92E JUMP JUMPDEST PUSH1 0x1 PUSH1 0xA0 PUSH1 0x2 EXP SUB DUP1 DUP9 AND PUSH1 0x20 DUP6 ADD MSTORE DUP7 PUSH1 0x40 DUP6 ADD MSTORE DUP4 DUP3 SUB PUSH1 0x60 DUP6 ADD MSTORE PUSH2 0x9AF DUP3 DUP8 PUSH2 0x92E JUMP JUMPDEST SWAP3 POP DUP1 DUP6 AND PUSH1 0x80 DUP6 ADD MSTORE POP POP SWAP7 SWAP6 POP POP POP POP POP POP JUMP JUMPDEST PUSH1 0x2 DUP2 DIV PUSH1 0x1 DUP3 AND DUP1 PUSH2 0x9D9 JUMPI PUSH1 0x7F DUP3 AND SWAP2 POP JUMPDEST PUSH1 0x20 DUP3 LT DUP2 SUB PUSH2 0xA12 JUMPI PUSH32 0x4E487B7100000000000000000000000000000000000000000000000000000000 PUSH1 0x0 MSTORE PUSH1 0x22 PUSH1 0x4 MSTORE PUSH1 0x24 PUSH1 0x0 REVERT JUMPDEST POP SWAP2 SWAP1 POP JUMP JUMPDEST PUSH1 0x1F DUP3 GT ISZERO PUSH2 0xA62 JUMPI PUSH1 0x0 DUP2 DUP2 MSTORE PUSH1 0x20 DUP2 KECCAK256 PUSH1 0x20 PUSH1 0x1F DUP7 ADD DIV DUP2 ADD PUSH1 0x20 DUP7 LT ISZERO PUSH2 0xA3F JUMPI POP DUP1 JUMPDEST PUSH1 0x20 PUSH1 0x1F DUP7 ADD DIV DUP3 ADD SWAP2 POP JUMPDEST DUP2 DUP2 LT ISZERO PUSH2 0xA5E JUMPI DUP3 DUP2 SSTORE PUSH1 0x1 ADD PUSH2 0xA4B JUMP JUMPDEST POP POP POP JUMPDEST POP POP POP JUMP JUMPDEST DUP2 MLOAD PUSH8 0xFFFFFFFFFFFFFFFF DUP2 GT ISZERO PUSH2 0xA81 JUMPI PUSH2 0xA81 PUSH2 0x7B6 JUMP JUMPDEST PUSH2 0xA95 DUP2 PUSH2 0xA8F DUP5 SLOAD PUSH2 0x9C5 JUMP JUMPDEST DUP5 PUSH2 0xA18 JUMP JUMPDEST PUSH1 0x20 DUP1 PUSH1 0x1F DUP4 GT PUSH1 0x1 DUP2 EQ PUSH2 0xACE JUMPI PUSH1 0x0 DUP5 ISZERO PUSH2 0xAB2 JUMPI POP DUP6 DUP4 ADD MLOAD JUMPDEST PUSH1 0x2 DUP1 DUP7 MUL PUSH1 0x8 DUP8 MUL SWAP1 SWAP2 EXP PUSH1 0x0 NOT DIV NOT DUP3 AND OR DUP7 SSTORE POP PUSH2 0xA5E JUMP JUMPDEST PUSH1 0x0 DUP6 DUP2 MSTORE PUSH1 0x20 DUP2 KECCAK256 PUSH1 0x1F NOT DUP7 AND SWAP2 JUMPDEST DUP3 DUP2 LT ISZERO PUSH2 0xAFD JUMPI DUP9 DUP7 ADD MLOAD DUP3 SSTORE SWAP5 DUP5 ADD SWAP5 PUSH1 0x1 SWAP1 SWAP2 ADD SWAP1 DUP5 ADD PUSH2 0xADE JUMP JUMPDEST POP DUP6 DUP3 LT ISZERO PUSH2 0xB1D JUMPI DUP8 DUP6 ADD MLOAD PUSH1 0x8 PUSH1 0x1F DUP9 AND MUL PUSH1 0x2 EXP PUSH1 0x0 NOT DIV NOT AND DUP2 SSTORE JUMPDEST POP POP POP POP POP PUSH1 0x2 MUL PUSH1 0x1 ADD SWAP1 SSTORE POP JUMP INVALID LOG2 PUSH5 0x6970667358 0x22 SLT KECCAK256 PUSH26 0x3718E946D50BB47A51EDD8225C6A7F6671F68315253032B52B28 0xEE PUSH9 0x66432664736F6C6343 STOP ADDMOD GT STOP CALLER "
				},
				"gasEstimates": {
					"creation": {
						"codeDepositCost": "583000",
						"executionCost": "infinite",
						"totalCost": "infinite"
					},
					"external": {
						"": "167",
						"addNewTenant(string,address,uint256,string)": "infinite",
						"deposit()": "1550",
						"getTenant(address)": "infinite",
						"owner()": "584",
						"payExpenses()": "infinite",
						"renounceOwnership()": "infinite",
						"transferOwnership(address)": "22745",
						"withdrawAddress()": "546",
						"withdrawal()": "150"
					}
				},
				"methodIdentifiers": {
					"addNewTenant(string,address,uint256,string)": "cc0395bf",
					"deposit()": "d0e30db0",
					"getTenant(address)": "e5cdb488",
					"owner()": "8da5cb5b",
					"payExpenses()": "da6e75c2",
					"renounceOwnership()": "715018a6",
					"transferOwnership(address)": "f2fde38b",
					"withdrawAddress()": "1581b600",
					"withdrawal()": "d4e93292"
				}
			},
			"storageLayout": {
				"storage": [
					{
						"astId": 138,
						"contract": "contracts/Tenant.sol:Tenant",
						"label": "name",
						"offset": 0,
						"slot": "0",
						"type": "t_string_storage"
					},
					{
						"astId": 140,
						"contract": "contracts/Tenant.sol:Tenant",
						"label": "withdrawAddress",
						"offset": 0,
						"slot": "1",
						"type": "t_address"
					},
					{
						"astId": 7,
						"contract": "contracts/Tenant.sol:Tenant",
						"label": "_owner",
						"offset": 0,
						"slot": "2",
						"type": "t_address"
					},
					{
						"astId": 171,
						"contract": "contracts/Tenant.sol:Tenant",
						"label": "consorcioAddress",
						"offset": 0,
						"slot": "3",
						"type": "t_address"
					},
					{
						"astId": 184,
						"contract": "contracts/Tenant.sol:Tenant",
						"label": "tenantMapping",
						"offset": 0,
						"slot": "4",
						"type": "t_mapping(t_address,t_struct(TenantStruct)195_storage)"
					}
				],
				"types": {
					"t_address": {
						"encoding": "inplace",
						"label": "address",
						"numberOfBytes": "20"
					},
					"t_mapping(t_address,t_struct(TenantStruct)195_storage)": {
						"encoding": "mapping",
						"key": "t_address",
						"label": "mapping(address => struct Tenant.TenantStruct)",
						"numberOfBytes": "32",
						"value": "t_struct(TenantStruct)195_storage"
					},
					"t_string_storage": {
						"encoding": "bytes",
						"label": "string",
						"numberOfBytes": "32"
					},
					"t_struct(TenantStruct)195_storage": {
						"encoding": "inplace",
						"label": "struct Tenant.TenantStruct",
						"members": [
							{
								"astId": 186,
								"contract": "contracts/Tenant.sol:Tenant",
								"label": "name",
								"offset": 0,
								"slot": "0",
								"type": "t_string_storage"
							},
							{
								"astId": 188,
								"contract": "contracts/Tenant.sol:Tenant",
								"label": "tenantAddress",
								"offset": 0,
								"slot": "1",
								"type": "t_address"
							},
							{
								"astId": 190,
								"contract": "contracts/Tenant.sol:Tenant",
								"label": "rentalCost",
								"offset": 0,
								"slot": "2",
								"type": "t_uint256"
							},
							{
								"astId": 192,
								"contract": "contracts/Tenant.sol:Tenant",
								"label": "residence",
								"offset": 0,
								"slot": "3",
								"type": "t_string_storage"
							},
							{
								"astId": 194,
								"contract": "contracts/Tenant.sol:Tenant",
								"label": "consorcioContractAddress",
								"offset": 0,
								"slot": "4",
								"type": "t_address"
							}
						],
						"numberOfBytes": "160"
					},
					"t_uint256": {
						"encoding": "inplace",
						"label": "uint256",
						"numberOfBytes": "32"
					}
				}
			},
			"userdoc": {
				"kind": "user",
				"methods": {},
				"version": 1
			}
		}
	}
}