{
	"contracts/Tenant.sol": {
		"Tenant": {
			"abi": [
				{
					"inputs": [
						{
							"internalType": "string",
							"name": "name",
							"type": "string"
						},
						{
							"internalType": "address",
							"name": "newWithdraAddress",
							"type": "address"
						}
					],
					"stateMutability": "payable",
					"type": "constructor"
				},
				{
					"anonymous": false,
					"inputs": [
						{
							"indexed": false,
							"internalType": "uint256",
							"name": "amount",
							"type": "uint256"
						}
					],
					"name": "EtherReceived",
					"type": "event"
				},
				{
					"anonymous": false,
					"inputs": [
						{
							"indexed": false,
							"internalType": "uint256",
							"name": "pricePaid",
							"type": "uint256"
						}
					],
					"name": "ExpensesPaid",
					"type": "event"
				},
				{
					"anonymous": false,
					"inputs": [
						{
							"indexed": true,
							"internalType": "address",
							"name": "previousOwner",
							"type": "address"
						},
						{
							"indexed": true,
							"internalType": "address",
							"name": "newOwner",
							"type": "address"
						}
					],
					"name": "OwnershipTransferred",
					"type": "event"
				},
				{
					"stateMutability": "payable",
					"type": "fallback"
				},
				{
					"inputs": [],
					"name": "deposit",
					"outputs": [],
					"stateMutability": "payable",
					"type": "function"
				},
				{
					"inputs": [],
					"name": "owner",
					"outputs": [
						{
							"internalType": "address",
							"name": "",
							"type": "address"
						}
					],
					"stateMutability": "view",
					"type": "function"
				},
				{
					"inputs": [],
					"name": "payExpenses",
					"outputs": [],
					"stateMutability": "nonpayable",
					"type": "function"
				},
				{
					"inputs": [],
					"name": "renounceOwnership",
					"outputs": [],
					"stateMutability": "nonpayable",
					"type": "function"
				},
				{
					"inputs": [
						{
							"internalType": "address",
							"name": "newOwner",
							"type": "address"
						}
					],
					"name": "transferOwnership",
					"outputs": [],
					"stateMutability": "nonpayable",
					"type": "function"
				},
				{
					"inputs": [],
					"name": "withdrawAddress",
					"outputs": [
						{
							"internalType": "address",
							"name": "",
							"type": "address"
						}
					],
					"stateMutability": "view",
					"type": "function"
				},
				{
					"inputs": [],
					"name": "withdrawal",
					"outputs": [],
					"stateMutability": "nonpayable",
					"type": "function"
				},
				{
					"stateMutability": "payable",
					"type": "receive"
				}
			],
			"devdoc": {
				"kind": "dev",
				"methods": {
					"owner()": {
						"details": "Returns the address of the current owner."
					},
					"renounceOwnership()": {
						"details": "Leaves the contract without owner. It will not be possible to call `onlyOwner` functions anymore. Can only be called by the current owner. NOTE: Renouncing ownership will leave the contract without an owner, thereby removing any functionality that is only available to the owner."
					},
					"transferOwnership(address)": {
						"details": "Transfers ownership of the contract to a new account (`newOwner`). Can only be called by the current owner."
					}
				},
				"version": 1
			},
			"evm": {
				"assembly": "    /* \"contracts/Tenant.sol\":143:979  contract Tenant is BaseUser, Ownable {... */\n  mstore(0x40, 0x80)\n    /* \"contracts/Tenant.sol\":454:560  constructor (string memory name, address newWithdraAddress) payable BaseUser (name, newWithdraAddress)  {} */\n  mload(0x40)\n  sub(codesize, bytecodeSize)\n  dup1\n  bytecodeSize\n  dup4\n  codecopy\n  dup2\n  add\n  0x40\n  dup2\n  swap1\n  mstore\n  tag_1\n  swap2\n  tag_2\n  jump\t// in\ntag_1:\n    /* \"contracts/Tenant.sol\":532:536  name */\n  dup2\n    /* \"contracts/Tenant.sol\":538:555  newWithdraAddress */\n  dup2\n    /* \"contracts/BaseUser.sol\":219:223  name */\n  0x00\n    /* \"contracts/BaseUser.sol\":219:233  name = newName */\n  tag_7\n    /* \"contracts/Tenant.sol\":532:536  name */\n  dup4\n    /* \"contracts/BaseUser.sol\":219:223  name */\n  dup3\n    /* \"contracts/BaseUser.sol\":219:233  name = newName */\n  tag_8\n  jump\t// in\ntag_7:\n  pop\n    /* \"contracts/BaseUser.sol\":244:259  withdrawAddress */\n  0x01\n    /* \"contracts/BaseUser.sol\":244:272  withdrawAddress = newAddress */\n  dup1\n  sload\n  not(sub(exp(0x02, 0xa0), 0x01))\n  and\n  sub(exp(0x02, 0xa0), 0x01)\n  swap3\n  swap1\n  swap3\n  and\n  swap2\n  swap1\n  swap2\n  or\n  swap1\n  sstore\n  pop\n    /* \"@openzeppelin/contracts/access/Ownable.sol\":936:968  _transferOwnership(_msgSender()) */\n  tag_10\n    /* \"@openzeppelin/contracts/access/Ownable.sol\":955:967  _msgSender() */\n  tag_11\n    /* \"@openzeppelin/contracts/access/Ownable.sol\":955:965  _msgSender */\n  0x0100000000\n  tag_12\n  dup2\n  mul\n    /* \"@openzeppelin/contracts/access/Ownable.sol\":955:967  _msgSender() */\n  div\n  jump\t// in\ntag_11:\n    /* \"@openzeppelin/contracts/access/Ownable.sol\":936:954  _transferOwnership */\n  0x0100000000\n  tag_13\n  dup2\n  mul\n    /* \"@openzeppelin/contracts/access/Ownable.sol\":936:968  _transferOwnership(_msgSender()) */\n  div\n  jump\t// in\ntag_10:\n    /* \"contracts/Tenant.sol\":454:560  constructor (string memory name, address newWithdraAddress) payable BaseUser (name, newWithdraAddress)  {} */\n  pop\n  pop\n    /* \"contracts/Tenant.sol\":143:979  contract Tenant is BaseUser, Ownable {... */\n  jump(tag_24)\n    /* \"@openzeppelin/contracts/utils/Context.sol\":640:736  function _msgSender() internal view virtual returns (address) {... */\ntag_12:\n    /* \"@openzeppelin/contracts/utils/Context.sol\":719:729  msg.sender */\n  caller\n  swap1\n    /* \"@openzeppelin/contracts/utils/Context.sol\":640:736  function _msgSender() internal view virtual returns (address) {... */\n  jump\t// out\n    /* \"@openzeppelin/contracts/access/Ownable.sol\":2433:2620  function _transferOwnership(address newOwner) internal virtual {... */\ntag_13:\n    /* \"@openzeppelin/contracts/access/Ownable.sol\":2525:2531  _owner */\n  0x02\n  dup1\n  sload\n  sub(exp(0x02, 0xa0), 0x01)\n    /* \"@openzeppelin/contracts/access/Ownable.sol\":2541:2558  _owner = newOwner */\n  dup4\n  dup2\n  and\n  not(sub(exp(0x02, 0xa0), 0x01))\n  dup4\n  and\n  dup2\n  or\n  swap1\n  swap4\n  sstore\n    /* \"@openzeppelin/contracts/access/Ownable.sol\":2573:2613  OwnershipTransferred(oldOwner, newOwner) */\n  mload(0x40)\n    /* \"@openzeppelin/contracts/access/Ownable.sol\":2525:2531  _owner */\n  swap2\n  and\n  swap2\n    /* \"@openzeppelin/contracts/access/Ownable.sol\":2541:2558  _owner = newOwner */\n  swap1\n    /* \"@openzeppelin/contracts/access/Ownable.sol\":2525:2531  _owner */\n  dup3\n  swap1\n    /* \"@openzeppelin/contracts/access/Ownable.sol\":2573:2613  OwnershipTransferred(oldOwner, newOwner) */\n  0x8be0079c531659141344cd1fd0a4f28419497f9722a3daafe3b4186f6b6457e0\n  swap1\n    /* \"@openzeppelin/contracts/access/Ownable.sol\":2506:2522  address oldOwner */\n  0x00\n  swap1\n    /* \"@openzeppelin/contracts/access/Ownable.sol\":2573:2613  OwnershipTransferred(oldOwner, newOwner) */\n  log3\n    /* \"@openzeppelin/contracts/access/Ownable.sol\":2496:2620  {... */\n  pop\n    /* \"@openzeppelin/contracts/access/Ownable.sol\":2433:2620  function _transferOwnership(address newOwner) internal virtual {... */\n  pop\n  jump\t// out\n    /* \"#utility.yul\":14:198   */\ntag_18:\n    /* \"#utility.yul\":66:143   */\n  0x4e487b7100000000000000000000000000000000000000000000000000000000\n    /* \"#utility.yul\":63:64   */\n  0x00\n    /* \"#utility.yul\":56:144   */\n  mstore\n    /* \"#utility.yul\":163:167   */\n  0x41\n    /* \"#utility.yul\":160:161   */\n  0x04\n    /* \"#utility.yul\":153:168   */\n  mstore\n    /* \"#utility.yul\":187:191   */\n  0x24\n    /* \"#utility.yul\":184:185   */\n  0x00\n    /* \"#utility.yul\":177:192   */\n  revert\n    /* \"#utility.yul\":203:380   */\ntag_19:\n    /* \"#utility.yul\":282:295   */\n  dup1\n  mload\n  sub(exp(0x02, 0xa0), 0x01)\n    /* \"#utility.yul\":324:355   */\n  dup2\n  and\n    /* \"#utility.yul\":314:356   */\n  dup2\n  eq\n    /* \"#utility.yul\":304:374   */\n  tag_27\n  jumpi\n    /* \"#utility.yul\":370:371   */\n  0x00\n    /* \"#utility.yul\":367:368   */\n  dup1\n    /* \"#utility.yul\":360:372   */\n  revert\n    /* \"#utility.yul\":304:374   */\ntag_27:\n    /* \"#utility.yul\":203:380   */\n  swap2\n  swap1\n  pop\n  jump\t// out\n    /* \"#utility.yul\":385:1514   */\ntag_2:\n    /* \"#utility.yul\":474:480   */\n  0x00\n    /* \"#utility.yul\":482:488   */\n  dup1\n    /* \"#utility.yul\":535:537   */\n  0x40\n    /* \"#utility.yul\":523:532   */\n  dup4\n    /* \"#utility.yul\":514:521   */\n  dup6\n    /* \"#utility.yul\":510:533   */\n  sub\n    /* \"#utility.yul\":506:538   */\n  slt\n    /* \"#utility.yul\":503:555   */\n  iszero\n  tag_29\n  jumpi\n    /* \"#utility.yul\":551:552   */\n  0x00\n    /* \"#utility.yul\":548:549   */\n  dup1\n    /* \"#utility.yul\":541:553   */\n  revert\n    /* \"#utility.yul\":503:555   */\ntag_29:\n    /* \"#utility.yul\":584:593   */\n  dup3\n    /* \"#utility.yul\":578:594   */\n  mload\n  sub(exp(0x02, 0x40), 0x01)\n    /* \"#utility.yul\":654:656   */\n  dup1\n    /* \"#utility.yul\":646:652   */\n  dup3\n    /* \"#utility.yul\":643:657   */\n  gt\n    /* \"#utility.yul\":640:674   */\n  iszero\n  tag_30\n  jumpi\n    /* \"#utility.yul\":670:671   */\n  0x00\n    /* \"#utility.yul\":667:668   */\n  dup1\n    /* \"#utility.yul\":660:672   */\n  revert\n    /* \"#utility.yul\":640:674   */\ntag_30:\n    /* \"#utility.yul\":708:714   */\n  dup2\n    /* \"#utility.yul\":697:706   */\n  dup6\n    /* \"#utility.yul\":693:715   */\n  add\n    /* \"#utility.yul\":683:715   */\n  swap2\n  pop\n    /* \"#utility.yul\":753:760   */\n  dup6\n    /* \"#utility.yul\":746:750   */\n  0x1f\n    /* \"#utility.yul\":742:744   */\n  dup4\n    /* \"#utility.yul\":738:751   */\n  add\n    /* \"#utility.yul\":734:761   */\n  slt\n    /* \"#utility.yul\":724:779   */\n  tag_31\n  jumpi\n    /* \"#utility.yul\":775:776   */\n  0x00\n    /* \"#utility.yul\":772:773   */\n  dup1\n    /* \"#utility.yul\":765:777   */\n  revert\n    /* \"#utility.yul\":724:779   */\ntag_31:\n    /* \"#utility.yul\":804:806   */\n  dup2\n    /* \"#utility.yul\":798:807   */\n  mload\n    /* \"#utility.yul\":826:828   */\n  dup2\n    /* \"#utility.yul\":822:824   */\n  dup2\n    /* \"#utility.yul\":819:829   */\n  gt\n    /* \"#utility.yul\":816:852   */\n  iszero\n  tag_33\n  jumpi\n    /* \"#utility.yul\":832:850   */\n  tag_33\n  tag_18\n  jump\t// in\ntag_33:\n    /* \"#utility.yul\":907:909   */\n  0x40\n    /* \"#utility.yul\":901:910   */\n  mload\n    /* \"#utility.yul\":875:877   */\n  0x1f\n    /* \"#utility.yul\":961:974   */\n  dup3\n  add\n  not(0x1f)\n    /* \"#utility.yul\":957:979   */\n  swap1\n  dup2\n  and\n    /* \"#utility.yul\":981:983   */\n  0x3f\n    /* \"#utility.yul\":953:984   */\n  add\n    /* \"#utility.yul\":949:989   */\n  and\n    /* \"#utility.yul\":937:990   */\n  dup2\n  add\n  swap1\n    /* \"#utility.yul\":1005:1023   */\n  dup4\n  dup3\n  gt\n    /* \"#utility.yul\":1025:1047   */\n  dup2\n  dup4\n  lt\n    /* \"#utility.yul\":1002:1048   */\n  or\n    /* \"#utility.yul\":999:1071   */\n  iszero\n  tag_35\n  jumpi\n    /* \"#utility.yul\":1051:1069   */\n  tag_35\n  tag_18\n  jump\t// in\ntag_35:\n    /* \"#utility.yul\":1091:1101   */\n  dup2\n    /* \"#utility.yul\":1087:1089   */\n  0x40\n    /* \"#utility.yul\":1080:1102   */\n  mstore\n    /* \"#utility.yul\":1126:1128   */\n  dup3\n    /* \"#utility.yul\":1118:1124   */\n  dup2\n    /* \"#utility.yul\":1111:1129   */\n  mstore\n    /* \"#utility.yul\":1148:1152   */\n  0x20\n    /* \"#utility.yul\":1138:1152   */\n  swap4\n  pop\n    /* \"#utility.yul\":1189:1196   */\n  dup9\n    /* \"#utility.yul\":1184:1186   */\n  dup5\n    /* \"#utility.yul\":1179:1181   */\n  dup5\n    /* \"#utility.yul\":1175:1177   */\n  dup8\n    /* \"#utility.yul\":1171:1182   */\n  add\n    /* \"#utility.yul\":1167:1187   */\n  add\n    /* \"#utility.yul\":1164:1197   */\n  gt\n    /* \"#utility.yul\":1161:1214   */\n  iszero\n  tag_36\n  jumpi\n    /* \"#utility.yul\":1210:1211   */\n  0x00\n    /* \"#utility.yul\":1207:1208   */\n  dup1\n    /* \"#utility.yul\":1200:1212   */\n  revert\n    /* \"#utility.yul\":1161:1214   */\ntag_36:\n    /* \"#utility.yul\":1232:1233   */\n  0x00\n    /* \"#utility.yul\":1223:1233   */\n  swap2\n  pop\n    /* \"#utility.yul\":1242:1371   */\ntag_37:\n    /* \"#utility.yul\":1256:1258   */\n  dup3\n    /* \"#utility.yul\":1253:1254   */\n  dup3\n    /* \"#utility.yul\":1250:1259   */\n  lt\n    /* \"#utility.yul\":1242:1371   */\n  iszero\n  tag_39\n  jumpi\n    /* \"#utility.yul\":1344:1354   */\n  dup5\n  dup3\n  add\n    /* \"#utility.yul\":1340:1359   */\n  dup5\n  add\n    /* \"#utility.yul\":1334:1360   */\n  mload\n    /* \"#utility.yul\":1313:1327   */\n  dup2\n  dup4\n  add\n    /* \"#utility.yul\":1309:1332   */\n  dup6\n  add\n    /* \"#utility.yul\":1302:1361   */\n  mstore\n    /* \"#utility.yul\":1267:1277   */\n  swap1\n  dup4\n  add\n  swap1\n    /* \"#utility.yul\":1242:1371   */\n  jump(tag_37)\ntag_39:\n    /* \"#utility.yul\":1413:1414   */\n  0x00\n    /* \"#utility.yul\":1408:1410   */\n  dup5\n    /* \"#utility.yul\":1403:1405   */\n  dup5\n    /* \"#utility.yul\":1395:1401   */\n  dup4\n    /* \"#utility.yul\":1391:1406   */\n  add\n    /* \"#utility.yul\":1387:1411   */\n  add\n    /* \"#utility.yul\":1380:1415   */\n  mstore\n    /* \"#utility.yul\":1434:1440   */\n  dup1\n    /* \"#utility.yul\":1424:1440   */\n  swap7\n  pop\n  pop\n  pop\n  pop\n    /* \"#utility.yul\":1459:1508   */\n  tag_40\n    /* \"#utility.yul\":1504:1506   */\n  dup2\n    /* \"#utility.yul\":1493:1502   */\n  dup7\n    /* \"#utility.yul\":1489:1507   */\n  add\n    /* \"#utility.yul\":1459:1508   */\n  tag_19\n  jump\t// in\ntag_40:\n    /* \"#utility.yul\":1449:1508   */\n  swap3\n  pop\n  pop\n  pop\n    /* \"#utility.yul\":385:1514   */\n  swap3\n  pop\n  swap3\n  swap1\n  pop\n  jump\t// out\n    /* \"#utility.yul\":1519:1956   */\ntag_20:\n    /* \"#utility.yul\":1604:1605   */\n  0x02\n    /* \"#utility.yul\":1594:1606   */\n  dup2\n  div\n    /* \"#utility.yul\":1651:1652   */\n  0x01\n    /* \"#utility.yul\":1641:1653   */\n  dup3\n  and\n  dup1\n    /* \"#utility.yul\":1662:1723   */\n  tag_42\n  jumpi\n    /* \"#utility.yul\":1716:1720   */\n  0x7f\n    /* \"#utility.yul\":1708:1714   */\n  dup3\n    /* \"#utility.yul\":1704:1721   */\n  and\n    /* \"#utility.yul\":1694:1721   */\n  swap2\n  pop\n    /* \"#utility.yul\":1662:1723   */\ntag_42:\n    /* \"#utility.yul\":1769:1771   */\n  0x20\n    /* \"#utility.yul\":1761:1767   */\n  dup3\n    /* \"#utility.yul\":1758:1772   */\n  lt\n    /* \"#utility.yul\":1738:1756   */\n  dup2\n    /* \"#utility.yul\":1735:1773   */\n  sub\n    /* \"#utility.yul\":1732:1950   */\n  tag_43\n  jumpi\n    /* \"#utility.yul\":1806:1883   */\n  0x4e487b7100000000000000000000000000000000000000000000000000000000\n    /* \"#utility.yul\":1803:1804   */\n  0x00\n    /* \"#utility.yul\":1796:1884   */\n  mstore\n    /* \"#utility.yul\":1907:1911   */\n  0x22\n    /* \"#utility.yul\":1904:1905   */\n  0x04\n    /* \"#utility.yul\":1897:1912   */\n  mstore\n    /* \"#utility.yul\":1935:1939   */\n  0x24\n    /* \"#utility.yul\":1932:1933   */\n  0x00\n    /* \"#utility.yul\":1925:1940   */\n  revert\n    /* \"#utility.yul\":1732:1950   */\ntag_43:\n  pop\n    /* \"#utility.yul\":1519:1956   */\n  swap2\n  swap1\n  pop\n  jump\t// out\n    /* \"#utility.yul\":2087:2638   */\ntag_22:\n    /* \"#utility.yul\":2189:2191   */\n  0x1f\n    /* \"#utility.yul\":2184:2187   */\n  dup3\n    /* \"#utility.yul\":2181:2192   */\n  gt\n    /* \"#utility.yul\":2178:2632   */\n  iszero\n  tag_46\n  jumpi\n    /* \"#utility.yul\":2225:2226   */\n  0x00\n    /* \"#utility.yul\":2250:2255   */\n  dup2\n    /* \"#utility.yul\":2246:2248   */\n  dup2\n    /* \"#utility.yul\":2239:2256   */\n  mstore\n    /* \"#utility.yul\":2295:2299   */\n  0x20\n    /* \"#utility.yul\":2291:2293   */\n  dup2\n    /* \"#utility.yul\":2281:2300   */\n  keccak256\n    /* \"#utility.yul\":2367:2371   */\n  0x20\n    /* \"#utility.yul\":2362:2364   */\n  0x1f\n    /* \"#utility.yul\":2350:2360   */\n  dup7\n    /* \"#utility.yul\":2346:2365   */\n  add\n    /* \"#utility.yul\":2342:2372   */\n  div\n    /* \"#utility.yul\":2336:2340   */\n  dup2\n    /* \"#utility.yul\":2332:2373   */\n  add\n    /* \"#utility.yul\":2404:2408   */\n  0x20\n    /* \"#utility.yul\":2392:2402   */\n  dup7\n    /* \"#utility.yul\":2389:2409   */\n  lt\n    /* \"#utility.yul\":2386:2433   */\n  iszero\n  tag_47\n  jumpi\n  pop\n    /* \"#utility.yul\":2427:2431   */\n  dup1\n    /* \"#utility.yul\":2386:2433   */\ntag_47:\n    /* \"#utility.yul\":2484:2488   */\n  0x20\n    /* \"#utility.yul\":2479:2481   */\n  0x1f\n    /* \"#utility.yul\":2474:2477   */\n  dup7\n    /* \"#utility.yul\":2470:2482   */\n  add\n    /* \"#utility.yul\":2466:2489   */\n  div\n    /* \"#utility.yul\":2460:2464   */\n  dup3\n    /* \"#utility.yul\":2456:2490   */\n  add\n    /* \"#utility.yul\":2446:2490   */\n  swap2\n  pop\n    /* \"#utility.yul\":2540:2622   */\ntag_48:\n    /* \"#utility.yul\":2558:2560   */\n  dup2\n    /* \"#utility.yul\":2551:2556   */\n  dup2\n    /* \"#utility.yul\":2548:2561   */\n  lt\n    /* \"#utility.yul\":2540:2622   */\n  iszero\n  tag_50\n  jumpi\n    /* \"#utility.yul\":2603:2620   */\n  dup3\n  dup2\n  sstore\n    /* \"#utility.yul\":2584:2585   */\n  0x01\n    /* \"#utility.yul\":2573:2586   */\n  add\n    /* \"#utility.yul\":2540:2622   */\n  jump(tag_48)\ntag_50:\n    /* \"#utility.yul\":2544:2547   */\n  pop\n  pop\n  pop\n    /* \"#utility.yul\":2178:2632   */\ntag_46:\n    /* \"#utility.yul\":2087:2638   */\n  pop\n  pop\n  pop\n  jump\t// out\n    /* \"#utility.yul\":2822:4181   */\ntag_8:\n    /* \"#utility.yul\":2948:2951   */\n  dup2\n    /* \"#utility.yul\":2942:2952   */\n  mload\n  sub(exp(0x02, 0x40), 0x01)\n    /* \"#utility.yul\":2967:2973   */\n  dup2\n    /* \"#utility.yul\":2964:2994   */\n  gt\n    /* \"#utility.yul\":2961:3017   */\n  iszero\n  tag_54\n  jumpi\n    /* \"#utility.yul\":2997:3015   */\n  tag_54\n  tag_18\n  jump\t// in\ntag_54:\n    /* \"#utility.yul\":3026:3123   */\n  tag_55\n    /* \"#utility.yul\":3116:3122   */\n  dup2\n    /* \"#utility.yul\":3076:3114   */\n  tag_56\n    /* \"#utility.yul\":3108:3112   */\n  dup5\n    /* \"#utility.yul\":3102:3113   */\n  sload\n    /* \"#utility.yul\":3076:3114   */\n  tag_20\n  jump\t// in\ntag_56:\n    /* \"#utility.yul\":3070:3074   */\n  dup5\n    /* \"#utility.yul\":3026:3123   */\n  tag_22\n  jump\t// in\ntag_55:\n    /* \"#utility.yul\":3178:3182   */\n  0x20\n  dup1\n    /* \"#utility.yul\":3242:3244   */\n  0x1f\n    /* \"#utility.yul\":3231:3245   */\n  dup4\n  gt\n    /* \"#utility.yul\":3259:3260   */\n  0x01\n    /* \"#utility.yul\":3254:3924   */\n  dup2\n  eq\n  tag_58\n  jumpi\n    /* \"#utility.yul\":3968:3969   */\n  0x00\n    /* \"#utility.yul\":3985:3991   */\n  dup5\n    /* \"#utility.yul\":3982:4071   */\n  iszero\n  tag_59\n  jumpi\n  pop\n    /* \"#utility.yul\":4037:4056   */\n  dup6\n  dup4\n  add\n    /* \"#utility.yul\":4031:4057   */\n  mload\n    /* \"#utility.yul\":3982:4071   */\ntag_59:\n    /* \"#utility.yul\":2803:2804   */\n  0x02\n    /* \"#utility.yul\":2799:2810   */\n  dup1\n  dup7\n  mul\n    /* \"#utility.yul\":2786:2787   */\n  0x08\n    /* \"#utility.yul\":2782:2793   */\n  dup8\n  mul\n    /* \"#utility.yul\":2775:2794   */\n  swap1\n  swap2\n  exp\n  not(0x00)\n    /* \"#utility.yul\":2763:2795   */\n  div\n    /* \"#utility.yul\":2759:2796   */\n  not\n    /* \"#utility.yul\":2749:2797   */\n  dup3\n  and\n    /* \"#utility.yul\":2746:2811   */\n  or\n    /* \"#utility.yul\":4091:4095   */\n  dup7\n    /* \"#utility.yul\":4084:4165   */\n  sstore\n  pop\n    /* \"#utility.yul\":3224:4175   */\n  jump(tag_50)\n    /* \"#utility.yul\":3254:3924   */\ntag_58:\n    /* \"#utility.yul\":2034:2035   */\n  0x00\n    /* \"#utility.yul\":2027:2041   */\n  dup6\n  dup2\n  mstore\n    /* \"#utility.yul\":2071:2075   */\n  0x20\n    /* \"#utility.yul\":2058:2076   */\n  dup2\n  keccak256\n  not(0x1f)\n    /* \"#utility.yul\":3290:3310   */\n  dup7\n  and\n  swap2\n    /* \"#utility.yul\":3408:3644   */\ntag_62:\n    /* \"#utility.yul\":3422:3429   */\n  dup3\n    /* \"#utility.yul\":3419:3420   */\n  dup2\n    /* \"#utility.yul\":3416:3430   */\n  lt\n    /* \"#utility.yul\":3408:3644   */\n  iszero\n  tag_64\n  jumpi\n    /* \"#utility.yul\":3511:3530   */\n  dup9\n  dup7\n  add\n    /* \"#utility.yul\":3505:3531   */\n  mload\n    /* \"#utility.yul\":3490:3532   */\n  dup3\n  sstore\n    /* \"#utility.yul\":3603:3630   */\n  swap5\n  dup5\n  add\n  swap5\n    /* \"#utility.yul\":3571:3572   */\n  0x01\n    /* \"#utility.yul\":3559:3573   */\n  swap1\n  swap2\n  add\n  swap1\n    /* \"#utility.yul\":3438:3457   */\n  dup5\n  add\n    /* \"#utility.yul\":3408:3644   */\n  jump(tag_62)\ntag_64:\n    /* \"#utility.yul\":3412:3415   */\n  pop\n    /* \"#utility.yul\":3672:3678   */\n  dup6\n    /* \"#utility.yul\":3663:3670   */\n  dup3\n    /* \"#utility.yul\":3660:3679   */\n  lt\n    /* \"#utility.yul\":3657:3865   */\n  iszero\n  tag_65\n  jumpi\n    /* \"#utility.yul\":3733:3752   */\n  dup8\n  dup6\n  add\n    /* \"#utility.yul\":3727:3753   */\n  mload\n    /* \"#utility.yul\":3827:3828   */\n  0x08\n    /* \"#utility.yul\":3842:3844   */\n  0x1f\n    /* \"#utility.yul\":3830:3845   */\n  dup9\n  and\n    /* \"#utility.yul\":3823:3846   */\n  mul\n    /* \"#utility.yul\":3820:3821   */\n  0x02\n    /* \"#utility.yul\":3816:3847   */\n  exp\n  not(0x00)\n    /* \"#utility.yul\":3804:3848   */\n  div\n    /* \"#utility.yul\":3800:3849   */\n  not\n    /* \"#utility.yul\":3785:3850   */\n  and\n    /* \"#utility.yul\":3770:3851   */\n  dup2\n  sstore\n    /* \"#utility.yul\":3657:3865   */\ntag_65:\n  pop\n  pop\n  pop\n  pop\n  pop\n    /* \"#utility.yul\":3907:3908   */\n  0x02\n    /* \"#utility.yul\":3895:3909   */\n  mul\n    /* \"#utility.yul\":3911:3912   */\n  0x01\n    /* \"#utility.yul\":3891:3913   */\n  add\n    /* \"#utility.yul\":3878:3914   */\n  swap1\n  sstore\n  pop\n    /* \"#utility.yul\":2822:4181   */\n  jump\t// out\ntag_24:\n    /* \"contracts/Tenant.sol\":143:979  contract Tenant is BaseUser, Ownable {... */\n  dataSize(sub_0)\n  dup1\n  dataOffset(sub_0)\n  0x00\n  codecopy\n  0x00\n  return\nstop\n\nsub_0: assembly {\n        /* \"contracts/Tenant.sol\":143:979  contract Tenant is BaseUser, Ownable {... */\n      mstore(0x40, 0x80)\n      jumpi(tag_1, lt(calldatasize, 0x04))\n      calldataload(0x00)\n      0x0100000000000000000000000000000000000000000000000000000000\n      swap1\n      div\n      dup1\n      0xd0e30db0\n      gt\n      tag_10\n      jumpi\n      dup1\n      0xd0e30db0\n      eq\n      tag_6\n      jumpi\n      dup1\n      0xd4e93292\n      eq\n      tag_7\n      jumpi\n      dup1\n      0xda6e75c2\n      eq\n      tag_8\n      jumpi\n      dup1\n      0xf2fde38b\n      eq\n      tag_9\n      jumpi\n      stop\n    tag_10:\n      dup1\n      0x1581b600\n      eq\n      tag_3\n      jumpi\n      dup1\n      0x715018a6\n      eq\n      tag_4\n      jumpi\n      dup1\n      0x8da5cb5b\n      eq\n      tag_5\n      jumpi\n      stop\n    tag_1:\n      jumpi(tag_2, calldatasize)\n      stop\n    tag_2:\n      stop\n        /* \"contracts/BaseUser.sol\":114:144  address public withdrawAddress */\n    tag_3:\n      callvalue\n      dup1\n      iszero\n      tag_15\n      jumpi\n      0x00\n      dup1\n      revert\n    tag_15:\n      pop\n      sload(0x01)\n      tag_16\n      swap1\n      sub(exp(0x02, 0xa0), 0x01)\n      and\n      dup2\n      jump\n    tag_16:\n      mload(0x40)\n      sub(exp(0x02, 0xa0), 0x01)\n        /* \"#utility.yul\":178:233   */\n      swap1\n      swap2\n      and\n        /* \"#utility.yul\":160:234   */\n      dup2\n      mstore\n        /* \"#utility.yul\":148:150   */\n      0x20\n        /* \"#utility.yul\":133:151   */\n      add\n        /* \"contracts/BaseUser.sol\":114:144  address public withdrawAddress */\n      mload(0x40)\n      dup1\n      swap2\n      sub\n      swap1\n      return\n        /* \"@openzeppelin/contracts/access/Ownable.sol\":1831:1932  function renounceOwnership() public virtual onlyOwner {... */\n    tag_4:\n      callvalue\n      dup1\n      iszero\n      tag_20\n      jumpi\n      0x00\n      dup1\n      revert\n    tag_20:\n      pop\n      tag_2\n      tag_22\n      jump\t// in\n        /* \"@openzeppelin/contracts/access/Ownable.sol\":1201:1286  function owner() public view virtual returns (address) {... */\n    tag_5:\n      callvalue\n      dup1\n      iszero\n      tag_23\n      jumpi\n      0x00\n      dup1\n      revert\n    tag_23:\n      pop\n        /* \"@openzeppelin/contracts/access/Ownable.sol\":1273:1279  _owner */\n      and(sub(exp(0x02, 0xa0), 0x01), sload(0x02))\n        /* \"@openzeppelin/contracts/access/Ownable.sol\":1201:1286  function owner() public view virtual returns (address) {... */\n      jump(tag_16)\n        /* \"contracts/Tenant.sol\":568:650  function deposit() public payable {... */\n    tag_6:\n      tag_2\n      tag_28\n      jump\t// in\n        /* \"contracts/BaseUser.sol\":288:388  function withdrawal() public {... */\n    tag_7:\n      callvalue\n      dup1\n      iszero\n      tag_2\n      jumpi\n      0x00\n      dup1\n      revert\n        /* \"contracts/Tenant.sol\":658:974  function payExpenses() public {... */\n    tag_8:\n      callvalue\n      dup1\n      iszero\n      tag_32\n      jumpi\n      0x00\n      dup1\n      revert\n    tag_32:\n      pop\n      tag_2\n      tag_34\n      jump\t// in\n        /* \"@openzeppelin/contracts/access/Ownable.sol\":2081:2279  function transferOwnership(address newOwner) public virtual onlyOwner {... */\n    tag_9:\n      callvalue\n      dup1\n      iszero\n      tag_35\n      jumpi\n      0x00\n      dup1\n      revert\n    tag_35:\n      pop\n      tag_2\n      tag_37\n      calldatasize\n      0x04\n      tag_38\n      jump\t// in\n    tag_37:\n      tag_39\n      jump\t// in\n        /* \"@openzeppelin/contracts/access/Ownable.sol\":1831:1932  function renounceOwnership() public virtual onlyOwner {... */\n    tag_22:\n        /* \"@openzeppelin/contracts/access/Ownable.sol\":1094:1107  _checkOwner() */\n      tag_41\n        /* \"@openzeppelin/contracts/access/Ownable.sol\":1094:1105  _checkOwner */\n      tag_42\n        /* \"@openzeppelin/contracts/access/Ownable.sol\":1094:1107  _checkOwner() */\n      jump\t// in\n    tag_41:\n        /* \"@openzeppelin/contracts/access/Ownable.sol\":1895:1925  _transferOwnership(address(0)) */\n      tag_44\n        /* \"@openzeppelin/contracts/access/Ownable.sol\":1922:1923  0 */\n      0x00\n        /* \"@openzeppelin/contracts/access/Ownable.sol\":1895:1913  _transferOwnership */\n      tag_45\n        /* \"@openzeppelin/contracts/access/Ownable.sol\":1895:1925  _transferOwnership(address(0)) */\n      jump\t// in\n    tag_44:\n        /* \"@openzeppelin/contracts/access/Ownable.sol\":1831:1932  function renounceOwnership() public virtual onlyOwner {... */\n      jump\t// out\n        /* \"contracts/Tenant.sol\":568:650  function deposit() public payable {... */\n    tag_28:\n        /* \"contracts/Tenant.sol\":618:642  EtherReceived(msg.value) */\n      mload(0x40)\n        /* \"contracts/Tenant.sol\":632:641  msg.value */\n      callvalue\n        /* \"#utility.yul\":705:730   */\n      dup2\n      mstore\n        /* \"contracts/Tenant.sol\":618:642  EtherReceived(msg.value) */\n      0x0a34e3d4f1e6b837dbce1011b61499fa1a483a0abee6a7a6697660b4b2d97132\n      swap1\n        /* \"#utility.yul\":693:695   */\n      0x20\n        /* \"#utility.yul\":678:696   */\n      add\n        /* \"contracts/Tenant.sol\":618:642  EtherReceived(msg.value) */\n      mload(0x40)\n      dup1\n      swap2\n      sub\n      swap1\n      log1\n        /* \"contracts/Tenant.sol\":568:650  function deposit() public payable {... */\n      jump\t// out\n        /* \"contracts/Tenant.sol\":658:974  function payExpenses() public {... */\n    tag_34:\n        /* \"contracts/Tenant.sol\":732:744  servicePrice */\n      sload(0x03)\n        /* \"contracts/Tenant.sol\":715:719  this */\n      address\n        /* \"contracts/Tenant.sol\":707:728  address(this).balance */\n      balance\n        /* \"contracts/Tenant.sol\":707:744  address(this).balance >= servicePrice */\n      lt\n      iszero\n        /* \"contracts/Tenant.sol\":699:769  require(address(this).balance >= servicePrice, \"Fondos insuficientes\") */\n      tag_52\n      jumpi\n      mload(0x40)\n      mul(0x461bcd, exp(0x02, 0xe5))\n      dup2\n      mstore\n        /* \"#utility.yul\":943:945   */\n      0x20\n        /* \"contracts/Tenant.sol\":699:769  require(address(this).balance >= servicePrice, \"Fondos insuficientes\") */\n      0x04\n      dup3\n      add\n        /* \"#utility.yul\":925:946   */\n      mstore\n        /* \"#utility.yul\":982:984   */\n      0x14\n        /* \"#utility.yul\":962:980   */\n      0x24\n      dup3\n      add\n        /* \"#utility.yul\":955:985   */\n      mstore\n        /* \"#utility.yul\":1021:1043   */\n      0x466f6e646f7320696e737566696369656e746573000000000000000000000000\n        /* \"#utility.yul\":1001:1019   */\n      0x44\n      dup3\n      add\n        /* \"#utility.yul\":994:1044   */\n      mstore\n        /* \"#utility.yul\":1061:1079   */\n      0x64\n      add\n        /* \"contracts/Tenant.sol\":699:769  require(address(this).balance >= servicePrice, \"Fondos insuficientes\") */\n    tag_53:\n      mload(0x40)\n      dup1\n      swap2\n      sub\n      swap1\n      revert\n    tag_52:\n        /* \"contracts/Tenant.sol\":795:811  consorcioAddress */\n      sload(0x05)\n        /* \"contracts/Tenant.sol\":839:851  servicePrice */\n      sload(0x03)\n        /* \"contracts/Tenant.sol\":795:866  consorcioAddress.call {... */\n      mload(0x40)\n        /* \"contracts/Tenant.sol\":781:790  bool sent */\n      0x00\n      swap3\n      sub(exp(0x02, 0xa0), 0x01)\n        /* \"contracts/Tenant.sol\":795:811  consorcioAddress */\n      and\n      swap2\n        /* \"contracts/Tenant.sol\":839:851  servicePrice */\n      swap1\n        /* \"contracts/Tenant.sol\":781:790  bool sent */\n      dup4\n        /* \"contracts/Tenant.sol\":795:866  consorcioAddress.call {... */\n      dup2\n        /* \"contracts/Tenant.sol\":781:790  bool sent */\n      dup2\n        /* \"contracts/Tenant.sol\":795:866  consorcioAddress.call {... */\n      dup2\n        /* \"contracts/Tenant.sol\":839:851  servicePrice */\n      dup6\n        /* \"contracts/Tenant.sol\":795:811  consorcioAddress */\n      dup8\n        /* \"contracts/Tenant.sol\":795:866  consorcioAddress.call {... */\n      gas\n      call\n      swap3\n      pop\n      pop\n      pop\n      returndatasize\n      dup1\n      0x00\n      dup2\n      eq\n      tag_59\n      jumpi\n      mload(0x40)\n      swap2\n      pop\n      and(add(returndatasize, 0x3f), not(0x1f))\n      dup3\n      add\n      0x40\n      mstore\n      returndatasize\n      dup3\n      mstore\n      returndatasize\n      0x00\n      0x20\n      dup5\n      add\n      returndatacopy\n      jump(tag_58)\n    tag_59:\n      0x60\n      swap2\n      pop\n    tag_58:\n      pop\n        /* \"contracts/Tenant.sol\":780:866  (bool sent,) = consorcioAddress.call {... */\n      swap1\n      swap2\n      pop\n      pop\n        /* \"contracts/Tenant.sol\":893:897  true */\n      0x01\n        /* \"contracts/Tenant.sol\":885:897  sent == true */\n      dup2\n      iszero\n      iszero\n      eq\n        /* \"contracts/Tenant.sol\":877:924  require(sent == true, \"Fallo la transferencia\") */\n      tag_60\n      jumpi\n      mload(0x40)\n      mul(0x461bcd, exp(0x02, 0xe5))\n      dup2\n      mstore\n        /* \"#utility.yul\":1502:1504   */\n      0x20\n        /* \"contracts/Tenant.sol\":877:924  require(sent == true, \"Fallo la transferencia\") */\n      0x04\n      dup3\n      add\n        /* \"#utility.yul\":1484:1505   */\n      mstore\n        /* \"#utility.yul\":1541:1543   */\n      0x16\n        /* \"#utility.yul\":1521:1539   */\n      0x24\n      dup3\n      add\n        /* \"#utility.yul\":1514:1544   */\n      mstore\n        /* \"#utility.yul\":1580:1604   */\n      0x46616c6c6f206c61207472616e73666572656e63696100000000000000000000\n        /* \"#utility.yul\":1560:1578   */\n      0x44\n      dup3\n      add\n        /* \"#utility.yul\":1553:1605   */\n      mstore\n        /* \"#utility.yul\":1622:1640   */\n      0x64\n      add\n        /* \"contracts/Tenant.sol\":877:924  require(sent == true, \"Fallo la transferencia\") */\n      tag_53\n        /* \"#utility.yul\":1300:1646   */\n      jump\n        /* \"contracts/Tenant.sol\":877:924  require(sent == true, \"Fallo la transferencia\") */\n    tag_60:\n        /* \"contracts/Tenant.sol\":940:966  ExpensesPaid(servicePrice) */\n      0x56e1cf8a52e84572ff49b950fa9a1a1867319bf8eba3bf8c77bc4354678a34c5\n        /* \"contracts/Tenant.sol\":953:965  servicePrice */\n      sload(0x03)\n        /* \"contracts/Tenant.sol\":940:966  ExpensesPaid(servicePrice) */\n      mload(0x40)\n      tag_63\n      swap2\n        /* \"#utility.yul\":705:730   */\n      dup2\n      mstore\n        /* \"#utility.yul\":693:695   */\n      0x20\n        /* \"#utility.yul\":678:696   */\n      add\n      swap1\n        /* \"#utility.yul\":559:736   */\n      jump\n        /* \"contracts/Tenant.sol\":940:966  ExpensesPaid(servicePrice) */\n    tag_63:\n      mload(0x40)\n      dup1\n      swap2\n      sub\n      swap1\n      log1\n        /* \"contracts/Tenant.sol\":688:974  {... */\n      pop\n        /* \"contracts/Tenant.sol\":658:974  function payExpenses() public {... */\n      jump\t// out\n        /* \"@openzeppelin/contracts/access/Ownable.sol\":2081:2279  function transferOwnership(address newOwner) public virtual onlyOwner {... */\n    tag_39:\n        /* \"@openzeppelin/contracts/access/Ownable.sol\":1094:1107  _checkOwner() */\n      tag_65\n        /* \"@openzeppelin/contracts/access/Ownable.sol\":1094:1105  _checkOwner */\n      tag_42\n        /* \"@openzeppelin/contracts/access/Ownable.sol\":1094:1107  _checkOwner() */\n      jump\t// in\n    tag_65:\n      sub(exp(0x02, 0xa0), 0x01)\n        /* \"@openzeppelin/contracts/access/Ownable.sol\":2169:2191  newOwner != address(0) */\n      dup2\n      and\n        /* \"@openzeppelin/contracts/access/Ownable.sol\":2161:2234  require(newOwner != address(0), \"Ownable: new owner is the zero address\") */\n      tag_67\n      jumpi\n      mload(0x40)\n      mul(0x461bcd, exp(0x02, 0xe5))\n      dup2\n      mstore\n        /* \"#utility.yul\":1853:1855   */\n      0x20\n        /* \"@openzeppelin/contracts/access/Ownable.sol\":2161:2234  require(newOwner != address(0), \"Ownable: new owner is the zero address\") */\n      0x04\n      dup3\n      add\n        /* \"#utility.yul\":1835:1856   */\n      mstore\n        /* \"#utility.yul\":1892:1894   */\n      0x26\n        /* \"#utility.yul\":1872:1890   */\n      0x24\n      dup3\n      add\n        /* \"#utility.yul\":1865:1895   */\n      mstore\n        /* \"#utility.yul\":1931:1965   */\n      0x4f776e61626c653a206e6577206f776e657220697320746865207a65726f2061\n        /* \"#utility.yul\":1911:1929   */\n      0x44\n      dup3\n      add\n        /* \"#utility.yul\":1904:1966   */\n      mstore\n        /* \"#utility.yul\":2002:2010   */\n      0x6464726573730000000000000000000000000000000000000000000000000000\n        /* \"#utility.yul\":1982:2000   */\n      0x64\n      dup3\n      add\n        /* \"#utility.yul\":1975:2011   */\n      mstore\n        /* \"#utility.yul\":2028:2047   */\n      0x84\n      add\n        /* \"@openzeppelin/contracts/access/Ownable.sol\":2161:2234  require(newOwner != address(0), \"Ownable: new owner is the zero address\") */\n      tag_53\n        /* \"#utility.yul\":1651:2053   */\n      jump\n        /* \"@openzeppelin/contracts/access/Ownable.sol\":2161:2234  require(newOwner != address(0), \"Ownable: new owner is the zero address\") */\n    tag_67:\n        /* \"@openzeppelin/contracts/access/Ownable.sol\":2244:2272  _transferOwnership(newOwner) */\n      tag_70\n        /* \"@openzeppelin/contracts/access/Ownable.sol\":2263:2271  newOwner */\n      dup2\n        /* \"@openzeppelin/contracts/access/Ownable.sol\":2244:2262  _transferOwnership */\n      tag_45\n        /* \"@openzeppelin/contracts/access/Ownable.sol\":2244:2272  _transferOwnership(newOwner) */\n      jump\t// in\n    tag_70:\n        /* \"@openzeppelin/contracts/access/Ownable.sol\":2081:2279  function transferOwnership(address newOwner) public virtual onlyOwner {... */\n      pop\n      jump\t// out\n        /* \"@openzeppelin/contracts/access/Ownable.sol\":1359:1489  function _checkOwner() internal view virtual {... */\n    tag_42:\n        /* \"@openzeppelin/contracts/access/Ownable.sol\":1273:1279  _owner */\n      and(sub(exp(0x02, 0xa0), 0x01), sload(0x02))\n        /* \"@openzeppelin/contracts/utils/Context.sol\":719:729  msg.sender */\n      caller\n        /* \"@openzeppelin/contracts/access/Ownable.sol\":1422:1445  owner() == _msgSender() */\n      eq\n        /* \"@openzeppelin/contracts/access/Ownable.sol\":1414:1482  require(owner() == _msgSender(), \"Ownable: caller is not the owner\") */\n      tag_44\n      jumpi\n      mload(0x40)\n      mul(0x461bcd, exp(0x02, 0xe5))\n      dup2\n      mstore\n        /* \"#utility.yul\":2260:2262   */\n      0x20\n        /* \"@openzeppelin/contracts/access/Ownable.sol\":1414:1482  require(owner() == _msgSender(), \"Ownable: caller is not the owner\") */\n      0x04\n      dup3\n      add\n        /* \"#utility.yul\":2242:2263   */\n      dup2\n      swap1\n      mstore\n        /* \"#utility.yul\":2279:2297   */\n      0x24\n      dup3\n      add\n        /* \"#utility.yul\":2272:2302   */\n      mstore\n        /* \"#utility.yul\":2338:2372   */\n      0x4f776e61626c653a2063616c6c6572206973206e6f7420746865206f776e6572\n        /* \"#utility.yul\":2318:2336   */\n      0x44\n      dup3\n      add\n        /* \"#utility.yul\":2311:2373   */\n      mstore\n        /* \"#utility.yul\":2390:2408   */\n      0x64\n      add\n        /* \"@openzeppelin/contracts/access/Ownable.sol\":1414:1482  require(owner() == _msgSender(), \"Ownable: caller is not the owner\") */\n      tag_53\n        /* \"#utility.yul\":2058:2414   */\n      jump\n        /* \"@openzeppelin/contracts/access/Ownable.sol\":2433:2620  function _transferOwnership(address newOwner) internal virtual {... */\n    tag_45:\n        /* \"@openzeppelin/contracts/access/Ownable.sol\":2525:2531  _owner */\n      0x02\n      dup1\n      sload\n      sub(exp(0x02, 0xa0), 0x01)\n        /* \"@openzeppelin/contracts/access/Ownable.sol\":2541:2558  _owner = newOwner */\n      dup4\n      dup2\n      and\n      not(0xffffffffffffffffffffffffffffffffffffffff)\n      dup4\n      and\n      dup2\n      or\n      swap1\n      swap4\n      sstore\n        /* \"@openzeppelin/contracts/access/Ownable.sol\":2573:2613  OwnershipTransferred(oldOwner, newOwner) */\n      mload(0x40)\n        /* \"@openzeppelin/contracts/access/Ownable.sol\":2525:2531  _owner */\n      swap2\n      and\n      swap2\n        /* \"@openzeppelin/contracts/access/Ownable.sol\":2541:2558  _owner = newOwner */\n      swap1\n        /* \"@openzeppelin/contracts/access/Ownable.sol\":2525:2531  _owner */\n      dup3\n      swap1\n        /* \"@openzeppelin/contracts/access/Ownable.sol\":2573:2613  OwnershipTransferred(oldOwner, newOwner) */\n      0x8be0079c531659141344cd1fd0a4f28419497f9722a3daafe3b4186f6b6457e0\n      swap1\n        /* \"@openzeppelin/contracts/access/Ownable.sol\":2506:2522  address oldOwner */\n      0x00\n      swap1\n        /* \"@openzeppelin/contracts/access/Ownable.sol\":2573:2613  OwnershipTransferred(oldOwner, newOwner) */\n      log3\n        /* \"@openzeppelin/contracts/access/Ownable.sol\":2496:2620  {... */\n      pop\n        /* \"@openzeppelin/contracts/access/Ownable.sol\":2433:2620  function _transferOwnership(address newOwner) internal virtual {... */\n      pop\n      jump\t// out\n        /* \"#utility.yul\":245:554   */\n    tag_38:\n        /* \"#utility.yul\":304:310   */\n      0x00\n        /* \"#utility.yul\":357:359   */\n      0x20\n        /* \"#utility.yul\":345:354   */\n      dup3\n        /* \"#utility.yul\":336:343   */\n      dup5\n        /* \"#utility.yul\":332:355   */\n      sub\n        /* \"#utility.yul\":328:360   */\n      slt\n        /* \"#utility.yul\":325:377   */\n      iszero\n      tag_83\n      jumpi\n        /* \"#utility.yul\":373:374   */\n      0x00\n        /* \"#utility.yul\":370:371   */\n      dup1\n        /* \"#utility.yul\":363:375   */\n      revert\n        /* \"#utility.yul\":325:377   */\n    tag_83:\n        /* \"#utility.yul\":412:421   */\n      dup2\n        /* \"#utility.yul\":399:422   */\n      calldataload\n      sub(exp(0x02, 0xa0), 0x01)\n        /* \"#utility.yul\":455:460   */\n      dup2\n        /* \"#utility.yul\":451:505   */\n      and\n        /* \"#utility.yul\":444:449   */\n      dup2\n        /* \"#utility.yul\":441:506   */\n      eq\n        /* \"#utility.yul\":431:524   */\n      tag_84\n      jumpi\n        /* \"#utility.yul\":520:521   */\n      0x00\n        /* \"#utility.yul\":517:518   */\n      dup1\n        /* \"#utility.yul\":510:522   */\n      revert\n        /* \"#utility.yul\":431:524   */\n    tag_84:\n        /* \"#utility.yul\":543:548   */\n      swap4\n        /* \"#utility.yul\":245:554   */\n      swap3\n      pop\n      pop\n      pop\n      jump\t// out\n\n    auxdata: 0xa264697066735822122046aa49feecccabd61b8f51060e0424a8bbb965a8e254cd5b00af38a702d299d564736f6c63430008110033\n}\n",
				"bytecode": {
					"linkReferences": {},
					"object": "60806040526040516107fd3803806107fd8339810160408190526100229161011c565b818160006100308382610298565b5060018054600160a060020a031916600160a060020a03929092169190911790555061007461006664010000000061007b810204565b64010000000061007f810204565b505061035d565b3390565b60028054600160a060020a03838116600160a060020a0319831681179093556040519116919082907f8be0079c531659141344cd1fd0a4f28419497f9722a3daafe3b4186f6b6457e090600090a35050565b7f4e487b7100000000000000000000000000000000000000000000000000000000600052604160045260246000fd5b8051600160a060020a038116811461011757600080fd5b919050565b6000806040838503121561012f57600080fd5b82516001604060020a038082111561014657600080fd5b818501915085601f83011261015a57600080fd5b81518181111561016c5761016c6100d1565b604051601f8201601f19908116603f01168101908382118183101715610194576101946100d1565b816040528281526020935088848487010111156101b057600080fd5b600091505b828210156101d257848201840151818301850152908301906101b5565b60008484830101528096505050506101eb818601610100565b925050509250929050565b60028104600182168061020a57607f821691505b602082108103610243577f4e487b7100000000000000000000000000000000000000000000000000000000600052602260045260246000fd5b50919050565b601f821115610293576000818152602081206020601f860104810160208610156102705750805b6020601f860104820191505b8181101561028f5782815560010161027c565b5050505b505050565b81516001604060020a038111156102b1576102b16100d1565b6102c5816102bf84546101f6565b84610249565b602080601f8311600181146102fe57600084156102e25750858301515b60028086026008870290910a600019041982161786555061028f565b600085815260208120601f198616915b8281101561032d5788860151825594840194600190910190840161030e565b508582101561034d57878501516008601f88160260020a60001904191681555b5050505050600202600101905550565b6104918061036c6000396000f3fe60806040526004361061008b576000357c010000000000000000000000000000000000000000000000000000000090048063d0e30db011610068578063d0e30db014610103578063d4e932921461010b578063da6e75c214610117578063f2fde38b1461012c57005b80631581b60014610094578063715018a6146100d05780638da5cb5b146100e557005b3661009257005b005b3480156100a057600080fd5b506001546100b490600160a060020a031681565b604051600160a060020a03909116815260200160405180910390f35b3480156100dc57600080fd5b5061009261014c565b3480156100f157600080fd5b50600254600160a060020a03166100b4565b610092610160565b34801561009257600080fd5b34801561012357600080fd5b50610092610195565b34801561013857600080fd5b5061009261014736600461042b565b6102dc565b61015461036f565b61015e60006103cc565b565b6040513481527f0a34e3d4f1e6b837dbce1011b61499fa1a483a0abee6a7a6697660b4b2d971329060200160405180910390a1565b600354303110156101f05760405160e560020a62461bcd02815260206004820152601460248201527f466f6e646f7320696e737566696369656e74657300000000000000000000000060448201526064015b60405180910390fd5b600554600354604051600092600160a060020a031691908381818185875af1925050503d806000811461023f576040519150601f19603f3d011682016040523d82523d6000602084013e610244565b606091505b509091505060018115151461029e5760405160e560020a62461bcd02815260206004820152601660248201527f46616c6c6f206c61207472616e73666572656e6369610000000000000000000060448201526064016101e7565b7f56e1cf8a52e84572ff49b950fa9a1a1867319bf8eba3bf8c77bc4354678a34c56003546040516102d191815260200190565b60405180910390a150565b6102e461036f565b600160a060020a0381166103635760405160e560020a62461bcd02815260206004820152602660248201527f4f776e61626c653a206e6577206f776e657220697320746865207a65726f206160448201527f646472657373000000000000000000000000000000000000000000000000000060648201526084016101e7565b61036c816103cc565b50565b600254600160a060020a0316331461015e5760405160e560020a62461bcd02815260206004820181905260248201527f4f776e61626c653a2063616c6c6572206973206e6f7420746865206f776e657260448201526064016101e7565b60028054600160a060020a0383811673ffffffffffffffffffffffffffffffffffffffff19831681179093556040519116919082907f8be0079c531659141344cd1fd0a4f28419497f9722a3daafe3b4186f6b6457e090600090a35050565b60006020828403121561043d57600080fd5b8135600160a060020a038116811461045457600080fd5b939250505056fea264697066735822122046aa49feecccabd61b8f51060e0424a8bbb965a8e254cd5b00af38a702d299d564736f6c63430008110033",
					"opcodes": "PUSH1 0x80 PUSH1 0x40 MSTORE PUSH1 0x40 MLOAD PUSH2 0x7FD CODESIZE SUB DUP1 PUSH2 0x7FD DUP4 CODECOPY DUP2 ADD PUSH1 0x40 DUP2 SWAP1 MSTORE PUSH2 0x22 SWAP2 PUSH2 0x11C JUMP JUMPDEST DUP2 DUP2 PUSH1 0x0 PUSH2 0x30 DUP4 DUP3 PUSH2 0x298 JUMP JUMPDEST POP PUSH1 0x1 DUP1 SLOAD PUSH1 0x1 PUSH1 0xA0 PUSH1 0x2 EXP SUB NOT AND PUSH1 0x1 PUSH1 0xA0 PUSH1 0x2 EXP SUB SWAP3 SWAP1 SWAP3 AND SWAP2 SWAP1 SWAP2 OR SWAP1 SSTORE POP PUSH2 0x74 PUSH2 0x66 PUSH5 0x100000000 PUSH2 0x7B DUP2 MUL DIV JUMP JUMPDEST PUSH5 0x100000000 PUSH2 0x7F DUP2 MUL DIV JUMP JUMPDEST POP POP PUSH2 0x35D JUMP JUMPDEST CALLER SWAP1 JUMP JUMPDEST PUSH1 0x2 DUP1 SLOAD PUSH1 0x1 PUSH1 0xA0 PUSH1 0x2 EXP SUB DUP4 DUP2 AND PUSH1 0x1 PUSH1 0xA0 PUSH1 0x2 EXP SUB NOT DUP4 AND DUP2 OR SWAP1 SWAP4 SSTORE PUSH1 0x40 MLOAD SWAP2 AND SWAP2 SWAP1 DUP3 SWAP1 PUSH32 0x8BE0079C531659141344CD1FD0A4F28419497F9722A3DAAFE3B4186F6B6457E0 SWAP1 PUSH1 0x0 SWAP1 LOG3 POP POP JUMP JUMPDEST PUSH32 0x4E487B7100000000000000000000000000000000000000000000000000000000 PUSH1 0x0 MSTORE PUSH1 0x41 PUSH1 0x4 MSTORE PUSH1 0x24 PUSH1 0x0 REVERT JUMPDEST DUP1 MLOAD PUSH1 0x1 PUSH1 0xA0 PUSH1 0x2 EXP SUB DUP2 AND DUP2 EQ PUSH2 0x117 JUMPI PUSH1 0x0 DUP1 REVERT JUMPDEST SWAP2 SWAP1 POP JUMP JUMPDEST PUSH1 0x0 DUP1 PUSH1 0x40 DUP4 DUP6 SUB SLT ISZERO PUSH2 0x12F JUMPI PUSH1 0x0 DUP1 REVERT JUMPDEST DUP3 MLOAD PUSH1 0x1 PUSH1 0x40 PUSH1 0x2 EXP SUB DUP1 DUP3 GT ISZERO PUSH2 0x146 JUMPI PUSH1 0x0 DUP1 REVERT JUMPDEST DUP2 DUP6 ADD SWAP2 POP DUP6 PUSH1 0x1F DUP4 ADD SLT PUSH2 0x15A JUMPI PUSH1 0x0 DUP1 REVERT JUMPDEST DUP2 MLOAD DUP2 DUP2 GT ISZERO PUSH2 0x16C JUMPI PUSH2 0x16C PUSH2 0xD1 JUMP JUMPDEST PUSH1 0x40 MLOAD PUSH1 0x1F DUP3 ADD PUSH1 0x1F NOT SWAP1 DUP2 AND PUSH1 0x3F ADD AND DUP2 ADD SWAP1 DUP4 DUP3 GT DUP2 DUP4 LT OR ISZERO PUSH2 0x194 JUMPI PUSH2 0x194 PUSH2 0xD1 JUMP JUMPDEST DUP2 PUSH1 0x40 MSTORE DUP3 DUP2 MSTORE PUSH1 0x20 SWAP4 POP DUP9 DUP5 DUP5 DUP8 ADD ADD GT ISZERO PUSH2 0x1B0 JUMPI PUSH1 0x0 DUP1 REVERT JUMPDEST PUSH1 0x0 SWAP2 POP JUMPDEST DUP3 DUP3 LT ISZERO PUSH2 0x1D2 JUMPI DUP5 DUP3 ADD DUP5 ADD MLOAD DUP2 DUP4 ADD DUP6 ADD MSTORE SWAP1 DUP4 ADD SWAP1 PUSH2 0x1B5 JUMP JUMPDEST PUSH1 0x0 DUP5 DUP5 DUP4 ADD ADD MSTORE DUP1 SWAP7 POP POP POP POP PUSH2 0x1EB DUP2 DUP7 ADD PUSH2 0x100 JUMP JUMPDEST SWAP3 POP POP POP SWAP3 POP SWAP3 SWAP1 POP JUMP JUMPDEST PUSH1 0x2 DUP2 DIV PUSH1 0x1 DUP3 AND DUP1 PUSH2 0x20A JUMPI PUSH1 0x7F DUP3 AND SWAP2 POP JUMPDEST PUSH1 0x20 DUP3 LT DUP2 SUB PUSH2 0x243 JUMPI PUSH32 0x4E487B7100000000000000000000000000000000000000000000000000000000 PUSH1 0x0 MSTORE PUSH1 0x22 PUSH1 0x4 MSTORE PUSH1 0x24 PUSH1 0x0 REVERT JUMPDEST POP SWAP2 SWAP1 POP JUMP JUMPDEST PUSH1 0x1F DUP3 GT ISZERO PUSH2 0x293 JUMPI PUSH1 0x0 DUP2 DUP2 MSTORE PUSH1 0x20 DUP2 KECCAK256 PUSH1 0x20 PUSH1 0x1F DUP7 ADD DIV DUP2 ADD PUSH1 0x20 DUP7 LT ISZERO PUSH2 0x270 JUMPI POP DUP1 JUMPDEST PUSH1 0x20 PUSH1 0x1F DUP7 ADD DIV DUP3 ADD SWAP2 POP JUMPDEST DUP2 DUP2 LT ISZERO PUSH2 0x28F JUMPI DUP3 DUP2 SSTORE PUSH1 0x1 ADD PUSH2 0x27C JUMP JUMPDEST POP POP POP JUMPDEST POP POP POP JUMP JUMPDEST DUP2 MLOAD PUSH1 0x1 PUSH1 0x40 PUSH1 0x2 EXP SUB DUP2 GT ISZERO PUSH2 0x2B1 JUMPI PUSH2 0x2B1 PUSH2 0xD1 JUMP JUMPDEST PUSH2 0x2C5 DUP2 PUSH2 0x2BF DUP5 SLOAD PUSH2 0x1F6 JUMP JUMPDEST DUP5 PUSH2 0x249 JUMP JUMPDEST PUSH1 0x20 DUP1 PUSH1 0x1F DUP4 GT PUSH1 0x1 DUP2 EQ PUSH2 0x2FE JUMPI PUSH1 0x0 DUP5 ISZERO PUSH2 0x2E2 JUMPI POP DUP6 DUP4 ADD MLOAD JUMPDEST PUSH1 0x2 DUP1 DUP7 MUL PUSH1 0x8 DUP8 MUL SWAP1 SWAP2 EXP PUSH1 0x0 NOT DIV NOT DUP3 AND OR DUP7 SSTORE POP PUSH2 0x28F JUMP JUMPDEST PUSH1 0x0 DUP6 DUP2 MSTORE PUSH1 0x20 DUP2 KECCAK256 PUSH1 0x1F NOT DUP7 AND SWAP2 JUMPDEST DUP3 DUP2 LT ISZERO PUSH2 0x32D JUMPI DUP9 DUP7 ADD MLOAD DUP3 SSTORE SWAP5 DUP5 ADD SWAP5 PUSH1 0x1 SWAP1 SWAP2 ADD SWAP1 DUP5 ADD PUSH2 0x30E JUMP JUMPDEST POP DUP6 DUP3 LT ISZERO PUSH2 0x34D JUMPI DUP8 DUP6 ADD MLOAD PUSH1 0x8 PUSH1 0x1F DUP9 AND MUL PUSH1 0x2 EXP PUSH1 0x0 NOT DIV NOT AND DUP2 SSTORE JUMPDEST POP POP POP POP POP PUSH1 0x2 MUL PUSH1 0x1 ADD SWAP1 SSTORE POP JUMP JUMPDEST PUSH2 0x491 DUP1 PUSH2 0x36C PUSH1 0x0 CODECOPY PUSH1 0x0 RETURN INVALID PUSH1 0x80 PUSH1 0x40 MSTORE PUSH1 0x4 CALLDATASIZE LT PUSH2 0x8B JUMPI PUSH1 0x0 CALLDATALOAD PUSH29 0x100000000000000000000000000000000000000000000000000000000 SWAP1 DIV DUP1 PUSH4 0xD0E30DB0 GT PUSH2 0x68 JUMPI DUP1 PUSH4 0xD0E30DB0 EQ PUSH2 0x103 JUMPI DUP1 PUSH4 0xD4E93292 EQ PUSH2 0x10B JUMPI DUP1 PUSH4 0xDA6E75C2 EQ PUSH2 0x117 JUMPI DUP1 PUSH4 0xF2FDE38B EQ PUSH2 0x12C JUMPI STOP JUMPDEST DUP1 PUSH4 0x1581B600 EQ PUSH2 0x94 JUMPI DUP1 PUSH4 0x715018A6 EQ PUSH2 0xD0 JUMPI DUP1 PUSH4 0x8DA5CB5B EQ PUSH2 0xE5 JUMPI STOP JUMPDEST CALLDATASIZE PUSH2 0x92 JUMPI STOP JUMPDEST STOP JUMPDEST CALLVALUE DUP1 ISZERO PUSH2 0xA0 JUMPI PUSH1 0x0 DUP1 REVERT JUMPDEST POP PUSH1 0x1 SLOAD PUSH2 0xB4 SWAP1 PUSH1 0x1 PUSH1 0xA0 PUSH1 0x2 EXP SUB AND DUP2 JUMP JUMPDEST PUSH1 0x40 MLOAD PUSH1 0x1 PUSH1 0xA0 PUSH1 0x2 EXP SUB SWAP1 SWAP2 AND DUP2 MSTORE PUSH1 0x20 ADD PUSH1 0x40 MLOAD DUP1 SWAP2 SUB SWAP1 RETURN JUMPDEST CALLVALUE DUP1 ISZERO PUSH2 0xDC JUMPI PUSH1 0x0 DUP1 REVERT JUMPDEST POP PUSH2 0x92 PUSH2 0x14C JUMP JUMPDEST CALLVALUE DUP1 ISZERO PUSH2 0xF1 JUMPI PUSH1 0x0 DUP1 REVERT JUMPDEST POP PUSH1 0x2 SLOAD PUSH1 0x1 PUSH1 0xA0 PUSH1 0x2 EXP SUB AND PUSH2 0xB4 JUMP JUMPDEST PUSH2 0x92 PUSH2 0x160 JUMP JUMPDEST CALLVALUE DUP1 ISZERO PUSH2 0x92 JUMPI PUSH1 0x0 DUP1 REVERT JUMPDEST CALLVALUE DUP1 ISZERO PUSH2 0x123 JUMPI PUSH1 0x0 DUP1 REVERT JUMPDEST POP PUSH2 0x92 PUSH2 0x195 JUMP JUMPDEST CALLVALUE DUP1 ISZERO PUSH2 0x138 JUMPI PUSH1 0x0 DUP1 REVERT JUMPDEST POP PUSH2 0x92 PUSH2 0x147 CALLDATASIZE PUSH1 0x4 PUSH2 0x42B JUMP JUMPDEST PUSH2 0x2DC JUMP JUMPDEST PUSH2 0x154 PUSH2 0x36F JUMP JUMPDEST PUSH2 0x15E PUSH1 0x0 PUSH2 0x3CC JUMP JUMPDEST JUMP JUMPDEST PUSH1 0x40 MLOAD CALLVALUE DUP2 MSTORE PUSH32 0xA34E3D4F1E6B837DBCE1011B61499FA1A483A0ABEE6A7A6697660B4B2D97132 SWAP1 PUSH1 0x20 ADD PUSH1 0x40 MLOAD DUP1 SWAP2 SUB SWAP1 LOG1 JUMP JUMPDEST PUSH1 0x3 SLOAD ADDRESS BALANCE LT ISZERO PUSH2 0x1F0 JUMPI PUSH1 0x40 MLOAD PUSH1 0xE5 PUSH1 0x2 EXP PUSH3 0x461BCD MUL DUP2 MSTORE PUSH1 0x20 PUSH1 0x4 DUP3 ADD MSTORE PUSH1 0x14 PUSH1 0x24 DUP3 ADD MSTORE PUSH32 0x466F6E646F7320696E737566696369656E746573000000000000000000000000 PUSH1 0x44 DUP3 ADD MSTORE PUSH1 0x64 ADD JUMPDEST PUSH1 0x40 MLOAD DUP1 SWAP2 SUB SWAP1 REVERT JUMPDEST PUSH1 0x5 SLOAD PUSH1 0x3 SLOAD PUSH1 0x40 MLOAD PUSH1 0x0 SWAP3 PUSH1 0x1 PUSH1 0xA0 PUSH1 0x2 EXP SUB AND SWAP2 SWAP1 DUP4 DUP2 DUP2 DUP2 DUP6 DUP8 GAS CALL SWAP3 POP POP POP RETURNDATASIZE DUP1 PUSH1 0x0 DUP2 EQ PUSH2 0x23F JUMPI PUSH1 0x40 MLOAD SWAP2 POP PUSH1 0x1F NOT PUSH1 0x3F RETURNDATASIZE ADD AND DUP3 ADD PUSH1 0x40 MSTORE RETURNDATASIZE DUP3 MSTORE RETURNDATASIZE PUSH1 0x0 PUSH1 0x20 DUP5 ADD RETURNDATACOPY PUSH2 0x244 JUMP JUMPDEST PUSH1 0x60 SWAP2 POP JUMPDEST POP SWAP1 SWAP2 POP POP PUSH1 0x1 DUP2 ISZERO ISZERO EQ PUSH2 0x29E JUMPI PUSH1 0x40 MLOAD PUSH1 0xE5 PUSH1 0x2 EXP PUSH3 0x461BCD MUL DUP2 MSTORE PUSH1 0x20 PUSH1 0x4 DUP3 ADD MSTORE PUSH1 0x16 PUSH1 0x24 DUP3 ADD MSTORE PUSH32 0x46616C6C6F206C61207472616E73666572656E63696100000000000000000000 PUSH1 0x44 DUP3 ADD MSTORE PUSH1 0x64 ADD PUSH2 0x1E7 JUMP JUMPDEST PUSH32 0x56E1CF8A52E84572FF49B950FA9A1A1867319BF8EBA3BF8C77BC4354678A34C5 PUSH1 0x3 SLOAD PUSH1 0x40 MLOAD PUSH2 0x2D1 SWAP2 DUP2 MSTORE PUSH1 0x20 ADD SWAP1 JUMP JUMPDEST PUSH1 0x40 MLOAD DUP1 SWAP2 SUB SWAP1 LOG1 POP JUMP JUMPDEST PUSH2 0x2E4 PUSH2 0x36F JUMP JUMPDEST PUSH1 0x1 PUSH1 0xA0 PUSH1 0x2 EXP SUB DUP2 AND PUSH2 0x363 JUMPI PUSH1 0x40 MLOAD PUSH1 0xE5 PUSH1 0x2 EXP PUSH3 0x461BCD MUL DUP2 MSTORE PUSH1 0x20 PUSH1 0x4 DUP3 ADD MSTORE PUSH1 0x26 PUSH1 0x24 DUP3 ADD MSTORE PUSH32 0x4F776E61626C653A206E6577206F776E657220697320746865207A65726F2061 PUSH1 0x44 DUP3 ADD MSTORE PUSH32 0x6464726573730000000000000000000000000000000000000000000000000000 PUSH1 0x64 DUP3 ADD MSTORE PUSH1 0x84 ADD PUSH2 0x1E7 JUMP JUMPDEST PUSH2 0x36C DUP2 PUSH2 0x3CC JUMP JUMPDEST POP JUMP JUMPDEST PUSH1 0x2 SLOAD PUSH1 0x1 PUSH1 0xA0 PUSH1 0x2 EXP SUB AND CALLER EQ PUSH2 0x15E JUMPI PUSH1 0x40 MLOAD PUSH1 0xE5 PUSH1 0x2 EXP PUSH3 0x461BCD MUL DUP2 MSTORE PUSH1 0x20 PUSH1 0x4 DUP3 ADD DUP2 SWAP1 MSTORE PUSH1 0x24 DUP3 ADD MSTORE PUSH32 0x4F776E61626C653A2063616C6C6572206973206E6F7420746865206F776E6572 PUSH1 0x44 DUP3 ADD MSTORE PUSH1 0x64 ADD PUSH2 0x1E7 JUMP JUMPDEST PUSH1 0x2 DUP1 SLOAD PUSH1 0x1 PUSH1 0xA0 PUSH1 0x2 EXP SUB DUP4 DUP2 AND PUSH20 0xFFFFFFFFFFFFFFFFFFFFFFFFFFFFFFFFFFFFFFFF NOT DUP4 AND DUP2 OR SWAP1 SWAP4 SSTORE PUSH1 0x40 MLOAD SWAP2 AND SWAP2 SWAP1 DUP3 SWAP1 PUSH32 0x8BE0079C531659141344CD1FD0A4F28419497F9722A3DAAFE3B4186F6B6457E0 SWAP1 PUSH1 0x0 SWAP1 LOG3 POP POP JUMP JUMPDEST PUSH1 0x0 PUSH1 0x20 DUP3 DUP5 SUB SLT ISZERO PUSH2 0x43D JUMPI PUSH1 0x0 DUP1 REVERT JUMPDEST DUP2 CALLDATALOAD PUSH1 0x1 PUSH1 0xA0 PUSH1 0x2 EXP SUB DUP2 AND DUP2 EQ PUSH2 0x454 JUMPI PUSH1 0x0 DUP1 REVERT JUMPDEST SWAP4 SWAP3 POP POP POP JUMP INVALID LOG2 PUSH5 0x6970667358 0x22 SLT KECCAK256 CHAINID 0xAA 0x49 INVALID 0xEC 0xCC 0xAB 0xD6 SHL DUP16 MLOAD MOD 0xE DIV 0x24 0xA8 0xBB 0xB9 PUSH6 0xA8E254CD5B00 0xAF CODESIZE 0xA7 MUL 0xD2 SWAP10 0xD5 PUSH5 0x736F6C6343 STOP ADDMOD GT STOP CALLER "
				},
				"gasEstimates": {
					"creation": {
						"codeDepositCost": "233800",
						"executionCost": "infinite",
						"totalCost": "infinite"
					},
					"external": {
						"": "145",
						"deposit()": "1181",
						"owner()": "583",
						"payExpenses()": "infinite",
						"renounceOwnership()": "infinite",
						"transferOwnership(address)": "22688",
						"withdrawAddress()": "545",
						"withdrawal()": "150"
					}
				},
				"methodIdentifiers": {
					"deposit()": "d0e30db0",
					"owner()": "8da5cb5b",
					"payExpenses()": "da6e75c2",
					"renounceOwnership()": "715018a6",
					"transferOwnership(address)": "f2fde38b",
					"withdrawAddress()": "1581b600",
					"withdrawal()": "d4e93292"
				}
			},
			"storageLayout": {
				"storage": [
					{
						"astId": 138,
						"contract": "contracts/Tenant.sol:Tenant",
						"label": "name",
						"offset": 0,
						"slot": "0",
						"type": "t_string_storage"
					},
					{
						"astId": 140,
						"contract": "contracts/Tenant.sol:Tenant",
						"label": "withdrawAddress",
						"offset": 0,
						"slot": "1",
						"type": "t_address"
					},
					{
						"astId": 7,
						"contract": "contracts/Tenant.sol:Tenant",
						"label": "_owner",
						"offset": 0,
						"slot": "2",
						"type": "t_address"
					},
					{
						"astId": 171,
						"contract": "contracts/Tenant.sol:Tenant",
						"label": "servicePrice",
						"offset": 0,
						"slot": "3",
						"type": "t_uint256"
					},
					{
						"astId": 173,
						"contract": "contracts/Tenant.sol:Tenant",
						"label": "buildingAddress",
						"offset": 0,
						"slot": "4",
						"type": "t_string_storage"
					},
					{
						"astId": 175,
						"contract": "contracts/Tenant.sol:Tenant",
						"label": "consorcioAddress",
						"offset": 0,
						"slot": "5",
						"type": "t_address"
					}
				],
				"types": {
					"t_address": {
						"encoding": "inplace",
						"label": "address",
						"numberOfBytes": "20"
					},
					"t_string_storage": {
						"encoding": "bytes",
						"label": "string",
						"numberOfBytes": "32"
					},
					"t_uint256": {
						"encoding": "inplace",
						"label": "uint256",
						"numberOfBytes": "32"
					}
				}
			},
			"userdoc": {
				"kind": "user",
				"methods": {},
				"version": 1
			}
		}
	}
}