{
	"contracts/BaseUser.sol": {
		"BaseUser": {
			"abi": [
				{
					"inputs": [
						{
							"internalType": "string",
							"name": "newName",
							"type": "string"
						},
						{
							"internalType": "address",
							"name": "newAddress",
							"type": "address"
						}
					],
					"stateMutability": "nonpayable",
					"type": "constructor"
				},
				{
					"inputs": [],
					"name": "withdrawal",
					"outputs": [],
					"stateMutability": "nonpayable",
					"type": "function"
				}
			],
			"devdoc": {
				"kind": "dev",
				"methods": {},
				"version": 1
			},
			"evm": {
				"assembly": "    /* \"contracts/BaseUser.sol\":61:392  contract BaseUser {... */\n  mstore(0x40, 0x80)\n    /* \"contracts/BaseUser.sol\":154:281  constructor(string memory newName, address newAddress) {... */\n  callvalue\n  dup1\n  iszero\n  tag_1\n  jumpi\n  0x00\n  dup1\n  revert\ntag_1:\n  pop\n  mload(0x40)\n  sub(codesize, bytecodeSize)\n  dup1\n  bytecodeSize\n  dup4\n  codecopy\n  dup2\n  add\n  0x40\n  dup2\n  swap1\n  mstore\n  tag_2\n  swap2\n  tag_3\n  jump\t// in\ntag_2:\n    /* \"contracts/BaseUser.sol\":220:224  name */\n  0x00\n    /* \"contracts/BaseUser.sol\":220:234  name = newName */\n  tag_6\n    /* \"contracts/BaseUser.sol\":227:234  newName */\n  dup4\n    /* \"contracts/BaseUser.sol\":220:224  name */\n  dup3\n    /* \"contracts/BaseUser.sol\":220:234  name = newName */\n  tag_7\n  jump\t// in\ntag_6:\n  pop\n    /* \"contracts/BaseUser.sol\":245:260  withdrawAddress */\n  0x01\n    /* \"contracts/BaseUser.sol\":245:273  withdrawAddress = newAddress */\n  dup1\n  sload\n  not(sub(exp(0x02, 0xa0), 0x01))\n  and\n  sub(exp(0x02, 0xa0), 0x01)\n  swap3\n  swap1\n  swap3\n  and\n  swap2\n  swap1\n  swap2\n  or\n  swap1\n  sstore\n  pop\n    /* \"contracts/BaseUser.sol\":61:392  contract BaseUser {... */\n  jump(tag_15)\n    /* \"#utility.yul\":14:198   */\ntag_9:\n    /* \"#utility.yul\":66:143   */\n  0x4e487b7100000000000000000000000000000000000000000000000000000000\n    /* \"#utility.yul\":63:64   */\n  0x00\n    /* \"#utility.yul\":56:144   */\n  mstore\n    /* \"#utility.yul\":163:167   */\n  0x41\n    /* \"#utility.yul\":160:161   */\n  0x04\n    /* \"#utility.yul\":153:168   */\n  mstore\n    /* \"#utility.yul\":187:191   */\n  0x24\n    /* \"#utility.yul\":184:185   */\n  0x00\n    /* \"#utility.yul\":177:192   */\n  revert\n    /* \"#utility.yul\":203:380   */\ntag_10:\n    /* \"#utility.yul\":282:295   */\n  dup1\n  mload\n  sub(exp(0x02, 0xa0), 0x01)\n    /* \"#utility.yul\":324:355   */\n  dup2\n  and\n    /* \"#utility.yul\":314:356   */\n  dup2\n  eq\n    /* \"#utility.yul\":304:374   */\n  tag_18\n  jumpi\n    /* \"#utility.yul\":370:371   */\n  0x00\n    /* \"#utility.yul\":367:368   */\n  dup1\n    /* \"#utility.yul\":360:372   */\n  revert\n    /* \"#utility.yul\":304:374   */\ntag_18:\n    /* \"#utility.yul\":203:380   */\n  swap2\n  swap1\n  pop\n  jump\t// out\n    /* \"#utility.yul\":385:1514   */\ntag_3:\n    /* \"#utility.yul\":474:480   */\n  0x00\n    /* \"#utility.yul\":482:488   */\n  dup1\n    /* \"#utility.yul\":535:537   */\n  0x40\n    /* \"#utility.yul\":523:532   */\n  dup4\n    /* \"#utility.yul\":514:521   */\n  dup6\n    /* \"#utility.yul\":510:533   */\n  sub\n    /* \"#utility.yul\":506:538   */\n  slt\n    /* \"#utility.yul\":503:555   */\n  iszero\n  tag_20\n  jumpi\n    /* \"#utility.yul\":551:552   */\n  0x00\n    /* \"#utility.yul\":548:549   */\n  dup1\n    /* \"#utility.yul\":541:553   */\n  revert\n    /* \"#utility.yul\":503:555   */\ntag_20:\n    /* \"#utility.yul\":584:593   */\n  dup3\n    /* \"#utility.yul\":578:594   */\n  mload\n  sub(exp(0x02, 0x40), 0x01)\n    /* \"#utility.yul\":654:656   */\n  dup1\n    /* \"#utility.yul\":646:652   */\n  dup3\n    /* \"#utility.yul\":643:657   */\n  gt\n    /* \"#utility.yul\":640:674   */\n  iszero\n  tag_21\n  jumpi\n    /* \"#utility.yul\":670:671   */\n  0x00\n    /* \"#utility.yul\":667:668   */\n  dup1\n    /* \"#utility.yul\":660:672   */\n  revert\n    /* \"#utility.yul\":640:674   */\ntag_21:\n    /* \"#utility.yul\":708:714   */\n  dup2\n    /* \"#utility.yul\":697:706   */\n  dup6\n    /* \"#utility.yul\":693:715   */\n  add\n    /* \"#utility.yul\":683:715   */\n  swap2\n  pop\n    /* \"#utility.yul\":753:760   */\n  dup6\n    /* \"#utility.yul\":746:750   */\n  0x1f\n    /* \"#utility.yul\":742:744   */\n  dup4\n    /* \"#utility.yul\":738:751   */\n  add\n    /* \"#utility.yul\":734:761   */\n  slt\n    /* \"#utility.yul\":724:779   */\n  tag_22\n  jumpi\n    /* \"#utility.yul\":775:776   */\n  0x00\n    /* \"#utility.yul\":772:773   */\n  dup1\n    /* \"#utility.yul\":765:777   */\n  revert\n    /* \"#utility.yul\":724:779   */\ntag_22:\n    /* \"#utility.yul\":804:806   */\n  dup2\n    /* \"#utility.yul\":798:807   */\n  mload\n    /* \"#utility.yul\":826:828   */\n  dup2\n    /* \"#utility.yul\":822:824   */\n  dup2\n    /* \"#utility.yul\":819:829   */\n  gt\n    /* \"#utility.yul\":816:852   */\n  iszero\n  tag_24\n  jumpi\n    /* \"#utility.yul\":832:850   */\n  tag_24\n  tag_9\n  jump\t// in\ntag_24:\n    /* \"#utility.yul\":907:909   */\n  0x40\n    /* \"#utility.yul\":901:910   */\n  mload\n    /* \"#utility.yul\":875:877   */\n  0x1f\n    /* \"#utility.yul\":961:974   */\n  dup3\n  add\n  not(0x1f)\n    /* \"#utility.yul\":957:979   */\n  swap1\n  dup2\n  and\n    /* \"#utility.yul\":981:983   */\n  0x3f\n    /* \"#utility.yul\":953:984   */\n  add\n    /* \"#utility.yul\":949:989   */\n  and\n    /* \"#utility.yul\":937:990   */\n  dup2\n  add\n  swap1\n    /* \"#utility.yul\":1005:1023   */\n  dup4\n  dup3\n  gt\n    /* \"#utility.yul\":1025:1047   */\n  dup2\n  dup4\n  lt\n    /* \"#utility.yul\":1002:1048   */\n  or\n    /* \"#utility.yul\":999:1071   */\n  iszero\n  tag_26\n  jumpi\n    /* \"#utility.yul\":1051:1069   */\n  tag_26\n  tag_9\n  jump\t// in\ntag_26:\n    /* \"#utility.yul\":1091:1101   */\n  dup2\n    /* \"#utility.yul\":1087:1089   */\n  0x40\n    /* \"#utility.yul\":1080:1102   */\n  mstore\n    /* \"#utility.yul\":1126:1128   */\n  dup3\n    /* \"#utility.yul\":1118:1124   */\n  dup2\n    /* \"#utility.yul\":1111:1129   */\n  mstore\n    /* \"#utility.yul\":1148:1152   */\n  0x20\n    /* \"#utility.yul\":1138:1152   */\n  swap4\n  pop\n    /* \"#utility.yul\":1189:1196   */\n  dup9\n    /* \"#utility.yul\":1184:1186   */\n  dup5\n    /* \"#utility.yul\":1179:1181   */\n  dup5\n    /* \"#utility.yul\":1175:1177   */\n  dup8\n    /* \"#utility.yul\":1171:1182   */\n  add\n    /* \"#utility.yul\":1167:1187   */\n  add\n    /* \"#utility.yul\":1164:1197   */\n  gt\n    /* \"#utility.yul\":1161:1214   */\n  iszero\n  tag_27\n  jumpi\n    /* \"#utility.yul\":1210:1211   */\n  0x00\n    /* \"#utility.yul\":1207:1208   */\n  dup1\n    /* \"#utility.yul\":1200:1212   */\n  revert\n    /* \"#utility.yul\":1161:1214   */\ntag_27:\n    /* \"#utility.yul\":1232:1233   */\n  0x00\n    /* \"#utility.yul\":1223:1233   */\n  swap2\n  pop\n    /* \"#utility.yul\":1242:1371   */\ntag_28:\n    /* \"#utility.yul\":1256:1258   */\n  dup3\n    /* \"#utility.yul\":1253:1254   */\n  dup3\n    /* \"#utility.yul\":1250:1259   */\n  lt\n    /* \"#utility.yul\":1242:1371   */\n  iszero\n  tag_30\n  jumpi\n    /* \"#utility.yul\":1344:1354   */\n  dup5\n  dup3\n  add\n    /* \"#utility.yul\":1340:1359   */\n  dup5\n  add\n    /* \"#utility.yul\":1334:1360   */\n  mload\n    /* \"#utility.yul\":1313:1327   */\n  dup2\n  dup4\n  add\n    /* \"#utility.yul\":1309:1332   */\n  dup6\n  add\n    /* \"#utility.yul\":1302:1361   */\n  mstore\n    /* \"#utility.yul\":1267:1277   */\n  swap1\n  dup4\n  add\n  swap1\n    /* \"#utility.yul\":1242:1371   */\n  jump(tag_28)\ntag_30:\n    /* \"#utility.yul\":1413:1414   */\n  0x00\n    /* \"#utility.yul\":1408:1410   */\n  dup5\n    /* \"#utility.yul\":1403:1405   */\n  dup5\n    /* \"#utility.yul\":1395:1401   */\n  dup4\n    /* \"#utility.yul\":1391:1406   */\n  add\n    /* \"#utility.yul\":1387:1411   */\n  add\n    /* \"#utility.yul\":1380:1415   */\n  mstore\n    /* \"#utility.yul\":1434:1440   */\n  dup1\n    /* \"#utility.yul\":1424:1440   */\n  swap7\n  pop\n  pop\n  pop\n  pop\n    /* \"#utility.yul\":1459:1508   */\n  tag_31\n    /* \"#utility.yul\":1504:1506   */\n  dup2\n    /* \"#utility.yul\":1493:1502   */\n  dup7\n    /* \"#utility.yul\":1489:1507   */\n  add\n    /* \"#utility.yul\":1459:1508   */\n  tag_10\n  jump\t// in\ntag_31:\n    /* \"#utility.yul\":1449:1508   */\n  swap3\n  pop\n  pop\n  pop\n    /* \"#utility.yul\":385:1514   */\n  swap3\n  pop\n  swap3\n  swap1\n  pop\n  jump\t// out\n    /* \"#utility.yul\":1519:1956   */\ntag_11:\n    /* \"#utility.yul\":1604:1605   */\n  0x02\n    /* \"#utility.yul\":1594:1606   */\n  dup2\n  div\n    /* \"#utility.yul\":1651:1652   */\n  0x01\n    /* \"#utility.yul\":1641:1653   */\n  dup3\n  and\n  dup1\n    /* \"#utility.yul\":1662:1723   */\n  tag_33\n  jumpi\n    /* \"#utility.yul\":1716:1720   */\n  0x7f\n    /* \"#utility.yul\":1708:1714   */\n  dup3\n    /* \"#utility.yul\":1704:1721   */\n  and\n    /* \"#utility.yul\":1694:1721   */\n  swap2\n  pop\n    /* \"#utility.yul\":1662:1723   */\ntag_33:\n    /* \"#utility.yul\":1769:1771   */\n  0x20\n    /* \"#utility.yul\":1761:1767   */\n  dup3\n    /* \"#utility.yul\":1758:1772   */\n  lt\n    /* \"#utility.yul\":1738:1756   */\n  dup2\n    /* \"#utility.yul\":1735:1773   */\n  sub\n    /* \"#utility.yul\":1732:1950   */\n  tag_34\n  jumpi\n    /* \"#utility.yul\":1806:1883   */\n  0x4e487b7100000000000000000000000000000000000000000000000000000000\n    /* \"#utility.yul\":1803:1804   */\n  0x00\n    /* \"#utility.yul\":1796:1884   */\n  mstore\n    /* \"#utility.yul\":1907:1911   */\n  0x22\n    /* \"#utility.yul\":1904:1905   */\n  0x04\n    /* \"#utility.yul\":1897:1912   */\n  mstore\n    /* \"#utility.yul\":1935:1939   */\n  0x24\n    /* \"#utility.yul\":1932:1933   */\n  0x00\n    /* \"#utility.yul\":1925:1940   */\n  revert\n    /* \"#utility.yul\":1732:1950   */\ntag_34:\n  pop\n    /* \"#utility.yul\":1519:1956   */\n  swap2\n  swap1\n  pop\n  jump\t// out\n    /* \"#utility.yul\":2087:2638   */\ntag_13:\n    /* \"#utility.yul\":2189:2191   */\n  0x1f\n    /* \"#utility.yul\":2184:2187   */\n  dup3\n    /* \"#utility.yul\":2181:2192   */\n  gt\n    /* \"#utility.yul\":2178:2632   */\n  iszero\n  tag_37\n  jumpi\n    /* \"#utility.yul\":2225:2226   */\n  0x00\n    /* \"#utility.yul\":2250:2255   */\n  dup2\n    /* \"#utility.yul\":2246:2248   */\n  dup2\n    /* \"#utility.yul\":2239:2256   */\n  mstore\n    /* \"#utility.yul\":2295:2299   */\n  0x20\n    /* \"#utility.yul\":2291:2293   */\n  dup2\n    /* \"#utility.yul\":2281:2300   */\n  keccak256\n    /* \"#utility.yul\":2367:2371   */\n  0x20\n    /* \"#utility.yul\":2362:2364   */\n  0x1f\n    /* \"#utility.yul\":2350:2360   */\n  dup7\n    /* \"#utility.yul\":2346:2365   */\n  add\n    /* \"#utility.yul\":2342:2372   */\n  div\n    /* \"#utility.yul\":2336:2340   */\n  dup2\n    /* \"#utility.yul\":2332:2373   */\n  add\n    /* \"#utility.yul\":2404:2408   */\n  0x20\n    /* \"#utility.yul\":2392:2402   */\n  dup7\n    /* \"#utility.yul\":2389:2409   */\n  lt\n    /* \"#utility.yul\":2386:2433   */\n  iszero\n  tag_38\n  jumpi\n  pop\n    /* \"#utility.yul\":2427:2431   */\n  dup1\n    /* \"#utility.yul\":2386:2433   */\ntag_38:\n    /* \"#utility.yul\":2484:2488   */\n  0x20\n    /* \"#utility.yul\":2479:2481   */\n  0x1f\n    /* \"#utility.yul\":2474:2477   */\n  dup7\n    /* \"#utility.yul\":2470:2482   */\n  add\n    /* \"#utility.yul\":2466:2489   */\n  div\n    /* \"#utility.yul\":2460:2464   */\n  dup3\n    /* \"#utility.yul\":2456:2490   */\n  add\n    /* \"#utility.yul\":2446:2490   */\n  swap2\n  pop\n    /* \"#utility.yul\":2540:2622   */\ntag_39:\n    /* \"#utility.yul\":2558:2560   */\n  dup2\n    /* \"#utility.yul\":2551:2556   */\n  dup2\n    /* \"#utility.yul\":2548:2561   */\n  lt\n    /* \"#utility.yul\":2540:2622   */\n  iszero\n  tag_41\n  jumpi\n    /* \"#utility.yul\":2603:2620   */\n  dup3\n  dup2\n  sstore\n    /* \"#utility.yul\":2584:2585   */\n  0x01\n    /* \"#utility.yul\":2573:2586   */\n  add\n    /* \"#utility.yul\":2540:2622   */\n  jump(tag_39)\ntag_41:\n    /* \"#utility.yul\":2544:2547   */\n  pop\n  pop\n  pop\n    /* \"#utility.yul\":2178:2632   */\ntag_37:\n    /* \"#utility.yul\":2087:2638   */\n  pop\n  pop\n  pop\n  jump\t// out\n    /* \"#utility.yul\":2822:4181   */\ntag_7:\n    /* \"#utility.yul\":2948:2951   */\n  dup2\n    /* \"#utility.yul\":2942:2952   */\n  mload\n  sub(exp(0x02, 0x40), 0x01)\n    /* \"#utility.yul\":2967:2973   */\n  dup2\n    /* \"#utility.yul\":2964:2994   */\n  gt\n    /* \"#utility.yul\":2961:3017   */\n  iszero\n  tag_45\n  jumpi\n    /* \"#utility.yul\":2997:3015   */\n  tag_45\n  tag_9\n  jump\t// in\ntag_45:\n    /* \"#utility.yul\":3026:3123   */\n  tag_46\n    /* \"#utility.yul\":3116:3122   */\n  dup2\n    /* \"#utility.yul\":3076:3114   */\n  tag_47\n    /* \"#utility.yul\":3108:3112   */\n  dup5\n    /* \"#utility.yul\":3102:3113   */\n  sload\n    /* \"#utility.yul\":3076:3114   */\n  tag_11\n  jump\t// in\ntag_47:\n    /* \"#utility.yul\":3070:3074   */\n  dup5\n    /* \"#utility.yul\":3026:3123   */\n  tag_13\n  jump\t// in\ntag_46:\n    /* \"#utility.yul\":3178:3182   */\n  0x20\n  dup1\n    /* \"#utility.yul\":3242:3244   */\n  0x1f\n    /* \"#utility.yul\":3231:3245   */\n  dup4\n  gt\n    /* \"#utility.yul\":3259:3260   */\n  0x01\n    /* \"#utility.yul\":3254:3924   */\n  dup2\n  eq\n  tag_49\n  jumpi\n    /* \"#utility.yul\":3968:3969   */\n  0x00\n    /* \"#utility.yul\":3985:3991   */\n  dup5\n    /* \"#utility.yul\":3982:4071   */\n  iszero\n  tag_50\n  jumpi\n  pop\n    /* \"#utility.yul\":4037:4056   */\n  dup6\n  dup4\n  add\n    /* \"#utility.yul\":4031:4057   */\n  mload\n    /* \"#utility.yul\":3982:4071   */\ntag_50:\n    /* \"#utility.yul\":2803:2804   */\n  0x02\n    /* \"#utility.yul\":2799:2810   */\n  dup1\n  dup7\n  mul\n    /* \"#utility.yul\":2786:2787   */\n  0x08\n    /* \"#utility.yul\":2782:2793   */\n  dup8\n  mul\n    /* \"#utility.yul\":2775:2794   */\n  swap1\n  swap2\n  exp\n  not(0x00)\n    /* \"#utility.yul\":2763:2795   */\n  div\n    /* \"#utility.yul\":2759:2796   */\n  not\n    /* \"#utility.yul\":2749:2797   */\n  dup3\n  and\n    /* \"#utility.yul\":2746:2811   */\n  or\n    /* \"#utility.yul\":4091:4095   */\n  dup7\n    /* \"#utility.yul\":4084:4165   */\n  sstore\n  pop\n    /* \"#utility.yul\":3224:4175   */\n  jump(tag_41)\n    /* \"#utility.yul\":3254:3924   */\ntag_49:\n    /* \"#utility.yul\":2034:2035   */\n  0x00\n    /* \"#utility.yul\":2027:2041   */\n  dup6\n  dup2\n  mstore\n    /* \"#utility.yul\":2071:2075   */\n  0x20\n    /* \"#utility.yul\":2058:2076   */\n  dup2\n  keccak256\n  not(0x1f)\n    /* \"#utility.yul\":3290:3310   */\n  dup7\n  and\n  swap2\n    /* \"#utility.yul\":3408:3644   */\ntag_53:\n    /* \"#utility.yul\":3422:3429   */\n  dup3\n    /* \"#utility.yul\":3419:3420   */\n  dup2\n    /* \"#utility.yul\":3416:3430   */\n  lt\n    /* \"#utility.yul\":3408:3644   */\n  iszero\n  tag_55\n  jumpi\n    /* \"#utility.yul\":3511:3530   */\n  dup9\n  dup7\n  add\n    /* \"#utility.yul\":3505:3531   */\n  mload\n    /* \"#utility.yul\":3490:3532   */\n  dup3\n  sstore\n    /* \"#utility.yul\":3603:3630   */\n  swap5\n  dup5\n  add\n  swap5\n    /* \"#utility.yul\":3571:3572   */\n  0x01\n    /* \"#utility.yul\":3559:3573   */\n  swap1\n  swap2\n  add\n  swap1\n    /* \"#utility.yul\":3438:3457   */\n  dup5\n  add\n    /* \"#utility.yul\":3408:3644   */\n  jump(tag_53)\ntag_55:\n    /* \"#utility.yul\":3412:3415   */\n  pop\n    /* \"#utility.yul\":3672:3678   */\n  dup6\n    /* \"#utility.yul\":3663:3670   */\n  dup3\n    /* \"#utility.yul\":3660:3679   */\n  lt\n    /* \"#utility.yul\":3657:3865   */\n  iszero\n  tag_56\n  jumpi\n    /* \"#utility.yul\":3733:3752   */\n  dup8\n  dup6\n  add\n    /* \"#utility.yul\":3727:3753   */\n  mload\n    /* \"#utility.yul\":3827:3828   */\n  0x08\n    /* \"#utility.yul\":3842:3844   */\n  0x1f\n    /* \"#utility.yul\":3830:3845   */\n  dup9\n  and\n    /* \"#utility.yul\":3823:3846   */\n  mul\n    /* \"#utility.yul\":3820:3821   */\n  0x02\n    /* \"#utility.yul\":3816:3847   */\n  exp\n  not(0x00)\n    /* \"#utility.yul\":3804:3848   */\n  div\n    /* \"#utility.yul\":3800:3849   */\n  not\n    /* \"#utility.yul\":3785:3850   */\n  and\n    /* \"#utility.yul\":3770:3851   */\n  dup2\n  sstore\n    /* \"#utility.yul\":3657:3865   */\ntag_56:\n  pop\n  pop\n  pop\n  pop\n  pop\n    /* \"#utility.yul\":3907:3908   */\n  0x02\n    /* \"#utility.yul\":3895:3909   */\n  mul\n    /* \"#utility.yul\":3911:3912   */\n  0x01\n    /* \"#utility.yul\":3891:3913   */\n  add\n    /* \"#utility.yul\":3878:3914   */\n  swap1\n  sstore\n  pop\n    /* \"#utility.yul\":2822:4181   */\n  jump\t// out\ntag_15:\n    /* \"contracts/BaseUser.sol\":61:392  contract BaseUser {... */\n  dataSize(sub_0)\n  dup1\n  dataOffset(sub_0)\n  0x00\n  codecopy\n  0x00\n  return\nstop\n\nsub_0: assembly {\n        /* \"contracts/BaseUser.sol\":61:392  contract BaseUser {... */\n      mstore(0x40, 0x80)\n      callvalue\n      dup1\n      iszero\n      tag_1\n      jumpi\n      0x00\n      dup1\n      revert\n    tag_1:\n      pop\n      jumpi(tag_2, lt(calldatasize, 0x04))\n      div(calldataload(0x00), 0x0100000000000000000000000000000000000000000000000000000000)\n      0xd4e93292\n      dup2\n      eq\n      tag_3\n      jumpi\n    tag_2:\n      0x00\n      dup1\n      revert\n        /* \"contracts/BaseUser.sol\":289:389  function withdrawal() public {... */\n    tag_3:\n      stop\n\n    auxdata: 0xa26469706673582212200a0da44792e59ee90930fcf0c50f55a9657c494a35b5872bdc9d7d2e1523787064736f6c63430008110033\n}\n",
				"bytecode": {
					"linkReferences": {},
					"object": "608060405234801561001057600080fd5b5060405161037d38038061037d83398101604081905261002f916100ad565b600061003b8382610229565b5060018054600160a060020a031916600160a060020a0392909216919091179055506102ee565b7f4e487b7100000000000000000000000000000000000000000000000000000000600052604160045260246000fd5b8051600160a060020a03811681146100a857600080fd5b919050565b600080604083850312156100c057600080fd5b82516001604060020a03808211156100d757600080fd5b818501915085601f8301126100eb57600080fd5b8151818111156100fd576100fd610062565b604051601f8201601f19908116603f0116810190838211818310171561012557610125610062565b8160405282815260209350888484870101111561014157600080fd5b600091505b828210156101635784820184015181830185015290830190610146565b600084848301015280965050505061017c818601610091565b925050509250929050565b60028104600182168061019b57607f821691505b6020821081036101d4577f4e487b7100000000000000000000000000000000000000000000000000000000600052602260045260246000fd5b50919050565b601f821115610224576000818152602081206020601f860104810160208610156102015750805b6020601f860104820191505b818110156102205782815560010161020d565b5050505b505050565b81516001604060020a0381111561024257610242610062565b610256816102508454610187565b846101da565b602080601f83116001811461028f57600084156102735750858301515b60028086026008870290910a6000190419821617865550610220565b600085815260208120601f198616915b828110156102be5788860151825594840194600190910190840161029f565b50858210156102de57878501516008601f88160260020a60001904191681555b5050505050600202600101905550565b6081806102fc6000396000f3fe6080604052348015600f57600080fd5b50600436106044577c01000000000000000000000000000000000000000000000000000000006000350463d4e9329281146049575b600080fd5b00fea26469706673582212200a0da44792e59ee90930fcf0c50f55a9657c494a35b5872bdc9d7d2e1523787064736f6c63430008110033",
					"opcodes": "PUSH1 0x80 PUSH1 0x40 MSTORE CALLVALUE DUP1 ISZERO PUSH2 0x10 JUMPI PUSH1 0x0 DUP1 REVERT JUMPDEST POP PUSH1 0x40 MLOAD PUSH2 0x37D CODESIZE SUB DUP1 PUSH2 0x37D DUP4 CODECOPY DUP2 ADD PUSH1 0x40 DUP2 SWAP1 MSTORE PUSH2 0x2F SWAP2 PUSH2 0xAD JUMP JUMPDEST PUSH1 0x0 PUSH2 0x3B DUP4 DUP3 PUSH2 0x229 JUMP JUMPDEST POP PUSH1 0x1 DUP1 SLOAD PUSH1 0x1 PUSH1 0xA0 PUSH1 0x2 EXP SUB NOT AND PUSH1 0x1 PUSH1 0xA0 PUSH1 0x2 EXP SUB SWAP3 SWAP1 SWAP3 AND SWAP2 SWAP1 SWAP2 OR SWAP1 SSTORE POP PUSH2 0x2EE JUMP JUMPDEST PUSH32 0x4E487B7100000000000000000000000000000000000000000000000000000000 PUSH1 0x0 MSTORE PUSH1 0x41 PUSH1 0x4 MSTORE PUSH1 0x24 PUSH1 0x0 REVERT JUMPDEST DUP1 MLOAD PUSH1 0x1 PUSH1 0xA0 PUSH1 0x2 EXP SUB DUP2 AND DUP2 EQ PUSH2 0xA8 JUMPI PUSH1 0x0 DUP1 REVERT JUMPDEST SWAP2 SWAP1 POP JUMP JUMPDEST PUSH1 0x0 DUP1 PUSH1 0x40 DUP4 DUP6 SUB SLT ISZERO PUSH2 0xC0 JUMPI PUSH1 0x0 DUP1 REVERT JUMPDEST DUP3 MLOAD PUSH1 0x1 PUSH1 0x40 PUSH1 0x2 EXP SUB DUP1 DUP3 GT ISZERO PUSH2 0xD7 JUMPI PUSH1 0x0 DUP1 REVERT JUMPDEST DUP2 DUP6 ADD SWAP2 POP DUP6 PUSH1 0x1F DUP4 ADD SLT PUSH2 0xEB JUMPI PUSH1 0x0 DUP1 REVERT JUMPDEST DUP2 MLOAD DUP2 DUP2 GT ISZERO PUSH2 0xFD JUMPI PUSH2 0xFD PUSH2 0x62 JUMP JUMPDEST PUSH1 0x40 MLOAD PUSH1 0x1F DUP3 ADD PUSH1 0x1F NOT SWAP1 DUP2 AND PUSH1 0x3F ADD AND DUP2 ADD SWAP1 DUP4 DUP3 GT DUP2 DUP4 LT OR ISZERO PUSH2 0x125 JUMPI PUSH2 0x125 PUSH2 0x62 JUMP JUMPDEST DUP2 PUSH1 0x40 MSTORE DUP3 DUP2 MSTORE PUSH1 0x20 SWAP4 POP DUP9 DUP5 DUP5 DUP8 ADD ADD GT ISZERO PUSH2 0x141 JUMPI PUSH1 0x0 DUP1 REVERT JUMPDEST PUSH1 0x0 SWAP2 POP JUMPDEST DUP3 DUP3 LT ISZERO PUSH2 0x163 JUMPI DUP5 DUP3 ADD DUP5 ADD MLOAD DUP2 DUP4 ADD DUP6 ADD MSTORE SWAP1 DUP4 ADD SWAP1 PUSH2 0x146 JUMP JUMPDEST PUSH1 0x0 DUP5 DUP5 DUP4 ADD ADD MSTORE DUP1 SWAP7 POP POP POP POP PUSH2 0x17C DUP2 DUP7 ADD PUSH2 0x91 JUMP JUMPDEST SWAP3 POP POP POP SWAP3 POP SWAP3 SWAP1 POP JUMP JUMPDEST PUSH1 0x2 DUP2 DIV PUSH1 0x1 DUP3 AND DUP1 PUSH2 0x19B JUMPI PUSH1 0x7F DUP3 AND SWAP2 POP JUMPDEST PUSH1 0x20 DUP3 LT DUP2 SUB PUSH2 0x1D4 JUMPI PUSH32 0x4E487B7100000000000000000000000000000000000000000000000000000000 PUSH1 0x0 MSTORE PUSH1 0x22 PUSH1 0x4 MSTORE PUSH1 0x24 PUSH1 0x0 REVERT JUMPDEST POP SWAP2 SWAP1 POP JUMP JUMPDEST PUSH1 0x1F DUP3 GT ISZERO PUSH2 0x224 JUMPI PUSH1 0x0 DUP2 DUP2 MSTORE PUSH1 0x20 DUP2 KECCAK256 PUSH1 0x20 PUSH1 0x1F DUP7 ADD DIV DUP2 ADD PUSH1 0x20 DUP7 LT ISZERO PUSH2 0x201 JUMPI POP DUP1 JUMPDEST PUSH1 0x20 PUSH1 0x1F DUP7 ADD DIV DUP3 ADD SWAP2 POP JUMPDEST DUP2 DUP2 LT ISZERO PUSH2 0x220 JUMPI DUP3 DUP2 SSTORE PUSH1 0x1 ADD PUSH2 0x20D JUMP JUMPDEST POP POP POP JUMPDEST POP POP POP JUMP JUMPDEST DUP2 MLOAD PUSH1 0x1 PUSH1 0x40 PUSH1 0x2 EXP SUB DUP2 GT ISZERO PUSH2 0x242 JUMPI PUSH2 0x242 PUSH2 0x62 JUMP JUMPDEST PUSH2 0x256 DUP2 PUSH2 0x250 DUP5 SLOAD PUSH2 0x187 JUMP JUMPDEST DUP5 PUSH2 0x1DA JUMP JUMPDEST PUSH1 0x20 DUP1 PUSH1 0x1F DUP4 GT PUSH1 0x1 DUP2 EQ PUSH2 0x28F JUMPI PUSH1 0x0 DUP5 ISZERO PUSH2 0x273 JUMPI POP DUP6 DUP4 ADD MLOAD JUMPDEST PUSH1 0x2 DUP1 DUP7 MUL PUSH1 0x8 DUP8 MUL SWAP1 SWAP2 EXP PUSH1 0x0 NOT DIV NOT DUP3 AND OR DUP7 SSTORE POP PUSH2 0x220 JUMP JUMPDEST PUSH1 0x0 DUP6 DUP2 MSTORE PUSH1 0x20 DUP2 KECCAK256 PUSH1 0x1F NOT DUP7 AND SWAP2 JUMPDEST DUP3 DUP2 LT ISZERO PUSH2 0x2BE JUMPI DUP9 DUP7 ADD MLOAD DUP3 SSTORE SWAP5 DUP5 ADD SWAP5 PUSH1 0x1 SWAP1 SWAP2 ADD SWAP1 DUP5 ADD PUSH2 0x29F JUMP JUMPDEST POP DUP6 DUP3 LT ISZERO PUSH2 0x2DE JUMPI DUP8 DUP6 ADD MLOAD PUSH1 0x8 PUSH1 0x1F DUP9 AND MUL PUSH1 0x2 EXP PUSH1 0x0 NOT DIV NOT AND DUP2 SSTORE JUMPDEST POP POP POP POP POP PUSH1 0x2 MUL PUSH1 0x1 ADD SWAP1 SSTORE POP JUMP JUMPDEST PUSH1 0x81 DUP1 PUSH2 0x2FC PUSH1 0x0 CODECOPY PUSH1 0x0 RETURN INVALID PUSH1 0x80 PUSH1 0x40 MSTORE CALLVALUE DUP1 ISZERO PUSH1 0xF JUMPI PUSH1 0x0 DUP1 REVERT JUMPDEST POP PUSH1 0x4 CALLDATASIZE LT PUSH1 0x44 JUMPI PUSH29 0x100000000000000000000000000000000000000000000000000000000 PUSH1 0x0 CALLDATALOAD DIV PUSH4 0xD4E93292 DUP2 EQ PUSH1 0x49 JUMPI JUMPDEST PUSH1 0x0 DUP1 REVERT JUMPDEST STOP INVALID LOG2 PUSH5 0x6970667358 0x22 SLT KECCAK256 EXP 0xD LOG4 SELFBALANCE SWAP3 0xE5 SWAP15 0xE9 MULMOD ADDRESS 0xFC CREATE 0xC5 0xF SSTORE 0xA9 PUSH6 0x7C494A35B587 0x2B 0xDC SWAP14 PUSH30 0x2E1523787064736F6C634300081100330000000000000000000000000000 "
				},
				"gasEstimates": {
					"creation": {
						"codeDepositCost": "25800",
						"executionCost": "infinite",
						"totalCost": "infinite"
					},
					"external": {
						"withdrawal()": "100"
					}
				},
				"methodIdentifiers": {
					"withdrawal()": "d4e93292"
				}
			},
			"storageLayout": {
				"storage": [
					{
						"astId": 3,
						"contract": "contracts/BaseUser.sol:BaseUser",
						"label": "name",
						"offset": 0,
						"slot": "0",
						"type": "t_string_storage"
					},
					{
						"astId": 5,
						"contract": "contracts/BaseUser.sol:BaseUser",
						"label": "withdrawAddress",
						"offset": 0,
						"slot": "1",
						"type": "t_address"
					}
				],
				"types": {
					"t_address": {
						"encoding": "inplace",
						"label": "address",
						"numberOfBytes": "20"
					},
					"t_string_storage": {
						"encoding": "bytes",
						"label": "string",
						"numberOfBytes": "32"
					}
				}
			},
			"userdoc": {
				"kind": "user",
				"methods": {},
				"version": 1
			}
		}
	}
}