{
	"contracts/Tenant.sol": {
		"Tenant": {
			"abi": [
				{
					"inputs": [
						{
							"internalType": "string",
							"name": "name",
							"type": "string"
						},
						{
							"internalType": "address",
							"name": "newWithdraAddress",
							"type": "address"
						},
						{
							"internalType": "uint256",
							"name": "price",
							"type": "uint256"
						},
						{
							"internalType": "string",
							"name": "newBuildingAdd",
							"type": "string"
						},
						{
							"internalType": "address",
							"name": "newConsorcioAdd",
							"type": "address"
						}
					],
					"stateMutability": "payable",
					"type": "constructor"
				},
				{
					"anonymous": false,
					"inputs": [
						{
							"indexed": false,
							"internalType": "uint256",
							"name": "amount",
							"type": "uint256"
						}
					],
					"name": "EtherReceived",
					"type": "event"
				},
				{
					"anonymous": false,
					"inputs": [
						{
							"indexed": false,
							"internalType": "uint256",
							"name": "pricePaid",
							"type": "uint256"
						}
					],
					"name": "ExpensesPaid",
					"type": "event"
				},
				{
					"stateMutability": "payable",
					"type": "fallback"
				},
				{
					"inputs": [],
					"name": "deposit",
					"outputs": [],
					"stateMutability": "payable",
					"type": "function"
				},
				{
					"inputs": [],
					"name": "payExpenses",
					"outputs": [],
					"stateMutability": "nonpayable",
					"type": "function"
				},
				{
					"inputs": [],
					"name": "withdrawal",
					"outputs": [],
					"stateMutability": "nonpayable",
					"type": "function"
				},
				{
					"stateMutability": "payable",
					"type": "receive"
				}
			],
			"devdoc": {
				"kind": "dev",
				"methods": {},
				"version": 1
			},
			"evm": {
				"assembly": "    /* \"contracts/Tenant.sol\":89:1171  contract Tenant is BaseUser {... */\n  mstore(0x40, 0x80)\n    /* \"contracts/Tenant.sol\":391:752  constructor (... */\n  mload(0x40)\n  sub(codesize, bytecodeSize)\n  dup1\n  bytecodeSize\n  dup4\n  codecopy\n  dup2\n  add\n  0x40\n  dup2\n  swap1\n  mstore\n  tag_1\n  swap2\n  tag_2\n  jump\t// in\ntag_1:\n    /* \"contracts/Tenant.sol\":589:593  name */\n  dup5\n    /* \"contracts/Tenant.sol\":595:612  newWithdraAddress */\n  dup5\n    /* \"contracts/BaseUser.sol\":220:224  name */\n  0x00\n    /* \"contracts/BaseUser.sol\":220:234  name = newName */\n  tag_6\n    /* \"contracts/Tenant.sol\":589:593  name */\n  dup4\n    /* \"contracts/BaseUser.sol\":220:224  name */\n  dup3\n    /* \"contracts/BaseUser.sol\":220:234  name = newName */\n  tag_7\n  jump\t// in\ntag_6:\n  pop\n    /* \"contracts/BaseUser.sol\":245:260  withdrawAddress */\n  0x01\n    /* \"contracts/BaseUser.sol\":245:273  withdrawAddress = newAddress */\n  dup1\n  sload\n  not(sub(exp(0x02, 0xa0), 0x01))\n  and\n  sub(exp(0x02, 0xa0), 0x01)\n  swap3\n  swap1\n  swap3\n  and\n  swap2\n  swap1\n  swap2\n  or\n  swap1\n  sstore\n  pop\n    /* \"contracts/Tenant.sol\":636:648  servicePrice */\n  0x02\n    /* \"contracts/Tenant.sol\":636:656  servicePrice = price */\n  dup4\n  swap1\n  sstore\n    /* \"contracts/Tenant.sol\":667:682  buildingAddress */\n  0x03\n    /* \"contracts/Tenant.sol\":667:699  buildingAddress = newBuildingAdd */\n  tag_9\n    /* \"contracts/Tenant.sol\":685:699  newBuildingAdd */\n  dup4\n    /* \"contracts/Tenant.sol\":667:682  buildingAddress */\n  dup3\n    /* \"contracts/Tenant.sol\":667:699  buildingAddress = newBuildingAdd */\n  tag_7\n  jump\t// in\ntag_9:\n  pop\n    /* \"contracts/Tenant.sol\":710:726  consorcioAddress */\n  0x04\n    /* \"contracts/Tenant.sol\":710:744  consorcioAddress = newConsorcioAdd */\n  dup1\n  sload\n  not(sub(exp(0x02, 0xa0), 0x01))\n  and\n  sub(exp(0x02, 0xa0), 0x01)\n  swap3\n  swap1\n  swap3\n  and\n  swap2\n  swap1\n  swap2\n  or\n  swap1\n  sstore\n  pop\n    /* \"contracts/Tenant.sol\":89:1171  contract Tenant is BaseUser {... */\n  tag_18\n  swap3\n  pop\n  pop\n  pop\n  jump\n    /* \"#utility.yul\":14:198   */\ntag_11:\n    /* \"#utility.yul\":66:143   */\n  0x4e487b7100000000000000000000000000000000000000000000000000000000\n    /* \"#utility.yul\":63:64   */\n  0x00\n    /* \"#utility.yul\":56:144   */\n  mstore\n    /* \"#utility.yul\":163:167   */\n  0x41\n    /* \"#utility.yul\":160:161   */\n  0x04\n    /* \"#utility.yul\":153:168   */\n  mstore\n    /* \"#utility.yul\":187:191   */\n  0x24\n    /* \"#utility.yul\":184:185   */\n  0x00\n    /* \"#utility.yul\":177:192   */\n  revert\n    /* \"#utility.yul\":203:1043   */\ntag_12:\n    /* \"#utility.yul\":257:262   */\n  0x00\n    /* \"#utility.yul\":310:313   */\n  dup3\n    /* \"#utility.yul\":303:307   */\n  0x1f\n    /* \"#utility.yul\":295:301   */\n  dup4\n    /* \"#utility.yul\":291:308   */\n  add\n    /* \"#utility.yul\":287:314   */\n  slt\n    /* \"#utility.yul\":277:332   */\n  tag_21\n  jumpi\n    /* \"#utility.yul\":328:329   */\n  0x00\n    /* \"#utility.yul\":325:326   */\n  dup1\n    /* \"#utility.yul\":318:330   */\n  revert\n    /* \"#utility.yul\":277:332   */\ntag_21:\n    /* \"#utility.yul\":357:363   */\n  dup2\n    /* \"#utility.yul\":351:364   */\n  mload\n  sub(exp(0x02, 0x40), 0x01)\n    /* \"#utility.yul\":420:422   */\n  dup1\n    /* \"#utility.yul\":416:418   */\n  dup3\n    /* \"#utility.yul\":413:423   */\n  gt\n    /* \"#utility.yul\":410:446   */\n  iszero\n  tag_23\n  jumpi\n    /* \"#utility.yul\":426:444   */\n  tag_23\n  tag_11\n  jump\t// in\ntag_23:\n    /* \"#utility.yul\":501:503   */\n  0x40\n    /* \"#utility.yul\":495:504   */\n  mload\n    /* \"#utility.yul\":469:471   */\n  0x1f\n    /* \"#utility.yul\":555:568   */\n  dup4\n  add\n  not(0x1f)\n    /* \"#utility.yul\":551:573   */\n  swap1\n  dup2\n  and\n    /* \"#utility.yul\":575:577   */\n  0x3f\n    /* \"#utility.yul\":547:578   */\n  add\n    /* \"#utility.yul\":543:583   */\n  and\n    /* \"#utility.yul\":531:584   */\n  dup2\n  add\n  swap1\n    /* \"#utility.yul\":599:617   */\n  dup3\n  dup3\n  gt\n    /* \"#utility.yul\":619:641   */\n  dup2\n  dup4\n  lt\n    /* \"#utility.yul\":596:642   */\n  or\n    /* \"#utility.yul\":593:665   */\n  iszero\n  tag_25\n  jumpi\n    /* \"#utility.yul\":645:663   */\n  tag_25\n  tag_11\n  jump\t// in\ntag_25:\n    /* \"#utility.yul\":685:695   */\n  dup2\n    /* \"#utility.yul\":681:683   */\n  0x40\n    /* \"#utility.yul\":674:696   */\n  mstore\n    /* \"#utility.yul\":720:722   */\n  dup4\n    /* \"#utility.yul\":712:718   */\n  dup2\n    /* \"#utility.yul\":705:723   */\n  mstore\n    /* \"#utility.yul\":742:746   */\n  0x20\n    /* \"#utility.yul\":732:746   */\n  swap3\n  pop\n    /* \"#utility.yul\":787:790   */\n  dup7\n    /* \"#utility.yul\":782:784   */\n  dup4\n    /* \"#utility.yul\":777:779   */\n  dup6\n    /* \"#utility.yul\":769:775   */\n  dup9\n    /* \"#utility.yul\":765:780   */\n  add\n    /* \"#utility.yul\":761:785   */\n  add\n    /* \"#utility.yul\":758:791   */\n  gt\n    /* \"#utility.yul\":755:808   */\n  iszero\n  tag_26\n  jumpi\n    /* \"#utility.yul\":804:805   */\n  0x00\n    /* \"#utility.yul\":801:802   */\n  dup1\n    /* \"#utility.yul\":794:806   */\n  revert\n    /* \"#utility.yul\":755:808   */\ntag_26:\n    /* \"#utility.yul\":826:827   */\n  0x00\n    /* \"#utility.yul\":817:827   */\n  swap2\n  pop\n    /* \"#utility.yul\":836:969   */\ntag_27:\n    /* \"#utility.yul\":850:852   */\n  dup4\n    /* \"#utility.yul\":847:848   */\n  dup3\n    /* \"#utility.yul\":844:853   */\n  lt\n    /* \"#utility.yul\":836:969   */\n  iszero\n  tag_29\n  jumpi\n    /* \"#utility.yul\":938:952   */\n  dup6\n  dup3\n  add\n    /* \"#utility.yul\":934:957   */\n  dup4\n  add\n    /* \"#utility.yul\":928:958   */\n  mload\n    /* \"#utility.yul\":907:921   */\n  dup2\n  dup4\n  add\n    /* \"#utility.yul\":903:926   */\n  dup5\n  add\n    /* \"#utility.yul\":896:959   */\n  mstore\n    /* \"#utility.yul\":861:871   */\n  swap1\n  dup3\n  add\n  swap1\n    /* \"#utility.yul\":836:969   */\n  jump(tag_27)\ntag_29:\n    /* \"#utility.yul\":1011:1012   */\n  0x00\n    /* \"#utility.yul\":989:1004   */\n  swap4\n  dup2\n  add\n    /* \"#utility.yul\":985:1009   */\n  swap1\n  swap3\n  add\n    /* \"#utility.yul\":978:1013   */\n  swap3\n  swap1\n  swap3\n  mstore\n    /* \"#utility.yul\":993:999   */\n  swap5\n    /* \"#utility.yul\":203:1043   */\n  swap4\n  pop\n  pop\n  pop\n  pop\n  jump\t// out\n    /* \"#utility.yul\":1048:1225   */\ntag_13:\n    /* \"#utility.yul\":1127:1140   */\n  dup1\n  mload\n  sub(exp(0x02, 0xa0), 0x01)\n    /* \"#utility.yul\":1169:1200   */\n  dup2\n  and\n    /* \"#utility.yul\":1159:1201   */\n  dup2\n  eq\n    /* \"#utility.yul\":1149:1219   */\n  tag_31\n  jumpi\n    /* \"#utility.yul\":1215:1216   */\n  0x00\n    /* \"#utility.yul\":1212:1213   */\n  dup1\n    /* \"#utility.yul\":1205:1217   */\n  revert\n    /* \"#utility.yul\":1149:1219   */\ntag_31:\n    /* \"#utility.yul\":1048:1225   */\n  swap2\n  swap1\n  pop\n  jump\t// out\n    /* \"#utility.yul\":1230:2025   */\ntag_2:\n    /* \"#utility.yul\":1356:1362   */\n  0x00\n    /* \"#utility.yul\":1364:1370   */\n  dup1\n    /* \"#utility.yul\":1372:1378   */\n  0x00\n    /* \"#utility.yul\":1380:1386   */\n  dup1\n    /* \"#utility.yul\":1388:1394   */\n  0x00\n    /* \"#utility.yul\":1441:1444   */\n  0xa0\n    /* \"#utility.yul\":1429:1438   */\n  dup7\n    /* \"#utility.yul\":1420:1427   */\n  dup9\n    /* \"#utility.yul\":1416:1439   */\n  sub\n    /* \"#utility.yul\":1412:1445   */\n  slt\n    /* \"#utility.yul\":1409:1462   */\n  iszero\n  tag_33\n  jumpi\n    /* \"#utility.yul\":1458:1459   */\n  0x00\n    /* \"#utility.yul\":1455:1456   */\n  dup1\n    /* \"#utility.yul\":1448:1460   */\n  revert\n    /* \"#utility.yul\":1409:1462   */\ntag_33:\n    /* \"#utility.yul\":1491:1500   */\n  dup6\n    /* \"#utility.yul\":1485:1501   */\n  mload\n  sub(exp(0x02, 0x40), 0x01)\n    /* \"#utility.yul\":1561:1563   */\n  dup1\n    /* \"#utility.yul\":1553:1559   */\n  dup3\n    /* \"#utility.yul\":1550:1564   */\n  gt\n    /* \"#utility.yul\":1547:1581   */\n  iszero\n  tag_34\n  jumpi\n    /* \"#utility.yul\":1577:1578   */\n  0x00\n    /* \"#utility.yul\":1574:1575   */\n  dup1\n    /* \"#utility.yul\":1567:1579   */\n  revert\n    /* \"#utility.yul\":1547:1581   */\ntag_34:\n    /* \"#utility.yul\":1600:1661   */\n  tag_35\n    /* \"#utility.yul\":1653:1660   */\n  dup10\n    /* \"#utility.yul\":1644:1650   */\n  dup4\n    /* \"#utility.yul\":1633:1642   */\n  dup11\n    /* \"#utility.yul\":1629:1651   */\n  add\n    /* \"#utility.yul\":1600:1661   */\n  tag_12\n  jump\t// in\ntag_35:\n    /* \"#utility.yul\":1590:1661   */\n  swap7\n  pop\n    /* \"#utility.yul\":1680:1729   */\n  tag_36\n    /* \"#utility.yul\":1725:1727   */\n  0x20\n    /* \"#utility.yul\":1714:1723   */\n  dup10\n    /* \"#utility.yul\":1710:1728   */\n  add\n    /* \"#utility.yul\":1680:1729   */\n  tag_13\n  jump\t// in\ntag_36:\n    /* \"#utility.yul\":1670:1729   */\n  swap6\n  pop\n    /* \"#utility.yul\":1769:1771   */\n  0x40\n    /* \"#utility.yul\":1758:1767   */\n  dup9\n    /* \"#utility.yul\":1754:1772   */\n  add\n    /* \"#utility.yul\":1748:1773   */\n  mload\n    /* \"#utility.yul\":1738:1773   */\n  swap5\n  pop\n    /* \"#utility.yul\":1819:1821   */\n  0x60\n    /* \"#utility.yul\":1808:1817   */\n  dup9\n    /* \"#utility.yul\":1804:1822   */\n  add\n    /* \"#utility.yul\":1798:1823   */\n  mload\n    /* \"#utility.yul\":1782:1823   */\n  swap2\n  pop\n    /* \"#utility.yul\":1848:1850   */\n  dup1\n    /* \"#utility.yul\":1838:1846   */\n  dup3\n    /* \"#utility.yul\":1835:1851   */\n  gt\n    /* \"#utility.yul\":1832:1868   */\n  iszero\n  tag_37\n  jumpi\n    /* \"#utility.yul\":1864:1865   */\n  0x00\n    /* \"#utility.yul\":1861:1862   */\n  dup1\n    /* \"#utility.yul\":1854:1866   */\n  revert\n    /* \"#utility.yul\":1832:1868   */\ntag_37:\n  pop\n    /* \"#utility.yul\":1887:1950   */\n  tag_38\n    /* \"#utility.yul\":1942:1949   */\n  dup9\n    /* \"#utility.yul\":1931:1939   */\n  dup3\n    /* \"#utility.yul\":1920:1929   */\n  dup10\n    /* \"#utility.yul\":1916:1940   */\n  add\n    /* \"#utility.yul\":1887:1950   */\n  tag_12\n  jump\t// in\ntag_38:\n    /* \"#utility.yul\":1877:1950   */\n  swap3\n  pop\n  pop\n    /* \"#utility.yul\":1969:2019   */\n  tag_39\n    /* \"#utility.yul\":2014:2017   */\n  0x80\n    /* \"#utility.yul\":2003:2012   */\n  dup8\n    /* \"#utility.yul\":1999:2018   */\n  add\n    /* \"#utility.yul\":1969:2019   */\n  tag_13\n  jump\t// in\ntag_39:\n    /* \"#utility.yul\":1959:2019   */\n  swap1\n  pop\n    /* \"#utility.yul\":1230:2025   */\n  swap3\n  swap6\n  pop\n  swap3\n  swap6\n  swap1\n  swap4\n  pop\n  jump\t// out\n    /* \"#utility.yul\":2030:2467   */\ntag_14:\n    /* \"#utility.yul\":2115:2116   */\n  0x02\n    /* \"#utility.yul\":2105:2117   */\n  dup2\n  div\n    /* \"#utility.yul\":2162:2163   */\n  0x01\n    /* \"#utility.yul\":2152:2164   */\n  dup3\n  and\n  dup1\n    /* \"#utility.yul\":2173:2234   */\n  tag_41\n  jumpi\n    /* \"#utility.yul\":2227:2231   */\n  0x7f\n    /* \"#utility.yul\":2219:2225   */\n  dup3\n    /* \"#utility.yul\":2215:2232   */\n  and\n    /* \"#utility.yul\":2205:2232   */\n  swap2\n  pop\n    /* \"#utility.yul\":2173:2234   */\ntag_41:\n    /* \"#utility.yul\":2280:2282   */\n  0x20\n    /* \"#utility.yul\":2272:2278   */\n  dup3\n    /* \"#utility.yul\":2269:2283   */\n  lt\n    /* \"#utility.yul\":2249:2267   */\n  dup2\n    /* \"#utility.yul\":2246:2284   */\n  sub\n    /* \"#utility.yul\":2243:2461   */\n  tag_42\n  jumpi\n    /* \"#utility.yul\":2317:2394   */\n  0x4e487b7100000000000000000000000000000000000000000000000000000000\n    /* \"#utility.yul\":2314:2315   */\n  0x00\n    /* \"#utility.yul\":2307:2395   */\n  mstore\n    /* \"#utility.yul\":2418:2422   */\n  0x22\n    /* \"#utility.yul\":2415:2416   */\n  0x04\n    /* \"#utility.yul\":2408:2423   */\n  mstore\n    /* \"#utility.yul\":2446:2450   */\n  0x24\n    /* \"#utility.yul\":2443:2444   */\n  0x00\n    /* \"#utility.yul\":2436:2451   */\n  revert\n    /* \"#utility.yul\":2243:2461   */\ntag_42:\n  pop\n    /* \"#utility.yul\":2030:2467   */\n  swap2\n  swap1\n  pop\n  jump\t// out\n    /* \"#utility.yul\":2598:3149   */\ntag_16:\n    /* \"#utility.yul\":2700:2702   */\n  0x1f\n    /* \"#utility.yul\":2695:2698   */\n  dup3\n    /* \"#utility.yul\":2692:2703   */\n  gt\n    /* \"#utility.yul\":2689:3143   */\n  iszero\n  tag_45\n  jumpi\n    /* \"#utility.yul\":2736:2737   */\n  0x00\n    /* \"#utility.yul\":2761:2766   */\n  dup2\n    /* \"#utility.yul\":2757:2759   */\n  dup2\n    /* \"#utility.yul\":2750:2767   */\n  mstore\n    /* \"#utility.yul\":2806:2810   */\n  0x20\n    /* \"#utility.yul\":2802:2804   */\n  dup2\n    /* \"#utility.yul\":2792:2811   */\n  keccak256\n    /* \"#utility.yul\":2878:2882   */\n  0x20\n    /* \"#utility.yul\":2873:2875   */\n  0x1f\n    /* \"#utility.yul\":2861:2871   */\n  dup7\n    /* \"#utility.yul\":2857:2876   */\n  add\n    /* \"#utility.yul\":2853:2883   */\n  div\n    /* \"#utility.yul\":2847:2851   */\n  dup2\n    /* \"#utility.yul\":2843:2884   */\n  add\n    /* \"#utility.yul\":2915:2919   */\n  0x20\n    /* \"#utility.yul\":2903:2913   */\n  dup7\n    /* \"#utility.yul\":2900:2920   */\n  lt\n    /* \"#utility.yul\":2897:2944   */\n  iszero\n  tag_46\n  jumpi\n  pop\n    /* \"#utility.yul\":2938:2942   */\n  dup1\n    /* \"#utility.yul\":2897:2944   */\ntag_46:\n    /* \"#utility.yul\":2995:2999   */\n  0x20\n    /* \"#utility.yul\":2990:2992   */\n  0x1f\n    /* \"#utility.yul\":2985:2988   */\n  dup7\n    /* \"#utility.yul\":2981:2993   */\n  add\n    /* \"#utility.yul\":2977:3000   */\n  div\n    /* \"#utility.yul\":2971:2975   */\n  dup3\n    /* \"#utility.yul\":2967:3001   */\n  add\n    /* \"#utility.yul\":2957:3001   */\n  swap2\n  pop\n    /* \"#utility.yul\":3051:3133   */\ntag_47:\n    /* \"#utility.yul\":3069:3071   */\n  dup2\n    /* \"#utility.yul\":3062:3067   */\n  dup2\n    /* \"#utility.yul\":3059:3072   */\n  lt\n    /* \"#utility.yul\":3051:3133   */\n  iszero\n  tag_49\n  jumpi\n    /* \"#utility.yul\":3114:3131   */\n  dup3\n  dup2\n  sstore\n    /* \"#utility.yul\":3095:3096   */\n  0x01\n    /* \"#utility.yul\":3084:3097   */\n  add\n    /* \"#utility.yul\":3051:3133   */\n  jump(tag_47)\ntag_49:\n    /* \"#utility.yul\":3055:3058   */\n  pop\n  pop\n  pop\n    /* \"#utility.yul\":2689:3143   */\ntag_45:\n    /* \"#utility.yul\":2598:3149   */\n  pop\n  pop\n  pop\n  jump\t// out\n    /* \"#utility.yul\":3333:4692   */\ntag_7:\n    /* \"#utility.yul\":3459:3462   */\n  dup2\n    /* \"#utility.yul\":3453:3463   */\n  mload\n  sub(exp(0x02, 0x40), 0x01)\n    /* \"#utility.yul\":3478:3484   */\n  dup2\n    /* \"#utility.yul\":3475:3505   */\n  gt\n    /* \"#utility.yul\":3472:3528   */\n  iszero\n  tag_53\n  jumpi\n    /* \"#utility.yul\":3508:3526   */\n  tag_53\n  tag_11\n  jump\t// in\ntag_53:\n    /* \"#utility.yul\":3537:3634   */\n  tag_54\n    /* \"#utility.yul\":3627:3633   */\n  dup2\n    /* \"#utility.yul\":3587:3625   */\n  tag_55\n    /* \"#utility.yul\":3619:3623   */\n  dup5\n    /* \"#utility.yul\":3613:3624   */\n  sload\n    /* \"#utility.yul\":3587:3625   */\n  tag_14\n  jump\t// in\ntag_55:\n    /* \"#utility.yul\":3581:3585   */\n  dup5\n    /* \"#utility.yul\":3537:3634   */\n  tag_16\n  jump\t// in\ntag_54:\n    /* \"#utility.yul\":3689:3693   */\n  0x20\n  dup1\n    /* \"#utility.yul\":3753:3755   */\n  0x1f\n    /* \"#utility.yul\":3742:3756   */\n  dup4\n  gt\n    /* \"#utility.yul\":3770:3771   */\n  0x01\n    /* \"#utility.yul\":3765:4435   */\n  dup2\n  eq\n  tag_57\n  jumpi\n    /* \"#utility.yul\":4479:4480   */\n  0x00\n    /* \"#utility.yul\":4496:4502   */\n  dup5\n    /* \"#utility.yul\":4493:4582   */\n  iszero\n  tag_58\n  jumpi\n  pop\n    /* \"#utility.yul\":4548:4567   */\n  dup6\n  dup4\n  add\n    /* \"#utility.yul\":4542:4568   */\n  mload\n    /* \"#utility.yul\":4493:4582   */\ntag_58:\n    /* \"#utility.yul\":3314:3315   */\n  0x02\n    /* \"#utility.yul\":3310:3321   */\n  dup1\n  dup7\n  mul\n    /* \"#utility.yul\":3297:3298   */\n  0x08\n    /* \"#utility.yul\":3293:3304   */\n  dup8\n  mul\n    /* \"#utility.yul\":3286:3305   */\n  swap1\n  swap2\n  exp\n  not(0x00)\n    /* \"#utility.yul\":3274:3306   */\n  div\n    /* \"#utility.yul\":3270:3307   */\n  not\n    /* \"#utility.yul\":3260:3308   */\n  dup3\n  and\n    /* \"#utility.yul\":3257:3322   */\n  or\n    /* \"#utility.yul\":4602:4606   */\n  dup7\n    /* \"#utility.yul\":4595:4676   */\n  sstore\n  pop\n    /* \"#utility.yul\":3735:4686   */\n  jump(tag_49)\n    /* \"#utility.yul\":3765:4435   */\ntag_57:\n    /* \"#utility.yul\":2545:2546   */\n  0x00\n    /* \"#utility.yul\":2538:2552   */\n  dup6\n  dup2\n  mstore\n    /* \"#utility.yul\":2582:2586   */\n  0x20\n    /* \"#utility.yul\":2569:2587   */\n  dup2\n  keccak256\n  not(0x1f)\n    /* \"#utility.yul\":3801:3821   */\n  dup7\n  and\n  swap2\n    /* \"#utility.yul\":3919:4155   */\ntag_61:\n    /* \"#utility.yul\":3933:3940   */\n  dup3\n    /* \"#utility.yul\":3930:3931   */\n  dup2\n    /* \"#utility.yul\":3927:3941   */\n  lt\n    /* \"#utility.yul\":3919:4155   */\n  iszero\n  tag_63\n  jumpi\n    /* \"#utility.yul\":4022:4041   */\n  dup9\n  dup7\n  add\n    /* \"#utility.yul\":4016:4042   */\n  mload\n    /* \"#utility.yul\":4001:4043   */\n  dup3\n  sstore\n    /* \"#utility.yul\":4114:4141   */\n  swap5\n  dup5\n  add\n  swap5\n    /* \"#utility.yul\":4082:4083   */\n  0x01\n    /* \"#utility.yul\":4070:4084   */\n  swap1\n  swap2\n  add\n  swap1\n    /* \"#utility.yul\":3949:3968   */\n  dup5\n  add\n    /* \"#utility.yul\":3919:4155   */\n  jump(tag_61)\ntag_63:\n    /* \"#utility.yul\":3923:3926   */\n  pop\n    /* \"#utility.yul\":4183:4189   */\n  dup6\n    /* \"#utility.yul\":4174:4181   */\n  dup3\n    /* \"#utility.yul\":4171:4190   */\n  lt\n    /* \"#utility.yul\":4168:4376   */\n  iszero\n  tag_64\n  jumpi\n    /* \"#utility.yul\":4244:4263   */\n  dup8\n  dup6\n  add\n    /* \"#utility.yul\":4238:4264   */\n  mload\n    /* \"#utility.yul\":4338:4339   */\n  0x08\n    /* \"#utility.yul\":4353:4355   */\n  0x1f\n    /* \"#utility.yul\":4341:4356   */\n  dup9\n  and\n    /* \"#utility.yul\":4334:4357   */\n  mul\n    /* \"#utility.yul\":4331:4332   */\n  0x02\n    /* \"#utility.yul\":4327:4358   */\n  exp\n  not(0x00)\n    /* \"#utility.yul\":4315:4359   */\n  div\n    /* \"#utility.yul\":4311:4360   */\n  not\n    /* \"#utility.yul\":4296:4361   */\n  and\n    /* \"#utility.yul\":4281:4362   */\n  dup2\n  sstore\n    /* \"#utility.yul\":4168:4376   */\ntag_64:\n  pop\n  pop\n  pop\n  pop\n  pop\n    /* \"#utility.yul\":4418:4419   */\n  0x02\n    /* \"#utility.yul\":4406:4420   */\n  mul\n    /* \"#utility.yul\":4422:4423   */\n  0x01\n    /* \"#utility.yul\":4402:4424   */\n  add\n    /* \"#utility.yul\":4389:4425   */\n  swap1\n  sstore\n  pop\n    /* \"#utility.yul\":3333:4692   */\n  jump\t// out\ntag_18:\n    /* \"contracts/Tenant.sol\":89:1171  contract Tenant is BaseUser {... */\n  dataSize(sub_0)\n  dup1\n  dataOffset(sub_0)\n  0x00\n  codecopy\n  0x00\n  return\nstop\n\nsub_0: assembly {\n        /* \"contracts/Tenant.sol\":89:1171  contract Tenant is BaseUser {... */\n      mstore(0x40, 0x80)\n      jumpi(tag_1, lt(calldatasize, 0x04))\n      div(calldataload(0x00), 0x0100000000000000000000000000000000000000000000000000000000)\n      0xd0e30db0\n      dup2\n      eq\n      tag_3\n      jumpi\n      dup1\n      0xd4e93292\n      eq\n      tag_4\n      jumpi\n      dup1\n      0xda6e75c2\n      eq\n      tag_5\n      jumpi\n      stop\n    tag_1:\n      jumpi(tag_2, calldatasize)\n      stop\n    tag_2:\n      stop\n        /* \"contracts/Tenant.sol\":760:842  function deposit() public payable {... */\n    tag_3:\n      tag_2\n      tag_11\n      jump\t// in\n        /* \"contracts/BaseUser.sol\":289:389  function withdrawal() public {... */\n    tag_4:\n      callvalue\n      dup1\n      iszero\n      tag_2\n      jumpi\n      0x00\n      dup1\n      revert\n        /* \"contracts/Tenant.sol\":850:1166  function payExpenses() public {... */\n    tag_5:\n      callvalue\n      dup1\n      iszero\n      tag_15\n      jumpi\n      0x00\n      dup1\n      revert\n    tag_15:\n      pop\n      tag_2\n      tag_17\n      jump\t// in\n        /* \"contracts/Tenant.sol\":760:842  function deposit() public payable {... */\n    tag_11:\n        /* \"contracts/Tenant.sol\":810:834  EtherReceived(msg.value) */\n      mload(0x40)\n        /* \"contracts/Tenant.sol\":824:833  msg.value */\n      callvalue\n        /* \"#utility.yul\":160:185   */\n      dup2\n      mstore\n        /* \"contracts/Tenant.sol\":810:834  EtherReceived(msg.value) */\n      0x0a34e3d4f1e6b837dbce1011b61499fa1a483a0abee6a7a6697660b4b2d97132\n      swap1\n        /* \"#utility.yul\":148:150   */\n      0x20\n        /* \"#utility.yul\":133:151   */\n      add\n        /* \"contracts/Tenant.sol\":810:834  EtherReceived(msg.value) */\n      mload(0x40)\n      dup1\n      swap2\n      sub\n      swap1\n      log1\n        /* \"contracts/Tenant.sol\":760:842  function deposit() public payable {... */\n      jump\t// out\n        /* \"contracts/Tenant.sol\":850:1166  function payExpenses() public {... */\n    tag_17:\n        /* \"contracts/Tenant.sol\":924:936  servicePrice */\n      sload(0x02)\n        /* \"contracts/Tenant.sol\":907:911  this */\n      address\n        /* \"contracts/Tenant.sol\":899:920  address(this).balance */\n      balance\n        /* \"contracts/Tenant.sol\":899:936  address(this).balance >= servicePrice */\n      lt\n      iszero\n        /* \"contracts/Tenant.sol\":891:961  require(address(this).balance >= servicePrice, \"Fondos insuficientes\") */\n      tag_23\n      jumpi\n      mload(0x40)\n      0x08c379a000000000000000000000000000000000000000000000000000000000\n      dup2\n      mstore\n        /* \"#utility.yul\":398:400   */\n      0x20\n        /* \"contracts/Tenant.sol\":891:961  require(address(this).balance >= servicePrice, \"Fondos insuficientes\") */\n      0x04\n      dup3\n      add\n        /* \"#utility.yul\":380:401   */\n      mstore\n        /* \"#utility.yul\":437:439   */\n      0x14\n        /* \"#utility.yul\":417:435   */\n      0x24\n      dup3\n      add\n        /* \"#utility.yul\":410:440   */\n      mstore\n        /* \"#utility.yul\":476:498   */\n      0x466f6e646f7320696e737566696369656e746573000000000000000000000000\n        /* \"#utility.yul\":456:474   */\n      0x44\n      dup3\n      add\n        /* \"#utility.yul\":449:499   */\n      mstore\n        /* \"#utility.yul\":516:534   */\n      0x64\n      add\n        /* \"contracts/Tenant.sol\":891:961  require(address(this).balance >= servicePrice, \"Fondos insuficientes\") */\n    tag_24:\n      mload(0x40)\n      dup1\n      swap2\n      sub\n      swap1\n      revert\n    tag_23:\n        /* \"contracts/Tenant.sol\":987:1003  consorcioAddress */\n      sload(0x04)\n        /* \"contracts/Tenant.sol\":1031:1043  servicePrice */\n      sload(0x02)\n        /* \"contracts/Tenant.sol\":987:1058  consorcioAddress.call {... */\n      mload(0x40)\n        /* \"contracts/Tenant.sol\":973:982  bool sent */\n      0x00\n      swap3\n        /* \"contracts/Tenant.sol\":987:1003  consorcioAddress */\n      0xffffffffffffffffffffffffffffffffffffffff\n      and\n      swap2\n        /* \"contracts/Tenant.sol\":1031:1043  servicePrice */\n      swap1\n        /* \"contracts/Tenant.sol\":973:982  bool sent */\n      dup4\n        /* \"contracts/Tenant.sol\":987:1058  consorcioAddress.call {... */\n      dup2\n        /* \"contracts/Tenant.sol\":973:982  bool sent */\n      dup2\n        /* \"contracts/Tenant.sol\":987:1058  consorcioAddress.call {... */\n      dup2\n        /* \"contracts/Tenant.sol\":1031:1043  servicePrice */\n      dup6\n        /* \"contracts/Tenant.sol\":987:1003  consorcioAddress */\n      dup8\n        /* \"contracts/Tenant.sol\":987:1058  consorcioAddress.call {... */\n      gas\n      call\n      swap3\n      pop\n      pop\n      pop\n      returndatasize\n      dup1\n      0x00\n      dup2\n      eq\n      tag_30\n      jumpi\n      mload(0x40)\n      swap2\n      pop\n      and(add(returndatasize, 0x3f), not(0x1f))\n      dup3\n      add\n      0x40\n      mstore\n      returndatasize\n      dup3\n      mstore\n      returndatasize\n      0x00\n      0x20\n      dup5\n      add\n      returndatacopy\n      jump(tag_29)\n    tag_30:\n      0x60\n      swap2\n      pop\n    tag_29:\n      pop\n        /* \"contracts/Tenant.sol\":972:1058  (bool sent,) = consorcioAddress.call {... */\n      swap1\n      swap2\n      pop\n      pop\n        /* \"contracts/Tenant.sol\":1085:1089  true */\n      0x01\n        /* \"contracts/Tenant.sol\":1077:1089  sent == true */\n      dup2\n      iszero\n      iszero\n      eq\n        /* \"contracts/Tenant.sol\":1069:1116  require(sent == true, \"Fallo la transferencia\") */\n      tag_31\n      jumpi\n      mload(0x40)\n      0x08c379a000000000000000000000000000000000000000000000000000000000\n      dup2\n      mstore\n        /* \"#utility.yul\":957:959   */\n      0x20\n        /* \"contracts/Tenant.sol\":1069:1116  require(sent == true, \"Fallo la transferencia\") */\n      0x04\n      dup3\n      add\n        /* \"#utility.yul\":939:960   */\n      mstore\n        /* \"#utility.yul\":996:998   */\n      0x16\n        /* \"#utility.yul\":976:994   */\n      0x24\n      dup3\n      add\n        /* \"#utility.yul\":969:999   */\n      mstore\n        /* \"#utility.yul\":1035:1059   */\n      0x46616c6c6f206c61207472616e73666572656e63696100000000000000000000\n        /* \"#utility.yul\":1015:1033   */\n      0x44\n      dup3\n      add\n        /* \"#utility.yul\":1008:1060   */\n      mstore\n        /* \"#utility.yul\":1077:1095   */\n      0x64\n      add\n        /* \"contracts/Tenant.sol\":1069:1116  require(sent == true, \"Fallo la transferencia\") */\n      tag_24\n        /* \"#utility.yul\":755:1101   */\n      jump\n        /* \"contracts/Tenant.sol\":1069:1116  require(sent == true, \"Fallo la transferencia\") */\n    tag_31:\n        /* \"contracts/Tenant.sol\":1132:1158  ExpensesPaid(servicePrice) */\n      0x56e1cf8a52e84572ff49b950fa9a1a1867319bf8eba3bf8c77bc4354678a34c5\n        /* \"contracts/Tenant.sol\":1145:1157  servicePrice */\n      sload(0x02)\n        /* \"contracts/Tenant.sol\":1132:1158  ExpensesPaid(servicePrice) */\n      mload(0x40)\n      tag_34\n      swap2\n        /* \"#utility.yul\":160:185   */\n      dup2\n      mstore\n        /* \"#utility.yul\":148:150   */\n      0x20\n        /* \"#utility.yul\":133:151   */\n      add\n      swap1\n        /* \"#utility.yul\":14:191   */\n      jump\n        /* \"contracts/Tenant.sol\":1132:1158  ExpensesPaid(servicePrice) */\n    tag_34:\n      mload(0x40)\n      dup1\n      swap2\n      sub\n      swap1\n      log1\n        /* \"contracts/Tenant.sol\":880:1166  {... */\n      pop\n        /* \"contracts/Tenant.sol\":850:1166  function payExpenses() public {... */\n      jump\t// out\n\n    auxdata: 0xa2646970667358221220b1579785c0bd677379c911dd4a2f881f4c15e4e1ab81f223e241c06e9df37f6e64736f6c63430008110033\n}\n",
				"bytecode": {
					"linkReferences": {},
					"object": "60806040526040516105f23803806105f28339810160408190526100229161017e565b8484600061003083826102ae565b5060018054600160a060020a031916600160a060020a0392909216919091179055506002839055600361006383826102ae565b5060048054600160a060020a031916600160a060020a03929092169190911790555061037392505050565b7f4e487b7100000000000000000000000000000000000000000000000000000000600052604160045260246000fd5b600082601f8301126100ce57600080fd5b81516001604060020a03808211156100e8576100e861008e565b604051601f8301601f19908116603f011681019082821181831017156101105761011061008e565b8160405283815260209250868385880101111561012c57600080fd5b600091505b8382101561014e5785820183015181830184015290820190610131565b600093810190920192909252949350505050565b8051600160a060020a038116811461017957600080fd5b919050565b600080600080600060a0868803121561019657600080fd5b85516001604060020a03808211156101ad57600080fd5b6101b989838a016100bd565b96506101c760208901610162565b95506040880151945060608801519150808211156101e457600080fd5b506101f1888289016100bd565b92505061020060808701610162565b90509295509295909350565b60028104600182168061022057607f821691505b602082108103610259577f4e487b7100000000000000000000000000000000000000000000000000000000600052602260045260246000fd5b50919050565b601f8211156102a9576000818152602081206020601f860104810160208610156102865750805b6020601f860104820191505b818110156102a557828155600101610292565b5050505b505050565b81516001604060020a038111156102c7576102c761008e565b6102db816102d5845461020c565b8461025f565b602080601f83116001811461031457600084156102f85750858301515b60028086026008870290910a60001904198216178655506102a5565b600085815260208120601f198616915b8281101561034357888601518255948401946001909101908401610324565b508582101561036357878501516008601f88160260020a60001904191681555b5050505050600202600101905550565b610270806103826000396000f3fe608060405260043610610051577c01000000000000000000000000000000000000000000000000000000006000350463d0e30db0811461005a578063d4e9329214610062578063da6e75c21461006e57005b3661005857005b005b610058610083565b34801561005857600080fd5b34801561007a57600080fd5b506100586100b8565b6040513481527f0a34e3d4f1e6b837dbce1011b61499fa1a483a0abee6a7a6697660b4b2d971329060200160405180910390a1565b6002543031101561012a576040517f08c379a000000000000000000000000000000000000000000000000000000000815260206004820152601460248201527f466f6e646f7320696e737566696369656e74657300000000000000000000000060448201526064015b60405180910390fd5b60045460025460405160009273ffffffffffffffffffffffffffffffffffffffff1691908381818185875af1925050503d8060008114610186576040519150601f19603f3d011682016040523d82523d6000602084013e61018b565b606091505b50909150506001811515146101fc576040517f08c379a000000000000000000000000000000000000000000000000000000000815260206004820152601660248201527f46616c6c6f206c61207472616e73666572656e636961000000000000000000006044820152606401610121565b7f56e1cf8a52e84572ff49b950fa9a1a1867319bf8eba3bf8c77bc4354678a34c560025460405161022f91815260200190565b60405180910390a15056fea2646970667358221220b1579785c0bd677379c911dd4a2f881f4c15e4e1ab81f223e241c06e9df37f6e64736f6c63430008110033",
					"opcodes": "PUSH1 0x80 PUSH1 0x40 MSTORE PUSH1 0x40 MLOAD PUSH2 0x5F2 CODESIZE SUB DUP1 PUSH2 0x5F2 DUP4 CODECOPY DUP2 ADD PUSH1 0x40 DUP2 SWAP1 MSTORE PUSH2 0x22 SWAP2 PUSH2 0x17E JUMP JUMPDEST DUP5 DUP5 PUSH1 0x0 PUSH2 0x30 DUP4 DUP3 PUSH2 0x2AE JUMP JUMPDEST POP PUSH1 0x1 DUP1 SLOAD PUSH1 0x1 PUSH1 0xA0 PUSH1 0x2 EXP SUB NOT AND PUSH1 0x1 PUSH1 0xA0 PUSH1 0x2 EXP SUB SWAP3 SWAP1 SWAP3 AND SWAP2 SWAP1 SWAP2 OR SWAP1 SSTORE POP PUSH1 0x2 DUP4 SWAP1 SSTORE PUSH1 0x3 PUSH2 0x63 DUP4 DUP3 PUSH2 0x2AE JUMP JUMPDEST POP PUSH1 0x4 DUP1 SLOAD PUSH1 0x1 PUSH1 0xA0 PUSH1 0x2 EXP SUB NOT AND PUSH1 0x1 PUSH1 0xA0 PUSH1 0x2 EXP SUB SWAP3 SWAP1 SWAP3 AND SWAP2 SWAP1 SWAP2 OR SWAP1 SSTORE POP PUSH2 0x373 SWAP3 POP POP POP JUMP JUMPDEST PUSH32 0x4E487B7100000000000000000000000000000000000000000000000000000000 PUSH1 0x0 MSTORE PUSH1 0x41 PUSH1 0x4 MSTORE PUSH1 0x24 PUSH1 0x0 REVERT JUMPDEST PUSH1 0x0 DUP3 PUSH1 0x1F DUP4 ADD SLT PUSH2 0xCE JUMPI PUSH1 0x0 DUP1 REVERT JUMPDEST DUP2 MLOAD PUSH1 0x1 PUSH1 0x40 PUSH1 0x2 EXP SUB DUP1 DUP3 GT ISZERO PUSH2 0xE8 JUMPI PUSH2 0xE8 PUSH2 0x8E JUMP JUMPDEST PUSH1 0x40 MLOAD PUSH1 0x1F DUP4 ADD PUSH1 0x1F NOT SWAP1 DUP2 AND PUSH1 0x3F ADD AND DUP2 ADD SWAP1 DUP3 DUP3 GT DUP2 DUP4 LT OR ISZERO PUSH2 0x110 JUMPI PUSH2 0x110 PUSH2 0x8E JUMP JUMPDEST DUP2 PUSH1 0x40 MSTORE DUP4 DUP2 MSTORE PUSH1 0x20 SWAP3 POP DUP7 DUP4 DUP6 DUP9 ADD ADD GT ISZERO PUSH2 0x12C JUMPI PUSH1 0x0 DUP1 REVERT JUMPDEST PUSH1 0x0 SWAP2 POP JUMPDEST DUP4 DUP3 LT ISZERO PUSH2 0x14E JUMPI DUP6 DUP3 ADD DUP4 ADD MLOAD DUP2 DUP4 ADD DUP5 ADD MSTORE SWAP1 DUP3 ADD SWAP1 PUSH2 0x131 JUMP JUMPDEST PUSH1 0x0 SWAP4 DUP2 ADD SWAP1 SWAP3 ADD SWAP3 SWAP1 SWAP3 MSTORE SWAP5 SWAP4 POP POP POP POP JUMP JUMPDEST DUP1 MLOAD PUSH1 0x1 PUSH1 0xA0 PUSH1 0x2 EXP SUB DUP2 AND DUP2 EQ PUSH2 0x179 JUMPI PUSH1 0x0 DUP1 REVERT JUMPDEST SWAP2 SWAP1 POP JUMP JUMPDEST PUSH1 0x0 DUP1 PUSH1 0x0 DUP1 PUSH1 0x0 PUSH1 0xA0 DUP7 DUP9 SUB SLT ISZERO PUSH2 0x196 JUMPI PUSH1 0x0 DUP1 REVERT JUMPDEST DUP6 MLOAD PUSH1 0x1 PUSH1 0x40 PUSH1 0x2 EXP SUB DUP1 DUP3 GT ISZERO PUSH2 0x1AD JUMPI PUSH1 0x0 DUP1 REVERT JUMPDEST PUSH2 0x1B9 DUP10 DUP4 DUP11 ADD PUSH2 0xBD JUMP JUMPDEST SWAP7 POP PUSH2 0x1C7 PUSH1 0x20 DUP10 ADD PUSH2 0x162 JUMP JUMPDEST SWAP6 POP PUSH1 0x40 DUP9 ADD MLOAD SWAP5 POP PUSH1 0x60 DUP9 ADD MLOAD SWAP2 POP DUP1 DUP3 GT ISZERO PUSH2 0x1E4 JUMPI PUSH1 0x0 DUP1 REVERT JUMPDEST POP PUSH2 0x1F1 DUP9 DUP3 DUP10 ADD PUSH2 0xBD JUMP JUMPDEST SWAP3 POP POP PUSH2 0x200 PUSH1 0x80 DUP8 ADD PUSH2 0x162 JUMP JUMPDEST SWAP1 POP SWAP3 SWAP6 POP SWAP3 SWAP6 SWAP1 SWAP4 POP JUMP JUMPDEST PUSH1 0x2 DUP2 DIV PUSH1 0x1 DUP3 AND DUP1 PUSH2 0x220 JUMPI PUSH1 0x7F DUP3 AND SWAP2 POP JUMPDEST PUSH1 0x20 DUP3 LT DUP2 SUB PUSH2 0x259 JUMPI PUSH32 0x4E487B7100000000000000000000000000000000000000000000000000000000 PUSH1 0x0 MSTORE PUSH1 0x22 PUSH1 0x4 MSTORE PUSH1 0x24 PUSH1 0x0 REVERT JUMPDEST POP SWAP2 SWAP1 POP JUMP JUMPDEST PUSH1 0x1F DUP3 GT ISZERO PUSH2 0x2A9 JUMPI PUSH1 0x0 DUP2 DUP2 MSTORE PUSH1 0x20 DUP2 KECCAK256 PUSH1 0x20 PUSH1 0x1F DUP7 ADD DIV DUP2 ADD PUSH1 0x20 DUP7 LT ISZERO PUSH2 0x286 JUMPI POP DUP1 JUMPDEST PUSH1 0x20 PUSH1 0x1F DUP7 ADD DIV DUP3 ADD SWAP2 POP JUMPDEST DUP2 DUP2 LT ISZERO PUSH2 0x2A5 JUMPI DUP3 DUP2 SSTORE PUSH1 0x1 ADD PUSH2 0x292 JUMP JUMPDEST POP POP POP JUMPDEST POP POP POP JUMP JUMPDEST DUP2 MLOAD PUSH1 0x1 PUSH1 0x40 PUSH1 0x2 EXP SUB DUP2 GT ISZERO PUSH2 0x2C7 JUMPI PUSH2 0x2C7 PUSH2 0x8E JUMP JUMPDEST PUSH2 0x2DB DUP2 PUSH2 0x2D5 DUP5 SLOAD PUSH2 0x20C JUMP JUMPDEST DUP5 PUSH2 0x25F JUMP JUMPDEST PUSH1 0x20 DUP1 PUSH1 0x1F DUP4 GT PUSH1 0x1 DUP2 EQ PUSH2 0x314 JUMPI PUSH1 0x0 DUP5 ISZERO PUSH2 0x2F8 JUMPI POP DUP6 DUP4 ADD MLOAD JUMPDEST PUSH1 0x2 DUP1 DUP7 MUL PUSH1 0x8 DUP8 MUL SWAP1 SWAP2 EXP PUSH1 0x0 NOT DIV NOT DUP3 AND OR DUP7 SSTORE POP PUSH2 0x2A5 JUMP JUMPDEST PUSH1 0x0 DUP6 DUP2 MSTORE PUSH1 0x20 DUP2 KECCAK256 PUSH1 0x1F NOT DUP7 AND SWAP2 JUMPDEST DUP3 DUP2 LT ISZERO PUSH2 0x343 JUMPI DUP9 DUP7 ADD MLOAD DUP3 SSTORE SWAP5 DUP5 ADD SWAP5 PUSH1 0x1 SWAP1 SWAP2 ADD SWAP1 DUP5 ADD PUSH2 0x324 JUMP JUMPDEST POP DUP6 DUP3 LT ISZERO PUSH2 0x363 JUMPI DUP8 DUP6 ADD MLOAD PUSH1 0x8 PUSH1 0x1F DUP9 AND MUL PUSH1 0x2 EXP PUSH1 0x0 NOT DIV NOT AND DUP2 SSTORE JUMPDEST POP POP POP POP POP PUSH1 0x2 MUL PUSH1 0x1 ADD SWAP1 SSTORE POP JUMP JUMPDEST PUSH2 0x270 DUP1 PUSH2 0x382 PUSH1 0x0 CODECOPY PUSH1 0x0 RETURN INVALID PUSH1 0x80 PUSH1 0x40 MSTORE PUSH1 0x4 CALLDATASIZE LT PUSH2 0x51 JUMPI PUSH29 0x100000000000000000000000000000000000000000000000000000000 PUSH1 0x0 CALLDATALOAD DIV PUSH4 0xD0E30DB0 DUP2 EQ PUSH2 0x5A JUMPI DUP1 PUSH4 0xD4E93292 EQ PUSH2 0x62 JUMPI DUP1 PUSH4 0xDA6E75C2 EQ PUSH2 0x6E JUMPI STOP JUMPDEST CALLDATASIZE PUSH2 0x58 JUMPI STOP JUMPDEST STOP JUMPDEST PUSH2 0x58 PUSH2 0x83 JUMP JUMPDEST CALLVALUE DUP1 ISZERO PUSH2 0x58 JUMPI PUSH1 0x0 DUP1 REVERT JUMPDEST CALLVALUE DUP1 ISZERO PUSH2 0x7A JUMPI PUSH1 0x0 DUP1 REVERT JUMPDEST POP PUSH2 0x58 PUSH2 0xB8 JUMP JUMPDEST PUSH1 0x40 MLOAD CALLVALUE DUP2 MSTORE PUSH32 0xA34E3D4F1E6B837DBCE1011B61499FA1A483A0ABEE6A7A6697660B4B2D97132 SWAP1 PUSH1 0x20 ADD PUSH1 0x40 MLOAD DUP1 SWAP2 SUB SWAP1 LOG1 JUMP JUMPDEST PUSH1 0x2 SLOAD ADDRESS BALANCE LT ISZERO PUSH2 0x12A JUMPI PUSH1 0x40 MLOAD PUSH32 0x8C379A000000000000000000000000000000000000000000000000000000000 DUP2 MSTORE PUSH1 0x20 PUSH1 0x4 DUP3 ADD MSTORE PUSH1 0x14 PUSH1 0x24 DUP3 ADD MSTORE PUSH32 0x466F6E646F7320696E737566696369656E746573000000000000000000000000 PUSH1 0x44 DUP3 ADD MSTORE PUSH1 0x64 ADD JUMPDEST PUSH1 0x40 MLOAD DUP1 SWAP2 SUB SWAP1 REVERT JUMPDEST PUSH1 0x4 SLOAD PUSH1 0x2 SLOAD PUSH1 0x40 MLOAD PUSH1 0x0 SWAP3 PUSH20 0xFFFFFFFFFFFFFFFFFFFFFFFFFFFFFFFFFFFFFFFF AND SWAP2 SWAP1 DUP4 DUP2 DUP2 DUP2 DUP6 DUP8 GAS CALL SWAP3 POP POP POP RETURNDATASIZE DUP1 PUSH1 0x0 DUP2 EQ PUSH2 0x186 JUMPI PUSH1 0x40 MLOAD SWAP2 POP PUSH1 0x1F NOT PUSH1 0x3F RETURNDATASIZE ADD AND DUP3 ADD PUSH1 0x40 MSTORE RETURNDATASIZE DUP3 MSTORE RETURNDATASIZE PUSH1 0x0 PUSH1 0x20 DUP5 ADD RETURNDATACOPY PUSH2 0x18B JUMP JUMPDEST PUSH1 0x60 SWAP2 POP JUMPDEST POP SWAP1 SWAP2 POP POP PUSH1 0x1 DUP2 ISZERO ISZERO EQ PUSH2 0x1FC JUMPI PUSH1 0x40 MLOAD PUSH32 0x8C379A000000000000000000000000000000000000000000000000000000000 DUP2 MSTORE PUSH1 0x20 PUSH1 0x4 DUP3 ADD MSTORE PUSH1 0x16 PUSH1 0x24 DUP3 ADD MSTORE PUSH32 0x46616C6C6F206C61207472616E73666572656E63696100000000000000000000 PUSH1 0x44 DUP3 ADD MSTORE PUSH1 0x64 ADD PUSH2 0x121 JUMP JUMPDEST PUSH32 0x56E1CF8A52E84572FF49B950FA9A1A1867319BF8EBA3BF8C77BC4354678A34C5 PUSH1 0x2 SLOAD PUSH1 0x40 MLOAD PUSH2 0x22F SWAP2 DUP2 MSTORE PUSH1 0x20 ADD SWAP1 JUMP JUMPDEST PUSH1 0x40 MLOAD DUP1 SWAP2 SUB SWAP1 LOG1 POP JUMP INVALID LOG2 PUSH5 0x6970667358 0x22 SLT KECCAK256 0xB1 JUMPI SWAP8 DUP6 0xC0 0xBD PUSH8 0x7379C911DD4A2F88 0x1F 0x4C ISZERO 0xE4 0xE1 0xAB DUP2 CALLCODE 0x23 0xE2 COINBASE 0xC0 PUSH15 0x9DF37F6E64736F6C63430008110033 "
				},
				"gasEstimates": {
					"creation": {
						"codeDepositCost": "124800",
						"executionCost": "infinite",
						"totalCost": "infinite"
					},
					"external": {
						"": "119",
						"deposit()": "1156",
						"payExpenses()": "infinite",
						"withdrawal()": "125"
					}
				},
				"methodIdentifiers": {
					"deposit()": "d0e30db0",
					"payExpenses()": "da6e75c2",
					"withdrawal()": "d4e93292"
				}
			},
			"storageLayout": {
				"storage": [
					{
						"astId": 3,
						"contract": "contracts/Tenant.sol:Tenant",
						"label": "name",
						"offset": 0,
						"slot": "0",
						"type": "t_string_storage"
					},
					{
						"astId": 5,
						"contract": "contracts/Tenant.sol:Tenant",
						"label": "withdrawAddress",
						"offset": 0,
						"slot": "1",
						"type": "t_address"
					},
					{
						"astId": 33,
						"contract": "contracts/Tenant.sol:Tenant",
						"label": "servicePrice",
						"offset": 0,
						"slot": "2",
						"type": "t_uint256"
					},
					{
						"astId": 35,
						"contract": "contracts/Tenant.sol:Tenant",
						"label": "buildingAddress",
						"offset": 0,
						"slot": "3",
						"type": "t_string_storage"
					},
					{
						"astId": 37,
						"contract": "contracts/Tenant.sol:Tenant",
						"label": "consorcioAddress",
						"offset": 0,
						"slot": "4",
						"type": "t_address"
					}
				],
				"types": {
					"t_address": {
						"encoding": "inplace",
						"label": "address",
						"numberOfBytes": "20"
					},
					"t_string_storage": {
						"encoding": "bytes",
						"label": "string",
						"numberOfBytes": "32"
					},
					"t_uint256": {
						"encoding": "inplace",
						"label": "uint256",
						"numberOfBytes": "32"
					}
				}
			},
			"userdoc": {
				"kind": "user",
				"methods": {},
				"version": 1
			}
		}
	}
}