{
	"contracts/Tenant.sol": {
		"Tenant": {
			"abi": [
				{
					"inputs": [
						{
							"internalType": "address",
							"name": "_consorcioAddress",
							"type": "address"
						}
					],
					"stateMutability": "payable",
					"type": "constructor"
				},
				{
					"anonymous": false,
					"inputs": [
						{
							"indexed": false,
							"internalType": "uint256",
							"name": "amount",
							"type": "uint256"
						}
					],
					"name": "EtherReceived",
					"type": "event"
				},
				{
					"anonymous": false,
					"inputs": [
						{
							"indexed": false,
							"internalType": "uint256",
							"name": "pricePaid",
							"type": "uint256"
						}
					],
					"name": "ExpensesPaid",
					"type": "event"
				},
				{
					"anonymous": false,
					"inputs": [
						{
							"indexed": true,
							"internalType": "address",
							"name": "previousOwner",
							"type": "address"
						},
						{
							"indexed": true,
							"internalType": "address",
							"name": "newOwner",
							"type": "address"
						}
					],
					"name": "OwnershipTransferred",
					"type": "event"
				},
				{
					"stateMutability": "payable",
					"type": "fallback"
				},
				{
					"inputs": [
						{
							"internalType": "string",
							"name": "_name",
							"type": "string"
						},
						{
							"internalType": "address",
							"name": "_tenantAddress",
							"type": "address"
						},
						{
							"internalType": "uint256",
							"name": "_rentalCost",
							"type": "uint256"
						},
						{
							"internalType": "string",
							"name": "_residence",
							"type": "string"
						}
					],
					"name": "addNewTenant",
					"outputs": [],
					"stateMutability": "nonpayable",
					"type": "function"
				},
				{
					"inputs": [],
					"name": "deposit",
					"outputs": [],
					"stateMutability": "payable",
					"type": "function"
				},
				{
					"inputs": [
						{
							"internalType": "address",
							"name": "_tenantAddress",
							"type": "address"
						}
					],
					"name": "getTenant",
					"outputs": [
						{
							"internalType": "string",
							"name": "name",
							"type": "string"
						},
						{
							"internalType": "address",
							"name": "tenantAddress",
							"type": "address"
						},
						{
							"internalType": "uint256",
							"name": "rentalCost",
							"type": "uint256"
						},
						{
							"internalType": "string",
							"name": "residence",
							"type": "string"
						},
						{
							"internalType": "address",
							"name": "consorcioContractAddress",
							"type": "address"
						}
					],
					"stateMutability": "view",
					"type": "function"
				},
				{
					"inputs": [],
					"name": "owner",
					"outputs": [
						{
							"internalType": "address",
							"name": "",
							"type": "address"
						}
					],
					"stateMutability": "view",
					"type": "function"
				},
				{
					"inputs": [],
					"name": "payExpenses",
					"outputs": [],
					"stateMutability": "payable",
					"type": "function"
				},
				{
					"inputs": [],
					"name": "payExpensesForOwner",
					"outputs": [],
					"stateMutability": "payable",
					"type": "function"
				},
				{
					"inputs": [],
					"name": "renounceOwnership",
					"outputs": [],
					"stateMutability": "nonpayable",
					"type": "function"
				},
				{
					"inputs": [
						{
							"internalType": "address",
							"name": "_tenantAddress",
							"type": "address"
						},
						{
							"internalType": "uint256",
							"name": "_newRentalCost",
							"type": "uint256"
						}
					],
					"name": "setRentalCost",
					"outputs": [],
					"stateMutability": "nonpayable",
					"type": "function"
				},
				{
					"inputs": [
						{
							"internalType": "address",
							"name": "newOwner",
							"type": "address"
						}
					],
					"name": "transferOwnership",
					"outputs": [],
					"stateMutability": "nonpayable",
					"type": "function"
				},
				{
					"inputs": [],
					"name": "withdrawAddress",
					"outputs": [
						{
							"internalType": "address",
							"name": "",
							"type": "address"
						}
					],
					"stateMutability": "view",
					"type": "function"
				},
				{
					"inputs": [],
					"name": "withdrawal",
					"outputs": [],
					"stateMutability": "nonpayable",
					"type": "function"
				},
				{
					"stateMutability": "payable",
					"type": "receive"
				}
			],
			"devdoc": {
				"kind": "dev",
				"methods": {
					"owner()": {
						"details": "Returns the address of the current owner."
					},
					"renounceOwnership()": {
						"details": "Leaves the contract without owner. It will not be possible to call `onlyOwner` functions anymore. Can only be called by the current owner. NOTE: Renouncing ownership will leave the contract without an owner, thereby removing any functionality that is only available to the owner."
					},
					"transferOwnership(address)": {
						"details": "Transfers ownership of the contract to a new account (`newOwner`). Can only be called by the current owner."
					}
				},
				"version": 1
			},
			"evm": {
				"assembly": "    /* \"contracts/Tenant.sol\":143:3134  contract Tenant is BaseUser, Ownable {... */\n  mstore(0x40, 0x80)\n    /* \"contracts/Tenant.sol\":794:956  constructor (address _consorcioAddress) payable BaseUser (\"\", 0x0000000000000000000000000000000000000000)  {... */\n  mload(0x40)\n  sub(codesize, bytecodeSize)\n  dup1\n  bytecodeSize\n  dup4\n  codecopy\n  dup2\n  add\n  0x40\n  dup2\n  swap1\n  mstore\n  tag_1\n  swap2\n  tag_2\n  jump\t// in\ntag_1:\n    /* \"contracts/BaseUser.sol\":153:280  constructor(string memory newName, address newAddress) {... */\n  0x40\n  dup1\n  mload\n  0x20\n  dup2\n  add\n  swap1\n  swap2\n  mstore\n  0x00\n  dup1\n  dup3\n  mstore\n  dup1\n    /* \"contracts/BaseUser.sol\":219:233  name = newName */\n  tag_7\n    /* \"contracts/BaseUser.sol\":153:280  constructor(string memory newName, address newAddress) {... */\n  dup4\n  dup3\n    /* \"contracts/BaseUser.sol\":219:233  name = newName */\n  tag_8\n  jump\t// in\ntag_7:\n  pop\n    /* \"contracts/BaseUser.sol\":244:259  withdrawAddress */\n  0x01\n    /* \"contracts/BaseUser.sol\":244:272  withdrawAddress = newAddress */\n  dup1\n  sload\n  not(sub(exp(0x02, 0xa0), 0x01))\n  and\n  sub(exp(0x02, 0xa0), 0x01)\n  swap3\n  swap1\n  swap3\n  and\n  swap2\n  swap1\n  swap2\n  or\n  swap1\n  sstore\n  pop\n    /* \"@openzeppelin/contracts/access/Ownable.sol\":936:968  _transferOwnership(_msgSender()) */\n  tag_10\n    /* \"@openzeppelin/contracts/access/Ownable.sol\":955:967  _msgSender() */\n  tag_11\n    /* \"@openzeppelin/contracts/access/Ownable.sol\":955:965  _msgSender */\n  0x0100000000\n  tag_12\n  dup2\n  mul\n    /* \"@openzeppelin/contracts/access/Ownable.sol\":955:967  _msgSender() */\n  div\n  jump\t// in\ntag_11:\n    /* \"@openzeppelin/contracts/access/Ownable.sol\":936:954  _transferOwnership */\n  0x0100000000\n  tag_13\n  dup2\n  mul\n    /* \"@openzeppelin/contracts/access/Ownable.sol\":936:968  _transferOwnership(_msgSender()) */\n  div\n  jump\t// in\ntag_10:\n    /* \"contracts/Tenant.sol\":912:928  consorcioAddress */\n  0x03\n    /* \"contracts/Tenant.sol\":912:948  consorcioAddress = _consorcioAddress */\n  dup1\n  sload\n  not(sub(exp(0x02, 0xa0), 0x01))\n  and\n  sub(exp(0x02, 0xa0), 0x01)\n  swap3\n  swap1\n  swap3\n  and\n  swap2\n  swap1\n  swap2\n  or\n  swap1\n  sstore\n    /* \"contracts/Tenant.sol\":143:3134  contract Tenant is BaseUser, Ownable {... */\n  jump(tag_23)\n    /* \"@openzeppelin/contracts/utils/Context.sol\":640:736  function _msgSender() internal view virtual returns (address) {... */\ntag_12:\n    /* \"@openzeppelin/contracts/utils/Context.sol\":719:729  msg.sender */\n  caller\n  swap1\n    /* \"@openzeppelin/contracts/utils/Context.sol\":640:736  function _msgSender() internal view virtual returns (address) {... */\n  jump\t// out\n    /* \"@openzeppelin/contracts/access/Ownable.sol\":2433:2620  function _transferOwnership(address newOwner) internal virtual {... */\ntag_13:\n    /* \"@openzeppelin/contracts/access/Ownable.sol\":2525:2531  _owner */\n  0x02\n  dup1\n  sload\n  sub(exp(0x02, 0xa0), 0x01)\n    /* \"@openzeppelin/contracts/access/Ownable.sol\":2541:2558  _owner = newOwner */\n  dup4\n  dup2\n  and\n  not(sub(exp(0x02, 0xa0), 0x01))\n  dup4\n  and\n  dup2\n  or\n  swap1\n  swap4\n  sstore\n    /* \"@openzeppelin/contracts/access/Ownable.sol\":2573:2613  OwnershipTransferred(oldOwner, newOwner) */\n  mload(0x40)\n    /* \"@openzeppelin/contracts/access/Ownable.sol\":2525:2531  _owner */\n  swap2\n  and\n  swap2\n    /* \"@openzeppelin/contracts/access/Ownable.sol\":2541:2558  _owner = newOwner */\n  swap1\n    /* \"@openzeppelin/contracts/access/Ownable.sol\":2525:2531  _owner */\n  dup3\n  swap1\n    /* \"@openzeppelin/contracts/access/Ownable.sol\":2573:2613  OwnershipTransferred(oldOwner, newOwner) */\n  0x8be0079c531659141344cd1fd0a4f28419497f9722a3daafe3b4186f6b6457e0\n  swap1\n    /* \"@openzeppelin/contracts/access/Ownable.sol\":2506:2522  address oldOwner */\n  0x00\n  swap1\n    /* \"@openzeppelin/contracts/access/Ownable.sol\":2573:2613  OwnershipTransferred(oldOwner, newOwner) */\n  log3\n    /* \"@openzeppelin/contracts/access/Ownable.sol\":2496:2620  {... */\n  pop\n    /* \"@openzeppelin/contracts/access/Ownable.sol\":2433:2620  function _transferOwnership(address newOwner) internal virtual {... */\n  pop\n  jump\t// out\n    /* \"#utility.yul\":14:304   */\ntag_2:\n    /* \"#utility.yul\":84:90   */\n  0x00\n    /* \"#utility.yul\":137:139   */\n  0x20\n    /* \"#utility.yul\":125:134   */\n  dup3\n    /* \"#utility.yul\":116:123   */\n  dup5\n    /* \"#utility.yul\":112:135   */\n  sub\n    /* \"#utility.yul\":108:140   */\n  slt\n    /* \"#utility.yul\":105:157   */\n  iszero\n  tag_25\n  jumpi\n    /* \"#utility.yul\":153:154   */\n  0x00\n    /* \"#utility.yul\":150:151   */\n  dup1\n    /* \"#utility.yul\":143:155   */\n  revert\n    /* \"#utility.yul\":105:157   */\ntag_25:\n    /* \"#utility.yul\":179:195   */\n  dup2\n  mload\n  sub(exp(0x02, 0xa0), 0x01)\n    /* \"#utility.yul\":224:255   */\n  dup2\n  and\n    /* \"#utility.yul\":214:256   */\n  dup2\n  eq\n    /* \"#utility.yul\":204:274   */\n  tag_26\n  jumpi\n    /* \"#utility.yul\":270:271   */\n  0x00\n    /* \"#utility.yul\":267:268   */\n  dup1\n    /* \"#utility.yul\":260:272   */\n  revert\n    /* \"#utility.yul\":204:274   */\ntag_26:\n    /* \"#utility.yul\":293:298   */\n  swap4\n    /* \"#utility.yul\":14:304   */\n  swap3\n  pop\n  pop\n  pop\n  jump\t// out\n    /* \"#utility.yul\":309:493   */\ntag_18:\n    /* \"#utility.yul\":361:438   */\n  0x4e487b7100000000000000000000000000000000000000000000000000000000\n    /* \"#utility.yul\":358:359   */\n  0x00\n    /* \"#utility.yul\":351:439   */\n  mstore\n    /* \"#utility.yul\":458:462   */\n  0x41\n    /* \"#utility.yul\":455:456   */\n  0x04\n    /* \"#utility.yul\":448:463   */\n  mstore\n    /* \"#utility.yul\":482:486   */\n  0x24\n    /* \"#utility.yul\":479:480   */\n  0x00\n    /* \"#utility.yul\":472:487   */\n  revert\n    /* \"#utility.yul\":498:935   */\ntag_19:\n    /* \"#utility.yul\":583:584   */\n  0x02\n    /* \"#utility.yul\":573:585   */\n  dup2\n  div\n    /* \"#utility.yul\":630:631   */\n  0x01\n    /* \"#utility.yul\":620:632   */\n  dup3\n  and\n  dup1\n    /* \"#utility.yul\":641:702   */\n  tag_29\n  jumpi\n    /* \"#utility.yul\":695:699   */\n  0x7f\n    /* \"#utility.yul\":687:693   */\n  dup3\n    /* \"#utility.yul\":683:700   */\n  and\n    /* \"#utility.yul\":673:700   */\n  swap2\n  pop\n    /* \"#utility.yul\":641:702   */\ntag_29:\n    /* \"#utility.yul\":748:750   */\n  0x20\n    /* \"#utility.yul\":740:746   */\n  dup3\n    /* \"#utility.yul\":737:751   */\n  lt\n    /* \"#utility.yul\":717:735   */\n  dup2\n    /* \"#utility.yul\":714:752   */\n  sub\n    /* \"#utility.yul\":711:929   */\n  tag_30\n  jumpi\n    /* \"#utility.yul\":785:862   */\n  0x4e487b7100000000000000000000000000000000000000000000000000000000\n    /* \"#utility.yul\":782:783   */\n  0x00\n    /* \"#utility.yul\":775:863   */\n  mstore\n    /* \"#utility.yul\":886:890   */\n  0x22\n    /* \"#utility.yul\":883:884   */\n  0x04\n    /* \"#utility.yul\":876:891   */\n  mstore\n    /* \"#utility.yul\":914:918   */\n  0x24\n    /* \"#utility.yul\":911:912   */\n  0x00\n    /* \"#utility.yul\":904:919   */\n  revert\n    /* \"#utility.yul\":711:929   */\ntag_30:\n  pop\n    /* \"#utility.yul\":498:935   */\n  swap2\n  swap1\n  pop\n  jump\t// out\n    /* \"#utility.yul\":1066:1617   */\ntag_21:\n    /* \"#utility.yul\":1168:1170   */\n  0x1f\n    /* \"#utility.yul\":1163:1166   */\n  dup3\n    /* \"#utility.yul\":1160:1171   */\n  gt\n    /* \"#utility.yul\":1157:1611   */\n  iszero\n  tag_33\n  jumpi\n    /* \"#utility.yul\":1204:1205   */\n  0x00\n    /* \"#utility.yul\":1229:1234   */\n  dup2\n    /* \"#utility.yul\":1225:1227   */\n  dup2\n    /* \"#utility.yul\":1218:1235   */\n  mstore\n    /* \"#utility.yul\":1274:1278   */\n  0x20\n    /* \"#utility.yul\":1270:1272   */\n  dup2\n    /* \"#utility.yul\":1260:1279   */\n  keccak256\n    /* \"#utility.yul\":1346:1350   */\n  0x20\n    /* \"#utility.yul\":1341:1343   */\n  0x1f\n    /* \"#utility.yul\":1329:1339   */\n  dup7\n    /* \"#utility.yul\":1325:1344   */\n  add\n    /* \"#utility.yul\":1321:1351   */\n  div\n    /* \"#utility.yul\":1315:1319   */\n  dup2\n    /* \"#utility.yul\":1311:1352   */\n  add\n    /* \"#utility.yul\":1383:1387   */\n  0x20\n    /* \"#utility.yul\":1371:1381   */\n  dup7\n    /* \"#utility.yul\":1368:1388   */\n  lt\n    /* \"#utility.yul\":1365:1412   */\n  iszero\n  tag_34\n  jumpi\n  pop\n    /* \"#utility.yul\":1406:1410   */\n  dup1\n    /* \"#utility.yul\":1365:1412   */\ntag_34:\n    /* \"#utility.yul\":1463:1467   */\n  0x20\n    /* \"#utility.yul\":1458:1460   */\n  0x1f\n    /* \"#utility.yul\":1453:1456   */\n  dup7\n    /* \"#utility.yul\":1449:1461   */\n  add\n    /* \"#utility.yul\":1445:1468   */\n  div\n    /* \"#utility.yul\":1439:1443   */\n  dup3\n    /* \"#utility.yul\":1435:1469   */\n  add\n    /* \"#utility.yul\":1425:1469   */\n  swap2\n  pop\n    /* \"#utility.yul\":1519:1601   */\ntag_35:\n    /* \"#utility.yul\":1537:1539   */\n  dup2\n    /* \"#utility.yul\":1530:1535   */\n  dup2\n    /* \"#utility.yul\":1527:1540   */\n  lt\n    /* \"#utility.yul\":1519:1601   */\n  iszero\n  tag_37\n  jumpi\n    /* \"#utility.yul\":1582:1599   */\n  dup3\n  dup2\n  sstore\n    /* \"#utility.yul\":1563:1564   */\n  0x01\n    /* \"#utility.yul\":1552:1565   */\n  add\n    /* \"#utility.yul\":1519:1601   */\n  jump(tag_35)\ntag_37:\n    /* \"#utility.yul\":1523:1526   */\n  pop\n  pop\n  pop\n    /* \"#utility.yul\":1157:1611   */\ntag_33:\n    /* \"#utility.yul\":1066:1617   */\n  pop\n  pop\n  pop\n  jump\t// out\n    /* \"#utility.yul\":1801:3160   */\ntag_8:\n    /* \"#utility.yul\":1927:1930   */\n  dup2\n    /* \"#utility.yul\":1921:1931   */\n  mload\n    /* \"#utility.yul\":1954:1972   */\n  0xffffffffffffffff\n    /* \"#utility.yul\":1946:1952   */\n  dup2\n    /* \"#utility.yul\":1943:1973   */\n  gt\n    /* \"#utility.yul\":1940:1996   */\n  iszero\n  tag_41\n  jumpi\n    /* \"#utility.yul\":1976:1994   */\n  tag_41\n  tag_18\n  jump\t// in\ntag_41:\n    /* \"#utility.yul\":2005:2102   */\n  tag_42\n    /* \"#utility.yul\":2095:2101   */\n  dup2\n    /* \"#utility.yul\":2055:2093   */\n  tag_43\n    /* \"#utility.yul\":2087:2091   */\n  dup5\n    /* \"#utility.yul\":2081:2092   */\n  sload\n    /* \"#utility.yul\":2055:2093   */\n  tag_19\n  jump\t// in\ntag_43:\n    /* \"#utility.yul\":2049:2053   */\n  dup5\n    /* \"#utility.yul\":2005:2102   */\n  tag_21\n  jump\t// in\ntag_42:\n    /* \"#utility.yul\":2157:2161   */\n  0x20\n  dup1\n    /* \"#utility.yul\":2221:2223   */\n  0x1f\n    /* \"#utility.yul\":2210:2224   */\n  dup4\n  gt\n    /* \"#utility.yul\":2238:2239   */\n  0x01\n    /* \"#utility.yul\":2233:2903   */\n  dup2\n  eq\n  tag_45\n  jumpi\n    /* \"#utility.yul\":2947:2948   */\n  0x00\n    /* \"#utility.yul\":2964:2970   */\n  dup5\n    /* \"#utility.yul\":2961:3050   */\n  iszero\n  tag_46\n  jumpi\n  pop\n    /* \"#utility.yul\":3016:3035   */\n  dup6\n  dup4\n  add\n    /* \"#utility.yul\":3010:3036   */\n  mload\n    /* \"#utility.yul\":2961:3050   */\ntag_46:\n    /* \"#utility.yul\":1782:1783   */\n  0x02\n    /* \"#utility.yul\":1778:1789   */\n  dup1\n  dup7\n  mul\n    /* \"#utility.yul\":1765:1766   */\n  0x08\n    /* \"#utility.yul\":1761:1772   */\n  dup8\n  mul\n    /* \"#utility.yul\":1754:1773   */\n  swap1\n  swap2\n  exp\n  not(0x00)\n    /* \"#utility.yul\":1742:1774   */\n  div\n    /* \"#utility.yul\":1738:1775   */\n  not\n    /* \"#utility.yul\":1728:1776   */\n  dup3\n  and\n    /* \"#utility.yul\":1725:1790   */\n  or\n    /* \"#utility.yul\":3070:3074   */\n  dup7\n    /* \"#utility.yul\":3063:3144   */\n  sstore\n  pop\n    /* \"#utility.yul\":2203:3154   */\n  jump(tag_37)\n    /* \"#utility.yul\":2233:2903   */\ntag_45:\n    /* \"#utility.yul\":1013:1014   */\n  0x00\n    /* \"#utility.yul\":1006:1020   */\n  dup6\n  dup2\n  mstore\n    /* \"#utility.yul\":1050:1054   */\n  0x20\n    /* \"#utility.yul\":1037:1055   */\n  dup2\n  keccak256\n  not(0x1f)\n    /* \"#utility.yul\":2269:2289   */\n  dup7\n  and\n  swap2\n    /* \"#utility.yul\":2387:2623   */\ntag_49:\n    /* \"#utility.yul\":2401:2408   */\n  dup3\n    /* \"#utility.yul\":2398:2399   */\n  dup2\n    /* \"#utility.yul\":2395:2409   */\n  lt\n    /* \"#utility.yul\":2387:2623   */\n  iszero\n  tag_51\n  jumpi\n    /* \"#utility.yul\":2490:2509   */\n  dup9\n  dup7\n  add\n    /* \"#utility.yul\":2484:2510   */\n  mload\n    /* \"#utility.yul\":2469:2511   */\n  dup3\n  sstore\n    /* \"#utility.yul\":2582:2609   */\n  swap5\n  dup5\n  add\n  swap5\n    /* \"#utility.yul\":2550:2551   */\n  0x01\n    /* \"#utility.yul\":2538:2552   */\n  swap1\n  swap2\n  add\n  swap1\n    /* \"#utility.yul\":2417:2436   */\n  dup5\n  add\n    /* \"#utility.yul\":2387:2623   */\n  jump(tag_49)\ntag_51:\n    /* \"#utility.yul\":2391:2394   */\n  pop\n    /* \"#utility.yul\":2651:2657   */\n  dup6\n    /* \"#utility.yul\":2642:2649   */\n  dup3\n    /* \"#utility.yul\":2639:2658   */\n  lt\n    /* \"#utility.yul\":2636:2844   */\n  iszero\n  tag_52\n  jumpi\n    /* \"#utility.yul\":2712:2731   */\n  dup8\n  dup6\n  add\n    /* \"#utility.yul\":2706:2732   */\n  mload\n    /* \"#utility.yul\":2806:2807   */\n  0x08\n    /* \"#utility.yul\":2821:2823   */\n  0x1f\n    /* \"#utility.yul\":2809:2824   */\n  dup9\n  and\n    /* \"#utility.yul\":2802:2825   */\n  mul\n    /* \"#utility.yul\":2799:2800   */\n  0x02\n    /* \"#utility.yul\":2795:2826   */\n  exp\n  not(0x00)\n    /* \"#utility.yul\":2783:2827   */\n  div\n    /* \"#utility.yul\":2779:2828   */\n  not\n    /* \"#utility.yul\":2764:2829   */\n  and\n    /* \"#utility.yul\":2749:2830   */\n  dup2\n  sstore\n    /* \"#utility.yul\":2636:2844   */\ntag_52:\n  pop\n  pop\n  pop\n  pop\n  pop\n    /* \"#utility.yul\":2886:2887   */\n  0x02\n    /* \"#utility.yul\":2874:2888   */\n  mul\n    /* \"#utility.yul\":2890:2891   */\n  0x01\n    /* \"#utility.yul\":2870:2892   */\n  add\n    /* \"#utility.yul\":2857:2893   */\n  swap1\n  sstore\n  pop\n    /* \"#utility.yul\":1801:3160   */\n  jump\t// out\ntag_23:\n    /* \"contracts/Tenant.sol\":143:3134  contract Tenant is BaseUser, Ownable {... */\n  dataSize(sub_0)\n  dup1\n  dataOffset(sub_0)\n  0x00\n  codecopy\n  0x00\n  return\nstop\n\nsub_0: assembly {\n        /* \"contracts/Tenant.sol\":143:3134  contract Tenant is BaseUser, Ownable {... */\n      mstore(0x40, 0x80)\n      jumpi(tag_1, lt(calldatasize, 0x04))\n      calldataload(0x00)\n      0x0100000000000000000000000000000000000000000000000000000000\n      swap1\n      div\n      dup1\n      0xcc0395bf\n      gt\n      tag_14\n      jumpi\n      dup1\n      0xcc0395bf\n      eq\n      tag_8\n      jumpi\n      dup1\n      0xd0e30db0\n      eq\n      tag_9\n      jumpi\n      dup1\n      0xd4e93292\n      eq\n      tag_10\n      jumpi\n      dup1\n      0xda6e75c2\n      eq\n      tag_11\n      jumpi\n      dup1\n      0xe5cdb488\n      eq\n      tag_12\n      jumpi\n      dup1\n      0xf2fde38b\n      eq\n      tag_13\n      jumpi\n      stop\n    tag_14:\n      dup1\n      0x1581b600\n      eq\n      tag_3\n      jumpi\n      dup1\n      0x715018a6\n      eq\n      tag_4\n      jumpi\n      dup1\n      0x80c5b8e3\n      eq\n      tag_5\n      jumpi\n      dup1\n      0x8da5cb5b\n      eq\n      tag_6\n      jumpi\n      dup1\n      0xaff13d29\n      eq\n      tag_7\n      jumpi\n      stop\n    tag_1:\n      jumpi(tag_2, calldatasize)\n      stop\n    tag_2:\n      stop\n        /* \"contracts/BaseUser.sol\":114:144  address public withdrawAddress */\n    tag_3:\n      callvalue\n      dup1\n      iszero\n      tag_19\n      jumpi\n      0x00\n      dup1\n      revert\n    tag_19:\n      pop\n      sload(0x01)\n      tag_20\n      swap1\n      sub(exp(0x02, 0xa0), 0x01)\n      and\n      dup2\n      jump\n    tag_20:\n      mload(0x40)\n      sub(exp(0x02, 0xa0), 0x01)\n        /* \"#utility.yul\":178:233   */\n      swap1\n      swap2\n      and\n        /* \"#utility.yul\":160:234   */\n      dup2\n      mstore\n        /* \"#utility.yul\":148:150   */\n      0x20\n        /* \"#utility.yul\":133:151   */\n      add\n        /* \"contracts/BaseUser.sol\":114:144  address public withdrawAddress */\n    tag_22:\n      mload(0x40)\n      dup1\n      swap2\n      sub\n      swap1\n      return\n        /* \"@openzeppelin/contracts/access/Ownable.sol\":1831:1932  function renounceOwnership() public virtual onlyOwner {... */\n    tag_4:\n      callvalue\n      dup1\n      iszero\n      tag_24\n      jumpi\n      0x00\n      dup1\n      revert\n    tag_24:\n      pop\n      tag_2\n      tag_26\n      jump\t// in\n        /* \"contracts/Tenant.sol\":1987:2148  function setRentalCost(address _tenantAddress, uint _newRentalCost) public onlyOwner {... */\n    tag_5:\n      callvalue\n      dup1\n      iszero\n      tag_27\n      jumpi\n      0x00\n      dup1\n      revert\n    tag_27:\n      pop\n      tag_2\n      tag_29\n      calldatasize\n      0x04\n      tag_30\n      jump\t// in\n    tag_29:\n      tag_31\n      jump\t// in\n        /* \"@openzeppelin/contracts/access/Ownable.sol\":1201:1286  function owner() public view virtual returns (address) {... */\n    tag_6:\n      callvalue\n      dup1\n      iszero\n      tag_32\n      jumpi\n      0x00\n      dup1\n      revert\n    tag_32:\n      pop\n        /* \"@openzeppelin/contracts/access/Ownable.sol\":1273:1279  _owner */\n      and(sub(exp(0x02, 0xa0), 0x01), sload(0x02))\n        /* \"@openzeppelin/contracts/access/Ownable.sol\":1201:1286  function owner() public view virtual returns (address) {... */\n      jump(tag_20)\n        /* \"contracts/Tenant.sol\":2555:3129  function payExpensesForOwner() public payable onlyOwner{... */\n    tag_7:\n      tag_2\n      tag_37\n      jump\t// in\n        /* \"contracts/Tenant.sol\":1209:1466  function addNewTenant(string memory _name, address _tenantAddress, uint _rentalCost, string memory _residence) public onlyOwner {... */\n    tag_8:\n      callvalue\n      dup1\n      iszero\n      tag_38\n      jumpi\n      0x00\n      dup1\n      revert\n    tag_38:\n      pop\n      tag_2\n      tag_40\n      calldatasize\n      0x04\n      tag_41\n      jump\t// in\n    tag_40:\n      tag_42\n      jump\t// in\n        /* \"contracts/Tenant.sol\":964:1199  function deposit() public payable onlyPayers{... */\n    tag_9:\n      tag_2\n      tag_44\n      jump\t// in\n        /* \"contracts/BaseUser.sol\":288:388  function withdrawal() public {... */\n    tag_10:\n      callvalue\n      dup1\n      iszero\n      tag_2\n      jumpi\n      0x00\n      dup1\n      revert\n        /* \"contracts/Tenant.sol\":2156:2547  function payExpenses() public payable onlyPayers{... */\n    tag_11:\n      tag_2\n      tag_49\n      jump\t// in\n        /* \"contracts/Tenant.sol\":1476:1979  function getTenant(address _tenantAddress) public view returns(string memory name, address tenantAddress, uint rentalCost, string memory residence, address consorcioContractAddress){... */\n    tag_12:\n      callvalue\n      dup1\n      iszero\n      tag_50\n      jumpi\n      0x00\n      dup1\n      revert\n    tag_50:\n      pop\n      tag_51\n      tag_52\n      calldatasize\n      0x04\n      tag_53\n      jump\t// in\n    tag_52:\n      tag_54\n      jump\t// in\n    tag_51:\n      mload(0x40)\n      tag_22\n      swap6\n      swap5\n      swap4\n      swap3\n      swap2\n      swap1\n      tag_56\n      jump\t// in\n        /* \"@openzeppelin/contracts/access/Ownable.sol\":2081:2279  function transferOwnership(address newOwner) public virtual onlyOwner {... */\n    tag_13:\n      callvalue\n      dup1\n      iszero\n      tag_57\n      jumpi\n      0x00\n      dup1\n      revert\n    tag_57:\n      pop\n      tag_2\n      tag_59\n      calldatasize\n      0x04\n      tag_53\n      jump\t// in\n    tag_59:\n      tag_60\n      jump\t// in\n        /* \"@openzeppelin/contracts/access/Ownable.sol\":1831:1932  function renounceOwnership() public virtual onlyOwner {... */\n    tag_26:\n        /* \"@openzeppelin/contracts/access/Ownable.sol\":1094:1107  _checkOwner() */\n      tag_62\n        /* \"@openzeppelin/contracts/access/Ownable.sol\":1094:1105  _checkOwner */\n      tag_63\n        /* \"@openzeppelin/contracts/access/Ownable.sol\":1094:1107  _checkOwner() */\n      jump\t// in\n    tag_62:\n        /* \"@openzeppelin/contracts/access/Ownable.sol\":1895:1925  _transferOwnership(address(0)) */\n      tag_65\n        /* \"@openzeppelin/contracts/access/Ownable.sol\":1922:1923  0 */\n      0x00\n        /* \"@openzeppelin/contracts/access/Ownable.sol\":1895:1913  _transferOwnership */\n      tag_66\n        /* \"@openzeppelin/contracts/access/Ownable.sol\":1895:1925  _transferOwnership(address(0)) */\n      jump\t// in\n    tag_65:\n        /* \"@openzeppelin/contracts/access/Ownable.sol\":1831:1932  function renounceOwnership() public virtual onlyOwner {... */\n      jump\t// out\n        /* \"contracts/Tenant.sol\":1987:2148  function setRentalCost(address _tenantAddress, uint _newRentalCost) public onlyOwner {... */\n    tag_31:\n        /* \"@openzeppelin/contracts/access/Ownable.sol\":1094:1107  _checkOwner() */\n      tag_68\n        /* \"@openzeppelin/contracts/access/Ownable.sol\":1094:1105  _checkOwner */\n      tag_63\n        /* \"@openzeppelin/contracts/access/Ownable.sol\":1094:1107  _checkOwner() */\n      jump\t// in\n    tag_68:\n      sub(exp(0x02, 0xa0), 0x01)\n        /* \"contracts/Tenant.sol\":2083:2112  tenantMapping[_tenantAddress] */\n      swap1\n      swap2\n      and\n      0x00\n      swap1\n      dup2\n      mstore\n        /* \"contracts/Tenant.sol\":2083:2096  tenantMapping */\n      0x04\n        /* \"contracts/Tenant.sol\":2083:2112  tenantMapping[_tenantAddress] */\n      0x20\n      mstore\n      0x40\n      swap1\n      keccak256\n        /* \"contracts/Tenant.sol\":2083:2123  tenantMapping[_tenantAddress].rentalCost */\n      0x02\n      add\n        /* \"contracts/Tenant.sol\":2083:2140  tenantMapping[_tenantAddress].rentalCost = _newRentalCost */\n      sstore\n        /* \"contracts/Tenant.sol\":1987:2148  function setRentalCost(address _tenantAddress, uint _newRentalCost) public onlyOwner {... */\n      jump\t// out\n        /* \"contracts/Tenant.sol\":2555:3129  function payExpensesForOwner() public payable onlyOwner{... */\n    tag_37:\n        /* \"@openzeppelin/contracts/access/Ownable.sol\":1094:1107  _checkOwner() */\n      tag_72\n        /* \"@openzeppelin/contracts/access/Ownable.sol\":1094:1105  _checkOwner */\n      tag_63\n        /* \"@openzeppelin/contracts/access/Ownable.sol\":1094:1107  _checkOwner() */\n      jump\t// in\n    tag_72:\n        /* \"contracts/Tenant.sol\":2853:2857  this */\n      address\n        /* \"contracts/Tenant.sol\":2845:2866  address(this).balance */\n      balance\n        /* \"contracts/Tenant.sol\":2837:2906  require(address(this).balance > 0, \"The funds sent are insufficient\") */\n      tag_74\n      jumpi\n      mload(0x40)\n      mul(0x461bcd, exp(0x02, 0xe5))\n      dup2\n      mstore\n      0x04\n      add\n      tag_75\n      swap1\n      tag_76\n      jump\t// in\n    tag_75:\n      mload(0x40)\n      dup1\n      swap2\n      sub\n      swap1\n      revert\n    tag_74:\n        /* \"contracts/Tenant.sol\":2932:2948  consorcioAddress */\n      sload(0x03)\n        /* \"contracts/Tenant.sol\":2932:3012  consorcioAddress.call {... */\n      mload(0x40)\n        /* \"contracts/Tenant.sol\":2918:2927  bool sent */\n      0x00\n      swap2\n      sub(exp(0x02, 0xa0), 0x01)\n        /* \"contracts/Tenant.sol\":2932:2948  consorcioAddress */\n      and\n      swap1\n        /* \"contracts/Tenant.sol\":2984:2988  this */\n      address\n        /* \"contracts/Tenant.sol\":2976:2997  address(this).balance */\n      balance\n      swap1\n        /* \"contracts/Tenant.sol\":2918:2927  bool sent */\n      dup4\n        /* \"contracts/Tenant.sol\":2932:3012  consorcioAddress.call {... */\n      dup2\n        /* \"contracts/Tenant.sol\":2918:2927  bool sent */\n      dup2\n        /* \"contracts/Tenant.sol\":2932:3012  consorcioAddress.call {... */\n      dup2\n        /* \"contracts/Tenant.sol\":2976:2997  address(this).balance */\n      dup6\n        /* \"contracts/Tenant.sol\":2932:2948  consorcioAddress */\n      dup8\n        /* \"contracts/Tenant.sol\":2932:3012  consorcioAddress.call {... */\n      gas\n      call\n      swap3\n      pop\n      pop\n      pop\n      returndatasize\n      dup1\n      0x00\n      dup2\n      eq\n      tag_81\n      jumpi\n      mload(0x40)\n      swap2\n      pop\n      and(add(returndatasize, 0x3f), not(0x1f))\n      dup3\n      add\n      0x40\n      mstore\n      returndatasize\n      dup3\n      mstore\n      returndatasize\n      0x00\n      0x20\n      dup5\n      add\n      returndatacopy\n      jump(tag_80)\n    tag_81:\n      0x60\n      swap2\n      pop\n    tag_80:\n      pop\n        /* \"contracts/Tenant.sol\":2917:3012  (bool sent,) = consorcioAddress.call {... */\n      swap1\n      swap2\n      pop\n      pop\n        /* \"contracts/Tenant.sol\":3039:3043  true */\n      0x01\n        /* \"contracts/Tenant.sol\":3031:3043  sent == true */\n      dup2\n      iszero\n      iszero\n      eq\n        /* \"contracts/Tenant.sol\":3023:3070  require(sent == true, \"Fallo la transferencia\") */\n      tag_82\n      jumpi\n      mload(0x40)\n      mul(0x461bcd, exp(0x02, 0xe5))\n      dup2\n      mstore\n        /* \"#utility.yul\":4383:4385   */\n      0x20\n        /* \"contracts/Tenant.sol\":3023:3070  require(sent == true, \"Fallo la transferencia\") */\n      0x04\n      dup3\n      add\n        /* \"#utility.yul\":4365:4386   */\n      mstore\n        /* \"#utility.yul\":4422:4424   */\n      0x16\n        /* \"#utility.yul\":4402:4420   */\n      0x24\n      dup3\n      add\n        /* \"#utility.yul\":4395:4425   */\n      mstore\n        /* \"#utility.yul\":4461:4485   */\n      0x46616c6c6f206c61207472616e73666572656e63696100000000000000000000\n        /* \"#utility.yul\":4441:4459   */\n      0x44\n      dup3\n      add\n        /* \"#utility.yul\":4434:4486   */\n      mstore\n        /* \"#utility.yul\":4503:4521   */\n      0x64\n      add\n        /* \"contracts/Tenant.sol\":3023:3070  require(sent == true, \"Fallo la transferencia\") */\n      tag_75\n        /* \"#utility.yul\":4181:4527   */\n      jump\n        /* \"contracts/Tenant.sol\":3023:3070  require(sent == true, \"Fallo la transferencia\") */\n    tag_82:\n        /* \"contracts/Tenant.sol\":3086:3121  ExpensesPaid(address(this).balance) */\n      mload(0x40)\n        /* \"contracts/Tenant.sol\":3107:3111  this */\n      address\n        /* \"contracts/Tenant.sol\":3099:3120  address(this).balance */\n      balance\n        /* \"#utility.yul\":4678:4703   */\n      dup2\n      mstore\n        /* \"contracts/Tenant.sol\":3086:3121  ExpensesPaid(address(this).balance) */\n      0x56e1cf8a52e84572ff49b950fa9a1a1867319bf8eba3bf8c77bc4354678a34c5\n      swap1\n        /* \"#utility.yul\":4666:4668   */\n      0x20\n        /* \"#utility.yul\":4651:4669   */\n      add\n        /* \"contracts/Tenant.sol\":3086:3121  ExpensesPaid(address(this).balance) */\n    tag_85:\n      mload(0x40)\n      dup1\n      swap2\n      sub\n      swap1\n      log1\n        /* \"contracts/Tenant.sol\":2610:3129  {... */\n      pop\n        /* \"contracts/Tenant.sol\":2555:3129  function payExpensesForOwner() public payable onlyOwner{... */\n      jump\t// out\n        /* \"contracts/Tenant.sol\":1209:1466  function addNewTenant(string memory _name, address _tenantAddress, uint _rentalCost, string memory _residence) public onlyOwner {... */\n    tag_42:\n        /* \"@openzeppelin/contracts/access/Ownable.sol\":1094:1107  _checkOwner() */\n      tag_88\n        /* \"@openzeppelin/contracts/access/Ownable.sol\":1094:1105  _checkOwner */\n      tag_63\n        /* \"@openzeppelin/contracts/access/Ownable.sol\":1094:1107  _checkOwner() */\n      jump\t// in\n    tag_88:\n        /* \"contracts/Tenant.sol\":1380:1458  TenantStruct(_name, _tenantAddress, _rentalCost, _residence, consorcioAddress) */\n      0x40\n      dup1\n      mload\n      0xa0\n      dup2\n      add\n      dup3\n      mstore\n      dup6\n      dup2\n      mstore\n      sub(exp(0x02, 0xa0), 0x01)\n      dup1\n      dup7\n      and\n      0x20\n      dup1\n      dup5\n      add\n      dup3\n      swap1\n      mstore\n      dup4\n      dup6\n      add\n      dup8\n      swap1\n      mstore\n      0x60\n      dup5\n      add\n      dup7\n      swap1\n      mstore\n        /* \"contracts/Tenant.sol\":1441:1457  consorcioAddress */\n      sload(0x03)\n      swap1\n      swap3\n      and\n        /* \"contracts/Tenant.sol\":1380:1458  TenantStruct(_name, _tenantAddress, _rentalCost, _residence, consorcioAddress) */\n      0x80\n      dup5\n      add\n      mstore\n      0x00\n        /* \"contracts/Tenant.sol\":1348:1377  tenantMapping[_tenantAddress] */\n      swap1\n      dup2\n      mstore\n        /* \"contracts/Tenant.sol\":1348:1361  tenantMapping */\n      0x04\n        /* \"contracts/Tenant.sol\":1348:1377  tenantMapping[_tenantAddress] */\n      swap1\n      swap2\n      mstore\n      swap2\n      swap1\n      swap2\n      keccak256\n        /* \"contracts/Tenant.sol\":1348:1458  tenantMapping[_tenantAddress] = TenantStruct(_name, _tenantAddress, _rentalCost, _residence, consorcioAddress) */\n      dup2\n      mload\n        /* \"contracts/Tenant.sol\":1348:1377  tenantMapping[_tenantAddress] */\n      dup2\n      swap1\n        /* \"contracts/Tenant.sol\":1348:1458  tenantMapping[_tenantAddress] = TenantStruct(_name, _tenantAddress, _rentalCost, _residence, consorcioAddress) */\n      tag_90\n      swap1\n        /* \"contracts/Tenant.sol\":1348:1377  tenantMapping[_tenantAddress] */\n      dup3\n        /* \"contracts/Tenant.sol\":1348:1458  tenantMapping[_tenantAddress] = TenantStruct(_name, _tenantAddress, _rentalCost, _residence, consorcioAddress) */\n      tag_91\n      jump\t// in\n    tag_90:\n      pop\n      0x20\n      dup3\n      add\n      mload\n      0x01\n      dup3\n      add\n      dup1\n      sload\n      not(0xffffffffffffffffffffffffffffffffffffffff)\n      and\n      sub(exp(0x02, 0xa0), 0x01)\n      swap1\n      swap3\n      and\n      swap2\n      swap1\n      swap2\n      or\n      swap1\n      sstore\n      0x40\n      dup3\n      add\n      mload\n      0x02\n      dup3\n      add\n      sstore\n      0x60\n      dup3\n      add\n      mload\n      0x03\n      dup3\n      add\n      swap1\n      tag_92\n      swap1\n      dup3\n      tag_91\n      jump\t// in\n    tag_92:\n      pop\n      0x80\n      swap2\n      swap1\n      swap2\n      add\n      mload\n      0x04\n      swap1\n      swap2\n      add\n      dup1\n      sload\n      not(0xffffffffffffffffffffffffffffffffffffffff)\n      and\n      sub(exp(0x02, 0xa0), 0x01)\n      swap1\n      swap3\n      and\n      swap2\n      swap1\n      swap2\n      or\n      swap1\n      sstore\n      pop\n      pop\n      pop\n      pop\n        /* \"contracts/Tenant.sol\":1209:1466  function addNewTenant(string memory _name, address _tenantAddress, uint _rentalCost, string memory _residence) public onlyOwner {... */\n      jump\t// out\n        /* \"contracts/Tenant.sol\":964:1199  function deposit() public payable onlyPayers{... */\n    tag_44:\n        /* \"contracts/Tenant.sol\":631:641  msg.sender */\n      caller\n        /* \"contracts/Tenant.sol\":617:642  tenantMapping[msg.sender] */\n      0x00\n      dup2\n      dup2\n      mstore\n        /* \"contracts/Tenant.sol\":617:630  tenantMapping */\n      0x04\n        /* \"contracts/Tenant.sol\":617:642  tenantMapping[msg.sender] */\n      0x20\n      mstore\n      0x40\n      swap1\n      keccak256\n        /* \"contracts/Tenant.sol\":617:656  tenantMapping[msg.sender].tenantAddress */\n      0x01\n      add\n      sload\n      sub(exp(0x02, 0xa0), 0x01)\n      and\n        /* \"contracts/Tenant.sol\":594:656  address(msg.sender) == tenantMapping[msg.sender].tenantAddress */\n      eq\n        /* \"contracts/Tenant.sol\":586:683  require(address(msg.sender) == tenantMapping[msg.sender].tenantAddress, \"You aren't valid payer\") */\n      tag_94\n      jumpi\n      mload(0x40)\n      mul(0x461bcd, exp(0x02, 0xe5))\n      dup2\n      mstore\n        /* \"#utility.yul\":7583:7585   */\n      0x20\n        /* \"contracts/Tenant.sol\":586:683  require(address(msg.sender) == tenantMapping[msg.sender].tenantAddress, \"You aren't valid payer\") */\n      0x04\n      dup3\n      add\n        /* \"#utility.yul\":7565:7586   */\n      mstore\n        /* \"#utility.yul\":7622:7624   */\n      0x16\n        /* \"#utility.yul\":7602:7620   */\n      0x24\n      dup3\n      add\n        /* \"#utility.yul\":7595:7625   */\n      mstore\n        /* \"#utility.yul\":7661:7685   */\n      0x596f75206172656e27742076616c696420706179657200000000000000000000\n        /* \"#utility.yul\":7641:7659   */\n      0x44\n      dup3\n      add\n        /* \"#utility.yul\":7634:7686   */\n      mstore\n        /* \"#utility.yul\":7703:7721   */\n      0x64\n      add\n        /* \"contracts/Tenant.sol\":586:683  require(address(msg.sender) == tenantMapping[msg.sender].tenantAddress, \"You aren't valid payer\") */\n      tag_75\n        /* \"#utility.yul\":7381:7727   */\n      jump\n        /* \"contracts/Tenant.sol\":586:683  require(address(msg.sender) == tenantMapping[msg.sender].tenantAddress, \"You aren't valid payer\") */\n    tag_94:\n        /* \"contracts/Tenant.sol\":1051:1061  msg.sender */\n      caller\n        /* \"contracts/Tenant.sol\":1019:1034  uint rentalCost */\n      0x00\n        /* \"contracts/Tenant.sol\":1037:1062  tenantMapping[msg.sender] */\n      swap1\n      dup2\n      mstore\n        /* \"contracts/Tenant.sol\":1037:1050  tenantMapping */\n      0x04\n        /* \"contracts/Tenant.sol\":1037:1062  tenantMapping[msg.sender] */\n      0x20\n      mstore\n      0x40\n      swap1\n      keccak256\n        /* \"contracts/Tenant.sol\":1037:1073  tenantMapping[msg.sender].rentalCost */\n      0x02\n      add\n      sload\n        /* \"contracts/Tenant.sol\":1092:1101  msg.value */\n      callvalue\n        /* \"contracts/Tenant.sol\":1092:1115  msg.value >= rentalCost */\n      dup2\n      gt\n      iszero\n        /* \"contracts/Tenant.sol\":1084:1151  require(msg.value >= rentalCost, \"The funds sent are insufficient\") */\n      tag_98\n      jumpi\n      mload(0x40)\n      mul(0x461bcd, exp(0x02, 0xe5))\n      dup2\n      mstore\n      0x04\n      add\n      tag_75\n      swap1\n      tag_76\n      jump\t// in\n    tag_98:\n        /* \"contracts/Tenant.sol\":1167:1191  EtherReceived(msg.value) */\n      mload(0x40)\n        /* \"contracts/Tenant.sol\":1181:1190  msg.value */\n      callvalue\n        /* \"#utility.yul\":4678:4703   */\n      dup2\n      mstore\n        /* \"contracts/Tenant.sol\":1167:1191  EtherReceived(msg.value) */\n      0x0a34e3d4f1e6b837dbce1011b61499fa1a483a0abee6a7a6697660b4b2d97132\n      swap1\n        /* \"#utility.yul\":4666:4668   */\n      0x20\n        /* \"#utility.yul\":4651:4669   */\n      add\n        /* \"contracts/Tenant.sol\":1167:1191  EtherReceived(msg.value) */\n      tag_85\n        /* \"#utility.yul\":4532:4709   */\n      jump\n        /* \"contracts/Tenant.sol\":2156:2547  function payExpenses() public payable onlyPayers{... */\n    tag_49:\n        /* \"contracts/Tenant.sol\":631:641  msg.sender */\n      caller\n        /* \"contracts/Tenant.sol\":617:642  tenantMapping[msg.sender] */\n      0x00\n      dup2\n      dup2\n      mstore\n        /* \"contracts/Tenant.sol\":617:630  tenantMapping */\n      0x04\n        /* \"contracts/Tenant.sol\":617:642  tenantMapping[msg.sender] */\n      0x20\n      mstore\n      0x40\n      swap1\n      keccak256\n        /* \"contracts/Tenant.sol\":617:656  tenantMapping[msg.sender].tenantAddress */\n      0x01\n      add\n      sload\n      sub(exp(0x02, 0xa0), 0x01)\n      and\n        /* \"contracts/Tenant.sol\":594:656  address(msg.sender) == tenantMapping[msg.sender].tenantAddress */\n      eq\n        /* \"contracts/Tenant.sol\":586:683  require(address(msg.sender) == tenantMapping[msg.sender].tenantAddress, \"You aren't valid payer\") */\n      tag_103\n      jumpi\n      mload(0x40)\n      mul(0x461bcd, exp(0x02, 0xe5))\n      dup2\n      mstore\n        /* \"#utility.yul\":7583:7585   */\n      0x20\n        /* \"contracts/Tenant.sol\":586:683  require(address(msg.sender) == tenantMapping[msg.sender].tenantAddress, \"You aren't valid payer\") */\n      0x04\n      dup3\n      add\n        /* \"#utility.yul\":7565:7586   */\n      mstore\n        /* \"#utility.yul\":7622:7624   */\n      0x16\n        /* \"#utility.yul\":7602:7620   */\n      0x24\n      dup3\n      add\n        /* \"#utility.yul\":7595:7625   */\n      mstore\n        /* \"#utility.yul\":7661:7685   */\n      0x596f75206172656e27742076616c696420706179657200000000000000000000\n        /* \"#utility.yul\":7641:7659   */\n      0x44\n      dup3\n      add\n        /* \"#utility.yul\":7634:7686   */\n      mstore\n        /* \"#utility.yul\":7703:7721   */\n      0x64\n      add\n        /* \"contracts/Tenant.sol\":586:683  require(address(msg.sender) == tenantMapping[msg.sender].tenantAddress, \"You aren't valid payer\") */\n      tag_75\n        /* \"#utility.yul\":7381:7727   */\n      jump\n        /* \"contracts/Tenant.sol\":586:683  require(address(msg.sender) == tenantMapping[msg.sender].tenantAddress, \"You aren't valid payer\") */\n    tag_103:\n        /* \"contracts/Tenant.sol\":2247:2257  msg.sender */\n      caller\n        /* \"contracts/Tenant.sol\":2215:2230  uint rentalCost */\n      0x00\n        /* \"contracts/Tenant.sol\":2233:2258  tenantMapping[msg.sender] */\n      swap1\n      dup2\n      mstore\n        /* \"contracts/Tenant.sol\":2233:2246  tenantMapping */\n      0x04\n        /* \"contracts/Tenant.sol\":2233:2258  tenantMapping[msg.sender] */\n      0x20\n      mstore\n      0x40\n      swap1\n      keccak256\n        /* \"contracts/Tenant.sol\":2233:2269  tenantMapping[msg.sender].rentalCost */\n      0x02\n      add\n      sload\n        /* \"contracts/Tenant.sol\":2288:2297  msg.value */\n      callvalue\n        /* \"contracts/Tenant.sol\":2288:2311  msg.value >= rentalCost */\n      dup2\n      gt\n      iszero\n        /* \"contracts/Tenant.sol\":2280:2347  require(msg.value >= rentalCost, \"The funds sent are insufficient\") */\n      tag_106\n      jumpi\n      mload(0x40)\n      mul(0x461bcd, exp(0x02, 0xe5))\n      dup2\n      mstore\n      0x04\n      add\n      tag_75\n      swap1\n      tag_76\n      jump\t// in\n    tag_106:\n        /* \"contracts/Tenant.sol\":2373:2389  consorcioAddress */\n      sload(0x03)\n        /* \"contracts/Tenant.sol\":2373:2441  consorcioAddress.call {... */\n      mload(0x40)\n        /* \"contracts/Tenant.sol\":2359:2368  bool sent */\n      0x00\n      swap2\n      sub(exp(0x02, 0xa0), 0x01)\n        /* \"contracts/Tenant.sol\":2373:2389  consorcioAddress */\n      and\n      swap1\n        /* \"contracts/Tenant.sol\":2417:2426  msg.value */\n      callvalue\n      swap1\n        /* \"contracts/Tenant.sol\":2359:2368  bool sent */\n      dup4\n        /* \"contracts/Tenant.sol\":2373:2441  consorcioAddress.call {... */\n      dup2\n        /* \"contracts/Tenant.sol\":2359:2368  bool sent */\n      dup2\n        /* \"contracts/Tenant.sol\":2373:2441  consorcioAddress.call {... */\n      dup2\n        /* \"contracts/Tenant.sol\":2417:2426  msg.value */\n      dup6\n        /* \"contracts/Tenant.sol\":2373:2389  consorcioAddress */\n      dup8\n        /* \"contracts/Tenant.sol\":2373:2441  consorcioAddress.call {... */\n      gas\n      call\n      swap3\n      pop\n      pop\n      pop\n      returndatasize\n      dup1\n      0x00\n      dup2\n      eq\n      tag_111\n      jumpi\n      mload(0x40)\n      swap2\n      pop\n      and(add(returndatasize, 0x3f), not(0x1f))\n      dup3\n      add\n      0x40\n      mstore\n      returndatasize\n      dup3\n      mstore\n      returndatasize\n      0x00\n      0x20\n      dup5\n      add\n      returndatacopy\n      jump(tag_110)\n    tag_111:\n      0x60\n      swap2\n      pop\n    tag_110:\n      pop\n        /* \"contracts/Tenant.sol\":2358:2441  (bool sent,) = consorcioAddress.call {... */\n      swap1\n      swap2\n      pop\n      pop\n        /* \"contracts/Tenant.sol\":2468:2472  true */\n      0x01\n        /* \"contracts/Tenant.sol\":2460:2472  sent == true */\n      dup2\n      iszero\n      iszero\n      eq\n        /* \"contracts/Tenant.sol\":2452:2499  require(sent == true, \"Fallo la transferencia\") */\n      tag_112\n      jumpi\n      mload(0x40)\n      mul(0x461bcd, exp(0x02, 0xe5))\n      dup2\n      mstore\n        /* \"#utility.yul\":4383:4385   */\n      0x20\n        /* \"contracts/Tenant.sol\":2452:2499  require(sent == true, \"Fallo la transferencia\") */\n      0x04\n      dup3\n      add\n        /* \"#utility.yul\":4365:4386   */\n      mstore\n        /* \"#utility.yul\":4422:4424   */\n      0x16\n        /* \"#utility.yul\":4402:4420   */\n      0x24\n      dup3\n      add\n        /* \"#utility.yul\":4395:4425   */\n      mstore\n        /* \"#utility.yul\":4461:4485   */\n      0x46616c6c6f206c61207472616e73666572656e63696100000000000000000000\n        /* \"#utility.yul\":4441:4459   */\n      0x44\n      dup3\n      add\n        /* \"#utility.yul\":4434:4486   */\n      mstore\n        /* \"#utility.yul\":4503:4521   */\n      0x64\n      add\n        /* \"contracts/Tenant.sol\":2452:2499  require(sent == true, \"Fallo la transferencia\") */\n      tag_75\n        /* \"#utility.yul\":4181:4527   */\n      jump\n        /* \"contracts/Tenant.sol\":2452:2499  require(sent == true, \"Fallo la transferencia\") */\n    tag_112:\n        /* \"contracts/Tenant.sol\":2515:2539  ExpensesPaid(rentalCost) */\n      mload(0x40)\n        /* \"#utility.yul\":4678:4703   */\n      dup3\n      dup2\n      mstore\n        /* \"contracts/Tenant.sol\":2515:2539  ExpensesPaid(rentalCost) */\n      0x56e1cf8a52e84572ff49b950fa9a1a1867319bf8eba3bf8c77bc4354678a34c5\n      swap1\n        /* \"#utility.yul\":4666:4668   */\n      0x20\n        /* \"#utility.yul\":4651:4669   */\n      add\n        /* \"contracts/Tenant.sol\":2515:2539  ExpensesPaid(rentalCost) */\n      mload(0x40)\n      dup1\n      swap2\n      sub\n      swap1\n      log1\n        /* \"contracts/Tenant.sol\":2204:2547  {... */\n      pop\n      pop\n        /* \"contracts/Tenant.sol\":2156:2547  function payExpenses() public payable onlyPayers{... */\n      jump\t// out\n        /* \"contracts/Tenant.sol\":1476:1979  function getTenant(address _tenantAddress) public view returns(string memory name, address tenantAddress, uint rentalCost, string memory residence, address consorcioContractAddress){... */\n    tag_54:\n      sub(exp(0x02, 0xa0), 0x01)\n        /* \"contracts/Tenant.sol\":1690:1719  tenantMapping[_tenantAddress] */\n      dup1\n      dup3\n      and\n        /* \"contracts/Tenant.sol\":1559:1580  address tenantAddress */\n      0x00\n        /* \"contracts/Tenant.sol\":1690:1719  tenantMapping[_tenantAddress] */\n      swap1\n      dup2\n      mstore\n        /* \"contracts/Tenant.sol\":1690:1703  tenantMapping */\n      0x04\n        /* \"contracts/Tenant.sol\":1690:1719  tenantMapping[_tenantAddress] */\n      0x20\n      dup2\n      swap1\n      mstore\n      0x40\n      dup3\n      keccak256\n        /* \"contracts/Tenant.sol\":1739:1782  tenantMapping[_tenantAddress].tenantAddress */\n      0x01\n      dup2\n      add\n      sload\n        /* \"contracts/Tenant.sol\":1797:1837  tenantMapping[_tenantAddress].rentalCost */\n      0x02\n      dup3\n      add\n      sload\n        /* \"contracts/Tenant.sol\":1906:1960  tenantMapping[_tenantAddress].consorcioContractAddress */\n      swap3\n      dup3\n      add\n      sload\n        /* \"contracts/Tenant.sol\":1668:1971  return (... */\n      dup3\n      sload\n        /* \"contracts/Tenant.sol\":1539:1557  string memory name */\n      0x60\n      swap7\n        /* \"contracts/Tenant.sol\":1559:1580  address tenantAddress */\n      dup7\n      swap6\n        /* \"contracts/Tenant.sol\":1539:1557  string memory name */\n      dup9\n      swap6\n        /* \"contracts/Tenant.sol\":1559:1580  address tenantAddress */\n      dup8\n      swap6\n        /* \"contracts/Tenant.sol\":1690:1719  tenantMapping[_tenantAddress] */\n      swap1\n      swap5\n        /* \"contracts/Tenant.sol\":1739:1782  tenantMapping[_tenantAddress].tenantAddress */\n      swap1\n      dup4\n      and\n      swap4\n        /* \"contracts/Tenant.sol\":1797:1837  tenantMapping[_tenantAddress].rentalCost */\n      swap2\n      swap3\n        /* \"contracts/Tenant.sol\":1852:1891  tenantMapping[_tenantAddress].residence */\n      0x03\n      dup7\n      add\n      swap3\n        /* \"contracts/Tenant.sol\":1906:1960  tenantMapping[_tenantAddress].consorcioContractAddress */\n      swap2\n      and\n      swap1\n        /* \"contracts/Tenant.sol\":1690:1719  tenantMapping[_tenantAddress] */\n      dup6\n      swap1\n        /* \"contracts/Tenant.sol\":1668:1971  return (... */\n      tag_116\n      swap1\n      tag_117\n      jump\t// in\n    tag_116:\n      dup1\n      0x1f\n      add\n      0x20\n      dup1\n      swap2\n      div\n      mul\n      0x20\n      add\n      mload(0x40)\n      swap1\n      dup2\n      add\n      0x40\n      mstore\n      dup1\n      swap3\n      swap2\n      swap1\n      dup2\n      dup2\n      mstore\n      0x20\n      add\n      dup3\n      dup1\n      sload\n      tag_118\n      swap1\n      tag_117\n      jump\t// in\n    tag_118:\n      dup1\n      iszero\n      tag_119\n      jumpi\n      dup1\n      0x1f\n      lt\n      tag_120\n      jumpi\n      0x0100\n      dup1\n      dup4\n      sload\n      div\n      mul\n      dup4\n      mstore\n      swap2\n      0x20\n      add\n      swap2\n      jump(tag_119)\n    tag_120:\n      dup3\n      add\n      swap2\n      swap1\n      0x00\n      mstore\n      keccak256(0x00, 0x20)\n      swap1\n    tag_121:\n      dup2\n      sload\n      dup2\n      mstore\n      swap1\n      0x01\n      add\n      swap1\n      0x20\n      add\n      dup1\n      dup4\n      gt\n      tag_121\n      jumpi\n      dup3\n      swap1\n      sub\n      0x1f\n      and\n      dup3\n      add\n      swap2\n    tag_119:\n      pop\n      pop\n      pop\n      pop\n      pop\n      swap5\n      pop\n      dup2\n      dup1\n      sload\n      tag_122\n      swap1\n      tag_117\n      jump\t// in\n    tag_122:\n      dup1\n      0x1f\n      add\n      0x20\n      dup1\n      swap2\n      div\n      mul\n      0x20\n      add\n      mload(0x40)\n      swap1\n      dup2\n      add\n      0x40\n      mstore\n      dup1\n      swap3\n      swap2\n      swap1\n      dup2\n      dup2\n      mstore\n      0x20\n      add\n      dup3\n      dup1\n      sload\n      tag_123\n      swap1\n      tag_117\n      jump\t// in\n    tag_123:\n      dup1\n      iszero\n      tag_124\n      jumpi\n      dup1\n      0x1f\n      lt\n      tag_125\n      jumpi\n      0x0100\n      dup1\n      dup4\n      sload\n      div\n      mul\n      dup4\n      mstore\n      swap2\n      0x20\n      add\n      swap2\n      jump(tag_124)\n    tag_125:\n      dup3\n      add\n      swap2\n      swap1\n      0x00\n      mstore\n      keccak256(0x00, 0x20)\n      swap1\n    tag_126:\n      dup2\n      sload\n      dup2\n      mstore\n      swap1\n      0x01\n      add\n      swap1\n      0x20\n      add\n      dup1\n      dup4\n      gt\n      tag_126\n      jumpi\n      dup3\n      swap1\n      sub\n      0x1f\n      and\n      dup3\n      add\n      swap2\n    tag_124:\n      pop\n      pop\n      pop\n      pop\n      pop\n      swap2\n      pop\n      swap5\n      pop\n      swap5\n      pop\n      swap5\n      pop\n      swap5\n      pop\n      swap5\n      pop\n        /* \"contracts/Tenant.sol\":1476:1979  function getTenant(address _tenantAddress) public view returns(string memory name, address tenantAddress, uint rentalCost, string memory residence, address consorcioContractAddress){... */\n      swap2\n      swap4\n      swap6\n      swap1\n      swap3\n      swap5\n      pop\n      jump\t// out\n        /* \"@openzeppelin/contracts/access/Ownable.sol\":2081:2279  function transferOwnership(address newOwner) public virtual onlyOwner {... */\n    tag_60:\n        /* \"@openzeppelin/contracts/access/Ownable.sol\":1094:1107  _checkOwner() */\n      tag_128\n        /* \"@openzeppelin/contracts/access/Ownable.sol\":1094:1105  _checkOwner */\n      tag_63\n        /* \"@openzeppelin/contracts/access/Ownable.sol\":1094:1107  _checkOwner() */\n      jump\t// in\n    tag_128:\n      sub(exp(0x02, 0xa0), 0x01)\n        /* \"@openzeppelin/contracts/access/Ownable.sol\":2169:2191  newOwner != address(0) */\n      dup2\n      and\n        /* \"@openzeppelin/contracts/access/Ownable.sol\":2161:2234  require(newOwner != address(0), \"Ownable: new owner is the zero address\") */\n      tag_130\n      jumpi\n      mload(0x40)\n      mul(0x461bcd, exp(0x02, 0xe5))\n      dup2\n      mstore\n        /* \"#utility.yul\":7934:7936   */\n      0x20\n        /* \"@openzeppelin/contracts/access/Ownable.sol\":2161:2234  require(newOwner != address(0), \"Ownable: new owner is the zero address\") */\n      0x04\n      dup3\n      add\n        /* \"#utility.yul\":7916:7937   */\n      mstore\n        /* \"#utility.yul\":7973:7975   */\n      0x26\n        /* \"#utility.yul\":7953:7971   */\n      0x24\n      dup3\n      add\n        /* \"#utility.yul\":7946:7976   */\n      mstore\n        /* \"#utility.yul\":8012:8046   */\n      0x4f776e61626c653a206e6577206f776e657220697320746865207a65726f2061\n        /* \"#utility.yul\":7992:8010   */\n      0x44\n      dup3\n      add\n        /* \"#utility.yul\":7985:8047   */\n      mstore\n        /* \"#utility.yul\":8083:8091   */\n      0x6464726573730000000000000000000000000000000000000000000000000000\n        /* \"#utility.yul\":8063:8081   */\n      0x64\n      dup3\n      add\n        /* \"#utility.yul\":8056:8092   */\n      mstore\n        /* \"#utility.yul\":8109:8128   */\n      0x84\n      add\n        /* \"@openzeppelin/contracts/access/Ownable.sol\":2161:2234  require(newOwner != address(0), \"Ownable: new owner is the zero address\") */\n      tag_75\n        /* \"#utility.yul\":7732:8134   */\n      jump\n        /* \"@openzeppelin/contracts/access/Ownable.sol\":2161:2234  require(newOwner != address(0), \"Ownable: new owner is the zero address\") */\n    tag_130:\n        /* \"@openzeppelin/contracts/access/Ownable.sol\":2244:2272  _transferOwnership(newOwner) */\n      tag_133\n        /* \"@openzeppelin/contracts/access/Ownable.sol\":2263:2271  newOwner */\n      dup2\n        /* \"@openzeppelin/contracts/access/Ownable.sol\":2244:2262  _transferOwnership */\n      tag_66\n        /* \"@openzeppelin/contracts/access/Ownable.sol\":2244:2272  _transferOwnership(newOwner) */\n      jump\t// in\n    tag_133:\n        /* \"@openzeppelin/contracts/access/Ownable.sol\":2081:2279  function transferOwnership(address newOwner) public virtual onlyOwner {... */\n      pop\n      jump\t// out\n        /* \"@openzeppelin/contracts/access/Ownable.sol\":1359:1489  function _checkOwner() internal view virtual {... */\n    tag_63:\n        /* \"@openzeppelin/contracts/access/Ownable.sol\":1273:1279  _owner */\n      and(sub(exp(0x02, 0xa0), 0x01), sload(0x02))\n        /* \"@openzeppelin/contracts/utils/Context.sol\":719:729  msg.sender */\n      caller\n        /* \"@openzeppelin/contracts/access/Ownable.sol\":1422:1445  owner() == _msgSender() */\n      eq\n        /* \"@openzeppelin/contracts/access/Ownable.sol\":1414:1482  require(owner() == _msgSender(), \"Ownable: caller is not the owner\") */\n      tag_65\n      jumpi\n      mload(0x40)\n      mul(0x461bcd, exp(0x02, 0xe5))\n      dup2\n      mstore\n        /* \"#utility.yul\":8341:8343   */\n      0x20\n        /* \"@openzeppelin/contracts/access/Ownable.sol\":1414:1482  require(owner() == _msgSender(), \"Ownable: caller is not the owner\") */\n      0x04\n      dup3\n      add\n        /* \"#utility.yul\":8323:8344   */\n      dup2\n      swap1\n      mstore\n        /* \"#utility.yul\":8360:8378   */\n      0x24\n      dup3\n      add\n        /* \"#utility.yul\":8353:8383   */\n      mstore\n        /* \"#utility.yul\":8419:8453   */\n      0x4f776e61626c653a2063616c6c6572206973206e6f7420746865206f776e6572\n        /* \"#utility.yul\":8399:8417   */\n      0x44\n      dup3\n      add\n        /* \"#utility.yul\":8392:8454   */\n      mstore\n        /* \"#utility.yul\":8471:8489   */\n      0x64\n      add\n        /* \"@openzeppelin/contracts/access/Ownable.sol\":1414:1482  require(owner() == _msgSender(), \"Ownable: caller is not the owner\") */\n      tag_75\n        /* \"#utility.yul\":8139:8495   */\n      jump\n        /* \"@openzeppelin/contracts/access/Ownable.sol\":2433:2620  function _transferOwnership(address newOwner) internal virtual {... */\n    tag_66:\n        /* \"@openzeppelin/contracts/access/Ownable.sol\":2525:2531  _owner */\n      0x02\n      dup1\n      sload\n      sub(exp(0x02, 0xa0), 0x01)\n        /* \"@openzeppelin/contracts/access/Ownable.sol\":2541:2558  _owner = newOwner */\n      dup4\n      dup2\n      and\n      not(0xffffffffffffffffffffffffffffffffffffffff)\n      dup4\n      and\n      dup2\n      or\n      swap1\n      swap4\n      sstore\n        /* \"@openzeppelin/contracts/access/Ownable.sol\":2573:2613  OwnershipTransferred(oldOwner, newOwner) */\n      mload(0x40)\n        /* \"@openzeppelin/contracts/access/Ownable.sol\":2525:2531  _owner */\n      swap2\n      and\n      swap2\n        /* \"@openzeppelin/contracts/access/Ownable.sol\":2541:2558  _owner = newOwner */\n      swap1\n        /* \"@openzeppelin/contracts/access/Ownable.sol\":2525:2531  _owner */\n      dup3\n      swap1\n        /* \"@openzeppelin/contracts/access/Ownable.sol\":2573:2613  OwnershipTransferred(oldOwner, newOwner) */\n      0x8be0079c531659141344cd1fd0a4f28419497f9722a3daafe3b4186f6b6457e0\n      swap1\n        /* \"@openzeppelin/contracts/access/Ownable.sol\":2506:2522  address oldOwner */\n      0x00\n      swap1\n        /* \"@openzeppelin/contracts/access/Ownable.sol\":2573:2613  OwnershipTransferred(oldOwner, newOwner) */\n      log3\n        /* \"@openzeppelin/contracts/access/Ownable.sol\":2496:2620  {... */\n      pop\n        /* \"@openzeppelin/contracts/access/Ownable.sol\":2433:2620  function _transferOwnership(address newOwner) internal virtual {... */\n      pop\n      jump\t// out\n        /* \"#utility.yul\":245:441   */\n    tag_143:\n        /* \"#utility.yul\":313:333   */\n      dup1\n      calldataload\n      sub(exp(0x02, 0xa0), 0x01)\n        /* \"#utility.yul\":362:416   */\n      dup2\n      and\n        /* \"#utility.yul\":352:417   */\n      dup2\n      eq\n        /* \"#utility.yul\":342:435   */\n      tag_153\n      jumpi\n        /* \"#utility.yul\":431:432   */\n      0x00\n        /* \"#utility.yul\":428:429   */\n      dup1\n        /* \"#utility.yul\":421:433   */\n      revert\n        /* \"#utility.yul\":342:435   */\n    tag_153:\n        /* \"#utility.yul\":245:441   */\n      swap2\n      swap1\n      pop\n      jump\t// out\n        /* \"#utility.yul\":446:700   */\n    tag_30:\n        /* \"#utility.yul\":514:520   */\n      0x00\n        /* \"#utility.yul\":522:528   */\n      dup1\n        /* \"#utility.yul\":575:577   */\n      0x40\n        /* \"#utility.yul\":563:572   */\n      dup4\n        /* \"#utility.yul\":554:561   */\n      dup6\n        /* \"#utility.yul\":550:573   */\n      sub\n        /* \"#utility.yul\":546:578   */\n      slt\n        /* \"#utility.yul\":543:595   */\n      iszero\n      tag_155\n      jumpi\n        /* \"#utility.yul\":591:592   */\n      0x00\n        /* \"#utility.yul\":588:589   */\n      dup1\n        /* \"#utility.yul\":581:593   */\n      revert\n        /* \"#utility.yul\":543:595   */\n    tag_155:\n        /* \"#utility.yul\":614:643   */\n      tag_156\n        /* \"#utility.yul\":633:642   */\n      dup4\n        /* \"#utility.yul\":614:643   */\n      tag_143\n      jump\t// in\n    tag_156:\n        /* \"#utility.yul\":604:643   */\n      swap5\n        /* \"#utility.yul\":690:692   */\n      0x20\n        /* \"#utility.yul\":675:693   */\n      swap4\n      swap1\n      swap4\n      add\n        /* \"#utility.yul\":662:694   */\n      calldataload\n      swap4\n      pop\n      pop\n      pop\n        /* \"#utility.yul\":446:700   */\n      jump\t// out\n        /* \"#utility.yul\":705:889   */\n    tag_144:\n        /* \"#utility.yul\":757:834   */\n      0x4e487b7100000000000000000000000000000000000000000000000000000000\n        /* \"#utility.yul\":754:755   */\n      0x00\n        /* \"#utility.yul\":747:835   */\n      mstore\n        /* \"#utility.yul\":854:858   */\n      0x41\n        /* \"#utility.yul\":851:852   */\n      0x04\n        /* \"#utility.yul\":844:859   */\n      mstore\n        /* \"#utility.yul\":878:882   */\n      0x24\n        /* \"#utility.yul\":875:876   */\n      0x00\n        /* \"#utility.yul\":868:883   */\n      revert\n        /* \"#utility.yul\":894:1613   */\n    tag_145:\n        /* \"#utility.yul\":937:942   */\n      0x00\n        /* \"#utility.yul\":990:993   */\n      dup3\n        /* \"#utility.yul\":983:987   */\n      0x1f\n        /* \"#utility.yul\":975:981   */\n      dup4\n        /* \"#utility.yul\":971:988   */\n      add\n        /* \"#utility.yul\":967:994   */\n      slt\n        /* \"#utility.yul\":957:1012   */\n      tag_159\n      jumpi\n        /* \"#utility.yul\":1008:1009   */\n      0x00\n        /* \"#utility.yul\":1005:1006   */\n      dup1\n        /* \"#utility.yul\":998:1010   */\n      revert\n        /* \"#utility.yul\":957:1012   */\n    tag_159:\n        /* \"#utility.yul\":1044:1050   */\n      dup2\n        /* \"#utility.yul\":1031:1051   */\n      calldataload\n        /* \"#utility.yul\":1070:1088   */\n      0xffffffffffffffff\n        /* \"#utility.yul\":1107:1109   */\n      dup1\n        /* \"#utility.yul\":1103:1105   */\n      dup3\n        /* \"#utility.yul\":1100:1110   */\n      gt\n        /* \"#utility.yul\":1097:1133   */\n      iszero\n      tag_161\n      jumpi\n        /* \"#utility.yul\":1113:1131   */\n      tag_161\n      tag_144\n      jump\t// in\n    tag_161:\n        /* \"#utility.yul\":1188:1190   */\n      0x40\n        /* \"#utility.yul\":1182:1191   */\n      mload\n        /* \"#utility.yul\":1156:1158   */\n      0x1f\n        /* \"#utility.yul\":1242:1255   */\n      dup4\n      add\n      not(0x1f)\n        /* \"#utility.yul\":1238:1260   */\n      swap1\n      dup2\n      and\n        /* \"#utility.yul\":1262:1264   */\n      0x3f\n        /* \"#utility.yul\":1234:1265   */\n      add\n        /* \"#utility.yul\":1230:1270   */\n      and\n        /* \"#utility.yul\":1218:1271   */\n      dup2\n      add\n      swap1\n        /* \"#utility.yul\":1286:1304   */\n      dup3\n      dup3\n      gt\n        /* \"#utility.yul\":1306:1328   */\n      dup2\n      dup4\n      lt\n        /* \"#utility.yul\":1283:1329   */\n      or\n        /* \"#utility.yul\":1280:1352   */\n      iszero\n      tag_163\n      jumpi\n        /* \"#utility.yul\":1332:1350   */\n      tag_163\n      tag_144\n      jump\t// in\n    tag_163:\n        /* \"#utility.yul\":1372:1382   */\n      dup2\n        /* \"#utility.yul\":1368:1370   */\n      0x40\n        /* \"#utility.yul\":1361:1383   */\n      mstore\n        /* \"#utility.yul\":1407:1409   */\n      dup4\n        /* \"#utility.yul\":1399:1405   */\n      dup2\n        /* \"#utility.yul\":1392:1410   */\n      mstore\n        /* \"#utility.yul\":1453:1456   */\n      dup7\n        /* \"#utility.yul\":1446:1450   */\n      0x20\n        /* \"#utility.yul\":1441:1443   */\n      dup6\n        /* \"#utility.yul\":1433:1439   */\n      dup9\n        /* \"#utility.yul\":1429:1444   */\n      add\n        /* \"#utility.yul\":1425:1451   */\n      add\n        /* \"#utility.yul\":1422:1457   */\n      gt\n        /* \"#utility.yul\":1419:1474   */\n      iszero\n      tag_164\n      jumpi\n        /* \"#utility.yul\":1470:1471   */\n      0x00\n        /* \"#utility.yul\":1467:1468   */\n      dup1\n        /* \"#utility.yul\":1460:1472   */\n      revert\n        /* \"#utility.yul\":1419:1474   */\n    tag_164:\n        /* \"#utility.yul\":1534:1536   */\n      dup4\n        /* \"#utility.yul\":1527:1531   */\n      0x20\n        /* \"#utility.yul\":1519:1525   */\n      dup8\n        /* \"#utility.yul\":1515:1532   */\n      add\n        /* \"#utility.yul\":1508:1512   */\n      0x20\n        /* \"#utility.yul\":1500:1506   */\n      dup4\n        /* \"#utility.yul\":1496:1513   */\n      add\n        /* \"#utility.yul\":1483:1537   */\n      calldatacopy\n        /* \"#utility.yul\":1581:1582   */\n      0x00\n        /* \"#utility.yul\":1574:1578   */\n      0x20\n        /* \"#utility.yul\":1569:1571   */\n      dup6\n        /* \"#utility.yul\":1561:1567   */\n      dup4\n        /* \"#utility.yul\":1557:1572   */\n      add\n        /* \"#utility.yul\":1553:1579   */\n      add\n        /* \"#utility.yul\":1546:1583   */\n      mstore\n        /* \"#utility.yul\":1601:1607   */\n      dup1\n        /* \"#utility.yul\":1592:1607   */\n      swap5\n      pop\n      pop\n      pop\n      pop\n      pop\n        /* \"#utility.yul\":894:1613   */\n      swap3\n      swap2\n      pop\n      pop\n      jump\t// out\n        /* \"#utility.yul\":1618:2304   */\n    tag_41:\n        /* \"#utility.yul\":1724:1730   */\n      0x00\n        /* \"#utility.yul\":1732:1738   */\n      dup1\n        /* \"#utility.yul\":1740:1746   */\n      0x00\n        /* \"#utility.yul\":1748:1754   */\n      dup1\n        /* \"#utility.yul\":1801:1804   */\n      0x80\n        /* \"#utility.yul\":1789:1798   */\n      dup6\n        /* \"#utility.yul\":1780:1787   */\n      dup8\n        /* \"#utility.yul\":1776:1799   */\n      sub\n        /* \"#utility.yul\":1772:1805   */\n      slt\n        /* \"#utility.yul\":1769:1822   */\n      iszero\n      tag_166\n      jumpi\n        /* \"#utility.yul\":1818:1819   */\n      0x00\n        /* \"#utility.yul\":1815:1816   */\n      dup1\n        /* \"#utility.yul\":1808:1820   */\n      revert\n        /* \"#utility.yul\":1769:1822   */\n    tag_166:\n        /* \"#utility.yul\":1858:1867   */\n      dup5\n        /* \"#utility.yul\":1845:1868   */\n      calldataload\n        /* \"#utility.yul\":1887:1905   */\n      0xffffffffffffffff\n        /* \"#utility.yul\":1928:1930   */\n      dup1\n        /* \"#utility.yul\":1920:1926   */\n      dup3\n        /* \"#utility.yul\":1917:1931   */\n      gt\n        /* \"#utility.yul\":1914:1948   */\n      iszero\n      tag_167\n      jumpi\n        /* \"#utility.yul\":1944:1945   */\n      0x00\n        /* \"#utility.yul\":1941:1942   */\n      dup1\n        /* \"#utility.yul\":1934:1946   */\n      revert\n        /* \"#utility.yul\":1914:1948   */\n    tag_167:\n        /* \"#utility.yul\":1967:2017   */\n      tag_168\n        /* \"#utility.yul\":2009:2016   */\n      dup9\n        /* \"#utility.yul\":2000:2006   */\n      dup4\n        /* \"#utility.yul\":1989:1998   */\n      dup10\n        /* \"#utility.yul\":1985:2007   */\n      add\n        /* \"#utility.yul\":1967:2017   */\n      tag_145\n      jump\t// in\n    tag_168:\n        /* \"#utility.yul\":1957:2017   */\n      swap6\n      pop\n        /* \"#utility.yul\":2036:2074   */\n      tag_169\n        /* \"#utility.yul\":2070:2072   */\n      0x20\n        /* \"#utility.yul\":2059:2068   */\n      dup9\n        /* \"#utility.yul\":2055:2073   */\n      add\n        /* \"#utility.yul\":2036:2074   */\n      tag_143\n      jump\t// in\n    tag_169:\n        /* \"#utility.yul\":2026:2074   */\n      swap5\n      pop\n        /* \"#utility.yul\":2121:2123   */\n      0x40\n        /* \"#utility.yul\":2110:2119   */\n      dup8\n        /* \"#utility.yul\":2106:2124   */\n      add\n        /* \"#utility.yul\":2093:2125   */\n      calldataload\n        /* \"#utility.yul\":2083:2125   */\n      swap4\n      pop\n        /* \"#utility.yul\":2178:2180   */\n      0x60\n        /* \"#utility.yul\":2167:2176   */\n      dup8\n        /* \"#utility.yul\":2163:2181   */\n      add\n        /* \"#utility.yul\":2150:2182   */\n      calldataload\n        /* \"#utility.yul\":2134:2182   */\n      swap2\n      pop\n        /* \"#utility.yul\":2207:2209   */\n      dup1\n        /* \"#utility.yul\":2197:2205   */\n      dup3\n        /* \"#utility.yul\":2194:2210   */\n      gt\n        /* \"#utility.yul\":2191:2227   */\n      iszero\n      tag_170\n      jumpi\n        /* \"#utility.yul\":2223:2224   */\n      0x00\n        /* \"#utility.yul\":2220:2221   */\n      dup1\n        /* \"#utility.yul\":2213:2225   */\n      revert\n        /* \"#utility.yul\":2191:2227   */\n    tag_170:\n      pop\n        /* \"#utility.yul\":2246:2298   */\n      tag_171\n        /* \"#utility.yul\":2290:2297   */\n      dup8\n        /* \"#utility.yul\":2279:2287   */\n      dup3\n        /* \"#utility.yul\":2268:2277   */\n      dup9\n        /* \"#utility.yul\":2264:2288   */\n      add\n        /* \"#utility.yul\":2246:2298   */\n      tag_145\n      jump\t// in\n    tag_171:\n        /* \"#utility.yul\":2236:2298   */\n      swap2\n      pop\n      pop\n        /* \"#utility.yul\":1618:2304   */\n      swap3\n      swap6\n      swap2\n      swap5\n      pop\n      swap3\n      pop\n      jump\t// out\n        /* \"#utility.yul\":2309:2495   */\n    tag_53:\n        /* \"#utility.yul\":2368:2374   */\n      0x00\n        /* \"#utility.yul\":2421:2423   */\n      0x20\n        /* \"#utility.yul\":2409:2418   */\n      dup3\n        /* \"#utility.yul\":2400:2407   */\n      dup5\n        /* \"#utility.yul\":2396:2419   */\n      sub\n        /* \"#utility.yul\":2392:2424   */\n      slt\n        /* \"#utility.yul\":2389:2441   */\n      iszero\n      tag_173\n      jumpi\n        /* \"#utility.yul\":2437:2438   */\n      0x00\n        /* \"#utility.yul\":2434:2435   */\n      dup1\n        /* \"#utility.yul\":2427:2439   */\n      revert\n        /* \"#utility.yul\":2389:2441   */\n    tag_173:\n        /* \"#utility.yul\":2460:2489   */\n      tag_174\n        /* \"#utility.yul\":2479:2488   */\n      dup3\n        /* \"#utility.yul\":2460:2489   */\n      tag_143\n      jump\t// in\n    tag_174:\n        /* \"#utility.yul\":2450:2489   */\n      swap4\n        /* \"#utility.yul\":2309:2495   */\n      swap3\n      pop\n      pop\n      pop\n      jump\t// out\n        /* \"#utility.yul\":2500:2923   */\n    tag_146:\n        /* \"#utility.yul\":2542:2545   */\n      0x00\n        /* \"#utility.yul\":2580:2585   */\n      dup2\n        /* \"#utility.yul\":2574:2586   */\n      mload\n        /* \"#utility.yul\":2607:2613   */\n      dup1\n        /* \"#utility.yul\":2602:2605   */\n      dup5\n        /* \"#utility.yul\":2595:2614   */\n      mstore\n        /* \"#utility.yul\":2632:2633   */\n      0x00\n        /* \"#utility.yul\":2642:2804   */\n    tag_176:\n        /* \"#utility.yul\":2656:2662   */\n      dup2\n        /* \"#utility.yul\":2653:2654   */\n      dup2\n        /* \"#utility.yul\":2650:2663   */\n      lt\n        /* \"#utility.yul\":2642:2804   */\n      iszero\n      tag_178\n      jumpi\n        /* \"#utility.yul\":2718:2722   */\n      0x20\n        /* \"#utility.yul\":2774:2787   */\n      dup2\n      dup6\n      add\n        /* \"#utility.yul\":2770:2792   */\n      dup2\n      add\n        /* \"#utility.yul\":2764:2793   */\n      mload\n        /* \"#utility.yul\":2746:2757   */\n      dup7\n      dup4\n      add\n        /* \"#utility.yul\":2742:2762   */\n      dup3\n      add\n        /* \"#utility.yul\":2735:2794   */\n      mstore\n        /* \"#utility.yul\":2671:2683   */\n      add\n        /* \"#utility.yul\":2642:2804   */\n      jump(tag_176)\n    tag_178:\n        /* \"#utility.yul\":2646:2649   */\n      pop\n        /* \"#utility.yul\":2849:2850   */\n      0x00\n        /* \"#utility.yul\":2842:2846   */\n      0x20\n        /* \"#utility.yul\":2833:2839   */\n      dup3\n        /* \"#utility.yul\":2828:2831   */\n      dup7\n        /* \"#utility.yul\":2824:2840   */\n      add\n        /* \"#utility.yul\":2820:2847   */\n      add\n        /* \"#utility.yul\":2813:2851   */\n      mstore\n        /* \"#utility.yul\":2912:2916   */\n      0x20\n        /* \"#utility.yul\":2905:2907   */\n      0x1f\n        /* \"#utility.yul\":2901:2908   */\n      not\n        /* \"#utility.yul\":2896:2898   */\n      0x1f\n        /* \"#utility.yul\":2888:2894   */\n      dup4\n        /* \"#utility.yul\":2884:2899   */\n      add\n        /* \"#utility.yul\":2880:2909   */\n      and\n        /* \"#utility.yul\":2875:2878   */\n      dup6\n        /* \"#utility.yul\":2871:2910   */\n      add\n        /* \"#utility.yul\":2867:2917   */\n      add\n        /* \"#utility.yul\":2860:2917   */\n      swap2\n      pop\n      pop\n        /* \"#utility.yul\":2500:2923   */\n      swap3\n      swap2\n      pop\n      pop\n      jump\t// out\n        /* \"#utility.yul\":2928:3606   */\n    tag_56:\n        /* \"#utility.yul\":3209:3212   */\n      0xa0\n        /* \"#utility.yul\":3198:3207   */\n      dup2\n        /* \"#utility.yul\":3191:3213   */\n      mstore\n        /* \"#utility.yul\":3172:3176   */\n      0x00\n        /* \"#utility.yul\":3236:3282   */\n      tag_180\n        /* \"#utility.yul\":3277:3280   */\n      0xa0\n        /* \"#utility.yul\":3266:3275   */\n      dup4\n        /* \"#utility.yul\":3262:3281   */\n      add\n        /* \"#utility.yul\":3254:3260   */\n      dup9\n        /* \"#utility.yul\":3236:3282   */\n      tag_146\n      jump\t// in\n    tag_180:\n      sub(exp(0x02, 0xa0), 0x01)\n        /* \"#utility.yul\":3391:3393   */\n      dup1\n        /* \"#utility.yul\":3383:3389   */\n      dup9\n        /* \"#utility.yul\":3379:3394   */\n      and\n        /* \"#utility.yul\":3374:3376   */\n      0x20\n        /* \"#utility.yul\":3363:3372   */\n      dup6\n        /* \"#utility.yul\":3359:3377   */\n      add\n        /* \"#utility.yul\":3352:3395   */\n      mstore\n        /* \"#utility.yul\":3431:3437   */\n      dup7\n        /* \"#utility.yul\":3426:3428   */\n      0x40\n        /* \"#utility.yul\":3415:3424   */\n      dup6\n        /* \"#utility.yul\":3411:3429   */\n      add\n        /* \"#utility.yul\":3404:3438   */\n      mstore\n        /* \"#utility.yul\":3486:3495   */\n      dup4\n        /* \"#utility.yul\":3478:3484   */\n      dup3\n        /* \"#utility.yul\":3474:3496   */\n      sub\n        /* \"#utility.yul\":3469:3471   */\n      0x60\n        /* \"#utility.yul\":3458:3467   */\n      dup6\n        /* \"#utility.yul\":3454:3472   */\n      add\n        /* \"#utility.yul\":3447:3497   */\n      mstore\n        /* \"#utility.yul\":3514:3547   */\n      tag_181\n        /* \"#utility.yul\":3540:3546   */\n      dup3\n        /* \"#utility.yul\":3532:3538   */\n      dup8\n        /* \"#utility.yul\":3514:3547   */\n      tag_146\n      jump\t// in\n    tag_181:\n        /* \"#utility.yul\":3506:3547   */\n      swap3\n      pop\n        /* \"#utility.yul\":3596:3598   */\n      dup1\n        /* \"#utility.yul\":3588:3594   */\n      dup6\n        /* \"#utility.yul\":3584:3599   */\n      and\n        /* \"#utility.yul\":3578:3581   */\n      0x80\n        /* \"#utility.yul\":3567:3576   */\n      dup6\n        /* \"#utility.yul\":3563:3582   */\n      add\n        /* \"#utility.yul\":3556:3600   */\n      mstore\n      pop\n      pop\n        /* \"#utility.yul\":2928:3606   */\n      swap7\n      swap6\n      pop\n      pop\n      pop\n      pop\n      pop\n      pop\n      jump\t// out\n        /* \"#utility.yul\":3611:3966   */\n    tag_76:\n        /* \"#utility.yul\":3813:3815   */\n      0x20\n        /* \"#utility.yul\":3795:3816   */\n      dup1\n      dup3\n      mstore\n        /* \"#utility.yul\":3852:3854   */\n      0x1f\n        /* \"#utility.yul\":3832:3850   */\n      swap1\n      dup3\n      add\n        /* \"#utility.yul\":3825:3855   */\n      mstore\n        /* \"#utility.yul\":3891:3924   */\n      0x5468652066756e64732073656e742061726520696e73756666696369656e7400\n        /* \"#utility.yul\":3886:3888   */\n      0x40\n        /* \"#utility.yul\":3871:3889   */\n      dup3\n      add\n        /* \"#utility.yul\":3864:3925   */\n      mstore\n        /* \"#utility.yul\":3957:3959   */\n      0x60\n        /* \"#utility.yul\":3942:3960   */\n      add\n      swap1\n        /* \"#utility.yul\":3611:3966   */\n      jump\t// out\n        /* \"#utility.yul\":4714:5151   */\n    tag_117:\n        /* \"#utility.yul\":4799:4800   */\n      0x02\n        /* \"#utility.yul\":4789:4801   */\n      dup2\n      div\n        /* \"#utility.yul\":4846:4847   */\n      0x01\n        /* \"#utility.yul\":4836:4848   */\n      dup3\n      and\n      dup1\n        /* \"#utility.yul\":4857:4918   */\n      tag_187\n      jumpi\n        /* \"#utility.yul\":4911:4915   */\n      0x7f\n        /* \"#utility.yul\":4903:4909   */\n      dup3\n        /* \"#utility.yul\":4899:4916   */\n      and\n        /* \"#utility.yul\":4889:4916   */\n      swap2\n      pop\n        /* \"#utility.yul\":4857:4918   */\n    tag_187:\n        /* \"#utility.yul\":4964:4966   */\n      0x20\n        /* \"#utility.yul\":4956:4962   */\n      dup3\n        /* \"#utility.yul\":4953:4967   */\n      lt\n        /* \"#utility.yul\":4933:4951   */\n      dup2\n        /* \"#utility.yul\":4930:4968   */\n      sub\n        /* \"#utility.yul\":4927:5145   */\n      tag_188\n      jumpi\n        /* \"#utility.yul\":5001:5078   */\n      0x4e487b7100000000000000000000000000000000000000000000000000000000\n        /* \"#utility.yul\":4998:4999   */\n      0x00\n        /* \"#utility.yul\":4991:5079   */\n      mstore\n        /* \"#utility.yul\":5102:5106   */\n      0x22\n        /* \"#utility.yul\":5099:5100   */\n      0x04\n        /* \"#utility.yul\":5092:5107   */\n      mstore\n        /* \"#utility.yul\":5130:5134   */\n      0x24\n        /* \"#utility.yul\":5127:5128   */\n      0x00\n        /* \"#utility.yul\":5120:5135   */\n      revert\n        /* \"#utility.yul\":4927:5145   */\n    tag_188:\n      pop\n        /* \"#utility.yul\":4714:5151   */\n      swap2\n      swap1\n      pop\n      jump\t// out\n        /* \"#utility.yul\":5282:5833   */\n    tag_148:\n        /* \"#utility.yul\":5384:5386   */\n      0x1f\n        /* \"#utility.yul\":5379:5382   */\n      dup3\n        /* \"#utility.yul\":5376:5387   */\n      gt\n        /* \"#utility.yul\":5373:5827   */\n      iszero\n      tag_191\n      jumpi\n        /* \"#utility.yul\":5420:5421   */\n      0x00\n        /* \"#utility.yul\":5445:5450   */\n      dup2\n        /* \"#utility.yul\":5441:5443   */\n      dup2\n        /* \"#utility.yul\":5434:5451   */\n      mstore\n        /* \"#utility.yul\":5490:5494   */\n      0x20\n        /* \"#utility.yul\":5486:5488   */\n      dup2\n        /* \"#utility.yul\":5476:5495   */\n      keccak256\n        /* \"#utility.yul\":5562:5566   */\n      0x20\n        /* \"#utility.yul\":5557:5559   */\n      0x1f\n        /* \"#utility.yul\":5545:5555   */\n      dup7\n        /* \"#utility.yul\":5541:5560   */\n      add\n        /* \"#utility.yul\":5537:5567   */\n      div\n        /* \"#utility.yul\":5531:5535   */\n      dup2\n        /* \"#utility.yul\":5527:5568   */\n      add\n        /* \"#utility.yul\":5599:5603   */\n      0x20\n        /* \"#utility.yul\":5587:5597   */\n      dup7\n        /* \"#utility.yul\":5584:5604   */\n      lt\n        /* \"#utility.yul\":5581:5628   */\n      iszero\n      tag_192\n      jumpi\n      pop\n        /* \"#utility.yul\":5622:5626   */\n      dup1\n        /* \"#utility.yul\":5581:5628   */\n    tag_192:\n        /* \"#utility.yul\":5679:5683   */\n      0x20\n        /* \"#utility.yul\":5674:5676   */\n      0x1f\n        /* \"#utility.yul\":5669:5672   */\n      dup7\n        /* \"#utility.yul\":5665:5677   */\n      add\n        /* \"#utility.yul\":5661:5684   */\n      div\n        /* \"#utility.yul\":5655:5659   */\n      dup3\n        /* \"#utility.yul\":5651:5685   */\n      add\n        /* \"#utility.yul\":5641:5685   */\n      swap2\n      pop\n        /* \"#utility.yul\":5735:5817   */\n    tag_193:\n        /* \"#utility.yul\":5753:5755   */\n      dup2\n        /* \"#utility.yul\":5746:5751   */\n      dup2\n        /* \"#utility.yul\":5743:5756   */\n      lt\n        /* \"#utility.yul\":5735:5817   */\n      iszero\n      tag_195\n      jumpi\n        /* \"#utility.yul\":5798:5815   */\n      dup3\n      dup2\n      sstore\n        /* \"#utility.yul\":5779:5780   */\n      0x01\n        /* \"#utility.yul\":5768:5781   */\n      add\n        /* \"#utility.yul\":5735:5817   */\n      jump(tag_193)\n    tag_195:\n        /* \"#utility.yul\":5739:5742   */\n      pop\n      pop\n      pop\n        /* \"#utility.yul\":5373:5827   */\n    tag_191:\n        /* \"#utility.yul\":5282:5833   */\n      pop\n      pop\n      pop\n      jump\t// out\n        /* \"#utility.yul\":6017:7376   */\n    tag_91:\n        /* \"#utility.yul\":6143:6146   */\n      dup2\n        /* \"#utility.yul\":6137:6147   */\n      mload\n        /* \"#utility.yul\":6170:6188   */\n      0xffffffffffffffff\n        /* \"#utility.yul\":6162:6168   */\n      dup2\n        /* \"#utility.yul\":6159:6189   */\n      gt\n        /* \"#utility.yul\":6156:6212   */\n      iszero\n      tag_199\n      jumpi\n        /* \"#utility.yul\":6192:6210   */\n      tag_199\n      tag_144\n      jump\t// in\n    tag_199:\n        /* \"#utility.yul\":6221:6318   */\n      tag_200\n        /* \"#utility.yul\":6311:6317   */\n      dup2\n        /* \"#utility.yul\":6271:6309   */\n      tag_201\n        /* \"#utility.yul\":6303:6307   */\n      dup5\n        /* \"#utility.yul\":6297:6308   */\n      sload\n        /* \"#utility.yul\":6271:6309   */\n      tag_117\n      jump\t// in\n    tag_201:\n        /* \"#utility.yul\":6265:6269   */\n      dup5\n        /* \"#utility.yul\":6221:6318   */\n      tag_148\n      jump\t// in\n    tag_200:\n        /* \"#utility.yul\":6373:6377   */\n      0x20\n      dup1\n        /* \"#utility.yul\":6437:6439   */\n      0x1f\n        /* \"#utility.yul\":6426:6440   */\n      dup4\n      gt\n        /* \"#utility.yul\":6454:6455   */\n      0x01\n        /* \"#utility.yul\":6449:7119   */\n      dup2\n      eq\n      tag_203\n      jumpi\n        /* \"#utility.yul\":7163:7164   */\n      0x00\n        /* \"#utility.yul\":7180:7186   */\n      dup5\n        /* \"#utility.yul\":7177:7266   */\n      iszero\n      tag_204\n      jumpi\n      pop\n        /* \"#utility.yul\":7232:7251   */\n      dup6\n      dup4\n      add\n        /* \"#utility.yul\":7226:7252   */\n      mload\n        /* \"#utility.yul\":7177:7266   */\n    tag_204:\n        /* \"#utility.yul\":5998:5999   */\n      0x02\n        /* \"#utility.yul\":5994:6005   */\n      dup1\n      dup7\n      mul\n        /* \"#utility.yul\":5981:5982   */\n      0x08\n        /* \"#utility.yul\":5977:5988   */\n      dup8\n      mul\n        /* \"#utility.yul\":5970:5989   */\n      swap1\n      swap2\n      exp\n      not(0x00)\n        /* \"#utility.yul\":5958:5990   */\n      div\n        /* \"#utility.yul\":5954:5991   */\n      not\n        /* \"#utility.yul\":5944:5992   */\n      dup3\n      and\n        /* \"#utility.yul\":5941:6006   */\n      or\n        /* \"#utility.yul\":7286:7290   */\n      dup7\n        /* \"#utility.yul\":7279:7360   */\n      sstore\n      pop\n        /* \"#utility.yul\":6419:7370   */\n      jump(tag_195)\n        /* \"#utility.yul\":6449:7119   */\n    tag_203:\n        /* \"#utility.yul\":5229:5230   */\n      0x00\n        /* \"#utility.yul\":5222:5236   */\n      dup6\n      dup2\n      mstore\n        /* \"#utility.yul\":5266:5270   */\n      0x20\n        /* \"#utility.yul\":5253:5271   */\n      dup2\n      keccak256\n      not(0x1f)\n        /* \"#utility.yul\":6485:6505   */\n      dup7\n      and\n      swap2\n        /* \"#utility.yul\":6603:6839   */\n    tag_207:\n        /* \"#utility.yul\":6617:6624   */\n      dup3\n        /* \"#utility.yul\":6614:6615   */\n      dup2\n        /* \"#utility.yul\":6611:6625   */\n      lt\n        /* \"#utility.yul\":6603:6839   */\n      iszero\n      tag_209\n      jumpi\n        /* \"#utility.yul\":6706:6725   */\n      dup9\n      dup7\n      add\n        /* \"#utility.yul\":6700:6726   */\n      mload\n        /* \"#utility.yul\":6685:6727   */\n      dup3\n      sstore\n        /* \"#utility.yul\":6798:6825   */\n      swap5\n      dup5\n      add\n      swap5\n        /* \"#utility.yul\":6766:6767   */\n      0x01\n        /* \"#utility.yul\":6754:6768   */\n      swap1\n      swap2\n      add\n      swap1\n        /* \"#utility.yul\":6633:6652   */\n      dup5\n      add\n        /* \"#utility.yul\":6603:6839   */\n      jump(tag_207)\n    tag_209:\n        /* \"#utility.yul\":6607:6610   */\n      pop\n        /* \"#utility.yul\":6867:6873   */\n      dup6\n        /* \"#utility.yul\":6858:6865   */\n      dup3\n        /* \"#utility.yul\":6855:6874   */\n      lt\n        /* \"#utility.yul\":6852:7060   */\n      iszero\n      tag_210\n      jumpi\n        /* \"#utility.yul\":6928:6947   */\n      dup8\n      dup6\n      add\n        /* \"#utility.yul\":6922:6948   */\n      mload\n        /* \"#utility.yul\":7022:7023   */\n      0x08\n        /* \"#utility.yul\":7037:7039   */\n      0x1f\n        /* \"#utility.yul\":7025:7040   */\n      dup9\n      and\n        /* \"#utility.yul\":7018:7041   */\n      mul\n        /* \"#utility.yul\":7015:7016   */\n      0x02\n        /* \"#utility.yul\":7011:7042   */\n      exp\n      not(0x00)\n        /* \"#utility.yul\":6999:7043   */\n      div\n        /* \"#utility.yul\":6995:7044   */\n      not\n        /* \"#utility.yul\":6980:7045   */\n      and\n        /* \"#utility.yul\":6965:7046   */\n      dup2\n      sstore\n        /* \"#utility.yul\":6852:7060   */\n    tag_210:\n      pop\n      pop\n      pop\n      pop\n      pop\n        /* \"#utility.yul\":7102:7103   */\n      0x02\n        /* \"#utility.yul\":7090:7104   */\n      mul\n        /* \"#utility.yul\":7106:7107   */\n      0x01\n        /* \"#utility.yul\":7086:7108   */\n      add\n        /* \"#utility.yul\":7073:7109   */\n      swap1\n      sstore\n      pop\n        /* \"#utility.yul\":6017:7376   */\n      jump\t// out\n\n    auxdata: 0xa2646970667358221220612c7fc166b72af31609ae8ba13ee5228dfa6185465c527ce4b8c684767ba4d564736f6c63430008110033\n}\n",
				"bytecode": {
					"linkReferences": {},
					"object": "60806040526040516200103738038062001037833981016040819052620000269162000107565b604080516020810190915260008082528062000043838262000210565b5060018054600160a060020a031916600160a060020a0392909216919091179055506200008b6200007c640100000000620000b1810204565b640100000000620000b5810204565b60038054600160a060020a031916600160a060020a0392909216919091179055620002e3565b3390565b60028054600160a060020a03838116600160a060020a0319831681179093556040519116919082907f8be0079c531659141344cd1fd0a4f28419497f9722a3daafe3b4186f6b6457e090600090a35050565b6000602082840312156200011a57600080fd5b8151600160a060020a03811681146200013257600080fd5b9392505050565b7f4e487b7100000000000000000000000000000000000000000000000000000000600052604160045260246000fd5b6002810460018216806200017d57607f821691505b602082108103620001b7577f4e487b7100000000000000000000000000000000000000000000000000000000600052602260045260246000fd5b50919050565b601f8211156200020b576000818152602081206020601f86010481016020861015620001e65750805b6020601f860104820191505b818110156200020757828155600101620001f2565b5050505b505050565b815167ffffffffffffffff8111156200022d576200022d62000139565b62000245816200023e845462000168565b84620001bd565b602080601f831160018114620002815760008415620002645750858301515b60028086026008870290910a600019041982161786555062000207565b600085815260208120601f198616915b82811015620002b25788860151825594840194600190910190840162000291565b5085821015620002d357878501516008601f88160260020a60001904191681555b5050505050600202600101905550565b610d4480620002f36000396000f3fe6080604052600436106100b7576000357c010000000000000000000000000000000000000000000000000000000090048063cc0395bf1161007e578063cc0395bf14610158578063d0e30db014610178578063d4e9329214610180578063da6e75c21461018c578063e5cdb48814610194578063f2fde38b146101c557005b80631581b600146100c0578063715018a6146100fd57806380c5b8e3146101125780638da5cb5b14610132578063aff13d291461015057005b366100be57005b005b3480156100cc57600080fd5b506001546100e090600160a060020a031681565b604051600160a060020a0390911681526020015b60405180910390f35b34801561010957600080fd5b506100be6101e5565b34801561011e57600080fd5b506100be61012d366004610952565b6101f9565b34801561013e57600080fd5b50600254600160a060020a03166100e0565b6100be610220565b34801561016457600080fd5b506100be610173366004610a38565b610337565b6100be610422565b3480156100be57600080fd5b6100be6104f4565b3480156101a057600080fd5b506101b46101af366004610ab6565b610679565b6040516100f4959493929190610b1e565b3480156101d157600080fd5b506100be6101e0366004610ab6565b6107e7565b6101ed61087a565b6101f760006108d7565b565b61020161087a565b600160a060020a03909116600090815260046020526040902060020155565b61022861087a565b30316102525760405160e560020a62461bcd02815260040161024990610b6f565b60405180910390fd5b600354604051600091600160a060020a0316903031908381818185875af1925050503d80600081146102a0576040519150601f19603f3d011682016040523d82523d6000602084013e6102a5565b606091505b50909150506001811515146102ff5760405160e560020a62461bcd02815260206004820152601660248201527f46616c6c6f206c61207472616e73666572656e636961000000000000000000006044820152606401610249565b604051303181527f56e1cf8a52e84572ff49b950fa9a1a1867319bf8eba3bf8c77bc4354678a34c5906020015b60405180910390a150565b61033f61087a565b6040805160a081018252858152600160a060020a0380861660208084018290528385018790526060840186905260035490921660808401526000908152600490915291909120815181906103939082610c48565b50602082015160018201805473ffffffffffffffffffffffffffffffffffffffff1916600160a060020a0390921691909117905560408201516002820155606082015160038201906103e59082610c48565b50608091909101516004909101805473ffffffffffffffffffffffffffffffffffffffff1916600160a060020a0390921691909117905550505050565b33600081815260046020526040902060010154600160a060020a03161461048e5760405160e560020a62461bcd02815260206004820152601660248201527f596f75206172656e27742076616c6964207061796572000000000000000000006044820152606401610249565b33600090815260046020526040902060020154348111156104c45760405160e560020a62461bcd02815260040161024990610b6f565b6040513481527f0a34e3d4f1e6b837dbce1011b61499fa1a483a0abee6a7a6697660b4b2d971329060200161032c565b33600081815260046020526040902060010154600160a060020a0316146105605760405160e560020a62461bcd02815260206004820152601660248201527f596f75206172656e27742076616c6964207061796572000000000000000000006044820152606401610249565b33600090815260046020526040902060020154348111156105965760405160e560020a62461bcd02815260040161024990610b6f565b600354604051600091600160a060020a03169034908381818185875af1925050503d80600081146105e3576040519150601f19603f3d011682016040523d82523d6000602084013e6105e8565b606091505b50909150506001811515146106425760405160e560020a62461bcd02815260206004820152601660248201527f46616c6c6f206c61207472616e73666572656e636961000000000000000000006044820152606401610249565b6040518281527f56e1cf8a52e84572ff49b950fa9a1a1867319bf8eba3bf8c77bc4354678a34c59060200160405180910390a15050565b600160a060020a0380821660009081526004602081905260408220600181015460028201549282015482546060968695889587959094908316939192600386019291169085906106c890610ba6565b80601f01602080910402602001604051908101604052809291908181526020018280546106f490610ba6565b80156107415780601f1061071657610100808354040283529160200191610741565b820191906000526020600020905b81548152906001019060200180831161072457829003601f168201915b5050505050945081805461075490610ba6565b80601f016020809104026020016040519081016040528092919081815260200182805461078090610ba6565b80156107cd5780601f106107a2576101008083540402835291602001916107cd565b820191906000526020600020905b8154815290600101906020018083116107b057829003601f168201915b505050505091509450945094509450945091939590929450565b6107ef61087a565b600160a060020a03811661086e5760405160e560020a62461bcd02815260206004820152602660248201527f4f776e61626c653a206e6577206f776e657220697320746865207a65726f206160448201527f64647265737300000000000000000000000000000000000000000000000000006064820152608401610249565b610877816108d7565b50565b600254600160a060020a031633146101f75760405160e560020a62461bcd02815260206004820181905260248201527f4f776e61626c653a2063616c6c6572206973206e6f7420746865206f776e65726044820152606401610249565b60028054600160a060020a0383811673ffffffffffffffffffffffffffffffffffffffff19831681179093556040519116919082907f8be0079c531659141344cd1fd0a4f28419497f9722a3daafe3b4186f6b6457e090600090a35050565b8035600160a060020a038116811461094d57600080fd5b919050565b6000806040838503121561096557600080fd5b61096e83610936565b946020939093013593505050565b7f4e487b7100000000000000000000000000000000000000000000000000000000600052604160045260246000fd5b600082601f8301126109bc57600080fd5b813567ffffffffffffffff808211156109d7576109d761097c565b604051601f8301601f19908116603f011681019082821181831017156109ff576109ff61097c565b81604052838152866020858801011115610a1857600080fd5b836020870160208301376000602085830101528094505050505092915050565b60008060008060808587031215610a4e57600080fd5b843567ffffffffffffffff80821115610a6657600080fd5b610a72888389016109ab565b9550610a8060208801610936565b9450604087013593506060870135915080821115610a9d57600080fd5b50610aaa878288016109ab565b91505092959194509250565b600060208284031215610ac857600080fd5b610ad182610936565b9392505050565b6000815180845260005b81811015610afe57602081850181015186830182015201610ae2565b506000602082860101526020601f19601f83011685010191505092915050565b60a081526000610b3160a0830188610ad8565b600160a060020a0380881660208501528660408501528382036060850152610b598287610ad8565b9250808516608085015250509695505050505050565b6020808252601f908201527f5468652066756e64732073656e742061726520696e73756666696369656e7400604082015260600190565b600281046001821680610bba57607f821691505b602082108103610bf3577f4e487b7100000000000000000000000000000000000000000000000000000000600052602260045260246000fd5b50919050565b601f821115610c43576000818152602081206020601f86010481016020861015610c205750805b6020601f860104820191505b81811015610c3f57828155600101610c2c565b5050505b505050565b815167ffffffffffffffff811115610c6257610c6261097c565b610c7681610c708454610ba6565b84610bf9565b602080601f831160018114610caf5760008415610c935750858301515b60028086026008870290910a6000190419821617865550610c3f565b600085815260208120601f198616915b82811015610cde57888601518255948401946001909101908401610cbf565b5085821015610cfe57878501516008601f88160260020a60001904191681555b505050505060020260010190555056fea2646970667358221220612c7fc166b72af31609ae8ba13ee5228dfa6185465c527ce4b8c684767ba4d564736f6c63430008110033",
					"opcodes": "PUSH1 0x80 PUSH1 0x40 MSTORE PUSH1 0x40 MLOAD PUSH3 0x1037 CODESIZE SUB DUP1 PUSH3 0x1037 DUP4 CODECOPY DUP2 ADD PUSH1 0x40 DUP2 SWAP1 MSTORE PUSH3 0x26 SWAP2 PUSH3 0x107 JUMP JUMPDEST PUSH1 0x40 DUP1 MLOAD PUSH1 0x20 DUP2 ADD SWAP1 SWAP2 MSTORE PUSH1 0x0 DUP1 DUP3 MSTORE DUP1 PUSH3 0x43 DUP4 DUP3 PUSH3 0x210 JUMP JUMPDEST POP PUSH1 0x1 DUP1 SLOAD PUSH1 0x1 PUSH1 0xA0 PUSH1 0x2 EXP SUB NOT AND PUSH1 0x1 PUSH1 0xA0 PUSH1 0x2 EXP SUB SWAP3 SWAP1 SWAP3 AND SWAP2 SWAP1 SWAP2 OR SWAP1 SSTORE POP PUSH3 0x8B PUSH3 0x7C PUSH5 0x100000000 PUSH3 0xB1 DUP2 MUL DIV JUMP JUMPDEST PUSH5 0x100000000 PUSH3 0xB5 DUP2 MUL DIV JUMP JUMPDEST PUSH1 0x3 DUP1 SLOAD PUSH1 0x1 PUSH1 0xA0 PUSH1 0x2 EXP SUB NOT AND PUSH1 0x1 PUSH1 0xA0 PUSH1 0x2 EXP SUB SWAP3 SWAP1 SWAP3 AND SWAP2 SWAP1 SWAP2 OR SWAP1 SSTORE PUSH3 0x2E3 JUMP JUMPDEST CALLER SWAP1 JUMP JUMPDEST PUSH1 0x2 DUP1 SLOAD PUSH1 0x1 PUSH1 0xA0 PUSH1 0x2 EXP SUB DUP4 DUP2 AND PUSH1 0x1 PUSH1 0xA0 PUSH1 0x2 EXP SUB NOT DUP4 AND DUP2 OR SWAP1 SWAP4 SSTORE PUSH1 0x40 MLOAD SWAP2 AND SWAP2 SWAP1 DUP3 SWAP1 PUSH32 0x8BE0079C531659141344CD1FD0A4F28419497F9722A3DAAFE3B4186F6B6457E0 SWAP1 PUSH1 0x0 SWAP1 LOG3 POP POP JUMP JUMPDEST PUSH1 0x0 PUSH1 0x20 DUP3 DUP5 SUB SLT ISZERO PUSH3 0x11A JUMPI PUSH1 0x0 DUP1 REVERT JUMPDEST DUP2 MLOAD PUSH1 0x1 PUSH1 0xA0 PUSH1 0x2 EXP SUB DUP2 AND DUP2 EQ PUSH3 0x132 JUMPI PUSH1 0x0 DUP1 REVERT JUMPDEST SWAP4 SWAP3 POP POP POP JUMP JUMPDEST PUSH32 0x4E487B7100000000000000000000000000000000000000000000000000000000 PUSH1 0x0 MSTORE PUSH1 0x41 PUSH1 0x4 MSTORE PUSH1 0x24 PUSH1 0x0 REVERT JUMPDEST PUSH1 0x2 DUP2 DIV PUSH1 0x1 DUP3 AND DUP1 PUSH3 0x17D JUMPI PUSH1 0x7F DUP3 AND SWAP2 POP JUMPDEST PUSH1 0x20 DUP3 LT DUP2 SUB PUSH3 0x1B7 JUMPI PUSH32 0x4E487B7100000000000000000000000000000000000000000000000000000000 PUSH1 0x0 MSTORE PUSH1 0x22 PUSH1 0x4 MSTORE PUSH1 0x24 PUSH1 0x0 REVERT JUMPDEST POP SWAP2 SWAP1 POP JUMP JUMPDEST PUSH1 0x1F DUP3 GT ISZERO PUSH3 0x20B JUMPI PUSH1 0x0 DUP2 DUP2 MSTORE PUSH1 0x20 DUP2 KECCAK256 PUSH1 0x20 PUSH1 0x1F DUP7 ADD DIV DUP2 ADD PUSH1 0x20 DUP7 LT ISZERO PUSH3 0x1E6 JUMPI POP DUP1 JUMPDEST PUSH1 0x20 PUSH1 0x1F DUP7 ADD DIV DUP3 ADD SWAP2 POP JUMPDEST DUP2 DUP2 LT ISZERO PUSH3 0x207 JUMPI DUP3 DUP2 SSTORE PUSH1 0x1 ADD PUSH3 0x1F2 JUMP JUMPDEST POP POP POP JUMPDEST POP POP POP JUMP JUMPDEST DUP2 MLOAD PUSH8 0xFFFFFFFFFFFFFFFF DUP2 GT ISZERO PUSH3 0x22D JUMPI PUSH3 0x22D PUSH3 0x139 JUMP JUMPDEST PUSH3 0x245 DUP2 PUSH3 0x23E DUP5 SLOAD PUSH3 0x168 JUMP JUMPDEST DUP5 PUSH3 0x1BD JUMP JUMPDEST PUSH1 0x20 DUP1 PUSH1 0x1F DUP4 GT PUSH1 0x1 DUP2 EQ PUSH3 0x281 JUMPI PUSH1 0x0 DUP5 ISZERO PUSH3 0x264 JUMPI POP DUP6 DUP4 ADD MLOAD JUMPDEST PUSH1 0x2 DUP1 DUP7 MUL PUSH1 0x8 DUP8 MUL SWAP1 SWAP2 EXP PUSH1 0x0 NOT DIV NOT DUP3 AND OR DUP7 SSTORE POP PUSH3 0x207 JUMP JUMPDEST PUSH1 0x0 DUP6 DUP2 MSTORE PUSH1 0x20 DUP2 KECCAK256 PUSH1 0x1F NOT DUP7 AND SWAP2 JUMPDEST DUP3 DUP2 LT ISZERO PUSH3 0x2B2 JUMPI DUP9 DUP7 ADD MLOAD DUP3 SSTORE SWAP5 DUP5 ADD SWAP5 PUSH1 0x1 SWAP1 SWAP2 ADD SWAP1 DUP5 ADD PUSH3 0x291 JUMP JUMPDEST POP DUP6 DUP3 LT ISZERO PUSH3 0x2D3 JUMPI DUP8 DUP6 ADD MLOAD PUSH1 0x8 PUSH1 0x1F DUP9 AND MUL PUSH1 0x2 EXP PUSH1 0x0 NOT DIV NOT AND DUP2 SSTORE JUMPDEST POP POP POP POP POP PUSH1 0x2 MUL PUSH1 0x1 ADD SWAP1 SSTORE POP JUMP JUMPDEST PUSH2 0xD44 DUP1 PUSH3 0x2F3 PUSH1 0x0 CODECOPY PUSH1 0x0 RETURN INVALID PUSH1 0x80 PUSH1 0x40 MSTORE PUSH1 0x4 CALLDATASIZE LT PUSH2 0xB7 JUMPI PUSH1 0x0 CALLDATALOAD PUSH29 0x100000000000000000000000000000000000000000000000000000000 SWAP1 DIV DUP1 PUSH4 0xCC0395BF GT PUSH2 0x7E JUMPI DUP1 PUSH4 0xCC0395BF EQ PUSH2 0x158 JUMPI DUP1 PUSH4 0xD0E30DB0 EQ PUSH2 0x178 JUMPI DUP1 PUSH4 0xD4E93292 EQ PUSH2 0x180 JUMPI DUP1 PUSH4 0xDA6E75C2 EQ PUSH2 0x18C JUMPI DUP1 PUSH4 0xE5CDB488 EQ PUSH2 0x194 JUMPI DUP1 PUSH4 0xF2FDE38B EQ PUSH2 0x1C5 JUMPI STOP JUMPDEST DUP1 PUSH4 0x1581B600 EQ PUSH2 0xC0 JUMPI DUP1 PUSH4 0x715018A6 EQ PUSH2 0xFD JUMPI DUP1 PUSH4 0x80C5B8E3 EQ PUSH2 0x112 JUMPI DUP1 PUSH4 0x8DA5CB5B EQ PUSH2 0x132 JUMPI DUP1 PUSH4 0xAFF13D29 EQ PUSH2 0x150 JUMPI STOP JUMPDEST CALLDATASIZE PUSH2 0xBE JUMPI STOP JUMPDEST STOP JUMPDEST CALLVALUE DUP1 ISZERO PUSH2 0xCC JUMPI PUSH1 0x0 DUP1 REVERT JUMPDEST POP PUSH1 0x1 SLOAD PUSH2 0xE0 SWAP1 PUSH1 0x1 PUSH1 0xA0 PUSH1 0x2 EXP SUB AND DUP2 JUMP JUMPDEST PUSH1 0x40 MLOAD PUSH1 0x1 PUSH1 0xA0 PUSH1 0x2 EXP SUB SWAP1 SWAP2 AND DUP2 MSTORE PUSH1 0x20 ADD JUMPDEST PUSH1 0x40 MLOAD DUP1 SWAP2 SUB SWAP1 RETURN JUMPDEST CALLVALUE DUP1 ISZERO PUSH2 0x109 JUMPI PUSH1 0x0 DUP1 REVERT JUMPDEST POP PUSH2 0xBE PUSH2 0x1E5 JUMP JUMPDEST CALLVALUE DUP1 ISZERO PUSH2 0x11E JUMPI PUSH1 0x0 DUP1 REVERT JUMPDEST POP PUSH2 0xBE PUSH2 0x12D CALLDATASIZE PUSH1 0x4 PUSH2 0x952 JUMP JUMPDEST PUSH2 0x1F9 JUMP JUMPDEST CALLVALUE DUP1 ISZERO PUSH2 0x13E JUMPI PUSH1 0x0 DUP1 REVERT JUMPDEST POP PUSH1 0x2 SLOAD PUSH1 0x1 PUSH1 0xA0 PUSH1 0x2 EXP SUB AND PUSH2 0xE0 JUMP JUMPDEST PUSH2 0xBE PUSH2 0x220 JUMP JUMPDEST CALLVALUE DUP1 ISZERO PUSH2 0x164 JUMPI PUSH1 0x0 DUP1 REVERT JUMPDEST POP PUSH2 0xBE PUSH2 0x173 CALLDATASIZE PUSH1 0x4 PUSH2 0xA38 JUMP JUMPDEST PUSH2 0x337 JUMP JUMPDEST PUSH2 0xBE PUSH2 0x422 JUMP JUMPDEST CALLVALUE DUP1 ISZERO PUSH2 0xBE JUMPI PUSH1 0x0 DUP1 REVERT JUMPDEST PUSH2 0xBE PUSH2 0x4F4 JUMP JUMPDEST CALLVALUE DUP1 ISZERO PUSH2 0x1A0 JUMPI PUSH1 0x0 DUP1 REVERT JUMPDEST POP PUSH2 0x1B4 PUSH2 0x1AF CALLDATASIZE PUSH1 0x4 PUSH2 0xAB6 JUMP JUMPDEST PUSH2 0x679 JUMP JUMPDEST PUSH1 0x40 MLOAD PUSH2 0xF4 SWAP6 SWAP5 SWAP4 SWAP3 SWAP2 SWAP1 PUSH2 0xB1E JUMP JUMPDEST CALLVALUE DUP1 ISZERO PUSH2 0x1D1 JUMPI PUSH1 0x0 DUP1 REVERT JUMPDEST POP PUSH2 0xBE PUSH2 0x1E0 CALLDATASIZE PUSH1 0x4 PUSH2 0xAB6 JUMP JUMPDEST PUSH2 0x7E7 JUMP JUMPDEST PUSH2 0x1ED PUSH2 0x87A JUMP JUMPDEST PUSH2 0x1F7 PUSH1 0x0 PUSH2 0x8D7 JUMP JUMPDEST JUMP JUMPDEST PUSH2 0x201 PUSH2 0x87A JUMP JUMPDEST PUSH1 0x1 PUSH1 0xA0 PUSH1 0x2 EXP SUB SWAP1 SWAP2 AND PUSH1 0x0 SWAP1 DUP2 MSTORE PUSH1 0x4 PUSH1 0x20 MSTORE PUSH1 0x40 SWAP1 KECCAK256 PUSH1 0x2 ADD SSTORE JUMP JUMPDEST PUSH2 0x228 PUSH2 0x87A JUMP JUMPDEST ADDRESS BALANCE PUSH2 0x252 JUMPI PUSH1 0x40 MLOAD PUSH1 0xE5 PUSH1 0x2 EXP PUSH3 0x461BCD MUL DUP2 MSTORE PUSH1 0x4 ADD PUSH2 0x249 SWAP1 PUSH2 0xB6F JUMP JUMPDEST PUSH1 0x40 MLOAD DUP1 SWAP2 SUB SWAP1 REVERT JUMPDEST PUSH1 0x3 SLOAD PUSH1 0x40 MLOAD PUSH1 0x0 SWAP2 PUSH1 0x1 PUSH1 0xA0 PUSH1 0x2 EXP SUB AND SWAP1 ADDRESS BALANCE SWAP1 DUP4 DUP2 DUP2 DUP2 DUP6 DUP8 GAS CALL SWAP3 POP POP POP RETURNDATASIZE DUP1 PUSH1 0x0 DUP2 EQ PUSH2 0x2A0 JUMPI PUSH1 0x40 MLOAD SWAP2 POP PUSH1 0x1F NOT PUSH1 0x3F RETURNDATASIZE ADD AND DUP3 ADD PUSH1 0x40 MSTORE RETURNDATASIZE DUP3 MSTORE RETURNDATASIZE PUSH1 0x0 PUSH1 0x20 DUP5 ADD RETURNDATACOPY PUSH2 0x2A5 JUMP JUMPDEST PUSH1 0x60 SWAP2 POP JUMPDEST POP SWAP1 SWAP2 POP POP PUSH1 0x1 DUP2 ISZERO ISZERO EQ PUSH2 0x2FF JUMPI PUSH1 0x40 MLOAD PUSH1 0xE5 PUSH1 0x2 EXP PUSH3 0x461BCD MUL DUP2 MSTORE PUSH1 0x20 PUSH1 0x4 DUP3 ADD MSTORE PUSH1 0x16 PUSH1 0x24 DUP3 ADD MSTORE PUSH32 0x46616C6C6F206C61207472616E73666572656E63696100000000000000000000 PUSH1 0x44 DUP3 ADD MSTORE PUSH1 0x64 ADD PUSH2 0x249 JUMP JUMPDEST PUSH1 0x40 MLOAD ADDRESS BALANCE DUP2 MSTORE PUSH32 0x56E1CF8A52E84572FF49B950FA9A1A1867319BF8EBA3BF8C77BC4354678A34C5 SWAP1 PUSH1 0x20 ADD JUMPDEST PUSH1 0x40 MLOAD DUP1 SWAP2 SUB SWAP1 LOG1 POP JUMP JUMPDEST PUSH2 0x33F PUSH2 0x87A JUMP JUMPDEST PUSH1 0x40 DUP1 MLOAD PUSH1 0xA0 DUP2 ADD DUP3 MSTORE DUP6 DUP2 MSTORE PUSH1 0x1 PUSH1 0xA0 PUSH1 0x2 EXP SUB DUP1 DUP7 AND PUSH1 0x20 DUP1 DUP5 ADD DUP3 SWAP1 MSTORE DUP4 DUP6 ADD DUP8 SWAP1 MSTORE PUSH1 0x60 DUP5 ADD DUP7 SWAP1 MSTORE PUSH1 0x3 SLOAD SWAP1 SWAP3 AND PUSH1 0x80 DUP5 ADD MSTORE PUSH1 0x0 SWAP1 DUP2 MSTORE PUSH1 0x4 SWAP1 SWAP2 MSTORE SWAP2 SWAP1 SWAP2 KECCAK256 DUP2 MLOAD DUP2 SWAP1 PUSH2 0x393 SWAP1 DUP3 PUSH2 0xC48 JUMP JUMPDEST POP PUSH1 0x20 DUP3 ADD MLOAD PUSH1 0x1 DUP3 ADD DUP1 SLOAD PUSH20 0xFFFFFFFFFFFFFFFFFFFFFFFFFFFFFFFFFFFFFFFF NOT AND PUSH1 0x1 PUSH1 0xA0 PUSH1 0x2 EXP SUB SWAP1 SWAP3 AND SWAP2 SWAP1 SWAP2 OR SWAP1 SSTORE PUSH1 0x40 DUP3 ADD MLOAD PUSH1 0x2 DUP3 ADD SSTORE PUSH1 0x60 DUP3 ADD MLOAD PUSH1 0x3 DUP3 ADD SWAP1 PUSH2 0x3E5 SWAP1 DUP3 PUSH2 0xC48 JUMP JUMPDEST POP PUSH1 0x80 SWAP2 SWAP1 SWAP2 ADD MLOAD PUSH1 0x4 SWAP1 SWAP2 ADD DUP1 SLOAD PUSH20 0xFFFFFFFFFFFFFFFFFFFFFFFFFFFFFFFFFFFFFFFF NOT AND PUSH1 0x1 PUSH1 0xA0 PUSH1 0x2 EXP SUB SWAP1 SWAP3 AND SWAP2 SWAP1 SWAP2 OR SWAP1 SSTORE POP POP POP POP JUMP JUMPDEST CALLER PUSH1 0x0 DUP2 DUP2 MSTORE PUSH1 0x4 PUSH1 0x20 MSTORE PUSH1 0x40 SWAP1 KECCAK256 PUSH1 0x1 ADD SLOAD PUSH1 0x1 PUSH1 0xA0 PUSH1 0x2 EXP SUB AND EQ PUSH2 0x48E JUMPI PUSH1 0x40 MLOAD PUSH1 0xE5 PUSH1 0x2 EXP PUSH3 0x461BCD MUL DUP2 MSTORE PUSH1 0x20 PUSH1 0x4 DUP3 ADD MSTORE PUSH1 0x16 PUSH1 0x24 DUP3 ADD MSTORE PUSH32 0x596F75206172656E27742076616C696420706179657200000000000000000000 PUSH1 0x44 DUP3 ADD MSTORE PUSH1 0x64 ADD PUSH2 0x249 JUMP JUMPDEST CALLER PUSH1 0x0 SWAP1 DUP2 MSTORE PUSH1 0x4 PUSH1 0x20 MSTORE PUSH1 0x40 SWAP1 KECCAK256 PUSH1 0x2 ADD SLOAD CALLVALUE DUP2 GT ISZERO PUSH2 0x4C4 JUMPI PUSH1 0x40 MLOAD PUSH1 0xE5 PUSH1 0x2 EXP PUSH3 0x461BCD MUL DUP2 MSTORE PUSH1 0x4 ADD PUSH2 0x249 SWAP1 PUSH2 0xB6F JUMP JUMPDEST PUSH1 0x40 MLOAD CALLVALUE DUP2 MSTORE PUSH32 0xA34E3D4F1E6B837DBCE1011B61499FA1A483A0ABEE6A7A6697660B4B2D97132 SWAP1 PUSH1 0x20 ADD PUSH2 0x32C JUMP JUMPDEST CALLER PUSH1 0x0 DUP2 DUP2 MSTORE PUSH1 0x4 PUSH1 0x20 MSTORE PUSH1 0x40 SWAP1 KECCAK256 PUSH1 0x1 ADD SLOAD PUSH1 0x1 PUSH1 0xA0 PUSH1 0x2 EXP SUB AND EQ PUSH2 0x560 JUMPI PUSH1 0x40 MLOAD PUSH1 0xE5 PUSH1 0x2 EXP PUSH3 0x461BCD MUL DUP2 MSTORE PUSH1 0x20 PUSH1 0x4 DUP3 ADD MSTORE PUSH1 0x16 PUSH1 0x24 DUP3 ADD MSTORE PUSH32 0x596F75206172656E27742076616C696420706179657200000000000000000000 PUSH1 0x44 DUP3 ADD MSTORE PUSH1 0x64 ADD PUSH2 0x249 JUMP JUMPDEST CALLER PUSH1 0x0 SWAP1 DUP2 MSTORE PUSH1 0x4 PUSH1 0x20 MSTORE PUSH1 0x40 SWAP1 KECCAK256 PUSH1 0x2 ADD SLOAD CALLVALUE DUP2 GT ISZERO PUSH2 0x596 JUMPI PUSH1 0x40 MLOAD PUSH1 0xE5 PUSH1 0x2 EXP PUSH3 0x461BCD MUL DUP2 MSTORE PUSH1 0x4 ADD PUSH2 0x249 SWAP1 PUSH2 0xB6F JUMP JUMPDEST PUSH1 0x3 SLOAD PUSH1 0x40 MLOAD PUSH1 0x0 SWAP2 PUSH1 0x1 PUSH1 0xA0 PUSH1 0x2 EXP SUB AND SWAP1 CALLVALUE SWAP1 DUP4 DUP2 DUP2 DUP2 DUP6 DUP8 GAS CALL SWAP3 POP POP POP RETURNDATASIZE DUP1 PUSH1 0x0 DUP2 EQ PUSH2 0x5E3 JUMPI PUSH1 0x40 MLOAD SWAP2 POP PUSH1 0x1F NOT PUSH1 0x3F RETURNDATASIZE ADD AND DUP3 ADD PUSH1 0x40 MSTORE RETURNDATASIZE DUP3 MSTORE RETURNDATASIZE PUSH1 0x0 PUSH1 0x20 DUP5 ADD RETURNDATACOPY PUSH2 0x5E8 JUMP JUMPDEST PUSH1 0x60 SWAP2 POP JUMPDEST POP SWAP1 SWAP2 POP POP PUSH1 0x1 DUP2 ISZERO ISZERO EQ PUSH2 0x642 JUMPI PUSH1 0x40 MLOAD PUSH1 0xE5 PUSH1 0x2 EXP PUSH3 0x461BCD MUL DUP2 MSTORE PUSH1 0x20 PUSH1 0x4 DUP3 ADD MSTORE PUSH1 0x16 PUSH1 0x24 DUP3 ADD MSTORE PUSH32 0x46616C6C6F206C61207472616E73666572656E63696100000000000000000000 PUSH1 0x44 DUP3 ADD MSTORE PUSH1 0x64 ADD PUSH2 0x249 JUMP JUMPDEST PUSH1 0x40 MLOAD DUP3 DUP2 MSTORE PUSH32 0x56E1CF8A52E84572FF49B950FA9A1A1867319BF8EBA3BF8C77BC4354678A34C5 SWAP1 PUSH1 0x20 ADD PUSH1 0x40 MLOAD DUP1 SWAP2 SUB SWAP1 LOG1 POP POP JUMP JUMPDEST PUSH1 0x1 PUSH1 0xA0 PUSH1 0x2 EXP SUB DUP1 DUP3 AND PUSH1 0x0 SWAP1 DUP2 MSTORE PUSH1 0x4 PUSH1 0x20 DUP2 SWAP1 MSTORE PUSH1 0x40 DUP3 KECCAK256 PUSH1 0x1 DUP2 ADD SLOAD PUSH1 0x2 DUP3 ADD SLOAD SWAP3 DUP3 ADD SLOAD DUP3 SLOAD PUSH1 0x60 SWAP7 DUP7 SWAP6 DUP9 SWAP6 DUP8 SWAP6 SWAP1 SWAP5 SWAP1 DUP4 AND SWAP4 SWAP2 SWAP3 PUSH1 0x3 DUP7 ADD SWAP3 SWAP2 AND SWAP1 DUP6 SWAP1 PUSH2 0x6C8 SWAP1 PUSH2 0xBA6 JUMP JUMPDEST DUP1 PUSH1 0x1F ADD PUSH1 0x20 DUP1 SWAP2 DIV MUL PUSH1 0x20 ADD PUSH1 0x40 MLOAD SWAP1 DUP2 ADD PUSH1 0x40 MSTORE DUP1 SWAP3 SWAP2 SWAP1 DUP2 DUP2 MSTORE PUSH1 0x20 ADD DUP3 DUP1 SLOAD PUSH2 0x6F4 SWAP1 PUSH2 0xBA6 JUMP JUMPDEST DUP1 ISZERO PUSH2 0x741 JUMPI DUP1 PUSH1 0x1F LT PUSH2 0x716 JUMPI PUSH2 0x100 DUP1 DUP4 SLOAD DIV MUL DUP4 MSTORE SWAP2 PUSH1 0x20 ADD SWAP2 PUSH2 0x741 JUMP JUMPDEST DUP3 ADD SWAP2 SWAP1 PUSH1 0x0 MSTORE PUSH1 0x20 PUSH1 0x0 KECCAK256 SWAP1 JUMPDEST DUP2 SLOAD DUP2 MSTORE SWAP1 PUSH1 0x1 ADD SWAP1 PUSH1 0x20 ADD DUP1 DUP4 GT PUSH2 0x724 JUMPI DUP3 SWAP1 SUB PUSH1 0x1F AND DUP3 ADD SWAP2 JUMPDEST POP POP POP POP POP SWAP5 POP DUP2 DUP1 SLOAD PUSH2 0x754 SWAP1 PUSH2 0xBA6 JUMP JUMPDEST DUP1 PUSH1 0x1F ADD PUSH1 0x20 DUP1 SWAP2 DIV MUL PUSH1 0x20 ADD PUSH1 0x40 MLOAD SWAP1 DUP2 ADD PUSH1 0x40 MSTORE DUP1 SWAP3 SWAP2 SWAP1 DUP2 DUP2 MSTORE PUSH1 0x20 ADD DUP3 DUP1 SLOAD PUSH2 0x780 SWAP1 PUSH2 0xBA6 JUMP JUMPDEST DUP1 ISZERO PUSH2 0x7CD JUMPI DUP1 PUSH1 0x1F LT PUSH2 0x7A2 JUMPI PUSH2 0x100 DUP1 DUP4 SLOAD DIV MUL DUP4 MSTORE SWAP2 PUSH1 0x20 ADD SWAP2 PUSH2 0x7CD JUMP JUMPDEST DUP3 ADD SWAP2 SWAP1 PUSH1 0x0 MSTORE PUSH1 0x20 PUSH1 0x0 KECCAK256 SWAP1 JUMPDEST DUP2 SLOAD DUP2 MSTORE SWAP1 PUSH1 0x1 ADD SWAP1 PUSH1 0x20 ADD DUP1 DUP4 GT PUSH2 0x7B0 JUMPI DUP3 SWAP1 SUB PUSH1 0x1F AND DUP3 ADD SWAP2 JUMPDEST POP POP POP POP POP SWAP2 POP SWAP5 POP SWAP5 POP SWAP5 POP SWAP5 POP SWAP5 POP SWAP2 SWAP4 SWAP6 SWAP1 SWAP3 SWAP5 POP JUMP JUMPDEST PUSH2 0x7EF PUSH2 0x87A JUMP JUMPDEST PUSH1 0x1 PUSH1 0xA0 PUSH1 0x2 EXP SUB DUP2 AND PUSH2 0x86E JUMPI PUSH1 0x40 MLOAD PUSH1 0xE5 PUSH1 0x2 EXP PUSH3 0x461BCD MUL DUP2 MSTORE PUSH1 0x20 PUSH1 0x4 DUP3 ADD MSTORE PUSH1 0x26 PUSH1 0x24 DUP3 ADD MSTORE PUSH32 0x4F776E61626C653A206E6577206F776E657220697320746865207A65726F2061 PUSH1 0x44 DUP3 ADD MSTORE PUSH32 0x6464726573730000000000000000000000000000000000000000000000000000 PUSH1 0x64 DUP3 ADD MSTORE PUSH1 0x84 ADD PUSH2 0x249 JUMP JUMPDEST PUSH2 0x877 DUP2 PUSH2 0x8D7 JUMP JUMPDEST POP JUMP JUMPDEST PUSH1 0x2 SLOAD PUSH1 0x1 PUSH1 0xA0 PUSH1 0x2 EXP SUB AND CALLER EQ PUSH2 0x1F7 JUMPI PUSH1 0x40 MLOAD PUSH1 0xE5 PUSH1 0x2 EXP PUSH3 0x461BCD MUL DUP2 MSTORE PUSH1 0x20 PUSH1 0x4 DUP3 ADD DUP2 SWAP1 MSTORE PUSH1 0x24 DUP3 ADD MSTORE PUSH32 0x4F776E61626C653A2063616C6C6572206973206E6F7420746865206F776E6572 PUSH1 0x44 DUP3 ADD MSTORE PUSH1 0x64 ADD PUSH2 0x249 JUMP JUMPDEST PUSH1 0x2 DUP1 SLOAD PUSH1 0x1 PUSH1 0xA0 PUSH1 0x2 EXP SUB DUP4 DUP2 AND PUSH20 0xFFFFFFFFFFFFFFFFFFFFFFFFFFFFFFFFFFFFFFFF NOT DUP4 AND DUP2 OR SWAP1 SWAP4 SSTORE PUSH1 0x40 MLOAD SWAP2 AND SWAP2 SWAP1 DUP3 SWAP1 PUSH32 0x8BE0079C531659141344CD1FD0A4F28419497F9722A3DAAFE3B4186F6B6457E0 SWAP1 PUSH1 0x0 SWAP1 LOG3 POP POP JUMP JUMPDEST DUP1 CALLDATALOAD PUSH1 0x1 PUSH1 0xA0 PUSH1 0x2 EXP SUB DUP2 AND DUP2 EQ PUSH2 0x94D JUMPI PUSH1 0x0 DUP1 REVERT JUMPDEST SWAP2 SWAP1 POP JUMP JUMPDEST PUSH1 0x0 DUP1 PUSH1 0x40 DUP4 DUP6 SUB SLT ISZERO PUSH2 0x965 JUMPI PUSH1 0x0 DUP1 REVERT JUMPDEST PUSH2 0x96E DUP4 PUSH2 0x936 JUMP JUMPDEST SWAP5 PUSH1 0x20 SWAP4 SWAP1 SWAP4 ADD CALLDATALOAD SWAP4 POP POP POP JUMP JUMPDEST PUSH32 0x4E487B7100000000000000000000000000000000000000000000000000000000 PUSH1 0x0 MSTORE PUSH1 0x41 PUSH1 0x4 MSTORE PUSH1 0x24 PUSH1 0x0 REVERT JUMPDEST PUSH1 0x0 DUP3 PUSH1 0x1F DUP4 ADD SLT PUSH2 0x9BC JUMPI PUSH1 0x0 DUP1 REVERT JUMPDEST DUP2 CALLDATALOAD PUSH8 0xFFFFFFFFFFFFFFFF DUP1 DUP3 GT ISZERO PUSH2 0x9D7 JUMPI PUSH2 0x9D7 PUSH2 0x97C JUMP JUMPDEST PUSH1 0x40 MLOAD PUSH1 0x1F DUP4 ADD PUSH1 0x1F NOT SWAP1 DUP2 AND PUSH1 0x3F ADD AND DUP2 ADD SWAP1 DUP3 DUP3 GT DUP2 DUP4 LT OR ISZERO PUSH2 0x9FF JUMPI PUSH2 0x9FF PUSH2 0x97C JUMP JUMPDEST DUP2 PUSH1 0x40 MSTORE DUP4 DUP2 MSTORE DUP7 PUSH1 0x20 DUP6 DUP9 ADD ADD GT ISZERO PUSH2 0xA18 JUMPI PUSH1 0x0 DUP1 REVERT JUMPDEST DUP4 PUSH1 0x20 DUP8 ADD PUSH1 0x20 DUP4 ADD CALLDATACOPY PUSH1 0x0 PUSH1 0x20 DUP6 DUP4 ADD ADD MSTORE DUP1 SWAP5 POP POP POP POP POP SWAP3 SWAP2 POP POP JUMP JUMPDEST PUSH1 0x0 DUP1 PUSH1 0x0 DUP1 PUSH1 0x80 DUP6 DUP8 SUB SLT ISZERO PUSH2 0xA4E JUMPI PUSH1 0x0 DUP1 REVERT JUMPDEST DUP5 CALLDATALOAD PUSH8 0xFFFFFFFFFFFFFFFF DUP1 DUP3 GT ISZERO PUSH2 0xA66 JUMPI PUSH1 0x0 DUP1 REVERT JUMPDEST PUSH2 0xA72 DUP9 DUP4 DUP10 ADD PUSH2 0x9AB JUMP JUMPDEST SWAP6 POP PUSH2 0xA80 PUSH1 0x20 DUP9 ADD PUSH2 0x936 JUMP JUMPDEST SWAP5 POP PUSH1 0x40 DUP8 ADD CALLDATALOAD SWAP4 POP PUSH1 0x60 DUP8 ADD CALLDATALOAD SWAP2 POP DUP1 DUP3 GT ISZERO PUSH2 0xA9D JUMPI PUSH1 0x0 DUP1 REVERT JUMPDEST POP PUSH2 0xAAA DUP8 DUP3 DUP9 ADD PUSH2 0x9AB JUMP JUMPDEST SWAP2 POP POP SWAP3 SWAP6 SWAP2 SWAP5 POP SWAP3 POP JUMP JUMPDEST PUSH1 0x0 PUSH1 0x20 DUP3 DUP5 SUB SLT ISZERO PUSH2 0xAC8 JUMPI PUSH1 0x0 DUP1 REVERT JUMPDEST PUSH2 0xAD1 DUP3 PUSH2 0x936 JUMP JUMPDEST SWAP4 SWAP3 POP POP POP JUMP JUMPDEST PUSH1 0x0 DUP2 MLOAD DUP1 DUP5 MSTORE PUSH1 0x0 JUMPDEST DUP2 DUP2 LT ISZERO PUSH2 0xAFE JUMPI PUSH1 0x20 DUP2 DUP6 ADD DUP2 ADD MLOAD DUP7 DUP4 ADD DUP3 ADD MSTORE ADD PUSH2 0xAE2 JUMP JUMPDEST POP PUSH1 0x0 PUSH1 0x20 DUP3 DUP7 ADD ADD MSTORE PUSH1 0x20 PUSH1 0x1F NOT PUSH1 0x1F DUP4 ADD AND DUP6 ADD ADD SWAP2 POP POP SWAP3 SWAP2 POP POP JUMP JUMPDEST PUSH1 0xA0 DUP2 MSTORE PUSH1 0x0 PUSH2 0xB31 PUSH1 0xA0 DUP4 ADD DUP9 PUSH2 0xAD8 JUMP JUMPDEST PUSH1 0x1 PUSH1 0xA0 PUSH1 0x2 EXP SUB DUP1 DUP9 AND PUSH1 0x20 DUP6 ADD MSTORE DUP7 PUSH1 0x40 DUP6 ADD MSTORE DUP4 DUP3 SUB PUSH1 0x60 DUP6 ADD MSTORE PUSH2 0xB59 DUP3 DUP8 PUSH2 0xAD8 JUMP JUMPDEST SWAP3 POP DUP1 DUP6 AND PUSH1 0x80 DUP6 ADD MSTORE POP POP SWAP7 SWAP6 POP POP POP POP POP POP JUMP JUMPDEST PUSH1 0x20 DUP1 DUP3 MSTORE PUSH1 0x1F SWAP1 DUP3 ADD MSTORE PUSH32 0x5468652066756E64732073656E742061726520696E73756666696369656E7400 PUSH1 0x40 DUP3 ADD MSTORE PUSH1 0x60 ADD SWAP1 JUMP JUMPDEST PUSH1 0x2 DUP2 DIV PUSH1 0x1 DUP3 AND DUP1 PUSH2 0xBBA JUMPI PUSH1 0x7F DUP3 AND SWAP2 POP JUMPDEST PUSH1 0x20 DUP3 LT DUP2 SUB PUSH2 0xBF3 JUMPI PUSH32 0x4E487B7100000000000000000000000000000000000000000000000000000000 PUSH1 0x0 MSTORE PUSH1 0x22 PUSH1 0x4 MSTORE PUSH1 0x24 PUSH1 0x0 REVERT JUMPDEST POP SWAP2 SWAP1 POP JUMP JUMPDEST PUSH1 0x1F DUP3 GT ISZERO PUSH2 0xC43 JUMPI PUSH1 0x0 DUP2 DUP2 MSTORE PUSH1 0x20 DUP2 KECCAK256 PUSH1 0x20 PUSH1 0x1F DUP7 ADD DIV DUP2 ADD PUSH1 0x20 DUP7 LT ISZERO PUSH2 0xC20 JUMPI POP DUP1 JUMPDEST PUSH1 0x20 PUSH1 0x1F DUP7 ADD DIV DUP3 ADD SWAP2 POP JUMPDEST DUP2 DUP2 LT ISZERO PUSH2 0xC3F JUMPI DUP3 DUP2 SSTORE PUSH1 0x1 ADD PUSH2 0xC2C JUMP JUMPDEST POP POP POP JUMPDEST POP POP POP JUMP JUMPDEST DUP2 MLOAD PUSH8 0xFFFFFFFFFFFFFFFF DUP2 GT ISZERO PUSH2 0xC62 JUMPI PUSH2 0xC62 PUSH2 0x97C JUMP JUMPDEST PUSH2 0xC76 DUP2 PUSH2 0xC70 DUP5 SLOAD PUSH2 0xBA6 JUMP JUMPDEST DUP5 PUSH2 0xBF9 JUMP JUMPDEST PUSH1 0x20 DUP1 PUSH1 0x1F DUP4 GT PUSH1 0x1 DUP2 EQ PUSH2 0xCAF JUMPI PUSH1 0x0 DUP5 ISZERO PUSH2 0xC93 JUMPI POP DUP6 DUP4 ADD MLOAD JUMPDEST PUSH1 0x2 DUP1 DUP7 MUL PUSH1 0x8 DUP8 MUL SWAP1 SWAP2 EXP PUSH1 0x0 NOT DIV NOT DUP3 AND OR DUP7 SSTORE POP PUSH2 0xC3F JUMP JUMPDEST PUSH1 0x0 DUP6 DUP2 MSTORE PUSH1 0x20 DUP2 KECCAK256 PUSH1 0x1F NOT DUP7 AND SWAP2 JUMPDEST DUP3 DUP2 LT ISZERO PUSH2 0xCDE JUMPI DUP9 DUP7 ADD MLOAD DUP3 SSTORE SWAP5 DUP5 ADD SWAP5 PUSH1 0x1 SWAP1 SWAP2 ADD SWAP1 DUP5 ADD PUSH2 0xCBF JUMP JUMPDEST POP DUP6 DUP3 LT ISZERO PUSH2 0xCFE JUMPI DUP8 DUP6 ADD MLOAD PUSH1 0x8 PUSH1 0x1F DUP9 AND MUL PUSH1 0x2 EXP PUSH1 0x0 NOT DIV NOT AND DUP2 SSTORE JUMPDEST POP POP POP POP POP PUSH1 0x2 MUL PUSH1 0x1 ADD SWAP1 SSTORE POP JUMP INVALID LOG2 PUSH5 0x6970667358 0x22 SLT KECCAK256 PUSH2 0x2C7F 0xC1 PUSH7 0xB72AF31609AE8B LOG1 RETURNDATACOPY 0xE5 0x22 DUP14 STATICCALL PUSH2 0x8546 0x5C MSTORE PUSH29 0xE4B8C684767BA4D564736F6C6343000811003300000000000000000000 "
				},
				"gasEstimates": {
					"creation": {
						"codeDepositCost": "679200",
						"executionCost": "infinite",
						"totalCost": "infinite"
					},
					"external": {
						"": "189",
						"addNewTenant(string,address,uint256,string)": "infinite",
						"deposit()": "1888",
						"getTenant(address)": "infinite",
						"owner()": "606",
						"payExpenses()": "infinite",
						"payExpensesForOwner()": "infinite",
						"renounceOwnership()": "infinite",
						"setRentalCost(address,uint256)": "20907",
						"transferOwnership(address)": "22767",
						"withdrawAddress()": "546",
						"withdrawal()": "172"
					}
				},
				"methodIdentifiers": {
					"addNewTenant(string,address,uint256,string)": "cc0395bf",
					"deposit()": "d0e30db0",
					"getTenant(address)": "e5cdb488",
					"owner()": "8da5cb5b",
					"payExpenses()": "da6e75c2",
					"payExpensesForOwner()": "aff13d29",
					"renounceOwnership()": "715018a6",
					"setRentalCost(address,uint256)": "80c5b8e3",
					"transferOwnership(address)": "f2fde38b",
					"withdrawAddress()": "1581b600",
					"withdrawal()": "d4e93292"
				}
			},
			"storageLayout": {
				"storage": [
					{
						"astId": 138,
						"contract": "contracts/Tenant.sol:Tenant",
						"label": "name",
						"offset": 0,
						"slot": "0",
						"type": "t_string_storage"
					},
					{
						"astId": 140,
						"contract": "contracts/Tenant.sol:Tenant",
						"label": "withdrawAddress",
						"offset": 0,
						"slot": "1",
						"type": "t_address"
					},
					{
						"astId": 7,
						"contract": "contracts/Tenant.sol:Tenant",
						"label": "_owner",
						"offset": 0,
						"slot": "2",
						"type": "t_address"
					},
					{
						"astId": 171,
						"contract": "contracts/Tenant.sol:Tenant",
						"label": "consorcioAddress",
						"offset": 0,
						"slot": "3",
						"type": "t_address"
					},
					{
						"astId": 184,
						"contract": "contracts/Tenant.sol:Tenant",
						"label": "tenantMapping",
						"offset": 0,
						"slot": "4",
						"type": "t_mapping(t_address,t_struct(TenantStruct)195_storage)"
					}
				],
				"types": {
					"t_address": {
						"encoding": "inplace",
						"label": "address",
						"numberOfBytes": "20"
					},
					"t_mapping(t_address,t_struct(TenantStruct)195_storage)": {
						"encoding": "mapping",
						"key": "t_address",
						"label": "mapping(address => struct Tenant.TenantStruct)",
						"numberOfBytes": "32",
						"value": "t_struct(TenantStruct)195_storage"
					},
					"t_string_storage": {
						"encoding": "bytes",
						"label": "string",
						"numberOfBytes": "32"
					},
					"t_struct(TenantStruct)195_storage": {
						"encoding": "inplace",
						"label": "struct Tenant.TenantStruct",
						"members": [
							{
								"astId": 186,
								"contract": "contracts/Tenant.sol:Tenant",
								"label": "name",
								"offset": 0,
								"slot": "0",
								"type": "t_string_storage"
							},
							{
								"astId": 188,
								"contract": "contracts/Tenant.sol:Tenant",
								"label": "tenantAddress",
								"offset": 0,
								"slot": "1",
								"type": "t_address"
							},
							{
								"astId": 190,
								"contract": "contracts/Tenant.sol:Tenant",
								"label": "rentalCost",
								"offset": 0,
								"slot": "2",
								"type": "t_uint256"
							},
							{
								"astId": 192,
								"contract": "contracts/Tenant.sol:Tenant",
								"label": "residence",
								"offset": 0,
								"slot": "3",
								"type": "t_string_storage"
							},
							{
								"astId": 194,
								"contract": "contracts/Tenant.sol:Tenant",
								"label": "consorcioContractAddress",
								"offset": 0,
								"slot": "4",
								"type": "t_address"
							}
						],
						"numberOfBytes": "160"
					},
					"t_uint256": {
						"encoding": "inplace",
						"label": "uint256",
						"numberOfBytes": "32"
					}
				}
			},
			"userdoc": {
				"kind": "user",
				"methods": {},
				"version": 1
			}
		}
	}
}