{
	"data": {
		"bytecode": {
			"linkReferences": {},
			"object": "608060405234801561001057600080fd5b50610033610025640100000000610081810204565b640100000000610085810204565b60405161003f906100d5565b604051809103906000f08015801561005b573d6000803e3d6000fd5b5060018054600160a060020a031916600160a060020a03929092169190911790556100e1565b3390565b60008054600160a060020a03838116600160a060020a0319831681178455604051919092169283917f8be0079c531659141344cd1fd0a4f28419497f9722a3daafe3b4186f6b6457e09190a35050565b60d88061152383390190565b611433806100f06000396000f3fe608060405260043610620000ea576000357c01000000000000000000000000000000000000000000000000000000009004806372673e3111620000a0578063b6f240dc116200007a578063b6f240dc146200021d578063cd7d77c51462000242578063ec3ab2741462000259578063f2fde38b146200026357005b806372673e3114620001af5780637ca2e65614620001d45780638da5cb5b14620001fd57005b80632237300f14620000f457806322fea7f314620001195780633b3ea988146200014457806342e36b3b146200015c5780636f9fb98a1462000166578063715018a6146200019757005b36620000f257005b005b3480156200010157600080fd5b50620000f26200011336600462000b82565b62000288565b3480156200012657600080fd5b506200013162000318565b6040519081526020015b60405180910390f35b3480156200015157600080fd5b50620001316200037a565b620000f262000451565b3480156200017357600080fd5b506001546040805130318152600160a060020a03909216316020830152016200013b565b348015620001a457600080fd5b50620000f2620006b1565b348015620001bc57600080fd5b50620000f2620001ce36600462000c0b565b620006c9565b348015620001e157600080fd5b50305b604051600160a060020a0390911681526020016200013b565b3480156200020a57600080fd5b50600054600160a060020a0316620001e4565b3480156200022a57600080fd5b50620001316200023c36600462000c54565b62000740565b620000f26200025336600462000c54565b62000771565b620000f262000869565b3480156200027057600080fd5b50620000f26200028236600462000c6e565b6200095b565b62000292620009f4565b600284848484604051620002a69062000ab0565b620002b5949392919062000cdd565b604051809103906000f080158015620002d2573d6000803e3d6000fd5b50815460018101835560009283526020909220909101805473ffffffffffffffffffffffffffffffffffffffff1916600160a060020a0390921691909117905550505050565b600080805b6003548110156200037457600381815481106200033e576200033e62000d27565b906000526020600020906002020160010154826200035d919062000d59565b9150806200036b8162000d75565b9150506200031d565b50919050565b600080805b600254811015620003745760028181548110620003a057620003a062000d27565b60009182526020918290200154604080517f0397b6520000000000000000000000000000000000000000000000000000000081529051600160a060020a0390921692630397b652926004808401938290030181865afa15801562000408573d6000803e3d6000fd5b505050506040513d601f19601f820116820180604052508101906200042e919062000d91565b6200043a908362000d59565b915080620004488162000d75565b9150506200037f565b6200045b620009f4565b620004656200037a565b30311015620004945760405160e560020a62461bcd0281526004016200048b9062000dab565b60405180910390fd5b60005b6002548110156200067557600060028281548110620004ba57620004ba62000d27565b60009182526020918290200154604080517f1581b6000000000000000000000000000000000000000000000000000000000081529051600160a060020a0390921692631581b600926004808401938290030181865afa15801562000522573d6000803e3d6000fd5b505050506040513d601f19601f8201168201806040525081019062000548919062000e08565b600160a060020a03166002838154811062000567576200056762000d27565b60009182526020918290200154604080517f0397b6520000000000000000000000000000000000000000000000000000000081529051600160a060020a0390921692630397b652926004808401938290030181865afa158015620005cf573d6000803e3d6000fd5b505050506040513d601f19601f82011682018060405250810190620005f5919062000d91565b604051600081818185875af1925050503d806000811462000633576040519150601f19603f3d011682016040523d82523d6000602084013e62000638565b606091505b50509050806200065f5760405160e560020a62461bcd0281526004016200048b9062000e28565b50806200066c8162000d75565b91505062000497565b50604080513381523460208201527fa54079b6fa54213fb4fb5b70e2c04892b228420bd1023ba63d9f7f7dcce73ca991015b60405180910390a1565b620006bb620009f4565b620006c7600062000a53565b565b620006d3620009f4565b604080518082019091528281526020810182905260038054600181018255600091909152815160029091027fc2575a0e9e593c00f959f8c92f12db2869c3395a3b0502d05e2516446f71f85b019081906200072f908262000eeb565b506020820151816001015550505050565b60006003828154811062000758576200075862000d27565b9060005260206000209060020201600101549050919050565b6200077b620009f4565b6000620007888262000740565b90503031811115620007b15760405160e560020a62461bcd0281526004016200048b9062000dab565b600154604051600091600160a060020a03169083908381818185875af1925050503d806000811462000800576040519150601f19603f3d011682016040523d82523d6000602084013e62000805565b606091505b50509050806200082c5760405160e560020a62461bcd0281526004016200048b9062000e28565b5050604080513381523460208201527fa54079b6fa54213fb4fb5b70e2c04892b228420bd1023ba63d9f7f7dcce73ca9910160405180910390a150565b62000873620009f4565b60006200087f62000318565b90503031811115620008a85760405160e560020a62461bcd0281526004016200048b9062000dab565b600154604051600091600160a060020a03169083908381818185875af1925050503d8060008114620008f7576040519150601f19603f3d011682016040523d82523d6000602084013e620008fc565b606091505b5050905080620009235760405160e560020a62461bcd0281526004016200048b9062000e28565b5050604080513381523460208201527fa54079b6fa54213fb4fb5b70e2c04892b228420bd1023ba63d9f7f7dcce73ca99101620006a7565b62000965620009f4565b600160a060020a038116620009e65760405160e560020a62461bcd02815260206004820152602660248201527f4f776e61626c653a206e6577206f776e657220697320746865207a65726f206160448201527f646472657373000000000000000000000000000000000000000000000000000060648201526084016200048b565b620009f18162000a53565b50565b600054600160a060020a03163314620006c75760405160e560020a62461bcd02815260206004820181905260248201527f4f776e61626c653a2063616c6c6572206973206e6f7420746865206f776e657260448201526064016200048b565b60008054600160a060020a0383811673ffffffffffffffffffffffffffffffffffffffff19831681178455604051919092169283917f8be0079c531659141344cd1fd0a4f28419497f9722a3daafe3b4186f6b6457e09190a35050565b61043f8062000fbf83390190565b60e060020a634e487b7102600052604160045260246000fd5b600082601f83011262000ae957600080fd5b813567ffffffffffffffff8082111562000b075762000b0762000abe565b604051601f8301601f19908116603f0116810190828211818310171562000b325762000b3262000abe565b8160405283815286602085880101111562000b4c57600080fd5b836020870160208301376000602085830101528094505050505092915050565b600160a060020a0381168114620009f157600080fd5b6000806000806080858703121562000b9957600080fd5b843567ffffffffffffffff8082111562000bb257600080fd5b62000bc08883890162000ad7565b95506020870135915062000bd48262000b6c565b9093506040860135908082111562000beb57600080fd5b5062000bfa8782880162000ad7565b949793965093946060013593505050565b6000806040838503121562000c1f57600080fd5b823567ffffffffffffffff81111562000c3757600080fd5b62000c458582860162000ad7565b95602094909401359450505050565b60006020828403121562000c6757600080fd5b5035919050565b60006020828403121562000c8157600080fd5b813562000c8e8162000b6c565b9392505050565b6000815180845260005b8181101562000cbd5760208185018101518683018201520162000c9f565b506000602082860101526020601f19601f83011685010191505092915050565b60808152600062000cf2608083018762000c95565b600160a060020a0386166020840152828103604084015262000d15818662000c95565b91505082606083015295945050505050565b60e060020a634e487b7102600052603260045260246000fd5b60e060020a634e487b7102600052601160045260246000fd5b8082018082111562000d6f5762000d6f62000d40565b92915050565b60006001820162000d8a5762000d8a62000d40565b5060010190565b60006020828403121562000da457600080fd5b5051919050565b6020808252602b908201527f5468652062616c616e6365206f662074686520636f6e7472616374206973206960408201527f6e73756666696369656e74000000000000000000000000000000000000000000606082015260800190565b60006020828403121562000e1b57600080fd5b815162000c8e8162000b6c565b60208082526010908201527f5472616e73666572206661696c65642e00000000000000000000000000000000604082015260600190565b60028104600182168062000e7457607f821691505b602082108103620003745760e060020a634e487b7102600052602260045260246000fd5b601f82111562000ee6576000818152602081206020601f8601048101602086101562000ec15750805b6020601f860104820191505b8181101562000ee25782815560010162000ecd565b5050505b505050565b815167ffffffffffffffff81111562000f085762000f0862000abe565b62000f208162000f19845462000e5f565b8462000e98565b602080601f83116001811462000f5c576000841562000f3f5750858301515b60028086026008870290910a600019041982161786555062000ee2565b600085815260208120601f198616915b8281101562000f8d5788860151825594840194600190910190840162000f6c565b508582101562000fae57878501516008601f88160260020a60001904191681555b505050505060020260010190555056fe608060405234801561001057600080fd5b5060405161043f38038061043f83398101604081905261002f9161014c565b8383600061003d8382610279565b5060018054600160a060020a031916600160a060020a039290921691909117905550600261006b8382610279565b506003555061033e915050565b7f4e487b7100000000000000000000000000000000000000000000000000000000600052604160045260246000fd5b600082601f8301126100b857600080fd5b81516001604060020a03808211156100d2576100d2610078565b604051601f8301601f19908116603f011681019082821181831017156100fa576100fa610078565b8160405283815260209250868385880101111561011657600080fd5b600091505b83821015610138578582018301518183018401529082019061011b565b600093810190920192909252949350505050565b6000806000806080858703121561016257600080fd5b84516001604060020a038082111561017957600080fd5b610185888389016100a7565b60208801519096509150600160a060020a03821682146101a457600080fd5b6040870151919450808211156101b957600080fd5b506101c6878288016100a7565b606096909601519497939650505050565b6002810460018216806101eb57607f821691505b602082108103610224577f4e487b7100000000000000000000000000000000000000000000000000000000600052602260045260246000fd5b50919050565b601f821115610274576000818152602081206020601f860104810160208610156102515750805b6020601f860104820191505b818110156102705782815560010161025d565b5050505b505050565b81516001604060020a0381111561029257610292610078565b6102a6816102a084546101d7565b8461022a565b602080601f8311600181146102df57600084156102c35750858301515b60028086026008870290910a6000190419821617865550610270565b600085815260208120601f198616915b8281101561030e578886015182559484019460019091019084016102ef565b508582101561032e57878501516008601f88160260020a60001904191681555b5050505050600202600101905550565b60f38061034c6000396000f3fe6080604052348015600f57600080fd5b50600436106058577c010000000000000000000000000000000000000000000000000000000060003504630397b6528114605d5780631581b600146078578063d4e932921460bb575b600080fd5b606560035481565b6040519081526020015b60405180910390f35b60015460979073ffffffffffffffffffffffffffffffffffffffff1681565b60405173ffffffffffffffffffffffffffffffffffffffff9091168152602001606f565b00fea2646970667358221220e26f9b565671fa84c384cfdf2939cdf570d38e59186452e3eebacb6b154d5d6664736f6c63430008110033a2646970667358221220a49fa5b766df2e6872f043966ed91b08018a5e6a0e49b9fcd9eecedb0ead4c0f64736f6c63430008110033608060405234801561001057600080fd5b5060b98061001f6000396000f3fe6080604052600436106042577c01000000000000000000000000000000000000000000000000000000006000350462113e088114604a57806338cc483114606a57005b36604857005b005b348015605557600080fd5b50604051303181526020015b60405180910390f35b348015607557600080fd5b50604051308152602001606156fea2646970667358221220fb75414e6488efadd1cf0fb03d51bfb5f616c42cbb23ee36a95791963ca102a564736f6c63430008110033",
			"opcodes": "PUSH1 0x80 PUSH1 0x40 MSTORE CALLVALUE DUP1 ISZERO PUSH2 0x10 JUMPI PUSH1 0x0 DUP1 REVERT JUMPDEST POP PUSH2 0x33 PUSH2 0x25 PUSH5 0x100000000 PUSH2 0x81 DUP2 MUL DIV JUMP JUMPDEST PUSH5 0x100000000 PUSH2 0x85 DUP2 MUL DIV JUMP JUMPDEST PUSH1 0x40 MLOAD PUSH2 0x3F SWAP1 PUSH2 0xD5 JUMP JUMPDEST PUSH1 0x40 MLOAD DUP1 SWAP2 SUB SWAP1 PUSH1 0x0 CREATE DUP1 ISZERO DUP1 ISZERO PUSH2 0x5B JUMPI RETURNDATASIZE PUSH1 0x0 DUP1 RETURNDATACOPY RETURNDATASIZE PUSH1 0x0 REVERT JUMPDEST POP PUSH1 0x1 DUP1 SLOAD PUSH1 0x1 PUSH1 0xA0 PUSH1 0x2 EXP SUB NOT AND PUSH1 0x1 PUSH1 0xA0 PUSH1 0x2 EXP SUB SWAP3 SWAP1 SWAP3 AND SWAP2 SWAP1 SWAP2 OR SWAP1 SSTORE PUSH2 0xE1 JUMP JUMPDEST CALLER SWAP1 JUMP JUMPDEST PUSH1 0x0 DUP1 SLOAD PUSH1 0x1 PUSH1 0xA0 PUSH1 0x2 EXP SUB DUP4 DUP2 AND PUSH1 0x1 PUSH1 0xA0 PUSH1 0x2 EXP SUB NOT DUP4 AND DUP2 OR DUP5 SSTORE PUSH1 0x40 MLOAD SWAP2 SWAP1 SWAP3 AND SWAP3 DUP4 SWAP2 PUSH32 0x8BE0079C531659141344CD1FD0A4F28419497F9722A3DAAFE3B4186F6B6457E0 SWAP2 SWAP1 LOG3 POP POP JUMP JUMPDEST PUSH1 0xD8 DUP1 PUSH2 0x1523 DUP4 CODECOPY ADD SWAP1 JUMP JUMPDEST PUSH2 0x1433 DUP1 PUSH2 0xF0 PUSH1 0x0 CODECOPY PUSH1 0x0 RETURN INVALID PUSH1 0x80 PUSH1 0x40 MSTORE PUSH1 0x4 CALLDATASIZE LT PUSH3 0xEA JUMPI PUSH1 0x0 CALLDATALOAD PUSH29 0x100000000000000000000000000000000000000000000000000000000 SWAP1 DIV DUP1 PUSH4 0x72673E31 GT PUSH3 0xA0 JUMPI DUP1 PUSH4 0xB6F240DC GT PUSH3 0x7A JUMPI DUP1 PUSH4 0xB6F240DC EQ PUSH3 0x21D JUMPI DUP1 PUSH4 0xCD7D77C5 EQ PUSH3 0x242 JUMPI DUP1 PUSH4 0xEC3AB274 EQ PUSH3 0x259 JUMPI DUP1 PUSH4 0xF2FDE38B EQ PUSH3 0x263 JUMPI STOP JUMPDEST DUP1 PUSH4 0x72673E31 EQ PUSH3 0x1AF JUMPI DUP1 PUSH4 0x7CA2E656 EQ PUSH3 0x1D4 JUMPI DUP1 PUSH4 0x8DA5CB5B EQ PUSH3 0x1FD JUMPI STOP JUMPDEST DUP1 PUSH4 0x2237300F EQ PUSH3 0xF4 JUMPI DUP1 PUSH4 0x22FEA7F3 EQ PUSH3 0x119 JUMPI DUP1 PUSH4 0x3B3EA988 EQ PUSH3 0x144 JUMPI DUP1 PUSH4 0x42E36B3B EQ PUSH3 0x15C JUMPI DUP1 PUSH4 0x6F9FB98A EQ PUSH3 0x166 JUMPI DUP1 PUSH4 0x715018A6 EQ PUSH3 0x197 JUMPI STOP JUMPDEST CALLDATASIZE PUSH3 0xF2 JUMPI STOP JUMPDEST STOP JUMPDEST CALLVALUE DUP1 ISZERO PUSH3 0x101 JUMPI PUSH1 0x0 DUP1 REVERT JUMPDEST POP PUSH3 0xF2 PUSH3 0x113 CALLDATASIZE PUSH1 0x4 PUSH3 0xB82 JUMP JUMPDEST PUSH3 0x288 JUMP JUMPDEST CALLVALUE DUP1 ISZERO PUSH3 0x126 JUMPI PUSH1 0x0 DUP1 REVERT JUMPDEST POP PUSH3 0x131 PUSH3 0x318 JUMP JUMPDEST PUSH1 0x40 MLOAD SWAP1 DUP2 MSTORE PUSH1 0x20 ADD JUMPDEST PUSH1 0x40 MLOAD DUP1 SWAP2 SUB SWAP1 RETURN JUMPDEST CALLVALUE DUP1 ISZERO PUSH3 0x151 JUMPI PUSH1 0x0 DUP1 REVERT JUMPDEST POP PUSH3 0x131 PUSH3 0x37A JUMP JUMPDEST PUSH3 0xF2 PUSH3 0x451 JUMP JUMPDEST CALLVALUE DUP1 ISZERO PUSH3 0x173 JUMPI PUSH1 0x0 DUP1 REVERT JUMPDEST POP PUSH1 0x1 SLOAD PUSH1 0x40 DUP1 MLOAD ADDRESS BALANCE DUP2 MSTORE PUSH1 0x1 PUSH1 0xA0 PUSH1 0x2 EXP SUB SWAP1 SWAP3 AND BALANCE PUSH1 0x20 DUP4 ADD MSTORE ADD PUSH3 0x13B JUMP JUMPDEST CALLVALUE DUP1 ISZERO PUSH3 0x1A4 JUMPI PUSH1 0x0 DUP1 REVERT JUMPDEST POP PUSH3 0xF2 PUSH3 0x6B1 JUMP JUMPDEST CALLVALUE DUP1 ISZERO PUSH3 0x1BC JUMPI PUSH1 0x0 DUP1 REVERT JUMPDEST POP PUSH3 0xF2 PUSH3 0x1CE CALLDATASIZE PUSH1 0x4 PUSH3 0xC0B JUMP JUMPDEST PUSH3 0x6C9 JUMP JUMPDEST CALLVALUE DUP1 ISZERO PUSH3 0x1E1 JUMPI PUSH1 0x0 DUP1 REVERT JUMPDEST POP ADDRESS JUMPDEST PUSH1 0x40 MLOAD PUSH1 0x1 PUSH1 0xA0 PUSH1 0x2 EXP SUB SWAP1 SWAP2 AND DUP2 MSTORE PUSH1 0x20 ADD PUSH3 0x13B JUMP JUMPDEST CALLVALUE DUP1 ISZERO PUSH3 0x20A JUMPI PUSH1 0x0 DUP1 REVERT JUMPDEST POP PUSH1 0x0 SLOAD PUSH1 0x1 PUSH1 0xA0 PUSH1 0x2 EXP SUB AND PUSH3 0x1E4 JUMP JUMPDEST CALLVALUE DUP1 ISZERO PUSH3 0x22A JUMPI PUSH1 0x0 DUP1 REVERT JUMPDEST POP PUSH3 0x131 PUSH3 0x23C CALLDATASIZE PUSH1 0x4 PUSH3 0xC54 JUMP JUMPDEST PUSH3 0x740 JUMP JUMPDEST PUSH3 0xF2 PUSH3 0x253 CALLDATASIZE PUSH1 0x4 PUSH3 0xC54 JUMP JUMPDEST PUSH3 0x771 JUMP JUMPDEST PUSH3 0xF2 PUSH3 0x869 JUMP JUMPDEST CALLVALUE DUP1 ISZERO PUSH3 0x270 JUMPI PUSH1 0x0 DUP1 REVERT JUMPDEST POP PUSH3 0xF2 PUSH3 0x282 CALLDATASIZE PUSH1 0x4 PUSH3 0xC6E JUMP JUMPDEST PUSH3 0x95B JUMP JUMPDEST PUSH3 0x292 PUSH3 0x9F4 JUMP JUMPDEST PUSH1 0x2 DUP5 DUP5 DUP5 DUP5 PUSH1 0x40 MLOAD PUSH3 0x2A6 SWAP1 PUSH3 0xAB0 JUMP JUMPDEST PUSH3 0x2B5 SWAP5 SWAP4 SWAP3 SWAP2 SWAP1 PUSH3 0xCDD JUMP JUMPDEST PUSH1 0x40 MLOAD DUP1 SWAP2 SUB SWAP1 PUSH1 0x0 CREATE DUP1 ISZERO DUP1 ISZERO PUSH3 0x2D2 JUMPI RETURNDATASIZE PUSH1 0x0 DUP1 RETURNDATACOPY RETURNDATASIZE PUSH1 0x0 REVERT JUMPDEST POP DUP2 SLOAD PUSH1 0x1 DUP2 ADD DUP4 SSTORE PUSH1 0x0 SWAP3 DUP4 MSTORE PUSH1 0x20 SWAP1 SWAP3 KECCAK256 SWAP1 SWAP2 ADD DUP1 SLOAD PUSH20 0xFFFFFFFFFFFFFFFFFFFFFFFFFFFFFFFFFFFFFFFF NOT AND PUSH1 0x1 PUSH1 0xA0 PUSH1 0x2 EXP SUB SWAP1 SWAP3 AND SWAP2 SWAP1 SWAP2 OR SWAP1 SSTORE POP POP POP POP JUMP JUMPDEST PUSH1 0x0 DUP1 DUP1 JUMPDEST PUSH1 0x3 SLOAD DUP2 LT ISZERO PUSH3 0x374 JUMPI PUSH1 0x3 DUP2 DUP2 SLOAD DUP2 LT PUSH3 0x33E JUMPI PUSH3 0x33E PUSH3 0xD27 JUMP JUMPDEST SWAP1 PUSH1 0x0 MSTORE PUSH1 0x20 PUSH1 0x0 KECCAK256 SWAP1 PUSH1 0x2 MUL ADD PUSH1 0x1 ADD SLOAD DUP3 PUSH3 0x35D SWAP2 SWAP1 PUSH3 0xD59 JUMP JUMPDEST SWAP2 POP DUP1 PUSH3 0x36B DUP2 PUSH3 0xD75 JUMP JUMPDEST SWAP2 POP POP PUSH3 0x31D JUMP JUMPDEST POP SWAP2 SWAP1 POP JUMP JUMPDEST PUSH1 0x0 DUP1 DUP1 JUMPDEST PUSH1 0x2 SLOAD DUP2 LT ISZERO PUSH3 0x374 JUMPI PUSH1 0x2 DUP2 DUP2 SLOAD DUP2 LT PUSH3 0x3A0 JUMPI PUSH3 0x3A0 PUSH3 0xD27 JUMP JUMPDEST PUSH1 0x0 SWAP2 DUP3 MSTORE PUSH1 0x20 SWAP2 DUP3 SWAP1 KECCAK256 ADD SLOAD PUSH1 0x40 DUP1 MLOAD PUSH32 0x397B65200000000000000000000000000000000000000000000000000000000 DUP2 MSTORE SWAP1 MLOAD PUSH1 0x1 PUSH1 0xA0 PUSH1 0x2 EXP SUB SWAP1 SWAP3 AND SWAP3 PUSH4 0x397B652 SWAP3 PUSH1 0x4 DUP1 DUP5 ADD SWAP4 DUP3 SWAP1 SUB ADD DUP2 DUP7 GAS STATICCALL ISZERO DUP1 ISZERO PUSH3 0x408 JUMPI RETURNDATASIZE PUSH1 0x0 DUP1 RETURNDATACOPY RETURNDATASIZE PUSH1 0x0 REVERT JUMPDEST POP POP POP POP PUSH1 0x40 MLOAD RETURNDATASIZE PUSH1 0x1F NOT PUSH1 0x1F DUP3 ADD AND DUP3 ADD DUP1 PUSH1 0x40 MSTORE POP DUP2 ADD SWAP1 PUSH3 0x42E SWAP2 SWAP1 PUSH3 0xD91 JUMP JUMPDEST PUSH3 0x43A SWAP1 DUP4 PUSH3 0xD59 JUMP JUMPDEST SWAP2 POP DUP1 PUSH3 0x448 DUP2 PUSH3 0xD75 JUMP JUMPDEST SWAP2 POP POP PUSH3 0x37F JUMP JUMPDEST PUSH3 0x45B PUSH3 0x9F4 JUMP JUMPDEST PUSH3 0x465 PUSH3 0x37A JUMP JUMPDEST ADDRESS BALANCE LT ISZERO PUSH3 0x494 JUMPI PUSH1 0x40 MLOAD PUSH1 0xE5 PUSH1 0x2 EXP PUSH3 0x461BCD MUL DUP2 MSTORE PUSH1 0x4 ADD PUSH3 0x48B SWAP1 PUSH3 0xDAB JUMP JUMPDEST PUSH1 0x40 MLOAD DUP1 SWAP2 SUB SWAP1 REVERT JUMPDEST PUSH1 0x0 JUMPDEST PUSH1 0x2 SLOAD DUP2 LT ISZERO PUSH3 0x675 JUMPI PUSH1 0x0 PUSH1 0x2 DUP3 DUP2 SLOAD DUP2 LT PUSH3 0x4BA JUMPI PUSH3 0x4BA PUSH3 0xD27 JUMP JUMPDEST PUSH1 0x0 SWAP2 DUP3 MSTORE PUSH1 0x20 SWAP2 DUP3 SWAP1 KECCAK256 ADD SLOAD PUSH1 0x40 DUP1 MLOAD PUSH32 0x1581B60000000000000000000000000000000000000000000000000000000000 DUP2 MSTORE SWAP1 MLOAD PUSH1 0x1 PUSH1 0xA0 PUSH1 0x2 EXP SUB SWAP1 SWAP3 AND SWAP3 PUSH4 0x1581B600 SWAP3 PUSH1 0x4 DUP1 DUP5 ADD SWAP4 DUP3 SWAP1 SUB ADD DUP2 DUP7 GAS STATICCALL ISZERO DUP1 ISZERO PUSH3 0x522 JUMPI RETURNDATASIZE PUSH1 0x0 DUP1 RETURNDATACOPY RETURNDATASIZE PUSH1 0x0 REVERT JUMPDEST POP POP POP POP PUSH1 0x40 MLOAD RETURNDATASIZE PUSH1 0x1F NOT PUSH1 0x1F DUP3 ADD AND DUP3 ADD DUP1 PUSH1 0x40 MSTORE POP DUP2 ADD SWAP1 PUSH3 0x548 SWAP2 SWAP1 PUSH3 0xE08 JUMP JUMPDEST PUSH1 0x1 PUSH1 0xA0 PUSH1 0x2 EXP SUB AND PUSH1 0x2 DUP4 DUP2 SLOAD DUP2 LT PUSH3 0x567 JUMPI PUSH3 0x567 PUSH3 0xD27 JUMP JUMPDEST PUSH1 0x0 SWAP2 DUP3 MSTORE PUSH1 0x20 SWAP2 DUP3 SWAP1 KECCAK256 ADD SLOAD PUSH1 0x40 DUP1 MLOAD PUSH32 0x397B65200000000000000000000000000000000000000000000000000000000 DUP2 MSTORE SWAP1 MLOAD PUSH1 0x1 PUSH1 0xA0 PUSH1 0x2 EXP SUB SWAP1 SWAP3 AND SWAP3 PUSH4 0x397B652 SWAP3 PUSH1 0x4 DUP1 DUP5 ADD SWAP4 DUP3 SWAP1 SUB ADD DUP2 DUP7 GAS STATICCALL ISZERO DUP1 ISZERO PUSH3 0x5CF JUMPI RETURNDATASIZE PUSH1 0x0 DUP1 RETURNDATACOPY RETURNDATASIZE PUSH1 0x0 REVERT JUMPDEST POP POP POP POP PUSH1 0x40 MLOAD RETURNDATASIZE PUSH1 0x1F NOT PUSH1 0x1F DUP3 ADD AND DUP3 ADD DUP1 PUSH1 0x40 MSTORE POP DUP2 ADD SWAP1 PUSH3 0x5F5 SWAP2 SWAP1 PUSH3 0xD91 JUMP JUMPDEST PUSH1 0x40 MLOAD PUSH1 0x0 DUP2 DUP2 DUP2 DUP6 DUP8 GAS CALL SWAP3 POP POP POP RETURNDATASIZE DUP1 PUSH1 0x0 DUP2 EQ PUSH3 0x633 JUMPI PUSH1 0x40 MLOAD SWAP2 POP PUSH1 0x1F NOT PUSH1 0x3F RETURNDATASIZE ADD AND DUP3 ADD PUSH1 0x40 MSTORE RETURNDATASIZE DUP3 MSTORE RETURNDATASIZE PUSH1 0x0 PUSH1 0x20 DUP5 ADD RETURNDATACOPY PUSH3 0x638 JUMP JUMPDEST PUSH1 0x60 SWAP2 POP JUMPDEST POP POP SWAP1 POP DUP1 PUSH3 0x65F JUMPI PUSH1 0x40 MLOAD PUSH1 0xE5 PUSH1 0x2 EXP PUSH3 0x461BCD MUL DUP2 MSTORE PUSH1 0x4 ADD PUSH3 0x48B SWAP1 PUSH3 0xE28 JUMP JUMPDEST POP DUP1 PUSH3 0x66C DUP2 PUSH3 0xD75 JUMP JUMPDEST SWAP2 POP POP PUSH3 0x497 JUMP JUMPDEST POP PUSH1 0x40 DUP1 MLOAD CALLER DUP2 MSTORE CALLVALUE PUSH1 0x20 DUP3 ADD MSTORE PUSH32 0xA54079B6FA54213FB4FB5B70E2C04892B228420BD1023BA63D9F7F7DCCE73CA9 SWAP2 ADD JUMPDEST PUSH1 0x40 MLOAD DUP1 SWAP2 SUB SWAP1 LOG1 JUMP JUMPDEST PUSH3 0x6BB PUSH3 0x9F4 JUMP JUMPDEST PUSH3 0x6C7 PUSH1 0x0 PUSH3 0xA53 JUMP JUMPDEST JUMP JUMPDEST PUSH3 0x6D3 PUSH3 0x9F4 JUMP JUMPDEST PUSH1 0x40 DUP1 MLOAD DUP1 DUP3 ADD SWAP1 SWAP2 MSTORE DUP3 DUP2 MSTORE PUSH1 0x20 DUP2 ADD DUP3 SWAP1 MSTORE PUSH1 0x3 DUP1 SLOAD PUSH1 0x1 DUP2 ADD DUP3 SSTORE PUSH1 0x0 SWAP2 SWAP1 SWAP2 MSTORE DUP2 MLOAD PUSH1 0x2 SWAP1 SWAP2 MUL PUSH32 0xC2575A0E9E593C00F959F8C92F12DB2869C3395A3B0502D05E2516446F71F85B ADD SWAP1 DUP2 SWAP1 PUSH3 0x72F SWAP1 DUP3 PUSH3 0xEEB JUMP JUMPDEST POP PUSH1 0x20 DUP3 ADD MLOAD DUP2 PUSH1 0x1 ADD SSTORE POP POP POP POP JUMP JUMPDEST PUSH1 0x0 PUSH1 0x3 DUP3 DUP2 SLOAD DUP2 LT PUSH3 0x758 JUMPI PUSH3 0x758 PUSH3 0xD27 JUMP JUMPDEST SWAP1 PUSH1 0x0 MSTORE PUSH1 0x20 PUSH1 0x0 KECCAK256 SWAP1 PUSH1 0x2 MUL ADD PUSH1 0x1 ADD SLOAD SWAP1 POP SWAP2 SWAP1 POP JUMP JUMPDEST PUSH3 0x77B PUSH3 0x9F4 JUMP JUMPDEST PUSH1 0x0 PUSH3 0x788 DUP3 PUSH3 0x740 JUMP JUMPDEST SWAP1 POP ADDRESS BALANCE DUP2 GT ISZERO PUSH3 0x7B1 JUMPI PUSH1 0x40 MLOAD PUSH1 0xE5 PUSH1 0x2 EXP PUSH3 0x461BCD MUL DUP2 MSTORE PUSH1 0x4 ADD PUSH3 0x48B SWAP1 PUSH3 0xDAB JUMP JUMPDEST PUSH1 0x1 SLOAD PUSH1 0x40 MLOAD PUSH1 0x0 SWAP2 PUSH1 0x1 PUSH1 0xA0 PUSH1 0x2 EXP SUB AND SWAP1 DUP4 SWAP1 DUP4 DUP2 DUP2 DUP2 DUP6 DUP8 GAS CALL SWAP3 POP POP POP RETURNDATASIZE DUP1 PUSH1 0x0 DUP2 EQ PUSH3 0x800 JUMPI PUSH1 0x40 MLOAD SWAP2 POP PUSH1 0x1F NOT PUSH1 0x3F RETURNDATASIZE ADD AND DUP3 ADD PUSH1 0x40 MSTORE RETURNDATASIZE DUP3 MSTORE RETURNDATASIZE PUSH1 0x0 PUSH1 0x20 DUP5 ADD RETURNDATACOPY PUSH3 0x805 JUMP JUMPDEST PUSH1 0x60 SWAP2 POP JUMPDEST POP POP SWAP1 POP DUP1 PUSH3 0x82C JUMPI PUSH1 0x40 MLOAD PUSH1 0xE5 PUSH1 0x2 EXP PUSH3 0x461BCD MUL DUP2 MSTORE PUSH1 0x4 ADD PUSH3 0x48B SWAP1 PUSH3 0xE28 JUMP JUMPDEST POP POP PUSH1 0x40 DUP1 MLOAD CALLER DUP2 MSTORE CALLVALUE PUSH1 0x20 DUP3 ADD MSTORE PUSH32 0xA54079B6FA54213FB4FB5B70E2C04892B228420BD1023BA63D9F7F7DCCE73CA9 SWAP2 ADD PUSH1 0x40 MLOAD DUP1 SWAP2 SUB SWAP1 LOG1 POP JUMP JUMPDEST PUSH3 0x873 PUSH3 0x9F4 JUMP JUMPDEST PUSH1 0x0 PUSH3 0x87F PUSH3 0x318 JUMP JUMPDEST SWAP1 POP ADDRESS BALANCE DUP2 GT ISZERO PUSH3 0x8A8 JUMPI PUSH1 0x40 MLOAD PUSH1 0xE5 PUSH1 0x2 EXP PUSH3 0x461BCD MUL DUP2 MSTORE PUSH1 0x4 ADD PUSH3 0x48B SWAP1 PUSH3 0xDAB JUMP JUMPDEST PUSH1 0x1 SLOAD PUSH1 0x40 MLOAD PUSH1 0x0 SWAP2 PUSH1 0x1 PUSH1 0xA0 PUSH1 0x2 EXP SUB AND SWAP1 DUP4 SWAP1 DUP4 DUP2 DUP2 DUP2 DUP6 DUP8 GAS CALL SWAP3 POP POP POP RETURNDATASIZE DUP1 PUSH1 0x0 DUP2 EQ PUSH3 0x8F7 JUMPI PUSH1 0x40 MLOAD SWAP2 POP PUSH1 0x1F NOT PUSH1 0x3F RETURNDATASIZE ADD AND DUP3 ADD PUSH1 0x40 MSTORE RETURNDATASIZE DUP3 MSTORE RETURNDATASIZE PUSH1 0x0 PUSH1 0x20 DUP5 ADD RETURNDATACOPY PUSH3 0x8FC JUMP JUMPDEST PUSH1 0x60 SWAP2 POP JUMPDEST POP POP SWAP1 POP DUP1 PUSH3 0x923 JUMPI PUSH1 0x40 MLOAD PUSH1 0xE5 PUSH1 0x2 EXP PUSH3 0x461BCD MUL DUP2 MSTORE PUSH1 0x4 ADD PUSH3 0x48B SWAP1 PUSH3 0xE28 JUMP JUMPDEST POP POP PUSH1 0x40 DUP1 MLOAD CALLER DUP2 MSTORE CALLVALUE PUSH1 0x20 DUP3 ADD MSTORE PUSH32 0xA54079B6FA54213FB4FB5B70E2C04892B228420BD1023BA63D9F7F7DCCE73CA9 SWAP2 ADD PUSH3 0x6A7 JUMP JUMPDEST PUSH3 0x965 PUSH3 0x9F4 JUMP JUMPDEST PUSH1 0x1 PUSH1 0xA0 PUSH1 0x2 EXP SUB DUP2 AND PUSH3 0x9E6 JUMPI PUSH1 0x40 MLOAD PUSH1 0xE5 PUSH1 0x2 EXP PUSH3 0x461BCD MUL DUP2 MSTORE PUSH1 0x20 PUSH1 0x4 DUP3 ADD MSTORE PUSH1 0x26 PUSH1 0x24 DUP3 ADD MSTORE PUSH32 0x4F776E61626C653A206E6577206F776E657220697320746865207A65726F2061 PUSH1 0x44 DUP3 ADD MSTORE PUSH32 0x6464726573730000000000000000000000000000000000000000000000000000 PUSH1 0x64 DUP3 ADD MSTORE PUSH1 0x84 ADD PUSH3 0x48B JUMP JUMPDEST PUSH3 0x9F1 DUP2 PUSH3 0xA53 JUMP JUMPDEST POP JUMP JUMPDEST PUSH1 0x0 SLOAD PUSH1 0x1 PUSH1 0xA0 PUSH1 0x2 EXP SUB AND CALLER EQ PUSH3 0x6C7 JUMPI PUSH1 0x40 MLOAD PUSH1 0xE5 PUSH1 0x2 EXP PUSH3 0x461BCD MUL DUP2 MSTORE PUSH1 0x20 PUSH1 0x4 DUP3 ADD DUP2 SWAP1 MSTORE PUSH1 0x24 DUP3 ADD MSTORE PUSH32 0x4F776E61626C653A2063616C6C6572206973206E6F7420746865206F776E6572 PUSH1 0x44 DUP3 ADD MSTORE PUSH1 0x64 ADD PUSH3 0x48B JUMP JUMPDEST PUSH1 0x0 DUP1 SLOAD PUSH1 0x1 PUSH1 0xA0 PUSH1 0x2 EXP SUB DUP4 DUP2 AND PUSH20 0xFFFFFFFFFFFFFFFFFFFFFFFFFFFFFFFFFFFFFFFF NOT DUP4 AND DUP2 OR DUP5 SSTORE PUSH1 0x40 MLOAD SWAP2 SWAP1 SWAP3 AND SWAP3 DUP4 SWAP2 PUSH32 0x8BE0079C531659141344CD1FD0A4F28419497F9722A3DAAFE3B4186F6B6457E0 SWAP2 SWAP1 LOG3 POP POP JUMP JUMPDEST PUSH2 0x43F DUP1 PUSH3 0xFBF DUP4 CODECOPY ADD SWAP1 JUMP JUMPDEST PUSH1 0xE0 PUSH1 0x2 EXP PUSH4 0x4E487B71 MUL PUSH1 0x0 MSTORE PUSH1 0x41 PUSH1 0x4 MSTORE PUSH1 0x24 PUSH1 0x0 REVERT JUMPDEST PUSH1 0x0 DUP3 PUSH1 0x1F DUP4 ADD SLT PUSH3 0xAE9 JUMPI PUSH1 0x0 DUP1 REVERT JUMPDEST DUP2 CALLDATALOAD PUSH8 0xFFFFFFFFFFFFFFFF DUP1 DUP3 GT ISZERO PUSH3 0xB07 JUMPI PUSH3 0xB07 PUSH3 0xABE JUMP JUMPDEST PUSH1 0x40 MLOAD PUSH1 0x1F DUP4 ADD PUSH1 0x1F NOT SWAP1 DUP2 AND PUSH1 0x3F ADD AND DUP2 ADD SWAP1 DUP3 DUP3 GT DUP2 DUP4 LT OR ISZERO PUSH3 0xB32 JUMPI PUSH3 0xB32 PUSH3 0xABE JUMP JUMPDEST DUP2 PUSH1 0x40 MSTORE DUP4 DUP2 MSTORE DUP7 PUSH1 0x20 DUP6 DUP9 ADD ADD GT ISZERO PUSH3 0xB4C JUMPI PUSH1 0x0 DUP1 REVERT JUMPDEST DUP4 PUSH1 0x20 DUP8 ADD PUSH1 0x20 DUP4 ADD CALLDATACOPY PUSH1 0x0 PUSH1 0x20 DUP6 DUP4 ADD ADD MSTORE DUP1 SWAP5 POP POP POP POP POP SWAP3 SWAP2 POP POP JUMP JUMPDEST PUSH1 0x1 PUSH1 0xA0 PUSH1 0x2 EXP SUB DUP2 AND DUP2 EQ PUSH3 0x9F1 JUMPI PUSH1 0x0 DUP1 REVERT JUMPDEST PUSH1 0x0 DUP1 PUSH1 0x0 DUP1 PUSH1 0x80 DUP6 DUP8 SUB SLT ISZERO PUSH3 0xB99 JUMPI PUSH1 0x0 DUP1 REVERT JUMPDEST DUP5 CALLDATALOAD PUSH8 0xFFFFFFFFFFFFFFFF DUP1 DUP3 GT ISZERO PUSH3 0xBB2 JUMPI PUSH1 0x0 DUP1 REVERT JUMPDEST PUSH3 0xBC0 DUP9 DUP4 DUP10 ADD PUSH3 0xAD7 JUMP JUMPDEST SWAP6 POP PUSH1 0x20 DUP8 ADD CALLDATALOAD SWAP2 POP PUSH3 0xBD4 DUP3 PUSH3 0xB6C JUMP JUMPDEST SWAP1 SWAP4 POP PUSH1 0x40 DUP7 ADD CALLDATALOAD SWAP1 DUP1 DUP3 GT ISZERO PUSH3 0xBEB JUMPI PUSH1 0x0 DUP1 REVERT JUMPDEST POP PUSH3 0xBFA DUP8 DUP3 DUP9 ADD PUSH3 0xAD7 JUMP JUMPDEST SWAP5 SWAP8 SWAP4 SWAP7 POP SWAP4 SWAP5 PUSH1 0x60 ADD CALLDATALOAD SWAP4 POP POP POP JUMP JUMPDEST PUSH1 0x0 DUP1 PUSH1 0x40 DUP4 DUP6 SUB SLT ISZERO PUSH3 0xC1F JUMPI PUSH1 0x0 DUP1 REVERT JUMPDEST DUP3 CALLDATALOAD PUSH8 0xFFFFFFFFFFFFFFFF DUP2 GT ISZERO PUSH3 0xC37 JUMPI PUSH1 0x0 DUP1 REVERT JUMPDEST PUSH3 0xC45 DUP6 DUP3 DUP7 ADD PUSH3 0xAD7 JUMP JUMPDEST SWAP6 PUSH1 0x20 SWAP5 SWAP1 SWAP5 ADD CALLDATALOAD SWAP5 POP POP POP POP JUMP JUMPDEST PUSH1 0x0 PUSH1 0x20 DUP3 DUP5 SUB SLT ISZERO PUSH3 0xC67 JUMPI PUSH1 0x0 DUP1 REVERT JUMPDEST POP CALLDATALOAD SWAP2 SWAP1 POP JUMP JUMPDEST PUSH1 0x0 PUSH1 0x20 DUP3 DUP5 SUB SLT ISZERO PUSH3 0xC81 JUMPI PUSH1 0x0 DUP1 REVERT JUMPDEST DUP2 CALLDATALOAD PUSH3 0xC8E DUP2 PUSH3 0xB6C JUMP JUMPDEST SWAP4 SWAP3 POP POP POP JUMP JUMPDEST PUSH1 0x0 DUP2 MLOAD DUP1 DUP5 MSTORE PUSH1 0x0 JUMPDEST DUP2 DUP2 LT ISZERO PUSH3 0xCBD JUMPI PUSH1 0x20 DUP2 DUP6 ADD DUP2 ADD MLOAD DUP7 DUP4 ADD DUP3 ADD MSTORE ADD PUSH3 0xC9F JUMP JUMPDEST POP PUSH1 0x0 PUSH1 0x20 DUP3 DUP7 ADD ADD MSTORE PUSH1 0x20 PUSH1 0x1F NOT PUSH1 0x1F DUP4 ADD AND DUP6 ADD ADD SWAP2 POP POP SWAP3 SWAP2 POP POP JUMP JUMPDEST PUSH1 0x80 DUP2 MSTORE PUSH1 0x0 PUSH3 0xCF2 PUSH1 0x80 DUP4 ADD DUP8 PUSH3 0xC95 JUMP JUMPDEST PUSH1 0x1 PUSH1 0xA0 PUSH1 0x2 EXP SUB DUP7 AND PUSH1 0x20 DUP5 ADD MSTORE DUP3 DUP2 SUB PUSH1 0x40 DUP5 ADD MSTORE PUSH3 0xD15 DUP2 DUP7 PUSH3 0xC95 JUMP JUMPDEST SWAP2 POP POP DUP3 PUSH1 0x60 DUP4 ADD MSTORE SWAP6 SWAP5 POP POP POP POP POP JUMP JUMPDEST PUSH1 0xE0 PUSH1 0x2 EXP PUSH4 0x4E487B71 MUL PUSH1 0x0 MSTORE PUSH1 0x32 PUSH1 0x4 MSTORE PUSH1 0x24 PUSH1 0x0 REVERT JUMPDEST PUSH1 0xE0 PUSH1 0x2 EXP PUSH4 0x4E487B71 MUL PUSH1 0x0 MSTORE PUSH1 0x11 PUSH1 0x4 MSTORE PUSH1 0x24 PUSH1 0x0 REVERT JUMPDEST DUP1 DUP3 ADD DUP1 DUP3 GT ISZERO PUSH3 0xD6F JUMPI PUSH3 0xD6F PUSH3 0xD40 JUMP JUMPDEST SWAP3 SWAP2 POP POP JUMP JUMPDEST PUSH1 0x0 PUSH1 0x1 DUP3 ADD PUSH3 0xD8A JUMPI PUSH3 0xD8A PUSH3 0xD40 JUMP JUMPDEST POP PUSH1 0x1 ADD SWAP1 JUMP JUMPDEST PUSH1 0x0 PUSH1 0x20 DUP3 DUP5 SUB SLT ISZERO PUSH3 0xDA4 JUMPI PUSH1 0x0 DUP1 REVERT JUMPDEST POP MLOAD SWAP2 SWAP1 POP JUMP JUMPDEST PUSH1 0x20 DUP1 DUP3 MSTORE PUSH1 0x2B SWAP1 DUP3 ADD MSTORE PUSH32 0x5468652062616C616E6365206F662074686520636F6E74726163742069732069 PUSH1 0x40 DUP3 ADD MSTORE PUSH32 0x6E73756666696369656E74000000000000000000000000000000000000000000 PUSH1 0x60 DUP3 ADD MSTORE PUSH1 0x80 ADD SWAP1 JUMP JUMPDEST PUSH1 0x0 PUSH1 0x20 DUP3 DUP5 SUB SLT ISZERO PUSH3 0xE1B JUMPI PUSH1 0x0 DUP1 REVERT JUMPDEST DUP2 MLOAD PUSH3 0xC8E DUP2 PUSH3 0xB6C JUMP JUMPDEST PUSH1 0x20 DUP1 DUP3 MSTORE PUSH1 0x10 SWAP1 DUP3 ADD MSTORE PUSH32 0x5472616E73666572206661696C65642E00000000000000000000000000000000 PUSH1 0x40 DUP3 ADD MSTORE PUSH1 0x60 ADD SWAP1 JUMP JUMPDEST PUSH1 0x2 DUP2 DIV PUSH1 0x1 DUP3 AND DUP1 PUSH3 0xE74 JUMPI PUSH1 0x7F DUP3 AND SWAP2 POP JUMPDEST PUSH1 0x20 DUP3 LT DUP2 SUB PUSH3 0x374 JUMPI PUSH1 0xE0 PUSH1 0x2 EXP PUSH4 0x4E487B71 MUL PUSH1 0x0 MSTORE PUSH1 0x22 PUSH1 0x4 MSTORE PUSH1 0x24 PUSH1 0x0 REVERT JUMPDEST PUSH1 0x1F DUP3 GT ISZERO PUSH3 0xEE6 JUMPI PUSH1 0x0 DUP2 DUP2 MSTORE PUSH1 0x20 DUP2 KECCAK256 PUSH1 0x20 PUSH1 0x1F DUP7 ADD DIV DUP2 ADD PUSH1 0x20 DUP7 LT ISZERO PUSH3 0xEC1 JUMPI POP DUP1 JUMPDEST PUSH1 0x20 PUSH1 0x1F DUP7 ADD DIV DUP3 ADD SWAP2 POP JUMPDEST DUP2 DUP2 LT ISZERO PUSH3 0xEE2 JUMPI DUP3 DUP2 SSTORE PUSH1 0x1 ADD PUSH3 0xECD JUMP JUMPDEST POP POP POP JUMPDEST POP POP POP JUMP JUMPDEST DUP2 MLOAD PUSH8 0xFFFFFFFFFFFFFFFF DUP2 GT ISZERO PUSH3 0xF08 JUMPI PUSH3 0xF08 PUSH3 0xABE JUMP JUMPDEST PUSH3 0xF20 DUP2 PUSH3 0xF19 DUP5 SLOAD PUSH3 0xE5F JUMP JUMPDEST DUP5 PUSH3 0xE98 JUMP JUMPDEST PUSH1 0x20 DUP1 PUSH1 0x1F DUP4 GT PUSH1 0x1 DUP2 EQ PUSH3 0xF5C JUMPI PUSH1 0x0 DUP5 ISZERO PUSH3 0xF3F JUMPI POP DUP6 DUP4 ADD MLOAD JUMPDEST PUSH1 0x2 DUP1 DUP7 MUL PUSH1 0x8 DUP8 MUL SWAP1 SWAP2 EXP PUSH1 0x0 NOT DIV NOT DUP3 AND OR DUP7 SSTORE POP PUSH3 0xEE2 JUMP JUMPDEST PUSH1 0x0 DUP6 DUP2 MSTORE PUSH1 0x20 DUP2 KECCAK256 PUSH1 0x1F NOT DUP7 AND SWAP2 JUMPDEST DUP3 DUP2 LT ISZERO PUSH3 0xF8D JUMPI DUP9 DUP7 ADD MLOAD DUP3 SSTORE SWAP5 DUP5 ADD SWAP5 PUSH1 0x1 SWAP1 SWAP2 ADD SWAP1 DUP5 ADD PUSH3 0xF6C JUMP JUMPDEST POP DUP6 DUP3 LT ISZERO PUSH3 0xFAE JUMPI DUP8 DUP6 ADD MLOAD PUSH1 0x8 PUSH1 0x1F DUP9 AND MUL PUSH1 0x2 EXP PUSH1 0x0 NOT DIV NOT AND DUP2 SSTORE JUMPDEST POP POP POP POP POP PUSH1 0x2 MUL PUSH1 0x1 ADD SWAP1 SSTORE POP JUMP INVALID PUSH1 0x80 PUSH1 0x40 MSTORE CALLVALUE DUP1 ISZERO PUSH2 0x10 JUMPI PUSH1 0x0 DUP1 REVERT JUMPDEST POP PUSH1 0x40 MLOAD PUSH2 0x43F CODESIZE SUB DUP1 PUSH2 0x43F DUP4 CODECOPY DUP2 ADD PUSH1 0x40 DUP2 SWAP1 MSTORE PUSH2 0x2F SWAP2 PUSH2 0x14C JUMP JUMPDEST DUP4 DUP4 PUSH1 0x0 PUSH2 0x3D DUP4 DUP3 PUSH2 0x279 JUMP JUMPDEST POP PUSH1 0x1 DUP1 SLOAD PUSH1 0x1 PUSH1 0xA0 PUSH1 0x2 EXP SUB NOT AND PUSH1 0x1 PUSH1 0xA0 PUSH1 0x2 EXP SUB SWAP3 SWAP1 SWAP3 AND SWAP2 SWAP1 SWAP2 OR SWAP1 SSTORE POP PUSH1 0x2 PUSH2 0x6B DUP4 DUP3 PUSH2 0x279 JUMP JUMPDEST POP PUSH1 0x3 SSTORE POP PUSH2 0x33E SWAP2 POP POP JUMP JUMPDEST PUSH32 0x4E487B7100000000000000000000000000000000000000000000000000000000 PUSH1 0x0 MSTORE PUSH1 0x41 PUSH1 0x4 MSTORE PUSH1 0x24 PUSH1 0x0 REVERT JUMPDEST PUSH1 0x0 DUP3 PUSH1 0x1F DUP4 ADD SLT PUSH2 0xB8 JUMPI PUSH1 0x0 DUP1 REVERT JUMPDEST DUP2 MLOAD PUSH1 0x1 PUSH1 0x40 PUSH1 0x2 EXP SUB DUP1 DUP3 GT ISZERO PUSH2 0xD2 JUMPI PUSH2 0xD2 PUSH2 0x78 JUMP JUMPDEST PUSH1 0x40 MLOAD PUSH1 0x1F DUP4 ADD PUSH1 0x1F NOT SWAP1 DUP2 AND PUSH1 0x3F ADD AND DUP2 ADD SWAP1 DUP3 DUP3 GT DUP2 DUP4 LT OR ISZERO PUSH2 0xFA JUMPI PUSH2 0xFA PUSH2 0x78 JUMP JUMPDEST DUP2 PUSH1 0x40 MSTORE DUP4 DUP2 MSTORE PUSH1 0x20 SWAP3 POP DUP7 DUP4 DUP6 DUP9 ADD ADD GT ISZERO PUSH2 0x116 JUMPI PUSH1 0x0 DUP1 REVERT JUMPDEST PUSH1 0x0 SWAP2 POP JUMPDEST DUP4 DUP3 LT ISZERO PUSH2 0x138 JUMPI DUP6 DUP3 ADD DUP4 ADD MLOAD DUP2 DUP4 ADD DUP5 ADD MSTORE SWAP1 DUP3 ADD SWAP1 PUSH2 0x11B JUMP JUMPDEST PUSH1 0x0 SWAP4 DUP2 ADD SWAP1 SWAP3 ADD SWAP3 SWAP1 SWAP3 MSTORE SWAP5 SWAP4 POP POP POP POP JUMP JUMPDEST PUSH1 0x0 DUP1 PUSH1 0x0 DUP1 PUSH1 0x80 DUP6 DUP8 SUB SLT ISZERO PUSH2 0x162 JUMPI PUSH1 0x0 DUP1 REVERT JUMPDEST DUP5 MLOAD PUSH1 0x1 PUSH1 0x40 PUSH1 0x2 EXP SUB DUP1 DUP3 GT ISZERO PUSH2 0x179 JUMPI PUSH1 0x0 DUP1 REVERT JUMPDEST PUSH2 0x185 DUP9 DUP4 DUP10 ADD PUSH2 0xA7 JUMP JUMPDEST PUSH1 0x20 DUP9 ADD MLOAD SWAP1 SWAP7 POP SWAP2 POP PUSH1 0x1 PUSH1 0xA0 PUSH1 0x2 EXP SUB DUP3 AND DUP3 EQ PUSH2 0x1A4 JUMPI PUSH1 0x0 DUP1 REVERT JUMPDEST PUSH1 0x40 DUP8 ADD MLOAD SWAP2 SWAP5 POP DUP1 DUP3 GT ISZERO PUSH2 0x1B9 JUMPI PUSH1 0x0 DUP1 REVERT JUMPDEST POP PUSH2 0x1C6 DUP8 DUP3 DUP9 ADD PUSH2 0xA7 JUMP JUMPDEST PUSH1 0x60 SWAP7 SWAP1 SWAP7 ADD MLOAD SWAP5 SWAP8 SWAP4 SWAP7 POP POP POP POP JUMP JUMPDEST PUSH1 0x2 DUP2 DIV PUSH1 0x1 DUP3 AND DUP1 PUSH2 0x1EB JUMPI PUSH1 0x7F DUP3 AND SWAP2 POP JUMPDEST PUSH1 0x20 DUP3 LT DUP2 SUB PUSH2 0x224 JUMPI PUSH32 0x4E487B7100000000000000000000000000000000000000000000000000000000 PUSH1 0x0 MSTORE PUSH1 0x22 PUSH1 0x4 MSTORE PUSH1 0x24 PUSH1 0x0 REVERT JUMPDEST POP SWAP2 SWAP1 POP JUMP JUMPDEST PUSH1 0x1F DUP3 GT ISZERO PUSH2 0x274 JUMPI PUSH1 0x0 DUP2 DUP2 MSTORE PUSH1 0x20 DUP2 KECCAK256 PUSH1 0x20 PUSH1 0x1F DUP7 ADD DIV DUP2 ADD PUSH1 0x20 DUP7 LT ISZERO PUSH2 0x251 JUMPI POP DUP1 JUMPDEST PUSH1 0x20 PUSH1 0x1F DUP7 ADD DIV DUP3 ADD SWAP2 POP JUMPDEST DUP2 DUP2 LT ISZERO PUSH2 0x270 JUMPI DUP3 DUP2 SSTORE PUSH1 0x1 ADD PUSH2 0x25D JUMP JUMPDEST POP POP POP JUMPDEST POP POP POP JUMP JUMPDEST DUP2 MLOAD PUSH1 0x1 PUSH1 0x40 PUSH1 0x2 EXP SUB DUP2 GT ISZERO PUSH2 0x292 JUMPI PUSH2 0x292 PUSH2 0x78 JUMP JUMPDEST PUSH2 0x2A6 DUP2 PUSH2 0x2A0 DUP5 SLOAD PUSH2 0x1D7 JUMP JUMPDEST DUP5 PUSH2 0x22A JUMP JUMPDEST PUSH1 0x20 DUP1 PUSH1 0x1F DUP4 GT PUSH1 0x1 DUP2 EQ PUSH2 0x2DF JUMPI PUSH1 0x0 DUP5 ISZERO PUSH2 0x2C3 JUMPI POP DUP6 DUP4 ADD MLOAD JUMPDEST PUSH1 0x2 DUP1 DUP7 MUL PUSH1 0x8 DUP8 MUL SWAP1 SWAP2 EXP PUSH1 0x0 NOT DIV NOT DUP3 AND OR DUP7 SSTORE POP PUSH2 0x270 JUMP JUMPDEST PUSH1 0x0 DUP6 DUP2 MSTORE PUSH1 0x20 DUP2 KECCAK256 PUSH1 0x1F NOT DUP7 AND SWAP2 JUMPDEST DUP3 DUP2 LT ISZERO PUSH2 0x30E JUMPI DUP9 DUP7 ADD MLOAD DUP3 SSTORE SWAP5 DUP5 ADD SWAP5 PUSH1 0x1 SWAP1 SWAP2 ADD SWAP1 DUP5 ADD PUSH2 0x2EF JUMP JUMPDEST POP DUP6 DUP3 LT ISZERO PUSH2 0x32E JUMPI DUP8 DUP6 ADD MLOAD PUSH1 0x8 PUSH1 0x1F DUP9 AND MUL PUSH1 0x2 EXP PUSH1 0x0 NOT DIV NOT AND DUP2 SSTORE JUMPDEST POP POP POP POP POP PUSH1 0x2 MUL PUSH1 0x1 ADD SWAP1 SSTORE POP JUMP JUMPDEST PUSH1 0xF3 DUP1 PUSH2 0x34C PUSH1 0x0 CODECOPY PUSH1 0x0 RETURN INVALID PUSH1 0x80 PUSH1 0x40 MSTORE CALLVALUE DUP1 ISZERO PUSH1 0xF JUMPI PUSH1 0x0 DUP1 REVERT JUMPDEST POP PUSH1 0x4 CALLDATASIZE LT PUSH1 0x58 JUMPI PUSH29 0x100000000000000000000000000000000000000000000000000000000 PUSH1 0x0 CALLDATALOAD DIV PUSH4 0x397B652 DUP2 EQ PUSH1 0x5D JUMPI DUP1 PUSH4 0x1581B600 EQ PUSH1 0x78 JUMPI DUP1 PUSH4 0xD4E93292 EQ PUSH1 0xBB JUMPI JUMPDEST PUSH1 0x0 DUP1 REVERT JUMPDEST PUSH1 0x65 PUSH1 0x3 SLOAD DUP2 JUMP JUMPDEST PUSH1 0x40 MLOAD SWAP1 DUP2 MSTORE PUSH1 0x20 ADD JUMPDEST PUSH1 0x40 MLOAD DUP1 SWAP2 SUB SWAP1 RETURN JUMPDEST PUSH1 0x1 SLOAD PUSH1 0x97 SWAP1 PUSH20 0xFFFFFFFFFFFFFFFFFFFFFFFFFFFFFFFFFFFFFFFF AND DUP2 JUMP JUMPDEST PUSH1 0x40 MLOAD PUSH20 0xFFFFFFFFFFFFFFFFFFFFFFFFFFFFFFFFFFFFFFFF SWAP1 SWAP2 AND DUP2 MSTORE PUSH1 0x20 ADD PUSH1 0x6F JUMP JUMPDEST STOP INVALID LOG2 PUSH5 0x6970667358 0x22 SLT KECCAK256 0xE2 PUSH16 0x9B565671FA84C384CFDF2939CDF570D3 DUP15 MSIZE XOR PUSH5 0x52E3EEBACB PUSH12 0x154D5D6664736F6C63430008 GT STOP CALLER LOG2 PUSH5 0x6970667358 0x22 SLT KECCAK256 LOG4 SWAP16 0xA5 0xB7 PUSH7 0xDF2E6872F04396 PUSH15 0xD91B08018A5E6A0E49B9FCD9EECEDB 0xE 0xAD 0x4C 0xF PUSH5 0x736F6C6343 STOP ADDMOD GT STOP CALLER PUSH1 0x80 PUSH1 0x40 MSTORE CALLVALUE DUP1 ISZERO PUSH2 0x10 JUMPI PUSH1 0x0 DUP1 REVERT JUMPDEST POP PUSH1 0xB9 DUP1 PUSH2 0x1F PUSH1 0x0 CODECOPY PUSH1 0x0 RETURN INVALID PUSH1 0x80 PUSH1 0x40 MSTORE PUSH1 0x4 CALLDATASIZE LT PUSH1 0x42 JUMPI PUSH29 0x100000000000000000000000000000000000000000000000000000000 PUSH1 0x0 CALLDATALOAD DIV PUSH3 0x113E08 DUP2 EQ PUSH1 0x4A JUMPI DUP1 PUSH4 0x38CC4831 EQ PUSH1 0x6A JUMPI STOP JUMPDEST CALLDATASIZE PUSH1 0x48 JUMPI STOP JUMPDEST STOP JUMPDEST CALLVALUE DUP1 ISZERO PUSH1 0x55 JUMPI PUSH1 0x0 DUP1 REVERT JUMPDEST POP PUSH1 0x40 MLOAD ADDRESS BALANCE DUP2 MSTORE PUSH1 0x20 ADD JUMPDEST PUSH1 0x40 MLOAD DUP1 SWAP2 SUB SWAP1 RETURN JUMPDEST CALLVALUE DUP1 ISZERO PUSH1 0x75 JUMPI PUSH1 0x0 DUP1 REVERT JUMPDEST POP PUSH1 0x40 MLOAD ADDRESS DUP2 MSTORE PUSH1 0x20 ADD PUSH1 0x61 JUMP INVALID LOG2 PUSH5 0x6970667358 0x22 SLT KECCAK256 0xFB PUSH22 0x414E6488EFADD1CF0FB03D51BFB5F616C42CBB23EE36 0xA9 JUMPI SWAP2 SWAP7 EXTCODECOPY LOG1 MUL 0xA5 PUSH5 0x736F6C6343 STOP ADDMOD GT STOP CALLER "
		},
		"gasEstimates": {
			"creation": {
				"codeDepositCost": "1034200",
				"executionCost": "infinite",
				"totalCost": "infinite"
			},
			"external": {
				"": "211",
				"CostForAnService(uint256)": "810",
				"addNewEmployee(string,address,string,uint256)": "infinite",
				"addNewService(string,uint256)": "infinite",
				"getContractBalance()": "1369",
				"getTotalAmountForSalaries()": "infinite",
				"getTotalAmountForService()": "infinite",
				"owner()": "617",
				"payAllServices()": "infinite",
				"paySalaries()": "infinite",
				"payService(uint256)": "infinite",
				"renounceOwnership()": "infinite",
				"showContractAddress()": "308",
				"transferOwnership(address)": "infinite"
			}
		},
		"methodIdentifiers": {
			"CostForAnService(uint256)": "b6f240dc",
			"addNewEmployee(string,address,string,uint256)": "2237300f",
			"addNewService(string,uint256)": "72673e31",
			"getContractBalance()": "6f9fb98a",
			"getTotalAmountForSalaries()": "3b3ea988",
			"getTotalAmountForService()": "22fea7f3",
			"owner()": "8da5cb5b",
			"payAllServices()": "ec3ab274",
			"paySalaries()": "42e36b3b",
			"payService(uint256)": "cd7d77c5",
			"renounceOwnership()": "715018a6",
			"showContractAddress()": "7ca2e656",
			"transferOwnership(address)": "f2fde38b"
		}
	},
	"abi": [
		{
			"inputs": [],
			"stateMutability": "nonpayable",
			"type": "constructor"
		},
		{
			"anonymous": false,
			"inputs": [
				{
					"indexed": true,
					"internalType": "address",
					"name": "previousOwner",
					"type": "address"
				},
				{
					"indexed": true,
					"internalType": "address",
					"name": "newOwner",
					"type": "address"
				}
			],
			"name": "OwnershipTransferred",
			"type": "event"
		},
		{
			"anonymous": false,
			"inputs": [
				{
					"indexed": false,
					"internalType": "address",
					"name": "from",
					"type": "address"
				},
				{
					"indexed": false,
					"internalType": "uint256",
					"name": "amount",
					"type": "uint256"
				}
			],
			"name": "PaymentSucessfully",
			"type": "event"
		},
		{
			"stateMutability": "payable",
			"type": "fallback"
		},
		{
			"inputs": [
				{
					"internalType": "uint256",
					"name": "index",
					"type": "uint256"
				}
			],
			"name": "CostForAnService",
			"outputs": [
				{
					"internalType": "uint256",
					"name": "",
					"type": "uint256"
				}
			],
			"stateMutability": "view",
			"type": "function"
		},
		{
			"inputs": [
				{
					"internalType": "string",
					"name": "_name",
					"type": "string"
				},
				{
					"internalType": "address",
					"name": "_employeeAddress",
					"type": "address"
				},
				{
					"internalType": "string",
					"name": "_profession",
					"type": "string"
				},
				{
					"internalType": "uint256",
					"name": "_salary",
					"type": "uint256"
				}
			],
			"name": "addNewEmployee",
			"outputs": [],
			"stateMutability": "nonpayable",
			"type": "function"
		},
		{
			"inputs": [
				{
					"internalType": "string",
					"name": "_name",
					"type": "string"
				},
				{
					"internalType": "uint256",
					"name": "_price",
					"type": "uint256"
				}
			],
			"name": "addNewService",
			"outputs": [],
			"stateMutability": "nonpayable",
			"type": "function"
		},
		{
			"inputs": [],
			"name": "getContractBalance",
			"outputs": [
				{
					"internalType": "uint256",
					"name": "balance",
					"type": "uint256"
				},
				{
					"internalType": "uint256",
					"name": "serviceBalance",
					"type": "uint256"
				}
			],
			"stateMutability": "view",
			"type": "function"
		},
		{
			"inputs": [],
			"name": "getTotalAmountForSalaries",
			"outputs": [
				{
					"internalType": "uint256",
					"name": "",
					"type": "uint256"
				}
			],
			"stateMutability": "view",
			"type": "function"
		},
		{
			"inputs": [],
			"name": "getTotalAmountForService",
			"outputs": [
				{
					"internalType": "uint256",
					"name": "",
					"type": "uint256"
				}
			],
			"stateMutability": "view",
			"type": "function"
		},
		{
			"inputs": [],
			"name": "owner",
			"outputs": [
				{
					"internalType": "address",
					"name": "",
					"type": "address"
				}
			],
			"stateMutability": "view",
			"type": "function"
		},
		{
			"inputs": [],
			"name": "payAllServices",
			"outputs": [],
			"stateMutability": "payable",
			"type": "function"
		},
		{
			"inputs": [],
			"name": "paySalaries",
			"outputs": [],
			"stateMutability": "payable",
			"type": "function"
		},
		{
			"inputs": [
				{
					"internalType": "uint256",
					"name": "index",
					"type": "uint256"
				}
			],
			"name": "payService",
			"outputs": [],
			"stateMutability": "payable",
			"type": "function"
		},
		{
			"inputs": [],
			"name": "renounceOwnership",
			"outputs": [],
			"stateMutability": "nonpayable",
			"type": "function"
		},
		{
			"inputs": [],
			"name": "showContractAddress",
			"outputs": [
				{
					"internalType": "address",
					"name": "",
					"type": "address"
				}
			],
			"stateMutability": "view",
			"type": "function"
		},
		{
			"inputs": [
				{
					"internalType": "address",
					"name": "newOwner",
					"type": "address"
				}
			],
			"name": "transferOwnership",
			"outputs": [],
			"stateMutability": "nonpayable",
			"type": "function"
		},
		{
			"stateMutability": "payable",
			"type": "receive"
		}
	]
}