{
	"data": {
		"bytecode": {
			"linkReferences": {},
			"object": "608060405234801561001057600080fd5b5060b98061001f6000396000f3fe6080604052600436106042577c01000000000000000000000000000000000000000000000000000000006000350462113e088114604a57806338cc483114606a57005b36604857005b005b348015605557600080fd5b50604051303181526020015b60405180910390f35b348015607557600080fd5b50604051308152602001606156fea2646970667358221220fb75414e6488efadd1cf0fb03d51bfb5f616c42cbb23ee36a95791963ca102a564736f6c63430008110033",
			"opcodes": "PUSH1 0x80 PUSH1 0x40 MSTORE CALLVALUE DUP1 ISZERO PUSH2 0x10 JUMPI PUSH1 0x0 DUP1 REVERT JUMPDEST POP PUSH1 0xB9 DUP1 PUSH2 0x1F PUSH1 0x0 CODECOPY PUSH1 0x0 RETURN INVALID PUSH1 0x80 PUSH1 0x40 MSTORE PUSH1 0x4 CALLDATASIZE LT PUSH1 0x42 JUMPI PUSH29 0x100000000000000000000000000000000000000000000000000000000 PUSH1 0x0 CALLDATALOAD DIV PUSH3 0x113E08 DUP2 EQ PUSH1 0x4A JUMPI DUP1 PUSH4 0x38CC4831 EQ PUSH1 0x6A JUMPI STOP JUMPDEST CALLDATASIZE PUSH1 0x48 JUMPI STOP JUMPDEST STOP JUMPDEST CALLVALUE DUP1 ISZERO PUSH1 0x55 JUMPI PUSH1 0x0 DUP1 REVERT JUMPDEST POP PUSH1 0x40 MLOAD ADDRESS BALANCE DUP2 MSTORE PUSH1 0x20 ADD JUMPDEST PUSH1 0x40 MLOAD DUP1 SWAP2 SUB SWAP1 RETURN JUMPDEST CALLVALUE DUP1 ISZERO PUSH1 0x75 JUMPI PUSH1 0x0 DUP1 REVERT JUMPDEST POP PUSH1 0x40 MLOAD ADDRESS DUP2 MSTORE PUSH1 0x20 ADD PUSH1 0x61 JUMP INVALID LOG2 PUSH5 0x6970667358 0x22 SLT KECCAK256 0xFB PUSH22 0x414E6488EFADD1CF0FB03D51BFB5F616C42CBB23EE36 0xA9 JUMPI SWAP2 SWAP7 EXTCODECOPY LOG1 MUL 0xA5 PUSH5 0x736F6C6343 STOP ADDMOD GT STOP CALLER "
		},
		"gasEstimates": {
			"creation": {
				"codeDepositCost": "37000",
				"executionCost": "87",
				"totalCost": "37087"
			},
			"external": {
				"": "97",
				"getAddress()": "178",
				"getBalances()": "545"
			}
		},
		"methodIdentifiers": {
			"getAddress()": "38cc4831",
			"getBalances()": "00113e08"
		}
	},
	"abi": [
		{
			"stateMutability": "payable",
			"type": "fallback"
		},
		{
			"inputs": [],
			"name": "getAddress",
			"outputs": [
				{
					"internalType": "address",
					"name": "",
					"type": "address"
				}
			],
			"stateMutability": "view",
			"type": "function"
		},
		{
			"inputs": [],
			"name": "getBalances",
			"outputs": [
				{
					"internalType": "uint256",
					"name": "",
					"type": "uint256"
				}
			],
			"stateMutability": "view",
			"type": "function"
		},
		{
			"stateMutability": "payable",
			"type": "receive"
		}
	]
}